:100000000C947B020C949C020C949C020C949C0219
:100010000C949C020C949C020C949C020C949C02E8
:100020000C949C020C949C020C949C020C949C02D8
:100030000C949C020C943D270C949C020C949C0202
:100040000C949C020C949C020C949C020C949C02B8
:100050000C949C020C949C020C949C020C949C02A8
:100060000C949C020C94BF270C949C020C949C0250
:100070000C949C020C949C020C949C020C949C0288
:100080000C94FB3C0C949C020C949C020C949C02DF
:100090000C94EE270C949C020C949C020C949C02F1
:1000A0000C949C020C949C020C949C020C949C0258
:1000B0000C949C020C949C020C949C020C949C0248
:1000C0000C949C020C949C020C949C020C949C0238
:1000D0000C949C020C949C020C949C020C949C0228
:1000E0000C949C020C94582E0C94622E0C94302E7E
:1000F0000C94F82D0C948E2E0C94842E0C94782E47
:100100000C946C2E0C949C020C949C020C949C02FB
:100110000C949C020C949C020C949C020C949C02E7
:100120000C949C020C949C020C949C020C949C02D7
:100130000C949C02B62AC42ACD2AD22AD72ABB2ADA
:10014000112BBB2A492D442D4C2D4F2D562D492DB9
:10015000702D492D732D852D852D852D852D762D81
:10016000792D7C2D7F2D0C94AA2A0C94692B0C944C
:1001700013290C946A320C94D72A0C94A92E0C944F
:1001800005160C947E260C946B2C0C9427370C943B
:10019000562D0C94EA380C94E0020C947F2D0C94AC
:1001A0009E020C9447120C94EC140C94D9330C94CA
:1001B00040370C94352D0C9404350C94B32B0C94CF
:1001C0009B350C94762D0C94ED380C944A120C94BB
:1001D00009350C947C2D0C94852D0C94702D0C9469
:1001E000DD050C942B3E0C9403330C941F350C94BA
:1001F00019140C9481260C94C8280C94003E0C947D
:10020000D22A0C94B62A0C9499280C944F2D0C9455
:10021000792D0C9407150C941E290C94ED290C943F
:10022000CD330C940E350C948F350C9484260C949D
:1002300066340C948D350C94DC3E0C9428160C948A
:10024000973E0C946C3F0C946D350C9416350C94C1
:10025000EE070C9405380C948A400C9421370C94CA
:10026000C72F0C94F0380C948F340C94732D0C948D
:10027000C42A0C943D370C9422370C9413350C94FB
:100280006F420C941B0E0C94B5400C944F280C94A8
:10029000E4290C947B160C9418170C949C280C944D
:1002A00017350C9486400C94F82C0C94BB2A0C94B3
:1002B0002A120C9433290C943B410C94FF0C0C949F
:1002C000112B0C94FF340C944C2D0C94442D0C9455
:1002D000C2340C945B2A0C9466140C94503E0C941B
:1002E000CD2A0C94492D0C9469140C941C354E6540
:1002F0007665722D7573656420737461636B203E3F
:100300002025642062797465730A004F6E6C696EF3
:10031000650A00526F7574696E6720456E61626C84
:1003200065640A0050414E3D307825582C204D41DF
:10033000433D25732C205244433D25732C204E45CC
:1003400054574F524B3D25732C206368616E6E6588
:100350006C3D252D752C20636865636B2D7261746F
:10036000652D487A3D252D752C2074782D706F777A
:1003700065723D252D750A000A0025783A004D4129
:1003800043206164647265737320000A2A2A2A2A52
:100390002A2A2A426F6F74696E672025732A2A2AD7
:1003A0002A2A2A2A0A00454550524F4D20697320B7
:1003B000636F72727570742C2072657772697469DC
:1003C0006E6720776974682064656661756C747304
:1003D0002E0A006C6F63616C686F73740041544D3A
:1003E0004547413235367266723200020000FFFE28
:1003F0000000016E616E00696E660000407A10F3C5
:100400005A00A0724E18090010A5D4E80000E87642
:1004100048170000E40B54020000CA9A3B00000099
:10042000E1F505000080969800000040420F0000B2
:1004300000A08601000000102700000000E8030073
:100440000000006400000000000A0000000000013D
:1004500000000000002C76D888DC674F0823DFC13D
:10046000DFAE59E1B1B796E5E3E453C63AE65199F8
:100470007696E8E6C28426EB898C9B62ED407C6F21
:10048000FCEFBC9C9F40F2BAA56FA5F490055A2AD8
:10049000F75C936B6CF9676DC11BFCE0E40D47FEE4
:1004A000F520E6B500D0ED902E03009435770500D9
:1004B00080841E080000204E0A000000C80C333360
:1004C00033330F986E12831141EF8D2114893BE66F
:1004D0005516CFFEE6DB18D1844B381BF77C1D90F8
:1004E0001DA4BBE424203284725E228100C9F12461
:1004F000ECA1E53D270011241FBECFEFD1E8DEBF00
:10050000CDBF00E00CBF1EE0A0E0B2E0EAEDF1EAF2
:1005100000E00BBF02C007900D92A43AB107D9F7D3
:1005200020E2A4EABEE001C01D92AB3AB207E1F7B7
:100530000E942D110C94EB500C9400000F931F930C
:10054000CF93DF938B010E943036EC0184E00E9450
:10055000D8369093A31F8093A21F83E00E94D836C1
:100560008093B01F9093B11F29811F922F932881F0
:100570002F701F922F939F938F938091A31F8F9320
:100580008091A21F8F93F80181811F928F938081A8
:100590001F928F932296DF93CF938EED92E09F93DD
:1005A0008F930E945A4FEDB7FEB770960FB6F8942E
:1005B000FEBF0FBEEDBFDF91CF911F910F91089548
:1005C000EF92FF920F931F93CF93DF938C017A01E9
:1005D000FC0180819181009741F0883A9105C1F03A
:1005E000F8011182108283E058C064E67DE180E06A
:1005F0000E94B22180E290E00E94FD4B9093631D27
:100600008093621D88EA90E0F8019183808302C0A4
:10061000653811F081E041C0E70109900020E9F759
:100620002197CE19DF0942E16CE073E08091621DF1
:100630009091631D0E94CA21892B59F58091621DFA
:100640009091631DFC0142855385648575850E94E8
:10065000DE242296892B51F420EA3FE1AE01B70156
:100660008091621D9091631D0E94FB228091A01FCA
:100670009091A11F8C179D0711F482E001C084E0C6
:100680000E940A148091621D9091631D0E94D224E1
:10069000B9CF84E00E940A14B5CFDF91CF911F91AA
:1006A0000F91FF90EF900895F8944AE050E062E4D3
:1006B00070E080EB9EE00E945E50789480EB9EE0BC
:1006C00008958F929F92AF92BF92CF92DF92EF9256
:1006D000FF920F931F93CF93DF938091BC1F82FFF4
:1006E00079C0C091E00CD091E10C8BE090E0FE016C
:1006F00019958C018AE090E0FE0119955C0189E072
:1007000090E0FE0119956C0188E090E0FE011995DA
:100710004C0187E090E0FE011995AC01EE24D7FC76
:10072000E094FE2C7601DD24CC24C501AA2797FD98
:10073000A095BA2F25E1880F991FAA1FBB1F2A95E4
:10074000D1F7C82AD92AEA2AFB2AAA2497FCA0941E
:10075000BA2C3BE0880C991CAA1CBB1C3A95D1F71B
:10076000C828D928EA28FB28662757FD6095762FE8
:10077000E5E0440F551F661F771FEA95D1F7C42A9D
:10078000D52AE62AF72AC8018C5B9740AA2797FD4D
:10079000A095BA2FF9E1880F991FAA1FBB1FFA95E0
:1007A000D1F7C82AD92AEA2AFB2A86E090E0FE017E
:1007B0001995BC01882777FD8095982FA2E0969522
:1007C000879577956795AA95D1F76C297D298E290C
:1007D0009F2904C060E070E081E29AE4DF91CF914C
:1007E0001F910F91FF90EF90DF90CF90BF90AF904F
:1007F0009F908F90089587E193E00E94964F86E541
:1008000093E09F938F930E945A4F85E893E09F93C4
:100810008F930E945A4F88EA93E09F938F930E9490
:100820005A4F89EC93E09F938F930E945A4F89EF20
:1008300093E09F938F930E945A4F88E394E09F9395
:100840008F930E945A4F85E794E09F938F930E9465
:100850005A4F8091BC1F2DB73EB7225F3F4F0FB656
:10086000F8943EBF0FBE2DBF82FF10C089EC94E00C
:100870009F938F930E945A4F80E195E09F938F93AF
:100880000E945A4F0F900F900F900F908AE090E0C7
:100890000E94904F87E595E00C94964FF89486E57A
:1008A00090E00E94765078949F938F9388E995E02A
:1008B0009F938F930E945A4F0F900F900F900F901D
:1008C00008950F931F93CF93DF93182F092F0E9442
:1008D000804DEC01009749F40F931F938AEB95E04C
:1008E0009F938F930E945A4F17C0F894BC0186E5DE
:1008F00090E00E949E507894DF93CF9383E196E03E
:100900009F938F930E945A4F86E590E00E94765005
:100910009093971F8093961F0F900F900F900F90BA
:10092000DF91CF911F910F9108958F929F92AF9277
:10093000BF92CF92DF92EF92FF920E9411276B013C
:100940007C01BCE38B2E912CA12CB12CA501940130
:100950000E94BB4B9F938F937F936F93CA01B90102
:10096000A50194010E94BB4B9F938F937F936F933C
:10097000C701B60120E13EE040E050E00E94BB4BE1
:10098000CA01B90128E130E040E050E00E94BB4BD1
:100990009F938F937F936F93C701B60120E831E552
:1009A00041E050E00E94BB4B5F934F933F932F93E6
:1009B0008BE296E09F938F930E945A4F8DB79EB71C
:1009C00042960FB6F8949EBF0FBE8DBFFF90EF907A
:1009D000DF90CF90BF90AF909F908F900895CF936E
:1009E000DF93CDB7DEB72A970FB6F894DEBF0FBE00
:1009F000CDBF4AE050E0BC01CE0101960E94BC4E42
:100A0000F8944AE050E06CE470E0CE0101960E9458
:100A10007C5061E070E082E090E00E949E5078940B
:100A2000CE0101969F938F9380E796E09F938F93DB
:100A30000E945A4F0F900F900F900F902A960FB66A
:100A4000F894DEBF0FBECDBFDF91CF9108950F9315
:100A50001F93CF93DF93CDB7DEB72A970FB6F894E5
:100A6000DEBF0FBECDBFF89482E090E00E947650CA
:100A7000019729F089E896E00E94964F16C04AE057
:100A800050E06CE470E08E010F5F1F4FC8010E94C0
:100A90005E501F930F938CE996E09F938F930E9473
:100AA0005A4F0F900F900F900F9078942A960FB690
:100AB000F894DEBF0FBECDBFDF91CF911F910F9194
:100AC0000895EF92FF920F931F93CF93DF93C091FE
:100AD000E00CD091E10C86E090E0FE011995F82E33
:100AE000E92E87E090E0FE011995182F092F88E084
:100AF00090E0FE011995EF92FF920F931F939F9341
:100B00008F938CEA96E09F938F931F928FE08F9341
:100B100089EC9EE09F938F930E94C34F8DB79EB741
:100B20000C960FB6F8949EBF0FBE8DBF89EC9EE069
:100B3000DF91CF911F910F91FF90EF900895EF9269
:100B4000FF920F931F93CF93DF93C091E00CD0914E
:100B5000E10C8BE090E0FE011995F82EE92E8AE079
:100B600090E0FE011995182F092F89E090E0FE0111
:100B70001995EF92FF920F931F939F938F938BEB97
:100B800096E09F938F931F928FE08F938AEB9EE066
:100B90009F938F930E94C34F8DB79EB70C960FB64D
:100BA000F8949EBF0FBE8DBF8AEB9EE0DF91CF9180
:100BB0001F910F91FF90EF9008957F928F929F92D7
:100BC000AF92BF92CF92DF92EF92FF920F931F935B
:100BD000CF93DF93CDB7DEB7CE58D1090FB6F894D7
:100BE000DEBF0FBECDBF6C01942E852E633871F42D
:100BF00089ED9EE0C257DF4F6883CE58D0400E94F7
:100C00001A34C257DF4F6881CE58D040D6018D913B
:100C10009C91009741F085369140E1F0D6011D92FC
:100C20001C9283E0F8C049E15CE061E870E089ED86
:100C30009EE00E940034E091BD0DF091BE0D6AE18E
:100C400070E081E090E0199585E691E0F6019183EE
:100C5000808302C0653811F081E0DDC0F8944AE07D
:100C600050E06CE470E0CE0186589F4F0E945E50C9
:100C70007894E92DF82DDF010D900020E9F7CD01E2
:100C800001977C01EE1AFF0A8091BC1F8E010D5F57
:100C90001F4F82FF1CC00E946105B82EA92E0E9422
:100CA0009F05AF92BF929F938F938AEC96E09F939C
:100CB0008F931F9289E18F931F930F930E94C34FCD
:100CC000782E0FB6F894DEBF0FBECDBF01C0712CD9
:100CD0005E01B4E8AB0EB11C4AE050E0BE016658BC
:100CE0007F4FC5010E94BC4EBF92AF9221ED36E00E
:100CF0003F932F931F928FE08F93272D30E02E5F2D
:100D00003F4FE1E0F0E0EC0FFD1F2E0F3F1F3F9340
:100D10002F930E94C34F780E8F929F9280919F1FB6
:100D20001F928F9380919E1F1F928F9380919D1F82
:100D30001F928F9380919C1F1F928F9380919B1F76
:100D40001F928F9380919A1F1F928F938091991F6A
:100D50001F928F938091981F1F928F932DED36E0F5
:100D60003F932F9389E18E0D1F928F93272D30E0B3
:100D70002E5F3F4F81E090E08C0F9D1F280F391FA1
:100D80003F932F930E94C34F870DEE24E394E80E08
:100D9000F801E80FF11D10820FB6F894DEBF0FBE08
:100DA000CDBFC8010E94964F80910A02806189835D
:100DB0008091D80E8A83F12CB2E0EB0EF11CB701C2
:100DC000CE0101960E948E3689ED9EE00E941C3471
:100DD0008091D80E8F5F8093D80E85E097E09F9327
:100DE0008F931F9282E08F93E1E0F0E0EC0FFD1F04
:100DF000EE0EFF1EFF92EF920E94C34FA80165E81E
:100E000088E492E00E94D7310F900F900F900F90DE
:100E10000F900F9019CFC257DF4F0FB6F894DEBF77
:100E20000FBECDBFDF91CF911F910F91FF90EF903B
:100E3000DF90CF90BF90AF909F908F907F9008955C
:100E4000CF92DF92EF92FF920F931F93CF93DF9396
:100E5000CDB7DEB72C970FB6F894DEBF0FBECDBF6F
:100E6000D82EC92E162F49E050E0682F792FCE01D9
:100E700001960E94BC4ECE010D967C01111148C016
:100E800068E077E00C970E94894E8E01065F1F4F45
:100E9000009779F00E151F0561F00E94804DF80152
:100EA00081938F0168E077E080E090E00E94894EB6
:100EB000EFCF6A858FEF860F8F3128F0CF92DF92C8
:100EC0008AE097E069C0EB848FEF8E0D8C30B0F72D
:100ED000FC84F3E6FF1594F30091E20C1091E30C0F
:100EE00070E083E090E0F80119956E2D70E084E0E9
:100EF00090E0F80119956F2D70E085E090E0F80121
:100F000019950E949F059F938F9381E497E044C0B9
:100F10006FE477E0CE0101960E94894E8E01065F54
:100F20001F4F009779F00E151F0561F00E94804D4C
:100F3000F80181938F016FE477E080E090E00E94F8
:100F4000894EEFCF6A85693128F0CF92DF9281E533
:100F500097E022C0EB84FCE3FE15B8F3FC84FF1598
:100F6000A0F30091E20C1091E30C70E082E090E0BD
:100F7000F80119956E2D70E081E090E0F801199567
:100F80006F2D70E080E090E0F80119950E946105F6
:100F90009F938F9388E897E09F938F930E945A4F77
:100FA0000F900F900F900F902C960FB6F894DEBF15
:100FB0000FBECDBFDF91CF911F910F91FF90EF90AA
:100FC000DF90CF900895F89442E350E066E070E03F
:100FD0008BE092E00E947C5078940895CF92DF924B
:100FE000EF92FF920F931F93CF93DF93CDB7DEB7AE
:100FF00064970FB6F894DEBF0FBECDBF8C0186E0BC
:10100000E6E9F7E0DE011B9601900D928A95E1F783
:10101000198A1A8A1B8A1C8A86E0ECE9F7E0DE014D
:10102000119601900D928A95E1F71F821886198614
:101030001A86F80180819181892B09F041C061E015
:1010400088E99FE10E948813F89484E090E00E9470
:1010500076506C0180E090E00E9476507C01CA944A
:10106000CD2891F08CE390E09093971F8093961F8A
:101070006CE370E086E590E00E949E5061E070E0D5
:1010800084E090E00E949E50EA94EF28C1F00E9414
:10109000E30761E070E080E090E00E949E504AE04B
:1010A00050E062E470E0CE010B960E947C504AE072
:1010B00050E068E370E0CE0101960E947C50789485
:1010C000F8011182108283E064960FB6F894DEBFB7
:1010D0000FBECDBFDF91CF911F910F91FF90EF9089
:1010E000DF90CF900895CF93DF93CDB7DEB7E2972F
:1010F0000FB6F894DEBF0FBECDBFF89442E350E0C8
:1011000066E070E0CE0101960E945E507894CE01B8
:1011100001969F938F9382EA97E09F938F930E940B
:101120005A4F0F900F900F900F90E2960FB6F894D1
:10113000DEBF0FBECDBFDF91CF910895FF920F9319
:101140001F93CF93DF93EC018E01F88021968F2DB2
:1011500090E00E94764E892BB9F7FF2091F0E801CC
:1011600009900020E9F722970C171D0710F019824B
:1011700008C0888190E00E94764E892BC1F32197A8
:10118000F3CFC801DF91CF911F910F91FF90089588
:101190006F927F928F929F92AF92BF92CF92DF9287
:1011A000EF92FF920F931F93CF93DF93CDB7DEB7EC
:1011B000CC54D1090FB6F894DEBF0FBECDBF8C0161
:1011C00082E390E00E94FD4B7C018AE1E4ECF2E0D6
:1011D000DE01D39601900D928A95E1F742E350E04B
:1011E000B801C7010E94BC4E60EB77E0C7010E94C6
:1011F000894EC12CD12C03E3802E912C8C0E9D1E88
:101200002AE1820E911C0097F1F10E949E085C0178
:10121000CE01C3963C01F301619171913F01FB0145
:1012200001900020E9F78F0101501109061B170BEF
:10123000A801C5010E94E04E892BD9F4CD2849F4BC
:10124000A8014F5F5F4FB501CE0101960E94BC4ED1
:101250000CC061E176E0CE0101960E94AA4EA80181
:10126000B501CE0101960E94D04ECC24C394D12C5E
:1012700003C06814790479F660EB77E080E090E0D1
:101280000E94894EC0CF8981882351F0F89442E3AF
:1012900050E066E070E0CE0101960E947C507894A8
:1012A000C7010E94954C0E947308C45BDF4F0FB6C4
:1012B000F894DEBF0FBECDBFDF91CF911F910F918C
:1012C000FF90EF90DF90CF90BF90AF909F908F9066
:1012D0007F906F9008951F93CF93DF93CDB7DEB7C4
:1012E0002A970FB6F894DEBF0FBECDBF182F4AE085
:1012F00050E0CE0101960E94BC4EF8944AE050E0C6
:10130000113019F462E470E002C068E370E0CE01CD
:1013100001960E947C5078942A960FB6F894DEBF0E
:101320000FBECDBFDF91CF911F910895813011F491
:101330000C945403F8944AE050E068E370E086EAC5
:101340009EE00E945E50789486EA9EE008958F9217
:101350009F92AF92BF92CF92DF92EF92FF920E9444
:1013600011276B017C0180EE97E00E94964F82E08E
:101370000E949609B82EA92E0E945403AF92BF92E4
:101380009F938F9389E298E09F938F930E945A4F87
:101390008BE092E09F938F9385E598E09F938F93E6
:1013A0000E945A4F0E944E0442E16CE073E080912B
:1013B000621D9091631D0E94CA212DB73EB7265F22
:1013C0003F4F0FB6F8943EBF0FBE2DBF892B19F4C7
:1013D0008AE698E002C084E898E00E94964F0E9456
:1013E00027058091BC1F82FF1CC00E949F059F9310
:1013F0008F938DE998E09F938F930E945A4F0E949C
:1014000061059F938F938FEA98E09F938F930E943B
:101410005A4F8DB79EB708960FB6F8949EBF0FBE71
:101420008DBF8CE3882E912CA12CB12CC701B60165
:10143000A50194010E94BB4B9F938F937F936F9361
:10144000CA01B901A50194010E94BB4B9F938F93E0
:101450007F936F93C701B60120E13EE040E050E08A
:101460000E94BB4BCA01B90128E130E040E050E0E6
:101470000E94BB4B9F938F937F936F93C701B601DD
:1014800020E831E541E050E00E94BB4B5F934F9371
:101490003F932F9381EC98E09F938F930E945A4F34
:1014A0000E9473082DB73EB72E5E3F4F0FB6F894DB
:1014B0003EBF0FBE2DBF8DEF98E0FF90EF90DF9005
:1014C000CF90BF90AF909F908F900C94964F3F928B
:1014D0004F925F926F927F928F929F92AF92BF9244
:1014E000CF92DF92EF92FF920F931F93CF93DF93F0
:1014F000CDB7DEB7C257D1090FB6F894DEBF0FBE25
:10150000CDBFF89442E350E066E070E0CE01019672
:101510000E945E50789461E176E0CE0101960E94CF
:10152000894E8C01312CE090830EF090840E99EB63
:10153000A92E99E0B92EA796FFAEEEAEA7972DEA99
:10154000822E29E0922EA996FFAEEEAEA997AB9619
:10155000FFAEEEAEAB97C090940DD090950DAD96CA
:10156000DFAECEAEAD97AF96FFAEEEAEAF97809149
:101570004A0E90914B0EE1969FAF8EAFE19740904F
:10158000720C5090730C6090C70C7090C80C0115D1
:10159000110509F40CC2C8010E949E0845E050E004
:1015A0006AED77E00E94E04E892BC1F480E090E084
:1015B000F3011995BC01882777FD8095982F0E942B
:1015C000AC4A20E030E040E251E40E94114A9F938F
:1015D0008F937F936F9386E499E066C1C8010E9460
:1015E0009E0845E050E06EE17AE00E94E04E892BD3
:1015F000C1F480E090E0F2011995BC01882777FDE5
:101600008095982F0E94AC4A20E030E04AE754E4ED
:101610000E94114A9F938F937F936F9384E599E083
:1016200013C0C8010E949E0844E050E061ED77E0DD
:101630000E94E04E892B69F40E94B9149F938F9306
:101640007F936F9382E699E09F938F931F928BE035
:1016500081C1C8010E949E0845E050E066E977E03C
:101660000E94E04E892B69F40E94CE14182F092F96
:10167000E2966FAFE297E3967FAFE3970E94540341
:1016800018C0C8010E949E0845E050E06CE977E070
:101690000E94E04E892B59F50E94DD14182F092F66
:1016A00082E0E2966FAFE297E3967FAFE3970E9406
:1016B00096090F931F93E3967FADE3977F93E2968E
:1016C0006FADE2976F939F938F938FE699E09F930F
:1016D0008F931F928FE08F9383E390E08C0F9D1F79
:1016E000830D911D9F938F930E94C34F3EC1C801EC
:1016F0000E949E08FC0180818035A9F48091BC1F66
:101700009091BD1F8C7E9927892B09F448C180E0F8
:1017100090E0E196EEADFFADE19719959F938F9321
:101720008AE799E05EC0C8010E949E0848E050E048
:1017300066ED77E00E94E04E892BC9F48091BC1FD2
:101740009091BD1F8C7E9927892B09F428C180E0D8
:1017500090E0AF96EEADFFADAF9719959F938F9345
:1017600080E899E09F938F931F9287E03EC0C80165
:101770000E949E0847E050E06FEC77E00E94E04E48
:10178000892BA1F48091BC1F81FF09C180E090E00A
:10179000AD96EEADFFADAD9719959F938F9388E809
:1017A00099E09F938F931F928BE01FC0C8010E9406
:1017B0009E0848E050E06AEC77E00E94E04E892BFA
:1017C00001F58091BC1F81FFEAC080E090E0F60146
:1017D000199581E090E0F60119959F938F938EE81B
:1017E00099E09F938F931F928CE08F9383E390E017
:1017F0008C0F9D1F830D911D9F938F930E94C34F4C
:10180000B4C0C8010E949E0848E050E062EB77E057
:101810000E94E04E892BF9F48091BC1F84FFBFC069
:1018200080E090E0AB96EEADFFADAB971995BC01B3
:10183000882777FD8095982F0E94AC4A20E030E001
:101840004AE754E40E94114A9F938F937F936F93CA
:1018500085E999E029C0C8010E949E0848E050E04F
:1018600068EB77E00E94E04E892B09F58091BC1F60
:1018700084FF95C081E090E0A996EEADFFADA997F9
:101880001995BC01882777FD8095982F0E94AC4A56
:1018900020E030E04AE754E40E94114A9F938F937E
:1018A0007F936F9381EA99E09F938F9351C0C80112
:1018B0000E949E0848E050E06EEB77E00E94E04E08
:1018C000892BF9F48091BC1F84FF69C082E090E00D
:1018D000A796EEADFFADA7971995BC01882777FDB8
:1018E0008095982F0E94AC4A20E030E04AE754E40B
:1018F0000E94114A9F938F937F936F939F928F9231
:1019000027C0C8010E949E0848E050E064EC77E0E0
:101910000E94E04E892B09F042C08091BC1F84FFD9
:101920003EC083E090E0F7011995BC01882777FD60
:101930008095982F0E94AC4A20E030E04AE754E4BA
:101940000E94114A9F938F937F936F93BF92AF92A0
:101950001F928CE08F9383E390E08C0F9D1F830D8B
:10196000911D9F938F930E94C34F380E0FB6F8942A
:10197000DEBF0FBECDBF9CE2931588F4E3E3F0E039
:10198000EC0FFD1FE30DF11D1082AE014D5C5F4FAA
:1019900065E88CE592E00E94D7311BAA312C61E109
:1019A00076E080E090E00E94894E8C01F0CDE3E388
:1019B000F0E0EC0FFD1FE30DF11D1082AE014D5C58
:1019C0005F4F65E88CE592E00E94D731CE58DF4F3B
:1019D0000FB6F894DEBF0FBECDBFDF91CF911F9140
:1019E0000F91FF90EF90DF90CF90BF90AF909F90BE
:1019F0008F907F906F905F904F903F900895CF931E
:101A0000DF93EC0188819981009741F08D3D91052C
:101A100009F485C01982188283E08AC0E091D60C4F
:101A2000F091D70C61E070E081E890E01995E091C9
:101A3000C90CF091CA0C61E070E081E890E0199562
:101A4000E091740CF091750C61E070E081E890E039
:101A500019958091BC1F81FF0FC0E091960DF09108
:101A6000970D61E070E081E890E0199565EC79E010
:101A70008BE092E00E94B54E8091BC1F84FF0FC0A6
:101A8000E091850EF091860E61E070E081E890E0D3
:101A900019956BEE79E08BE092E00E94B54E809153
:101AA000BC1F9091BD1F8C7E9927892B79F0E09106
:101AB0004C0EF0914D0E61E070E081E890E01995D8
:101AC00064E27AE08BE092E00E94B54E8091BC1F08
:101AD00082FF0BC00E942B16E091E20CF091E30C08
:101AE00061E070E081E890E0199586E590E00E9461
:101AF00076509093971F8093961FAC015695542F64
:101B000044275795479560E070E084EA9FE10E9482
:101B100079308DED90E09983888381E009C084EA73
:101B20009FE10E948330892BC1F30E94670ADDCFB9
:101B3000DF91CF910895CF92DF92EF92FF920F93B2
:101B40001F93CF93DF93CDB7DEB764970FB6F894AA
:101B5000DEBF0FBECDBF8C0184E190E00E94FD4B43
:101B60006C0143E150E0B8010E94BC4E6AE47AE0A7
:101B7000C6010E94894E7E012BE0E20EF11C49E075
:101B800050E0BC01C7010E94BC4E6AE47AE080E0EC
:101B900090E00E94894E49E050E0BC018E010F5F49
:101BA0001F4FC8010E94BC4E45E050E0B70186E9D6
:101BB00097E00E94E04E892B61F48981882349F0E7
:101BC000B80181E00E946B091F930F938CE49AE0A7
:101BD00019C045E050E0B7018CE997E00E94E04E63
:101BE000892B61F48981882349F0B80182E00E9441
:101BF0006B091F930F9383E69AE004C0FF92EF9264
:101C00008AE79AE09F938F930E945A4F0F900F900C
:101C10000F900F90C60164960FB6F894DEBF0FBE0A
:101C2000CDBFDF91CF911F910F91FF90EF90DF908B
:101C3000CF900C94954CCF92DF92EF92FF920F933E
:101C40001F93CF93DF931F921F92CDB7DEB76C0126
:101C5000CA01F601208131812115310511F1243F9E
:101C6000310529F0F6011182108283E073C12091C1
:101C7000622062131BC0BE016F5F7F4F0E94894EBE
:101C80008C01FC01F080F8E6FF1212C0FC0101900B
:101C90000020E9F73297E817F90709F04EC10E94D2
:101CA000FB0384EF90E0F6019183808381E052C1D1
:101CB00042E050E06AEC7AE00E94E04E892BE1F4C9
:101CC000F80101900020E9F73197E01BF10B339701
:101CD00080F086E090E00E94FD4B7C01B8016D5FD2
:101CE0007F4F46E050E00E94BC4EC7010E94610455
:101CF00097C00E944E04D5CF42E050E065EA73E001
:101D0000C8010E94E04E892B19F40E94A709C9CF8F
:101D100044E050E06DEC7AE0C8010E94E04E892B6F
:101D2000E1F4F80101900020E9F73197E01BF10B95
:101D3000359780F08CE090E00E94FD4B7C01B8016B
:101D40006B5F7F4F4CE050E00E94BC4EC7010E9489
:101D5000EF0466C00E942705A4CF85E7F81203C0F0
:101D60000E9495049ECF44E050E062ED7AE0C80105
:101D70000E94E04E892B39F5F80101900020E9F727
:101D80003197E01BF10BE430F10539F40E949F0517
:101D90009F938F9387ED9AE0D4C03597399770F46D
:101DA00089E090E00E94FD4B7C01B8016B5F7F4FA2
:101DB00049E050E00E94BC4E60E02FC01F930F939B
:101DC00081EE9AE0BEC044E050E062E17BE0C801F1
:101DD0000E94E04E892B69F5F80101900020E9F797
:101DE0003197E01BF10BE430F10539F40E946105F5
:101DF0009F938F9387E19BE0A4C035973997A0F418
:101E000089E090E00E94FD4B7C01B8016B5F7F4F41
:101E100049E050E00E94BC4E61E0C7010E942007EB
:101E2000C7010E94954C3DCF1F930F9381E29BE029
:101E300088C047E050E062E57BE0C8010E94E04EC8
:101E4000892B69F5F80101900020E9F73897E01730
:101E5000F10719F40E94730824CF82E390E00E94F6
:101E6000FD4B7C01B801685F7F4F42E350E00E9468
:101E7000BC4E44E050E06AE57BE0C7010E94E04EC2
:101E8000892B29F40E94E3070E947308C9CFF70148
:101E90008081882329F2C7010E94C808C1CF45E08C
:101EA00050E06FE57BE0C8010E94E04E892B09F00D
:101EB00044C0F80101900020E9F73697E017F107D8
:101EC000D9F40E9454039F938F9385E69BE09F93E0
:101ED0008F930E945A4F82E00E9496099F938F939E
:101EE0008FE69BE09F938F930E945A4F0FB6F89412
:101EF000DEBF0FBECDBFD5CE84E190E00E94FD4B8A
:101F00007C01B8016A5F7F4F43E150E00E94BC4E04
:101F1000F7018081882321F0C7010E949B0D80CFAB
:101F2000FF92EF9289E79BE09F938F930E945A4F15
:101F30000F900F900F900F9073CF1F930F9388E91E
:101F40009AE09F938F930E945A4F0F900F900F909B
:101F50000F90A7CE0F900F90DF91CF911F910F910F
:101F6000FF90EF90DF90CF900895E6E4F1E03081AC
:101F70002081908180818295869586958370307CC2
:101F8000830F269526952073820F92959C70890F5A
:101F900008958F929F92AF92BF92CF92DF92EF926D
:101FA000FF920F931F93CF93DF93CDB7DEB72A979E
:101FB0000FB6F894DEBF0FBECDBF0E947B280E94F3
:101FC00087280E94141446E069E180E00E941D28E1
:101FD00080E00E9472280E94E32684B784B784B709
:101FE00084B784B760EA76E881E090E00E946E12E0
:101FF000EBEAF0E222E432E4318320833A968DB7B3
:102000009EB70A97E817F907B8F389E29CE09F9317
:102010008F938BE893E09F938F930E946C4F0E9465
:1020200013320E945D2F0E94583160E070E08DE90C
:1020300092E00E94E6310E940F2F0E94273363E056
:1020400073E380E00E946428E091A70DF091A80D51
:1020500019950E94B50F90E00E94952883E49CE0BA
:102060009F938F930E945A4F0E9493139093BD1F8A
:102070008093BC1F8AE090E00E94904F8091BC1F2B
:102080000F900F900F900F900F900F9080FF19C03E
:1020900061E0CE0101960E948813CE0101960E9454
:1020A000C8358A81992787FD9095982F882728859C
:1020B000820F911D27FD9A959093B51F8093B41FB1
:1020C00017C089E49CE00E94964F8CEF898382ECD4
:1020D0008A838DE38B831C821D821E828091B41FB4
:1020E0009091B51F9F838887CE0101960E94C835C5
:1020F0000E9422128C010E941E12AE01475F5F4FA8
:10210000B8010E94162B0E9498110E94952A0E94E5
:1021100026120E945D2C8EE793E09F938F930E947E
:102120006C4F8A81898788858A871F928F930AE7F7
:1021300013E01F930F930E946C4F89851F928F931A
:102140001F930F930E946C4F88E793E09F938F93A8
:102150000E946C4F0E94F736E0911F0EF091200E06
:102160001995E091090EF0910A0E1995E091FB0D79
:10217000F091FC0D19950E945F2CF82E00912B0E0A
:1021800010912C0EF80119950FB6F894DEBF0FBE12
:10219000CDBF892B51F0F8011995BC0180E890E082
:1021A0000E94A74B162F072F02C010E800E00E94E4
:1021B000922A882EA090F90D9090FA0DC0901D0ED5
:1021C000B0901E0EE090070ED090080E0E944C2991
:1021D0001F92FF920F931F931F928F929F92AF9225
:1021E000BF92CF92DF92EF929F938F9384E293E01E
:1021F0009F938F930E946C4F83E193E09F938F9303
:102200000E946C4F8DE19CE00E949A2E8BE093E03F
:102210009F938F930E946C4F88EE93E09093B31F2F
:102220008093B21F84E00E940A140FB6F894DEBFB8
:102230000FBECDBF2A960FB6F894DEBF0FBECDBF3E
:10224000DF91CF911F910F91FF90EF90DF90CF9092
:10225000BF90AF909F908F9008950E94C90FCEEECF
:10226000D2E00E9468310E9493288091B21F909121
:10227000B31F009751F001979093B31F8093B21F43
:10228000892B19F484E00E940F148091B61F90915D
:10229000B71F009751F001979093B71F8093B61F17
:1022A000892B19F482E00E940F1484E00E940F141D
:1022B00082E00E940F14C090B81FD090B91FE09028
:1022C000BA1FF090BB1F0E941127C616D706E8065A
:1022D000F90639F20E9411276093B81F7093B91F55
:1022E0008093BA1F9093BB1FDC01CB019370AA2788
:1022F000BB270397A105B10509F0B3CFEBEAF0E2E4
:10230000808191818234924469F0EB5AF042FF93CC
:10231000EF93DF93CF930E946C4F0F900F900F902D
:102320000F909FCF3A96E53F81E8F80748F399CFA1
:102330001F93CF93DF93CDB7DEB7A0970FB6F89476
:10234000DEBF0FBECDBF8DE590E00E947650182F06
:10235000282F35EF380F303108F0982F9095291736
:1023600009F461C086EA93E09F938F930E946C4FBB
:10237000EBEEF3E00F900F90DE01119684918D93B8
:10238000319683E0E33FF807C9F7F89448E050E05E
:1023900069E770E0CE0101960E94A450EDEDF3E0F4
:1023A000DE01119684918D93319683E0EB3EF80720
:1023B000C9F74EE050E06BE670E0CE0101960E9456
:1023C000A450E3EDF3E0DE01119684918D933196F4
:1023D00083E0ED3DF807C9F74AE050E061E670E0C0
:1023E000CE0101960E94A4506DEC7BEA8BE590E053
:1023F0000E94BC5060E070E089E590E00E94BC5013
:1024000060E088E590E00E94AE5060E070E08FE50B
:1024100090E00E94BC501AE16AE175EE8DE590E013
:102420000E94BC507894812FA0960FB6F894DEBF1E
:102430000FBECDBFDF91CF911F9108958BE590E046
:102440000C94765089E590E00C94765088E590E005
:102450000C946E502FE130E08BE59EE041E951E0B5
:1024600020935101FA013197F1F76091510165FD17
:102470000DC02031310521F02CF08B54910903C09F
:1024800084EC99E0C29721503109EACF089580E0A9
:1024900090E0089581E090E00895CF93DF931F923C
:1024A0001F92CDB7DEB7892B41F08CE290E06983B3
:1024B0007A830E94904F7A8169817F936F9382E043
:1024C00097E09F938F930E945A4F0F900F900F9019
:1024D0000F900F900F90DF91CF9108959B01AC0169
:1024E0001092B90060E074E284EF90E00E94BB4B70
:1024F000205131094109510956954795379527953E
:102500002093B800089594EA9093BC0040EA56E8FE
:1025100061E070E09091BC0097FD0AC04150510904
:1025200061097109411551056105710599F707C0E8
:102530009091B900987F983021F0903111F081E0AE
:1025400008958093BB0084E88093BC0080EA96E8FD
:10255000A1E0B0E02091BC0027FD08C00197A109CF
:10256000B1090097A105B105A9F7E9CF8091B9009C
:10257000887F883111F0803411F780E0089524EAD3
:1025800034E844E92093BC009091BC0097FFFCCF55
:102590009091B900987F983011F0903199F780931D
:1025A000BB003093BC009091BC0097FFFCCF909192
:1025B000B900987F903211F0983539F44093BC00FF
:1025C0009091BC0094FDFCCFDDCF089584E9809309
:1025D000BC008091BC0084FDFCCF08958093BB00BB
:1025E00084E88093BC008091BC0087FFFCCF909171
:1025F000B900987F81E0983209F480E00895CF9384
:10260000C82F8CEE0E948312811103C08C2F0E9470
:10261000EE12CF910C94E6128093BB0084E8809375
:10262000BC008091BC0087FFFCCF0895CF93DF935F
:102630001F921F92CDB7DEB74A8369830E9483122F
:102640006981862F0E940C134A81842F0E940C13EB
:102650000F900F90DF91CF910C94E61284EC809351
:10266000BC008091BC0087FFFCCF8091BB00089527
:1026700084E88093BC008091BC0087FFFCCF8091F0
:10268000BB000895AF92BF92DF92EF92FF920F933B
:102690001F93CF93DF9300D0CDB7DEB7182FD22E84
:1026A0004A835B8369830E9483126981862F0E941B
:1026B0000C13812F81600E9483124A81A42E5B81BA
:1026C000B52E00E010E0ED2CF12C81E0E81AF108C5
:1026D0000D1580F40E151F0519F40E94381302C061
:1026E0000E942E13F50180830F5F1F4FFFEFAF1A7B
:1026F000BF0AEECF0F900F900F90DF91CF911F91F7
:102700000F91FF90EF90DF90BF90AF900C94E61286
:10271000AC01662319F028E068E902C020E160E816
:1027200080EB0C944213EF92FF920F931F93CF9381
:10273000DF930E94932880EB0E948312811115C0C1
:102740000E94E61288E79CE09F938F9382E097E0D7
:102750009F938F930E945A4F0F900F900F900F905E
:1027600001E010E0C1E0D0E004C000E010E0C0E013
:10277000D0E00E94932880E80E94831281110DC04E
:102780000E94E61202607E018FEFE81AF80A60E804
:102790007CE0CE010E944D12E7018CEE0E94831274
:1027A00081110DC00E94E61208607E018FEFE81AC9
:1027B000F80A6FE87CE0CE010E944D12E7010E940A
:1027C000932882ED0E94831281110DC00E94E612AF
:1027D00004607E018FEFE81AF80A61EA7CE0CE011E
:1027E0000E944D12E7010E94932880ED0E948312FF
:1027F000811108C00E94E61200616EEA7CE0CE0101
:102800000E944D12C801DF91CF911F910F91FF904F
:10281000EF90089581FD739882FD7498089581FD6D
:10282000739A82FD749A08956C9A6B9A87E00C945F
:102830000F1480917B00886080937B0089EC8093EB
:102840007C0085E080937A0080917A008068809394
:102850007A0080917B0087FFFCCF80917B0085FF11
:10286000FCCF80917A00806480937A0080917A0016
:1028700086FDFCCF80917A00806480937A008091FD
:102880007A0086FDFCCF609178007091790080918C
:102890007A008F7780937A0080E090E00E94AA4AC5
:1028A00027ED33EA40E95FE30E94384B26E636E63F
:1028B00048E853E40E94AC4920E030E040E251E4B3
:1028C0000E94384B0E94794ACB01089580E090E045
:1028D000089581E090E0089580937C0080917B00D2
:1028E000877F80937B0080917C00806C80937C004C
:1028F00085E080937A0080917A00806880937A00E6
:1029000080917B0087FFFCCF80917B0085FFFCCF0F
:1029100080917A00806480937A0080917A0086FDAD
:10292000FCCF109279001092780024E030E080E033
:1029300090E040917A00406440937A0040917A00A0
:1029400046FDFCCF4091780050917900840F951F8F
:10295000215031092115310561F710927C00209139
:102960007A002F7720937A0096958795969587958C
:10297000089580E00E946C14BC0180E090E00E9409
:10298000AA4A27ED34E34FEE5CE30E94384B21EE78
:102990003AE744E95EE30E94AD49089581E00E9470
:1029A0006C14BC0180E090E00E94AA4A22E23FEF52
:1029B0004CEC5BE30E94384B089582E00E946C145B
:1029C000BC0180E090E00E94AA4A22E23FEF4CEC7A
:1029D0005BE30E94384B089581E090E008955F9892
:1029E000579A80EE91E00E942B27579880E490E060
:1029F0000E942B274F9909C08CE291E00E942B275F
:102A000089B1881F8827881F089580E008950E9453
:102A1000EF1480E090E00895CF93C82F579A5F9805
:102A200082E090E00E942B27CC2311F057985F9A08
:102A30008CE390E00E942B275F9A579882E090E009
:102A4000CF910C942B27CF93579A5F9882E090E018
:102A50000E942B2757985F9A8CE090E00E942B27CA
:102A6000C9B182E390E00E942B275F9A579882E0D9
:102A700090E00E942B278C2F881F8827881FCF91DA
:102A800008951F93CF93DF93C0E0D0E010E00E9441
:102A90002315282F0C2E01C0220F0A94EAF7120FDB
:102AA0002196C830D10599F7812FDF91CF911F91E1
:102AB00008950F931F93CF93DF93C0E0D0E0082FCA
:102AC00010E0C8010C2E02C0959587950A94E2F794
:102AD00081700E940C152196C830D10591F7DF91C5
:102AE000CF911F910F910895382FFC0180E04CE8A1
:102AF0009E2F931B961770F49191892798E0282FA9
:102B0000269580FF03C0822F842701C0822F915019
:102B1000B1F7EECF0895BF92CF92DF92EF92FF927E
:102B20000F931F93CF93DF93CDB7DEB72A970FB6DE
:102B3000F894DEBF0FBECDBF8C010E94EF14882336
:102B400009F452C08CEC0E94591584E40E94591576
:102B5000579891E5E92EF12C4F990BC08AE090E04F
:102B60000E94342781E0E81AF108E114F104A1F78A
:102B70003BC00E94EF148CEC0E9459158EEB0E9412
:102B80005915FE0131967F016E01FAE0CF0ED11C7E
:102B9000BE2C9F2D9A870E944115F70181937F01DA
:102BA0009A85EC15FD05B1F768E08B2D0E94741530
:102BB0009985891319C06A8170E0762F662789810B
:102BC000682B882777FD8095982F0E94AC4A20E0DB
:102BD00030E040E85DE30E94384BF8016083718388
:102BE0008283938381E001C080E02A960FB6F89437
:102BF000DEBF0FBECDBFDF91CF911F910F91FF9030
:102C0000EF90DF90CF90BF900895CF93DF9300D0E7
:102C10001F92CDB7DEB7CE0101960E948B15882397
:102C200071F020E030E048EC52E469817A818B81D8
:102C30009C810E94384B0E94794ACB0102C080E0FF
:102C400090E80F900F900F900F90DF91CF91089523
:102C500080E090E0089560EA76E881E090E00E94EC
:102C60006E1282ED0E94831282ED0E940C1387E0A7
:102C70000E940C1380E00E940C130C94E612982F13
:102C800092959F708F702AE0929F800D1124089575
:102C90006AE00E949B4B20E1829F900D1124892FB6
:102CA00008950E944816482F60E082ED0C94161398
:102CB0000E944816482F61E082ED0C9416130E9482
:102CC0004816482F62E082ED0C9416130E944816B5
:102CD000482F64E082ED0C9416130E944816482F8A
:102CE00065E082ED0C9416130E944816482F66E0AA
:102CF00082ED0C9416139C01862F22303105B9F019
:102D00004CF42115310581F021303105C1F40E94C8
:102D1000581615C02430310581F064F02530310596
:102D200071F40E9474160BC00E94511608C00E94D4
:102D30005F1605C00E94661602C00E946D1680E0F4
:102D400090E00895CF93DF931F92CDB7DEB721E0D7
:102D5000AE014F5F5F4F60E082ED0E9442138981B8
:102D60000F90DF91CF910C943F16CF93DF931F927A
:102D7000CDB7DEB721E0AE014F5F5F4F61E082ED7E
:102D80000E94421389810F90DF91CF910C943F16DE
:102D9000CF93DF931F92CDB7DEB721E0AE014F5F37
:102DA0005F4F62E082ED0E94421389810F90DF91B4
:102DB000CF910C943F16CF93DF931F92CDB7DEB720
:102DC00021E0AE014F5F5F4F64E082ED0E9442134D
:102DD00089810F90DF91CF910C943F16CF93DF93B1
:102DE0001F92CDB7DEB721E0AE014F5F5F4F65E0C8
:102DF00082ED0E94421389810F90DF91CF910C9454
:102E00003F16CF93DF931F92CDB7DEB721E0AE011F
:102E10004F5F5F4F66E082ED0E94421389810E94FE
:102E20003F1690E08053984F0F90DF91CF91089517
:102E300088309105A1F044F48630910569F0079738
:102E4000C1F40E94B51613C08A30910571F054F098
:102E50000B9779F40C9401170E94A21608C00E94E7
:102E6000C81605C00E94DB1602C00E94EE1690E054
:102E7000089580E090E00895CF93DF93DB01FC019B
:102E80009A012230310538F0CD91DD91C193D19373
:102E900022503109F6CFDA01AE7FFB01EA0FFB1FAA
:102EA000A80FB91F417055274E0F5F1FE417F50794
:102EB00019F081918D93FACFDF91CF91089500970A
:102EC000D1F0DC01ED91FC9111973097A1F02081B8
:102ED000222389F02681378112968D919C91139738
:102EE0002817390741F481810E94EE3A80FF06C01D
:102EF00083E090E0089589E090E0089580E090E01C
:102F000008950F93CF93DF93EC01C29601E09A01ED
:102F1000AB01BC0189810E94AB3B892B11F5FE01FD
:102F2000E05DFD4F8081918185359A4AE1F4E85C4E
:102F3000F140408151816281738177274634514449
:102F40006445710591F0CC57DF4F488159816A8102
:102F50007B81772781E0463451446445710531F423
:102F600004C083E003C082E001C080E0DF91CF9124
:102F70000F9108952F923F924F925F926F927F929E
:102F80008F929F92AF92BF92CF92DF92EF92FF9279
:102F90000F931F93CF93DF93CDB7DEB72E970FB666
:102FA000F894DEBF0FBECDBF142FDC01ED91FC9174
:102FB00011972081332727FD3095205331092A307E
:102FC000310538F441814A3321F43296ED93FC9374
:102FD00002C020E030E0FB0111821082232B09F0B7
:102FE00011C22091E60E3091E70E3E872D87211504
:102FF000310509F40AC231832083D9018C918823D9
:1030000061F011968C910E94EE3A80FD06C011236A
:1030100009F4FEC182FD02C2FBC1ED85FE8510826E
:10302000118280E00E94F53A80FDF5C1112311F074
:1030300082FDF4C140E050E0BA018D859E850E947A
:1030400081178130C9F4ED85FE85EC50FE4F8081FB
:10305000811103C08DE090E0E6C1ED85FE85E8506A
:10306000FE4F4080518062807380B301A2018D8544
:103070009E850E94811703C0412C512C3201833060
:1030800009F4CFC18111E6CFAD85BE85DD968D9166
:103090009C91DE9781159240E9F6ED85FE85E85B0F
:1030A000FF4FC080D180E12CF12CC114D104E10488
:1030B000F10441F4ED85FE85EA5AFF4FC080D180CE
:1030C000E280F380ED85FE85C28ED38EE48EF58E90
:1030D000EE5BFF4FA081ED85FE85A3838FEF8A0F06
:1030E000823008F0B7CF17AD1283112309F4B2CFA5
:1030F000212F30E0C901019782239323892B09F006
:10310000A9CFED5BFF4F20803180ED85FE853186B4
:103110002086C1018F709927892B09F09BCFEB5B2B
:10312000FF4F80809180A12CB12C81149104A104C7
:10313000B10441F4ED85FE85EE5AFF4F8080918009
:10314000A280B380ED85FE85E05CFF4F2081318158
:103150003A832983232B09F47DCFB0E0A7019601A0
:103160000E94E34B6D837E838F839887A981BA8108
:10317000CD01A0E0B0E089879A87AB87BC87C10109
:1031800064E0969587956A95E1F729853A854B85A0
:103190005C85280F391F411D511D8D819E81AF8196
:1031A000B885280F391F4A1F5B1F29833A834B8339
:1031B0005C8382169306A406B50608F44BCFC501BE
:1031C000B401621B730B840B950B212F30E040E0A0
:1031D00050E00E94BB4B211531054105510509F412
:1031E00039CF263F9FE039074105510540F0263F82
:1031F000AFEF3A074105510520F412E003C011E09A
:1032000001C013E049015A01B2E08B0E911CA11CD0
:10321000B11CED85FE85868A978AA08EB18E468E7A
:10322000578E60A271A289859A85AB85BC85840D75
:10323000951DA61DB71D82A393A3A4A3B5A3498181
:103240005A816B817C81440D551D661D771D42A7F7
:1032500053A764A775A71330C9F4232809F0FACE41
:10326000E25AFF4F80819181A281B381ED85FE8575
:1032700086A397A3A0A7B1A7C501B40152E0660F2A
:10328000771F881F991F5A95D1F72DC0232809F45D
:10329000E1CE2D813E814F815885820F931FA41F5F
:1032A000B51FED85FE8586A397A3A0A7B1A7123011
:1032B00039F4C501B401660F771F881F991F13C029
:1032C000A3E0B0E0A50194010E94E34B9695879599
:1032D00077956795F1E08F229924AA24BB24680D85
:1032E000791D8A1D9B1DDC01CB0181509E4FAF4F84
:1032F000BF4F29E0B695A795979587952A95D1F761
:10330000C816D906EA06FB0608F4A4CE8FEF9FEF95
:10331000DC01ED85FE8586879787A08BB18BDF0169
:103320001286138614861586133009F054C0158250
:10333000EE59FF4F80819181A3019201280F391F1F
:10334000411D511DFD01228B338B448B558B01E0B8
:10335000BD016E5C7F4F81810E94AB3B892BD9F50B
:10336000ED85FE85E05DFD4F8081918185359A4A2E
:1033700091F5ED85FE8582A993A9A4A9B5A9823509
:103380009245A146B14439F5ED85FE85EA5EFD4FD3
:1033900080819181A281B38182379247A144B14655
:1033A000D1F4ED85FE85E25EFD4F80819181A281A1
:1033B000B381ED85FE8582879387A487B587E65E16
:1033C000FD4F80819181A281B381ED85FE85868745
:1033D0009787A08BB18BAD85BE851C938091E40E41
:1033E0009091E50E01969093E50E8093E40E17966A
:1033F0009C938E931697FD0116A617A610AA11AAE4
:10340000148206C08BE090E00EC08CE090E00BC010
:1034100080E090E008C083E090E005C08AE090E0A2
:1034200002C081E090E02E960FB6F894DEBF0FBE8A
:10343000CDBFDF91CF911F910F91FF90EF90DF9063
:10344000CF90BF90AF909F908F907F906F905F9044
:103450004F903F902F9008954F925F926F927F927E
:10346000AF92BF92CF92DF92EF92FF920F93CF93E2
:10347000DF93EC018C81882309F447C04EA45FA43C
:1034800068A879A86E0182E3C80ED11C01E0A301EF
:103490009201B60189810E94F73B892B99F51C8224
:1034A0004AA15BA16CA17DA144165506660677066C
:1034B00060F18A8D9B8DAC8DBD8D840F951FA61FED
:1034C000B71F481659066A067B06F8F4AB80B12C84
:1034D000E12CF12CC5018E199F090297B0F08A8D5D
:1034E0009B8DAC8DBD8D480E591E6A1E7B1E01E062
:1034F000A3019201B60189810E94F73B8FEFE81A80
:10350000F80AE8CF81E090E002C080E090E0DF912F
:10351000CF910F91FF90EF90DF90CF90BF90AF9041
:103520007F906F905F904F900895CF92DF92EF92CF
:10353000FF920F93CF93DF93EC016A017B018EA57D
:103540009FA5A8A9B9A9481759076A077B07A1F041
:10355000CE010E942C1A892B91F401E0A70196015B
:10356000BE016E5C7F4F89810E94AB3B892B39F491
:10357000CEA6DFA6E8AAF9AA80E090E002C081E02A
:1035800090E0DF91CF910F91FF90EF90DF90CF907F
:1035900008950F93CF93DF93EC010E942C1A0097AC
:1035A00009F058C08881833009F047C08D81882395
:1035B00009F443C01EA61FA618AA19AACE01C296D6
:1035C000FC019E012E5C3D4FE217F30711F01192B2
:1035D000FBCF25E53AEAFE01E05DFD4F3183208314
:1035E00042E552E561E671E44AAB5BAB6CAB7DABA7
:1035F00042E752E761E471E67A9740835183628340
:1036000073834E855F8568897989349640835183B9
:10361000628373834A855B856C857D8534964083A0
:103620005183628373832A893B894C895D8901E0D8
:10363000BC0189810E94F73B1D8240E050E060E0C0
:1036400089810E94583C31E020E0892B09F430E068
:10365000832F922FDF91CF910F9108950F931F9396
:10366000FC01425051096109710906891789208DB1
:10367000318D0250110921093109401751076207A4
:10368000730778F4A281B0E09A01AB010E94E34B8A
:1036900002A513A524A535A5600F711F821F931FD6
:1036A00003C060E070E0CB011F910F910895BF92BD
:1036B000CF92DF92EF92FF920F931F93CF93DF93FE
:1036C000EC016A017B01423051056105710508F486
:1036D000A7C08E899F89A88DB98D481759076A0799
:1036E0007B0708F09DC08881823009F448C0833090
:1036F00009F468C0813009F08FC08A0116950795DA
:10370000040F151FC801892F992786954AA15BA12F
:103710006CA17DA1480F591F611D711DCE010E9432
:10372000951A892B09F078C0F801F170EC0FFD1F94
:10373000B2A80F5F1F4FC801892F992786954AA10C
:103740005BA16CA17DA1480F591F611D711DCE01A8
:103750000E94951A892B09F05FC0F801F170EC0FF7
:10376000FD1F82A96B2D70E0782BC0FE06C0B4E06F
:1037700076956795BA95E1F722C07F7020C0452FF6
:10378000562F672F77278AA19BA1ACA1BDA1480F17
:10379000591F6A1F7B1FCE010E94951A892BE1F5E4
:1037A000CC0CDD1CEE1CFF1CE894C0F881E0D82294
:1037B000EE24FF24FE01EC0DFD1D62A973A980E03B
:1037C00090E032C0E7E07695679557954795EA9582
:1037D000D1F78AA19BA1ACA1BDA1480F591F6A1FB7
:1037E0007B1FCE010E94951A892BB1F472E0CC0C9C
:1037F000DD1CEE1CFF1C7A95D1F78CEFC82281E00E
:10380000D822EE24FF24FE01EC0DFD1D62A973A950
:1038100084A995A99F7008C06FEF7FEFCB0104C00A
:1038200061E070E080E090E0DF91CF911F910F9117
:10383000FF90EF90DF90CF90BF900895EF92FF92AE
:103840000F931F93CF93DF93EC018B017D836C83E8
:103850004E815F816885798541305105610571052B
:1038600019F482E090E089C0E881F981868997891E
:10387000A08DB18D481759076A077B0790F741154E
:1038800051056105710541F58081833049F446A1F8
:1038900057A160A571A54115510561057105E1F4B8
:1038A0001A861B861C861D86808591850817190738
:1038B000C0F686A197A1A0A5B1A59801F4E0369520
:1038C0002795FA95E1F7820F931FA11DB11D8E87F1
:1038D0009F87A88BB98B3DC0E28080E1E89E700194
:1038E0001124888199810E151F05F8F00E94571B3D
:1038F000AB01BC014F3F8FEF580768077807D9F13C
:10390000423051056105710508F4ABCFE881F981BA
:1039100086899789A08DB18D481759076A077B075B
:1039200008F09FCF0E191F09DCCF4A875B876C8791
:103930007D870E942E1B9801E4E036952795EA9535
:10394000E1F7620F731F811D911D6E877F87888B42
:10395000998B0F70112755E0000F111F5A95E1F751
:103960000E5C1F4F88819981800F911F9B8B8A8BE2
:1039700080E090E002C081E090E0DF91CF911F9164
:103980000F91FF90EF9008954F925F926F927F9208
:103990008F929F92AF92BF92CF92DF92EF92FF925F
:1039A0000F931F93CF93DF9300D01F92CDB7DEB755
:1039B0004C016A017B012801390142305105610542
:1039C000710508F4E3C0FC0186899789A08DB18D4B
:1039D000481759076A077B0708F0D8C080818230F2
:1039E00009F472C0833009F493C0813009F0C7C074
:1039F0005A01B694A794AC0CBD1CC501892F992718
:103A0000869542A153A164A175A1480F591F611D5C
:103A1000711DC4010E94951A009709F0B2C0A5015A
:103A20005170480D591DD701C60181709927AA27E9
:103A3000BB2789839A83AB83BC83C0FE0AC0DA01AB
:103A4000D2962C912F70B0E14B9EC0011124282BEF
:103A500001C0242DFA0122ABFFEFAF1ABF0A81E0AB
:103A6000D40114968C931497C501892F99278695B4
:103A700092964D915D916D917C919597480F591F4C
:103A8000611D711DC4010E94951A009709F079C04B
:103A9000F501F170E80DF91D29813A814B815C81B6
:103AA000232B242B252B49F024E0769467945794FC
:103AB00047942A95D1F7242D05C022A9207F352DC2
:103AC0003F70232B22AB5DC0452F562F672F7727E2
:103AD000F40182A193A1A4A1B5A1480F591F6A1FA7
:103AE0007B1FC4010E94951A009709F04AC0CC0CB4
:103AF000DD1CEE1CFF1CE894C0F8F1E0DF22EE2490
:103B0000FF24F601F296E80DF91D5182408239C07A
:103B1000B7E07695679557954795BA95D1F7F40133
:103B200082A193A1A4A1B5A1480F591F6A1F7B1FB1
:103B3000C4010E94951A009721F5A2E0CC0CDD1C6F
:103B4000EE1CFF1CAA95D1F7FCEFCF22F1E0DF229B
:103B5000EE24FF24F601F296E80DF91D4081518113
:103B600062817381442755276627707F4429552930
:103B700066297729408351836283738302C082E080
:103B800090E021E0D40114962C9302C082E090E0F2
:103B90000F900F900F900F90DF91CF911F910F9189
:103BA000FF90EF90DF90CF90BF90AF909F908F905D
:103BB0007F906F905F904F9008954F925F926F92B9
:103BC0007F928F929F92AF92BF92CF92DF92EF92AD
:103BD000FF920F931F93CF93DF93EC012A013B01D8
:103BE000411551056105710599F48A849B84AC8463
:103BF000BD8481149104A104B104F9F04E895F8958
:103C0000688D798D84169506A606B706B0F419C09E
:103C10000E94571B623071058105910508F48DC023
:103C2000CE88DF88E88CF98C6C157D058E059F05A4
:103C300008F485C05301420104C0812C912C540129
:103C40008394750164012FEFC21AD20AE20AF20AC4
:103C50004E895F89688D798DC416D506E606F7060C
:103C600080F082E088169104A104B10428F440E0B9
:103C700030E020E090E066C062E0C62ED12CE12C5E
:103C8000F12CB701A601CE010E94571B61157105E9
:103C900081059105B9F06F3F2FEF720782079207F8
:103CA00029F44FEF3FEF2FEF9FEF4CC061307105CC
:103CB0008105910509F441C0C814D904EA04FB0444
:103CC00011F6D5CF0FEF1FEF2FEF3FE0B701A601A1
:103CD000CE010E94C41C009769F54114510461048F
:103CE0007104C9F4CA86DB86EC86FD864E855F8545
:103CF000688979894F3F8FEF580768077807A9F0DF
:103D000041505109610971094E875F87688B798B32
:103D100081E08D830AC097018601B301A201CE0123
:103D20000E94C41C0097F1F205C04C2D3D2D2E2D94
:103D30009F2D08C0019709F4B4CF41E099CF462FD9
:103D4000372F282F642F732F822FDF91CF911F9150
:103D50000F91FF90EF90DF90CF90BF90AF909F902A
:103D60008F907F906F905F904F9008958F929F9269
:103D7000AF92BF92CF92DF92EF92FF920F931F9379
:103D8000CF93DF93EC016B010C811D810F5F1F4FFF
:103D90000115110519F484E090E0E1C08E859F853E
:103DA000A889B9890097A105B105A9F378012FE089
:103DB000E222FF24E114F10409F0BCC00196A11D28
:103DC000B11D8E879F87A88BB98B4A855B856C85D3
:103DD0007D8588819981FC01411551056105710539
:103DE00031F48085918508171907A8F6A3C02281B0
:103DF00030E021503109F801A4E0F695E795AA9545
:103E0000E1F72E233F23232B09F094C00E94571B78
:103E10004B015C01623071058105910518F482E067
:103E200090E09DC06F3F2FEF72078207920719F451
:103E300081E090E094C088819981FC01468957898E
:103E4000608D718D84169506A606B70608F464C0C9
:103E5000CD2809F4A0CF4A855B856C857D850E94BD
:103E6000DD1D4B015C01611571058105910509F4AA
:103E700074C0613071058105910589F26F3F2FEFA4
:103E8000720782079207A1F2888199810E942C1AF9
:103E9000892B71F688819981FC01F2968E5C9D4F89
:103EA000E817F90711F01192FBCFC880D980B5014E
:103EB000A401C6010E942E1BF60166A777A780AB5E
:103EC00091ABD12CCC24C394E881F9818281D8169E
:103ED000B8F4C482888199810E942C1A892B09F038
:103EE000A7CFE881F98186A597A5A0A9B1A90196D8
:103EF000A11DB11D86A797A7A0ABB1ABD394E4CF0A
:103F000086A597A5A0A9B1A98D199109A109B10903
:103F100086A797A7A0ABB1AB8A869B86AC86BD86E9
:103F2000B501A401888199810E942E1B6E877F872D
:103F3000888B998B1D830C83E5E0EE0CFF1CEA95C2
:103F4000E1F7F2E3EF0EF11C888199818E0D9F1D40
:103F50009B8B8A8B80E090E002C087E090E0DF914D
:103F6000CF911F910F91FF90EF90DF90CF90BF9076
:103F7000AF909F908F9008956F927F928F929F92B3
:103F8000AF92BF92CF92DF92EF92FF920F931F9367
:103F9000CF93DF93EC018B01DB018C918F3211F019
:103FA0008C3511F40F5F1F4F1E821F8218861986F1
:103FB000F8018081803240F460E070E0CE010E9420
:103FC0001E1C1B8A1A8AF0C030E2A32E45E0B42ED4
:103FD0003801D8018C910F5F1F4F8F32C9F38C3598
:103FE000B9F3EC89FD89CF019F01255F3F4F82170F
:103FF000930721F0DC01AD92CD01F9CF430180E0C0
:1040000090E060E070E028E030E050E06F5F7F4FCC
:10401000D401FD904D014F2D413228F14F3219F15D
:104020004C3509F14E3209F4B5C08217930708F0F8
:104030009BC0F7FE07C053600F2D10E00B57134FC6
:10404000D8014C91E42EF12C06EE1CE0D801CD9065
:104050008D01CC2009F48BC0DD24C7FCD094CE1494
:10406000DF04A1F781C08301060F171FB0E2BF155F
:1040700010F044E001C040E0892B09F475C0808154
:10408000853E09F4B0822830310511F4550F550FE3
:10409000852F8370813009F44061852F8C708430C6
:1040A00009F44860438760E070E0CE010E941E1C66
:1040B000009741F54E855F85688979898881998166
:1040C0000E94951A0097F1F4EA89FB898081882380
:1040D000A1F0838583FD0BC0AC89BD89CF010B9610
:1040E000E817F90769F031912D913217C9F360E0B3
:1040F00070E0CE010E94B61EDBCF84E090E002C0EB
:1041000080E090E0EC89FD892385009739F08430C8
:10411000910509F049C022FF24C046C022FD44C0D9
:104120004A895B89FA01838584FF1BC0828D938D48
:10413000A0E0B0E028813981F9012081233061F4C9
:10414000FA014489558960E070E0BA015527442797
:10415000842B952BA62BB72B8E839F83A887B9879B
:1041600037CF85E090E020C086E090E01DC01FEBD7
:10417000140F1A3110F4526006C01FE9140F1A31DF
:1041800010F4516040527F01E80EF91ED7014C93A4
:1041900001963CCF2830310539F7550F550F88E08F
:1041A00090E02BE030E032CFDF91CF911F910F9163
:1041B000FF90EF90DF90CF90BF90AF909F908F9047
:1041C0007F906F900895CF93DF93EC014E855F85CC
:1041D00068897989888199810E94951A009771F47C
:1041E000EA89FB892081253E49F0222339F061E0EC
:1041F00070E0CE010E94B61E009741F3DF91CF918F
:1042000008950F931F93CF93DF93EC0160E070E06C
:104210000E941E1C8C01009731F5CE010E94E32004
:104220008C01009701F54E855F85688979898881C1
:1042300099810E94951A8C010097A9F4EA89FB895B
:10424000CF018096E817F90711F01192FBCF6C8926
:104250007D894BE050E08A899B890E943C17E88168
:10426000F98181E08483C801DF91CF911F910F9183
:1042700008957F928F929F92AF92BF92CF92DF92DA
:10428000EF92FF920F931F93CF93DF93EC016A019C
:104290007B01423051056105710508F453C08E89D8
:1042A0009F89A88DB98D481759076A077B0708F0C1
:1042B00049C0772473948E899F89A88DB98DC816BB
:1042C000D906EA06FB0660F4B701A601CE010E94FA
:1042D000571B4B015C01611571058105910519F4AE
:1042E00080E090E031C081E088169104A104B1041F
:1042F00049F18FEF88169806A806B80601F100E08C
:1043000010E09801B701A601CE010E94C41C0097DD
:10431000D9F44E855F85688979894F3F8FEF5807BB
:104320006807780749F04F5F5F4F6F4F7F4F4E87A9
:104330005F87688B798B7D8275016401BCCF81E0DA
:1043400090E002C082E090E0DF91CF911F910F9149
:10435000FF90EF90DF90CF90BF90AF909F908F90A5
:104360007F900895811113C0E091E60EF091E70E61
:10437000309709F010826115710511F0FB01108270
:104380007093E70E6093E60E80E090E008958BE076
:1043900090E008954F925F926F927F929F92AF92BA
:1043A000BF92CF92DF92EF92FF920F931F93CF9322
:1043B000DF93CDB7DEB7A4970FB6F894DEBF0FBE7C
:1043C000CDBF5C017CA36BA3F42E009709F4F2C06F
:1043D000DC011D921C924E71BE016F5F7F4FCE01BA
:1043E00083960E94BA17009709F0EFC0CE01479656
:1043F0009E8B8D8B6BA17CA146970E94BC1F0B8965
:104400001C89009729F40115110511F486E090E04C
:10441000BF2DBF719B2E2F2D2C7109F46FC00097FB
:1044200079F08430910521F4CE0101960E9401219A
:10443000E92DE8609E2E0B891C89009749F0C5C0C4
:10444000D8011B968C91817109F0BDC0F2FCB5C0FA
:1044500093FE60C00E946103F80166877787808BB6
:10446000918B1386D801148E158E168E178EE981C6
:10447000FA815A96CD90DC905B97E12CF12C8081EB
:10448000833069F454964D915C91559760E070E0EB
:10449000BA0155274427C42AD52AE62AF72AD80183
:1044A0005B961C921E925A9755961C921E92549798
:1044B00081E08483C114D104E104F10459F146A4DC
:1044C00057A460A871A8B701A601CF010E943921A5
:1044D000009709F07AC089819A81B1E0CB1AD1089E
:1044E000E108F108FC01C286D386E486F586B301B3
:1044F000A2010E94951A009769F067C0009709F021
:1045000064C0D8011B968C9184FD5AC0F1FE02C094
:1045100080FD59C093FE03C0B92DB0629B2EE98087
:10452000FA80F70146A557A560A971A9D5015A9649
:104530004D935D936D937C935D975F961C930E9363
:104540005E9714969C92F801828D938DA0E0B0E066
:10455000F7012081233061F4F8014489558960E036
:1045600070E0BA0155274427842B952BA62BB72B37
:10457000F50186879787A08BB18BF801848D958D87
:10458000A68DB78DF50182879387A487B58716829C
:10459000178210861186168A178A108E118EF18264
:1045A000E082D70116968D919C9117979383828311
:1045B00080E001C089E090E008C088E090E005C09C
:1045C00084E090E002C087E090E0A4960FB6F894F3
:1045D000DEBF0FBECDBFDF91CF911F910F91FF9036
:1045E000EF90DF90CF90BF90AF909F907F906F90B3
:1045F0005F904F9008952F923F924F925F926F92EB
:104600007F928F929F92AF92BF92CF92DF92EF9262
:10461000FF920F931F93CF93DF93EC015B017A011D
:104620001901F901118210820E945F17009709F0A9
:104630005DC18C8187FD56C181FF56C18A859B85EE
:10464000AC85BD85AC01BD014E0D5F1D611D711DA9
:10465000481759076A077B0710F4E12CF12C11E089
:10466000E114F10409F442C04E815F8168857985C7
:10467000DB01CA019170AA27BB27892B8A2B8B2BC0
:1046800009F0E5C0E881F981028101502A013B016E
:10469000A9E07694679457944794AA95D1F704219A
:1046A00009F047C0452B462B472BA1F46E857F852B
:1046B00088899989611571058105910551F540E059
:1046C00050E0BA01CF010E94DD1D6E877F87888B85
:1046D000998B07C04A895B896C897D89CF010E94CB
:1046E000DD1D611571058105910599F48E819F810C
:1046F000A885B9854A855B856C857D8548175907EE
:104700006A077B0708F0E9C08A879B87AC87BD876B
:10471000E4C0613071058105910571F16F3FFFEFD4
:104720007F078F079F0709F4A8C06A8B7B8B8C8B50
:104730009D8B88819981FC0146A457A460A871A82B
:104740004E895F89688D798D441655066606770611
:1047500029F40E942C1A892B09F08FC08880998037
:104760004A895B896C897D89C4010E942E1B611571
:1047700071058105910521F48C8180688C83B2C01C
:104780002B013C01400E511C611C711C6701CD2C9A
:10479000DD24C694C114D104F1F1F4018281202FEB
:1047A00030E0A601420F531F90E08417950718F4DC
:1047B0006C01C21AD30A0C2DA3019201B501F401B8
:1047C00081810E94F73B892B09F057C0888199812C
:1047D000FC0146A557A560A971A9441955096609A8
:1047E00077092601612C712C44155505660577055E
:1047F00070F4BA01762F6627770F6A0D7B1D40E0B3
:1048000052E0C2960E943C17E881F9811482DC2CA8
:10481000CC24DD0C4AC04E815F81688579858A850C
:104820009B85AC85BD85481759076A077B0758F0FB
:10483000C4010E942C1A892B01F5E881F98146A652
:1048400057A660AA71AA4E8A5F8A688E798E8E8179
:104850009F81917020E032E0281B390B67012E15F3
:104860003F0508F469014E895F89688D798D8881DB
:1048700099810E94951A892B29F08C8180688C83FC
:1048800081E033C08E819F81A885B9859170AA2768
:10489000BB27C29628813981A601B501820F931FDB
:1048A0000E943C17E881F9811483AC0CBD1C8E81F9
:1048B0009F81A885B9858C0D9D1DA11DB11D8E837D
:1048C0009F83A887B987F101808191818C0D9D1DFF
:1048D00091838083EC18FD08C3CE8C8180628C8329
:1048E00080E003C082E001C087E090E0DF91CF91DB
:1048F0001F910F91FF90EF90DF90CF90BF90AF90FE
:104900009F908F907F906F905F904F903F902F90EF
:1049100008950F931F93CF93DF93EC010E945F17CD
:104920000097D9F52C8125FF38C04A8D5B8D6C8DA1
:104930007D8D888199810E94951A009771F50E8D61
:104940001F8DF8018385806283878A859B85AC856E
:10495000BD85848F958FA68FB78F4E855F856889BB
:104960007989538F428F758B648B0E946103F801A4
:10497000668B778B808F918F138A128A8C818F7DC3
:104980008C83E881F98181E0848388819981DF913A
:10499000CF911F910F910C94C91ADF91CF911F9164
:1049A0000F910895CF93DF93EC010E948924009723
:1049B00011F419821882DF91CF9108952F923F92BE
:1049C0004F925F926F927F928F929F92AF92BF921F
:1049D000CF92DF92EF92FF920F931F93CF93DF93CB
:1049E00000D01F92CDB7DEB71C016A017B010E9487
:1049F0005F17009709F06BC1D10114962C911497A1
:104A000027FD61C11A968D919D910D90BC91A02DAD
:104A10008C159D05AE05BF0520F421FD02C06C017B
:104A20007D01F1014680578060847184168217826F
:104A300010861186C114D104E104F10421F4C12CC3
:104A4000D12C760113C1F10100811181D801129698
:104A50008C90912CA12CB12C89E0880C991CAA1C5B
:104A6000BB1C8A95D1F74114510461047104D9F13A
:104A7000B1E04B1A510861087108C701B6016150D5
:104A8000710981099109A50194010E94BB4B2983F9
:104A90003A834B835C83C301B201A50194010E9458
:104AA000BB4B89819A81AB81BC8182179307A40794
:104AB000B507C8F088279927DC0188199909AA0940
:104AC000BB0984219521A621B721F1018683978313
:104AD000A087B187C81AD90AEA0AFB0A4289538912
:104AE000648975892DC0D1011E964D915D916D919E
:104AF0007C9151974115510561057105D1F440E054
:104B000050E0BA01C8010E94DD1DAB01BC0141307B
:104B100051056105710509F46AC04F3FFFEF5F075A
:104B20006F077F0709F45AC0F10146875787608BEA
:104B3000718BD10152964D935D936D937C935597F4
:104B4000411551056105710509F479CF2CC042303A
:104B500051056105710508F44AC0D101ED91FC9140
:104B600086899789A08DB18D481759076A077B07F9
:104B7000F0F5D10152964D935D936D937C935597CB
:104B800016968D919D910D90BC91A02D880D991D2B
:104B9000AA1DBB1DF10186839783A087B187C81822
:104BA000D908EA08FB088C149D04AE04BF0458F52C
:104BB000F10124818081918121FF1EC00E94DD1DB1
:104BC000AB01BC014115510561057105D1F04F3FA5
:104BD000FFEF5F076F077F0709F0B9CFD101149688
:104BE0008C911497806814968C9381E06FC0F101CA
:104BF00084818068848367C00E94571BAB01BC011D
:104C0000E6CF75016401F10186819781A085B185A8
:104C10008C0D9D1DAE1DBF1D86839783A087B18718
:104C2000D701C6019170AA27BB27892B8A2B8B2B12
:104C300009F405CF808191810E942E1B61157105B9
:104C40008105910541F4D10114968C9114978068E7
:104C500014968C9338C0B9E0F694E794D794C7942F
:104C6000BA95D1F7C60ED71EE81EF91EF10186814E
:104C70009781A085B185AC01BD015170662777276A
:104C8000452B462B472B69F046895789608D718DDE
:104C9000C416D506E606F70621F0C68AD78AE08E46
:104CA000F18EF10142855385648575854817590752
:104CB0006A077B0750F482879387A487B58784812E
:104CC0008062848302C082E001C080E090E00F90A7
:104CD0000F900F900F90DF91CF911F910F91FF9048
:104CE000EF90DF90CF90BF90AF909F908F907F908C
:104CF0006F905F904F903F902F90089580E090E0EC
:104D0000089580E090E008950F931F93CF93DF9371
:104D1000EC0180E80E948312882319F00E94E612B9
:104D20004DC080E80E94BF1283EE0E940C1381E800
:104D30000E94BF120E942E13082F10E00E94381309
:104D400090E02097C9F4702F6627680F791F80E0E4
:104D500090E00E94AA4A20E030E040E857E30E9439
:104D6000384B22E538EB4FE253E40E94384B26E6FD
:104D700036E64BE352E41AC0219701F5702F6627FF
:104D8000680F791F80E090E00E94AA4A20E030E09E
:104D900040E857E30E94384B20E030E04AEF52E40D
:104DA0000E94384B20E030E040EC50E40E94AC49D7
:104DB0000E947E4A262F972F822F00C0DF91CF912D
:104DC0001F910F910895F89480E28093B60010929D
:104DD000B2008FE18093B30082E08093B0008093B3
:104DE000B10097B397BB80937000789408950F93A8
:104DF0001F936091E90E7091EA0E8091EB0E9091F5
:104E0000EC0E0091E90E1091EA0E2091EB0E30911C
:104E1000EC0E601771078207930759F71F910F91E6
:104E200008950F931F936091C61F7091C71F8091C3
:104E3000C81F9091C91F0091C61F1091C71F2091D4
:104E4000C81F3091C91F601771078207930759F770
:104E50001F910F910895009731F0880F991F880FC7
:104E6000991F0197F1F7089520EA3FE0019720F09C
:104E7000F9013197F1F7FACF08951F920F920FB60B
:104E80000F9211240BB60F922F933F934F935F9382
:104E90006F937F938F939F93AF93BF93EF93FF9302
:104EA0008091E90E9091EA0EA091EB0EB091EC0E7C
:104EB0000196A11DB11D8093E90E9093EA0EA09377
:104EC000EB0EB093EC0E8091E90E9091EA0EA0915A
:104ED000EB0EB091EC0E8F779927AA27BB27892B71
:104EE0008A2B8B2B99F48091C61F9091C71FA0919C
:104EF000C81FB091C91F0196A11DB11D8093C61F87
:104F00009093C71FA093C81FB093C91F80916120C1
:104F10008823E1F08091E80E8F5F8093E80E87FF91
:104F200015C01092E80E8091BE1F9091BF1FA091F6
:104F3000C01FB091C11F0196A11DB11D8093BE1F5E
:104F40009093BF1FA093C01FB093C11F0E948E30CB
:104F5000892B11F00E94C32FFF91EF91BF91AF9168
:104F60009F918F917F916F915F914F913F912F9181
:104F70000F900BBE0F900FBE0F901F9018951F92B1
:104F80000F920FB60F9211240BB60F922F933F93EF
:104F90004F935F936F937F938F939F93AF93BF9341
:104FA000EF93FF938091C600E091CC1FF091CD1F4D
:104FB000309709F01995FF91EF91BF91AF919F91B3
:104FC0008F917F916F915F914F913F912F910F90B2
:104FD0000BBE0F900FBE0F901F9018951F920F924F
:104FE0000FB60F9211240BB60F922F933F934F934E
:104FF0005F936F937F938F939F93AF93BF93EF9341
:10500000FF938091CE00E091CA1FF091CB1F3097A3
:1050100009F01995FF91EF91BF91AF919F918F91F9
:105020007F916F915F914F913F912F910F900BBEA8
:105030000F900FBE0F901F90189581110EC0109207
:10504000C5006093C40088E98093C1004093C2000A
:105050001092CD1F1092CC1F0895813069F41092E8
:10506000CD006093CC0088E98093C9004093CA00CA
:105070001092CB1F1092CA1F0895811107C0809112
:10508000C00085FFFCCF6093C6000895813031F4E5
:105090008091C80085FFFCCF6093CE000895CF9328
:1050A000C82F8A3031F46DE08091ED0E0E943D28CA
:1050B00002C08D3029F06C2F8091ED0E0E943D28AA
:1050C00080E090E0CF910895811105C07093CD1FCD
:1050D0006093CC1F0895813021F47093CB1F6093AF
:1050E000CA1F08958093ED0E8AE792E09093A8205E
:1050F0008093A720089584B7877F84BF88E10FB687
:10510000F89480936000109260000FBE08952FE025
:1051100088E190E00FB6F894A895809360000FBEE8
:10512000209360000895A89508950C94754D0C94F3
:10513000714D81E090E008958091D31F90E0089533
:105140008091390181FF09C0809139018D7F809361
:10515000390189E190E00197F1F723E040E06FE148
:1051600082E491E00E94A22D85E090E00197F1F7A2
:1051700008959091390191FD0AC0282F803108F0DF
:105180002FE040E06FE085E491E00C94A22D0895BB
:105190000C9781F44230510581F46115710569F075
:1051A0008091700F9091710FFB019183808380E05B
:1051B00090E0089581E090E0089582E090E0089505
:1051C0008091390181FD10C040E06FE181E491E000
:1051D0000E94982D8F3131F0982F9F7E915081E061
:1051E000923018F480E0089581E0089580913901AB
:1051F00081FD04C00E94E0288823C1F30895109225
:1052000061208091390181FD0DC00E94F6288091B6
:10521000390181FD07C00E94A02880913901826078
:1052200080933901089580916120882321F00E94A4
:10523000E0280E94FF2880E090E0089580913901E5
:1052400081FD0EC040E06FE181E491E00E94982D65
:10525000282F2F7E81E090E0213021F080E008951A
:1052600080E090E00895AB0122E0260F27FF0CC0FC
:1052700080915F20909160200196909360208093B0
:105280005F208FEF9FEF0895BC018EEE9EE00E949D
:105290009A4E80E090E00895809163012091620130
:1052A00090E0982F8827820F911D089540E06FE1CC
:1052B00081E491E00C94982DCF93DF93C82F88EF71
:1052C0008C0F823038F08C2F8F7E863019F0C931E8
:1052D00009F051C08091390181FD50C00E94F6282B
:1052E0000E945629D82FC81709F442C0C83029F4A3
:1052F000809139010E94A0282CC0C93119F486314F
:1053000081F404C0C63169F4893159F429E040E0E0
:105310006FE182E491E00E94A22DE5E0F0E0319798
:10532000F1F72C2F40E06FE182E491E00E94A22D82
:10533000D83059F42091880240E06FEF86E591E083
:105340000E94A22DE1EDF2E002C0E5E0F0E031972D
:10535000F1F70E9456298C1759F0C63029F4813094
:1053600039F083E490E00CC0C631D9F78131C9F738
:1053700080E490E005C082E490E002C084E490E024
:10538000DF91CF91089581E0809361209091390160
:1053900091FF15C080935C202FB7789480913901DC
:1053A000809139018D7F8093390180E197E23091BE
:1053B0005C20332319F001970097C9F72FBF86E1CE
:1053C0000E945C290C94F62880916120811102C012
:1053D0000E94C32981E090E008950F931F93CF931B
:1053E000DF931F92CDB7DEB780916120882361F0F3
:1053F0008091390181FF02C080E033C00E94E02823
:105400008823D1F310E003C00E94E42911E080E872
:105410008093550186E00E945C2981E08093D41F2F
:105420008FB789837894109247018091D41F81119E
:10543000FCCF89818FBF9091470181E09E3008F0B9
:1054400080E0082F019586E10E945C2910925501A9
:1054500011110E9413290295069506950370802F5D
:10546000817090E00F90DF91CF911F910F9108957F
:105470002FEF40E06FEF8EE491E00E94A22D20E03C
:1054800044E060EF8CE691E00E94A22D20E041E034
:105490006EE08CE691E00E94A22D80E880936F017F
:1054A0008091460180936D0121E045E060E284E453
:1054B00091E00C94A22D89EF97E00197F1F70E94FB
:1054C000972D1092DA1F1092D91F1092D81FE9E37E
:1054D000F1E080818E7F808380818D7F808381E871
:1054E0009BE10197F1F780818160808323E040E0B8
:1054F0006FE182E491E00E94A22D89EF97E001978D
:10550000F1F780915D0180915E010E94382A60E090
:1055100070E089E892E00E94E6310E94C32981E0B0
:1055200090E0089580916F0F0895CF93DF931F92BD
:10553000CDB7DEB789830E94F628898180936F0FEB
:10554000282F40E06FE188E491E00F90DF91CF9148
:105550000C94A22DCF93DF93EB018830910508F0D6
:105560005DC0FC01E656FF4F0C94DD4B61307105C8
:1055700029F40E94E42980E090E055C0CD2B09F089
:1055800050C00E941329F7CFCB010B97409708F02A
:1055900048C0862F0E94952AEECFD0936301609376
:1055A0006201E9CF60936001D0936101E4CFCB0148
:1055B000887F892BB1F560FF02C020E001C021E0A7
:1055C00041E062E087E591E00E94A22DC1FF02C0A8
:1055D00020E001C021E044E060E18EE691E00E941D
:1055E000A22DD695C795D695C795C170C093720F59
:1055F000CC2369F01092880286E00E945C292FEF8C
:1056000040E06FEF8EE491E00E94A22DB4CF8FEFC7
:105610008093880286E10E945C29ADCF81E090E012
:1056200002C082E090E0DF91CF910895FA0190935B
:105630006301809362016093600170936101309710
:10564000C1F0808180936B01818180936A018281A6
:1056500080936901838180936801848180936701CD
:10566000858180936601868180936501878180931F
:105670006401089580919400909195009093710F2A
:105680008093700F089589E892E00E94073281E0CC
:105690008093D31F8091D51F9091D61F0196909330
:1056A000D61F8093D51F81E090E00895E091D91F27
:1056B00082E8E89FF0011124E652F04E1082109229
:1056C000D91F8091DA1F81110C94432B1092D31FA4
:1056D00008951F93CF93DF932091D91F12E8129F53
:1056E00090011124D901A652B04E4C915DEF540F98
:1056F0005D3728F00E94562BC0E0D0E02FC050E06C
:10570000EA0122976C177D07A8F3B9016552704E24
:105710000E949A4EE091D91F1E9FF0011124E65A73
:10572000FF4D80818093CE1F0E94562B80914701B0
:105730008093CF1F9091D21F992311F0891710F4F5
:105740008093D21F6091CF1F70E084E00E94CD361D
:105750006091CE1F70E083E00E94CD36CE01DF91D4
:10576000CF911F910895BF92CF92DF92EF92FF9257
:105770000F931F93CF93DF931F92CDB7DEB77C01BA
:10578000FC01808191810097C1F08E349640D9F060
:10579000F7011182108283E085C08AE090E00E94C8
:1057A000904F101611060CF073C0C8010E94EA3524
:1057B000E091250EF091260E19958EE496E0F70102
:1057C0009183808302C0623811F081E06BC00E9437
:1057D00082368FB78983F8940E94303660E870E093
:1057E0000E94692B8C0189818FBF8091730F882360
:1057F000C1F20E9430366C016091A7207091A82000
:1058000081EC90E00E94284F6091A7207091A82021
:105810008FE190E00E94284F6091A7207091A8200E
:105820008EEF90E00E94284F6091A7207091A820F1
:1058300082E790E00E94284F6091A7207091A820F5
:1058400081E090E00E94284F6091A7207091A820ED
:1058500080E090E00E94284F6091A7207091A820DE
:10586000C80103960E94284FB12C2B2D30E0201741
:1058700031070CF092CF6091A7207091A820F6011B
:10588000E20FF31F808190E00E94284FB394EDCF88
:105890008091D01F9091D11F01969093D11F80933A
:1058A000D01F8BCF0F90DF91CF911F910F91FF9061
:1058B000EF90DF90CF90BF9008950C94B92880911D
:1058C000390181FD06C040E06FE085E491E00C9471
:1058D000982D80E10895CF92DF92FF921F93CF938E
:1058E000DF931F92CDB7DEB7F82E8091390181FD8D
:1058F0000DC00E94F62889E10E945C2986E00E9482
:10590000D836892BB9F4C12CD12C1DC081E08093ED
:105910005C20909139019D7F9093390120E137E21D
:1059200080915C20882329F321503109211531050C
:10593000B9F7DFCF0E945F2CC82E86E00E94D836D0
:1059400081500E94B9288FB78983F89490913901CA
:10595000926090933901909139019D7F9093390124
:1059600062E06F0D8EEE9EE00E94E72D89818FBF71
:1059700020915D2030915E202F5F3F4F30935E205D
:1059800020935D200E94F62845E060EE82E491E0DD
:105990000E94982D182F86E00E94D836892B19F086
:1059A0008C2D0E94B92880916120882319F00E94D3
:1059B000C32902C00E94FF28123028F48FE00E9401
:1059C000D83610E00BC0133031F0153031F01730FD
:1059D00029F411E003C012E001C013E0812F90E030
:1059E0000F90DF91CF911F91FF90DF90CF9008959E
:1059F000CF93DF93EB010E943329009729F4CE0166
:105A00000E946B2C009751F020915F203091602014
:105A10002F5F3F4F3093602020935F20DF91CF9125
:105A20000895CF93DF9380916120811104C00E947B
:105A3000E429D1E001C0D0E00E945629863111F05E
:105A4000813119F4C091470109C040E06FE186E45B
:105A500091E00E94982DC82FCC0FC80FD1110E9441
:105A600013298C2FDF91CF910895CF93DF93EB0112
:105A7000209709F447C08131910508F046C0FC0128
:105A8000EE55FF4F0C94DD4B80916F0F90E09983A2
:105A9000888380E090E048C00E944C29F8CF809134
:105AA00060012091610190E0922BF1CF1982188260
:105AB00041E062E087E591E00E94982D882341F162
:105AC00044E060E18EE691E00E94982D882331F158
:105AD0008091720F8823E9F2888199818460D7CF01
