:100000000C949B020C94BC020C94BC020C94BA2C71
:100010000C94DA2C0C94BC020C94BC020C94BC0220
:100020000C94BC020C94BC020C94BC020C94BC0258
:100030000C94BC020C94673D0C94BC020C94BC0262
:100040000C94BC020C94BC020C94BC020C94BC0238
:100050000C94BC020C94BC020C94BC020C94BC0228
:100060000C94BC020C94E93D0C94BC020C94BC02B0
:100070000C94BC020C94BC020C94BC020C94BC0208
:100080000C946D520C94BC020C94BC020C94BC02F7
:100090000C94183E0C94BC020C94BC020C94BC0250
:1000A0000C94BC020C94BC020C94BC020C94BC02D8
:1000B0000C94BC020C94BC020C94BC020C94BC02C8
:1000C0000C94BC020C94BC020C94BC020C94BC02B8
:1000D0000C94BC020C94BC020C94BC020C94BC02A8
:1000E0000C94BC020C9427460C941D460C94D345EA
:1000F0000C949B450C9431460C9413460C94074683
:100100000C94FB450C94BC020C94BC020C94BC02F5
:100110000C94BC020C94BC020C94BC020C94BC0267
:100120000C94BC020C94BC020C94BC020C94BC0257
:100130000C94BC02B941C541CE41D341D8411342D0
:10014000164213422945EA44ED44F044F744294558
:10015000114529451545E744E744E744E744184578
:100160001B451E4523450C94424F0C94B92B0C940F
:10017000602A0C94CE410C94062C0C94DB470C9412
:10018000BF4D0C94F0440C94BB3F0C94EF2C0C949A
:10019000474F0C946E420C9423450C94793E0C947A
:1001A0003B4D0C94112F0C94904C0C9411450C94D5
:1001B000963A0C94F4230C94514D0C9408580C94DA
:1001C000632A0C94D3410C94F7440C9451040C947E
:1001D000FE2D0C94C8030C94364D0C949E400C9448
:1001E00021120C94494D0C94674C0C948B3C0C944C
:1001F000AB410C943F4B0C94883C0C944B530C94A7
:100200009B530C94CD4D0C94B7420C94484D0C94D8
:10021000B64C0C948D2C0C94C63F0C941E450C943B
:1002200081220C9463560C94432A0C94C83E0C947F
:1002300025540C94D6440C94092C0C9414040C945E
:100240008A2C0C943D560C94414F0C94A44A0C9467
:10025000B9410C94C53E0C94164C0C94314D0C9441
:1002600041560C94BE020C940A4C0C9476530C9498
:10027000D93F0C94404D0C9429450C944A3C0C9465
:1002800060410C946F430C94E7440C94C14D0C9462
:100290007E230C9425550C94454D0C944D3C0C94A8
:1002A000212E0C940A2D0C94742E0C9418450C9449
:1002B0004E4D0C94E2560C94E2530C94A32C0C94E7
:1002C0003D460C94503C0C94ED440C9415450C9414
:1002D00016420C949F4D0C949B240C948E3C0C94D1
:1002E0001B450C94EA440C946B3B0C94933A0C948D
:1002F000F6080C94D8410C94C5410C94C3020C949C
:10030000A7400C9413420C9499440C94F43E6E61F3
:100310006E00696E660000407A10F35A00A0724EBB
:1003200018090010A5D4E80000E87648170000E49A
:100330000B54020000CA9A3B000000E1F5050000E2
:1003400080969800000040420F000000A086010047
:100350000000102700000000E80300000000640017
:10036000000000000A000000000001000000000082
:100370002C76D888DC674F0823DFC1DFAE59E1B1A6
:10038000B796E5E3E453C63AE651997696E8E6C2B5
:100390008426EB898C9B62ED407C6FFCEFBC9C9FBC
:1003A00040F2BAA56FA5F490055A2AF75C936B6CDE
:1003B000F9676DC11BFCE0E40D47FEF520E6B500D2
:1003C000D0ED902E0300943577050080841E080040
:1003D00000204E0A000000C80C333333330F986EF0
:1003E00012831141EF8D2114893BE65516CFFEE6AD
:1003F000DB18D1844B381BF77C1D901DA4BBE42473
:10040000203284725E228100C9F124ECA1E53D27EF
:100410004E657665722D7573656420737461636BC8
:10042000203E2025642062797465730A004F6E6C4B
:10043000696E650A00526F7574696E6720456E615A
:10044000626C65640A0050414E3D307825582C207E
:100450004D41433D25732C205244433D25732C20B0
:100460004E4554574F524B3D25732C206368616EA7
:100470006E656C3D252D752C20636865636B2D7250
:100480006174652D487A3D252D752C2074782D706A
:100490006F7765723D252D750A000A0025783A00B0
:1004A0004D4143206164647265737320000A2A2AF7
:1004B0002A2A2A2A2A20426F6F74696E67205749B8
:1004C0004D45412D494354204150504C49434154DE
:1004D000494F4E2056455253494F4E20322E31201F
:1004E0002A2A2A2A2A2A2A0A00454550524F4D20F4
:1004F000697320636F72727570742C2072657772E5
:100500006974696E672077697468206465666175CF
:100510006C74732E0A006C6F63616C686F73740087
:1005200041544D4547413235367266723200020001
:1005300000FFFE00000111241FBECFEFD1E8DEBF97
:10054000CDBF00E00CBF16E1A0E0B2E0E4EAFDECB4
:1005500000E00BBF02C007900D92A232B107D9F79D
:1005600029E2A2E2B6E101C01D92AD31B207E1F786
:100570000E943E290C94D0660C940000FC0111826C
:10058000108283E00895AF92BF92CF92DF92EF92F4
:10059000FF920F931F93CF93DF93CDB7DEB7C1596F
:1005A000D1090FB6F894DEBF0FBECDBF6C01162F78
:1005B000B42EA52E633821F483E896E10E94584CAE
:1005C000F60180819181009741F089309340E9F0F4
:1005D000F6011182108283E0C9C045EA52E161E868
:1005E00070E083E896E10E943D4CE0918415F09123
:1005F00085156AE170E081E090E0199589E093E06B
:10060000F6019183808381E0B1C01538E1F7F89459
:100610004CE050E06CE872E0CE0186589F4F0E949B
:1006200046667894EB2DFA2DDF010D900020E9F756
:1006300011977D01EE1AFF0A8E010A571F4F4CE0F9
:1006400050E0BE0166587F4FC8010E948E641F9320
:100650000F9389E193E09F938F931F928EE18F9385
:10066000035811091F930F930E94A865F82EAF92AB
:10067000BF92809199271F928F93809198271F9204
:100680008F93809197271F928F93809196271F9227
:100690008F93809195271F928F93809194271F921B
:1006A0008F93809193271F928F93809192271F920F
:1006B0008F9385E293E09F938F9389E18E0D1F9234
:1006C0008F93C8018F0D911D9F938F930E94A865F2
:1006D0008F0DEE24E394E80EF801E80FF11D10826F
:1006E0000FB6F894DEBF0FBECDBFC8010E9478657B
:1006F00080910A0280618983809182168A83A0900A
:100700008015B0908115F5011995F5011995F12C19
:10071000B7016E5F7F4FCE0101960E94CC4E83E8F9
:1007200096E10E945A4CF5011995F50119958091B1
:1007300082168F5F809382168DE493E09F938F9350
:100740001F9282E08F93E00EF11EFF92EF920E94C3
:10075000A865A80165E881E592E00E94FA490F903A
:100760000F900F900F900F900F9048CFCF56DF4F04
:100770000FB6F894DEBF0FBECDBFDF91CF911F91B2
:100780000F91FF90EF90DF90CF90BF90AF900895C2
:100790000F931F93CF93DF938B010E94724EEC0156
:1007A00084E00E940A4F90939D2780939C2783E0CA
:1007B0000E940A4F8093B6279093B72721E030E03C
:1007C000309397162093961629811F922F93288194
:1007D0002F701F922F939F938F9380919D278F93BC
:1007E00080919C278F93F80181811F928F93808144
:1007F0001F928F932296DF93CF9380E593E09F9390
:100800008F930E9436651092971610929616EDB748
:10081000FEB770960FB6F894FEBF0FBEEDBFDF9126
:10082000CF911F910F910895CF93DF93FC01208109
:1008300031812115310551F02C3A374029F0FC0166
:100840001182108283E02AC0653839F5EC010E94DC
:10085000BF3E8091961690919716892B21F083B711
:10086000817F866002C083B7817F83BFF89483B79E
:10087000816083BF7894889583B78E7F83BF789497
:1008800040E050E065E88091F5179091F6170E94DE
:10089000DD498CEA97E09983888381E0DF91CF91ED
:1008A0000895CF93DF93EC0188819981009739F007
:1008B000833C9105E1F01982188283E033C081E026
:1008C00090E0909397168093961640E05EE160E08A
:1008D00070E08CE696E10E948D4810929716109277
:1008E000961683EC90E09983888381E01BC08CE6A8
:1008F00096E10E94A148892BC1F30E94572C9B01CD
:10090000AC0181E090E090939716809396166CE38B
:1009100070E085E89BE00E9447258CE696E10E9406
:100920009748DBCFDF91CF910895F8944CE050E0E9
:1009300060E872E080E396E10E944666789480E386
:1009400096E108954F925F926F927F928F929F925D
:10095000AF92BF92CF92DF92EF92FF92CF93DF934D
:100960008091CE2782FF7CC0C0917C14D0917D14F1
:100970008BE090E0FE0119957C018AE090E0FE0199
:1009800019954C0189E090E0FE011995092C000CA5
:10099000AA08BB0825E1880C991CAA1CBB1C2A9537
:1009A000D1F7092E000CAA0BBB0BDC019927882775
:1009B00024013501482A592A6A2A7B2A88E090E0D6
:1009C000FE0119954C01990FAA08BB084BE0880C51
:1009D000991CAA1CBB1C4A95D1F784289528A628E7
:1009E000B72887E090E0FE0119956701FCEBCF1A6C
:1009F000F7E0DF0A0D2C000CEE08FF08B701A60196
:100A0000E9E1440F551F661F771FEA95D1F76C0186
:100A1000990FEE08FF08F5E0CC0CDD1CEE1CFF1C66
:100A2000FA95D1F7C828D928EA28FB28C42AD52A5C
:100A3000E62AF72A86E090E0FE011995092E000CBF
:100A4000AA0BBB0BC2E0B695A79597958795CA955B
:100A5000D1F7BC01CD016C297D298E299F2904C0C5
:100A600060E070E081E29AE4DF91CF91FF90EF9037
:100A7000DF90CF90BF90AF909F908F907F906F90BE
:100A80005F904F9008958EE793E00E9478658DEB1C
:100A900093E00E94786587EF93E09F938F930E9485
:100AA000366586E294E09F938F930E94366589E4D1
:100AB00094E09F938F930E9436658AE694E09F931B
:100AC0008F930E9436658AE994E09F938F930E94EA
:100AD000366582EC94E09F938F930E9436658FEF8A
:100AE00094E09F938F930E94366582E495E09F93F4
:100AF0008F930E94366583E695E09F938F930E94C3
:100B000036658DEA95E09F938F930E94366585EF59
:100B100095E09F938F930E9436658091CE272DB7E5
:100B20003EB72A5E3F4F0FB6F8943EBF0FBE2DBFB3
:100B300082FF1AC081E090E09093971680939616FA
:100B400089E496E09F938F930E94366580E996E052
:100B50009F938F930E943665109297161092961667
:100B60000F900F900F900F908AE090E00E947265B6
:100B700087ED96E00C947865CF92DF92EF92FF922A
:100B80000F931F93CF93DF93F8948EE992E00E9426
:100B90005E66D82EC92E8CE992E00E945E66F82E21
:100BA000E92E8AE992E00E945E66182F092F88E9F3
:100BB00092E00E945E66EC01789488E197E00E94E2
:100BC0007865CF92DF9287E397E09F938F930E949F
:100BD0003665EF92FF9286E497E09F938F930E9491
:100BE00036650F931F9385E597E09F938F930E943F
:100BF0003665DF93CF9384E697E09F938F930E94AF
:100C000036658DB79EB740960FB6F8949EBF0FBE5F
:100C10008DBFDF91CF911F910F91FF90EF90DF90EB
:100C2000CF900895CF92DF92EF92FF920F931F9390
:100C3000CF93DF936C01F8948EE992E00E945E6698
:100C4000F82EE92E8CE992E00E945E66182F092F9B
:100C50008AE992E00E945E66EC0188E992E00E94D7
:100C60005E667894F6012081203329F4EF92FF929A
:100C700083E797E012C0213329F40F931F9386E98D
:100C800097E00BC0223329F4DF93CF9389EB97E0F1
:100C900004C09F938F938CED97E09F938F930E9456
:100CA00036650F900F900F900F90DF91CF911F91AD
:100CB0000F91FF90EF90DF90CF900895EF92FF9209
:100CC0000F931F93CF93DF938C017B010E94586396
:100CD000EC01892B49F4F8018081803329F41F93BA
:100CE0000F938FEF97E037C0F7018081803361F475
:100CF000F894BE018EE992E00E9486667894DF93B4
:100D0000CF9388E598E027C0813361F4F894BE0161
:100D10008CE992E00E9486667894DF93CF9389E70E
:100D200098E019C0823361F4F894BE018AE992E038
:100D30000E9486667894DF93CF938AE998E00BC08F
:100D4000F894BE0188E992E00E9486667894DF9369
:100D5000CF938BEB98E09F938F930E9436650F9013
:100D60000F900F900F90DF91CF911F910F91FF90F7
:100D7000EF9008958F929F92AF92BF92CF92DF92A1
:100D8000EF92FF920E943B3D6B017C018CE3882E29
:100D9000912CA12CB12CC701B601A50194010E9490
:100DA00092619F938F937F936F93CA01B901A501BD
:100DB00094010E9492619F938F937F936F93C701D9
:100DC000B60120E13EE040E050E00E949261CA019D
:100DD000B90128E130E040E050E00E9492619F9329
:100DE0008F937F936F93C701B60120E831E541E00F
:100DF00050E00E9492615F934F933F932F938CED4D
:100E000098E09F938F930E9436658DB79EB7429668
:100E10000FB6F8949EBF0FBE8DBFFF90EF90DF908E
:100E2000CF90BF90AF909F908F9008950F931F9396
:100E3000CF93DF93CDB7DEB72C970FB6F894DEBF14
:100E40000FBECDBF4CE050E0BC018E010F5F1F4FC5
:100E5000C8010E948E64F8944CE050E06CE872E0A7
:100E6000C8010E94646661E070E080E190E00E9449
:100E7000866678941F930F9381E299E09F938F93F6
:100E80000E9436650F900F900F900F902C960FB622
:100E9000F894DEBF0FBECDBFDF91CF911F910F91B0
:100EA00008950F931F93CF93DF93CDB7DEB72C97A1
:100EB0000FB6F894DEBF0FBECDBFF89480E190E08E
:100EC0000E945E66019729F08AE399E00E947865A6
:100ED00016C04CE050E06CE872E08E010F5F1F4FCF
:100EE000C8010E9446661F930F938DE499E09F937B
:100EF0008F930E9436650F900F900F900F9078940B
:100F00002C960FB6F894DEBF0FBECDBFDF91CF9108
:100F10001F910F910895EF92FF920F931F93CF931C
:100F2000DF93C0917C14D0917D1486E090E0FE01A7
:100F30001995F82EE92E87E090E0FE011995182FFB
:100F4000092F88E090E0FE011995EF92FF920F9330
:100F50001F939F938F938DE599E09F938F931F929B
:100F60008FE08F938BE496E19F938F930E94A86507
:100F70008DB79EB70C960FB6F8949EBF0FBE8DBF6F
:100F80008BE496E1DF91CF911F910F91FF90EF904D
:100F90000895EF92FF920F931F93CF93DF93C09129
:100FA0007C14D0917D148BE090E0FE011995F82E11
:100FB000E92E8AE090E0FE011995182F092F89E0AB
:100FC00090E0FE011995EF92FF920F931F939F936C
:100FD0008F938CE699E09F938F931F928FE08F936E
:100FE0008CE396E19F938F930E94A8658DB79EB77F
:100FF0000C960FB6F8949EBF0FBE8DBF8CE396E1A2
:10100000DF91CF911F910F91FF90EF900895CF92B4
:10101000DF92EF92FF920F931F93CF93DF93CDB7A1
:10102000DEB72C970FB6F894DEBF0FBECDBFD82E1B
:10103000C92E162F49E050E0682F792FCE01019676
:101040000E948E64CE010D967C01111148C06BE7A1
:1010500079E00C970E9462648E01065F1F4F009733
:1010600079F0E016F10661F00E945863F80181936F
:101070008F016BE779E080E090E00E946264EFCF3F
:101080006A858FEF860F8F3128F0CF92DF928DE740
:1010900099E069C0EB848FEF8E0D8C30B0F7FC8443
:1010A000F3E6FF1594F300917E1410917F1470E025
:1010B00083E090E0F80119956E2D70E084E090E0F7
:1010C000F80119956F2D70E085E090E0F801199511
:1010D0000E94C9079F938F9384EB99E044C062EC10
:1010E00079E0CE0101960E9462648E01065F1F4F77
:1010F000009779F00E151F0561F00E945863F80102
:1011000081938F0162EC79E080E090E00E9462645C
:10111000EFCF6A85693128F0CF92DF9284EC99E0B5
:1011200022C0EB84FCE3FE15B8F3FC84FF15A0F3AA
:1011300000917E1410917F1470E082E090E0F8013D
:1011400019956E2D70E081E090E0F80119956F2DF2
:1011500070E080E090E0F80119950E948B079F9362
:101160008F938BEF99E09F938F930E9436650F903A
:101170000F900F900F902C960FB6F894DEBF0FBE15
:10118000CDBFDF91CF911F910F91FF90EF90DF9036
:10119000CF900895F89444E650E06CEA71E08BE05B
:1011A00092E00E94646678940895F89444E650E0D2
:1011B00068E471E08BE092E00E94646678940895A0
:1011C000F89444E650E064EE70E08BE092E00E9418
:1011D000646678940895F89444E650E060E870E01E
:1011E0008BE092E00E946466789408952F923F927B
:1011F0004F925F926F927F928F929F92AF92BF9227
:10120000CF92DF92EF92FF920F931F93CF93DF93D2
:10121000CDB7DEB76E970FB6F894DEBF0FBECDBF69
:101220009A8F898F85E0E9E0FAE0DE011D96019052
:101230000D928A95E1F787E0FE017296DF01982F03
:101240001D929A95E9F795E0EEE0FAE0DE0111963D
:1012500001900D929A95E1F7FE013696DF011D92FD
:101260008A95E9F7109293161092921610929116A1
:101270001092901610928F1610928E16109297164A
:1012800010929616E98DFA8D80819181892B09F053
:1012900047C161E082E997E20E94652BF89481E002
:1012A00090E090939716809396168AE190E00E94C2
:1012B0005E664C01609192167091931684E090E006
:1012C0000E948666609190167091911682E090E07F
:1012D0000E94866660918E1670918F1680E090E075
:1012E0000E94866688E190E00E945E665C0186E16D
:1012F00090E00E945E666C0184E190E00E945E6670
:101300007C0182E190E00E945E668C018EE090E0BC
:101310000E945E663C018CE090E00E945E662C01BB
:101320008AE090E00E945E661C0188E090E00E94E6
:101330005E669C8F8B8F86E090E00E945E669E8F3B
:101340008D8F8A94892891F08CE390E09093852783
:10135000809384276CE370E082EA92E00E948666C4
:1013600061E070E08AE190E00E948666AA94AB2872
:1013700091F08CE390E090938527809384276CE331
:1013800070E08EE992E00E94866661E070E088E19C
:1013900090E00E948666CA94CD2881F0109285273D
:1013A0001092842760E070E08CE992E00E948666EB
:1013B00061E070E086E190E00E948666EA94EF28A2
:1013C00081F0109285271092842760E070E08AE90E
:1013D00092E00E94866661E070E084E190E00E9405
:1013E00086660130110581F01092852710928427BE
:1013F00060E070E088E992E00E94866661E070E05B
:1014000082E190E00E9486666A946728B1F061E00C
:1014100070E08EE090E00E9486664CE050E060E86C
:1014200072E0CE010D960E9464664CE050E064E7E5
:1014300072E0CE0101960E9464664A944528C1F08C
:101440000E94CA0861E070E08CE090E00E9486662D
:101450004CE050E060E872E0CE010D960E946466B8
:101460004CE050E064E772E0CE0101960E946466B1
:101470002A942328C1F00E94D50861E070E08AE038
:1014800090E00E9486664CE050E060E872E0CE0199
:101490000D960E9464664CE050E064E772E0CE0175
:1014A00001960E9464668B8D9C8D0197C1F00E940D
:1014B000E00861E070E088E090E00E9486664CE021
:1014C00050E060E872E0CE010D960E9464664CE048
:1014D00050E064E772E0CE0101960E946466AD8D33
:1014E000BE8D1197C1F00E94EB0861E070E086E0CC
:1014F00090E00E9486664CE050E060E872E0CE0129
:101500000D960E9464664CE050E064E772E0CE0104
:1015100001960E946466109297161092961678941F
:10152000E98DFA8D1182108283E06E960FB6F894E1
:10153000DEBF0FBECDBFDF91CF911F910F91FF9006
:10154000EF90DF90CF90BF90AF909F908F907F9063
:101550006F905F904F903F902F900895AF92BF9201
:10156000CF92DF92EF92FF920F931F93CF93DF936F
:10157000CDB7DEB7C059D1400FB6F894DEBF0FBE6D
:10158000CDBFF8946E0183EDC81A8EEFD80A44E6F9
:1015900050E06CEA71E0C6010E9446667E0199EC5B
:1015A000E90EF11C44E650E068E471E0C7010E94D6
:1015B00046668E010B591F4F44E650E064EE70E022
:1015C000C8010E94466644E650E060E870E0CE0143
:1015D00001965C010E9446667894DF92CF9283E187
:1015E0009AE09F938F930E943665FF92EF9282E27A
:1015F0009AE09F938F930E9436651F930F9381E328
:101600009AE09F938F930E943665BF92AF9280E4D9
:101610009AE09F938F930E9436658FE49AE00E9430
:1016200078650FB6F894DEBF0FBECDBFC057DE4F52
:101630000FB6F894DEBF0FBECDBFDF91CF911F91E3
:101640000F91FF90EF90DF90CF90BF90AF900895F3
:10165000EF92FF920F931F93CF93DF937C0187014B
:10166000F701C081FFEFEF1AFF0A8C2F90E00E9474
:101670004E64892BA1F7CC2391F0E801099000205A
:10168000E9F722970C171D0710F0198208C088810E
:1016900090E00E944E64892BC1F32197F3CFC801DB
:1016A000DF91CF911F910F91FF90EF9008951F93BD
:1016B000CF93DF93CDB7DEB72C970FB6F894DEBF8C
:1016C0000FBECDBF182F4CE050E0CE0101960E9416
:1016D0008E64F8944CE050E0113019F460E872E048
:1016E00002C064E772E0CE0101960E9464667894BD
:1016F0002C960FB6F894DEBF0FBECDBFDF91CF9111
:101700001F910895813011F40C949504F8944CE0E5
:1017100050E064E772E084E296E10E9446667894C5
:1017200084E296E108958F929F92AF92BF92CF92FA
:10173000DF92EF92FF920E943B3D6B017C0183E1BF
:101740009BE00E94786582E00E94820BB82EA92E51
:101750000E949504AF92BF929F938F938CE59BE07C
:101760009F938F930E9436658BE092E09F938F93B7
:1017700086E89BE09F938F930E9436650E94BC058C
:1017800042E16BE97BE080913625909137250E94FC
:1017900060392DB73EB7265F3F4F0FB6F8943EBF76
:1017A0000FBE2DBF892B19F486EA9BE002C080ECA6
:1017B0009BE00E9478650E9451078091CE2782FFAE
:1017C0001CC00E94C9079F938F9389ED9BE09F9354
:1017D0008F930E9436650E948B079F938F938BEEA9
:1017E0009BE09F938F930E9436658DB79EB70896B6
:1017F0000FB6F8949EBF0FBE8DBF8CE3882E912C40
:10180000A12CB12CC701B601A50194010E949261DF
:101810009F938F937F936F93CA01B901A5019401A0
:101820000E9492619F938F937F936F93C701B6013C
:1018300020E13EE040E050E00E949261CA01B9011F
:1018400028E130E040E050E00E9492619F938F9346
:101850007F936F93C701B60120E831E541E050E086
:101860000E9492615F934F933F932F938DEF9BE084
:101870009F938F930E9436650E94AE0A2DB73EB7A4
:101880002E5E3F4F0FB6F8943EBF0FBE2DBF89E3CB
:101890009CE0FF90EF90DF90CF90BF90AF909F9033
:1018A0008F900C947865CF92DF92EF92FF920F9316
:1018B0001F93CF93DF93CDB7DEB768970FB6F89439
:1018C000DEBF0FBECDBF8C0184E190E00E94DD61E0
:1018D0006C0143E150E0B8010E948E6462E87CE054
:1018E000C6010E9462648E01035F1F4F4BE050E00F
:1018F000BC01C8010E948E6462E87CE080E090E058
:101900000E9462644BE050E0BC01CE0101967C0174
:101910000E948E6445E050E0B80189E09AE00E94A0
:10192000B264892B61F48981882349F0B70181E091
:101930000E94570BFF92EF9284E89CE019C045E0AB
:1019400050E0B8018EE09AE00E94B264892B61F405
:101950008981882349F0B70182E00E94570BFF92EA
:10196000EF928AE99CE004C01F930F9380EB9CE008
:101970009F938F930E9436650F900F900F900F905A
:10198000C60168960FB6F894DEBF0FBECDBFDF91DB
:10199000CF911F910F91FF90EF90DF90CF900C941B
:1019A00075622F923F924F925F926F927F928F92C9
:1019B0009F92AF92BF92CF92DF92EF92FF920F93DE
:1019C0001F93CF93DF93CDB7DEB7CE50D1400FB684
:1019D000F894DEBF0FBECDBFC35FDE4F8883CD500E
:1019E000D140C25FDE4F9883CE50D140C55FDE4FFD
:1019F00079836883CB50D1408A01C75FDE4F39833A
:101A00002883C950D14084E690E00E94DD613C010A
:101A10008EE1EFEEF2E0DE01A951BF4F01900D9291
:101A20008A95E1F7F894C75FDE4FA881B981C95064
:101A3000D1408C91803329F444E650E06CEA71E0A7
:101A400014C0813329F444E650E068E471E00DC02D
:101A5000823329F444E650E064EE70E006C083333C
:101A600049F444E650E060E870E0CE018B599F4FA6
:101A70000E9446667894FE01319684E6DF011D924D
:101A80008A95E9F744E650E0BE016B597F4FC301E8
:101A90000E948E6466E578E0C3010E9462641E01C4
:101AA000B9EC2B0E311C7101412C512C009781F0A7
:101AB0000E94280BF701819391937F01FFEF4F1A4A
:101AC0005F0A66E578E080E090E00E946264EECF15
:101AD0000130110509F088C0C35FDE4F0881CD5089
:101AE000D140C25FDE4F1881CE50D140E12CF12CA5
:101AF000C55FDE4FE881F981CB50D140EE16FF067D
:101B00000CF044C04101C12CD12CAA24A394B12CC7
:101B10004C145D04C9F0D8016D917C91FB010190DA
:101B20000020E9F73197AF01461B570BF401819173
:101B300091914F010E94B264892B11F4A12CB12C18
:101B4000FFEFCF1ADF0AE4CFAA94AB28C9F4D8017B
:101B5000AD90BC90F50101900020E9F731976F013D
:101B6000CA18DB0866E578E0CE018B599F4F0E94CA
:101B70008364A601B501CE018B599F4F0E94A264D8
:101B8000BFEFEB1AFB0A0E5F1F4FB2CFA6968FADC9
:101B9000A697882309F439C1F894C75FDE4FA8815E
:101BA000B981C950D1408C91803329F444E650E08A
:101BB0006CEA71E015C0813329F444E650E068E432
:101BC00071E00EC0823329F444E650E064EE70E028
:101BD00007C0833309F018C144E650E060E870E0C4
:101BE000CE018B599F4F0EC1012B09F00EC1812CE4
:101BF000912CA12CB12CA414B50409F4DBC0C35F53
:101C0000DE4FE881CD50D140CB5FDE4FE883C55039
:101C1000D140C25FDE4FF881CE50D140CA5FDE4F67
:101C2000F883C650D140E12CF12C81E090E0C95FEF
:101C3000DE4F99838883C750D140C55FDE4F8881CE
:101C40009981CB50D140E816F9060CF044C0F1015F
:101C500000811181F80101900020E9F73197AF016F
:101C6000401B510BCB5FDE4FA881B981C550D140DD
:101C7000CD90DD90CB5FDE4FB983A883C550D140B6
:101C8000B601C8010E94B264892B09F5F801808170
:101C90008435B9F445E050E065EE7AE0C6010E9473
:101CA000B26431E020E0892B09F030E0C95FDE4FFB
:101CB0003883C750D140C85FDE4F2883C850D14019
:101CC00006C0C95FDE4F19821882C750D140FFEFAE
:101CD000EF1AFF0AB2CFD1010D911D911D017E01B6
:101CE000B7EEEB0EF11CF701B096CB5FDE4FF98338
:101CF000E883C550D140C12CD12CF601EE0FFF1F57
:101D000087EE90E08C0F9D1FE80FF91FA081B18135
:101D1000FD0101900020E9F73197AF014A1B5B0BF1
:101D2000D7016D917D917D01C8010E94B264892B1C
:101D300019F4CC24C394D12CCB5FDE4FE881F98118
:101D4000C550D140EE16FF06C1F6C95FDE4F88814F
:101D50009981C750D140019749F5CA94CD2831F5F2
:101D6000F80101900020E9F78114910461F4AF01BA
:101D7000401B510BB801CE0101960E948E6488244D
:101D80008394912C10C031977F01E01AF10A66E527
:101D900078E0CE0101960E948364A701B801CE01CC
:101DA00001960E94A264AFEF8A1A9A0ABFEFAB1A9B
:101DB000BB0A21CF8981882341F1F894C75FDE4FA8
:101DC000A881B981C950D1408C91803329F444E66F
:101DD00050E06CEA71E014C0813329F444E650E02D
:101DE00068E471E00DC0823329F444E650E064EE0B
:101DF00070E006C0833341F444E650E060E870E0F0
:101E0000CE0101960E9464667894C301C25FDE4FE2
:101E10000FB6F894DEBF0FBECDBFDF91CF911F91FB
:101E20000F91FF90EF90DF90CF90BF90AF909F9079
:101E30008F907F906F905F904F903F902F900C9479
:101E400075622F923F924F925F926F927F928F9224
:101E50009F92AF92BF92CF92DF92EF92FF920F9339
:101E60001F93CF93DF93CDB7DEB7CC50D1400FB6E1
:101E7000F894DEBF0FBECDBFC75FDE4F8883C95069
:101E8000D140C65FDE4F9883CA50D140C95FDE4F54
:101E900079836883C750D14084E690E00E94DD6179
:101EA0006C0184E690E00E94DD613C018EE1EFEE82
:101EB000F2E0DE01A951BF4F01900D928A95E1F742
:101EC000F894C95FDE4FA881B981C750D1408C9189
:101ED000803329F444E650E06CEA71E014C08133A9
:101EE00029F444E650E068E471E00DC0823329F43F
:101EF00044E650E064EE70E006C0833349F444E603
:101F000050E060E870E0CE018B599F4F0E9446661A
:101F10007894FE01319684E6DF011D928A95E9F7F7
:101F200044E650E0C75FDE4F6881C950D140C65FCC
:101F3000DE4F7881CA50D140C3010E948E6466E5AD
:101F400078E0C3010E9462648E0107531F4F212C69
:101F5000312C009781F00E94280BF8018193919316
:101F60008F01FFEF2F1A3F0A66E578E080E090E0EE
:101F70000E946264EECF44E650E0BE016B597F4F91
:101F8000C6010E948E6466E578E0C6010E94626424
:101F9000412C512C27EE30E02C0F3D1F205E3F4F8F
:101FA000C55FDE4F39832883CB50D140009709F4B9
:101FB0007DC00E94280B7C01FC0101900020E9F704
:101FC00031978F01081B190BCE0187539F4F4C018E
:101FD000A12CB12CA1E0B0E0CB5FDE4FB983A88388
:101FE000C550D1402A143B04A1F0A801B701F40167
:101FF000819191914F010E94B264892B31F4CB5FA2
:10200000DE4F19821882C550D140FFEFAF1ABF0AC8
:10201000E9CF9E0129513F4F5901812C912CA801F4
:10202000B701D5018D919D915D010E94B264892B0C
:1020300019F488248394912CC55FDE4FE881F981DF
:10204000CB50D140EA15FB0551F7CB5FDE4F28811D
:102050003981C550D1402130310509F58A9489284C
:10206000F1F44114510461F4A8014F5F5F4FB701CF
:10207000CE0101960E948E6444244394512C0FC0DB
:1020800066E578E0CE0101960E948364A801B7015D
:10209000CE0101960E94A2648FEF481A580A66E5A5
:1020A00078E080E090E00E94626480CFF8948981BB
:1020B0008823E1F1C95FDE4FA881B981C750D140C3
:1020C0008C91803329F444E650E06CEA71E014C04E
:1020D000813329F444E650E068E471E00DC08233B6
:1020E00029F444E650E064EE70E006C0833341F426
:1020F00044E650E060E870E0CE0101960E9464661C
:10210000C65FDE4FB881CA50D140BF93C75FDE4F74
:10211000E881C950D140EF938EEC9CE09F938F9360
:102120000E9436650F900F900F900F907894C60123
:102130000E947562C301C45FDE4F0FB6F894DEBF24
:102140000FBECDBFDF91CF911F910F91FF90EF9008
:10215000DF90CF90BF90AF909F908F907F906F90C7
:102160005F904F903F902F900C9475622F923F920A
:102170004F925F926F927F928F929F92AF92BF9297
:10218000CF92DF92EF92FF920F931F93CF93DF9343
:10219000CDB7DEB7C65AD1090FB6F894DEBF0FBE71
:1021A000CDBFCD55DF4F8883C35AD040CC55DF4FCC
:1021B0009883C45AD040CF55DF4F79836883C15A82
:1021C000D04084E690E00E94DD617C0184E690E0EE
:1021D0000E94DD616C018EE1EFEEF2E0DE01AD57B1
:1021E000BF4F01900D928A95E1F7F894CF55DF4FDC
:1021F000E881F981C15AD0408081803329F444E6D6
:1022000050E06CEA71E014C0813329F444E650E0F8
:1022100068E471E00DC0823329F444E650E064EED6
:1022200070E006C0833341F444E650E060E870E0BB
:10223000CE0101960E944666789444E650E0BE01C5
:102240006F5F7F4FC7010E948E6466E578E0C7012B
:102250000E9462648E010B591F4F412C512C009734
:1022600081F00E94280BF801819391938F01FFEF79
:102270004F1A5F0A66E578E080E090E00E946264B1
:10228000EECF44E650E0CD55DF4F6881C35AD040D1
:10229000CC55DF4F7881C45AD040C6010E948E646D
:1022A00066E578E0C6010E94626423E830E02C0F06
:1022B0003D1F205E3F4FCB55DF4F39832883C55AE2
:1022C000D040009709F45CC00E94280B8C01FC01EF
:1022D00001900020E9F731973F01681A790ACE0191
:1022E0008B599F4F4C01A12CB12C22242394312CCB
:1022F0004A145B0481F0A301B801F401819191912A
:102300004F010E94B264892B11F4212C312CFFEF74
:10231000AF1ABF0AEDCF9E012D573F4F5901812CB7
:10232000912CA301B801F501819191915F010E9467
:10233000B264892B19F488248394912CCB55DF4FF8
:1023400028813981C55AD0402A153B0551F72A9476
:10235000232879F48A94892861F466E578E0CE012F
:1023600001960E948364A301B801CE0101960E94E8
:10237000A26466E578E080E090E00E946264A1CF0C
:102380008981882309F43EC0F894CF55DF4FE88156
:10239000F981C15AD0408081803329F444E650E06D
:1023A0006CEA71E014C0813329F444E650E068E43B
:1023B00071E00DC0823329F444E650E064EE70E031
:1023C00006C0833341F444E650E060E870E0CE019B
:1023D00001960E9464667894CC55DF4FF881C45A08
:1023E000D040FF93CD55DF4F2881C35AD0402F9363
:1023F00088EF9CE09F938F930E9436650F900F901B
:102400000F900F90C6010E947562C701CA55DF4F39
:102410000FB6F894DEBF0FBECDBFDF91CF911F91F5
:102420000F91FF90EF90DF90CF90BF90AF909F9073
:102430008F907F906F905F904F903F902F900C9473
:1024400075628F929F92AF92BF92CF92DF92EF927E
:10245000FF920F931F93CF93DF931F921F92CDB7DD
:10246000DEB76C01CA01F6012081318121153105E9
:1024700049F12534324029F0F6011182108283E0BF
:102480000DC22091D428261326C0BE016F5F7F4F56
:102490000E9462648C0181E090E090939716809393
:1024A0009616F801B080F8E6BF1217C0F801019047
:1024B0000020E9F7CF0102978017910709F0E9C1E1
:1024C0000E944305109297161092961685E492E0AA
:1024D000F6019183808381E0E1C142E050E060E554
:1024E0007DE0C8010E94B264892B09F04BC0F8015D
:1024F00001900020E9F7CF0103978017910719F4A5
:102500000E94BC05DFCFF80183818332B1F584815D
:102510008053843028F586E090E00E94DD617C01E4
:1025200046E050E0B8016C5F7F4F0E948E64F80176
:102530008581882389F086E090E00E94DD615C015E
:10254000B8016B5F7F4F46E050E00E948E64B70198
:10255000C5010E945E0647C1C7010E94120695C1CF
:102560001F930F9383E59DE09F938F930E943665A1
:102570000F900F900F900F90A5CF1F930F938EE8A1
:102580009DE0F2CF42E050E066E474E0C8010E94B2
:10259000B264892B19F40E94930B94CF44E050E06D
:1025A00063EC7DE0C8010E94B264892BE1F4F8017C
:1025B00001900020E9F73197E01BF10B359780F08F
:1025C0008CE090E00E94DD617C01B8016B5F7F4F81
:1025D0004CE050E00E948E64C7010E94160755C16E
:1025E0000E9451076FCFF5E7BF1203C00E94BA06E1
:1025F00069CF44E050E068EC7DE0C8010E94B2641D
:10260000892B39F5F80101900020E9F73197E01B9B
:10261000F10BE430F10539F40E94C9079F938F93C1
:102620008DEC9DE0A1CF3597399770F489E090E06B
:102630000E94DD617C01B8016B5F7F4F49E050E093
:102640000E948E6460E02FC01F930F9387ED9DE082
:102650008BCF44E050E068E07EE0C8010E94B264A5
:10266000892B51F5F80101900020E9F73197E01B23
:10267000F10BE430F10539F40E948B079F938F939F
:102680008DE09EE071CF3597399788F489E090E02E
:102690000E94DD617C01B8016B5F7F4F49E050E033
:1026A0000E948E6461E0C7010E940708EEC01F937C
:1026B0000F9387E19EE058CF42E050E067E275E17A
:1026C000C8010E94B264892B09F091C0F801019001
:1026D0000020E9F7CF0103978017910719F40E94B2
:1026E000AE0AF0CE84E690E00E94DD615C0144E633
:1026F00050E0B8016D5F7F4F0E948E64F5018081CC
:102700008053863008F06BC084E690E00E94DD6163
:102710007C0144E650E0B8016C5F7F4F0E948E64FC
:1027200044E050E068E47EE0C7010E94B264892B77
:1027300059F40E94CA080E94D5080E94E0080E942D
:10274000EB080E94AE0A4FC0F70180818823D1F1C7
:1027500084E690E00E94DD614C01B8016B5F7F4F21
:1027600044E650E00E948E64F70180818B3259F478
:10277000B501C4010E94B6108DE49EE00E94786508
:102780000E94AE0A1DC08D3299F4B501C4010E94A9
:10279000210FFF92EF9281E79EE09F938F930E941B
:1027A00036650E94AE0A0F900F900F900F9008C0F0
:1027B0000E94AE0AC5010E947562C7010E9475623F
:1027C000C4010AC08BE99EE00E9478650E94AE0AAF
:1027D000C5010E947562C7010E94756204C08EEA3D
:1027E0009EE00E947865C5010E9475624EC045E07A
:1027F00050E063ED7EE0C8010E94B264892B09F0CD
:1028000048C0F80101900020E9F7CF010697801732
:102810009107D9F40E9495049F938F9389ED9EE0D0
:102820009F938F930E94366582E00E94820B9F9354
:102830008F9382EE9EE09F938F930E9436650FB632
:10284000F894DEBF0FBECDBF3DCE84E190E00E9484
:10285000DD617C01B8016A5F7F4F43E150E00E9477
:102860008E64F7018081882321F0C7010E94530CF8
:102870000CC0FF92EF928BEE9EE09F938F930E948D
:1028800036650F900F900F900F90C7010E947562F0
:1028900019CE1F930F938EE19DE066CE0F900F909F
:1028A000DF91CF911F910F91FF90EF90DF90CF902C
:1028B000BF90AF909F908F900895CF93DF93CDB747
:1028C000DEB7C85CD1090FB6F894DEBF0FBECDBF2E
:1028D00044E650E0BC01CE0101960E948E64F8945B
:1028E00044E650E06CE170E0CE0101960E9464661F
:1028F000789481E090E09093951680939416C85355
:10290000DF4F0FB6F894DEBF0FBECDBFDF91CF9182
:1029100008952F923F925F926F927F928F929F9233
:10292000AF92BF92CF92DF92EF92FF920F931F93DD
:10293000CF93DF93CDB7DEB7C853D1400FB6F8942D
:10294000DEBF0FBECDBFF89444E650E06CEA71E004
:10295000CE018B599F4F0E944666789466E578E0D9
:10296000CE018B599F4F0E9462648C01512CE090E4
:102970004615F0904715C35DDE4FF982E882CD52CF
:10298000D140C15DDE4FF982E882CF52D1401701BC
:102990008091631490916414CF5CDE4F9983888397
:1029A000C153D140C0905B15D0905C153601A0900A
:1029B0002C15B0902D15E0917014F0917114CD5C30
:1029C000DE4FF983E883C353D14080904414909044
:1029D00045148091551490915614CB5CDE4F998329
:1029E0008883C553D140C95CDE4F99828882C75322
:1029F000D1400115110509F497C30E94572C24EA10
:102A000030E74DE250E40E94A65F87FF54C0C80142
:102A10000E94280B45E050E065EE7AE00E94B26427
:102A2000892B39F4E0915514F091561480E090E030
:102A300055C0C8010E94280B45E050E06BEE7AE0DB
:102A40000E94B264892B49F480E090E0C95CDE4FBB
:102A5000E881F981C753D14067C0C8010E94280BA3
:102A600044E050E060EE7AE00E94B264892B09F005
:102A70000CC30E94572C9F938F937F936F938AE38D
:102A80009FE09F938F931F928BE08F9389EC90E050
:102A90008C0F9D1F850D911D9F938F930E94A8659C
:102AA000580E87E49FE00E945D140FB6F894DEBFD5
:102AB0000FBECDBFEAC2C8010E94280B45E050E01E
:102AC00065EE7AE00E94B264892B01F580E090E027
:102AD000CB5CDE4FE881F981C553D1401995BC012B
:102AE000990F880B990B0E94556020E030E040E27E
:102AF00051E40E94AB5F9F938F937F936F938EE11E
:102B00009FE09F938F931F928CE09CC2C8010E940C
:102B1000280B45E050E06BEE7AE00E94B264892B0E
:102B2000B9F480E090E0F4011995BC01990F880B8D
:102B3000990B0E94556020E030E04AE754E40E947F
:102B4000AB5F9F938F937F936F938CE29FE013C053
:102B5000C8010E94280B44E050E060EE7AE00E9439
:102B6000B264892B69F40E94572C9F938F937F93B3
:102B70006F938AE39FE09F938F931F928BE062C2D3
:102B8000C8010E94280B45E050E069E07AE00E940D
:102B9000B264892B69F40E946C2C9F938F937F936E
:102BA0006F938DE49FE09F938F931F928FE04AC2B3
:102BB000C8010E94280B45E050E06EE07AE00E94D8
:102BC000B264892B69F40E947B2C9F938F937F932F
:102BD0006F9388E59FE09F938F931F928DE032C2A1
:102BE000C8010E94280B42E050E06DED7AE00E949F
:102BF000B264892BE1F480E090E0CD5CDE4FE881A7
:102C0000F981C353D1401995BC01990F880B990BD9
:102C10000E94556020E030E048EC52E40E94AB5F37
:102C20009F938F937F936F9383E69FE08AC0C80141
:102C30000E94280BFC018081803519F58091442584
:102C4000909145258C7E9927892B09F41EC280E03E
:102C500090E0F5011995892B89F00E94473C81117C
:102C60000DC080E090E0F50119959F938F938AE65F
:102C70009FE09F938F931F928CE087C080E79FE037
:102C800002C2C8010E94280BFC018081843551F5E5
:102C90008091442581FFF9C180E090E0F30119950E
:102CA000892B09F453C00E94073D81114FC080E079
:102CB00090E0F3011995BC01990F880B990B0E94C4
:102CC000556020E030E040E251E40E94AB5F9F930A
:102CD0008F937F936F938EE79FE09F938F931F92C5
:102CE00089E0B0C1C8010E94280B42E050E066EDC7
:102CF0007AE00E94B264892B61F58091442581FFBE
:102D0000C4C181E090E0F6011995892BF9F00E9489
:102D10000A3D81111BC081E090E0F6011995BC01CC
:102D2000990F880B990B0E94556020E030E040E23B
:102D300051E40E94AB5F9F938F937F936F9383E9DE
:102D40009FE09F938F931F928AE07CC186E89FE06B
:102D50009AC1C8010E94280B44E050E061EF7AE07C
:102D60000E94B264892BE9F480E090E0CF5CDE4FF2
:102D7000E881F981C153D14019959F938F938CE9D4
:102D80009FE09F938F931F928FE08F9389EC90E049
:102D90008C0F9D1F850D911D9F938F930E94A86599
:102DA0005CC1C8010E94280B45E050E06EEB7AE060
:102DB0000E94B264892B09F040C08091442584FFB1
:102DC00064C180E090E0F1011995892B89F10E949E
:102DD000853C81112DC080E090E0F1011995BC0186
:102DE000990F880B990B0E94556020E030E04AE76C
:102DF00054E40E94AB5F9F938F937F936F938AEA13
:102E00009FE09F938F931F928EE08F9389EC90E0C9
:102E10008C0F9D1F850D911D9F938F930E94A86518
:102E2000580E81E090E090936B1680936A163DCE29
:102E300010926B1610926A1628C1C8010E94280BC6
:102E400045E050E064EC7AE00E94B264892B09F01E
:102E500050C08091442584FF18C181E090E0C15D9D
:102E6000DE4FE881F981CF52D1401995892BE1F1EC
:102E70000E94853C811138C080916A1690916B1632
:102E8000892B91F581E090E0C15DDE4FE881F98109
:102E9000CF52D1401995BC01990F880B990B0E9414
:102EA000556020E030E04AE754E40E94AB5F9F9316
:102EB0008F937F936F9386EB9FE09F938F931F92E7
:102EC0008EE08F9389EC90E08C0F9D1F850D911DF6
:102ED0009F938F930E94A865580E81E090E0909395
:102EE000691680936816E1CD1092691610926816E3
:102EF000CCC0C8010E94280B45E050E06AEC7AE0A3
:102F00000E94B264892B09F057C08091442584FF48
:102F1000BCC082E090E0C35DDE4FE881F981CD5214
:102F2000D1401995892B09F442C00E94853C81113A
:102F30003EC080916A1690916B16892BC1F58091E5
:102F4000681690916916892B91F582E090E0C35D37
:102F5000DE4FE881F981CD52D1401995BC01990F1E
:102F6000880B990B0E94556020E030E04AE754E45A
:102F70000E94AB5F9F938F937F936F9382EC9FE050
:102F80009F938F931F928EE08F9389EC90E08C0F2C
:102F90009D1F850D911D9F938F930E94A865580ECC
:102FA00081E090E090936716809366167ECD109234
:102FB00067161092661669C0C8010E94280B45E08A
:102FC00050E060ED7AE00E94B264892B09F05DC0A8
:102FD0008091442584FF59C083E090E0F701199562
:102FE000892BE9F10E94853C811139C080916A16D4
:102FF00090916B16892B99F58091681690916916BE
:10300000892B69F58091661690916716892B39F5A1
:1030100083E090E0F7011995BC01990F880B990B9B
:103020000E94556020E030E04AE754E40E94AB5F24
:103030009F938F937F936F938EEC9FE09F938F93DB
:103040001F928EE08F9389EC90E08C0F9D1F850D71
:10305000911D9F938F930E94A865580E26CD809155
:103060006A1690916B16892B81F480916816909165
:103070006916892B51F48091661690916716892BF9
:1030800021F48AED9FE00E945D1480919416909146
:103090009516019749F5F89444E650E06CE170E02C
:1030A0008E010F5F1F4FC8010E94466678941F93E0
:1030B0000F9389E493E09F938F931F9280E18F9306
:1030C00089EC90E08C0F9D1F850D911D9F938F9330
:1030D0000E94A865580E10929516109294160FB67D
:1030E000F894DEBF0FBECDBFF0E5F515A8F4E9EC0E
:1030F000F0E0EC0FFD1FE50DF11D1082AE0147530E
:103100005F4F65E883E892E00E94FA49C753DF4FBA
:103110001882C95CD040512C66E578E080E090E0F0
:103120000E9462648C0165CCE9ECF0E0EC0FFD1FBD
:10313000E50DF11D1082AE0147535F4F65E883E84E
:1031400092E00E94FA49C85CDE4F0FB6F894DEBFE9
:103150000FBECDBFDF91CF911F910F91FF90EF90E8
:10316000DF90CF90BF90AF909F908F907F906F90A7
:103170005F903F902F9008952F923F925F926F92B1
:103180007F928F929F92AF92BF92CF92DF92EF92F7
:10319000FF920F931F93CF93DF93CDB7DEB7C85342
:1031A000D1400FB6F894DEBF0FBECDBFF89444E611
:1031B00050E064EE70E0CE018B599F4F0E9446664E
:1031C000789466E578E0CE018B599F4F0E94626447
:1031D0008C01512CE0904615F0904715C35DDE4FF1
:1031E000F982E882CD52D140C15DDE4FF982E8829A
:1031F000CF52D140CF5CDE4FF982E882C153D1403B
:103200008091631490916414CD5CDE4F9983888320
:10321000C353D140C0905B15D0905C1516016090EF
:103220002C1570902D15A0904414B09045148090EA
:10323000551490905614CB5CDE4FB982A882C553CA
:10324000D140C95CDE4F99828882C753D1400115B5
:10325000110509F484C30E94572C24EA30E74DE29B
:1032600050E40E94A65F87FF56C0C8010E94280B49
:1032700045E050E065EE7AE00E94B264892B49F4A3
:1032800080E090E0C95CDE4FE881F981C753D1400E
:1032900050C0C8010E94280B45E050E06BEE7AE078
:1032A0000E94B264892B49F480E090E0CB5CDE4F51
:1032B000E881F981C553D14062C0C8010E94280B42
:1032C00044E050E060EE7AE00E94B264892B09F09D
:1032D000F7C20E94572C9F938F937F936F938AE33B
:1032E0009FE09F938F931F928BE08F9389EC90E0E8
:1032F0008C0F9D1F850D911D9F938F930E94A86534
:10330000580E87E49FE00E945D140FB6F894DEBF6C
:103310000FBECDBFD5C2C8010E94280B45E050E0CA
:1033200065EE7AE00E94B264892BD9F480E090E0E7
:10333000F4011995BC01990F880B990B0E945560F7
:1033400020E030E040E251E40E94AB5F9F938F9316
:103350007F936F938EE19FE09F938F931F928CE0FA
:103360008CC2C8010E94280B45E050E06BEE7AE069
:103370000E94B264892BD9F480E090E0F5011995A0
:10338000BC01990F880B990B0E94556020E030E03A
:103390004AE754E40E94AB5F9F938F937F936F93B0
:1033A0008CE29FE09F938F931F928BE066C2C801CF
:1033B0000E94280B44E050E060EE7AE00E94B26484
:1033C000892B49F40E94572C9F938F937F936F937F
:1033D0008AE39FE0E7CFC8010E94280B45E050E058
:1033E0006EE07AE00E94B264892B69F40E947B2C23
:1033F0009F938F937F936F9389EE9FE09F938F931B
:103400001F928DE03AC2C8010E94280B45E050E0AF
:1034100069E07AE00E94B264892B69F40E946C2C06
:103420009F938F937F936F9386EF9FE09F938F93EC
:103430001F928FE022C2C8010E94280BFC018081EC
:10344000803571F580914425909145258C7E992792
:10345000892B09F435C280E090E0F3011995892B9E
:10346000E1F00E94473C811118C080E090E0F30138
:1034700019959F938F938AE69FE09F938F931F9256
:103480008CE08F9389EC90E08C0F9D1F850D911D32
:103490009F938F930E94A865FBC180E79FE00EC2B7
:1034A000C8010E94280BFC018081843551F5809170
:1034B000442581FF05C280E090E0F1011995892B38
:1034C00009F453C00E94073D81114FC080E090E095
:1034D000F1011995BC01990F880B990B0E94556059
:1034E00020E030E040E251E40E94AB5F9F938F9375
:1034F0007F936F938EE79FE09F938F931F9289E056
:10350000BCC1C8010E94280B42E050E066ED7AE0A1
:103510000E94B264892B61F58091442581FFD0C15E
:1035200081E090E0F6011995892BF9F00E940A3D9F
:1035300081111BC081E090E0F6011995BC01990F43
:10354000880B990B0E94556020E030E040E251E486
:103550000E94AB5F9F938F937F936F9383E99FE06C
:103560009F938F931F928AE088C186E89FE0A6C14F
:10357000C8010E94280B44E050E061EF7AE00E940D
:10358000B264892BF9F482E090E0CD5CDE4FE881F3
:10359000F981C353D1401995182F092F80E090E08D
:1035A000CD5CDE4FE881F981C353D14019950F936B
:1035B0001F939F938F9383E090E19F938F931F922C
:1035C00082E15BC1C8010E94280B45E050E06EEB30
:1035D0007AE00E94B264892B09F04AC080914425A8
:1035E00084FF6EC180E090E0CF5CDE4FE881F9811E
:1035F000C153D1401995892BB1F10E94853C8111AD
:1036000032C080E090E0CF5CDE4FE881F981C153A9
:10361000D1401995BC01990F880B990B0E945560F8
:1036200020E030E04AE754E40E94AB5F9F938F9321
:103630007F936F938AEA9FE09F938F931F928EE010
:103640008F9389EC90E08C0F9D1F850D911D9F93AA
:103650008F930E94A865580E81E090E090936516C4
:103660008093641652CE109265161092641628C18B
:10367000C8010E94280B45E050E064EC7AE00E940B
:10368000B264892B09F050C08091442584FF18C191
:1036900081E090E0C15DDE4FE881F981CF52D140F9
:1036A0001995892BE1F10E94853C811138C08091E8
:1036B000641690916516892B91F581E090E0C15DCB
:1036C000DE4FE881F981CF52D1401995BC01990FA5
:1036D000880B990B0E94556020E030E04AE754E4E3
:1036E0000E94AB5F9F938F937F936F9386EB9FE0D6
:1036F0009F938F931F928EE08F9389EC90E08C0FB5
:103700009D1F850D911D9F938F930E94A865580E54
:1037100081E090E09093631680936216F6CD10924C
:10372000631610926216CCC0C8010E94280B45E0B7
:1037300050E06AEC7AE00E94B264892B09F057C02D
:103740008091442584FFBCC082E090E0C35DDE4FE1
:10375000E881F981CD52D1401995892B09F442C0F5
:103760000E94853C81113EC080916416909165163F
:10377000892BC1F58091621690916316892B91F582
:1037800082E090E0C35DDE4FE881F981CD52D14007
:103790001995BC01990F880B990B0E94556020E088
:1037A00030E04AE754E40E94AB5F9F938F937F938E
:1037B0006F9382EC9FE09F938F931F928EE08F9385
:1037C00089EC90E08C0F9D1F850D911D9F938F9329
:1037D0000E94A865580E81E090E090936116809356
:1037E000601693CD109261161092601669C0C801E0
:1037F0000E94280B45E050E060ED7AE00E94B26440
:10380000892B09F05DC08091442584FF59C083E075
:1038100090E0F7011995892BE9F10E94853C81110F
:1038200039C08091641690916516892B99F5809125
:10383000621690916316892B69F5809160169091BC
:103840006116892B39F583E090E0F7011995BC01E9
:10385000990F880B990B0E94556020E030E04AE7F1
:1038600054E40E94AB5F9F938F937F936F938EEC92
:103870009FE09F938F931F928EE08F9389EC90E04F
:103880008C0F9D1F850D911D9F938F930E94A8659E
:10389000580E3BCD8091641690916516892B81F46A
:1038A0008091621690916316892B51F48091601675
:1038B00090916116892B21F48AED9FE00E945D149E
:1038C0008091941690919516019749F5F89444E6E5
:1038D00050E06CE170E08E010F5F1F4FC8010E9445
:1038E000466678941F930F9389E493E09F938F9398
:1038F0001F9280E18F9389EC90E08C0F9D1F850DC6
:10390000911D9F938F930E94A865580E1092951653
:10391000109294160FB6F894DEBF0FBECDBFFCE335
:10392000F515A8F4E9ECF0E0EC0FFD1FE50DF11D35
:103930001082AE0147535F4F65E883E892E00E9432
:10394000FA49C753DF4F1882C95CD040512C66E555
:1039500078E080E090E00E9462648C0178CCE9EC31
:10396000F0E0EC0FFD1FE50DF11D1082AE01475395
:103970005F4F65E883E892E00E94FA49C85CDE4F39
:103980000FB6F894DEBF0FBECDBFDF91CF911F9170
:103990000F91FF90EF90DF90CF90BF90AF909F90EE
:1039A0008F907F906F905F903F902F9008952F920F
:1039B0003F925F926F927F928F929F92AF92BF924F
:1039C000CF92DF92EF92FF920F931F93CF93DF93EB
:1039D000CDB7DEB7C853D1400FB6F894DEBF0FBEE7
:1039E000CDBFF89444E650E060E870E0CE018B591A
:1039F0009F4F0E944666789466E578E0CE018B5929
:103A00009F4F0E9462648C01512CE0904615F0900B
:103A10004715C35DDE4FF982E882CD52D140C15DCA
:103A2000DE4FF982E882CF52D140CF5CDE4FF9827F
:103A3000E882C153D1402090631430906414C09048
:103A40005B15D0905C153601A0902C15B0902D150B
:103A50008091701490917114CD5CDE4F99838883AE
:103A6000C353D1408090441490904514E091551474
:103A7000F0915614CB5CDE4FF983E883C553D140F7
:103A8000C95CDE4F99828882C753D1400115110568
:103A900009F498C30E94572C24EA30E74DE250E421
:103AA0000E94A65F87FF54C0C8010E94280B45E012
:103AB00050E065EE7AE00E94B264892B39F4E0911F
:103AC0005514F091561480E090E055C0C8010E9452
:103AD000280B45E050E06BEE7AE00E94B264892B3F
:103AE00049F480E090E0C95CDE4FE881F981C7537A
:103AF000D14067C0C8010E94280B44E050E060EE4E
:103B00007AE00E94B264892B09F00DC30E94572C01
:103B10009F938F937F936F938AE39FE09F938F93FD
:103B20001F928BE08F9389EC90E08C0F9D1F850D89
:103B3000911D9F938F930E94A865580E87E49FE084
:103B40000E945D140FB6F894DEBF0FBECDBFEBC26E
:103B5000C8010E94280B45E050E065EE7AE00E9423
:103B6000B264892B01F580E090E0CB5CDE4FE88108
:103B7000F981C553D1401995BC01990F880B990B58
:103B80000E94556020E030E040E251E40E94AB5FCB
:103B90009F938F937F936F938EE19FE09F938F937B
:103BA0001F928CE09DC2C8010E94280B45E050E0A6
:103BB0006BEE7AE00E94B264892BD9F480E090E049
:103BC000F4011995BC01990F880B990B0E9455605F
:103BD00020E030E04AE754E40E94AB5F9F938F936C
:103BE0007F936F938CE29FE09F938F931F928BE064
:103BF00077C2C8010E94280B44E050E060EE7AE0F2
:103C00000E94B264892B49F40E94572C9F938F9392
:103C10007F936F938AE39FE0E7CFC8010E94280B50
:103C200045E050E06EE07AE00E94B264892B69F4CE
:103C30000E947B2C9F938F937F936F9389EE9FE0DD
:103C40009F938F931F928DE04BC2C8010E94280B57
:103C500045E050E069E07AE00E94B264892B69F4A3
:103C60000E946C2C9F938F937F936F9386EF9FE0BE
:103C70009F938F931F928FE033C2C8010E94280B3D
:103C800042E050E06DED7AE00E94B264892B91F43D
:103C900080E090E0CD5CDE4FE881F981C353D140F4
:103CA00019959F938F9386E190E19F938F931F9235
:103CB00089E027C0C8010E94280BFC018081803563
:103CC00061F580914425909145258C7E9927892B1B
:103CD00009F429C280E090E0F5011995892B09F4D7
:103CE00081C00E94473C81117DC080E090E0F501D9
:103CF00019959F938F938AE69FE09F938F931F92CE
:103D00008CE08F9389EC90E08C0F9D1F850D911DA9
:103D10009F938F930E94A865EEC1C8010E94280B53
:103D2000FC018081843551F58091442581FFFBC1E0
:103D300080E090E0F3011995892B09F453C00E94AB
:103D4000073D81114FC080E090E0F3011995BC015F
:103D5000990F880B990B0E94556020E030E040E2FB
:103D600051E40E94AB5F9F938F937F936F938EE795
:103D70009FE09F938F931F9289E0B2C1C8010E9478
:103D8000280B42E050E066ED7AE00E94B264892B95
:103D900061F58091442581FFC6C181E090E0F60184
:103DA0001995892BF9F00E940A3D81111BC081E011
:103DB00090E0F6011995BC01990F880B990B0E94B0
:103DC000556020E030E040E251E40E94AB5F9F93F9
:103DD0008F937F936F9383E99FE09F938F931F92BD
:103DE0008AE07EC186E89FE09CC1C8010E94280B42
:103DF00044E050E061EF7AE00E94B264892BA9F4BC
:103E000082E090E0F1011995182F092F80E090E0F1
:103E1000F10119950F931F939F938F9383E090E186
:103E20009F938F931F9282E15BC1C8010E94280B70
:103E300045E050E06EEB7AE00E94B264892B09F015
:103E40004AC08091442584FF6EC180E090E0CF5C41
:103E5000DE4FE881F981C153D1401995892BB1F129
:103E60000E94853C811132C080E090E0CF5CDE4F43
:103E7000E881F981C153D1401995BC01990F880B94
:103E8000990B0E94556020E030E04AE754E40E941C
:103E9000AB5F9F938F937F936F938AEA9FE09F938B
:103EA0008F931F928EE08F9389EC90E08C0F9D1F73
:103EB000850D911D9F938F930E94A865580E81E0F8
:103EC00090E090935F1680935E163CCE10925F1642
:103ED00010925E1628C1C8010E94280B45E050E0F0
:103EE00064EC7AE00E94B264892B09F050C08091A2
:103EF000442584FF18C181E090E0C15DDE4FE88178
:103F0000F981CF52D1401995892BE1F10E94853C6E
:103F1000811138C080915E1690915F16892B91F5C2
:103F200081E090E0C15DDE4FE881F981CF52D14060
:103F30001995BC01990F880B990B0E94556020E0E0
:103F400030E04AE754E40E94AB5F9F938F937F93E6
:103F50006F9386EB9FE09F938F931F928EE08F93DA
:103F600089EC90E08C0F9D1F850D911D9F938F9381
:103F70000E94A865580E81E090E090935D168093B2
:103F80005C16E0CD10925D1610925C16CCC0C80194
:103F90000E94280B45E050E06AEC7AE00E94B2648F
:103FA000892B09F057C08091442584FFBCC082E072
:103FB00090E0C35DDE4FE881F981CD52D140199583
:103FC000892B09F442C00E94853C81113EC080913A
:103FD0005E1690915F16892BC1F580915C169091C9
:103FE0005D16892B91F582E090E0C35DDE4FE8819C
:103FF000F981CD52D1401995BC01990F880B990BCD
:104000000E94556020E030E04AE754E40E94AB5F34
:104010009F938F937F936F9382EC9FE09F938F93F7
:104020001F928EE08F9389EC90E08C0F9D1F850D81
:10403000911D9F938F930E94A865580E81E090E098
:1040400090935B1680935A167DCD10925B1610925A
:104050005A1669C0C8010E94280B45E050E060ED87
:104060007AE00E94B264892B09F05DC080914425FA
:1040700084FF59C083E090E0F7011995892BE9F19D
:104080000E94853C811139C080915E1690915F1627
:10409000892B99F580915C1690915D16892B69F5B5
:1040A00080915A1690915B16892B39F583E090E048
:1040B000F7011995BC01990F880B990B0E94556067
:1040C00020E030E04AE754E40E94AB5F9F938F9377
:1040D0007F936F938EEC9FE09F938F931F928EE060
:1040E0008F9389EC90E08C0F9D1F850D911D9F9300
:1040F0008F930E94A865580E25CD80915E169091F1
:104100005F16892B81F480915C1690915D16892B46
:1041100051F480915A1690915B16892B21F48AED07
:104120009FE00E945D1480919416909195160197DE
:1041300049F5F89444E650E06CE170E08E010F5FC1
:104140001F4FC8010E94466678941F930F9389E41D
:1041500093E09F938F931F9280E18F9389EC90E07F
:104160008C0F9D1F850D911D9F938F930E94A865B5
:10417000580E10929516109294160FB6F894DEBF52
:104180000FBECDBFFCE3F515A8F4E9ECF0E0EC0FB1
:10419000FD1FE50DF11D1082AE0147535F4F65E82D
:1041A00083E892E00E94FA49C753DF4F1882C95C46
:1041B000D040512C66E578E080E090E00E94626497
:1041C0008C0164CCE9ECF0E0EC0FFD1FE50DF11D76
:1041D0001082AE0147535F4F65E883E892E00E948A
:1041E000FA49C85CDE4F0FB6F894DEBF0FBECDBFF4
:1041F000DF91CF911F910F91FF90EF90DF90CF90C3
:10420000BF90AF909F908F907F906F905F903F9006
:104210002F900895CF92DF92EF92FF920F931F930A
:10422000CF93DF93CDB7DEB728970FB6F894DEBFF4
:104230000FBECDBF8C010E94702B809344259093BC
:104240004525109293161092921610929116109284
:10425000901610928F1610928E16C0900D03D0906B
:104260000E03E0900F03F090100381FF1DC0E0915A
:104270005D15F0915E1561E070E081E890E01995C0
:10428000C982DA82EB82FC82980141E050E062E070
:1042900070E0CE0101960E94D10C81E090E09093F5
:1042A00093168093921611C0C982DA82EB82FC8247
:1042B000980140E050E062E070E0CE0101960E947B
:1042C000D10C10929316109292168091442584FF7F
:1042D00022C0E0914815F091491561E070E081E855
:1042E00090E0199588E0E1E1F3E0DE01119601909C
:1042F0000D928A95E1F7980141E050E064E070E0AA
:10430000CE0101960E94D10C81E090E0909391162D
:104310008093901616C088E0E1E1F3E0DE0111968B
:1043200001900D928A95E1F7980140E050E064E039
:1043300070E0CE0101960E94D10C1092911610925D
:10434000901680914425909145258C7E9927892B44
:10435000E9F0E0912E15F0912F1561E070E081E811
:1043600090E0199589ED9AE09A838983980141E05C
:1043700050E061E070E0CE0101960E94D10C81E036
:1043800090E090938F1680938E1611C089ED9AE07D
:104390009A838983980140E050E061E070E0CE01AB
:1043A00001960E94D10C10928F1610928E16809159
:1043B000442582FF0BC00E94242EE0917E14F091D0
:1043C0007F1461E070E081E890E01995F89484E052
:1043D00090E00E945E6620919216309193168217AB
:1043E000930719F12115310589F48DE190E10E94BF
:1043F0007865609192167091931684E090E00E9427
:10440000866689E590E10E945D140FC02130310578
:1044100061F486E690E10E94786560919216709151
:10442000931684E090E00E94866680E090E00E940F
:104430005E6620918E1630918F168217930719F1C0
:104440002115310589F48FE990E10E94786560912A
:104450008E1670918F1680E090E00E9486668CED3B
:1044600090E10E945D140FC02130310561F48AEEA5
:1044700090E10E94786560918E1670918F1680E0B1
:1044800090E00E94866682E090E00E945E66209145
:104490009016309191168217930719F12115310565
:1044A00089F484E291E10E947865609190167091A0
:1044B000911682E090E00E94866682E691E10E9479
:1044C0005D140FC02130310561F481E791E10E9454
:1044D0007865609190167091911682E090E00E944C
:1044E0008666789428960FB6F894DEBF0FBECDBFCF
:1044F000DF91CF911F910F91FF90EF90DF90CF90C0
:104500000895EF92FF920F931F93CF93DF93EC01E7
:1045100088819981009741F08338914009F4B6C0B1
:104520001982188283E0E3C0E0917214F091731451
:1045300061E070E081E890E01995E0915714F09106
:10454000581461E070E081E890E01995E09146141C
:10455000F091471461E070E081E890E01995E091F6
:104560006514F091661461E070E081E890E01995BF
:1045700081E090E0909397168093961610928116A2
:10458000109280168091801690918116029784F780
:104590000091801510918115F80119958091801670
:1045A00090918116892B19F480E090E002C08FEF82
:1045B00090E00E943A418FE090E090937F168093C4
:1045C0007E16E0907E15F0907F1580917E1690917A
:1045D0007F1697FD12C0F701199580917E16909174
:1045E0007F160E94614380917E1690917F160197FD
:1045F00090937F1680937E16E8CFF801199500916D
:104600008016109181160130110509F065C08EE900
:1046100092E00E945E6690937D1680937C161092C5
:10462000971610929616892B89F00E94572C23EC2E
:1046300035EF48E350E40E94A65F87FF07C0109360
:1046400097160093961685E090E004C08EE992E0FC
:104650000E945E6690937D1680937C1640917C1636
:1046600050917D165695542F44275795479560E0F5
:1046700070E08AEA97E20E948D4810929716109295
:10468000961683E891E09983888330C08AEA97E29E
:104690000E94A148892B51F181E090E090939716F8
:1046A0008093961680917C1690917D16892BA1F0AF
:1046B0008BE592E10E940A211092971610929616AD
:1046C000E0917E15F0917F1519950E948914E09173
:1046D0008015F09181151995809180169091811621
:1046E000019690938116809380164CCF81E0DF91E4
:1046F000CF911F910F91FF90EF900895CF93DF938B
:10470000EC0188819981009741F0823B914009F446
:104710005BC01982188283E064C0E0917214F0914A
:10472000731461E070E081E890E01995E09157140E
:10473000F091581461E070E081E890E01995E09103
:104740004614F091471461E070E081E890E019951B
:10475000E0916514F091661461E070E081E890E00A
:1047600019958CE992E00E945E66892B29F48CE908
:1047700092E00E945E660CC00E94572C23EC35EF3D
:1047800048E350E40E94A65F87FFF1CF88E097E0FE
:1047900021E030E03093971620939616AC015695A1
:1047A000542F44275795479560E070E086E897E2DC
:1047B0000E948D48109297161092961682EB91E007
:1047C0009983888381E00DC086E897E20E94A14822
:1047D000892BC1F381E090E0909397168093961611
:1047E000C0CFDF91CF9108950F931F93CF93DF93A5
:1047F000EC0188819981009741F0873E914009F44E
:1048000065C01982188283E091C0E0917214F09122
:10481000731461E070E081E890E01995E09157141D
:10482000F091581461E070E081E890E01995E09112
:104830004614F091471461E070E081E890E019952A
:10484000E0916514F091661461E070E081E890E019
:1048500019958AE992E00E945E6690937B16809398
:104860007A16892B69F00E94572C23EC35EF48E328
:1048700050E40E94A65F87FF03C088E097E004C071
:104880008AE992E00E945E6690937B1680937A1686
:1048900081E090E0909397168093961640917A1657
:1048A00050917B165695542F44275795479560E0B5
:1048B00070E088E395E20E948D481092971610925E
:1048C000961687EE91E09983888306C088E395E287
:1048D0000E94A148892B11F481E028C081E090E07A
:1048E000909397168093961680917A1690917B16E6
:1048F000892B09F4AECF8FE192E10E940A21109238
:1049000097161092961600917E1510917F15F8015A
:104910001995F80119950E94BC1800918015109105
:104920008115F8011995F801199593CFDF91CF9171
:104930001F910F9108950F931F93CF93DF93EC0175
:1049400088819981009741F08A31924009F46AC0C8
:104950001982188283E096C0E0917214F09173146A
:1049600061E070E081E890E01995E0915714F091D2
:10497000581461E070E081E890E01995E0914614E8
:10498000F091471461E070E081E890E01995E091C2
:104990006514F091661461E070E081E890E019958B
:1049A00088E992E00E945E6690937916809378166B
:1049B000892B69F00E94572C23EC35EF48E350E433
:1049C0000E94A65F87FF03C088E097E004C088E9E3
:1049D00092E00E945E66909379168093781681E04B
:1049E00090E0909397168093961688E992E00E9443
:1049F0005E669093791680937816AC015695542F85
:104A000044275795479560E070E088E797E20E9459
:104A10008D4810929716109296168AE192E099832B
:104A2000888306C088E797E20E94A148892B11F489
:104A300081E028C081E090E09093971680939616CD
:104A40008091781690917916892B09F4A9CF81E08D
:104A500092E10E940A2110929716109296160091E8
:104A60007E1510917F15F8011995F80119950E948E
:104A7000D71C0091801510918115F8011995F80146
:104A800019958ECFDF91CF911F910F9108952F929D
:104A90003F924F925F926F927F928F929F92AF92CE
:104AA000BF92CF92DF92EF92FF920F931F93CF931B
:104AB000DF93CDB7DEB7AE970FB6F894DEBF0FBE6B
:104AC000CDBF8BA79CA77EA36DA3122F032F342EDF
:104AD000252E0E944C4780E090E00E941647698393
:104AE0007A838B839C8381E090E00E9416476B0160
:104AF0007C0186E090E00E9416474B015C0187E054
:104B000090E00E9416472B013C012091D028309163
:104B1000D1284091D2285091D3282D833E834F83B2
:104B20005887ACECB8E28D919D910D90BC91A02D71
:104B300089879A87AB87BC878091B0169091B11610
:104B4000A091B216B091B31629813A814B815C8154
:104B5000281B390B4A0B5B0B2D873E874F87588BE1
:104B60008091AC169091AD16A091AE16B091AF1693
:104B7000A7019601281B390B4A0B5B0B298B3A8B3B
:104B80004B8B5C8B8091A8169091A916A091AA16C8
:104B9000B091AB16A5019401281B390B4A0B5B0B96
:104BA0002D8B3E8B4F8B588F8091A4169091A5161C
:104BB000A091A616B091A716A3019201281B390B4C
:104BC0004A0B5B0B298F3A8F4B8F5C8F8091A0161D
:104BD0009091A116A091A216B091A3162D813E81AD
:104BE0004F815885281B390B4A0B5B0B2D8F3E8F4D
:104BF0004F8F58A380919C1690919D16A0919E1660
:104C0000B0919F1629853A854B855C85281B390B09
:104C10004A0B5B0B29A33AA34BA35CA380E090E073
:104C20000E9416476093B0167093B1168093B21627
:104C30009093B31681E090E00E9416476093AC1603
:104C40007093AD168093AE169093AF1686E090E009
:104C50000E9416476093A8167093A9168093AA160F
:104C60009093AB1687E090E00E9416476093A416DD
:104C70007093A5168093A6169093A716ECECF8E215
:104C800080819181A281B38180939C1690939D161F
:104C9000A0939E16B0939F168091D0289091D12812
:104CA000A091D228B091D3288093A0169093A116FA
:104CB000A093A216B093A31687E090E00E94164737
:104CC00086E090E00E941647F0919816F8A7209190
:104CD000991629A730919A163AA740919B164EA78C
:104CE000E1E1F9E251815FA380818DA70E94213D1E
:104CF000ACA1AF93BBA1BF93EAA1EF93F9A1FF933E
:104D000028A12F933F8D3F934E8D4F935D8D5F93E1
:104D1000AC8DAF93BB8DBF93EA8DEF93F98DFF936D
:104D2000288D2F933F893F934E894F935D895F93E1
:104D3000AC89AF93BB89BF93EA89EF93F989FF935D
:104D400028892F933F853F934E854F935D855F93D1
:104D5000AC85AF93BB85BF93EA85EF93F985FF934D
:104D600028852F933F813F934E814F935D815F93C1
:104D70007F926F925F924F92BF92AF929F928F926B
:104D8000FF92EF92DF92CF92AC81AF93BB81BF9342
:104D9000EA81EF93F981FF932EA52F933AA53F93D4
:104DA00049A54F9358A55F931F92AFA1AF931F9250
:104DB000BDA5BF939F938F937F936F93ECA5EF93C4
:104DC000FBA5FF938FEB92E19F938F930E94366533
:104DD00029E03DE3ADA1BEA10E94BC610E945360E9
:104DE0006B017C010FB6F894DEBF0FBECDBF2F92D2
:104DF0003F920F931F93698D7A8D8B8D9C8D0E94AE
:104E0000536026E636E646E651E40E940561812EAF
:104E1000902EA32CB22C9401A5010E940561A7013C
:104E200096010E94AB5F9F938F937F936F936D89E1
:104E30007E898F89988D0E9453602AE939E941E281
:104E400051E40E940561212F302F432D522D0E94E5
:104E50000561A70196010E94AB5F9F938F937F939B
:104E60006F9369897A898B899C890E9453602AE9AA
:104E700039E949E050E40E940561212F302F432D8C
:104E8000522D0E940561A70196010E94AB5F9F937E
:104E90008F937F936F936D857E858F8598890E9410
:104EA000536020E030E040E950E40E940561212F8A
:104EB000302F432D522D0E940561A70196010E94BB
:104EC000AB5F9F938F937F936F9383E893E19F935F
:104ED0008F930E9436658091981690919916A091B3
:104EE0009A16B0919B160196A11DB11D809398163C
:104EF00090939916A0939A16B0939B160FB6F894B8
:104F0000DEBF0FBECDBFAE960FB6F894DEBF0FBEAC
:104F1000CDBFDF91CF911F910F91FF90EF90DF9068
:104F2000CF90BF90AF909F908F907F906F905F9049
:104F30004F903F902F900895E6E4F1E0908120811A
:104F400080813081492F407C932F9295969596953C
:104F50009370940F269526952073920F82958C70EE
:104F6000890F0895CF93C82F81EC93E19F938F937E
:104F70000E9436650F900F90C0FF04C08EEC93E145
:104F80000E947865C1FF04C08DED93E10E947865B1
:104F9000C2FF04C08CEE93E10E947865C3FF04C099
:104FA0008BEF93E10E947865C4FF05C08AE094E12D
:104FB000CF910C947865CF9108958F929F92AF9284
:104FC000BF92CF92DF92EF92FF920F931F93CF93F6
:104FD000DF93CDB7DEB72A970FB6F894DEBF0FBECA
:104FE000CDBF0E94A53E0E94B43E0E94B42B46E075
:104FF00069E180E00E94473E80E00E949C3E0E9462
:105000000D3D60EA76E881E090E00E94662AEDE1DD
:10501000F9E222E432E4318320833A968DB79EB7D9
:105020000A97E817F907B8F38DEA94E09F938F93F6
:105030000E944A658EB30E94B2270E94364A0E949F
:10504000004780919400909195009093B5288093AB
:10505000B42881E08093A8280E94784960E070E03D
:1050600088EC92E00E94094A0E94A3460E94634B8A
:105070006FE37BE480E00E948E3EE0916E15F0913C
:105080006F1519950E949C2790E00E94C13E85E112
:1050900094E19F938F930E9436650E94702B8093BA
:1050A000CE279093CF270F900F900F900F9080FFF7
:1050B00019C061E0CE0101960E94652BCE010196D8
:1050C0000E943C4F8A81082E000C990B982F88274C
:1050D0002885820F911D27FD9A959093C72780936D
:1050E000C62717C08BE194E10E9478658CEF898315
:1050F00082EC8A838DE38B831C821D821E828091C9
:10510000C6279091C7279F838887CE0101960E946A
:105110003C4F0E943B2A8C010E94372AAE01475F18
:105120005F4FB8010E941B420E94A9290E949D4125
:105130000E943F2A0E94614380EA94E09F938F93EC
:105140000E944A658A81898788858A871F928F9302
:105150000CE914E01F930F930E944A6589851F9202
:105160008F931F930F930E944A658AE994E09F935F
:105170008F930E944A650E94E74DE091E615F091F9
:10518000E7151995E091D015F091D1151995E09199
:10519000C215F091C31519950E946343882E0091A2
:1051A000F2151091F315F80119950FB6F894DEBFBA
:1051B0000FBECDBF892B51F0F8011995BC0180E8D5
:1051C00090E00E947E61162F072F02C010E800E0D9
:1051D0000E949A41982EB090C015A090C115D09011
:1051E000E415C090E515F090CE15E090CF150E9423
:1051F000F23F1F928F920F931F931F929F92AF9235
:10520000BF92CF92DF92EF92FF929F938F9386E4AB
:1052100094E09F938F930E944A6585E394E09F9367
:105220008F930E944A6589EA92E10E94F1468DE2DD
:1052300094E09F938F930E944A6588EE93E0909349
:10524000C5278093C42784E00E94AA2B0FB6F89448
:10525000DEBF0FBECDBF2A960FB6F894DEBF0FBEDD
:10526000CDBFDF91CF911F910F91FF90EF90DF9015
:10527000CF90BF90AF909F908F9008950E94DD27B0
:10528000C0E1D4E00E9488490E94BF3E8091C427BB
:105290009091C527009751F001979093C52780936F
:1052A000C427892B19F484E00E94AF2B8091C82772
:1052B0009091C927009751F001979093C927809347
:1052C000C827892B19F482E00E94AF2B84E00E944A
:1052D000AF2B82E00E94AF2B0E943B3D0091CA277A
:1052E0001091CB272091CC273091CD2760177107E3
:1052F0008207930739F20E943B3D6093CA2770935F
:10530000CB278093CC279093CD27DC01CB019370E2
:10531000AA27BB270397A105B10509F0B3CFEDE19B
:10532000F9E2808191818234924469F0ED51F94231
:10533000FF93EF93DF93CF930E944A650F900F90F6
:105340000F900F909FCF3A96E53F81E8F80748F31A
:1053500099CFEF92FF920F931F93CF93DF93CDB727
:10536000DEB7A0970FB6F894DEBF0FBECDBF89EAB7
:1053700092E00E945E66182F282F35EF380F3031EB
:1053800008F0982F9095291709F463C089EE94E0EE
:105390009F938F930E944A65EEE2F5E08E010F5FC6
:1053A0001F4FCE0109960F900F90D80178012491DC
:1053B0002D933196A817B907D1F7F89448E050E03B
:1053C00065EC72E0C8010E948C66E0E2F5E0CE0177
:1053D0000F96D80124912D933196A817B907D1F7CC
:1053E0004EE050E067EB72E0C8010E948C66E6E197
:1053F000F5E0CE010B962491D8012D938D013196C5
:10540000A817B907C1F74AE050E06DEA72E0C7019A
:105410000E948C666DEC7BEA87EA92E00E94A466AB
:1054200060E070E085EA92E00E94A46660E084EAB1
:1054300092E00E94966660E070E08BEA92E00E9443
:10544000A4661AE16AE175EE89EA92E00E94A46618
:105450007894812FA0960FB6F894DEBF0FBECDBF13
:10546000DF91CF911F910F91FF90EF90089587EA00
:1054700092E00C945E6685EA92E00C945E6684EAA3
:1054800092E00C9456662FE130E08BE59EE041E916
:1054900051E020935101FA013197F1F760915101E8
:1054A00065FD0DC02031310521F02CF08B549109A0
:1054B00003C084EC99E0C29721503109EACF0895E6
:1054C00080E090E0089581E090E008959B01AC01B8
:1054D0001092B90060E074E284EF90E00E94926163
:1054E000DA01C9014097A109B109B695A795979529
:1054F00087958093B800089594EA9093BC0040EAA1
:1055000056E861E070E09091BC0097FD07C0415003
:10551000510961097109B9F781E008959091B900C5
:10552000987F983011F09031B9F78093BB0084E8F0
:105530008093BC0080EA96E8A1E0B0E02091BC0036
:1055400027FD05C00197A109B109C1F7E5CF8091F9
:10555000B900887F883111F08034F1F680E0089539
:1055600024EA34E844E92093BC009091BC0097FF02
:10557000FCCF9091B900987F983011F0903199F755
:105580008093BB003093BC009091BC0097FFFCCF90
:105590009091B900987F903211F0983539F440938A
:1055A000BC009091BC0094FDFCCFDDCF089584E950
:1055B0008093BC008091BC0084FDFCCF0895809353
:1055C000BB0084E88093BC008091BC0087FFFCCFC7
:1055D0009091B900987F81E0983209F480E00895B5
:1055E000CF93C82F8CEE0E947C2A811103C08C2F90
:1055F0000E94DF2ACF910C94D72A8093BB0084E8C5
:105600008093BC008091BC0087FFFCCF0895CF93AE
:10561000DF93D62FC42F0E947C2A8D2F0E94FD2A53
:105620008C2F0E94FD2ADF91CF910C94D72A84EC15
:105630008093BC008091BC0087FFFCCF8091BB00B1
:10564000089584E88093BC008091BC0087FFFCCF64
:105650008091BB000895CF92DF92EF92FF920F935B
:105660001F93CF93DF93C82FD62FF42E152F022F21
:105670000E947C2A8D2F0E94FD2A8C2F81600E941F
:105680007C2ACF2DD12F10E0E12CF12C680181E094
:10569000C81AD108E016F10671F0CE14DF0419F42F
:1056A0000E94212B02C00E94172B88838FEFE81ADB
:1056B000F80A2196EFCFDF91CF911F910F91FF90C4
:1056C000EF90DF90CF900C94D72AAC01662319F0AD
:1056D00028E068E902C020E160E880EB0C942B2B05
:1056E000CF93DF930E94BF3E80EB0E947C2A811102
:1056F00005C00E94D72AC1E0D0E002C0C0E0D0E0DF
:105700000E94BF3E80E80E947C2A811103C00E9453
:10571000D72AC2608CEE0E947C2A811103C00E94AD
:10572000D72AC8600E94BF3E82ED0E947C2A811168
:1057300003C00E94D72AC4600E94BF3E80ED0E9431
:105740007C2A811103C00E94D72AC061CE01DF915B
:10575000CF91089581FD739882FD7498089581FD1D
:10576000739A82FD749A08956C9A6B9A87E00C94F0
:10577000AF2B80917B00886080937B0089EC8093C5
:105780007C0085E080937A0080917A008068809325
:105790007A0080917B0087FFFCCF80917B0085FFA2
:1057A000FCCF80917A00806480937A0080917A00A7
:1057B00086FDFCCF80917A00806480937A0080918E
:1057C0007A0086FDFCCF609178007091790080911D
:1057D0007A008F7780937A0080E090E00E94536097
:1057E00027ED33EA40E95FE30E94056126E636E6ED
:1057F00048E853E40E94395F20E030E040E251E4A1
:105800000E9405610E941D60CB01089580E090E038
:10581000089581E090E0089580937C0080917B0062
:10582000877F80937B0080917C00806C80937C00DC
:1058300085E080937A0080917A00806880937A0076
:1058400080917B0087FFFCCF80917B0085FFFCCFA0
:1058500080917A00806480937A0080917A0086FD3E
:10586000FCCF109279001092780024E030E080E0C4
:1058700090E040917A00406440937A0040917A0031
:1058800046FDFCCF4091780050917900840F951F20
:105890002150310971F710927C0020917A002F7706
:1058A00020937A009695879596958795089580E040
:1058B0000E940C2CBC0180E090E00E94536027ED18
:1058C00034E34FEE5CE30E94056121EE3AE744E9E0
:1058D0005EE30E943A5F089581E00E940C2CBC01B7
:1058E00080E090E00E94536022E23FEF4CEC5BE3EB
:1058F0000E940561089582E00E940C2CBC0180E0AA
:1059000090E00E94536022E23FEF4CEC5BE30E9488
:105910000561089580E090E00895009719F4809162
:10592000D02705C08130910521F48091D12790E0E6
:105930000895029729F48091B4169091B5160895B0
:105940008FEF9FEF089552985A981DBAE9E6F0E05C
:10595000808180628083EA9A53985B98EB9A808179
:1059600080688083E8E6F0E080818160808380E069
:1059700090E008951F920F920FB60F9211248F930B
:105980009F938091680080FF0EC08091D0278F5F29
:105990008093D0278091B4169091B516019690937C
:1059A000B5168093B4169F918F910F900FBE0F90F4
:1059B0001F9018951F920F920FB60F9211248F937C
:1059C0008091680080FF05C08091D1278F5F809310
:1059D000D1278F910F900FBE0F901F90189581E0E7
:1059E00090E008955F98579A80EE91E00E94553DAF
:1059F000579880E490E00E94553D4F9909C08CE291
:105A000091E00E94553D89B1881F8827881F08951D
:105A100080E008950E94F22C80E090E00895CF93FA
:105A2000C82F579A5F9882E090E00E94553DCC23A2
:105A300011F057985F9A8CE390E00E94553D5F9A71
:105A4000579882E090E0CF910C94553DCF93579AB0
:105A50005F9882E090E00E94553D57985F9A8CE0F5
:105A600090E00E94553DC9B182E390E00E94553D0F
:105A70005F9A579882E090E00E94553D8C2F881FD6
:105A80008827881FCF9108951F93CF93DF93C0E09D
:105A9000D0E010E00E94262D0C2E01C0880F0A9441
:105AA000EAF7180F2196C830D105A1F7812FDF91B1
:105AB000CF911F9108950F931F93CF93DF93C0E071
:105AC000D0E0082F10E0C8010C2E02C095958795F4
:105AD0000A94E2F781700E940F2D2196C830D105FB
