:100000000C949B020C94BC020C94BC020C94F02C3B
:100010000C94102D0C94BC020C94BC020C94BC02E9
:100020000C94BC020C94BC020C94BC020C94BC0258
:100030000C94BC020C94A73D0C94BC020C94BC0222
:100040000C94BC020C94BC020C94BC020C94BC0238
:100050000C94BC020C94BC020C94BC020C94BC0228
:100060000C94BC020C94293E0C94BC020C94BC026F
:100070000C94BC020C94BC020C94BC020C94BC0208
:100080000C94AD520C94BC020C94BC020C94BC02B7
:100090000C94583E0C94BC020C94BC020C94BC0210
:1000A0000C94BC020C94BC020C94BC020C94BC02D8
:1000B0000C94BC020C94BC020C94BC020C94BC02C8
:1000C0000C94BC020C94BC020C94BC020C94BC02B8
:1000D0000C94BC020C94BC020C94BC020C94BC02A8
:1000E0000C94BC020C9467460C945D460C94134629
:1000F0000C94DB450C9471460C9453460C94474683
:100100000C943B460C94BC020C94BC020C94BC02B4
:100110000C94BC020C94BC020C94BC020C94BC0267
:100120000C94BC020C94BC020C94BC020C94BC0257
:100130000C94BC02F94105420E421342184253424C
:100140005642534269452A452D4530453745694554
:100150005145694555452745274527452745584574
:100160005B455E4563450C94564C0C948B530C9444
:1001700069450C94874F0C94833C0C9413420C9467
:10018000FF4D0C945B450C94DB530C947D560C9402
:10019000EB410C947B4D0C94343F0C9481560C94A1
:1001A00058450C9430450C9427250C94342E0C940F
:1001B0005E450C94A74C0C94814F0C94B6530C9450
:1001C000E44A0C94772A0C9422540C9451040C9415
:1001D0004A4C0C94C8030C942B130C94D92C0C94FB
:1001E00006400C94A0410C9451450C9455450C9438
:1001F000914D0C94A13B0C948B230C94C93A0C9414
:1002000056420C947D460C947F4B0C9437450C94CD
:10021000F9410C9418420C94AF430C94ED2B0C94C0
:1002200022570C9414040C943D2C0C942A450C94E5
:10023000572E0C9405420C9448580C94AA2E0C94FA
:10024000C43C0C94AE420C940D4E0C94884D0C940E
:10025000804D0C9416450C94053F0C94863C0C94F0
:10026000A3560C94BE020C94894D0C94714D0C94C1
:1002700063450C94F64C0C94F7420C94BE3C0C94E1
:10028000FB3F0C94B1240C94472F0C9465550C94AF
:10029000014E0C94402D0C948E4D0C94764D0C9484
:1002A000252D0C940E420C9465540C94CC3A0C946D
:1002B000942A0C94BE2C0C9453420C9427450C9415
:1002C00019400C94DE400C94803C0C94824F0C94AA
:1002D000DF4D0C94D9440C943A2C0C94B93E0C94F8
:1002E000D04C0C94854D0C94E7400C941B480C9416
:1002F000CE250C94000A0C94972A0C94C3020C94FB
:10030000C12C0C94C13C0C942D450C94083F6E619B
:100310006E00696E660000407A10F35A00A0724EBB
:1003200018090010A5D4E80000E87648170000E49A
:100330000B54020000CA9A3B000000E1F5050000E2
:1003400080969800000040420F000000A086010047
:100350000000102700000000E80300000000640017
:10036000000000000A000000000001000000000082
:100370002C76D888DC674F0823DFC1DFAE59E1B1A6
:10038000B796E5E3E453C63AE651997696E8E6C2B5
:100390008426EB898C9B62ED407C6FFCEFBC9C9FBC
:1003A00040F2BAA56FA5F490055A2AF75C936B6CDE
:1003B000F9676DC11BFCE0E40D47FEF520E6B500D2
:1003C000D0ED902E0300943577050080841E080040
:1003D00000204E0A000000C80C333333330F986EF0
:1003E00012831141EF8D2114893BE65516CFFEE6AD
:1003F000DB18D1844B381BF77C1D901DA4BBE42473
:10040000203284725E228100C9F124ECA1E53D27EF
:100410004E657665722D7573656420737461636BC8
:10042000203E2025642062797465730A004F6E6C4B
:10043000696E650A00526F7574696E6720456E615A
:10044000626C65640A0050414E3D307825582C207E
:100450004D41433D25732C205244433D25732C20B0
:100460004E4554574F524B3D25732C206368616EA7
:100470006E656C3D252D752C20636865636B2D7250
:100480006174652D487A3D252D752C2074782D706A
:100490006F7765723D252D750A000A0025783A00B0
:1004A0004D4143206164647265737320000A2A2AF7
:1004B0002A2A2A2A2A20426F6F74696E67205749B8
:1004C0004D45412D494354204150504C49434154DE
:1004D000494F4E2056455253494F4E20322E31201F
:1004E0002A2A2A2A2A2A2A0A00454550524F4D20F4
:1004F000697320636F72727570742C2072657772E5
:100500006974696E672077697468206465666175CF
:100510006C74732E0A006C6F63616C686F73740087
:1005200041544D4547413235367266723200020001
:1005300000FFFE00000111241FBECFEFD1E8DEBF97
:10054000CDBF00E00CBF15E1A0E0B2E0E2E3FEECBD
:1005500000E00BBF02C007900D92AE3AB107D9F789
:1005600028E2AEEAB5E101C01D92A13BB207E1F776
:100570000E9472290C9417670C940000FC011182F0
:10058000108283E00895AF92BF92CF92DF92EF92F4
:10059000FF920F931F93CF93DF93CDB7DEB7C1596F
:1005A000D1090FB6F894DEBF0FBECDBF6C01162F78
:1005B000B42EA52E633821F487E196E10E94984C71
:1005C000F60180819181009741F081349340E9F0F8
:1005D000F6011182108283E0C9C044E353E161E86F
:1005E00070E087E196E10E947D4CE0911115F09159
:1005F00012156AE170E081E090E0199581E493E0E2
:10060000F6019183808381E0B1C01538E1F7F89459
:100610004CE050E06CE872E0CE0186589F4F0E949B
:100620008D667894EB2DFA2DDF010D900020E9F70F
:1006300011977D01EE1AFF0A8E010A571F4F4CE0F9
:1006400050E0BE0166587F4FC8010E94D5641F93D9
:100650000F9389E193E09F938F931F928EE18F9385
:10066000035811091F930F930E94EF65F82EAF9264
:10067000BF92809135271F928F93809134271F92CC
:100680008F93809133271F928F93809132271F92EF
:100690008F93809131271F928F93809130271F92E3
:1006A0008F9380912F271F928F9380912E271F92D7
:1006B0008F9385E293E09F938F9389E18E0D1F9234
:1006C0008F93C8018F0D911D9F938F930E94EF65AB
:1006D0008F0DEE24E394E80EF801E80FF11D10826F
:1006E0000FB6F894DEBF0FBECDBFC8010E94BF6534
:1006F00080910A0280618983809116168A83A09076
:100700000D15B0900E15F5011995F5011995F12CFF
:10071000B7016E5F7F4FCE0101960E940C4F87E1BB
:1007200096E10E949A4CF5011995F5011995809171
:1007300016168F5F809316168DE493E09F938F9328
:100740001F9282E08F93E00EF11EFF92EF920E94C3
:10075000EF65A80165E881E592E00E943A4A0F90B2
:100760000F900F900F900F900F9048CFCF56DF4F04
:100770000FB6F894DEBF0FBECDBFDF91CF911F91B2
:100780000F91FF90EF90DF90CF90BF90AF900895C2
:100790000F931F93CF93DF938B010E94B24EEC0116
:1007A00084E00E944A4F909339278093382783E052
:1007B0000E944A4F809352279093532721E030E0C4
:1007C00030932B1620932A1629811F922F9328816C
:1007D0002F701F922F939F938F93809139278F9320
:1007E000809138278F93F80181811F928F938081A8
:1007F0001F928F932296DF93CF9380E593E09F9390
:100800008F930E947D6510922B1610922A16EDB7D9
:10081000FEB770960FB6F894FEBF0FBEEDBFDF9126
:10082000CF911F910F910895CF93DF93FC01208109
:1008300031812115310551F0243E374029F0FC016A
:100840001182108283E02AC0653839F5EC010E94DC
:10085000FF3E80912A1690912B16892B21F083B7A9
:10086000817F866002C083B7817F83BFF89483B79E
:10087000816083BF7894889583B78E7F83BF789497
:1008800040E050E065E880919117909192170E94A6
:100890001D4A84EE97E09983888381E0DF91CF91B0
:1008A0000895AF92BF92CF92DF92EF92FF920F9393
:1008B0001F93CF93DF93CDB7DEB7C456D1090FB6E0
:1008C000F894DEBF0FBECDBF6C01FC018081918129
:1008D000009749F0803E910509F466C0F601118247
:1008E000108283E01AC181E090E090932B168093F0
:1008F0002A1640E05AE560E070E08EEF95E10E9434
:10090000CD481092FD151092FC158091FC15909128
:10091000FD15029774F700910D1510910E15F80151
:1009200019958091FC159091FD15892B19F480E0A3
:1009300090E002C08FEF90E00E947A418FE090E05B
:100940009093FB158093FA15E0900B15F0900C1521
:100950008091FA159091FB1597FD12C0F70119953A
:100960008091FA159091FB150E94A1438091FA1590
:100970009091FB1501979093FB158093FA15E8CFA2
:10098000F80119958091FC159091FD15019709F0DA
:10099000BAC010922B1610922A1680EE90E0F60143
:1009A0009183808381E0B9C08EEF95E10E94E14898
:1009B000892BC1F3AA24A394B12CB0922B16A09238
:1009C0002A168091F8159091F91501969093F915D2
:1009D0008093F815449709F092C00E948B2C9B01DC
:1009E000AC0160E17EE08BEC9BE00E947A268C01FA
:1009F0006EE773E0CE0101960E94CE6487E1F82E87
:100A0000F80183818F9382818F9381818F9380817D
:100A10008F9386E993E09F938F931F928DE08F933E
:100A200081E090E08C0F9D1F8F0D911D9F938F9300
:100A30000E94EF65F80EF80183858F9382858F936E
:100A400081858F9380858F9384EA93E09F938F9322
:100A50001F9292E1E92EEF9281E090E08C0F9D1FB2
:100A60008F0D911D9F938F930E94EF65F80EF801F3
:100A700087858F9386858F9385858F9384858F93C4
:100A800085EB93E09F938F931F92EF9281E090E02C
:100A90008C0F9D1F8F0D911D9F938F930E94EF656B
:100AA0008F0DE1E0F0E0EC0FFD1FE80FF11D10826B
:100AB00010922B1610922A16E0910B15F0910C153E
:100AC0001995AE014F5F5F4F65E883E892E00E94A1
:100AD0003A4AE0910D15F0910E1519951092F915FD
:100AE0001092F815B0922B16A0922A168EEF95E16F
:100AF0000E94D7480FB6F894DEBF0FBECDBF8EEF71
:100B000095E10E94D7488091FC159091FD150196C2
:100B10009093FD158093FC15F8CECC59DF4F0FB69E
:100B2000F894DEBF0FBECDBFDF91CF911F910F9123
:100B3000FF90EF90DF90CF90BF90AF900895F89422
:100B40004CE050E060E872E08CEB95E10E948D662D
:100B500078948CEB95E108954F925F926F927F921B
:100B60008F929F92AF92BF92CF92DF92EF92FF92BD
:100B7000CF93DF9380916A2782FF7CC0C0910914D4
:100B8000D0910A148BE090E0FE0119957C018AE077
:100B900090E0FE0119954C0189E090E0FE01199565
:100BA000092C000CAA08BB0825E1880C991CAA1C7A
:100BB000BB1C2A95D1F7092E000CAA0BBB0BDC013C
:100BC0009927882724013501482A592A6A2A7B2A2D
:100BD00088E090E0FE0119954C01990FAA08BB0826
:100BE0004BE0880C991CAA1CBB1C4A95D1F78428A1
:100BF0009528A628B72887E090E0FE01199567019F
:100C0000FCEBCF1AF7E0DF0A0D2C000CEE08FF0812
:100C1000B701A601E9E1440F551F661F771FEA954A
:100C2000D1F76C01990FEE08FF08F5E0CC0CDD1C44
:100C3000EE1CFF1CFA95D1F7C828D928EA28FB2812
:100C4000C42AD52AE62AF72A86E090E0FE01199503
:100C5000092E000CAA0BBB0BC2E0B695A795979581
:100C60008795CA95D1F7BC01CD016C297D298E29C4
:100C70009F2904C060E070E081E29AE4DF91CF91A7
:100C8000FF90EF90DF90CF90BF90AF909F908F90AC
:100C90007F906F905F904F90089584EC93E00E9456
:100CA000BF6583E094E00E94BF658DE394E09F936D
:100CB0008F930E947D658CE694E09F938F930E94B2
:100CC0007D658FE894E09F938F930E947D6580EB14
:100CD00094E09F938F930E947D6580EE94E09F93B4
:100CE0008F930E947D6588E095E09F938F930E948B
:100CF0007D6585E495E09F938F930E947D6588E8EC
:100D000095E09F938F930E947D6589EA95E09F937C
:100D10008F930E947D6583EF95E09F938F930E9450
:100D20007D658BE396E09F938F930E947D65809114
:100D30006A272DB73EB72A5E3F4F0FB6F8943EBFE5
:100D40000FBE2DBF82FF1AC081E090E090932B165A
:100D500080932A168FE896E09F938F930E947D657B
:100D600086ED96E09F938F930E947D6510922B16DF
:100D700010922A160F900F900F900F908AE090E03B
:100D80000E94B9658DE197E00C94BF65CF92DF9228
:100D9000EF92FF920F931F93CF93DF93F8948EE916
:100DA00092E00E94A566D82EC92E8CE992E00E949E
:100DB000A566F82EE92E8AE992E00E94A566182F12
:100DC000092F88E992E00E94A566EC0178948EE5EF
:100DD00097E00E94BF65CF92DF928DE797E09F93E7
:100DE0008F930E947D65EF92FF928CE897E09F932E
:100DF0008F930E947D650F931F938BE997E09F93DC
:100E00008F930E947D65DF93CF938AEA97E09F934B
:100E10008F930E947D658DB79EB740960FB6F8946C
:100E20009EBF0FBE8DBFDF91CF911F910F91FF909D
:100E3000EF90DF90CF900895CF92DF92EF92FF92E4
:100E40000F931F93CF93DF936C01F8948EE992E098
:100E50000E94A566F82EE92E8CE992E00E94A56614
:100E6000182F092F8AE992E00E94A566EC0188E913
:100E700092E00E94A5667894F6012081203329F43F
:100E8000EF92FF9289EB97E012C0213329F40F9380
:100E90001F938CED97E00BC0223329F4DF93CF939F
:100EA0008FEF97E004C09F938F9382E298E09F9327
:100EB0008F930E947D650F900F900F900F90DF91A0
:100EC000CF911F910F91FF90EF90DF90CF900895F9
:100ED000EF92FF920F931F93CF93DF938C017B01CF
:100EE0000E949863EC01892B49F4F80180818033DA
:100EF00029F41F930F9385E498E037C0F7018081B0
:100F0000803361F4F894BE018EE992E00E94CD66D0
:100F10007894DF93CF938EE998E027C0813361F412
:100F2000F894BE018CE992E00E94CD667894DF933C
:100F3000CF938FEB98E019C0823361F4F894BE012F
:100F40008AE992E00E94CD667894DF93CF9380EE99
:100F500098E00BC0F894BE0188E992E00E94CD664B
:100F60007894DF93CF9381E099E09F938F930E94D1
:100F70007D650F900F900F900F90DF91CF911F9193
:100F80000F91FF90EF9008958F929F92AF92BF9232
:100F9000CF92DF92EF92FF920E947B3D6B017C012A
:100FA0008CE3882E912CA12CB12CC701B601A50190
:100FB00094010E94D2619F938F937F936F93CA0194
:100FC000B901A50194010E94D2619F938F937F93F1
:100FD0006F93C701B60120E13EE040E050E00E947F
:100FE000D261CA01B90128E130E040E050E00E943E
:100FF000D2619F938F937F936F93C701B60120E8CF
:1010000031E541E050E00E94D2615F934F933F93FE
:101010002F9382E299E09F938F930E947D658DB715
:101020009EB742960FB6F8949EBF0FBE8DBFFF903D
:10103000EF90DF90CF90BF90AF909F908F900895EA
:101040000F931F93CF93DF93CDB7DEB72C970FB6D7
:10105000F894DEBF0FBECDBF4CE050E0BC018E0166
:101060000F5F1F4FC8010E94D564F8944CE050E018
:101070006CE872E0C8010E94AB6661E070E080E15C
:1010800090E00E94CD6678941F930F9387E699E0D5
:101090009F938F930E947D650F900F900F900F90FC
:1010A0002C960FB6F894DEBF0FBECDBFDF91CF9167
:1010B0001F910F9108950F931F93CF93DF93CDB797
:1010C000DEB72C970FB6F894DEBF0FBECDBFF894F5
:1010D00080E190E00E94A566019729F080E899E000
:1010E0000E94BF6516C04CE050E06CE872E08E01D3
:1010F0000F5F1F4FC8010E948D661F930F9383E9F6
:1011000099E09F938F930E947D650F900F900F90B1
:101110000F9078942C960FB6F894DEBF0FBECDBF1B
:10112000DF91CF911F910F910895EF92FF920F934E
:101130001F93CF93DF93C0910914D0910A1486E0D6
:1011400090E0FE011995F82EE92E87E090E0FE016F
:101150001995182F092F88E090E0FE011995EF925C
:10116000FF920F931F939F938F9383EA99E09F932E
:101170008F931F928FE08F9387ED95E19F938F93CD
:101180000E94EF658DB79EB70C960FB6F8949EBF80
:101190000FBE8DBF87ED95E1DF91CF911F910F912C
:1011A000FF90EF900895EF92FF920F931F93CF93CC
:1011B000DF93C0910914D0910A148BE090E0FE01F6
:1011C0001995F82EE92E8AE090E0FE011995182F66
:1011D000092F89E090E0FE011995EF92FF920F939D
:1011E0001F939F938F9382EB99E09F938F931F920E
:1011F0008FE08F9388EC95E19F938F930E94EF652A
:101200008DB79EB70C960FB6F8949EBF0FBE8DBFDC
:1012100088EC95E1DF91CF911F910F91FF90EF90B6
:101220000895CF92DF92EF92FF920F931F93CF9387
:10123000DF93CDB7DEB72C970FB6F894DEBF0FBEA5
:10124000CDBFD82EC92E162F49E050E0682F792F38
:10125000CE0101960E94D564CE010D967C0111113C
:1012600048C061EC79E00C970E94A2648E01065F91
:101270001F4F009779F0E016F10661F00E94986325
:10128000F80181938F0161EC79E080E090E00E94A9
:10129000A264EFCF6A858FEF860F8F3128F0CF924F
:1012A000DF9283EC99E069C0EB848FEF8E0D8C3078
:1012B000B0F7FC84F3E6FF1594F300910B14109142
:1012C0000C1470E083E090E0F80119956E2D70E049
:1012D00084E090E0F80119956F2D70E085E090E0D2
:1012E000F80119950E94D3089F938F938AEF99E094
:1012F00044C068E07AE0CE0101960E94A2648E01AB
:10130000065F1F4F009779F00E151F0561F00E94D0
:101310009863F80181938F0168E07AE080E090E0C3
:101320000E94A264EFCF6A85693128F0CF92DF92E4
:101330008AE09AE022C0EB84FCE3FE15B8F3FC845B
:10134000FF15A0F300910B1410910C1470E082E0D3
:1013500090E0F80119956E2D70E081E090E0F801C1
:1013600019956F2D70E080E090E0F80119950E94CA
:1013700095089F938F9381E49AE09F938F930E94A7
:101380007D650F900F900F900F902C960FB6F894EC
:10139000DEBF0FBECDBFDF91CF911F910F91FF90A8
:1013A000EF90DF90CF900895F89444E650E06CEA17
:1013B00071E08BE092E00E94AB6678940895F89417
:1013C00044E650E068E471E08BE092E00E94AB6696
:1013D00078940895F89444E650E064EE70E08BE071
:1013E00092E00E94AB6678940895F89444E650E049
:1013F00060E870E08BE092E00E94AB66789408951C
:101400002F923F924F925F926F927F928F929F9214
:10141000AF92BF92CF92DF92EF92FF920F931F9302
:10142000CF93DF93CDB7DEB76E970FB6F894DEBFDC
:101430000FBECDBF9A8F898F85E0EFE4FAE0DE0121
:101440001D9601900D928A95E1F787E0FE01729654
:10145000DF01982F1D929A95E9F795E0E4E5FAE00F
:10146000DE01119601900D929A95E1F7FE013696F4
:10147000DF011D928A95E9F7109227161092261621
:1014800010922516109224161092231610922216EE
:1014900010922B1610922A16E98DFA8D8081918177
:1014A000892B09F047C161E08EE297E20E94992BF7
:1014B000F89481E090E090932B1680932A168AE1AD
:1014C00090E00E94A5664C01609126167091271647
:1014D00084E090E00E94CD666091241670912516FC
:1014E00082E090E00E94CD666091221670912316F2
:1014F00080E090E00E94CD6688E190E00E94A566C1
:101500005C0186E190E00E94A5666C0184E190E0B8
:101510000E94A5667C0182E190E00E94A5668C0194
:101520008EE090E00E94A5663C018CE090E00E9475
:10153000A5662C018AE090E00E94A5661C0188E067
:1015400090E00E94A5669C8F8B8F86E090E00E94C1
:10155000A5669E8F8D8F8A94892891F08CE390E008
:1015600090932127809320276CE370E082EA92E039
:101570000E94CD6661E070E08AE190E00E94CD6655
:10158000AA94AB2891F08CE390E09093212780936C
:1015900020276CE370E08EE992E00E94CD6661E066
:1015A00070E088E190E00E94CD66CA94CD2881F079
:1015B000109221271092202760E070E08CE992E0E1
:1015C0000E94CD6661E070E086E190E00E94CD6609
:1015D000EA94EF2881F0109221271092202760E0F2
:1015E00070E08AE992E00E94CD6661E070E084E1FB
:1015F00090E00E94CD660130110581F01092212704
:101600001092202760E070E088E992E00E94CD66A9
:1016100061E070E082E190E00E94CD666A94672804
:10162000B1F061E070E08EE090E00E94CD664CE0A9
:1016300050E060E872E0CE010D960E94AB664CE08F
:1016400050E064E772E0CE0101960E94AB664A94D6
:101650004528C1F00E94D40961E070E08CE090E080
:101660000E94CD664CE050E060E872E0CE010D963D
:101670000E94AB664CE050E064E772E0CE01019658
:101680000E94AB662A942328C1F00E94DF0961E022
:1016900070E08AE090E00E94CD664CE050E060E8A7
:1016A00072E0CE010D960E94AB664CE050E064E71C
:1016B00072E0CE0101960E94AB668B8D9C8D0197E6
:1016C000C1F00E94EA0961E070E088E090E00E94C9
:1016D000CD664CE050E060E872E0CE010D960E94CD
:1016E000AB664CE050E064E772E0CE0101960E94E8
:1016F000AB66AD8DBE8D1197C1F00E94F50961E01A
:1017000070E086E090E00E94CD664CE050E060E83A
:1017100072E0CE010D960E94AB664CE050E064E7AB
:1017200072E0CE0101960E94AB6610922B161092C9
:101730002A167894E98DFA8D1182108283E06E96D4
:101740000FB6F894DEBF0FBECDBFDF91CF911F91D2
:101750000F91FF90EF90DF90CF90BF90AF909F9050
:101760008F907F906F905F904F903F902F90089553
:10177000AF92BF92CF92DF92EF92FF920F931F939F
:10178000CF93DF93CDB7DEB7C059D1400FB6F894F1
:10179000DEBF0FBECDBFF8946E0183EDC81A8EEF89
:1017A000D80A44E650E06CEA71E0C6010E948D66FA
:1017B0007E0199ECE90EF11C44E650E068E471E02A
:1017C000C7010E948D668E010B591F4F44E650E001
:1017D00064EE70E0C8010E948D6644E650E060E867
:1017E00070E0CE0101965C010E948D667894DF92D4
:1017F000CF9289E59AE09F938F930E947D65FF9237
:10180000EF9288E69AE09F938F930E947D651F93E5
:101810000F9387E79AE09F938F930E947D65BF9215
:10182000AF9286E89AE09F938F930E947D6585E949
:101830009AE00E94BF650FB6F894DEBF0FBECDBF21
:10184000C057DE4F0FB6F894DEBF0FBECDBFDF919D
:10185000CF911F910F91FF90EF90DF90CF90BF90AD
:10186000AF900895EF92FF920F931F93CF93DF9362
:101870007C018701F701C081FFEFEF1AFF0A8C2F6F
:1018800090E00E948E64892BA1F7CC2391F0E801AF
:1018900009900020E9F722970C171D0710F0198214
:1018A00008C0888190E00E948E64892BC1F3219743
:1018B000F3CFC801DF91CF911F910F91FF90EF906F
:1018C00008951F93CF93DF93CDB7DEB72C970FB654
:1018D000F894DEBF0FBECDBF182F4CE050E0CE0114
:1018E00001960E94D564F8944CE050E0113019F450
:1018F00060E872E002C064E772E0CE0101960E94E7
:10190000AB6678942C960FB6F894DEBF0FBECDBFB1
:10191000DF91CF911F910895813011F40C949F05B0
:10192000F8944CE050E064E772E080EB95E10E94AF
:101930008D66789480EB95E108958F929F92AF9297
:10194000BF92CF92DF92EF92FF920E947B3D6B019C
:101950007C0189E59BE00E94BF6582E00E948C0CBF
:10196000B82EA92E0E949F05AF92BF929F938F938E
:1019700082EA9BE09F938F930E947D658BE092E0CB
:101980009F938F938CEC9BE09F938F930E947D6538
:101990000E94C60642E161EE7BE08091D2249091E4
:1019A000D3240E9496392DB73EB7265F3F4F0FB61E
:1019B000F8943EBF0FBE2DBF892B19F48CEE9BE02F
:1019C00002C086E09CE00E94BF650E945B08809197
:1019D0006A2782FF1CC00E94D3089F938F938FE1D8
:1019E0009CE09F938F930E947D650E9495089F9332
:1019F0008F9381E39CE09F938F930E947D658DB7C9
:101A00009EB708960FB6F8949EBF0FBE8DBF8CE3AD
:101A1000882E912CA12CB12CC701B601A5019401EF
:101A20000E94D2619F938F937F936F93CA01B901F4
:101A3000A50194010E94D2619F938F937F936F932E
:101A4000C701B60120E13EE040E050E00E94D261D3
:101A5000CA01B90128E130E040E050E00E94D261C3
:101A60009F938F937F936F93C701B60120E831E571
:101A700041E050E00E94D2615F934F933F932F93D8
:101A800083E49CE09F938F930E947D650E94B80B36
:101A90002DB73EB72E5E3F4F0FB6F8943EBF0FBE38
:101AA0002DBF8FE79CE0FF90EF90DF90CF90BF902D
:101AB000AF909F908F900C94BF65CF92DF92EF9282
:101AC000FF920F931F93CF93DF93CDB7DEB7689745
:101AD0000FB6F894DEBF0FBECDBF8C0184E190E05D
:101AE0000E941D626C0143E150E0B8010E94D56480
:101AF00068EC7CE0C6010E94A2648E01035F1F4F68
:101B00004BE050E0BC01C8010E94D56468EC7CE069
:101B100080E090E00E94A2644BE050E0BC01CE0166
:101B200001967C010E94D56445E050E0B8018FE445
:101B30009AE00E94F964892B61F48981882349F035
:101B4000B70181E00E94610CFF92EF928AEC9CE069
:101B500019C045E050E0B80184E59AE00E94F964BC
:101B6000892B61F48981882349F0B70182E00E94C2
:101B7000610CFF92EF9280EE9CE004C01F930F93E4
:101B800086EF9CE09F938F930E947D650F900F904E
:101B90000F900F90C60168960FB6F894DEBF0FBE87
:101BA000CDBFDF91CF911F910F91FF90EF90DF900C
:101BB000CF900C94B5622F923F924F925F926F92AA
:101BC0007F928F929F92AF92BF92CF92DF92EF92CD
:101BD000FF920F931F93CF93DF93CDB7DEB7CE5015
:101BE000D1400FB6F894DEBF0FBECDBFC35FDE4F4E
:101BF0008883CD50D140C25FDE4F9883CE50D14014
:101C0000C55FDE4F79836883CB50D1408A01C75FBF
:101C1000DE4F39832883C950D14084E690E00E948A
:101C20001D623C018EE1EFEEF2E0DE01A951BF4FF3
:101C300001900D928A95E1F7F894C75FDE4FA88175
:101C4000B981C950D1408C91803329F444E650E0E9
:101C50006CEA71E014C0813329F444E650E068E492
:101C600071E00DC0823329F444E650E064EE70E088
:101C700006C0833349F444E650E060E870E0CE01EA
:101C80008B599F4F0E948D667894FE01319684E6B1
:101C9000DF011D928A95E9F744E650E0BE016B59D9
:101CA0007F4FC3010E94D5646CE978E0C3010E94B4
:101CB000A2641E01B9EC2B0E311C7101412C512C78
:101CC000009781F00E94320CF701819391937F017C
:101CD000FFEF4F1A5F0A6CE978E080E090E00E9425
:101CE000A264EECF0130110509F088C0C35FDE4F5A
:101CF0000881CD50D140C25FDE4F1881CE50D14017
:101D0000E12CF12CC55FDE4FE881F981CB50D14049
:101D1000EE16FF060CF044C04101C12CD12CAA24C0
:101D2000A394B12C4C145D04C9F0D8016D917C9141
:101D3000FB0101900020E9F73197AF01461B570BDB
:101D4000F401819191914F010E94F964892B11F462
:101D5000A12CB12CFFEFCF1ADF0AE4CFAA94AB2855
:101D6000C9F4D801AD90BC90F50101900020E9F7CD
:101D700031976F01CA18DB086CE978E0CE018B5906
:101D80009F4F0E94C364A601B501CE018B599F4F9E
:101D90000E94E964BFEFEB1AFB0A0E5F1F4FB2CF40
:101DA000A6968FADA697882309F439C1F894C75F2A
:101DB000DE4FA881B981C950D1408C91803329F47C
:101DC00044E650E06CEA71E015C0813329F444E642
:101DD00050E068E471E00EC0823329F444E650E03C
:101DE00064EE70E007C0833309F018C144E650E0A8
:101DF00060E870E0CE018B599F4F0EC1012B09F0B6
:101E00000EC1812C912CA12CB12CA414B50409F481
:101E1000DBC0C35FDE4FE881CD50D140CB5FDE4FEA
:101E2000E883C550D140C25FDE4FF881CE50D1402B
:101E3000CA5FDE4FF883C650D140E12CF12C81E01F
:101E400090E0C95FDE4F99838883C750D140C55F5A
:101E5000DE4F88819981CB50D140E816F9060CF00D
:101E600044C0F10100811181F80101900020E9F7DF
:101E70003197AF01401B510BCB5FDE4FA881B98179
:101E8000C550D140CD90DD90CB5FDE4FB983A883A4
:101E9000C550D140B601C8010E94F964892B09F5EB
:101EA000F80180818435B9F445E050E06BE27BE0D5
:101EB000C6010E94F96431E020E0892B09F030E08E
:101EC000C95FDE4F3883C750D140C85FDE4F2883DB
:101ED000C850D14006C0C95FDE4F19821882C75072
:101EE000D140FFEFEF1AFF0AB2CFD1010D911D9142
:101EF0001D017E01B7EEEB0EF11CF701B096CB5F32
:101F0000DE4FF983E883C550D140C12CD12CF601B6
:101F1000EE0FFF1F87EE90E08C0F9D1FE80FF91F5B
:101F2000A081B181FD0101900020E9F73197AF0157
:101F30004A1B5B0BD7016D917D917D01C8010E9409
:101F4000F964892B19F4CC24C394D12CCB5FDE4FD8
:101F5000E881F981C550D140EE16FF06C1F6C95F90
:101F6000DE4F88819981C750D140019749F5CA94C5
:101F7000CD2831F5F80101900020E9F78114910492
:101F800061F4AF01401B510BB801CE0101960E94D4
:101F9000D56488248394912C10C031977F01E01A76
:101FA000F10A6CE978E0CE0101960E94C364A701B2
:101FB000B801CE0101960E94E964AFEF8A1A9A0A2D
:101FC000BFEFAB1ABB0A21CF8981882341F1F89476
:101FD000C75FDE4FA881B981C950D1408C91803351
:101FE00029F444E650E06CEA71E014C0813329F42E
:101FF00044E650E068E471E00DC0823329F444E621
:1020000050E064EE70E006C0833341F444E650E0F3
:1020100060E870E0CE0101960E94AB667894C3013F
:10202000C25FDE4F0FB6F894DEBF0FBECDBFDF91AB
:10203000CF911F910F91FF90EF90DF90CF90BF90C5
:10204000AF909F908F907F906F905F904F903F9058
:102050002F900C94B5622F923F924F925F926F92A5
:102060007F928F929F92AF92BF92CF92DF92EF9228
:10207000FF920F931F93CF93DF93CDB7DEB7CC5072
:10208000D1400FB6F894DEBF0FBECDBFC75FDE4FA5
:102090008883C950D140C65FDE4F9883CA50D14073
:1020A000C95FDE4F79836883C750D14084E690E0F2
:1020B0000E941D626C0184E690E00E941D623C015A
:1020C0008EE1EFEEF2E0DE01A951BF4F01900D92DB
:1020D0008A95E1F7F894C95FDE4FA881B981C750AE
:1020E000D1408C91803329F444E650E06CEA71E0F1
:1020F00014C0813329F444E650E068E471E00DC077
:10210000823329F444E650E064EE70E006C0833385
:1021100049F444E650E060E870E0CE018B599F4FEF
:102120000E948D667894FE01319684E6DF011D924F
:102130008A95E9F744E650E0C75FDE4F6881C950F1
:10214000D140C65FDE4F7881CA50D140C3010E94A2
:10215000D5646CE978E0C3010E94A2648E01075344
:102160001F4F212C312C009781F00E94320CF80176
:10217000819391938F01FFEF2F1A3F0A6CE978E06A
:1021800080E090E00E94A264EECF44E650E0BE0101
:102190006B597F4FC6010E94D5646CE978E0C60197
:1021A0000E94A264412C512C27EE30E02C0F3D1FE1
:1021B000205E3F4FC55FDE4F39832883CB50D1402F
:1021C000009709F47DC00E94320C7C01FC01019053
:1021D0000020E9F731978F01081B190BCE018753B7
:1021E0009F4F4C01A12CB12CA1E0B0E0CB5FDE4FA2
:1021F000B983A883C550D1402A143B04A1F0A8019B
:10220000B701F401819191914F010E94F964892BEA
:1022100031F4CB5FDE4F19821882C550D140FFEFF9
:10222000AF1ABF0AE9CF9E0129513F4F5901812CB6
:10223000912CA801B701D5018D919D915D010E945E
:10224000F964892B19F488248394912CC55FDE4F9F
:10225000E881F981CB50D140EA15FB0551F7CB5FFE
:10226000DE4F28813981C550D1402130310509F533
:102270008A948928F1F44114510461F4A8014F5F54
:102280005F4FB701CE0101960E94D5644424439468
:10229000512C0FC06CE978E0CE0101960E94C36416
:1022A000A801B701CE0101960E94E9648FEF481A98
:1022B000580A6CE978E080E090E00E94A26480CF48
:1022C000F89489818823E1F1C95FDE4FA881B98143
:1022D000C750D1408C91803329F444E650E06CEA39
:1022E00071E014C0813329F444E650E068E471E001
:1022F0000DC0823329F444E650E064EE70E006C07D
:10230000833341F444E650E060E870E0CE0101968A
:102310000E94AB66C65FDE4FB881CA50D140BF9302
:10232000C75FDE4FE881C950D140EF9384E19DE063
:102330009F938F930E947D650F900F900F900F9049
:102340007894C6010E94B562C301C45FDE4F0FB628
:10235000F894DEBF0FBECDBFDF91CF911F910F91DB
:10236000FF90EF90DF90CF90BF90AF909F908F90B5
:102370007F906F905F904F903F902F900C94B5623C
:102380002F923F924F925F926F927F928F929F9285
:10239000AF92BF92CF92DF92EF92FF920F931F9373
:1023A000CF93DF93CDB7DEB7C65AD1090FB6F894F5
:1023B000DEBF0FBECDBFCD55DF4F8883C35AD0409F
:1023C000CC55DF4F9883C45AD040CF55DF4F798327
:1023D0006883C15AD04084E690E00E941D627C016F
:1023E00084E690E00E941D626C018EE1EFEEF2E067
:1023F000DE01AD57BF4F01900D928A95E1F7F89439
:10240000CF55DF4FE881F981C15AD04080818033B8
:1024100029F444E650E06CEA71E014C0813329F4F9
:1024200044E650E068E471E00DC0823329F444E6EC
:1024300050E064EE70E006C0833341F444E650E0BF
:1024400060E870E0CE0101960E948D66789444E6C3
:1024500050E0BE016F5F7F4FC7010E94D5646CE9F9
:1024600078E0C7010E94A2648E010B591F4F412CD6
:10247000512C009781F00E94320CF80181939193C6
:102480008F01FFEF4F1A5F0A6CE978E080E090E07F
:102490000E94A264EECF44E650E0CD55DF4F688144
:1024A000C35AD040CC55DF4F7881C45AD040C601C2
:1024B0000E94D5646CE978E0C6010E94A26423E81A
:1024C00030E02C0F3D1F205E3F4FCB55DF4F39834F
:1024D0002883C55AD040009709F45CC00E94320C92
:1024E0008C01FC0101900020E9F731973F01681A47
:1024F000790ACE018B599F4F4C01A12CB12C22247B
:102500002394312C4A145B0481F0A301B801F40137
:10251000819191914F010E94F964892B11F4212C32
:10252000312CFFEFAF1ABF0AEDCF9E012D573F4F61
:102530005901812C912CA301B801F5018191919150
:102540005F010E94F964892B19F488248394912CEB
:10255000CB55DF4F28813981C55AD0402A153B051C
:1025600051F72A94232879F48A94892861F46CE934
:1025700078E0CE0101960E94C364A301B801CE01A8
:1025800001960E94E9646CE978E080E090E00E94A6
:10259000A264A1CF8981882309F43EC0F894CF5565
:1025A000DF4FE881F981C15AD0408081803329F41E
:1025B00044E650E06CEA71E014C0813329F444E64B
:1025C00050E068E471E00DC0823329F444E650E045
:1025D00064EE70E006C0833341F444E650E060E806
:1025E00070E0CE0101960E94AB667894CC55DF4F27
:1025F000F881C45AD040FF93CD55DF4F2881C35A8C
:10260000D0402F938EE39DE09F938F930E947D6532
:102610000F900F900F900F90C6010E94B562C701F6
:10262000CA55DF4F0FB6F894DEBF0FBECDBFDF91A6
:10263000CF911F910F91FF90EF90DF90CF90BF90BF
:10264000AF909F908F907F906F905F904F903F9052
:102650002F900C94B5628F929F92AF92BF92CF92BF
:10266000DF92EF92FF920F931F93CF93DF931F920E
:102670001F92CDB7DEB76C01CA01F601208131810E
:102680002115310549F12D37324029F0F60111822B
:10269000108283E00DC220916828261326C0BE0157
:1026A0006F5F7F4F0E94A2648C0181E090E0909365
:1026B0002B1680932A16F801B080F8E6BF1217C0D7
:1026C000F80101900020E9F7CF01029780179107E8
:1026D00009F0E9C10E944D0610922B1610922A169D
:1026E0008DE792E0F6019183808381E0E1C142E0D1
:1026F00050E066E97DE0C8010E94F964892B09F089
:102700004BC0F80101900020E9F7CF010397801733
:10271000910719F40E94C606DFCFF8018381833246
:10272000B1F584818053843028F586E090E00E94E2
:102730001D627C0146E050E0B8016C5F7F4F0E9453
:10274000D564F8018581882389F086E090E00E94B5
:102750001D625C01B8016B5F7F4F46E050E00E9454
:10276000D564B701C5010E94680747C1C7010E942F
:102770001C0795C11F930F9389E99DE09F938F9349
:102780000E947D650F900F900F900F90A5CF1F9323
:102790000F9384ED9DE0F2CF42E050E06CE874E0EE
:1027A000C8010E94F964892B19F40E949D0C94CFF2
:1027B00044E050E069E07EE0C8010E94F964892BA2
:1027C000E1F4F80101900020E9F73197E01BF10BEB
:1027D000359780F08CE090E00E941D627C01B8018A
:1027E0006B5F7F4F4CE050E00E94D564C7010E94B0
:1027F000200855C10E945B086FCFF5E7BF1203C0E8
:102800000E94C40769CF44E050E06EE07EE0C8015A
:102810000E94F964892B39F5F80101900020E9F74D
:102820003197E01BF10BE430F10539F40E94D30835
:102830009F938F9383E19EE0A1CF3597399770F4F2
:1028400089E090E00E941D627C01B8016B5F7F4FC0
:1028500049E050E00E94D56460E02FC01F930F93C1
:102860008DE19EE08BCF44E050E06EE47EE0C80155
:102870000E94F964892B51F5F80101900020E9F7D5
:102880003197E01BF10BE430F10539F40E94950813
:102890009F938F9383E59EE071CF3597399788F4A6
:1028A00089E090E00E941D627C01B8016B5F7F4F60
:1028B00049E050E00E94D56461E0C7010E9411091F
:1028C000EEC01F930F938DE59EE058CF42E050E09D
:1028D00064EB74E1C8010E94F964892B09F091C08E
:1028E000F80101900020E9F7CF01039780179107C5
:1028F00019F40E94B80BF0CE84E690E00E941D62AD
:102900005C0144E650E0B8016D5F7F4F0E94D564E2
:10291000F50180818053863008F06BC084E690E03A
:102920000E941D627C0144E650E0B8016C5F7F4F5D
:102930000E94D56444E050E06EE87EE0C7010E944A
:10294000F964892B59F40E94D4090E94DF090E947E
:10295000EA090E94F5090E94B80B4FC0F701808177
:102960008823D1F184E690E00E941D624C01B801F9
:102970006B5F7F4F44E650E00E94D564F701808191
:102980008B3259F4B501C4010E94C01183E99EE065
:102990000E94BF650E94B80B1DC08D3299F4B5012D
:1029A000C4010E942B10FF92EF9287EB9EE09F9351
:1029B0008F930E947D650E94B80B0F900F900F902F
:1029C0000F9008C00E94B80BC5010E94B562C701F4
:1029D0000E94B562C4010AC081EE9EE00E94BF65FC
:1029E0000E94B80BC5010E94B562C7010E94B56282
:1029F00004C084EF9EE00E94BF65C5010E94B562DD
:102A00004EC045E050E069E17FE0C8010E94F964F2
:102A1000892B09F048C0F80101900020E9F7CF01A7
:102A2000069780179107D9F40E949F059F938F9373
:102A30008FE19FE09F938F930E947D6582E00E94CB
:102A40008C0C9F938F9388E29FE09F938F930E94BB
:102A50007D650FB6F894DEBF0FBECDBF3DCE84E1DD
:102A600090E00E941D627C01B8016A5F7F4F43E1E4
:102A700050E00E94D564F7018081882321F0C701CE
:102A80000E945D0D0CC0FF92EF9281E39FE09F9347
:102A90008F930E947D650F900F900F900F90C7014C
:102AA0000E94B56219CE1F930F9384E69DE066CE17
:102AB0000F900F90DF91CF911F910F91FF90EF90AA
:102AC000DF90CF90BF90AF909F908F900895CF935D
:102AD000DF93CDB7DEB7C85CD1090FB6F894DEBF7F
:102AE0000FBECDBF44E650E0BC01CE0101960E946E
:102AF000D564F89444E650E06CE170E0CE010196B4
:102B00000E94AB66789481E090E0909329168093C0
:102B10002816C853DF4F0FB6F894DEBF0FBECDBFE7
:102B2000DF91CF9108952F923F925F926F927F92A3
:102B30008F929F92AF92BF92CF92DF92EF92FF92CD
:102B40000F931F93CF93DF93CDB7DEB7C853D14018
:102B50000FB6F894DEBF0FBECDBFF89444E650E048
:102B60006CEA71E0CE018B599F4F0E948D6678947C
:102B70006CE978E0CE018B599F4F0E94A2648C01D2
:102B8000512CE090D314F090D414C35DDE4FF98241
:102B9000E882CD52D140C15DDE4FF982E882CF524A
:102BA000D14017018091F0139091F113CF5CDE4F6B
:102BB00099838883C153D140C090E814D090E91420
:102BC0003601A090B914B090BA14E091FD13F091C1
:102BD000FE13CD5CDE4FF983E883C353D140809070
:102BE000D1139090D2138091E2139091E313CB5CB8
:102BF000DE4F99838883C553D140C95CDE4F9982EB
:102C00008882C753D1400115110509F497C30E946A
:102C10008B2C20E030E040E350E40E94E65F87FF29
:102C200054C0C8010E94320C45E050E06BE27BE0EA
:102C30000E94F964892B39F4E091E213F091E313D7
:102C400080E090E055C0C8010E94320C45E050E0A1
:102C500061E37BE00E94F964892B49F480E090E015
:102C6000C95CDE4FE881F981C753D14067C0C80114
:102C70000E94320C44E050E066E27BE00E94F9647E
:102C8000892B09F00CC30E948B2C9F938F937F9309
:102C90006F9380E89FE09F938F931F928BE08F93B9
:102CA00089EC90E08C0F9D1F850D911D9F938F9354
:102CB0000E94EF65580E8DE89FE00E9467150FB6E1
:102CC000F894DEBF0FBECDBFEAC2C8010E94320C2D
:102CD00045E050E06BE27BE00E94F964892B01F54E
:102CE00080E090E0CB5CDE4FE881F981C553D140B4
:102CF0001995BC01990F880B990B0E94956020E0F3
:102D000030E040E251E40E94EB5F9F938F937F930A
:102D10006F9384E69FE09F938F931F928CE09CC2F9
:102D2000C8010E94320C45E050E061E37BE00E9464
:102D3000F964892BB9F480E090E0F4011995BC01A5
:102D4000990F880B990B0E94956020E030E04AE7CC
:102D500054E40E94EB5F9F938F937F936F9382E77E
:102D60009FE013C0C8010E94320C44E050E066E2CC
:102D70007BE00E94F964892B69F40E948B2C9F935D
:102D80008F937F936F9380E89FE09F938F931F9221
:102D90008BE062C2C8010E94320C45E050E06FE453
:102DA0007AE00E94F964892B69F40E94A02C9F9319
:102DB0008F937F936F9383E99FE09F938F931F92ED
:102DC0008FE04AC2C8010E94320C45E050E064E541
:102DD0007AE00E94F964892B69F40E94AF2C9F93DA
:102DE0008F937F936F938EE99FE09F938F931F92B2
:102DF0008DE032C2C8010E94320C42E050E063E232
:102E00007BE00E94F964892BE1F480E090E0CD5CE6
:102E1000DE4FE881F981C353D1401995BC01990F68
:102E2000880B990B0E94956020E030E048EC52E45A
:102E30000E94EB5F9F938F937F936F9389EA9FE04C
:102E40008AC0C8010E94320CFC018081803519F5CE
:102E50008091E0249091E1248C7E9927892B09F4BC
:102E60001EC280E090E0F5011995892B89F00E943F
:102E70007D3C81110DC080E090E0F50119959F9394
:102E80008F9380EB9FE09F938F931F928CE087C07E
:102E900086EB9FE002C2C8010E94320CFC018081D7
:102EA000843551F58091E02481FFF9C180E090E004
:102EB000F3011995892B09F453C00E94473D8111F4
:102EC0004FC080E090E0F3011995BC01990F880B89
:102ED000990B0E94956020E030E040E251E40E94AE
:102EE000EB5F9F938F937F936F9384EC9FE09F930F
:102EF0008F931F9289E0B0C1C8010E94320C42E05A
:102F000050E06CE17BE00E94F964892B61F58091CF
:102F1000E02481FFC4C181E090E0F6011995892B7E
:102F2000F9F00E94473D81111BC081E090E0F6015D
:102F30001995BC01990F880B990B0E94956020E0B0
:102F400030E040E251E40E94EB5F9F938F937F93C8
:102F50006F9389ED9FE09F938F931F928AE07CC1CE
:102F60008CEC9FE09AC1C8010E94320C44E050E012
:102F700067E37BE00E94F964892BE9F480E090E04C
:102F8000CF5CDE4FE881F981C153D14019959F9301
:102F90008F9382EE9FE09F938F931F928FE08F938A
:102FA00089EC90E08C0F9D1F850D911D9F938F9351
:102FB0000E94EF655CC1C8010E94320C45E050E000
:102FC00064E07BE00E94F964892B09F040C08091A5
:102FD000E02484FF64C180E090E0F1011995892B21
:102FE00089F10E94BB3C81112DC080E090E0F1018D
:102FF0001995BC01990F880B990B0E94956020E0F0
:1030000030E04AE754E40E94EB5F9F938F937F93F5
:103010006F9380EF9FE09F938F931F928EE08F932B
:1030200089EC90E08C0F9D1F850D911D9F938F93D0
:103030000E94EF65580E81E090E09093F715809321
:10304000F6153DCE1092F7151092F61528C1C8015D
:103050000E94320C45E050E06AE07BE00E94F96497
:10306000892B09F050C08091E02484FF18C181E0D1
:1030700090E0C15DDE4FE881F981CF52D1401995D2
:10308000892BE1F10E94BB3C811138C08091F6157B
:103090009091F715892B91F581E090E0C15DDE4FAD
:1030A000E881F981CF52D1401995BC01990F880B65
:1030B000990B0E94956020E030E04AE754E40E94BA
:1030C000EB5F9F938F937F936F938DEF9FE09F9321
:1030D0008F931F928EE08F9389EC90E08C0F9D1F51
:1030E000850D911D9F938F930E94EF65580E81E08F
:1030F00090E09093F5158093F415E1CD1092F515BD
:103100001092F415CCC0C8010E94320C45E050E08A
:1031100060E17BE00E94F964892B09F057C080913F
:10312000E02484FFBCC082E090E0C35DDE4FE88114
:10313000F981CD52D1401995892B09F442C00E94E2
:10314000BB3C81113EC08091F6159091F715892BFB
:10315000C1F58091F4159091F515892B91F582E0D8
:1031600090E0C35DDE4FE881F981CD52D1401995E1
:10317000BC01990F880B990B0E94956020E030E00C
:103180004AE754E40E94EB5F9F938F937F936F9382
:1031900089E090E19F938F931F928EE08F9389EC4B
:1031A00090E08C0F9D1F850D911D9F938F930E9422
:1031B000EF65580E81E090E09093F3158093F2153F
:1031C0007ECD1092F3151092F21569C0C8010E94CD
:1031D000320C45E050E066E17BE00E94F964892B07
:1031E00009F05DC08091E02484FF59C083E090E045
:1031F000F7011995892BE9F10E94BB3C811139C077
:103200008091F6159091F715892B99F58091F41519
:103210009091F515892B69F58091F2159091F31530
:10322000892B39F583E090E0F7011995BC01990FDE
:10323000880B990B0E94956020E030E04AE754E447
:103240000E94EB5F9F938F937F936F9385E190E153
:103250009F938F931F928EE08F9389EC90E08C0F59
:103260009D1F850D911D9F938F930E94EF65580EB2
:1032700026CD8091F6159091F715892B81F48091D8
:10328000F4159091F515892B51F48091F2159091D8
:10329000F315892B21F481E290E10E94671580915A
:1032A000281690912916019749F5F89444E650E0C4
:1032B0006CE170E08E010F5F1F4FC8010E948D66A8
:1032C00078941F930F9389E493E09F938F931F92B9
:1032D00080E18F9389EC90E08C0F9D1F850D911DEF
:1032E0009F938F930E94EF65580E109229161092AB
:1032F00028160FB6F894DEBF0FBECDBFF0E5F5156A
:10330000A8F4E9ECF0E0EC0FFD1FE50DF11D1082D3
:10331000AE0147535F4F65E883E892E00E943A4A66
:10332000C753DF4F1882C95CD040512C6CE978E05C
:1033300080E090E00E94A2648C0165CCE9ECF0E0B2
:10334000EC0FFD1FE50DF11D1082AE0147535F4FDD
:1033500065E883E892E00E943A4AC85CDE4F0FB607
:10336000F894DEBF0FBECDBFDF91CF911F910F91BB
:10337000FF90EF90DF90CF90BF90AF909F908F9095
:103380007F906F905F903F902F9008952F923F9283
:103390005F926F927F928F929F92AF92BF92CF92E5
:1033A000DF92EF92FF920F931F93CF93DF93CDB7EE
:1033B000DEB7C853D1400FB6F894DEBF0FBECDBF05
:1033C000F89444E650E064EE70E0CE018B599F4FD4
:1033D0000E948D6678946CE978E0CE018B599F4FFE
:1033E0000E94A2648C01512CE090D314F090D4146C
:1033F000C35DDE4FF982E882CD52D140C15DDE4F20
:10340000F982E882CF52D140CF5CDE4FF982E88268
:10341000C153D1408091F0139091F113CD5CDE4FF8
:1034200099838883C353D140C090E814D090E914A5
:1034300016016090B9147090BA14A090D113B09096
:10344000D2138090E2139090E313CB5CDE4FB982ED
:10345000A882C553D140C95CDE4F99828882C75388
:10346000D1400115110509F484C30E948B2C20E082
:1034700030E040E350E40E94E65F87FF56C0C80199
:103480000E94320C45E050E06BE27BE00E94F96460
:10349000892B49F480E090E0C95CDE4FE881F98136
:1034A000C753D14050C0C8010E94320C45E050E0E3
:1034B00061E37BE00E94F964892B49F480E090E0AD
:1034C000CB5CDE4FE881F981C553D14062C0C801B1
:1034D0000E94320C44E050E066E27BE00E94F96416
:1034E000892B09F0F7C20E948B2C9F938F937F93B7
:1034F0006F9380E89FE09F938F931F928BE08F9351
:1035000089EC90E08C0F9D1F850D911D9F938F93EB
:103510000E94EF65580E8DE89FE00E9467150FB678
:10352000F894DEBF0FBECDBFD5C2C8010E94320CD9
:1035300045E050E06BE27BE00E94F964892BD9F40E
:1035400080E090E0F4011995BC01990F880B990B6C
:103550000E94956020E030E040E251E40E94EB5F81
:103560009F938F937F936F9384E69FE09F938F93B6
:103570001F928CE08CC2C8010E94320C45E050E0E2
:1035800061E37BE00E94F964892BD9F480E090E04C
:10359000F5011995BC01990F880B990B0E94956054
:1035A00020E030E04AE754E40E94EB5F9F938F9362
:1035B0007F936F9382E79FE09F938F931F928BE09F
:1035C00066C2C8010E94320C44E050E066E27BE033
:1035D0000E94F964892B49F40E948B2C9F938F934E
:1035E0007F936F9380E89FE0E7CFC8010E94320C81
:1035F00045E050E064E57AE00E94F964892B69F4C3
:103600000E94AF2C9F938F937F936F9380E390E101
:103610009F938F931F928DE03AC2C8010E94320C93
:1036200045E050E06FE47AE00E94F964892B69F488
:103630000E94A02C9F938F937F936F938DE390E1D3
:103640009F938F931F928FE022C2C8010E94320C79
:10365000FC018081803571F58091E0249091E12416
:103660008C7E9927892B09F435C280E090E0F30124
:103670001995892BE1F00E947D3C811118C080E0F2
:1036800090E0F30119959F938F9380EB9FE09F93B8
:103690008F931F928CE08F9389EC90E08C0F9D1F8D
:1036A000850D911D9F938F930E94EF65FBC186EB63
:1036B0009FE00EC2C8010E94320CFC01808184355B
:1036C00051F58091E02481FF05C280E090E0F10196
:1036D0001995892B09F453C00E94473D81114FC0B1
:1036E00080E090E0F1011995BC01990F880B990BCE
:1036F0000E94956020E030E040E251E40E94EB5FE0
:103700009F938F937F936F9384EC9FE09F938F930E
:103710001F9289E0BCC1C8010E94320C42E050E017
:103720006CE17BE00E94F964892B61F58091E024D3
:1037300081FFD0C181E090E0F6011995892BF9F065
:103740000E944A3D81111BC081E090E0F60119956D
:10375000BC01990F880B990B0E94956020E030E026
:1037600040E251E40E94EB5F9F938F937F936F93AE
:1037700089ED9FE09F938F931F928AE088C18CEC24
:103780009FE0A6C1C8010E94320C44E050E067E30C
:103790007BE00E94F964892BF9F482E090E0CD5C33
:1037A000DE4FE881F981C353D1401995182F092FB5
:1037B00080E090E0CD5CDE4FE881F981C353D140D9
:1037C00019950F931F939F938F938AE790E19F938F
:1037D0008F931F9282E15BC1C8010E94320C45E0C9
:1037E00050E064E07BE00E94F964892B09F04AC054
:1037F0008091E02484FF6EC180E090E0CF5CDE4FDA
:10380000E881F981C153D1401995892BB1F10E940A
:10381000BB3C811132C080E090E0CF5CDE4FE8819C
:10382000F981C153D1401995BC01990F880B990BAF
:103830000E94956020E030E04AE754E40E94EB5F8C
:103840009F938F937F936F938AE490E19F938F93DD
:103850001F928EE08F9389EC90E08C0F9D1F850D59
:10386000911D9F938F930E94EF65580E81E090E029
:103870009093F1158093F01552CE1092F11510929D
:10388000F01528C1C8010E94320C45E050E06AE002
:103890007BE00E94F964892B09F050C08091E024FC
:1038A00084FF18C181E090E0C15DDE4FE881F981BD
:1038B000CF52D1401995892BE1F10E94BB3C811177
:1038C00038C08091F0159091F115892B91F581E028
:1038D00090E0C15DDE4FE881F981CF52D14019956A
:1038E000BC01990F880B990B0E94956020E030E095
:1038F0004AE754E40E94EB5F9F938F937F936F930B
:103900008DE890E19F938F931F928EE08F9389ECC7
:1039100090E08C0F9D1F850D911D9F938F930E94AA
:10392000EF65580E81E090E09093EF158093EE15CF
:10393000F6CD1092EF151092EE15CCC0C8010E9482
:10394000320C45E050E060E17BE00E94F964892B95
:1039500009F057C08091E02484FFBCC082E090E071
:10396000C35DDE4FE881F981CD52D1401995892B95
:1039700009F442C00E94BB3C81113EC08091F01509
:103980009091F115892BC1F58091EE159091EF156D
:10399000892B91F582E090E0C35DDE4FE881F981EB
:1039A000CD52D1401995BC01990F880B990B0E94FB
:1039B000956020E030E04AE754E40E94EB5F9F937B
:1039C0008F937F936F9389E990E19F938F931F92D9
:1039D0008EE08F9389EC90E08C0F9D1F850D911DDB
:1039E0009F938F930E94EF65580E81E090E0909333
:1039F000ED158093EC1593CD1092ED151092EC150A
:103A000069C0C8010E94320C45E050E066E17BE0ED
:103A10000E94F964892B09F05DC08091E02484FF45
:103A200059C083E090E0F7011995892BE9F10E94D4
:103A3000BB3C811139C08091F0159091F115892B13
:103A400099F58091EE159091EF15892B69F580918C
:103A5000EC159091ED15892B39F583E090E0F70195
:103A60001995BC01990F880B990B0E94956020E075
:103A700030E04AE754E40E94EB5F9F938F937F937B
:103A80006F938EE690E19F938F931F928EE08F93BA
:103A900089EC90E08C0F9D1F850D911D9F938F9356
:103AA0000E94EF65580E3BCD8091F0159091F11575
:103AB000892B81F48091EE159091EF15892B51F4AB
:103AC0008091EC159091ED15892B21F481E290E124
:103AD0000E9467158091281690912916019749F543
:103AE000F89444E650E06CE170E08E010F5F1F4FE8
:103AF000C8010E948D6678941F930F9389E493E028
:103B00009F938F931F9280E18F9389EC90E08C0FAD
:103B10009D1F850D911D9F938F930E94EF65580EF9
:103B200010922916109228160FB6F894DEBF0FBE19
:103B3000CDBFFCE3F515A8F4E9ECF0E0EC0FFD1FB8
:103B4000E50DF11D1082AE0147535F4F65E883E834
:103B500092E00E943A4AC753DF4F1882C95CD040B6
:103B6000512C6CE978E080E090E00E94A2648C0126
:103B700078CCE9ECF0E0EC0FFD1FE50DF11D1082B3
:103B8000AE0147535F4F65E883E892E00E943A4AEE
:103B9000C85CDE4F0FB6F894DEBF0FBECDBFDF911D
:103BA000CF911F910F91FF90EF90DF90CF90BF903A
:103BB000AF909F908F907F906F905F903F902F90ED
:103BC00008952F923F925F926F927F928F929F9271
:103BD000AF92BF92CF92DF92EF92FF920F931F931B
:103BE000CF93DF93CDB7DEB7C853D1400FB6F8946B
:103BF000DEBF0FBECDBFF89444E650E060E870E051
:103C0000CE018B599F4F0E948D6678946CE978E0C5
:103C1000CE018B599F4F0E94A2648C01512CE090E1
:103C2000D314F090D414C35DDE4FF982E882CD52F4
:103C3000D140C15DDE4FF982E882CF52D140CF5CE6
:103C4000DE4FF982E882C153D1402090F0133090CA
:103C5000F113C090E814D090E9143601A090B91483
:103C6000B090BA148091FD139091FE13CD5CDE4F9D
:103C700099838883C353D1408090D1139090D213FD
:103C8000E091E213F091E313CB5CDE4FF983E8831C
:103C9000C553D140C95CDE4F99828882C753D14059
:103CA0000115110509F498C30E948B2C20E030E027
:103CB00040E350E40E94E65F87FF54C0C8010E94C1
:103CC000320C45E050E06BE27BE00E94F964892B06
:103CD00039F4E091E213F091E31380E090E055C0F5
:103CE000C8010E94320C45E050E061E37BE00E9495
:103CF000F964892B49F480E090E0C95CDE4FE881EB
:103D0000F981C753D14067C0C8010E94320C44E01A
:103D100050E066E27BE00E94F964892B09F00DC354
:103D20000E948B2C9F938F937F936F9380E89FE0EB
:103D30009F938F931F928BE08F9389EC90E08C0F71
:103D40009D1F850D911D9F938F930E94EF65580EC7
:103D50008DE89FE00E9467150FB6F894DEBF0FBE96
:103D6000CDBFEBC2C8010E94320C45E050E06BE2CF
:103D70007BE00E94F964892B01F580E090E0CB5C48
:103D8000DE4FE881F981C553D1401995BC01990FE7
:103D9000880B990B0E94956020E030E040E251E4EE
:103DA0000E94EB5F9F938F937F936F9384E69FE0D6
:103DB0009F938F931F928CE09DC2C8010E94320C8A
:103DC00045E050E061E37BE00E94F964892BD9F47F
:103DD00080E090E0F4011995BC01990F880B990BD4
:103DE0000E94956020E030E04AE754E40E94EB5FD7
:103DF0009F938F937F936F9382E79FE09F938F931F
:103E00001F928BE077C2C8010E94320C44E050E060
:103E100066E27BE00E94F964892B49F40E948B2CB6
:103E20009F938F937F936F9380E89FE0E7CFC801C4
:103E30000E94320C45E050E064E57AE00E94F964AB
:103E4000892B69F40E94AF2C9F938F937F936F937C
:103E500080E390E19F938F931F928DE04BC2C80146
:103E60000E94320C45E050E06FE47AE00E94F96471
:103E7000892B69F40E94A02C9F938F937F936F935B
:103E80008DE390E19F938F931F928FE033C2C8011F
:103E90000E94320C42E050E063E27BE00E94F96451
:103EA000892B91F480E090E0CD5CDE4FE881F981D0
:103EB000C353D14019959F938F9385EA90E19F93C7
:103EC0008F931F9289E027C0C8010E94320CFC0129
:103ED0008081803561F58091E0249091E1248C7E91
:103EE0009927892B09F429C280E090E0F501199502
:103EF000892B09F481C00E947D3C81117DC080E046
:103F000090E0F50119959F938F9380EB9FE09F932D
:103F10008F931F928CE08F9389EC90E08C0F9D1F04
:103F2000850D911D9F938F930E94EF65EEC1C8018F
:103F30000E94320CFC018081843551F58091E0248F
:103F400081FFFBC180E090E0F3011995892B09F412
:103F500053C00E94473D81114FC080E090E0F301C3
:103F60001995BC01990F880B990B0E94956020E070
:103F700030E040E251E40E94EB5F9F938F937F9388
:103F80006F9384EC9FE09F938F931F9289E0B2C15F
:103F9000C8010E94320C42E050E06CE17BE00E94DC
:103FA000F964892B61F58091E02481FFC6C181E02D
:103FB00090E0F6011995892BF9F00E944A3D811194
:103FC0001BC081E090E0F6011995BC01990F880BA8
:103FD000990B0E94956020E030E040E251E40E949D
:103FE000EB5F9F938F937F936F9389ED9FE09F93F8
:103FF0008F931F928AE07EC18CEC9FE09CC1C80128
:104000000E94320C44E050E067E37BE00E94F964D8
:10401000892BA9F482E090E0F1011995182F092F5E
:1040200080E090E0F10119950F931F939F938F9378
:104030008AE790E19F938F931F9282E15BC1C80151
:104040000E94320C45E050E064E07BE00E94F9649D
:10405000892B09F04AC08091E02484FF6EC180E082
:1040600090E0CF5CDE4FE881F981C153D1401995D2
:10407000892BB1F10E94BB3C811132C080E090E0FD
:10408000CF5CDE4FE881F981C153D1401995BC0165
:10409000990F880B990B0E94956020E030E04AE769
:1040A00054E40E94EB5F9F938F937F936F938AE416
:1040B00090E19F938F931F928EE08F9389EC90E015
:1040C0008C0F9D1F850D911D9F938F930E94EF650F
:1040D000580E81E090E09093EB158093EA153CCE6A
:1040E0001092EB151092EA1528C1C8010E94320CFB
:1040F00045E050E06AE07BE00E94F964892B09F01A
:1041000050C08091E02484FF18C181E090E0C15D3F
:10411000DE4FE881F981CF52D1401995892BE1F129
:104120000E94BB3C811138C08091EA159091EB153B
:10413000892B91F581E090E0C15DDE4FE881F98146
:10414000CF52D1401995BC01990F880B990B0E9451
:10415000956020E030E04AE754E40E94EB5F9F93D3
:104160008F937F936F938DE890E19F938F931F922E
:104170008EE08F9389EC90E08C0F9D1F850D911D33
:104180009F938F930E94EF65580E81E090E090938B
:10419000E9158093E815E0CD1092E9151092E81525
:1041A000CCC0C8010E94320C45E050E060E17BE0E9
:1041B0000E94F964892B09F057C08091E02484FFA4
:1041C000BCC082E090E0C35DDE4FE881F981CD5252
:1041D000D1401995892B09F442C00E94BB3C811142
:1041E0003EC08091EA159091EB15892BC1F5809125
:1041F000E8159091E915892B91F582E090E0C35D77
:10420000DE4FE881F981CD52D1401995BC01990F5B
:10421000880B990B0E94956020E030E04AE754E457
:104220000E94EB5F9F938F937F936F9389E990E157
:104230009F938F931F928EE08F9389EC90E08C0F69
:104240009D1F850D911D9F938F930E94EF65580EC2
:1042500081E090E09093E7158093E6157DCD109274
:10426000E7151092E61569C0C8010E94320C45E0BE
:1042700050E066E17BE00E94F964892B09F05DC0A3
:104280008091E02484FF59C083E090E0F701199504
:10429000892BE9F10E94BB3C811139C08091EA155C
:1042A0009091EB15892B99F58091E8159091E9157E
:1042B000892B69F58091E6159091E715892B39F5E1
:1042C00083E090E0F7011995BC01990F880B990BD9
:1042D0000E94956020E030E04AE754E40E94EB5FE2
:1042E0009F938F937F936F938EE690E19F938F932D
:1042F0001F928EE08F9389EC90E08C0F9D1F850DAF
:10430000911D9F938F930E94EF65580E25CD80914C
:10431000EA159091EB15892B81F48091E815909125
:10432000E915892B51F48091E6159091E715892BB9
:1043300021F481E290E10E94671580912816909106
:104340002916019749F5F89444E650E06CE170E0D5
:104350008E010F5F1F4FC8010E948D6678941F93D6
:104360000F9389E493E09F938F931F9280E18F9343
:1043700089EC90E08C0F9D1F850D911D9F938F936D
:104380000E94EF65580E10922916109228160FB64B
:10439000F894DEBF0FBECDBFFCE3F515A8F4E9EC41
:1043A000F0E0EC0FFD1FE50DF11D1082AE0147534B
:1043B0005F4F65E883E892E00E943A4AC753DF4FB7
:1043C0001882C95CD040512C6CE978E080E090E024
:1043D0000E94A2648C0164CCE9ECF0E0EC0FFD1FBC
:1043E000E50DF11D1082AE0147535F4F65E883E88C
:1043F00092E00E943A4AC85CDE4F0FB6F894DEBFE6
:104400000FBECDBFDF91CF911F910F91FF90EF9025
:10441000DF90CF90BF90AF909F908F907F906F90E4
:104420005F903F902F900895CF92DF92EF92FF928E
:104430000F931F93CF93DF93CDB7DEB728970FB6B7
:10444000F894DEBF0FBECDBF8C010E94A42B8093D9
:10445000E0249093E12410922716109226161092D1
:104460002516109224161092231610922216C09030
:104470000D03D0900E03E0900F03F090100381FF26
:104480001DC0E091EA14F091EB1461E070E081E866
:1044900090E01995C982DA82EB82FC82980141E0B2
:1044A00050E062E070E0CE0101960E94DB0D81E0F9
:1044B00090E0909327168093261611C0C982DA8265
:1044C000EB82FC82980140E050E062E070E0CE01B7
:1044D00001960E94DB0D10922716109226168091ED
:1044E000E02484FF22C0E091D514F091D61461E05D
:1044F00070E081E890E0199588E0E1E1F3E0DE0109
:10450000119601900D928A95E1F7980141E050E0F3
:1045100064E070E0CE0101960E94DB0D81E090E046
:10452000909325168093241616C088E0E1E1F3E00D
:10453000DE01119601900D928A95E1F7980140E015
:1045400050E064E070E0CE0101960E94DB0D109215
:104550002516109224168091E0249091E1248C7EFF
:104560009927892BE9F0E091BB14F091BC1461E02C
:1045700070E081E890E019958FE19BE09A83898350
:10458000980141E050E061E070E0CE0101960E94A8
:10459000DB0D81E090E0909323168093221611C0EA
:1045A0008FE19BE09A838983980140E050E061E0CD
:1045B00070E0CE0101960E94DB0D1092231610923E
:1045C00022168091E02482FF0BC00E945A2EE091B7
:1045D0000B14F0910C1461E070E081E890E0199503
:1045E000F89484E090E00E94A56620912616309110
:1045F00027168217930719F12115310589F48CEAE2
:1046000090E10E94BF65609126167091271684E0A4
:1046100090E00E94CD6688EE90E10E9467150FC081
:104620002130310561F485EF90E10E94BF65609112
:1046300026167091271684E090E00E94CD6680E0F7
:1046400090E00E94A56620912216309123168217D1
:10465000930719F12115310589F48EE291E10E9449
:10466000BF65609122167091231680E090E00E9451
:10467000CD668BE691E10E9467150FC021303105B0
:1046800061F489E791E10E94BF6560912216709103
:10469000231680E090E00E94CD6682E090E00E94C8
:1046A000A56620912416309125168217930719F1DB
:1046B0002115310589F483EB91E10E94BF6560917A
:1046C00024167091251682E090E00E94CD6681EF5D
:1046D00091E10E9467150FC02130310561F480E03F
:1046E00092E10E94BF65609124167091251682E0C8
:1046F00090E00E94CD66789428960FB6F894DEBFBD
:104700000FBECDBFDF91CF911F910F91FF90EF9022
:10471000DF90CF900895EF92FF920F931F93CF9366
:10472000DF93EC0188819981009741F0803B9140B3
:1047300009F4B6C01982188283E00CC1E091FF131E
:10474000F091001461E070E081E890E01995E0914B
:10475000E413F091E51361E070E081E890E01995D1
:10476000E091D313F091D41361E070E081E890E020
:104770001995E091F213F091F31361E070E081E894
:1047800090E0199581E090E090932B1680932A1683
:1047900010921516109214168091141690911516F9
:1047A000029784F700910D1510910E15F8011995D7
:1047B0008091141690911516892B19F480E090E0E1
:1047C00002C08FEF90E00E947A418FE090E09093DA
:1047D000131680931216E0900B15F0900C15809133
:1047E00012169091131697FD12C0F701199580913A
:1047F0001216909113160E94A14380911216909167
:10480000131601979093131680931216E8CFF801B0
:10481000199500911416109115160130110509F023
:1048200051C08EE992E00E94A56690931116809384
:10483000101610922B1610922A16892B89F00E94BE
:104840008B2C2DEC3CEC4CE350E40E94E65F87FFA0
:1048500007C010932B1600932A168CE291E004C037
:104860008EE992E00E94A56690931116809310162F
:1048700040911016509111165695542F4427579574
:10488000479560E070E086E497E20E94CD48109280
:104890002B1610922A1680EB91E0998388831CC016
:1048A00086E497E20E94E148892BB1F081E090E034
:1048B00090932B1680932A168091101690911116C2
:1048C000009761F4809114169091151601969093BB
:1048D00015168093141660CF81E03CC08C32914055
:1048E00021F580910E1690910F16019690930F1658
:1048F00080930E16069731F78AEE92E10E941422F9
:1049000010922B1610922A16E0910B15F0910C15AF
:1049100019950E949315E0910D15F0910E151995BA
:1049200010920F1610920E16CDCF8AEE92E10E94D1
:10493000142210922B1610922A16E0910B15F0916A
:104940000C1519950E949315E0910D15F0910E1517
:104950001995B8CFDF91CF911F910F91FF90EF90F4
:104960000895CF93DF93EC0188819981009741F0FE
:104970008A3E914009F45BC01982188283E064C0CA
:10498000E091FF13F091001461E070E081E890E0A5
:104990001995E091E413F091E51361E070E081E88E
:1049A00090E01995E091D313F091D41361E070E099
:1049B00081E890E01995E091F213F091F31361E032
:1049C00070E081E890E019958CE992E00E94A5667C
:1049D000892B29F48CE992E00E94A5660CC00E9404
:1049E0008B2C2DEC3CEC4CE350E40E94E65F87FFFF
:1049F000F1CF8CE291E021E030E030932B16209350
:104A00002A16AC015695542F44275795479560E0D8
:104A100070E082E297E20E94CD4810922B1610922D
:104A20002A168AEE91E09983888381E00DC082E2A4
:104A300097E20E94E148892BC1F381E090E09093D6
:104A40002B1680932A16C0CFDF91CF9108950F9334
:104A50001F93CF93DF93EC0188819981009741F0F8
:104A60008F31924009F465C01982188283E091C0A9
:104A7000E091FF13F091001461E070E081E890E0B4
:104A80001995E091E413F091E51361E070E081E89D
:104A900090E01995E091D313F091D41361E070E0A8
:104AA00081E890E01995E091F213F091F31361E041
:104AB00070E081E890E019958AE992E00E94A5668D
:104AC00090930D1680930C16892B69F00E948B2C05
:104AD0002DEC3CEC4CE350E40E94E65F87FF03C002
:104AE00088EE93E004C08AE992E00E94A566909364
:104AF0000D1680930C1681E090E090932B16809316
:104B00002A1640910C1650910D165695542F442795
:104B10005795479560E070E084ED94E20E94CD489F
:104B200010922B1610922A168FE192E099838883B7
:104B300006C084ED94E20E94E148892B11F481E0E3
:104B400028C081E090E090932B1680932A168091E4
:104B50000C1690910D16892B09F4AECF8EEA92E1D6
:104B60000E94142210922B1610922A1600910B15F7
:104B700010910C15F8011995F80119950E94C619A4
:104B800000910D1510910E15F8011995F801199560
:104B900093CFDF91CF911F910F9108950F931F93A2
:104BA000CF93DF93EC0188819981009741F08235A2
:104BB000924009F46AC01982188283E096C0E0919D
:104BC000FF13F091001461E070E081E890E0199526
:104BD000E091E413F091E51361E070E081E890E08A
:104BE0001995E091D313F091D41361E070E081E85E
:104BF00090E01995E091F213F091F31361E070E009
:104C000081E890E0199588E992E00E94A56690936A
:104C10000B1680930A16892B69F00E948B2C2DECC1
:104C20003CEC4CE350E40E94E65F87FF03C088EE53
:104C300093E004C088E992E00E94A56690930B1669
:104C400080930A1681E090E090932B1680932A16A9
:104C500088E992E00E94A56690930B1680930A164D
:104C6000AC015695542F44275795479560E070E066
:104C700084E197E20E94CD4810922B1610922A16DA
:104C800082E592E09983888306C084E197E20E94DE
:104C9000E148892B11F481E028C081E090E09093F5
:104CA0002B1680932A1680910A1690910B16892B49
:104CB00009F4A9CF80E992E10E94142210922B16E8
:104CC00010922A1600910B1510910C15F8011995E8
:104CD000F80119950E94E11D00910D1510910E1516
:104CE000F8011995F80119958ECFDF91CF911F9199
:104CF0000F9108954F925F926F927F928F929F9241
:104D0000AF92BF92CF92DF92EF92FF920F931F93D9
:104D1000CF93DF93CDB7DEB72E970FB6F894DEBFF3
:104D20000FBECDBF7E876D8769017A010E948C47D7
:104D300080E090E00E9456472B013C0181E090E02A
:104D40000E9456474B015C0186E090E00E94564766
:104D500069837A838B839C8387E090E00E94564727
:104D6000AB01BC0180914C1690914D16A0914E164E
:104D7000B0914F16481A590A6A0A7B0A8091481660
:104D800090914916A0914A16B0914B169501840155
:104D9000081B190B2A0B3B0B0D831E832F833887AF
:104DA0008091441690914516A0914616B0914716F1
:104DB00009811A812B813C81081B190B2A0B3B0BA3
:104DC00009831A832B833C8380914016909141166E
:104DD000A0914216B09143168A019B01081B190B42
:104DE0002A0B3B0B09871A872B873C8780E090E0D2
:104DF0000E94564760934C1670934D1680934E1642
:104E000090934F1681E090E00E94564760934816B9
:104E10007093491680934A1690934B1686E090E063
:104E20000E94564760934416709345168093461629
:104E30009093471687E090E00E9456476093401693
:104E400070934116809342169093431687E090E04A
:104E50000E94564786E090E00E94564729E03DE3D5
:104E6000AD85BE850E94FC610E9493604B015C0190
:104E700080913C1690913D16A0913E16B0913F1640
:104E80000196A11DB11D80933C1690933D16A093F1
:104E90003E16B0933F16C301B2010E94936020E01A
:104EA00030E040E950E40E944561A70196010E946C
:104EB0004561A50194010E94EB5FECE2F6E160839D
:104EC0007183828393836D817E818F8198850E9417
:104ED00093602AE939E949E050E40E944561A7015D
:104EE00096010E944561A50194010E94EB5F6093C9
:104EF0003016709331168093321690933316698171
:104F00007A818B819C810E9493602AE939E941E290
:104F100051E40E944561A70196010E944561A501E7
:104F200094010E94EB5F6093341670933516809362
:104F300036169093371669857A858B859C850E94F5
:104F4000936026E636E646E651E40E944561A701F5
:104F500096010E944561A50194010E94EB5F609358
:104F600038167093391680933A1690933B168CE25C
:104F700096E12E960FB6F894DEBF0FBECDBFDF913F
:104F8000CF911F910F91FF90EF90DF90CF90BF9046
:104F9000AF909F908F907F906F905F904F9008950B
:104FA000E6E4F1E09081208180813081492F407CCE
:104FB000932F9295969596959370940F2695269596
:104FC0002073920F82958C70890F0895CF93C82F0C
:104FD0008EE493E19F938F930E947D650F900F90D5
:104FE000C0FF04C08BE593E10E94BF65C1FF04C010
:104FF0008AE693E10E94BF65C2FF04C089E793E19E
:105000000E94BF65C3FF04C088E893E10E94BF65AA
:10501000C4FF05C087E993E1CF910C94BF65CF91A0
:1050200008958F929F92AF92BF92CF92DF92EF92AC
:10503000FF920F931F93CF93DF93CDB7DEB72A97DD
:105040000FB6F894DEBF0FBECDBF0E94E53E0E94B2
:10505000F43E0E94E82B46E069E180E00E94873E32
:1050600080E00E94DC3E0E944D3D60EA76E881E0EF
:1050700090E00E949A2AE1EBF8E222E432E43183E4
:1050800020833A968DB79EB70A97E817F907B8F3C9
:105090008DEA94E09F938F930E9491658EB30E9456
:1050A000E6270E94764A0E944047809194009091A2
:1050B0009500909351288093502881E08093442854
:1050C0000E94B84960E070E088EC92E00E94494A92
:1050D0000E94E3460E94A34B6FE77BE480E00E94BE
:1050E000CE3EE091FB14F091FC1419950E94D0275C
:1050F00090E00E94013F82EA93E19F938F930E9488
:105100007D650E94A42B80936A2790936B270F9054
:105110000F900F900F9080FF19C061E0CE010196B3
:105120000E94992BCE0101960E947C4F8A81082E05
:10513000000C990B982F88272885820F911D27FD39
:105140009A95909363278093622717C088EA93E12A
:105150000E94BF658CEF898382EC8A838DE38B8309
:105160001C821D821E8280916227909163279F83FB
:105170008887CE0101960E947C4F0E946F2A8C0185
:105180000E946B2AAE01475F5F4FB8010E945B42ED
:105190000E94DD290E94DD410E94732A0E94A143E2
:1051A00080EA94E09F938F930E9491658A8189871A
:1051B00088858A871F928F930CE914E01F930F93C1
:1051C0000E94916589851F928F931F930F930E9470
:1051D00091658AE994E09F938F930E9491650E9464
:1051E000274EE0917315F09174151995E0915D15B6
:1051F000F0915E151995E0914F15F09150151995A4
:105200000E94A343882E00917F1510918015F8010C
:1052100019950FB6F894DEBF0FBECDBF892B51F0A4
:10522000F8011995BC0180E890E00E94BE61162F3C
:10523000072F02C010E800E00E94DA41982EB090DB
:105240004D15A0904E15D0907115C0907215F0902C
:105250005B15E0905C150E9432401F928F920F9375
:105260001F931F929F92AF92BF92CF92DF92EF92C5
:10527000FF929F938F9386E494E09F938F930E9475
:10528000916585E394E09F938F930E94916588E3F5
:1052900093E10E9431478DE294E09F938F930E94A7
:1052A000916588EE93E0909361278093602784E076
:1052B0000E94DE2B0FB6F894DEBF0FBECDBF2A963C
:1052C0000FB6F894DEBF0FBECDBFDF91CF911F9117
:1052D0000F91FF90EF90DF90CF90BF90AF909F9095
:1052E0008F9008950E941128C0E1D4E00E94C8491F
:1052F0000E94FF3E8091602790916127009751F0B6
:1053000001979093612780936027892B19F484E09B
:105310000E94E32B8091642790916527009751F0BC
:1053200001979093652780936427892B19F482E075
:105330000E94E32B84E00E94E32B82E00E94E32B97
:105340000E947B3D00916627109167272091682776
:1053500030916927601771078207930739F20E941D
:105360007B3D6093662770936727809368279093AF
:105370006927DC01CB019370AA27BB270397A105FE
:10538000B10509F0B3CFE1EBF8E28081918182347D
:10539000924469F0E15BF842FF93EF93DF93CF9380
:1053A0000E9491650F900F900F900F909FCF3A96AB
:1053B000E53F81E8F80748F399CFEF92FF920F930A
:1053C0001F93CF93DF93CDB7DEB7A0970FB6F894B6
:1053D000DEBF0FBECDBF89EA92E00E94A566182FFE
:1053E000282F35EF380F303108F0982F9095291776
:1053F00009F463C089EE94E09F938F930E949165B6
:10540000EEE2F5E08E010F5F1F4FCE0109960F907F
:105410000F90D801780124912D933196A817B907E0
:10542000D1F7F89448E050E065EC72E0C8010E94C2
:10543000D366E0E2F5E0CE010F96D80124912D93DA
:105440003196A817B907D1F74EE050E067EB72E04C
:10545000C8010E94D366E6E1F5E0CE010B962491E7
:10546000D8012D938D013196A817B907C1F74AE0ED
:1054700050E06DEA72E0C7010E94D3666DEC7BEAF2
:1054800087EA92E00E94EB6660E070E085EA92E0D5
:105490000E94EB6660E084EA92E00E94DD6660E0D4
:1054A00070E08BEA92E00E94EB661AE16AE175EE29
:1054B00089EA92E00E94EB667894812FA0960FB65D
:1054C000F894DEBF0FBECDBFDF91CF911F910F913A
:1054D000FF90EF90089587EA92E00C94A56685EA24
:1054E00092E00C94A56684EA92E00C949D662FE10C
:1054F00030E08BE59EE041E951E020935101FA0153
:105500003197F1F76091510165FD0DC020313105F2
:1055100021F02CF08B54910903C084EC99E0C297E0
:1055200021503109EACF089580E090E0089581E0AC
:1055300090E008959B01AC011092B90060E074E224
:1055400084EF90E00E94D261DA01C9014097A1097D
:10555000B109B695A795979587958093B80008955A
:1055600094EA9093BC0040EA56E861E070E09091C4
:10557000BC0097FD07C04150510961097109B9F795
:1055800081E008959091B900987F983011F09031A2
:10559000B9F78093BB0084E88093BC0080EA96E86A
:1055A000A1E0B0E02091BC0027FD05C00197A10952
:1055B000B109C1F7E5CF8091B900887F883111F03A
:1055C0008034F1F680E0089524EA34E844E9209339
:1055D000BC009091BC0097FFFCCF9091B900987FE0
:1055E000983011F0903199F78093BB003093BC0054
:1055F0009091BC0097FFFCCF9091B900987F9032BA
:1056000011F0983539F44093BC009091BC0094FDA2
:10561000FCCFDDCF089584E98093BC008091BC006D
:1056200084FDFCCF08958093BB0084E88093BC0088
:105630008091BC0087FFFCCF9091B900987F81E0FA
:10564000983209F480E00895CF93C82F8CEE0E9421
:10565000B02A811103C08C2F0E94132BCF910C9480
:105660000B2B8093BB0084E88093BC008091BC002E
:1056700087FFFCCF0895CF93DF93D62FC42F0E94CE
:10568000B02A8D2F0E94312B8C2F0E94312BDF915D
:10569000CF910C940B2B84EC8093BC008091BC00C8
:1056A00087FFFCCF8091BB00089584E88093BC0005
:1056B0008091BC0087FFFCCF8091BB000895CF9202
:1056C000DF92EF92FF920F931F93CF93DF93C82F38
:1056D000D62FF42E152F022F0E94B02A8D2F0E9454
:1056E000312B8C2F81600E94B02ACF2DD12F10E05A
:1056F000E12CF12C680181E0C81AD108E016F1060E
:1057000071F0CE14DF0419F40E94552B02C00E94E0
:105710004B2B88838FEFE81AF80A2196EFCFDF91A1
:10572000CF911F910F91FF90EF90DF90CF900C944D
:105730000B2BAC01662319F028E068E902C020E1D8
:1057400060E880EB0C945F2BCF93DF930E94FF3EC9
:1057500080EB0E94B02A811105C00E940B2BC1E092
:10576000D0E002C0C0E0D0E00E94FF3E80E80E948E
:10577000B02A811103C00E940B2BC2608CEE0E94E4
:10578000B02A811103C00E940B2BC8600E94FF3E0B
:1057900082ED0E94B02A811103C00E940B2BC460CD
:1057A0000E94FF3E80ED0E94B02A811103C00E943A
:1057B0000B2BC061CE01DF91CF91089581FD7398CD
:1057C00082FD7498089581FD739A82FD749A0895FC
:1057D0006C9A6B9A87E00C94E32B80917B00886035
:1057E00080937B0089EC80937C0085E080937A0035
:1057F00080917A00806880937A0080917B0087FF97
:10580000FCCF80917B0085FFFCCF80917A00806483
:1058100080937A0080917A0086FDFCCF80917A0097
:10582000806480937A0080917A0086FDFCCF60913D
:1058300078007091790080917A008F7780937A0058
:1058400080E090E00E94936027ED33EA40E95FE357
:105850000E94456126E636E648E853E40E94795FF7
:1058600020E030E040E251E40E9445610E945D602A
:10587000CB01089580E090E0089581E090E00895E4
:1058800080937C0080917B00877F80937B00809158
:105890007C00806C80937C0085E080937A0080910E
:1058A0007A00806880937A0080917B0087FFFCCF2C
:1058B00080917B0085FFFCCF80917A00806480938B
:1058C0007A0080917A0086FDFCCF109279001092C8
:1058D000780024E030E080E090E040917A0040647D
:1058E00040937A0040917A0046FDFCCF40917800C9
:1058F00050917900840F951F2150310971F7109252
:105900007C0020917A002F7720937A0096958795D6
:1059100096958795089580E00E94402CBC0180E018
:1059200090E00E94936027ED34E34FEE5CE30E9429
:10593000456121EE3AE744E95EE30E947A5F08950B
:1059400081E00E94402CBC0180E090E00E949360C6
:1059500022E23FEF4CEC5BE30E944561089582E058
:105960000E94402CBC0180E090E00E94936022E203
:105970003FEF4CEC5BE30E944561089580E090E0CE
:105980000895009729F480916C2710926C2705C028
:105990008130910521F480916D2790E00895029760
:1059A00029F4809150169091511608958FEF9FEF32
:1059B000089552985A981DBAE9E6F0E08081806215
:1059C0008083EA9A53985B98EB9A80818068808301
:1059D000E8E6F0E080818160808380E090E00895D7
:1059E0001F920F920FB60F9211248F939F93809165
:1059F000680080FF0EC080916C278F5F80936C27BA
:105A00008091501690915116019690935116809363
:105A100050169F918F910F900FBE0F901F90189569
:105A20001F920F920FB60F9211248F9380916800EE
:105A300080FF05C080916D278F5F80936D278F91C8
:105A40000F900FBE0F901F90189581E090E0089581
:105A50005F98579A80EE91E00E94953D579880E4B8
:105A600090E00E94953D4F9909C08CE291E00E9420
:105A7000953D89B1881F8827881F089580E0089583
:105A80000E94282D80E090E00895CF93C82F579A68
:105A90005F9882E090E00E94953DCC2311F05798EA
:105AA0005F9A8CE390E00E94953D5F9A579882E060
:105AB00090E0CF910C94953DCF93579A5F9882E0F8
:105AC00090E00E94953D57985F9A8CE090E00E948C
:105AD000953DC9B182E390E00E94953D5F9A579849
