:100000000C94A5020C94C6020C94C6020C94552FB5
:100010000C94752F0C94C6020C94C6020C94C60264
:100020000C94C6020C94C6020C94C6020C94C60230
:100030000C94C6020C9412400C94C6020C94C60296
:100040000C94C6020C94C6020C94C6020C94C60210
:100050000C94C6020C94C6020C94C6020C94C60200
:100060000C94C6020C9494400C94C6020C94C602E4
:100070000C94C6020C94C6020C94C6020C94C602E0
:100080000C9462550C94C6020C94C6020C94C602E1
:100090000C94C3400C94C6020C94C6020C94C60285
:1000A0000C94C6020C94C6020C94C6020C94C602B0
:1000B0000C94C6020C94C6020C94C6020C94C602A0
:1000C0000C94C6020C94C6020C94C6020C94C60290
:1000D0000C94C6020C94C6020C94C6020C94C60280
:1000E0000C94C6020C94D2480C94C8480C947E48D8
:1000F0000C9446480C94DC480C94BE480C94B248CE
:100100000C94A6480C94C6020C94C6020C94C60229
:100110000C94C6020C94C6020C94C6020C94C6023F
:100120000C94C6020C94C6020C94C6020C94C6022F
:100130000C94C6026444704479447E448344BE44B3
:10014000C144BE44D447954798479B47A247D447EC
:10015000BC47D447C0479247924792479247C3470C
:10016000C647C947CE470C9479440C945C4F0C9415
:10017000262F0C949B470C94E73E0C9419450C9445
:1001800098470C94A52F0C9462450C9426500C941F
:10019000EB5A0C94C1440C9483440C940E310C948F
:1001A000C6470C9446500C94303D0C94EA3E0C9497
:1001B00052430C94FC2C0C9444470C94C2500C9465
:1001C000C9470C942D3D0C940B4F0C94DC2C0C94D3
:1001D0003E2F0C94994D0C9436520C9435500C943F
:1001E0003A500C94825B0C94BB300C9492470C9464
:1001F0004F040C948A2F0C94C6030C9437520C9421
:10020000F92C0C94CE470C9495470C9430500C94D8
:10021000344E0C94A0270C94522E0C94F0480C945D
:10022000D04A0C9443500C9494500C94C55B0C949D
:10023000085E0C943D500C941A460C9464440C9443
:100240002C3F0C94B4500C94DD5D0C942F3F0C9417
:1002500012040C94A22E0C94C55C0C94D4470C94FC
:100260009F410C94875E0C94166A0C9456440C942F
:100270000B440C947E440C94293F0C94AB310C94A9
:10028000C8020C948C0B0C9473410C94232F0C9487
:1002900084420C942B500C9481470C949B140C9426
:1002A00024410C94E15D0C94AD5F0C9417060C9402
:1002B000A2470C943D280C9470410C94E8480C948F
:1002C00032490C949F2E0C94C3470C9466420C94B4
:1002D0003C520C94BE440C94E43E0C94EB480C94B9
:1002E00071420C9405260C9421270C94B6500C9462
:1002F000FF4E0C943E500C9498300C94854F0C9407
:10030000053E0C94CD020C9449430C94AB4F0C94D5
:10031000165B0C94C0470C9470440C943B5B0C949B
:10032000BC476E616E00696E660000407A10F35A39
:1003300000A0724E18090010A5D4E80000E8764825
:10034000170000E40B54020000CA9A3B000000E1D1
:10035000F505000080969800000040420F00000064
:10036000A08601000000102700000000E803000044
:1003700000006400000000000A000000000001000E
:10038000000000002C76D888DC674F0823DFC1DF2F
:10039000AE59E1B1B796E5E3E453C63AE651997632
:1003A00096E8E6C28426EB898C9B62ED407C6FFC6C
:1003B000EFBC9C9F40F2BAA56FA5F490055A2AF7AE
:1003C0005C936B6CF9676DC11BFCE0E40D47FEF5B7
:1003D00020E6B500D0ED902E03009435770500801F
:1003E000841E080000204E0A000000C80C3333337E
:1003F000330F986E12831141EF8D2114893BE6551E
:1004000016CFFEE6DB18D1844B381BF77C1D901D00
:10041000A4BBE424203284725E228100C9F124EC62
:10042000A1E53D274E657665722D75736564207371
:100430007461636B203E2025642062797465730AC1
:10044000004F6E6C696E650A00526F7574696E6755
:1004500020456E61626C65640A0050414E3D307803
:1004600025582C204D41433D25732C205244433DBB
:1004700025732C204E4554574F524B3D25732C204D
:100480006368616E6E656C3D252D752C2063686513
:10049000636B2D726174652D487A3D252D752C2076
:1004A00074782D706F7765723D252D750A000A00EE
:1004B00025783A004D41432061646472657373206E
:1004C000000A2A2A2A2A2A2A2A20426F6F74696E71
:1004D000672057494D45412D494354204150504CC8
:1004E00049434154494F4E2056455253494F4E209F
:1004F000322E31202A2A2A2A2A2A2A0A0045455041
:10050000524F4D20697320636F72727570742C2086
:10051000726577726974696E6720776974682064A0
:10052000656661756C74732E0A006C6F63616C682C
:100530006F73740041544D454741323536726672CF
:100540003200020000FFFE00000111241FBECFEFA9
:10055000D1E8DEBFCDBF00E00CBF16E1A0E0B2E005
:10056000E6E4F0EE00E00BBF02C007900D92AC3C59
:10057000B107D9F72AE2ACECB6E101C01D92AD3269
:10058000B207E1F70E94D72B0C9421700C94000065
:10059000FC011182108283E00895AF92BF92CF9246
:1005A000DF92EF92FF920F931F93CF93DF93CDB71C
:1005B000DEB7C65AD1090FB6F894DEBF0FBECDBF65
:1005C0006C01162FB42EA52E633821F485E497E133
:1005D0000E944D4FF60180819181009741F084384F
:1005E0009340E9F0F6011182108283E0BDC040E43F
:1005F00054E161E870E085E497E10E94324FE091B8
:100600001F16F09120166AE170E081E090E01995E4
:1006100084E893E0F6019183808381E0A5C01538DA
:10062000E1F7F8944CE050E06CE872E0CE018157BD
:100630009F4F0E94BE6F7894EB2DFA2DDF010D9035
:100640000020E9F711977D01EE1AFF0A8E01055689
:100650001F4F4CE050E0BE0161577F4FC8010E9420
:10066000066E1F930F9387E293E09F938F931F92E1
:100670008EE18F93085911091F930F930E94206FE9
:10068000F82EAF92BF92809199281F928F938091FC
:1006900098281F928F93809197281F928F93809113
:1006A00096281F928F93809195281F928F93809107
:1006B00094281F928F93809193281F928F938091FB
:1006C00092281F928F9383E393E09F938F9389E106
:1006D0008E0D1F928F93C8018F0D911D9F938F9345
:1006E0000E94206F8F0DEE24E394E80EF801E80FCE
:1006F000F11D10820FB6F894DEBF0FBECDBFC8014A
:100700000E94F06E80910A02806189838091441773
:100710008A83F12CB7016E5F7F4FCE0101960E9454
:10072000C15185E497E10E944F4F809144178F5F3C
:10073000809344178BE593E09F938F931F9282E001
:100740008F93E00EF11EFF92EF920E94206FA8019E
:1007500065E88BE592E00E94EF4C0F900F900F90B0
:100760000F900F900F9054CFCA55DF4F0FB6F894EB
:10077000DEBF0FBECDBFDF91CF911F910F91FF90D4
:10078000EF90DF90CF90BF90AF9008950F931F939D
:10079000CF93DF938B010E946751EC0184E00E94AC
:1007A000FF519093A9288093A82883E00E94FF51CD
:1007B0008093C2289093C32821E030E030936117E2
:1007C0002093601729811F922F9328812F701F92E9
:1007D0002F939F938F938091A9288F938091A8281E
:1007E0008F93F80181811F928F9380811F928F9345
:1007F0002296DF93CF938EE593E09F938F930E9491
:10080000AE6E1092611710926017EDB7FEB770963A
:100810000FB6F894FEBF0FBEEDBFDF91CF911F91D1
:100820000F910895CF93DF93FC0120813181211531
:10083000310551F02038384029F0FC011182108236
:1008400083E02AC0653839F5EC010E946A41809145
:10085000601790916117892B21F083B7817F8660A3
:1008600002C083B7817F83BFF89483B7816083BF61
:100870007894889583B78E7F83BF789440E050E06A
:1008800065E88091CF189091D0180E94D24C80E8F2
:1008900098E09983888381E0DF91CF9108958F92CA
:1008A0009F92AF92BF92CF92DF92EF92FF920F93FF
:1008B0001F93CF93DF93CDB7DEB7C456D1090FB6E0
:1008C000F894DEBF0FBECDBF7C01FC018081918119
:1008D000009749F0813F910509F46EC0F70111823C
:1008E000108283E090C181E090E090936117809343
:1008F000601788E992E00E94D66F90933717809333
:10090000361740E05EE160E070E08AE297E10E9425
:10091000824B1092291710922817809128179091D6
:100920002917029734F700911B1610911C16F80135
:1009300019958091281790912917892B19F480E037
:1009400090E002C08FEF90E00E94E5438FE090E0DE
:100950009093271780932617C0901916D0901A16D7
:10096000809126179091271797FD14C0F6011995CD
:1009700080912617909127170E940C46F80119952F
:1009800080912617909127170197909327178093AE
:100990002617E6CF8091281790912917019709F023
:1009A00028C1109261171092601781EF90E0F70153
:1009B0009183808381E027C18AE297E10E94964B70
:1009C000892BC1F3CC24C394D12CD0926117C0924F
:1009D0006017809124179091251701969093251701
:1009E000809324170E94F02E9B01AC016CE370E011
:1009F00083EA9CE00E94DF288C011092611710921C
:100A000060172091201730912117409122175091A3
:100A10002317FC0160817181828193810E94DF66CE
:100A2000B62EA72E982E892EA5019401852F942FDE
:100A3000A32FB22F8093201790932117A0932217F2
:100A4000B0932317F8012085318542855385609145
:100A50001C1770911D1780911E1790911F170E94EF
:100A6000DF6660931C1770931D1780931E17909379
:100A70001F17F8012485358546855785609118171D
:100A80007091191780911A1790911B170E94DF66B9
:100A9000609318177093191780931A1790931B1768
:100AA0002091241730912517809136179091371790
:100AB0002817390709F099C06CE873E0CE01019658
:100AC0000E94FF6D17E18F929F92AF92BF9284EACE
:100AD00093E09F938F931F928DE08F9381E090E03E
:100AE0008C0F9D1F810F911D9F938F930E94206FEC
:100AF000180F80911F178F9380911E178F938091ED
:100B00001D178F9380911C178F9380EB93E09F9319
:100B10008F931F9202E10F9381E090E08C0F9D1F55
:100B2000810F911D9F938F930E94206F180F8091CA
:100B30001B178F9380911A178F93809119178F939A
:100B4000809118178F9381EC93E09F938F931F925E
:100B50000F9381E090E08C0F9D1F810F911D9F935B
:100B60008F930E94206F10922017109221171092DD
:100B700022171092231710921C1710921D17109213
:100B80001E1710921F171092181710921917109213
:100B90001A1710921B17810FE1E0F0E0EC0FFD1F18
:100BA000E80FF11D10821092611710926017E0910A
:100BB0001916F0911A161995AE014F5F5F4F65E84F
:100BC0008DE892E00E94EF4C1092251710922417A6
:100BD000D0926117C09260178AE297E10E948C4B15
:100BE0000FB6F894DEBF0FBECDBF8AE297E10E9438
:100BF0008C4B809128179091291701969093291773
:100C0000809328178ACECC59DF4F0FB6F894DEBFF9
:100C10000FBECDBFDF91CF911F910F91FF90EF904D
:100C2000DF90CF90BF90AF909F908F900895CF921C
:100C3000DF92EF92FF920F931F93CF93DF93CDB785
:100C4000DEB72C970FB6F894DEBF0FBECDBF8C0178
:100C5000FC01808191818530FAE09F0709F456C03C
:100C60008D302AE0920709F444C0892B09F049C06D
:100C70004CE050E06CE872E0CE0101967C010E94ED
:100C8000BE6F60E371E3C7010E94F46D009721F02D
:100C90008E199F0997FF15C081E090E0909361172E
:100CA0008093601740E052E360E070E08AE998E2E8
:100CB0000E94824B109261171092601785E09AE0B3
:100CC00014C081E090E0909361178093601740E832
:100CD00050E060E070E08AE998E20E94824B109256
:100CE0006117109260178DE09AE0F801918380837C
:100CF00006C088E396E20E94964B892BA1F481E01E
:100D00004BC0F8011182108283E046C088E396E26E
:100D10000E94964B892B99F381E090E090936117A4
:100D200080936017A5CF81E090E090936117809346
:100D30006017E091FE14F091FF1480E090E01995A7
:100D4000BC01990F880B990B0E94FA6720E030E0F4
:100D500040E250E40E94AF686B017C01609354173D
:100D600070935517809356179093571720915017EB
:100D70003091511740915217509153170E94AA6811
:100D800018160CF075CFC0925017D0925117E09200
:100D90005217F09253176CCF2C960FB6F894DEBF13
:100DA0000FBECDBFDF91CF911F910F91FF90EF90BC
:100DB000DF90CF900895F8944CE050E060E872E046
:100DC0008AED96E10E94BE6F78948AED96E10895CF
:100DD0004F925F926F927F928F929F92AF92BF924B
:100DE000CF92DF92EF92FF92CF93DF938091E6282C
:100DF00082FF7CC0C0911715D09118158BE090E050
:100E0000FE0119957C018AE090E0FE0119954C01E4
:100E100089E090E0FE011995092C000CAA08BB0896
:100E200025E1880C991CAA1CBB1C2A95D1F7092E18
:100E3000000CAA0BBB0BDC01992788272401350184
:100E4000482A592A6A2A7B2A88E090E0FE011995EF
:100E50004C01990FAA08BB084BE0880C991CAA1CEE
:100E6000BB1C4A95D1F784289528A628B72887E087
:100E700090E0FE0119956701FCEBCF1AF7E0DF0A5D
:100E80000D2C000CEE08FF08B701A601E9E1440FA4
:100E9000551F661F771FEA95D1F76C01990FEE0871
:100EA000FF08F5E0CC0CDD1CEE1CFF1CFA95D1F719
:100EB000C828D928EA28FB28C42AD52AE62AF72AEE
:100EC00086E090E0FE011995092E000CAA0BBB0BE1
:100ED000C2E0B695A79597958795CA95D1F7BC01BD
:100EE000CD016C297D298E299F2904C060E070E026
:100EF00081E29AE4DF91CF91FF90EF90DF90CF9065
:100F0000BF90AF909F908F907F906F905F904F9029
:100F1000089580ED93E00E94F06E8FE094E00E94CF
:100F2000F06E89E494E09F938F930E94AE6E80E60A
:100F300094E09F938F930E94AE6E8CE794E09F9312
:100F40008F930E94AE6E86E994E09F938F930E94E8
:100F5000AE6E8EEB94E09F938F930E94AE6E87ED02
:100F600094E09F938F930E94AE6E86E195E09F93ED
:100F70008F930E94AE6E83E495E09F938F930E94BF
:100F8000AE6E86E695E09F938F930E94AE6E83EAE5
:100F900095E09F938F930E94AE6E85ED95E09F93B1
:100FA0008F930E94AE6E8AE096E09F938F930E948B
:100FB000AE6E8AE296E09F938F930E94AE6E88E6B3
:100FC00096E09F938F930E94AE6E8091E6282DB796
:100FD0003EB7245E3F4F0FB6F8943EBF0FBE2DBF05
:100FE00082FF1AC081E090E09093611780936017B0
:100FF00082E996E09F938F930E94AE6E89ED96E012
:101000009F938F930E94AE6E10926117109260179B
:101010000F900F900F900F908AE090E00E94EA6E80
:1010200080E297E00C94F06ECF92DF92EF92FF9205
:101030000F931F93CF93DF93F89480EA92E00E947E
:10104000D66FD82EC92E8EE992E00E94D66FF82E68
:10105000E92E8CE992E00E94D66F182F092F8AE9B9
:1010600092E00E94D66FEC01789481E697E00E94AE
:10107000F06ECF92DF9280E897E09F938F930E946B
:10108000AE6EEF92FF928FE897E09F938F930E944E
:10109000AE6E0F931F938EE997E09F938F930E94FC
:1010A000AE6EDF93CF938DEA97E09F938F930E946C
:1010B000AE6E8DB79EB740960FB6F8949EBF0FBE2A
:1010C0008DBFDF91CF911F910F91FF90EF90DF9037
:1010D000CF900895F89488E992E00E94D66F7894B2
:1010E0009F938F938CEB97E09F938F930E94AE6EAC
:1010F0000F900F900F900F9008950F931F93CF9321
:10110000DF938C010E94BE6CEC01892B49F4F8013D
:101110008081803329F41F930F9389EE97E00BC0F1
:10112000F894BE0188E992E00E94FE6F7894DF9304
:10113000CF9383E498E09F938F930E94AE6E0F90BD
:101140000F900F900F90DF91CF911F910F91089505
:10115000CF92DF92EF92FF920F931F93CF93DF9383
:101160006C01F89480EA92E00E94D66FF82EE92E86
:101170008EE992E00E94D66F182F092F8CE992E039
:101180000E94D66FEC018AE992E00E94D66F7894B3
:10119000F6012081203329F4EF92FF9285E798E051
:1011A00012C0213329F40F931F9388E998E00BC0F4
:1011B000223329F4DF93CF938BEB98E004C09F9305
:1011C0008F938EED98E09F938F930E94AE6E0F9059
:1011D0000F900F900F90DF91CF911F910F91FF9083
:1011E000EF90DF90CF900895EF92FF920F931F93AF
:1011F000CF93DF938C017B010E94BE6CEC01892BA5
:1012000049F4F8018081803329F41F930F9381E022
:1012100099E037C0F7018081803361F4F894BE0112
:1012200080EA92E00E94FE6F7894DF93CF938AE584
:1012300099E027C0813361F4F894BE018EE992E011
:101240000E94FE6F7894DF93CF938BE799E019C0EB
:10125000823361F4F894BE018CE992E00E94FE6F43
:101260007894DF93CF938CE999E00BC0F894BE019A
:101270008AE992E00E94FE6F7894DF93CF938DEB22
:1012800099E09F938F930E94AE6E0F900F900F90F6
:101290000F90DF91CF911F910F91FF90EF900895E4
:1012A0008F929F92AF92BF92CF92DF92EF92FF9276
:1012B0000E94E63F6B017C018CE3882E912CA12CCF
:1012C000B12CC701B601A50194010E944C699F93FE
:1012D0008F937F936F93CA01B901A50194010E9476
:1012E0004C699F938F937F936F93C701B60120E161
:1012F0003EE040E050E00E944C69CA01B90128E19B
:1013000030E040E050E00E944C699F938F937F93C0
:101310006F93C701B60120E831E541E050E00E943B
:101320004C695F934F933F932F938EED99E09F937A
:101330008F930E94AE6E8DB79EB742960FB6F8940B
:101340009EBF0FBE8DBFFF90EF90DF90CF90BF90FC
:10135000AF909F908F9008950F931F93CF93DF933B
:10136000CDB7DEB72C970FB6F894DEBF0FBECDBF5A
:101370004CE050E0BC018E010F5F1F4FC8010E947E
:10138000066EF8944CE050E06CE872E0C8010E94F0
:10139000DC6F61E070E082E190E00E94FE6F789483
:1013A0001F930F9383E29AE09F938F930E94AE6EF8
:1013B0000F900F900F900F902C960FB6F894DEBF01
:1013C0000FBECDBFDF91CF911F910F9108950F9365
:1013D0001F93CF93DF93CDB7DEB72C970FB6F8945A
:1013E000DEBF0FBECDBFF89482E190E00E94D66FC1
:1013F000019729F08CE39AE00E94F06E16C04CE051
:1014000050E06CE872E08E010F5F1F4FC8010E9430
:10141000BE6F1F930F938FE49AE09F938F930E9468
:10142000AE6E0F900F900F900F9078942C960FB691
:10143000F894DEBF0FBECDBFDF91CF911F910F910A
:101440000895EF92FF920F931F93CF93DF93C09174
:101450001715D091181586E090E0FE011995F82E29
:10146000E92E87E090E0FE011995182F092F88E0FA
:1014700090E0FE011995EF92FF920F931F939F93B7
:101480008F938FE59AE09F938F931F928FE08F93B6
:1014900085EF96E19F938F930E94206F8DB79EB743
:1014A0000C960FB6F8949EBF0FBE8DBF85EF96E1E8
:1014B000DF91CF911F910F91FF90EF900895EF92E0
:1014C000FF920F931F93CF93DF93C0911715D09185
:1014D00018158BE090E0FE011995F82EE92E8AE0B0
:1014E00090E0FE011995182F092F89E090E0FE0188
:1014F0001995EF92FF920F931F939F938F938EE610
:101500009AE09F938F931F928FE08F9386EE96E1E0
:101510009F938F930E94206F8DB79EB70C960FB646
:10152000F8949EBF0FBE8DBF86EE96E1DF91CF91FE
:101530001F910F91FF90EF900895CF92DF92EF925D
:10154000FF920F931F93CF93DF93CDB7DEB72C9706
:101550000FB6F894DEBF0FBECDBFD82EC92E162F02
:1015600049E050E0682F792FCE0101960E94066E67
:10157000CE010D967C01111148C06DE77AE00C9701
:101580000E94C86D8E01065F1F4F009779F0E0162C
:10159000F10661F00E94BE6CF80181938F016DE746
:1015A0007AE080E090E00E94C86DEFCF6A858FEF0F
:1015B000860F8F3128F0CF92DF928FE79AE069C0D3
:1015C000EB848FEF8E0D8C30B0F7FC84F3E6FF15C3
:1015D00094F30091191510911A1570E083E090E0D2
:1015E000F80119956E2D70E084E090E0F8011995EE
:1015F0006F2D70E085E090E0F80119950E945F0A78
:101600009F938F9386EB9AE044C064EC7AE0CE011E
:1016100001960E94C86D8E01065F1F4F009779F0FA
:101620000E151F0561F00E94BE6CF80181938F01B9
:1016300064EC7AE080E090E00E94C86DEFCF6A85AC
:10164000693128F0CF92DF9286EC9AE022C0EB84D9
:10165000FCE3FE15B8F3FC84FF15A0F30091191507
:1016600010911A1570E082E090E0F80119956E2D46
:1016700070E081E090E0F80119956F2D70E080E056
:1016800090E0F80119950E94210A9F938F938DEFA6
:101690009AE09F938F930E94AE6E0F900F900F90E1
:1016A0000F902C960FB6F894DEBF0FBECDBFDF9122
:1016B000CF911F910F91FF90EF90DF90CF90089501
:1016C000F89444E650E06CEA71E08BE092E00E940E
:1016D000DC6F78940895F89444E650E068E471E093
:1016E0008BE092E00E94DC6F78940895F89444E6D1
:1016F00050E064EE70E08BE092E00E94DC6F789442
:101700000895F89444E650E060E870E08BE092E0E1
:101710000E94DC6F789408952F923F924F925F92CF
:101720006F927F928F929F92AF92BF92CF92DF92F1
:10173000EF92FF920F931F93CF93DF93CDB7DEB756
:101740006C970FB6F894DEBF0FBECDBF9A8F898F0E
:1017500085E0EBE0FBE0DE011D9601900D928A959D
:10176000E1F787E0FE017296DF01982F1D929A95AE
:10177000E9F795E0E0E1FBE0DE01119601900D92C2
:101780009A95E1F7FE013696DF011D928A95E9F7F9
:1017900010925D1710925C1710925B1710925A17F7
:1017A00010925917109258171092611710926017E3
:1017B000E98DFA8D80819181892B09F02BC161E03F
:1017C00082E998E20E94FE2DF89481E090E09093E7
:1017D00061178093601760915C1770915D1786E0C8
:1017E00090E00E94FE6F60915A1770915B1784E041
:1017F00090E00E94FE6F609158177091591782E037
:1018000090E00E94FE6F8AE190E00E94D66F4C014A
:1018100088E190E00E94D66F5C0186E190E00E9432
:10182000D66F6C0184E190E00E94D66F7C0180E16C
:1018300090E00E94D66F8C018EE090E00E94D66FFF
:101840003C018CE090E00E94D66F2C018AE090E091
:101850000E94D66F1C0188E090E00E94D66F9C8F9A
:101860008B8F80E090E00E94D66F019761F06EE16F
:1018700070E088E992E00E94FE6F61E070E080E035
:1018800090E00E94FE6F8A94892861F06CE370E01A
:1018900080EA92E00E94FE6F61E070E08AE190E0F1
:1018A0000E94FE6FAA94AB2861F060E070E08EE9C0
:1018B00092E00E94FE6F61E070E088E190E00E949B
:1018C000FE6FCA94CD2861F060E070E08CE992E090
:1018D0000E94FE6F61E070E086E190E00E94FE6F82
:1018E000EA94EF2861F060E070E08AE992E00E94FB
:1018F000FE6F61E070E084E190E00E94FE6F0130D5
:101900001105B1F061E070E080E190E00E94FE6FAF
:101910004CE050E060E872E0CE010D960E94DC6F72
:101920004CE050E064E772E0CE0101960E94DC6F6B
:101930006A946728C1F00E94600B61E070E08EE05D
:1019400090E00E94FE6F4CE050E060E872E0CE0153
:101950000D960E94DC6F4CE050E064E772E0CE012F
:1019600001960E94DC6F4A944528C1F00E946B0BDF
:1019700061E070E08CE090E00E94FE6F4CE050E08F
:1019800060E872E0CE010D960E94DC6F4CE050E002
:1019900064E772E0CE0101960E94DC6F2A9423284E
:1019A000C1F00E94760B61E070E08AE090E00E9456
:1019B000FE6F4CE050E060E872E0CE010D960E94B0
:1019C000DC6F4CE050E064E772E0CE0101960E94CB
:1019D000DC6F8B8D9C8D0197C1F00E94810B61E0C3
:1019E00070E088E090E00E94FE6F4CE050E060E81C
:1019F00072E0CE010D960E94DC6F4CE050E064E78F
:101A000072E0CE0101960E94DC6F10926117109275
:101A100060177894A98DBA8D1D921C9283E06C9604
:101A20000FB6F894DEBF0FBECDBFDF91CF911F91EF
:101A30000F91FF90EF90DF90CF90BF90AF909F906D
:101A40008F907F906F905F904F903F902F90089570
:101A5000AF92BF92CF92DF92EF92FF920F931F93BC
:101A6000CF93DF93CDB7DEB7C059D1400FB6F8940E
:101A7000DEBF0FBECDBFF8946E0183EDC81A8EEFA6
:101A8000D80A44E650E06CEA71E0C6010E94BE6FDD
:101A90007E0199ECE90EF11C44E650E068E471E047
:101AA000C7010E94BE6F8E010B591F4F44E650E0E4
:101AB00064EE70E0C8010E94BE6F44E650E060E84A
:101AC00070E0CE0101965C010E94BE6F7894DF92B7
:101AD000CF9285E19BE09F938F930E94AE6EFF9221
:101AE000EF9284E29BE09F938F930E94AE6E1F93D0
:101AF0000F9383E39BE09F938F930E94AE6EBF9200
:101B0000AF9282E49BE09F938F930E94AE6E81E53B
:101B10009BE00E94F06E0FB6F894DEBF0FBECDBF03
:101B2000C057DE4F0FB6F894DEBF0FBECDBFDF91BA
:101B3000CF911F910F91FF90EF90DF90CF90BF90CA
:101B4000AF900895EF92FF920F931F93CF93DF937F
:101B50007C018701F701C081FFEFEF1AFF0A8C2F8C
:101B600090E00E94B46D892BA1F7CC2391F0E8019D
:101B700009900020E9F722970C171D0710F0198231
:101B800008C0888190E00E94B46D892BC1F3219731
:101B9000F3CFC801DF91CF911F910F91FF90EF908C
:101BA00008951F93CF93DF93CDB7DEB72C970FB671
:101BB000F894DEBF0FBECDBF182F4CE050E0CE0131
:101BC00001960E94066EF8944CE050E0113019F432
:101BD00060E872E002C064E772E0CE0101960E9404
:101BE000DC6F78942C960FB6F894DEBF0FBECDBF95
:101BF000DF91CF911F910895813011F40C94DB0691
:101C0000F8944CE050E064E772E08EEC96E10E94BC
:101C1000BE6F78948EEC96E108958F929F92AF926A
:101C2000BF92CF92DF92EF92FF920E94E63F6B014C
:101C30007C0181E39CE00E94F06E82E00E94FC0D3A
:101C4000B82EA92E0E94DB06AF92BF929F938F936E
:101C50008AE79CE09F938F930E94AE6E8BE092E0A8
:101C60009F938F9384EA9CE09F938F930E94AE6E24
:101C70000E94140842E169EB7CE080913626909145
:101C800037260E94FA3B2DB73EB7265F3F4F0FB66F
:101C9000F8943EBF0FBE2DBF892B19F484EC9CE055
:101CA00002C08EED9CE00E94F06E0E94E7098091D8
:101CB000E62882FF1CC00E945F0A9F938F9387EFE4
:101CC0009CE09F938F930E94AE6E0E94210A9F9387
:101CD0008F9389E09DE09F938F930E94AE6E8DB7A6
:101CE0009EB708960FB6F8949EBF0FBE8DBF8CE3CB
:101CF000882E912CA12CB12CC701B601A50194010D
:101D00000E944C699F938F937F936F93CA01B9018F
:101D1000A50194010E944C699F938F937F936F93C9
:101D2000C701B60120E13EE040E050E00E944C696E
:101D3000CA01B90128E130E040E050E00E944C695E
:101D40009F938F937F936F93C701B60120E831E58E
:101D500041E050E00E944C695F934F933F932F9373
:101D60008BE19DE09F938F930E94AE6E0E94280DA1
:101D70002DB73EB72E5E3F4F0FB6F8943EBF0FBE55
:101D80002DBF87E59DE0FF90EF90DF90CF90BF9053
:101D9000AF909F908F900C94F06ECF92DF92EF9265
:101DA000FF920F931F93CF93DF93CDB7DEB7689762
:101DB0000FB6F894DEBF0FBECDBF8C0184E190E07A
:101DC0000E94436B6C0143E150E0B8010E94066E33
:101DD00060EA7DE0C6010E94C86D8E01035F1F4F5F
:101DE0004BE050E0BC01C8010E94066E60EA7DE055
:101DF00080E090E00E94C86D4BE050E0BC01CE0155
:101E000001967C010E94066E45E050E0B8018BE02F
:101E10009BE00E942A6E892B61F48981882349F016
:101E2000B70181E00E94D10DFF92EF9282EA9DE01E
:101E300019C045E050E0B80180E19BE00E942A6EA5
:101E4000892B61F48981882349F0B70182E00E94DF
:101E5000D10DFF92EF9288EB9DE004C01F930F938A
:101E60008EEC9DE09F938F930E94AE6E0F900F902B
:101E70000F900F90C60168960FB6F894DEBF0FBEA4
:101E8000CDBFDF91CF911F910F91FF90EF90DF9029
:101E9000CF900C94DB6B2F923F924F925F926F9298
:101EA0007F928F929F92AF92BF92CF92DF92EF92EA
:101EB000FF920F931F93CF93DF93CDB7DEB7C65139
:101EC000D1400FB6F894DEBF0FBECDBFCB5EDE4F64
:101ED0008883C551D140CA5EDE4F9883C651D14038
:101EE000CD5EDE4F79836883C351D1408A01CF5ED6
:101EF000DE4F39832883C151D14084E690E00E94AF
:101F0000436B3C0182E2E9EFF2E0DE01A551BF4FF5
:101F100001900D928A95E1F7F894CF5EDE4FA8818B
:101F2000B981C151D1408C91803329F444E650E00D
:101F30006CEA71E014C0813329F444E650E068E4AF
:101F400071E00DC0823329F444E650E064EE70E0A5
:101F500006C0833349F444E650E060E870E0CE0107
:101F60008B599F4F0E94BE6F7894FE01319684E694
:101F7000DF011D928A95E9F744E650E0BE016B59F6
:101F80007F4FC3010E94066E68E579E0C3010E949D
:101F9000C86D1E01B9EC2B0E311C7101412C512C66
:101FA000009781F00E94A20DF701819391937F0128
:101FB000FFEF4F1A5F0A68E579E080E090E00E9449
:101FC000C86DEECF0130110509F088C0CB5EDE4F41
:101FD0000881C551D140CA5EDE4F1881C651D1403B
:101FE000E12CF12CCD5EDE4FE881F981C351D14067
:101FF000EE16FF060CF044C04101C12CD12CAA24DE
:10200000A394B12C4C145D04C9F0D8016D917C915E
:10201000FB0101900020E9F73197AF01461B570BF8
:10202000F401819191914F010E942A6E892B11F444
:10203000A12CB12CFFEFCF1ADF0AE4CFAA94AB2872
:10204000C9F4D801AD90BC90F50101900020E9F7EA
:1020500031976F01CA18DB0868E579E0CE018B592A
:102060009F4F0E94E96DA601B501CE018B599F4F8C
:102070000E941A6EBFEFEB1AFB0A0E5F1F4FB2CF22
:10208000A6968FADA697882309F439C1F894CF5E40
:10209000DE4FA881B981C151D1408C91803329F4A0
:1020A00044E650E06CEA71E015C0813329F444E65F
:1020B00050E068E471E00EC0823329F444E650E059
:1020C00064EE70E007C0833309F018C144E650E0C5
:1020D00060E870E0CE018B599F4F0EC1012B09F0D3
:1020E0000EC1812C912CA12CB12CA414B50409F49F
:1020F000DBC0CB5EDE4FE881C551D140C35FDE4F10
:10210000E883CD50D140CA5EDE4FF881C651D14040
:10211000C25FDE4FF883CE50D140E12CF12C81E03C
:1021200090E0C15FDE4F99838883CF50D140CD5E70
:10213000DE4F88819981C351D140E816F9060CF031
:1021400044C0F10100811181F80101900020E9F7FC
:102150003197AF01401B510BC35FDE4FA881B9819E
:10216000CD50D140CD90DD90C35FDE4FB983A883C1
:10217000CD50D140B601C8010E942A6E892B09F5C5
:10218000F80180818435B9F445E050E064EF7BE0EC
:10219000C6010E942A6E31E020E0892B09F030E070
:1021A000C15FDE4F3883CF50D140C05FDE4F288300
:1021B000C051D14006C0C15FDE4F19821882CF5096
:1021C000D140FFEFEF1AFF0AB2CFD1010D911D915F
:1021D0001D017E01BBEEEB0EF11CF701B496C35F4F
:1021E000DE4FF983E883CD50D140C12CD12CF601CC
:1021F000EE0FFF1F8BEE90E08C0F9D1FE80FF91F75
:10220000A081B181FD0101900020E9F73197AF0174
:102210004A1B5B0BD7016D917D917D01C8010E9426
:102220002A6E892B19F4CC24C394D12CC35FDE4FC2
:10223000E881F981CD50D140EE16FF06C1F6C15FAD
:10224000DE4F88819981CF50D140019749F5CA94DA
:10225000CD2831F5F80101900020E9F781149104AF
:1022600061F4AF01401B510BB801CE0101960E94F1
:10227000066E88248394912C10C031977F01E01A58
:10228000F10A68E579E0CE0101960E94E96DA701A7
:10229000B801CE0101960E941A6EAFEF8A1A9A0A0F
:1022A000BFEFAB1ABB0A21CF8981882341F1F89493
:1022B000CF5EDE4FA881B981C151D1408C9180336E
:1022C00029F444E650E06CEA71E014C0813329F44B
:1022D00044E650E068E471E00DC0823329F444E63E
:1022E00050E064EE70E006C0833341F444E650E011
:1022F00060E870E0CE0101960E94DC6F7894C30123
:10230000CA5EDE4F0FB6F894DEBF0FBECDBFDF91C1
:10231000CF911F910F91FF90EF90DF90CF90BF90E2
:10232000AF909F908F907F906F905F904F903F9075
:102330002F900C94DB6B2F923F924F925F926F9293
:102340007F928F929F92AF92BF92CF92DF92EF9245
:10235000FF920F931F93CF93DF93CDB7DEB7C45196
:10236000D1400FB6F894DEBF0FBECDBFCF5EDE4FBB
:102370008883C151D140CE5EDE4F9883C251D14097
:10238000C15FDE4F79836883CF50D14084E690E00F
:102390000E94436B6C0184E690E00E94436B3C0119
:1023A00082E2E9EFF2E0DE01A551BF4F01900D920C
:1023B0008A95E1F7F894C15FDE4FA881B981CF50CB
:1023C000D1408C91803329F444E650E06CEA71E00E
:1023D00014C0813329F444E650E068E471E00DC094
:1023E000823329F444E650E064EE70E006C08333A3
:1023F00049F444E650E060E870E0CE018B599F4F0D
:102400000E94BE6F7894FE01319684E6DF011D9232
:102410008A95E9F744E650E0CF5EDE4F6881C1510E
:10242000D140CE5EDE4F7881C251D140C3010E94BF
:10243000066E68E579E0C3010E94C86D8E010753FE
:102440001F4F212C312C009781F00E94A20DF80122
:10245000819391938F01FFEF2F1A3F0A68E579E08E
:1024600080E090E00E94C86DEECF44E650E0BE01EF
:102470006B597F4FC6010E94066E68E579E0C60180
:102480000E94C86D412C512C2BEE30E02C0F3D1FCB
:102490002C5D3F4FCD5EDE4F39832883C351D14041
:1024A000009709F47DC00E94A20D7C01FC010190FF
:1024B0000020E9F731978F01081B190BCE018753D4
:1024C0009F4F4C01A12CB12CA1E0B0E0C35FDE4FC7
:1024D000B983A883CD50D1402A143B04A1F0A801B0
:1024E000B701F401819191914F010E942A6E892BCD
:1024F00031F4C35FDE4F19821882CD50D140FFEF17
:10250000AF1ABF0AE9CF9E0125513F4F5901812CD7
:10251000912CA801B701D5018D919D915D010E947B
:102520002A6E892B19F488248394912CCD5EDE4F7A
:10253000E881F981C351D140EA15FB0551F7C35F2A
:10254000DE4F28813981CD50D1402130310509F548
:102550008A948928F1F44114510461F4A8014F5F71
:102560005F4FB701CE0101960E94066E442443944A
:10257000512C0FC068E579E0CE0101960E94E96D0B
:10258000A801B701CE0101960E941A6E8FEF481A7A
:10259000580A68E579E080E090E00E94C86D80CF3D
:1025A000F89489818823E1F1C15FDE4FA881B98168
:1025B000CF50D1408C91803329F444E650E06CEA4E
:1025C00071E014C0813329F444E650E068E471E01E
:1025D0000DC0823329F444E650E064EE70E006C09A
:1025E000833341F444E650E060E870E0CE010196A8
:1025F0000E94DC6FCE5EDE4FB881C251D140BF93E6
:10260000CF5EDE4FE881C151D140EF938CEE9DE06B
:102610009F938F930E94AE6E0F900F900F900F902C
:102620007894C6010E94DB6BC301CC5EDE4F0FB60F
:10263000F894DEBF0FBECDBFDF91CF911F910F91F8
:10264000FF90EF90DF90CF90BF90AF909F908F90D2
:102650007F906F905F904F903F902F900C94DB6B2A
:102660002F923F924F925F926F927F928F929F92A2
:10267000AF92BF92CF92DF92EF92FF920F931F9390
:10268000CF93DF93CDB7DEB7CE5AD1090FB6F8940A
:10269000DEBF0FBECDBFC555DF4F8883CB5AD040BC
:1026A000C455DF4F9883CC5AD040C755DF4F79834C
:1026B0006883C95AD04084E690E00E94436B7C0155
:1026C00084E690E00E94436B6C0182E2E9EFF2E065
:1026D000DE01A957BF4F01900D928A95E1F7F8945A
:1026E000C755DF4FE881F981C95AD04080818033D6
:1026F00029F444E650E06CEA71E014C0813329F417
:1027000044E650E068E471E00DC0823329F444E609
:1027100050E064EE70E006C0833341F444E650E0DC
:1027200060E870E0CE0101960E94BE6F789444E6A6
:1027300050E0BE016F5F7F4FC7010E94066E68E5E3
:1027400079E0C7010E94C86D8E010B591F4F412CC3
:10275000512C009781F00E94A20DF8018193919372
:102760008F01FFEF4F1A5F0A68E579E080E090E0A3
:102770000E94C86DEECF44E650E0C555DF4F68813A
:10278000CB5AD040C455DF4F7881CC5AD040C601D7
:102790000E94066E68E579E0C6010E94C86D27E8D0
:1027A00030E02C0F3D1F2C5D3F4FC355DF4F398369
:1027B0002883CD5AD040009709F45CC00E94A20D36
:1027C0008C01FC0101900020E9F731973F01681A64
:1027D000790ACE018B599F4F4C01A12CB12C222498
:1027E0002394312C4A145B0481F0A301B801F40155
:1027F000819191914F010E942A6E892B11F4212C15
:10280000312CFFEFAF1ABF0AEDCF9E0129573F4F82
:102810005901812C912CA301B801F501819191916D
:102820005F010E942A6E892B19F488248394912CCD
:10283000C355DF4F28813981CD5AD0402A153B0539
:1028400051F72A94232879F48A94892861F468E559
:1028500079E0CE0101960E94E96DA301B801CE0195
:1028600001960E941A6E68E579E080E090E00E948F
:10287000C86DA1CF8981882309F43EC0F894C7555B
:10288000DF4FE881F981C95AD0408081803329F433
:1028900044E650E06CEA71E014C0813329F444E668
:1028A00050E068E471E00DC0823329F444E650E062
:1028B00064EE70E006C0833341F444E650E060E823
:1028C00070E0CE0101960E94DC6F7894C455DF4F12
:1028D000F881CC5AD040FF93C555DF4F2881CB5AA1
:1028E000D0402F9386E19EE09F938F930E94AE6E1F
:1028F0000F900F900F900F90C6010E94DB6BC701E5
:10290000C255DF4F0FB6F894DEBF0FBECDBFDF91CB
:10291000CF911F910F91FF90EF90DF90CF90BF90DC
:10292000AF909F908F907F906F905F904F903F906F
:102930002F900C94DB6B8F929F92AF92BF92CF92AD
:10294000DF92EF92FF920F931F93CF93DF931F922B
:102950001F92CDB7DEB76C01CA01F601208131812B
:102960002115310549F12E3A324029F0F601118244
:10297000108283E03BC22091E429261326C0BE01C9
:102980006F5F7F4F0E94C86D8C0181E090E0909353
:10299000611780936017F801B080F8E6BF1217C086
:1029A000F80101900020E9F7CF0102978017910705
:1029B00009F017C20E9489071092611710926017E0
:1029C0008EEA92E0F6019183808381E00FC242E0BB
:1029D00050E06EE67EE0C8010E942A6E892B09F065
:1029E0004BC0F80101900020E9F7CF010397801751
:1029F000910719F40E941408DFCFF8018381833214
:102A0000B1F584818053843028F586E090E00E94FF
:102A1000436B7C0146E050E0B8016C5F7F4F0E9441
:102A2000066EF8018581882389F086E090E00E9497
:102A3000436B5C01B8016B5F7F4F46E050E00E9442
:102A4000066EB701C5010E94F40875C1C7010E9456
:102A5000A808C3C11F930F9381E79EE09F938F93B4
:102A60000E94AE6E0F900F900F900F90A5CF1F9306
:102A70000F938CEA9EE0F2CF42E050E060E476E112
:102A8000C8010E942A6E892B19F40E940D0E94CF62
:102A900043E050E061EE7EE0C8010E942A6E892B7F
:102AA00029F5F80101900020E9F7CF01049780177C
:102AB000910719F40E946A087FCFF8018481882366
:102AC00081F086E090E00E94436B7C01B8016C5F6E
:102AD0007F4F46E050E00E94066EC7010E947D08CD
:102AE0007CC11F930F9385EE9EE0B8CF44E050E089
:102AF0006EE17FE0C8010E942A6E892BE1F4F801A3
:102B000001900020E9F73197E01BF10B359780F039
:102B10008CE090E00E94436B7C01B8016B5F7F4FBB
:102B20004CE050E00E94066EC7010E94AC0955C1FE
:102B30000E94E70941CFF5E7BF1203C00E94500988
:102B40003BCF44E050E063E27FE0C8010E942A6E80
:102B5000892B39F5F80101900020E9F73197E01B46
:102B6000F10BE430F10539F40E945F0A9F938F93D3
:102B700088E29FE073CF3597399770F489E090E051
:102B80000E94436B7C01B8016B5F7F4F49E050E0CE
:102B90000E94066E60E02FC01F930F9382E39FE0B8
:102BA0005DCF44E050E061E974E0C8010E942A6E04
:102BB000892B51F5F80101900020E9F73197E01BCE
:102BC000F10BE430F10539F40E94210A9F938F93B1
:102BD00083E69FE043CF3597399788F489E090E00A
:102BE0000E94436B7C01B8016B5F7F4F49E050E06E
:102BF0000E94066E61E0C7010E949D0AEEC01F930D
:102C00000F938DE69FE02ACF42E050E062EC75E141
:102C1000C8010E942A6E892B09F091C0F801019029
:102C20000020E9F7CF0103978017910719F40E945C
:102C3000280DC2CE84E690E00E94436B5C0144E61E
:102C400050E0B8016D5F7F4F0E94066EF5018081F4
:102C50008053863008F06BC084E690E00E94436B9E
:102C60007C0144E650E0B8016C5F7F4F0E94066E25
:102C700044E050E06EE97FE0C7010E942A6E892B94
:102C800059F40E94600B0E946B0B0E94760B0E940D
:102C9000810B0E94280D4FC0F70180818823D1F15C
:102CA00084E690E00E94436B4C01B8016B5F7F4F5C
:102CB00044E650E00E94066EF70180818B3259F4A1
:102CC000B501C4010E94301383EA9FE00E94F06EB8
:102CD0000E94280D1DC08D3299F4B501C4010E94D7
:102CE0009B11FF92EF9287EC9FE09F938F930E943E
:102CF000AE6E0E94280D0F900F900F900F9008C09D
:102D00000E94280DC5010E94DB6BC7010E94DB6B8E
:102D1000C4010AC081EF9FE00E94F06E0E94280D5E
:102D2000C5010E94DB6BC7010E94DB6B04C084E01D
:102D300090E10E94F06EC5010E94DB6B4EC045E041
:102D400050E069E270E1C8010E942A6E892B09F007
:102D500048C0F80101900020E9F7CF0106978017DD
:102D60009107D9F40E94DB069F938F938FE290E145
:102D70009F938F930E94AE6E82E00E94FC0D9F9302
:102D80008F9388E390E19F938F930E94AE6E0FB66E
:102D9000F894DEBF0FBECDBF0FCE84E190E00E945D
:102DA000436B7C01B8016A5F7F4F43E150E00E94B2
:102DB000066EF7018081882321F0C7010E94CD0EA5
:102DC0000CC0FF92EF9281E490E19F938F930E9459
:102DD000AE6E0F900F900F900F90C7010E94DB6BAB
:102DE000EBCD1F930F938CE39EE038CE0F900F90A6
:102DF000DF91CF911F910F91FF90EF90DF90CF90D7
:102E0000BF90AF909F908F900895CF93DF93CDB7F1
:102E1000DEB7C85CD1090FB6F894DEBF0FBECDBFD8
:102E200044E650E0BC01CE0101960E94066EF89483
:102E300044E650E06CE170E0CE0101960E94DC6F48
:102E4000789481E090E090935F1780935E17C85369
:102E5000DF4F0FB6F894DEBF0FBECDBFDF91CF912D
:102E600008952F923F924F925F926F927F928F922E
:102E70009F92AF92BF92CF92DF92EF92FF920F9309
:102E80001F93CF93DF93CDB7DEB7C853D1400FB6B2
:102E9000F894DEBF0FBECDBFF89444E650E06CEA74
:102EA00071E0CE018B599F4F0E94BE6F789468E508
:102EB00079E0CE018B599F4F0E94C86D7C0110E0D4
:102EC000C090E115D090E215C35DDE4FD982C88273
:102ED000CD52D140C15DDE4FD982C882CF52D140A0
:102EE00016018091FE149091FF14CF5CDE4F998300
:102EF0008883C153D140A090F615B090F7154501D5
:102F0000E0912E16F0912F16CD5CDE4FF983E88309
:102F1000C353D14040900B1550900C156090DF14B6
:102F20007090E0148091F0149091F114CB5CDE4F1E
:102F300099838883C553D140C95CDE4F798268820A
:102F4000C753D140E114F10409F4D5C40E94F02E16
:102F500020E030E040E350E40E944B6787FF54C01C
:102F6000C7010E94A20D45E050E064EF7BE00E94A3
:102F70002A6E892B39F4E091F014F091F11480E07D
:102F800090E055C0C7010E94A20D45E050E06AEFF5
:102F90007BE00E942A6E892B49F480E090E0C95CB6
:102FA000DE4FE881F981C753D14063C0C7010E9459
:102FB000A20D44E050E06FEE7BE00E942A6E892B68
:102FC00009F04BC40E94F02E9F938F937F936F93D1
:102FD00080E990E19F938F931F928BE08F9389EC10
:102FE00090E08C0F9D1F810F911D9F938F930E94E6
:102FF000206F180F8DE990E10E9405170FB6F89425
:10300000DEBF0FBECDBF29C4C7010E94A20D45E09F
:1030100050E064EF7BE00E942A6E892BE1F480E0AF
:1030200090E0CB5CDE4FE881F981C553D140199522
:10303000BC01990F880B990B0E94FA6720E030E0E1
:1030400040E251E40E9450679F938F937F936F9368
:1030500084E790E110C1C7010E94A20D45E050E055
:103060006AEF7BE00E942A6E892BD9F480E090E021
:10307000F3011995BC01990F880B990B0E94FA670F
:1030800020E030E04AE754E40E9450679F938F931A
:103090007F936F9382E890E19F938F931F928BE0D1
:1030A000B9C3C7010E94A20D44E050E06FEE7BE07F
:1030B0000E942A6E892B49F40E94F02E9F938F93D1
:1030C0007F936F9380E990E1E7CFC7010E94A20D43
:1030D00045E050E06BE07BE00E942A6E892B21F5F1
:1030E0000E94052F2AE939E949E15EE30E944B6716
:1030F00087FF03C083EA90E1AEC30E94052F20E062
:1031000030E040EA50E40E94AA6818169CF30E943E
:10311000052F9F938F937F936F938FEA90E19F93F7
:103120008F931F928FE076C3C7010E94A20D45E0E6
:1031300050E060E17BE00E942A6E892B21F50E941D
:10314000052F2AE939E949E15EE30E944B6787FFD1
:1031500003C08AEB90E17FC30E94052F20E030E09E
:1031600040EA50E40E94AA6818169CF30E94142FAB
:103170009F938F937F936F9386EC90E19F938F93B0
:103180001F928DE047C3C7010E94A20D42E050E0AC
:103190006CEE7BE00E942A6E892B09F04AC080E029
:1031A00090E0F2011995BC01990F880B990B0E94D0
:1031B000FA6720E030E048EC52E40E94506720E0DB
:1031C00030E04CE552EC0E944B6787FF03C081ED75
:1031D00090E141C380E090E0F2011995BC01990FA4
:1031E000880B990B0E94FA6720E030E048EC52E42B
:1031F0000E94506720E030E04AEF52E40E94AA6843
:1032000018162CF380E090E0F2011995BC01990F9B
:10321000880B990B0E94FA6720E030E048EC52E4FA
:103220000E9450679F938F937F936F938BED90E1F4
:10323000EFC0C7010E94A20DFC018081803501F51D
:1032400082E090E0CD5CDE4FE881F981C353D1404C
:103250001995BC01990F880B990B0E94FA6720E021
:1032600030E040E251E40E9450679F938F937F9338
:103270006F9386EE90E19F938F931F928CE0CAC26A
:10328000C7010E94A20DFC018081843509F05DC058
:103290008091442681FFE1C280E090E0F40119951D
:1032A000892B09F4BAC00E94B23F8111B6C080E0F8
:1032B00090E0F4011995BC01990F880B990B0E94BD
:1032C000FA6720E030E040E251E40E94506720E0DD
:1032D00030E040E252EC0E944B6787FF03C080EF72
:1032E00090E1B9C280E090E0F4011995BC01990F1A
:1032F000880B990B0E94FA6720E030E040E251E42D
:103300000E94506720E030E04AEF52E40E94AA6831
:1033100018162CF380E090E0F4011995BC01990F88
:10332000880B990B0E94FA6720E030E040E251E4FC
:103330000E9450679F938F937F936F9389EF90E1E3
:103340009F938F931F9289E065C2C7010E94A20DCF
:1033500042E050E065EE7BE00E942A6E892B09F086
:103360005FC08091442681FF78C281E090E0F50142
:103370001995892B09F451C00E94B23F81114DC0AB
:1033800081E090E0F5011995BC01990F880B990B2C
:103390000E94FA6720E030E040E251E40E9450676A
:1033A00020E030E0A9010E944B6787FF03C08EE058
:1033B00091E151C281E090E0F5011995BC01990FAE
:1033C000880B990B0E94FA6720E030E040E251E45C
:1033D0000E94506720E030E048EC52E40E94AA6866
:1033E00018162CF381E090E0F5011995BC01990FB6
:1033F000880B990B0E94FA6720E030E040E251E42C
:103400000E9450679F938F937F936F9388E191E120
:103410009F938F931F928AE0FDC181E091E11BC2CF
:10342000C7010E94A20D44E050E060E07CE00E94F1
:103430002A6E892B09F04DC080E090E0CF5CDE4F12
:10344000E881F981C153D14019957C01FF928F9396
:1034500081E291E19F938F931F920FE00F9389EC8C
:1034600090E08C0F9D1F810F911D9F938F930E9461
:10347000206F180F8091161790911717E80EF91EFC
:10348000F0921717E0921617FF92EF928FE291E1F8
:103490009F938F931F920F9389EC90E08C0F9D1F49
:1034A000810F911D9F938F930E94206F180F0FB66D
:1034B000F894DEBF0FBECDBF8091161790911717FD
:1034C000803A95400CF4C9C1109217171092161744
:1034D000C4C1C7010E94A20D45E050E06EE07CE04F
:1034E0000E942A6E892B99F4809157178F938091AF
:1034F00056178F93809155178F93809154178F9300
:103500008AE391E19F938F931F9281E183C1C70169
:103510000E94A20D46E050E064EC7BE00E942A6E1F
:10352000892B39F5809153178F93809152178F9380
:10353000809151178F93809150178F938BE491E175
:103540009F938F931F928FE08F9389EC90E08C0F65
:103550009D1F810F911D9F938F930E94206F180FC5
:103560001092501710925117109252171092531731
:1035700045CDC7010E94A20D45E050E06DEC7BE017
:103580000E942A6E892B09F040C08091442684FF56
:1035900064C180E090E0F1011995892B89F10E94C6
:1035A000263F81112DC080E090E0F1011995BC010A
:1035B000990F880B990B0E94FA6720E034E244E7E8
:1035C00059E40E9450679F938F937F936F938AE58E
:1035D00091E19F938F931F9283E18F9389EC90E009
:1035E0008C0F9D1F810F911D9F938F930E94206FC1
:1035F000180F81E090E09093151780931417FECC7C
:10360000109215171092141728C1C7010E94A20D1D
:1036100045E050E063ED7BE00E942A6E892B09F0C3
:1036200050C08091442684FF18C181E090E0C15DC4
:10363000DE4FE881F981CF52D1401995892BE1F114
:103640000E94263F811138C0809114179091151760
:10365000892B91F581E090E0C15DDE4FE881F98131
:10366000CF52D1401995BC01990F880B990B0E943C
:10367000FA6720E034E244E759E40E9450679F93E0
:103680008F937F936F9387E691E19F938F931F9220
:103690008EE08F9389EC90E08C0F9D1F810F911D20
:1036A0009F938F930E94206F180F81E090E090937A
:1036B000131780931217A2CC10921317109212179F
:1036C000CCC0C7010E94A20D45E050E069ED7BE04F
:1036D0000E942A6E892B09F057C08091442684FFEE
:1036E000BCC082E090E0C35DDE4FE881F981CD523D
:1036F000D1401995892B09F442C00E94263F8111BF
:103700003EC08091141790911517892BC1F58091B7
:10371000121790911317892B91F582E090E0C35D09
:10372000DE4FE881F981CD52D1401995BC01990F46
:10373000880B990B0E94FA6720E034E244E759E4D1
:103740000E9450679F938F937F936F9383E791E1DC
:103750009F938F931F928EE08F9389EC90E08C0F54
:103760009D1F810F911D9F938F930E94206F180FB3
:1037700081E090E090931117809310173FCC109246
:1037800011171092101769C0C7010E94A20D45E0E1
:1037900050E06FED7BE00E942A6E892B09F05DC03E
:1037A0008091442684FF59C083E090E0F60119958A
:1037B000892BE9F10E94263F811139C080911417AD
:1037C00090911517892B99F58091121790911317E5
:1037D000892B69F58091101790911117892B39F574
:1037E00083E090E0F6011995BC01990F880B990BC5
:1037F0000E94FA6720E034E244E759E40E945067EF
:103800009F938F937F936F938FE791E19F938F9314
:103810001F928EE08F9389EC90E08C0F9D1F810F9B
:10382000911D9F938F930E94206F180FE7CB80917B
:10383000141790911517892B81F48091121790918C
:103840001317892B51F48091101790911117892B20
:1038500021F48BE891E10E94051780915E17909109
:103860005F17019749F5F89444E650E06CE170E089
:10387000FE0131967F01CF010E94BE6F7894FF92C6
:10388000EF9287E593E09F938F931F9280E18F9350
:1038900089EC90E08C0F9D1F810F911D9F938F935A
:1038A0000E94206F180F10925F1710925E170FB6CC
:1038B000F894DEBF0FBECDBF1536A8F0E9ECF0E0FE
:1038C000EC0FFD1FE10FF11D1082AE0147535F4F5A
:1038D00065E88DE892E00E94EF4CC753DF4F1882F5
:1038E000C95CD04010E068E579E080E090E00E949B
:1038F000C86D7C0127CBE9ECF0E0EC0FFD1FE10F78
:10390000F11D1082AE0147535F4F65E88DE892E0EC
:103910000E94EF4CC85CDE4F0FB6F894DEBF0FBEBE
:10392000CDBFDF91CF911F910F91FF90EF90DF906E
:10393000CF90BF90AF909F908F907F906F905F904F
:103940004F903F902F9008952F923F925F926F92E9
:103950007F928F929F92AF92BF92CF92DF92EF921F
:10396000FF920F931F93CF93DF93CDB7DEB7C8536A
:10397000D1400FB6F894DEBF0FBECDBFF89444E639
:1039800050E064EE70E0CE018B599F4F0E94BE6FF5
:10399000789468E579E0CE018B599F4F0E94C86DFD
:1039A0008C01512CE090E115F090E215C35DDE4FE3
:1039B000F982E882CD52D140C15DDE4FF982E882C2
:1039C000CF52D140CF5CDE4FF982E882C153D14063
:1039D0008091FE149091FF14CD5CDE4F9983888313
:1039E000C353D140C090F615D090F71516016090E2
:1039F000C7157090C815A090DF14B090E0148090A7
:103A0000F0149090F114CB5CDE4FB982A882C553BC
:103A1000D140C95CDE4F99828882C753D1400115DD
:103A2000110509F484C30E94F02E20E030E040E349
:103A300050E40E944B6787FF56C0C8010E94A20D48
:103A400045E050E064EF7BE00E942A6E892B49F448
:103A500080E090E0C95CDE4FE881F981C753D14036
:103A600050C0C8010E94A20D45E050E06AEF7BE023
:103A70000E942A6E892B49F480E090E0CB5CDE4FF7
:103A8000E881F981C553D14062C0C8010E94A20DEE
:103A900044E050E06FEE7BE00E942A6E892B09F033
:103AA000F7C20E94F02E9F938F937F936F9380E9CC
:103AB00090E19F938F931F928BE08F9389EC90E01E
:103AC0008C0F9D1F850D911D9F938F930E94206FDA
:103AD000580E8DE990E10E9405170FB6F894DEBFED
:103AE0000FBECDBFD5C2C8010E94A20D45E050E077
:103AF00064EF7BE00E942A6E892BD9F480E090E08D
:103B0000F4011995BC01990F880B990B0E94FA6773
:103B100020E030E040E251E40E9450679F938F9391
:103B20007F936F9384E790E19F938F931F928CE034
:103B30008CC2C8010E94A20D45E050E06AEF7BE014
:103B40000E942A6E892BD9F480E090E0F501199546
:103B5000BC01990F880B990B0E94FA6720E030E0B6
:103B60004AE754E40E9450679F938F937F936F932B
:103B700082E890E19F938F931F928BE066C2C80109
:103B80000E94A20D44E050E06FEE7BE00E942A6E9E
:103B9000892B49F40E94F02E9F938F937F936F930C
:103BA00080E990E1E7CFC8010E94A20D45E050E016
:103BB00060E17BE00E942A6E892B69F40E94142F39
:103BC0009F938F937F936F938AE991E19F938F9354
:103BD0001F928DE03AC2C8010E94A20D45E050E05C
:103BE0006BE07BE00E942A6E892B69F40E94052F0E
:103BF0009F938F937F936F9387EA91E19F938F9326
:103C00001F928FE022C2C8010E94A20DFC01808198
:103C1000803571F580914426909145268C7E9927B8
:103C2000892B09F435C280E090E0F3011995892BC6
:103C3000E1F00E94E13E811118C080E090E0F301C4
:103C400019959F938F9384EB91E19F938F931F928C
:103C50008CE08F9389EC90E08C0F9D1F850D911D5A
:103C60009F938F930E94206FFBC18AEB91E10EC25C
:103C7000C8010E94A20DFC018081843551F580911C
:103C8000442681FF05C280E090E0F1011995892B5F
:103C900009F453C00E94B23F81114FC080E090E010
:103CA000F1011995BC01990F880B990B0E94FA67D5
:103CB00020E030E040E251E40E9450679F938F93F0
:103CC0007F936F9389EF90E19F938F931F9289E089
:103CD000BCC1C8010E94A20D42E050E065EE7BE04D
:103CE0000E942A6E892B61F58091442681FFD0C104
:103CF00081E090E0F6011995892BF9F00E94B53F1B
:103D000081111BC081E090E0F6011995BC01990F6B
:103D1000880B990B0E94FA6720E030E040E251E402
:103D20000E9450679F938F937F936F9388E191E1F7
:103D30009F938F931F928AE088C181E091E1A6C191
:103D4000C8010E94A20D44E050E060E07CE00E94C7
:103D50002A6E892BF9F482E090E0CD5CDE4FE88199
:103D6000F981C353D1401995182F092F80E090E0B5
:103D7000CD5CDE4FE881F981C353D14019950F9393
:103D80001F939F938F9388EF91E19F938F931F923F
:103D900082E15BC1C8010E94A20D45E050E06DECDC
:103DA0007BE00E942A6E892B09F04AC0809144264C
:103DB00084FF6EC180E090E0CF5CDE4FE881F98146
:103DC000C153D1401995892BB1F10E94263F811131
:103DD00032C080E090E0CF5CDE4FE881F981C153D2
:103DE000D1401995BC01990F880B990B0E94FA6775
:103DF00020E030E04AE754E40E9450679F938F939D
:103E00007F936F9388EC91E19F938F931F928EE045
:103E10008F9389EC90E08C0F9D1F850D911D9F93D2
:103E20008F930E94206F580E81E090E090930F17BF
:103E300080930E1752CE10920F1710920E1728C1B2
:103E4000C8010E94A20D45E050E063ED7BE00E94B6
:103E50002A6E892B09F050C08091442684FF18C136
:103E600081E090E0C15DDE4FE881F981CF52D14021
:103E70001995892BE1F10E94263F811138C080916C
:103E80000E1790910F17892B91F581E090E0C15D9D
:103E9000DE4FE881F981CF52D1401995BC01990FCD
:103EA000880B990B0E94FA6720E030E04AE754E45F
:103EB0000E9450679F938F937F936F938BE092E163
:103EC0009F938F931F928EE08F9389EC90E08C0FDD
:103ED0009D1F850D911D9F938F930E94206F580EFB
:103EE00081E090E090930D1780930C17F6CD10921F
:103EF0000D1710920C17CCC0C8010E94A20D45E00E
:103F000050E069ED7BE00E942A6E892B09F057C0D2
:103F10008091442684FFBCC082E090E0C35DDE4F08
:103F2000E881F981CD52D1401995892B09F442C01D
:103F30000E94263F81113EC080910E1790910F176D
:103F4000892BC1F580910C1790910D17892B91F554
:103F500082E090E0C35DDE4FE881F981CD52D1402F
:103F60001995BC01990F880B990B0E94FA6720E004
:103F700030E04AE754E40E9450679F938F937F9309
:103F80006F9387E192E19F938F931F928EE08F93BF
:103F900089EC90E08C0F9D1F850D911D9F938F9351
:103FA0000E94206F580E81E090E090930B17809351
:103FB0000A1793CD10920B1710920A1769C0C80107
:103FC0000E94A20D45E050E06FED7BE00E942A6E5A
:103FD000892B09F05DC08091442684FF59C083E09D
:103FE00090E0F7011995892BE9F10E94263F811194
:103FF00039C080910E1790910F17892B99F58091F8
:104000000C1790910D17892B69F580910A179091E3
:104010000B17892B39F583E090E0F7011995BC0166
:10402000990F880B990B0E94FA6720E030E04AE76D
:1040300054E40E9450679F938F937F936F938CEE0D
:1040400091E19F938F931F928EE08F9389EC90E084
:104050008C0F9D1F850D911D9F938F930E94206F44
:10406000580E3BCD80910E1790910F17892B81F43C
:1040700080910C1790910D17892B51F480910A179C
:1040800090910B17892B21F48BE891E10E94051781
:1040900080915E1790915F17019749F5F89444E677
:1040A00050E06CE170E08E010F5F1F4FC8010E946D
:1040B000BE6F78941F930F9387E593E09F938F9340
:1040C0001F9280E18F9389EC90E08C0F9D1F850DEE
:1040D000911D9F938F930E94206F580E10925F172F
:1040E00010925E170FB6F894DEBF0FBECDBFFCE393
:1040F000F515A8F4E9ECF0E0EC0FFD1FE50DF11D5E
:104100001082AE0147535F4F65E88DE892E00E9450
:10411000EF4CC753DF4F1882C95CD040512C68E583
:1041200079E080E090E00E94C86D8C0178CCE9ECE9
:10413000F0E0EC0FFD1FE50DF11D1082AE014753BD
:104140005F4F65E88DE892E00E94EF4CC85CDE4F5F
:104150000FB6F894DEBF0FBECDBFDF91CF911F9198
:104160000F91FF90EF90DF90CF90BF90AF909F9016
:104170008F907F906F905F903F902F9008952F9237
:104180003F925F926F927F928F929F92AF92BF9277
:10419000CF92DF92EF92FF920F931F93CF93DF9313
:1041A000CDB7DEB7C853D1400FB6F894DEBF0FBE0F
:1041B000CDBFF89444E650E060E870E0CE018B5942
:1041C0009F4F0E94BE6F789468E579E0CE018B59CD
:1041D0009F4F0E94C86D8C01512CE090E115F0902A
:1041E000E215C35DDE4FF982E882CD52D140C15D58
:1041F000DE4FF982E882CF52D140CF5CDE4FF982A8
:10420000E882C153D1402090FE143090FF14C0903A
:10421000F615D090F7153601A090C715B090C815C7
:1042200080910B1590910C15CD5CDE4F998388839E
:10423000C353D1408090DF149090E014E091F014CB
:10424000F091F114CB5CDE4FF983E883C553D14084
:10425000C95CDE4F99828882C753D1400115110590
:1042600009F498C30E94F02E20E030E040E350E4CF
:104270000E944B6787FF54C0C8010E94A20D45E011
:1042800050E064EF7BE00E942A6E892B39F4E091C4
:10429000F014F091F11480E090E055C0C8010E9444
:1042A000A20D45E050E06AEF7BE00E942A6E892B68
:1042B00049F480E090E0C95CDE4FE881F981C753A2
:1042C000D14067C0C8010E94A20D44E050E06FEEEB
:1042D0007BE00E942A6E892B09F00DC30E94F02E0C
:1042E0009F938F937F936F9380E990E19F938F9338
:1042F0001F928BE08F9389EC90E08C0F9D1F850DB2
:10430000911D9F938F930E94206F580E8DE990E12D
:104310000E9405170FB6F894DEBF0FBECDBFEBC2EB
:10432000C8010E94A20D45E050E064EF7BE00E94CE
:104330002A6E892B01F580E090E0CB5CDE4FE881AE
:10434000F981C553D1401995BC01990F880B990B80
:104350000E94FA6720E030E040E251E40E9450679A
:104360009F938F937F936F9384E790E19F938F93B5
:104370001F928CE09DC2C8010E94A20D45E050E052
:104380006AEF7BE00E942A6E892BD9F480E090E0EE
:10439000F4011995BC01990F880B990B0E94FA67DB
:1043A00020E030E04AE754E40E9450679F938F93E7
:1043B0007F936F9382E890E19F938F931F928BE09E
:1043C00077C2C8010E94A20D44E050E06FEE7BE08E
:1043D0000E942A6E892B49F40E94F02E9F938F939E
:1043E0007F936F9380E990E1E7CFC8010E94A20D0F
:1043F00045E050E060E17BE00E942A6E892B69F481
:104400000E94142F9F938F937F936F938AE991E17A
:104410009F938F931F928DE04BC2C8010E94A20D03
:1044200045E050E06BE07BE00E942A6E892B69F446
:104430000E94052F9F938F937F936F9387EA91E15B
:104440009F938F931F928FE033C2C8010E94A20DE9
:1044500042E050E06CEE7BE00E942A6E892B91F4E2
:1044600080E090E0CD5CDE4FE881F981C353D1401C
:1044700019959F938F9383E292E19F938F931F925D
:1044800089E027C0C8010E94A20DFC01808180350F
:1044900061F580914426909145268C7E9927892B41
:1044A00009F429C280E090E0F5011995892B09F4FF
:1044B00081C00E94E13E81117DC080E090E0F50165
:1044C00019959F938F9384EB91E19F938F931F9204
:1044D0008CE08F9389EC90E08C0F9D1F850D911DD2
:1044E0009F938F930E94206FEEC1C8010E94A20D7E
:1044F000FC018081843551F58091442681FFFBC108
:1045000080E090E0F3011995892B09F453C00E94D3
:10451000B23F81114FC080E090E0F3011995BC01DA
:10452000990F880B990B0E94FA6720E030E040E277
:1045300051E40E9450679F938F937F936F9389EF0D
:1045400090E19F938F931F9289E0B2C1C8010E94AE
:10455000A20D42E050E065EE7BE00E942A6E892BBE
:1045600061F58091442681FFC6C181E090E0F601AB
:104570001995892BF9F00E94B53F81111BC081E08C
:1045800090E0F6011995BC01990F880B990B0E94D8
:10459000FA6720E030E040E251E40E9450679F93C8
:1045A0008F937F936F9388E191E19F938F931F92F5
:1045B0008AE07EC181E091E19CC1C8010E94A20D08
:1045C00044E050E060E07CE00E942A6E892BA9F470
:1045D00082E090E0F1011995182F092F80E090E01A
:1045E000F10119950F931F939F938F9388EF91E19A
:1045F0009F938F931F9282E15BC1C8010E94A20D1D
:1046000045E050E06DEC7BE00E942A6E892B09F0BA
:104610004AC08091442684FF6EC180E090E0CF5C68
:10462000DE4FE881F981C153D1401995892BB1F151
:104630000E94263F811132C080E090E0CF5CDE4FC7
:10464000E881F981C153D1401995BC01990F880BBC
:10465000990B0E94FA6720E030E04AE754E40E9498
:1046600050679F938F937F936F9388EC91E19F9313
:104670008F931F928EE08F9389EC90E08C0F9D1F9B
:10468000850D911D9F938F930E94206F580E81E09E
:1046900090E090930917809308173CCE1092091769
:1046A0001092081728C1C8010E94A20D45E050E0F1
:1046B00063ED7BE00E942A6E892B09F050C0809147
:1046C000442684FF18C181E090E0C15DDE4FE8819F
:1046D000F981CF52D1401995892BE1F10E94263FF3
:1046E000811138C08091081790910917892B91F595
:1046F00081E090E0C15DDE4FE881F981CF52D14089
:104700001995BC01990F880B990B0E94FA6720E05C
:1047100030E04AE754E40E9450679F938F937F9361
:104720006F938BE092E19F938F931F928EE08F9314
:1047300089EC90E08C0F9D1F850D911D9F938F93A9
:104740000E94206F580E81E090E0909307178093AD
:104750000617E0CD1092071710920617CCC0C801BB
:104760000E94A20D45E050E069ED7BE00E942A6EB8
:10477000892B09F057C08091442684FFBCC082E099
:1047800090E0C35DDE4FE881F981CD52D1401995AB
:10479000892B09F442C00E94263F81113EC08091BE
:1047A000081790910917892BC1F5809106179091F0
:1047B0000717892B91F582E090E0C35DDE4FE88119
:1047C000F981CD52D1401995BC01990F880B990BF5
:1047D0000E94FA6720E030E04AE754E40E94506704
:1047E0009F938F937F936F9387E192E19F938F9332
:1047F0001F928EE08F9389EC90E08C0F9D1F850DAA
:10480000911D9F938F930E94206F580E81E090E03E
:1048100090930517809304177DCD10920517109281
:10482000041769C0C8010E94A20D45E050E06FED79
:104830007BE00E942A6E892B09F05DC0809144269E
:1048400084FF59C083E090E0F7011995892BE9F1C5
:104850000E94263F811139C0809108179091091755
:10486000892B99F58091061790910717892B69F587
:104870008091041790910517892B39F583E090E01A
:10488000F7011995BC01990F880B990B0E94FA67E3
:1048900020E030E04AE754E40E9450679F938F93F2
:1048A0007F936F938CEE91E19F938F931F928EE095
:1048B0008F9389EC90E08C0F9D1F850D911D9F9328
:1048C0008F930E94206F580E25CD809108179091EC
:1048D0000917892B81F48091061790910717892B6E
:1048E00051F48091041790910517892B21F48BE8DE
:1048F00091E10E94051780915E1790915F170197D3
:1049000049F5F89444E650E06CE170E08E010F5FE9
:104910001F4FC8010E94BE6F78941F930F9387E5C5
:1049200093E09F938F931F9280E18F9389EC90E0A7
:104930008C0F9D1F850D911D9F938F930E94206F5B
:10494000580E10925F1710925E170FB6F894DEBFE4
:104950000FBECDBFFCE3F515A8F4E9ECF0E0EC0FD9
:10496000FD1FE50DF11D1082AE0147535F4F65E855
:104970008DE892E00E94EF4CC753DF4F1882C95C6C
:10498000D040512C68E579E080E090E00E94C86D4D
:104990008C0164CCE9ECF0E0EC0FFD1FE50DF11D9E
:1049A0001082AE0147535F4F65E88DE892E00E94A8
:1049B000EF4CC85CDE4F0FB6F894DEBF0FBECDBF24
:1049C000DF91CF911F910F91FF90EF90DF90CF90EB
:1049D000BF90AF909F908F907F906F905F903F902F
:1049E0002F900895CF92DF92EF92FF920F931F9333
:1049F000CF93DF93CDB7DEB728970FB6F894DEBF1D
:104A00000FBECDBF8C010E94092E80934426909347
:104A1000452610925D1710925C1710925B1710924A
:104A20005A171092591710925817C0901B03D09024
:104A30001C03E0901D03F0901E0381FF1DC0E09158
:104A4000F815F091F91561E070E081E890E01995B2
:104A5000C982DA82EB82FC82980141E050E062E098
:104A600070E0CE0101960E944B0F81E090E09093A0
:104A70005D1780935C1711C0C982DA82EB82FC82D9
:104A8000980140E050E062E070E0CE0101960E94A3
:104A90004B0F10925D1710925C178091442684FF93
:104AA00022C0E091E315F091E41561E070E081E847
:104AB00090E0199588E0EFE1F3E0DE0111960190B6
:104AC0000D928A95E1F7980141E050E064E070E0D2
:104AD000CE0101960E944B0F81E090E090935B170E
:104AE00080935A1716C088E0EFE1F3E0DE011196DB
:104AF00001900D928A95E1F7980140E050E064E062
:104B000070E0CE0101960E944B0F10925B1710923D
:104B10005A178091442682FF0BC00E94BE30E0915C
:104B20001915F0911A1561E070E081E890E019958F
:104B3000F89486E090E00E94D66F20915C17309147
:104B40005D178217930719F12115310589F48AE25F
:104B500092E10E94F06E60915C1770915D1786E0A3
:104B600090E00E94FE6F86E692E10E9405170FC05A
:104B70002130310561F483E792E10E94F06E60918B
:104B80005C1770915D1786E090E00E94FE6F84E0F4
:104B900090E00E94D66F20915A1730915B178217D0
:104BA000930719F12115310589F48CEA92E10E94ED
:104BB000F06E60915A1770915B1784E090E00E944C
:104BC000FE6F8AEE92E10E9405170FC02130310579
:104BD00061F489EF92E10E94F06E60915A17709132
:104BE0005B1784E090E00E94FE6F789428960FB6E1
:104BF000F894DEBF0FBECDBFDF91CF911F910F9113
:104C0000FF90EF90DF90CF900895EF92FF920F9377
:104C10001F93CF93DF93EC0188819981009741F036
:104C2000843D914009F4C1C01982188283E002C119
:104C3000E0910D15F0910E1561E070E081E890E0D3
:104C40001995E091F214F091F31461E070E081E8BD
:104C500090E01995E091E114F091E21461E070E0C8
:104C600081E890E01995E0910015F091011561E05F
:104C700070E081E890E01995E0913016F0913116DE
:104C800061E070E081E890E0199581E090E0909318
:104C9000611780936017109243171092421780910A
:104CA000421790914317029784F700911B161091B9
:104CB0001C16F80119958091421790914317892B82
:104CC00019F480E090E002C08FEF90E00E94E5438D
:104CD0008FE090E09093411780934017E090191671
:104CE000F0901A16809140179091411797FD14C0CB
:104CF000F701199580914017909141170E940C4639
:104D0000F801199580914017909141170197909360
:104D1000411780934017E6CF009142171091431737
:104D20000130110509F053C080EA92E00E94D66F6D
:104D300090933F1780933E1710926117109260175F
:104D4000892B89F00E94F02E24EA30E74DE650E4EA
:104D50000E944B6787FF07C010936117009360178D
:104D600088E790E004C080EA92E00E94D66F9093BA
:104D70003F1780933E1740913E1750913F1756952D
:104D8000542F442757954795052E000C660B770B3B
:104D900086EB98E20E94824B109261171092601786
:104DA00084ED91E0998388831CC086EB98E20E9491
:104DB000964B892BB1F081E090E09093611780933E
:104DC000601780913E1790913F17009761F4809192
:104DD000421790914317019690934317809342177F
:104DE0005ECF81E027C08837910559F480913C1748
:104DF00090913D17019690933D1780933C170A9729
:104E000031F786EF93E10E94F2241092611710921D
:104E10006017E0911916F0911A1619950E94311732
:104E2000E0911B16F0911C16199510923D171092E7
:104E30003C17CDCFDF91CF911F910F91FF90EF9055
:104E40000895CF93DF93EC0188819981009741F019
:104E50008A31924009F464C01982188283E06DC0DF
:104E6000E0910D15F0910E1561E070E081E890E0A1
:104E70001995E091F214F091F31461E070E081E88B
:104E800090E01995E091E114F091E21461E070E096
:104E900081E890E01995E0910015F091011561E02D
:104EA00070E081E890E01995E0913016F0913116AC
:104EB00061E070E081E890E019958EE992E00E944F
:104EC000D66F892B29F48EE992E00E94D66F0CC030
:104ED0000E94F02E2DEC3CEC4CE350E40E944B671A
:104EE00087FFF1CF8CE291E021E030E03093611751
:104EF00020936017AC015695542F4427579547953A
:104F000060E070E086E898E20E94824B10926117A0
:104F1000109260178AE192E09983888381E00DC046
:104F200086E898E20E94964B892BC1F381E090E0DD
:104F30009093611780936017C0CFDF91CF91089550
:104F4000CF93DF93EC0188819981009741F0803500
:104F5000924009F465C01982188283E08BC0E09109
:104F60000D15F0910E1561E070E081E890E0199563
:104F7000E091F214F091F31461E070E081E890E0C8
:104F80001995E091E114F091E21461E070E081E89C
:104F900090E01995E0910015F091011561E070E045
:104FA00081E890E019958CE992E00E94D66F909389
:104FB0003B1780933A17892B69F00E94F02E2DEC55
:104FC0003CEC4CE350E40E944B6787FF03C088EE43
:104FD00093E004C08CE992E00E94D66F90933B1757
:104FE00080933A1781E090E0909361178093601767
:104FF00040913A1750913B175695542F4427579597
:10500000479560E070E088E396E20E94824B109240
:1050100061171092601780E592E09983888306C03B
:1050200088E396E20E94964B892B11F481E022C01E
:1050300081E090E0909361178093601780913A1718
:1050400090913B17892B09F4AECF8AEB93E10E9434
:10505000F2241092611710926017E0911916F091E6
:105060001A1619950E94A41CE0911B16F0911C16AB
:10507000199599CFDF91CF910895CF93DF93EC01EC
:1050800088819981009741F08338924009F46AC081
:105090001982188283E090C0E0910D15F0910E15F1
:1050A00061E070E081E890E01995E091F214F091F0
:1050B000F31461E070E081E890E01995E091E1146B
:1050C000F091E21461E070E081E890E01995E091E0
:1050D0000015F091011561E070E081E890E019950C
:1050E0008AE992E00E94D66F90933917809338171F
:1050F000892B69F00E94F02E26E636E646E450E45D
:105100000E944B6787FF03C088EE93E004C08AE9E2
:1051100092E00E94D66F909339178093381781E000
:1051200090E090936117809360178AE992E00E9463
:10513000D66F9093391780933817AC015695542F3A
:1051400044275795479560E070E088E798E20E9411
:10515000824B109261171092601783E892E0998356
:10516000888306C088E798E20E94964B892B11F449
:1051700081E022C081E090E09093611780936017F6
:105180008091381790913917892B09F4A9CF8CE9B0
:1051900093E10E94F2241092611710926017E0913F
:1051A0001916F0911A1619950E94BF20E0911B164E
:1051B000F0911C16199594CFDF91CF9108954F92DD
:1051C0005F926F927F928F929F92AF92BF92CF9297
:1051D000DF92EF92FF920F931F93CF93DF93CDB7A0
:1051E000DEB72E970FB6F894DEBF0FBECDBF7E8719
:1051F0006D8769017A010E94414A80E090E00E9437
:105200000B4A2B013C0181E090E00E940B4A4B01CC
:105210005C0186E090E00E940B4A69837A838B836D
:105220009C8387E090E00E940B4AAB01BC01809117
:105230008A1790918B17A0918C17B0918D17481AEF
:10524000590A6A0A7B0A8091861790918717A09164
:105250008817B091891795018401081B190B2A0B37
:105260003B0B0D831E832F8338878091821790918B
:105270008317A0918417B091851709811A812B811A
:105280003C81081B190B2A0B3B0B09831A832B83C8
:105290003C8380917E1790917F17A0918017B091E9
:1052A00081178A019B01081B190B2A0B3B0B0987ED
:1052B0001A872B873C8780E090E00E940B4A60931E
:1052C0008A1770938B1780938C1790938D1781E0BA
:1052D00090E00E940B4A6093861770938717809323
:1052E00088179093891786E090E00E940B4A60939C
:1052F000821770938317809384179093851787E0A4
:1053000090E00E940B4A60937E1770937F17809302
:1053100080179093811787E090E00E940B4A86E007
:1053200090E00E940B4A29E03DE3AD85BE850E94D6
:1053300095690E94F8674B015C0180917A17909102
:105340007B17A0917C17B0917D170196A11DB11D0F
:1053500080937A1790937B17A0937C17B0937D1757
:10536000C301B2010E94F86720E030E040E950E458
:105370000E94AF68A70196010E94AF68A501940141
:105380000E945067E2E6F7E1608371838283938332
:105390006D817E818F8198850E94F8672AE939E9BD
:1053A00049E050E40E94AF68A70196010E94AF68EF
:1053B000A50194010E945067609366177093671768
:1053C000809368179093691769817A818B819C819A
:1053D0000E94F8672AE939E941E251E40E94AF6886
:1053E000A70196010E94AF68A50194010E94506731
:1053F00060936A1770936B1780936C1790936D1777
:1054000069857A858B859C850E94F86726E636E655
:1054100046E651E40E94AF68A70196010E94AF687A
:10542000A50194010E94506760936E1770936F17E7
:10543000809370179093711782E697E12E960FB6BE
:10544000F894DEBF0FBECDBFDF91CF911F910F91BA
:10545000FF90EF90DF90CF90BF90AF909F908F9094
:105460007F906F905F904F900895E6E4F1E0908117
:10547000208180813081492F407C932F9295969591
:1054800096959370940F269526952073920F82958A
:105490008C70890F0895CF93C82F8CE594E19F936A
:1054A0008F930E94AE6E0F900F90C0FF04C089E6EC
:1054B00094E10E94F06EC1FF04C088E794E10E946D
:1054C000F06EC2FF04C087E894E10E94F06EC3FF53
:1054D00004C086E994E10E94F06EC4FF05C085EA2D
:1054E00094E1CF910C94F06ECF9108958F929F929A
:1054F000AF92BF92CF92DF92EF92FF920F931F93E2
:10550000CF93DF93CDB7DEB72A970FB6F894DEBFFF
:105510000FBECDBF0E9450410E945F410E944D2EA0
:1055200046E069E180E00E94F24080E00E9447414D
:105530000E94B83F60EA76E881E090E00E94FF2C8C
:10554000EDE2FAE222E432E4318320833A968DB729
:105550009EB70A97E817F907B8F381EC94E09F9398
:105560008F930E94C26E8EB30E944B2A0E942B4DD5
:105570000E94F54980919400909195009093CD29D7
:105580008093CC2981E08093C0290E946D4C60E01B
:1055900070E082ED92E00E94FE4C0E9498490E94C9
:1055A000584E64E37EE480E00E943941E0910916A0
:1055B000F0910A1619950E94352A90E00E946C41DC
:1055C00080EB94E19F938F930E94AE6E0E94092E10
:1055D0008093E6289093E7280F900F900F900F90FC
:1055E00080FF19C061E0CE0101960E94FE2DCE0120
:1055F00001960E9431528A81082E000C990B982F37
:1056000088272885820F911D27FD9A959093DF2882
:105610008093DE2817C086EB94E10E94F06E8CEF39
:10562000898382EC8A838DE38B831C821D821E8298
:105630008091DE289091DF289F838887CE01019694
:105640000E9431520E94D42C8C010E94D02CAE01B9
:10565000475F5F4FB8010E94C6440E94422C0E94DF
:1056600048440E94D82C0E940C4684EB94E09F93FF
:105670008F930E94C26E8A81898788858A871F924C
:105680008F9300EB14E01F930F930E94C26E8985E5
:105690001F928F931F930F930E94C26E8EEA94E025
:1056A0009F938F930E94C26E0E94DC50E0919016EF
:1056B000F09191161995E0917A16F0917B16199553
:1056C000E0916C16F0916D1619950E940E46882E89
:1056D00000919C1610919D16F80119950FB6F8943B
:1056E000DEBF0FBECDBF892B51F0F8011995BC016B
:1056F00080E890E00E943869162F072F02C010E85A
:1057000000E00E944544982EB0906A16A0906B1657
:10571000D0908E16C0908F16F0907816E090791683
:105720000E949D421F928F920F931F931F929F92F0
:10573000AF92BF92CF92DF92EF92FF929F938F939F
:105740008AE594E09F938F930E94C26E89E494E06F
:105750009F938F930E94C26E84E494E10E94E64975
:1057600081E494E09F938F930E94C26E88EE93E051
:105770009093DD288093DC2884E00E94432E0FB6AE
:10578000F894DEBF0FBECDBF2A960FB6F894DEBFE9
:105790000FBECDBFDF91CF911F910F91FF90EF9082
:1057A000DF90CF90BF90AF909F908F9008950E9410
:1057B000762AC4E2D4E00E947D4C0E946A41809126
:1057C000DC289091DD28009751F001979093DD2817
:1057D0008093DC28892B19F484E00E94482E809164
:1057E000E0289091E128009751F001979093E128EB
:1057F0008093E028892B19F482E00E94482E84E0EF
:105800000E94482E82E00E94482E0E94E63F0091AE
:10581000E2281091E3282091E4283091E5286017D0
:1058200071078207930739F20E94E63F6093E228EE
:105830007093E3288093E4289093E528DC01CB0162
:105840009370AA27BB270397A105B10509F0B3CF31
:10585000EDE2FAE2808191818234924469F0ED5266
:10586000FA42FF93EF93DF93CF930E94C26E0F90A3
:105870000F900F900F909FCF3A96E53F81E8F80781
:1058800048F399CFEF92FF920F931F93CF93DF933B
:10589000CDB7DEB7A0970FB6F894DEBF0FBECDBF71
:1058A00089EA92E00E94D66F182F282F35EF380F23
:1058B000303108F0982F9095291709F463C08DEFC7
:1058C00094E09F938F930E94C26EE2E4F5E08E0114
:1058D0000F5F1F4FCE0109960F900F90D8017801EE
:1058E00024912D933196A817B907D1F7F89448E081
:1058F00050E065EC72E0C8010E940470E4E3F5E05A
:10590000CE010F96D80124912D933196A817B9078F
:10591000D1F74EE050E067EB72E0C8010E940470DE
:10592000EAE2F5E0CE010B962491D8012D938D018A
:105930003196A817B907C1F74AE050E06DEA72E066
:10594000C7010E9404706DEC7BEA87EA92E00E9436
:105950001C7060E070E085EA92E00E941C7060E0DC
:1059600084EA92E00E940E7060E070E08BEA92E0C0
:105970000E941C701AE16AE175EE89EA92E00E94C9
:105980001C707894812FA0960FB6F894DEBF0FBEDE
:10599000CDBFDF91CF911F910F91FF90EF900895B0
:1059A00087EA92E00C94D66F85EA92E00C94D66F69
:1059B00084EA92E00C94CE6F2FE130E08BE59EE01C
:1059C00041E951E020935101FA013197F1F76091DB
:1059D000510165FD0DC02031310521F02CF08B54B3
:1059E000910903C084EC99E0C29721503109EACFB4
:1059F000089580E090E0089581E090E008959B0193
:105A0000AC011092B90060E074E284EF90E00E9473
:105A10004C69DA01C9014097A109B109B695A7956A
:105A2000979587958093B800089594EA9093BC0069
:105A300040EA56E861E070E09091BC0097FD07C035
:105A40004150510961097109B9F781E008959091B8
:105A5000B900987F983011F09031B9F78093BB006E
:105A600084E88093BC0080EA96E8A1E0B0E0209151
:105A7000BC0027FD05C00197A109B109C1F7E5CF19
:105A80008091B900887F883111F08034F1F680E090
:105A9000089524EA34E844E92093BC009091BC00C6
:105AA00097FFFCCF9091B900987F983011F090311A
:105AB00099F78093BB003093BC009091BC0097FF96
:105AC000FCCF9091B900987F903211F0983539F45D
:105AD0004093BC009091BC0094FDFCCFDDCF0895B5
