:100000000C949B020C94BC020C94BC020C941B2D0F
:100010000C943B2D0C94BC020C94BC020C94BC02BE
:100020000C94BC020C94BC020C94BC020C94BC0258
:100030000C94BC020C94C83D0C94BC020C94BC0201
:100040000C94BC020C94BC020C94BC020C94BC0238
:100050000C94BC020C94BC020C94BC020C94BC0228
:100060000C94BC020C944A3E0C94BC020C94BC024E
:100070000C94BC020C94BC020C94BC020C94BC0208
:100080000C94CE520C94BC020C94BC020C94BC0296
:100090000C94793E0C94BC020C94BC020C94BC02EF
:1000A0000C94BC020C94BC020C94BC020C94BC02D8
:1000B0000C94BC020C94BC020C94BC020C94BC02C8
:1000C0000C94BC020C94BC020C94BC020C94BC02B8
:1000D0000C94BC020C94BC020C94BC020C94BC02A8
:1000E0000C94BC020C9488460C947E460C943446C6
:1000F0000C94FC450C9492460C9474460C946846FF
:100100000C945C460C94BC020C94BC020C94BC0293
:100110000C94BC020C94BC020C94BC020C94BC0267
:100120000C94BC020C94BC020C94BC020C94BC0257
:100130000C94BC021A4226422F4234423942744285
:10014000774274428A454B454E45514558458A454C
:1001500072458A457645484548454845484579456C
:100160007C457F4584450C94A34F0C941A2C0C9429
:10017000C12A0C942F420C94672C0C943C480C948C
:10018000204E0C9451450C941C400C94502D0C9412
:10019000A84F0C94CF420C9484450C94DA3E0C94F6
:1001A0009C4D0C94722F0C94F14C0C9472450C9451
:1001B000F73A0C94FE230C94B24D0C9469580C94AD
:1001C000C42A0C9434420C9458450C9451040C9459
:1001D0005F2E0C94C8030C94974D0C94FF400C9424
:1001E0002B120C94AA4D0C94C84C0C94EC3C0C941F
:1001F0000C420C94A04B0C94E93C0C94AC530C9422
:10020000FC530C942E4E0C9418430C94A94D0C9452
:10021000174D0C94EE2C0C9427400C947F450C94B5
:100220008B220C94C4560C94A42A0C94293F0C9451
:1002300086540C9437450C946A2C0C9414040C943A
:10024000EB2C0C949E560C94A24F0C94054B0C94E2
:100250001A420C94263F0C94774C0C94924D0C94BB
:10026000A2560C94BE020C946B4C0C94D7530C9475
:100270003A400C94A14D0C948A450C94AB3C0C94E0
:10028000C1410C94D0430C9448450C94224E0C94DC
:1002900088230C9486550C94A64D0C94AE3C0C947B
:1002A000822E0C946B2D0C94D52E0C9479450C94C5
:1002B000AF4D0C9443570C9443540C94042D0C9460
:1002C0009E460C94B13C0C944E450C9476450C948F
:1002D00077420C94004E0C94A5240C94EF3C0C94A3
:1002E0007C450C944B450C94CC3B0C94F43A0C9408
:1002F00000090C9439420C9426420C94C3020C94CD
:1003000008410C9474420C94FA440C94553F6E616D
:100310006E00696E660000407A10F35A00A0724EBB
:1003200018090010A5D4E80000E87648170000E49A
:100330000B54020000CA9A3B000000E1F5050000E2
:1003400080969800000040420F000000A086010047
:100350000000102700000000E80300000000640017
:10036000000000000A000000000001000000000082
:100370002C76D888DC674F0823DFC1DFAE59E1B1A6
:10038000B796E5E3E453C63AE651997696E8E6C2B5
:100390008426EB898C9B62ED407C6FFCEFBC9C9FBC
:1003A00040F2BAA56FA5F490055A2AF75C936B6CDE
:1003B000F9676DC11BFCE0E40D47FEF520E6B500D2
:1003C000D0ED902E0300943577050080841E080040
:1003D00000204E0A000000C80C333333330F986EF0
:1003E00012831141EF8D2114893BE65516CFFEE6AD
:1003F000DB18D1844B381BF77C1D901DA4BBE42473
:10040000203284725E228100C9F124ECA1E53D27EF
:100410004E657665722D7573656420737461636BC8
:10042000203E2025642062797465730A004F6E6C4B
:10043000696E650A00526F7574696E6720456E615A
:10044000626C65640A0050414E3D307825582C207E
:100450004D41433D25732C205244433D25732C20B0
:100460004E4554574F524B3D25732C206368616EA7
:100470006E656C3D252D752C20636865636B2D7250
:100480006174652D487A3D252D752C2074782D706A
:100490006F7765723D252D750A000A0025783A00B0
:1004A0004D4143206164647265737320000A2A2AF7
:1004B0002A2A2A2A2A20426F6F74696E67205749B8
:1004C0004D45412D494354204150504C49434154DE
:1004D000494F4E2056455253494F4E20322E31201F
:1004E0002A2A2A2A2A2A2A0A00454550524F4D20F4
:1004F000697320636F72727570742C2072657772E5
:100500006974696E672077697468206465666175CF
:100510006C74732E0A006C6F63616C686F73740087
:1005200041544D4547413235367266723200020001
:1005300000FFFE00000111241FBECFEFD1E8DEBF97
:10054000CDBF00E00CBF16E1A0E0B2E0E6E6FEECB5
:1005500000E00BBF02C007900D92AE33B107D9F790
:1005600029E2AEE3B6E101C01D92A933B207E1F77B
:100570000E949F290C9431670C940000FC011182A9
:10058000108283E00895AF92BF92CF92DF92EF92F4
:10059000FF920F931F93CF93DF93CDB7DEB7C1596F
:1005A000D1090FB6F894DEBF0FBECDBF6C01162F78
:1005B000B42EA52E633821F48FE996E10E94B94C40
:1005C000F60180819181009741F08F319340E9F0ED
:1005D000F6011182108283E0C9C045EA52E161E868
:1005E00070E08FE996E10E949E4CE091A015F09199
:1005F000A1156AE170E081E090E019958FE193E048
:10060000F6019183808381E0B1C01538E1F7F89459
:100610004CE050E06CE872E0CE0186589F4F0E949B
:10062000A7667894EB2DFA2DDF010D900020E9F7F5
:1006300011977D01EE1AFF0A8E010A571F4F4CE0F9
:1006400050E0BE0166587F4FC8010E94EF641F93BF
:100650000F9389E193E09F938F931F928EE18F9385
:10066000035811091F930F930E940966F82EAF9249
:10067000BF928091B5271F928F938091B4271F92CC
:100680008F938091B3271F928F938091B2271F92EF
:100690008F938091B1271F928F938091B0271F92E3
:1006A0008F938091AF271F928F938091AE271F92D7
:1006B0008F9385E293E09F938F9389E18E0D1F9234
:1006C0008F93C8018F0D911D9F938F930E94096690
:1006D0008F0DEE24E394E80EF801E80FF11D10826F
:1006E0000FB6F894DEBF0FBECDBFC8010E94D9651A
:1006F00080910A028061898380919E168A83A090EE
:100700009C15B0909D15F5011995F5011995F12CE1
:10071000B7016E5F7F4FCE0101960E942D4F8FE98A
:1007200096E10E94BB4CF5011995F5011995809150
:100730009E168F5F80939E168DE493E09F938F9318
:100740001F9282E08F93E00EF11EFF92EF920E94C3
:100750000966A80165E881E592E00E945B4A0F9076
:100760000F900F900F900F900F9048CFCF56DF4F04
:100770000FB6F894DEBF0FBECDBFDF91CF911F91B2
:100780000F91FF90EF90DF90CF90BF90AF900895C2
:100790000F931F93CF93DF938B010E94D34EEC01F5
:1007A00084E00E946B4F9093B9278093B82783E031
:1007B0000E946B4F8093D2279093D32721E030E0A3
:1007C0003093B3162093B21629811F922F9328815C
:1007D0002F701F922F939F938F938091B9278F93A0
:1007E0008091B8278F93F80181811F928F93808128
:1007F0001F928F932296DF93CF9380E593E09F9390
:100800008F930E9497651092B3161092B216EDB7AF
:10081000FEB770960FB6F894FEBF0FBEEDBFDF9126
:10082000CF911F910F910895CF93DF93FC01208109
:1008300031812115310551F0223C374029F0FC016E
:100840001182108283E02AC0653839F5EC010E94DC
:10085000203F8091B2169091B316892B21F083B777
:10086000817F866002C083B7817F83BFF89483B79E
:10087000816083BF7894889583B78E7F83BF789497
:1008800040E050E065E880911118909112180E94A4
:100890003E4A82EC97E09983888381E0DF91CF9193
:1008A0000895CF92DF92EF92FF92CF93DF93EC0106
:1008B00088819981009739F0803D9105E1F0198296
:1008C000188283E035C081E090E09093B316809366
:1008D000B21640E05EE160E070E088E896E10E94D8
:1008E000EE481092B3161092B21680ED90E0998304
:1008F000888381E01DC088E896E10E940249892B27
:10090000C1F381E090E09093B3168093B2160E94F9
:10091000B82C6B017C0188E896E10E94F848A70199
:1009200096016CE370E085E89BE00E94B525D9CF85
:10093000DF91CF91FF90EF90DF90CF900895F894E2
:100940004CE050E060E872E08CE496E10E94A7661B
:1009500078948CE496E108954F925F926F927F9223
:100960008F929F92AF92BF92CF92DF92EF92FF92BF
:10097000CF93DF938091EA2782FF7CC0C0919814C7
:10098000D09199148BE090E0FE0119957C018AE0EA
:1009900090E0FE0119954C0189E090E0FE01199567
:1009A000092C000CAA08BB0825E1880C991CAA1C7C
:1009B000BB1C2A95D1F7092E000CAA0BBB0BDC013E
:1009C0009927882724013501482A592A6A2A7B2A2F
:1009D00088E090E0FE0119954C01990FAA08BB0828
:1009E0004BE0880C991CAA1CBB1C4A95D1F78428A3
:1009F0009528A628B72887E090E0FE0119956701A1
:100A0000FCEBCF1AF7E0DF0A0D2C000CEE08FF0814
:100A1000B701A601E9E1440F551F661F771FEA954C
:100A2000D1F76C01990FEE08FF08F5E0CC0CDD1C46
:100A3000EE1CFF1CFA95D1F7C828D928EA28FB2814
:100A4000C42AD52AE62AF72A86E090E0FE01199505
:100A5000092E000CAA0BBB0BC2E0B695A795979583
:100A60008795CA95D1F7BC01CD016C297D298E29C6
:100A70009F2904C060E070E081E29AE4DF91CF91A9
:100A8000FF90EF90DF90CF90BF90AF909F908F90AE
:100A90007F906F905F904F9008958EE793E00E9453
:100AA000D9658DEB93E00E94D96587EF93E09F9322
:100AB0008F930E94976586E294E09F938F930E94A4
:100AC000976589E494E09F938F930E9497658AE6E7
:100AD00094E09F938F930E9497658AE994E09F9397
:100AE0008F930E94976582EC94E09F938F930E946E
:100AF00097658FEF94E09F938F930E94976582E4B0
:100B000095E09F938F930E94976583E695E09F936E
:100B10008F930E9497658DEA95E09F938F930E9433
:100B2000976585EF95E09F938F930E9497658091DD
:100B3000EA272DB73EB72A5E3F4F0FB6F8943EBF67
:100B40000FBE2DBF82FF1AC081E090E09093B316D4
:100B50008093B21689E496E09F938F930E949765E5
:100B600080E996E09F938F930E9497651092B31649
:100B70001092B2160F900F900F900F908AE090E0B5
:100B80000E94D36587ED96E00C94D965CF92DF92F1
:100B9000EF92FF920F931F93CF93DF93F8948EE918
:100BA00092E00E94BF66D82EC92E8CE992E00E9486
:100BB000BF66F82EE92E8AE992E00E94BF66182FE0
:100BC000092F88E992E00E94BF66EC01789488E1E1
:100BD00097E00E94D965CF92DF9287E397E09F93D9
:100BE0008F930E949765EF92FF9286E497E09F9320
:100BF0008F930E9497650F931F9385E597E09F93CE
:100C00008F930E949765DF93CF9384E697E09F933D
:100C10008F930E9497658DB79EB740960FB6F89454
:100C20009EBF0FBE8DBFDF91CF911F910F91FF909F
:100C3000EF90DF90CF900895CF92DF92EF92FF92E6
:100C40000F931F93CF93DF936C01F8948EE992E09A
:100C50000E94BF66F82EE92E8CE992E00E94BF66E2
:100C6000182F092F8AE992E00E94BF66EC0188E9FB
:100C700092E00E94BF667894F6012081203329F427
:100C8000EF92FF9283E797E012C0213329F40F938C
:100C90001F9386E997E00BC0223329F4DF93CF93AB
:100CA00089EB97E004C09F938F938CED97E09F931F
:100CB0008F930E9497650F900F900F900F90DF9188
:100CC000CF911F910F91FF90EF90DF90CF900895FB
:100CD000EF92FF920F931F93CF93DF938C017B01D1
:100CE0000E94B963EC01892B49F4F80180818033BB
:100CF00029F41F930F938FEF97E037C0F70180819E
:100D0000803361F4F894BE018EE992E00E94E766B8
:100D10007894DF93CF9388E598E027C0813361F41E
:100D2000F894BE018CE992E00E94E7667894DF9324
:100D3000CF9389E798E019C0823361F4F894BE013B
:100D40008AE992E00E94E7667894DF93CF938AE97C
:100D500098E00BC0F894BE0188E992E00E94E76633
:100D60007894DF93CF938BEB98E09F938F930E94BF
:100D700097650F900F900F900F90DF91CF911F917B
:100D80000F91FF90EF9008958F929F92AF92BF9234
:100D9000CF92DF92EF92FF920E949C3D6B017C010B
:100DA0008CE3882E912CA12CB12CC701B601A50192
:100DB00094010E94F3619F938F937F936F93CA0175
:100DC000B901A50194010E94F3619F938F937F93D2
:100DD0006F93C701B60120E13EE040E050E00E9481
:100DE000F361CA01B90128E130E040E050E00E941F
:100DF000F3619F938F937F936F93C701B60120E8B0
:100E000031E541E050E00E94F3615F934F933F93DF
:100E10002F938CED98E09F938F930E9497658DB7E9
:100E20009EB742960FB6F8949EBF0FBE8DBFFF903F
:100E3000EF90DF90CF90BF90AF909F908F900895EC
:100E40000F931F93CF93DF93CDB7DEB72C970FB6D9
:100E5000F894DEBF0FBECDBF4CE050E0BC018E0168
:100E60000F5F1F4FC8010E94EF64F8944CE050E000
:100E70006CE872E0C8010E94C56661E070E080E144
:100E800090E00E94E76678941F930F9381E299E0C7
:100E90009F938F930E9497650F900F900F900F90E4
:100EA0002C960FB6F894DEBF0FBECDBFDF91CF9169
:100EB0001F910F9108950F931F93CF93DF93CDB799
:100EC000DEB72C970FB6F894DEBF0FBECDBFF894F7
:100ED00080E190E00E94BF66019729F08AE399E0E3
:100EE0000E94D96516C04CE050E06CE872E08E01BB
:100EF0000F5F1F4FC8010E94A7661F930F938DE4D9
:100F000099E09F938F930E9497650F900F900F9099
:100F10000F9078942C960FB6F894DEBF0FBECDBF1D
:100F2000DF91CF911F910F910895EF92FF920F9350
:100F30001F93CF93DF93C0919814D091991486E0BA
:100F400090E0FE011995F82EE92E87E090E0FE0171
:100F50001995182F092F88E090E0FE011995EF925E
:100F6000FF920F931F939F938F938DE599E09F932B
:100F70008F931F928FE08F9387E696E19F938F93D5
:100F80000E9409668DB79EB70C960FB6F8949EBF67
:100F90000FBE8DBF87E696E1DF91CF911F910F9134
:100FA000FF90EF900895EF92FF920F931F93CF93CE
:100FB000DF93C0919814D09199148BE090E0FE01DA
:100FC0001995F82EE92E8AE090E0FE011995182F68
:100FD000092F89E090E0FE011995EF92FF920F939F
:100FE0001F939F938F938CE699E09F938F931F920B
:100FF0008FE08F9388E596E19F938F930E94096617
:101000008DB79EB70C960FB6F8949EBF0FBE8DBFDE
:1010100088E596E1DF91CF911F910F91FF90EF90BE
:101020000895CF92DF92EF92FF920F931F93CF9389
:10103000DF93CDB7DEB72C970FB6F894DEBF0FBEA7
:10104000CDBFD82EC92E162F49E050E0682F792F3A
:10105000CE0101960E94EF64CE010D967C01111124
:1010600048C06BE779E00C970E94C3648E01065F6D
:101070001F4F009779F0E016F10661F00E94B96306
:10108000F80181938F016BE779E080E090E00E94A6
:10109000C364EFCF6A858FEF860F8F3128F0CF9230
:1010A000DF928DE799E069C0EB848FEF8E0D8C3075
:1010B000B0F7FC84F3E6FF1594F300919A141091B5
:1010C0009B1470E083E090E0F80119956E2D70E0BC
:1010D00084E090E0F80119956F2D70E085E090E0D4
:1010E000F80119950E94D3079F938F9384EB99E0A1
:1010F00044C062EC79E0CE0101960E94C3648E0187
:10110000065F1F4F009779F00E151F0561F00E94D2
:10111000B963F80181938F0162EC79E080E090E09F
:101120000E94C364EFCF6A85693128F0CF92DF92C5
:1011300084EC99E022C0EB84FCE3FE15B8F3FC8458
:10114000FF15A0F300919A1410919B1470E082E0B7
:1011500090E0F80119956E2D70E081E090E0F801C3
:1011600019956F2D70E080E090E0F80119950E94CC
:1011700095079F938F938BEF99E09F938F930E9496
:1011800097650F900F900F900F902C960FB6F894D4
:10119000DEBF0FBECDBFDF91CF911F910F91FF90AA
:1011A000EF90DF90CF900895F89444E650E06CEA19
:1011B00071E08BE092E00E94C56678940895F894FF
:1011C00044E650E068E471E08BE092E00E94C5667E
:1011D00078940895F89444E650E064EE70E08BE073
:1011E00092E00E94C56678940895F89444E650E031
:1011F00060E870E08BE092E00E94C5667894089504
:101200002F923F924F925F926F927F928F929F9216
:10121000AF92BF92CF92DF92EF92FF920F931F9304
:10122000CF93DF93CDB7DEB76E970FB6F894DEBFDE
:101230000FBECDBF9A8F898F85E0E9E0FAE0DE012D
:101240001D9601900D928A95E1F787E0FE01729656
:10125000DF01982F1D929A95E9F795E0EEE0FAE00C
:10126000DE01119601900D929A95E1F7FE013696F6
:10127000DF011D928A95E9F71092AF161092AE1613
:101280001092AD161092AC161092AB161092AA16D0
:101290001092B3161092B216E98DFA8D8081918169
:1012A000892B09F047C161E08EEA97E20E94C62BC4
:1012B000F89481E090E09093B3168093B2168AE19F
:1012C00090E00E94BF664C016091AE167091AF161F
:1012D00084E090E00E94E7666091AC167091AD16D4
:1012E00082E090E00E94E7666091AA167091AB16CA
:1012F00080E090E00E94E76688E190E00E94BF668F
:101300005C0186E190E00E94BF666C0184E190E0A0
:101310000E94BF667C0182E190E00E94BF668C0162
:101320008EE090E00E94BF663C018CE090E00E945D
:10133000BF662C018AE090E00E94BF661C0188E035
:1013400090E00E94BF669C8F8B8F86E090E00E94A9
:10135000BF669E8F8D8F8A94892891F08CE390E0F0
:101360009093A1278093A0276CE370E082EA92E03B
:101370000E94E76661E070E08AE190E00E94E76623
:10138000AA94AB2891F08CE390E09093A1278093EE
:10139000A0276CE370E08EE992E00E94E76661E0CE
:1013A00070E088E190E00E94E766CA94CD2881F061
:1013B0001092A1271092A02760E070E08CE992E0E3
:1013C0000E94E76661E070E086E190E00E94E766D7
:1013D000EA94EF2881F01092A1271092A02760E0F4
:1013E00070E08AE992E00E94E76661E070E084E1E3
:1013F00090E00E94E7660130110581F01092A1276C
:101400001092A02760E070E088E992E00E94E76611
:1014100061E070E082E190E00E94E7666A946728EC
:10142000B1F061E070E08EE090E00E94E7664CE091
:1014300050E060E872E0CE010D960E94C5664CE077
:1014400050E064E772E0CE0101960E94C5664A94BE
:101450004528C1F00E94D40861E070E08CE090E083
:101460000E94E7664CE050E060E872E0CE010D9625
:101470000E94C5664CE050E064E772E0CE01019640
:101480000E94C5662A942328C1F00E94DF0861E00B
:1014900070E08AE090E00E94E7664CE050E060E88F
:1014A00072E0CE010D960E94C5664CE050E064E704
:1014B00072E0CE0101960E94C5668B8D9C8D0197CE
:1014C000C1F00E94EA0861E070E088E090E00E94CC
:1014D000E7664CE050E060E872E0CE010D960E94B5
:1014E000C5664CE050E064E772E0CE0101960E94D0
:1014F000C566AD8DBE8D1197C1F00E94F50861E003
:1015000070E086E090E00E94E7664CE050E060E822
:1015100072E0CE010D960E94C5664CE050E064E793
:1015200072E0CE0101960E94C5661092B316109229
:10153000B2167894E98DFA8D1182108283E06E964E
:101540000FB6F894DEBF0FBECDBFDF91CF911F91D4
:101550000F91FF90EF90DF90CF90BF90AF909F9052
:101560008F907F906F905F904F903F902F90089555
:10157000AF92BF92CF92DF92EF92FF920F931F93A1
:10158000CF93DF93CDB7DEB7C059D1400FB6F894F3
:10159000DEBF0FBECDBFF8946E0183EDC81A8EEF8B
:1015A000D80A44E650E06CEA71E0C6010E94A766E2
:1015B0007E0199ECE90EF11C44E650E068E471E02C
:1015C000C7010E94A7668E010B591F4F44E650E0E9
:1015D00064EE70E0C8010E94A76644E650E060E84F
:1015E00070E0CE0101965C010E94A7667894DF92BC
:1015F000CF9283E19AE09F938F930E949765FF9229
:10160000EF9282E29AE09F938F930E9497651F93D7
:101610000F9381E39AE09F938F930E949765BF9207
:10162000AF9280E49AE09F938F930E9497658FE436
:101630009AE00E94D9650FB6F894DEBF0FBECDBF09
:10164000C057DE4F0FB6F894DEBF0FBECDBFDF919F
:10165000CF911F910F91FF90EF90DF90CF90BF90AF
:10166000AF900895EF92FF920F931F93CF93DF9364
:101670007C018701F701C081FFEFEF1AFF0A8C2F71
:1016800090E00E94AF64892BA1F7CC2391F0E80190
:1016900009900020E9F722970C171D0710F0198216
:1016A00008C0888190E00E94AF64892BC1F3219724
:1016B000F3CFC801DF91CF911F910F91FF90EF9071
:1016C00008951F93CF93DF93CDB7DEB72C970FB656
:1016D000F894DEBF0FBECDBF182F4CE050E0CE0116
:1016E00001960E94EF64F8944CE050E0113019F438
:1016F00060E872E002C064E772E0CE0101960E94E9
:10170000C56678942C960FB6F894DEBF0FBECDBF99
:10171000DF91CF911F910895813011F40C949F04B3
:10172000F8944CE050E064E772E080E496E10E94B7
:10173000A766789480E496E108958F929F92AF9285
:10174000BF92CF92DF92EF92FF920E949C3D6B017D
:101750007C0183E19BE00E94D96582E00E948C0BB2
:10176000B82EA92E0E949F04AF92BF929F938F9391
:101770008CE59BE09F938F930E9497658BE092E0AE
:101780009F938F9386E89BE09F938F930E9497652A
:101790000E94C60542E16BE97BE080915225909161
:1017A00053250E94C1392DB73EB7265F3F4F0FB674
:1017B000F8943EBF0FBE2DBF892B19F486EA9BE03B
:1017C00002C080EC9BE00E94D9650E945B0780917B
:1017D000EA2782FF1CC00E94D3079F938F9389ED55
:1017E0009BE09F938F930E9497650E9495079F931C
:1017F0008F938BEE9BE09F938F930E9497658DB79D
:101800009EB708960FB6F8949EBF0FBE8DBF8CE3AF
:10181000882E912CA12CB12CC701B601A5019401F1
:101820000E94F3619F938F937F936F93CA01B901D5
:10183000A50194010E94F3619F938F937F936F930F
:10184000C701B60120E13EE040E050E00E94F361B4
:10185000CA01B90128E130E040E050E00E94F361A4
:101860009F938F937F936F93C701B60120E831E573
:1018700041E050E00E94F3615F934F933F932F93B9
:101880008DEF9BE09F938F930E9497650E94B80A0B
:101890002DB73EB72E5E3F4F0FB6F8943EBF0FBE3A
:1018A0002DBF89E39CE0FF90EF90DF90CF90BF9039
:1018B000AF909F908F900C94D965CF92DF92EF926A
:1018C000FF920F931F93CF93DF93CDB7DEB7689747
:1018D0000FB6F894DEBF0FBECDBF8C0184E190E05F
:1018E0000E943E626C0143E150E0B8010E94EF6447
:1018F00062E87CE0C6010E94C3648E01035F1F4F53
:101900004BE050E0BC01C8010E94EF6462E87CE05B
:1019100080E090E00E94C3644BE050E0BC01CE0147
:1019200001967C010E94EF6445E050E0B80189E037
:101930009AE00E941365892B61F48981882349F01C
:10194000B70181E00E94610BFF92EF9284E89CE076
:1019500019C045E050E0B8018EE09AE00E9413659E
:10196000892B61F48981882349F0B70182E00E94C4
:10197000610BFF92EF928AE99CE004C01F930F93E2
:1019800080EB9CE09F938F930E9497650F900F9040
:101990000F900F90C60168960FB6F894DEBF0FBE89
:1019A000CDBFDF91CF911F910F91FF90EF90DF900E
:1019B000CF900C94D6622F923F924F925F926F928B
:1019C0007F928F929F92AF92BF92CF92DF92EF92CF
:1019D000FF920F931F93CF93DF93CDB7DEB7CE5017
:1019E000D1400FB6F894DEBF0FBECDBFC35FDE4F50
:1019F0008883CD50D140C25FDE4F9883CE50D14016
:101A0000C55FDE4F79836883CB50D1408A01C75FC1
:101A1000DE4F39832883C950D14084E690E00E948C
:101A20003E623C018EE1EFEEF2E0DE01A951BF4FD4
:101A300001900D928A95E1F7F894C75FDE4FA88177
:101A4000B981C950D1408C91803329F444E650E0EB
:101A50006CEA71E014C0813329F444E650E068E494
:101A600071E00DC0823329F444E650E064EE70E08A
:101A700006C0833349F444E650E060E870E0CE01EC
:101A80008B599F4F0E94A7667894FE01319684E699
:101A9000DF011D928A95E9F744E650E0BE016B59DB
:101AA0007F4FC3010E94EF6466E578E0C3010E94A6
:101AB000C3641E01B9EC2B0E311C7101412C512C59
:101AC000009781F00E94320BF701819391937F017F
:101AD000FFEF4F1A5F0A66E578E080E090E00E9431
:101AE000C364EECF0130110509F088C0C35FDE4F3B
:101AF0000881CD50D140C25FDE4F1881CE50D14019
:101B0000E12CF12CC55FDE4FE881F981CB50D1404B
:101B1000EE16FF060CF044C04101C12CD12CAA24C2
:101B2000A394B12C4C145D04C9F0D8016D917C9143
:101B3000FB0101900020E9F73197AF01461B570BDD
:101B4000F401819191914F010E941365892B11F449
:101B5000A12CB12CFFEFCF1ADF0AE4CFAA94AB2857
:101B6000C9F4D801AD90BC90F50101900020E9F7CF
:101B700031976F01CA18DB0866E578E0CE018B5912
:101B80009F4F0E94E464A601B501CE018B599F4F7F
:101B90000E940365BFEFEB1AFB0A0E5F1F4FB2CF27
:101BA000A6968FADA697882309F439C1F894C75F2C
:101BB000DE4FA881B981C950D1408C91803329F47E
:101BC00044E650E06CEA71E015C0813329F444E644
:101BD00050E068E471E00EC0823329F444E650E03E
:101BE00064EE70E007C0833309F018C144E650E0AA
:101BF00060E870E0CE018B599F4F0EC1012B09F0B8
:101C00000EC1812C912CA12CB12CA414B50409F483
:101C1000DBC0C35FDE4FE881CD50D140CB5FDE4FEC
:101C2000E883C550D140C25FDE4FF881CE50D1402D
:101C3000CA5FDE4FF883C650D140E12CF12C81E021
:101C400090E0C95FDE4F99838883C750D140C55F5C
:101C5000DE4F88819981CB50D140E816F9060CF00F
:101C600044C0F10100811181F80101900020E9F7E1
:101C70003197AF01401B510BCB5FDE4FA881B9817B
:101C8000C550D140CD90DD90CB5FDE4FB983A883A6
:101C9000C550D140B601C8010E941365892B09F5D2
:101CA000F80180818435B9F445E050E065EE7AE0D2
:101CB000C6010E94136531E020E0892B09F030E075
:101CC000C95FDE4F3883C750D140C85FDE4F2883DD
:101CD000C850D14006C0C95FDE4F19821882C75074
:101CE000D140FFEFEF1AFF0AB2CFD1010D911D9144
:101CF0001D017E01B7EEEB0EF11CF701B096CB5F34
:101D0000DE4FF983E883C550D140C12CD12CF601B8
:101D1000EE0FFF1F87EE90E08C0F9D1FE80FF91F5D
:101D2000A081B181FD0101900020E9F73197AF0159
:101D30004A1B5B0BD7016D917D917D01C8010E940B
:101D40001365892B19F4CC24C394D12CCB5FDE4FBF
:101D5000E881F981C550D140EE16FF06C1F6C95F92
:101D6000DE4F88819981C750D140019749F5CA94C7
:101D7000CD2831F5F80101900020E9F78114910494
:101D800061F4AF01401B510BB801CE0101960E94D6
:101D9000EF6488248394912C10C031977F01E01A5E
:101DA000F10A66E578E0CE0101960E94E464A7019D
:101DB000B801CE0101960E940365AFEF8A1A9A0A14
:101DC000BFEFAB1ABB0A21CF8981882341F1F89478
:101DD000C75FDE4FA881B981C950D1408C91803353
:101DE00029F444E650E06CEA71E014C0813329F430
:101DF00044E650E068E471E00DC0823329F444E623
:101E000050E064EE70E006C0833341F444E650E0F5
:101E100060E870E0CE0101960E94C5667894C30127
:101E2000C25FDE4F0FB6F894DEBF0FBECDBFDF91AD
:101E3000CF911F910F91FF90EF90DF90CF90BF90C7
:101E4000AF909F908F907F906F905F904F903F905A
:101E50002F900C94D6622F923F924F925F926F9286
:101E60007F928F929F92AF92BF92CF92DF92EF922A
:101E7000FF920F931F93CF93DF93CDB7DEB7CC5074
:101E8000D1400FB6F894DEBF0FBECDBFC75FDE4FA7
:101E90008883C950D140C65FDE4F9883CA50D14075
:101EA000C95FDE4F79836883C750D14084E690E0F4
:101EB0000E943E626C0184E690E00E943E623C011A
:101EC0008EE1EFEEF2E0DE01A951BF4F01900D92DD
:101ED0008A95E1F7F894C95FDE4FA881B981C750B0
:101EE000D1408C91803329F444E650E06CEA71E0F3
:101EF00014C0813329F444E650E068E471E00DC079
:101F0000823329F444E650E064EE70E006C0833387
:101F100049F444E650E060E870E0CE018B599F4FF1
:101F20000E94A7667894FE01319684E6DF011D9237
:101F30008A95E9F744E650E0C75FDE4F6881C950F3
:101F4000D140C65FDE4F7881CA50D140C3010E94A4
:101F5000EF6466E578E0C3010E94C3648E01075315
:101F60001F4F212C312C009781F00E94320BF80179
:101F7000819391938F01FFEF2F1A3F0A66E578E076
:101F800080E090E00E94C364EECF44E650E0BE01E2
:101F90006B597F4FC6010E94EF6466E578E0C60189
:101FA0000E94C364412C512C27EE30E02C0F3D1FC2
:101FB000205E3F4FC55FDE4F39832883CB50D14031
:101FC000009709F47DC00E94320B7C01FC01019056
:101FD0000020E9F731978F01081B190BCE018753B9
:101FE0009F4F4C01A12CB12CA1E0B0E0CB5FDE4FA4
:101FF000B983A883C550D1402A143B04A1F0A8019D
:10200000B701F401819191914F010E941365892BD1
:1020100031F4CB5FDE4F19821882C550D140FFEFFB
:10202000AF1ABF0AE9CF9E0129513F4F5901812CB8
:10203000912CA801B701D5018D919D915D010E9460
:102040001365892B19F488248394912CC55FDE4F86
:10205000E881F981CB50D140EA15FB0551F7CB5F00
:10206000DE4F28813981C550D1402130310509F535
:102070008A948928F1F44114510461F4A8014F5F56
:102080005F4FB701CE0101960E94EF644424439450
:10209000512C0FC066E578E0CE0101960E94E46401
:1020A000A801B701CE0101960E9403658FEF481A7F
:1020B000580A66E578E080E090E00E94C36480CF33
:1020C000F89489818823E1F1C95FDE4FA881B98145
:1020D000C750D1408C91803329F444E650E06CEA3B
:1020E00071E014C0813329F444E650E068E471E003
:1020F0000DC0823329F444E650E064EE70E006C07F
:10210000833341F444E650E060E870E0CE0101968C
:102110000E94C566C65FDE4FB881CA50D140BF93EA
:10212000C75FDE4FE881C950D140EF938EEC9CE051
:102130009F938F930E9497650F900F900F900F9031
:102140007894C6010E94D662C301C45FDE4F0FB609
:10215000F894DEBF0FBECDBFDF91CF911F910F91DD
:10216000FF90EF90DF90CF90BF90AF909F908F90B7
:102170007F906F905F904F903F902F900C94D6621D
:102180002F923F924F925F926F927F928F929F9287
:10219000AF92BF92CF92DF92EF92FF920F931F9375
:1021A000CF93DF93CDB7DEB7C65AD1090FB6F894F7
:1021B000DEBF0FBECDBFCD55DF4F8883C35AD040A1
:1021C000CC55DF4F9883C45AD040CF55DF4F798329
:1021D0006883C15AD04084E690E00E943E627C0150
:1021E00084E690E00E943E626C018EE1EFEEF2E048
:1021F000DE01AD57BF4F01900D928A95E1F7F8943B
:10220000CF55DF4FE881F981C15AD04080818033BA
:1022100029F444E650E06CEA71E014C0813329F4FB
:1022200044E650E068E471E00DC0823329F444E6EE
:1022300050E064EE70E006C0833341F444E650E0C1
:1022400060E870E0CE0101960E94A766789444E6AB
:1022500050E0BE016F5F7F4FC7010E94EF6466E5EB
:1022600078E0C7010E94C3648E010B591F4F412CB7
:10227000512C009781F00E94320BF80181939193C9
:102280008F01FFEF4F1A5F0A66E578E080E090E08B
:102290000E94C364EECF44E650E0CD55DF4F688125
:1022A000C35AD040CC55DF4F7881C45AD040C601C4
:1022B0000E94EF6466E578E0C6010E94C36423E8EB
:1022C00030E02C0F3D1F205E3F4FCB55DF4F398351
:1022D0002883C55AD040009709F45CC00E94320B95
:1022E0008C01FC0101900020E9F731973F01681A49
:1022F000790ACE018B599F4F4C01A12CB12C22247D
:102300002394312C4A145B0481F0A301B801F40139
:10231000819191914F010E941365892B11F4212C19
:10232000312CFFEFAF1ABF0AEDCF9E012D573F4F63
:102330005901812C912CA301B801F5018191919152
:102340005F010E941365892B19F488248394912CD2
:10235000CB55DF4F28813981C55AD0402A153B051E
:1023600051F72A94232879F48A94892861F466E540
:1023700078E0CE0101960E94E464A301B801CE0189
:1023800001960E94036566E578E080E090E00E9497
:10239000C364A1CF8981882309F43EC0F894CF5546
:1023A000DF4FE881F981C15AD0408081803329F420
:1023B00044E650E06CEA71E014C0813329F444E64D
:1023C00050E068E471E00DC0823329F444E650E047
:1023D00064EE70E006C0833341F444E650E060E808
:1023E00070E0CE0101960E94C5667894CC55DF4F0F
:1023F000F881C45AD040FF93CD55DF4F2881C35A8E
:10240000D0402F9388EF9CE09F938F930E94976515
:102410000F900F900F900F90C6010E94D662C701D7
:10242000CA55DF4F0FB6F894DEBF0FBECDBFDF91A8
:10243000CF911F910F91FF90EF90DF90CF90BF90C1
:10244000AF909F908F907F906F905F904F903F9054
:102450002F900C94D6628F929F92AF92BF92CF92A0
:10246000DF92EF92FF920F931F93CF93DF931F9210
:102470001F92CDB7DEB76C01CA01F6012081318110
:102480002115310549F12B35324029F0F601118231
:10249000108283E00DC22091F028261326C0BE01D1
:1024A0006F5F7F4F0E94C3648C0181E090E0909346
:1024B000B3168093B216F801B080F8E6BF1217C0C9
:1024C000F80101900020E9F7CF01029780179107EA
:1024D00009F0E9C10E944D051092B3161092B21690
:1024E0008BE592E0F6019183808381E0E1C142E0D7
:1024F00050E060E57DE0C8010E941365892B09F07A
:102500004BC0F80101900020E9F7CF010397801735
:10251000910719F40E94C605DFCFF8018381833249
:10252000B1F584818053843028F586E090E00E94E4
:102530003E627C0146E050E0B8016C5F7F4F0E9434
:10254000EF64F8018581882389F086E090E00E949D
:102550003E625C01B8016B5F7F4F46E050E00E9435
:10256000EF64B701C5010E94680647C1C7010E9418
:102570001C0695C11F930F9383E59DE09F938F9356
:102580000E9497650F900F900F900F90A5CF1F930B
:102590000F938EE89DE0F2CF42E050E066E474E0F5
:1025A000C8010E941365892B19F40E949D0B94CFDA
:1025B00044E050E063EC7DE0C8010E941365892B84
:1025C000E1F4F80101900020E9F73197E01BF10BED
:1025D000359780F08CE090E00E943E627C01B8016B
:1025E0006B5F7F4F4CE050E00E94EF64C7010E9498
:1025F000200755C10E945B076FCFF5E7BF1203C0EC
:102600000E94C40669CF44E050E068EC7DE0C80158
:102610000E941365892B39F5F80101900020E9F734
:102620003197E01BF10BE430F10539F40E94D30738
:102630009F938F938DEC9DE0A1CF3597399770F4E0
:1026400089E090E00E943E627C01B8016B5F7F4FA1
:1026500049E050E00E94EF6460E02FC01F930F93A9
:1026600087ED9DE08BCF44E050E068E07EE0C8015C
:102670000E941365892B51F5F80101900020E9F7BC
:102680003197E01BF10BE430F10539F40E94950716
:102690009F938F938DE09EE071CF3597399788F4A3
:1026A00089E090E00E943E627C01B8016B5F7F4F41
:1026B00049E050E00E94EF6461E0C7010E94110808
:1026C000EEC01F930F9387E19EE058CF42E050E0A9
:1026D00063E475E1C8010E941365892B09F091C07C
:1026E000F80101900020E9F7CF01039780179107C7
:1026F00019F40E94B80AF0CE84E690E00E943E628F
:102700005C0144E650E0B8016D5F7F4F0E94EF64CA
:10271000F50180818053863008F06BC084E690E03C
:102720000E943E627C0144E650E0B8016C5F7F4F3E
:102730000E94EF6444E050E068E47EE0C7010E943C
:102740001365892B59F40E94D4080E94DF080E9467
:10275000EA080E94F5080E94B80A4FC0F70180817C
:102760008823D1F184E690E00E943E624C01B801DA
:102770006B5F7F4F44E650E00E94EF64F701808179
:102780008B3259F4B501C4010E94C0108DE49EE063
:102790000E94D9650E94B80A1DC08D3299F4B50116
:1027A000C4010E942B0FFF92EF9281E79EE09F935E
:1027B0008F930E9497650E94B80A0F900F900F9018
:1027C0000F9008C00E94B80AC5010E94D662C701D6
:1027D0000E94D662C4010AC08BE99EE00E94D965BE
:1027E0000E94B80AC5010E94D662C7010E94D66243
:1027F00004C08EEA9EE00E94D965C5010E94D6629F
:102800004EC045E050E063ED7EE0C8010E941365D4
:10281000892B09F048C0F80101900020E9F7CF01A9
:10282000069780179107D9F40E949F049F938F9376
:1028300089ED9EE09F938F930E94976582E00E94AE
:102840008C0B9F938F9382EE9EE09F938F930E94B9
:1028500097650FB6F894DEBF0FBECDBF3DCE84E1C5
:1028600090E00E943E627C01B8016A5F7F4F43E1C5
:1028700050E00E94EF64F7018081882321F0C701B6
:102880000E945D0C0CC0FF92EF928BEE9EE09F9336
:102890008F930E9497650F900F900F900F90C70134
:1028A0000E94D66219CE1F930F938EE19DE066CEF3
:1028B0000F900F90DF91CF911F910F91FF90EF90AC
:1028C000DF90CF90BF90AF909F908F900895CF935F
:1028D000DF93CDB7DEB7C85CD1090FB6F894DEBF81
:1028E0000FBECDBF44E650E0BC01CE0101960E9470
:1028F000EF64F89444E650E06CE170E0CE0101969C
:102900000E94C566789481E090E09093B116809320
:10291000B016C853DF4F0FB6F894DEBF0FBECDBF61
:10292000DF91CF9108952F923F925F926F927F92A5
:102930008F929F92AF92BF92CF92DF92EF92FF92CF
:102940000F931F93CF93DF93CDB7DEB7C853D1401A
:102950000FB6F894DEBF0FBECDBFF89444E650E04A
:102960006CEA71E0CE018B599F4F0E94A766789464
:1029700066E578E0CE018B599F4F0E94C3648C01BD
:10298000512CE0906215F0906315C35DDE4FF98223
:10299000E882CD52D140C15DDE4FF982E882CF524C
:1029A000D140170180917F1490918014CF5CDE4F4D
:1029B00099838883C153D140C0907715D090781502
:1029C0003601A0904815B0904915E0918C14F09113
:1029D0008D14CD5CDE4FF983E883C353D1408090E2
:1029E0006014909061148091711490917214CB5C7A
:1029F000DE4F99838883C553D140C95CDE4F9982ED
:102A00008882C753D1400115110509F497C30E946C
:102A1000B82C24EA30E74DE250E40E94076087FFBB
:102A200054C0C8010E94320B45E050E065EE7AE0E8
:102A30000E941365892B39F4E0917114F09172149E
:102A400080E090E055C0C8010E94320B45E050E0A4
:102A50006BEE7AE00E941365892B49F480E090E0E8
:102A6000C95CDE4FE881F981C753D14067C0C80116
:102A70000E94320B44E050E060EE7AE00E94136561
:102A8000892B09F00CC30E94B82C9F938F937F93DE
:102A90006F938AE39FE09F938F931F928BE08F93B6
:102AA00089EC90E08C0F9D1F850D911D9F938F9356
:102AB0000E940966580E87E49FE00E9467140FB6D3
:102AC000F894DEBF0FBECDBFEAC2C8010E94320B30
:102AD00045E050E065EE7AE00E941365892B01F530
:102AE00080E090E0CB5CDE4FE881F981C553D140B6
:102AF0001995BC01990F880B990B0E94B66020E0D4
:102B000030E040E251E40E940C609F938F937F93EA
:102B10006F938EE19FE09F938F931F928CE09CC2F6
:102B2000C8010E94320B45E050E06BEE7AE00E9453
:102B30001365892BB9F480E090E0F4011995BC018C
:102B4000990F880B990B0E94B66020E030E04AE7AD
:102B500054E40E940C609F938F937F936F938CE259
:102B60009FE013C0C8010E94320B44E050E060EEC9
:102B70007AE00E941365892B69F40E94B82C9F9318
:102B80008F937F936F938AE39FE09F938F931F921E
:102B90008BE062C2C8010E94320B45E050E069E060
:102BA0007AE00E941365892B69F40E94CD2C9F93D3
:102BB0008F937F936F938DE49FE09F938F931F92EA
:102BC0008FE04AC2C8010E94320B45E050E06EE03F
:102BD0007AE00E941365892B69F40E94DC2C9F9394
:102BE0008F937F936F9388E59FE09F938F931F92BE
:102BF0008DE032C2C8010E94320B42E050E06DED20
:102C00007AE00E941365892BE1F480E090E0CD5CCE
:102C1000DE4FE881F981C353D1401995BC01990F6A
:102C2000880B990B0E94B66020E030E048EC52E43B
:102C30000E940C609F938F937F936F9383E69FE036
:102C40008AC0C8010E94320BFC018081803519F5D1
:102C500080916025909161258C7E9927892B09F4BC
:102C60001EC280E090E0F5011995892B89F00E9441
:102C7000A83C81110DC080E090E0F50119959F936B
:102C80008F938AE69FE09F938F931F928CE087C07B
:102C900080E79FE002C2C8010E94320BFC018081E4
:102CA000843551F58091602581FFF9C180E090E085
:102CB000F3011995892B09F453C00E94683D8111D5
:102CC0004FC080E090E0F3011995BC01990F880B8B
:102CD000990B0E94B66020E030E040E251E40E948F
:102CE0000C609F938F937F936F938EE79FE09F93EA
:102CF0008F931F9289E0B0C1C8010E94320B42E05D
:102D000050E066ED7AE00E941365892B61F58091B1
:102D1000602581FFC4C181E090E0F6011995892BFF
:102D2000F9F00E946B3D81111BC081E090E0F6013B
:102D30001995BC01990F880B990B0E94B66020E091
:102D400030E040E251E40E940C609F938F937F93A8
:102D50006F9383E99FE09F938F931F928AE07CC1DA
:102D600086E89FE09AC1C8010E94320B44E050E01F
:102D700061EF7AE00E941365892BE9F480E090E02E
:102D8000CF5CDE4FE881F981C153D14019959F9303
:102D90008F938CE99FE09F938F931F928FE08F9387
:102DA00089EC90E08C0F9D1F850D911D9F938F9353
:102DB0000E9409665CC1C8010E94320B45E050E0E8
:102DC0006EEB7AE00E941365892B09F040C0809178
:102DD000602584FF64C180E090E0F1011995892BA2
:102DE00089F10E94E63C81112DC080E090E0F10164
:102DF0001995BC01990F880B990B0E94B66020E0D1
:102E000030E04AE754E40E940C609F938F937F93D5
:102E10006F938AEA9FE09F938F931F928EE08F9328
:102E200089EC90E08C0F9D1F850D911D9F938F93D2
:102E30000E940966580E81E090E090938716809377
:102E400086163DCE109287161092861628C1C801AC
:102E50000E94320B45E050E064EC7AE00E9413657A
:102E6000892B09F050C08091602584FF18C181E052
:102E700090E0C15DDE4FE881F981CF52D1401995D4
:102E8000892BE1F10E94E63C811138C080918616C1
:102E900090918716892B91F581E090E0C15DDE4F1E
:102EA000E881F981CF52D1401995BC01990F880B67
:102EB000990B0E94B66020E030E04AE754E40E949B
:102EC0000C609F938F937F936F9386EB9FE09F930C
:102ED0008F931F928EE08F9389EC90E08C0F9D1F53
:102EE000850D911D9F938F930E940966580E81E076
:102EF00090E09093851680938416E1CD109285160C
:102F000010928416CCC0C8010E94320B45E050E0FC
:102F10006AEC7AE00E941365892B09F057C0809112
:102F2000602584FFBCC082E090E0C35DDE4FE88195
:102F3000F981CD52D1401995892B09F442C00E94E4
:102F4000E63C81113EC08091861690918716892BB0
:102F5000C1F58091841690918516892B91F582E0B8
:102F600090E0C35DDE4FE881F981CD52D1401995E3
:102F7000BC01990F880B990B0E94B66020E030E0ED
:102F80004AE754E40E940C609F938F937F936F9362
:102F900082EC9FE09F938F931F928EE08F9389EC3A
:102FA00090E08C0F9D1F850D911D9F938F930E9424
:102FB0000966580E81E090E0909383168093821604
:102FC0007ECD109283161092821669C0C8010E94AD
:102FD000320B45E050E060ED7AE00E941365892BEA
:102FE00009F05DC08091602584FF59C083E090E0C6
:102FF000F7011995892BE9F10E94E63C811139C04E
:103000008091861690918716892B99F58091841668
:1030100090918516892B69F580918216909183167F
:10302000892B39F583E090E0F7011995BC01990FE0
:10303000880B990B0E94B66020E030E04AE754E428
:103040000E940C609F938F937F936F938EEC9FE011
:103050009F938F931F928EE08F9389EC90E08C0F5B
:103060009D1F850D911D9F938F930E940966580E99
:1030700026CD8091861690918716892B81F48091B8
:10308000841690918516892B51F480918216909127
:103090008316892B21F48AED9FE00E9467148091AA
:1030A000B0169091B116019749F5F89444E650E0B6
:1030B0006CE170E08E010F5F1F4FC8010E94A76690
:1030C00078941F930F9389E493E09F938F931F92BB
:1030D00080E18F9389EC90E08C0F9D1F850D911DF1
:1030E0009F938F930E940966580E1092B11610920A
:1030F000B0160FB6F894DEBF0FBECDBFF0E5F515E4
:10310000A8F4E9ECF0E0EC0FFD1FE50DF11D1082D5
:10311000AE0147535F4F65E883E892E00E945B4A47
:10312000C753DF4F1882C95CD040512C66E578E068
:1031300080E090E00E94C3648C0165CCE9ECF0E093
:10314000EC0FFD1FE50DF11D1082AE0147535F4FDF
:1031500065E883E892E00E945B4AC85CDE4F0FB6E8
:10316000F894DEBF0FBECDBFDF91CF911F910F91BD
:10317000FF90EF90DF90CF90BF90AF909F908F9097
:103180007F906F905F903F902F9008952F923F9285
:103190005F926F927F928F929F92AF92BF92CF92E7
:1031A000DF92EF92FF920F931F93CF93DF93CDB7F0
:1031B000DEB7C853D1400FB6F894DEBF0FBECDBF07
:1031C000F89444E650E064EE70E0CE018B599F4FD6
:1031D0000E94A766789466E578E0CE018B599F4FF0
:1031E0000E94C3648C01512CE0906215F09063152D
:1031F000C35DDE4FF982E882CD52D140C15DDE4F22
:10320000F982E882CF52D140CF5CDE4FF982E8826A
:10321000C153D14080917F1490918014CD5CDE4FDA
:1032200099838883C353D140C0907715D090781587
:1032300016016090481570904915A0906014B090E8
:1032400061148090711490907214CB5CDE4FB9823F
:10325000A882C553D140C95CDE4F99828882C7538A
:10326000D1400115110509F484C30E94B82C24EA49
:1032700030E74DE250E40E94076087FF56C0C80166
:103280000E94320B45E050E065EE7AE00E94136543
:10329000892B49F480E090E0C95CDE4FE881F98138
:1032A000C753D14050C0C8010E94320B45E050E0E6
:1032B0006BEE7AE00E941365892B49F480E090E080
:1032C000CB5CDE4FE881F981C553D14062C0C801B3
:1032D0000E94320B44E050E060EE7AE00E941365F9
:1032E000892B09F0F7C20E94B82C9F938F937F938C
:1032F0006F938AE39FE09F938F931F928BE08F934E
:1033000089EC90E08C0F9D1F850D911D9F938F93ED
:103310000E940966580E87E49FE00E9467140FB66A
:10332000F894DEBF0FBECDBFD5C2C8010E94320BDC
:1033300045E050E065EE7AE00E941365892BD9F4F0
:1033400080E090E0F4011995BC01990F880B990B6E
:103350000E94B66020E030E040E251E40E940C6040
:103360009F938F937F936F938EE19FE09F938F93B3
:103370001F928CE08CC2C8010E94320B45E050E0E5
:103380006BEE7AE00E941365892BD9F480E090E01F
:10339000F5011995BC01990F880B990B0E94B66035
:1033A00020E030E04AE754E40E940C609F938F9342
:1033B0007F936F938CE29FE09F938F931F928BE09C
:1033C00066C2C8010E94320B44E050E060EE7AE031
:1033D0000E941365892B49F40E94B82C9F938F9308
:1033E0007F936F938AE39FE0E7CFC8010E94320B7F
:1033F00045E050E06EE07AE00E941365892B69F4A5
:103400000E94DC2C9F938F937F936F9389EE9FE0B4
:103410009F938F931F928DE03AC2C8010E94320B96
:1034200045E050E069E07AE00E941365892B69F479
:103430000E94CD2C9F938F937F936F9386EF9FE095
:103440009F938F931F928FE022C2C8010E94320B7C
:10345000FC018081803571F5809160259091612516
:103460008C7E9927892B09F435C280E090E0F30126
:103470001995892BE1F00E94A83C811118C080E0C9
:1034800090E0F30119959F938F938AE69FE09F93B5
:103490008F931F928CE08F9389EC90E08C0F9D1F8F
:1034A000850D911D9F938F930E940966FBC180E754
:1034B0009FE00EC2C8010E94320BFC01808184355E
:1034C00051F58091602581FF05C280E090E0F10117
:1034D0001995892B09F453C00E94683D81114FC092
:1034E00080E090E0F1011995BC01990F880B990BD0
:1034F0000E94B66020E030E040E251E40E940C609F
:103500009F938F937F936F938EE79FE09F938F930B
:103510001F9289E0BCC1C8010E94320B42E050E01A
:1035200066ED7AE00E941365892B61F58091602534
:1035300081FFD0C181E090E0F6011995892BF9F067
:103540000E946B3D81111BC081E090E0F60119954E
:10355000BC01990F880B990B0E94B66020E030E007
:1035600040E251E40E940C609F938F937F936F938E
:1035700083E99FE09F938F931F928AE088C186E83A
:103580009FE0A6C1C8010E94320B44E050E061EF09
:103590007AE00E941365892BF9F482E090E0CD5C1B
:1035A000DE4FE881F981C353D1401995182F092FB7
:1035B00080E090E0CD5CDE4FE881F981C353D140DB
:1035C00019950F931F939F938F9383E090E19F939F
:1035D0008F931F9282E15BC1C8010E94320B45E0CC
:1035E00050E06EEB7AE00E941365892B09F04AC027
:1035F0008091602584FF6EC180E090E0CF5CDE4F5B
:10360000E881F981C153D1401995892BB1F10E940C
:10361000E63C811132C080E090E0CF5CDE4FE88173
:10362000F981C153D1401995BC01990F880B990BB1
:103630000E94B66020E030E04AE754E40E940C604B
:103640009F938F937F936F938AEA9FE09F938F93CB
:103650001F928EE08F9389EC90E08C0F9D1F850D5B
:10366000911D9F938F930E940966580E81E090E010
:10367000909381168093801652CE109281161092EC
:10368000801628C1C8010E94320B45E050E064EC6E
:103690007AE00E941365892B09F050C08091602563
:1036A00084FF18C181E090E0C15DDE4FE881F981BF
:1036B000CF52D1401995892BE1F10E94E63C81114E
:1036C00038C08091801690918116892B91F581E008
:1036D00090E0C15DDE4FE881F981CF52D14019956C
:1036E000BC01990F880B990B0E94B66020E030E076
:1036F0004AE754E40E940C609F938F937F936F93EB
:1037000086EB9FE09F938F931F928EE08F9389ECBF
:1037100090E08C0F9D1F850D911D9F938F930E94AC
:103720000966580E81E090E090937F1680937E1694
:10373000F6CD10927F1610927E16CCC0C8010E9462
:10374000320B45E050E06AEC7AE00E941365892B69
:1037500009F057C08091602584FFBCC082E090E0F2
:10376000C35DDE4FE881F981CD52D1401995892B97
:1037700009F442C00E94E63C81113EC0809180164F
:1037800090918116892BC1F580917E1690917F16BC
:10379000892B91F582E090E0C35DDE4FE881F981ED
:1037A000CD52D1401995BC01990F880B990B0E94FD
:1037B000B66020E030E04AE754E40E940C609F933A
:1037C0008F937F936F9382EC9FE09F938F931F92D1
:1037D0008EE08F9389EC90E08C0F9D1F850D911DDD
:1037E0009F938F930E940966580E81E090E090931A
:1037F0007D1680937C1693CD10927D1610927C16C8
:1038000069C0C8010E94320B45E050E060ED7AE0EB
:103810000E941365892B09F05DC08091602584FFAB
:1038200059C083E090E0F7011995892BE9F10E94D6
:10383000E63C811139C08091801690918116892BC8
:1038400099F580917E1690917F16892B69F580916C
:103850007C1690917D16892B39F583E090E0F70175
:103860001995BC01990F880B990B0E94B66020E056
:1038700030E04AE754E40E940C609F938F937F935B
:103880006F938EEC9FE09F938F931F928EE08F93A8
:1038900089EC90E08C0F9D1F850D911D9F938F9358
:1038A0000E940966580E3BCD80918016909181163A
:1038B000892B81F480917E1690917F16892B51F48B
:1038C00080917C1690917D16892B21F48AED9FE0E2
:1038D0000E9467148091B0169091B116019749F536
:1038E000F89444E650E06CE170E08E010F5F1F4FEA
:1038F000C8010E94A76678941F930F9389E493E010
:103900009F938F931F9280E18F9389EC90E08C0FAF
:103910009D1F850D911D9F938F930E940966580EE0
:103920001092B1161092B0160FB6F894DEBF0FBE0B
:10393000CDBFFCE3F515A8F4E9ECF0E0EC0FFD1FBA
:10394000E50DF11D1082AE0147535F4F65E883E836
:1039500092E00E945B4AC753DF4F1882C95CD04097
:10396000512C66E578E080E090E00E94C3648C0111
:1039700078CCE9ECF0E0EC0FFD1FE50DF11D1082B5
:10398000AE0147535F4F65E883E892E00E945B4ACF
:10399000C85CDE4F0FB6F894DEBF0FBECDBFDF911F
:1039A000CF911F910F91FF90EF90DF90CF90BF903C
:1039B000AF909F908F907F906F905F903F902F90EF
:1039C00008952F923F925F926F927F928F929F9273
:1039D000AF92BF92CF92DF92EF92FF920F931F931D
:1039E000CF93DF93CDB7DEB7C853D1400FB6F8946D
:1039F000DEBF0FBECDBFF89444E650E060E870E053
:103A0000CE018B599F4F0E94A766789466E578E0B7
:103A1000CE018B599F4F0E94C3648C01512CE090C2
:103A20006215F0906315C35DDE4FF982E882CD52D6
:103A3000D140C15DDE4FF982E882CF52D140CF5CE8
:103A4000DE4FF982E882C153D14020907F1430903C
:103A50008014C0907715D09078153601A090481545
:103A6000B090491580918C1490918D14CD5CDE4FEF
:103A700099838883C353D1408090601490906114DF
:103A8000E0917114F0917214CB5CDE4FF983E883FE
:103A9000C553D140C95CDE4F99828882C753D1405B
:103AA0000115110509F498C30E94B82C24EA30E7E7
:103AB0004DE250E40E94076087FF54C0C8010E9495
:103AC000320B45E050E065EE7AE00E941365892BE9
:103AD00039F4E0917114F091721480E090E055C0D7
:103AE000C8010E94320B45E050E06BEE7AE00E9484
:103AF0001365892B49F480E090E0C95CDE4FE881D2
:103B0000F981C753D14067C0C8010E94320B44E01D
:103B100050E060EE7AE00E941365892B09F00DC336
:103B20000E94B82C9F938F937F936F938AE39FE0BB
:103B30009F938F931F928BE08F9389EC90E08C0F73
:103B40009D1F850D911D9F938F930E940966580EAE
:103B500087E49FE00E9467140FB6F894DEBF0FBEA3
:103B6000CDBFEBC2C8010E94320B45E050E065EECC
:103B70007AE00E941365892B01F580E090E0CB5C30
:103B8000DE4FE881F981C553D1401995BC01990FE9
:103B9000880B990B0E94B66020E030E040E251E4CF
:103BA0000E940C609F938F937F936F938EE19FE0B1
:103BB0009F938F931F928CE09DC2C8010E94320B8D
:103BC00045E050E06BEE7AE00E941365892BD9F452
:103BD00080E090E0F4011995BC01990F880B990BD6
:103BE0000E94B66020E030E04AE754E40E940C6096
:103BF0009F938F937F936F938CE29FE09F938F931C
:103C00001F928BE077C2C8010E94320B44E050E063
:103C100060EE7AE00E941365892B49F40E94B82C6B
:103C20009F938F937F936F938AE39FE0E7CFC801C1
:103C30000E94320B45E050E06EE07AE00E9413658E
:103C4000892B69F40E94DC2C9F938F937F936F9351
:103C500089EE9FE09F938F931F928DE04BC2C80126
:103C60000E94320B45E050E069E07AE00E94136563
:103C7000892B69F40E94CD2C9F938F937F936F9330
:103C800086EF9FE09F938F931F928FE033C2C8010E
:103C90000E94320B42E050E06DED7AE00E94136525
:103CA000892B91F480E090E0CD5CDE4FE881F981D2
:103CB000C353D14019959F938F9386E190E19F93D1
:103CC0008F931F9289E027C0C8010E94320BFC012C
:103CD0008081803561F580916025909161258C7E91
:103CE0009927892B09F429C280E090E0F501199504
:103CF000892B09F481C00E94A83C81117DC080E01D
:103D000090E0F50119959F938F938AE69FE09F932A
:103D10008F931F928CE08F9389EC90E08C0F9D1F06
:103D2000850D911D9F938F930E940966EEC1C80176
:103D30000E94320BFC018081843551F58091602511
:103D400081FFFBC180E090E0F3011995892B09F414
:103D500053C00E94683D81114FC080E090E0F301A4
:103D60001995BC01990F880B990B0E94B66020E051
:103D700030E040E251E40E940C609F938F937F9368
:103D80006F938EE79FE09F938F931F9289E0B2C15C
:103D9000C8010E94320B42E050E066ED7AE00E94DA
:103DA0001365892B61F58091602581FFC6C181E093
:103DB00090E0F6011995892BF9F00E946B3D811175
:103DC0001BC081E090E0F6011995BC01990F880BAA
:103DD000990B0E94B66020E030E040E251E40E947E
:103DE0000C609F938F937F936F9383E99FE09F93E2
:103DF0008F931F928AE07EC186E89FE09CC1C80134
:103E00000E94320B44E050E061EF7AE00E941365BB
:103E1000892BA9F482E090E0F1011995182F092F60
:103E200080E090E0F10119950F931F939F938F937A
:103E300083E090E19F938F931F9282E15BC1C80161
:103E40000E94320B45E050E06EEB7AE00E94136571
:103E5000892B09F04AC08091602584FF6EC180E003
:103E600090E0CF5CDE4FE881F981C153D1401995D4
:103E7000892BB1F10E94E63C811132C080E090E0D4
:103E8000CF5CDE4FE881F981C153D1401995BC0167
:103E9000990F880B990B0E94B66020E030E04AE74A
:103EA00054E40E940C609F938F937F936F938AEAF0
:103EB0009FE09F938F931F928EE08F9389EC90E009
:103EC0008C0F9D1F850D911D9F938F930E940966F6
:103ED000580E81E090E090937B1680937A163CCE4A
:103EE00010927B1610927A1628C1C8010E94320BDC
:103EF00045E050E064EC7AE00E941365892B09F0FC
:103F000050C08091602584FF18C181E090E0C15DC0
:103F1000DE4FE881F981CF52D1401995892BE1F12B
:103F20000E94E63C811138C080917A1690917B16F0
:103F3000892B91F581E090E0C15DDE4FE881F98148
:103F4000CF52D1401995BC01990F880B990B0E9453
:103F5000B66020E030E04AE754E40E940C609F9392
:103F60008F937F936F9386EB9FE09F938F931F9226
:103F70008EE08F9389EC90E08C0F9D1F850D911D35
:103F80009F938F930E940966580E81E090E0909372
:103F9000791680937816E0CD1092791610927816E3
:103FA000CCC0C8010E94320B45E050E06AEC7AE0D8
:103FB0000E941365892B09F057C08091602584FF0A
:103FC000BCC082E090E0C35DDE4FE881F981CD5254
:103FD000D1401995892B09F442C00E94E63C811119
:103FE0003EC080917A1690917B16892BC1F5809105
:103FF000781690917916892B91F582E090E0C35D57
:10400000DE4FE881F981CD52D1401995BC01990F5D
:10401000880B990B0E94B66020E030E04AE754E438
:104020000E940C609F938F937F936F9382EC9FE02D
:104030009F938F931F928EE08F9389EC90E08C0F6B
:104040009D1F850D911D9F938F930E940966580EA9
:1040500081E090E090937716809376167DCD109254
:1040600077161092761669C0C8010E94320B45E09F
:1040700050E060ED7AE00E941365892B09F05DC085
:104080008091602584FF59C083E090E0F701199585
:10409000892BE9F10E94E63C811139C080917A16A2
:1040A00090917B16892B99F58091781690917916CD
:1040B000892B69F58091761690917716892B39F5C1
:1040C00083E090E0F7011995BC01990F880B990BDB
:1040D0000E94B66020E030E04AE754E40E940C60A1
:1040E0009F938F937F936F938EEC9FE09F938F931B
:1040F0001F928EE08F9389EC90E08C0F9D1F850DB1
:10410000911D9F938F930E940966580E25CD809133
:104110007A1690917B16892B81F480917816909174
:104120007916892B51F48091761690917716892B08
:1041300021F48AED9FE00E9467148091B01690915F
:10414000B116019749F5F89444E650E06CE170E04F
:104150008E010F5F1F4FC8010E94A76678941F93BE
:104160000F9389E493E09F938F931F9280E18F9345
:1041700089EC90E08C0F9D1F850D911D9F938F936F
:104180000E940966580E1092B1161092B0160FB622
:10419000F894DEBF0FBECDBFFCE3F515A8F4E9EC43
:1041A000F0E0EC0FFD1FE50DF11D1082AE0147534D
:1041B0005F4F65E883E892E00E945B4AC753DF4F98
:1041C0001882C95CD040512C66E578E080E090E030
:1041D0000E94C3648C0164CCE9ECF0E0EC0FFD1F9D
:1041E000E50DF11D1082AE0147535F4F65E883E88E
:1041F00092E00E945B4AC85CDE4F0FB6F894DEBFC7
:104200000FBECDBFDF91CF911F910F91FF90EF9027
:10421000DF90CF90BF90AF909F908F907F906F90E6
:104220005F903F902F900895CF92DF92EF92FF9290
:104230000F931F93CF93DF93CDB7DEB728970FB6B9
:10424000F894DEBF0FBECDBF8C010E94D12B8093AE
:104250006025909361251092AF161092AE161092C1
:10426000AD161092AC161092AB161092AA16C09012
:104270000D03D0900E03E0900F03F090100381FF28
:104280001DC0E0917915F0917A1561E070E081E848
:1042900090E01995C982DA82EB82FC82980141E0B4
:1042A00050E062E070E0CE0101960E94DB0C81E0FC
:1042B00090E09093AF168093AE1611C0C982DA8257
:1042C000EB82FC82980140E050E062E070E0CE01B9
:1042D00001960E94DB0C1092AF161092AE168091E0
:1042E000602584FF22C0E0916415F091651561E0BE
:1042F00070E081E890E0199588E0E1E1F3E0DE010B
:10430000119601900D928A95E1F7980141E050E0F5
:1043100064E070E0CE0101960E94DB0C81E090E049
:104320009093AD168093AC1616C088E0E1E1F3E0FF
:10433000DE01119601900D928A95E1F7980140E017
:1043400050E064E070E0CE0101960E94DB0C109218
:10435000AD161092AC1680916025909161258C7EEF
:104360009927892BE9F0E0914A15F0914B1561E00E
:1043700070E081E890E0199589ED9AE09A8389834D
:10438000980141E050E061E070E0CE0101960E94AA
:10439000DB0C81E090E09093AB168093AA1611C0DD
:1043A00089ED9AE09A838983980140E050E061E0CA
:1043B00070E0CE0101960E94DB0C1092AB161092B9
:1043C000AA168091602582FF0BC00E94852EE09185
:1043D0009A14F0919B1461E070E081E890E01995E7
:1043E000F89484E090E00E94BF662091AE16309170
:1043F000AF168217930719F12115310589F48DE164
:1044000090E10E94D9656091AE167091AF1684E07C
:1044100090E00E94E76689E590E10E9467140FC072
:104420002130310561F486E690E10E94D965609102
:10443000AE167091AF1684E090E00E94E76680E0CF
:1044400090E00E94BF662091AA163091AB168217A9
:10445000930719F12115310589F48FE990E10E9444
:10446000D9656091AA167091AB1680E090E00E9429
:10447000E7668CED90E10E9467140FC02130310592
:1044800061F48AEE90E10E94D9656091AA1670915C
:10449000AB1680E090E00E94E76682E090E00E9428
:1044A000BF662091AC163091AD168217930719F1B3
:1044B0002115310589F484E291E10E94D96560916A
:1044C000AC167091AD1682E090E00E94E76682E63D
:1044D00091E10E9467140FC02130310561F481E73A
:1044E00091E10E94D9656091AC167091AD1682E0A1
:1044F00090E00E94E766789428960FB6F894DEBFA5
:104500000FBECDBFDF91CF911F910F91FF90EF9024
:10451000DF90CF900895EF92FF920F931F93CF9368
:10452000DF93EC0188819981009741F089399140AE
:1045300009F4B6C01982188283E0E3C0E0918E14BA
:10454000F0918F1461E070E081E890E01995E091BE
:104550007314F091741461E070E081E890E01995B3
:10456000E0916214F091631461E070E081E890E002
:104570001995E0918114F091821461E070E081E876
:1045800090E0199581E090E09093B3168093B21675
:1045900010929D1610929C1680919C1690919D16DB
:1045A000029784F700919C1510919D15F8011995BB
:1045B00080919C1690919D16892B19F480E090E0D3
:1045C00002C08FEF90E00E949B418FE090E09093BB
:1045D0009B1680939A16E0909A15F0909B15809107
:1045E0009A1690919B1697FD12C0F701199580912C
:1045F0009A1690919B160E94C24380919A169091B0
:104600009B16019790939B1680939A16E8CFF8011A
:10461000199500919C1610919D160130110509F015
:1046200065C08EE992E00E94BF66909399168093D0
:1046300098161092B3161092B216892B89F00E9428
:10464000B82C23EC35EF48E350E40E94076087FF65
:1046500007C01093B3160093B21685E090E004C033
:104660008EE992E00E94BF66909399168093981607
:1046700040919816509199165695542F4427579566
:10468000479560E070E086EC97E20E94EE48109259
:10469000B3161092B21689E991E09983888330C0ED
:1046A00086EC97E20E940249892B51F181E090E06B
:1046B0009093B3168093B2168091981690919916A4
:1046C000892BA1F08BE592E10E9414211092B31680
:1046D0001092B216E0919A15F0919B1519950E94CF
:1046E0009314E0919C15F0919D15199580919C165D
:1046F00090919D16019690939D1680939C164CCF99
:1047000081E0DF91CF911F910F91FF90EF9008957D
:10471000CF93DF93EC0188819981009741F0883C29
:10472000914009F45BC01982188283E064C0E09173
:104730008E14F0918F1461E070E081E890E019959B
:10474000E0917314F091741461E070E081E890E0FE
:104750001995E0916214F091631461E070E081E8D2
:1047600090E01995E0918114F091821461E070E07D
:1047700081E890E019958CE992E00E94BF66892B50
:1047800029F48CE992E00E94BF660CC00E94B82C0C
:1047900023EC35EF48E350E40E94076087FFF1CF38
:1047A00088E097E021E030E03093B3162093B21612
:1047B000AC015695542F44275795479560E070E01B
:1047C00082EA97E20E94EE481092B3161092B21657
:1047D00088EC91E09983888381E00DC082EA97E2BA
:1047E0000E940249892BC1F381E090E09093B316B7
:1047F0008093B216C0CFDF91CF9108950F931F938E
:10480000CF93DF93EC0188819981009741F08D3F30
:10481000914009F465C01982188283E091C0E0914B
:104820008E14F0918F1461E070E081E890E01995AA
:10483000E0917314F091741461E070E081E890E00D
:104840001995E0916214F091631461E070E081E8E1
:1048500090E01995E0918114F091821461E070E08C
:1048600081E890E019958AE992E00E94BF669093F2
:10487000971680939616892B69F00E94B82C23EC2A
:1048800035EF48E350E40E94076087FF03C088E0EB
:1048900097E004C08AE992E00E94BF669093971661
:1048A0008093961681E090E09093B3168093B216B1
:1048B00040919616509197165695542F4427579528
:1048C000479560E070E084E595E20E94EE48109222
:1048D000B3161092B2168DEF91E09983888306C0CB
:1048E00084E595E20E940249892B11F481E028C0F9
:1048F00081E090E09093B3168093B2168091961663
:1049000090919716892B09F4AECF8FE192E10E9426
:1049100014211092B3161092B21600919A151091AC
:104920009B15F8011995F80119950E94C618009178
:104930009C1510919D15F8011995F801199593CFC3
:10494000DF91CF911F910F9108950F931F93CF93F4
:10495000DF93EC0188819981009741F08033924088
:1049600009F46AC01982188283E096C0E0918E141F
:10497000F0918F1461E070E081E890E01995E0918A
:104980007314F091741461E070E081E890E019957F
:10499000E0916214F091631461E070E081E890E0CE
:1049A0001995E0918114F091821461E070E081E842
:1049B00090E0199588E992E00E94BF669093951661
:1049C00080939416892B69F00E94B82C23EC35EF64
:1049D00048E350E40E94076087FF03C088E097E047
:1049E00004C088E992E00E94BF6690939516809378
:1049F000941681E090E09093B3168093B21688E904
:104A000092E00E94BF669093951680939416AC0135
:104A10005695542F44275795479560E070E084E9F8
:104A200097E20E94EE481092B3161092B21680E3FD
:104A300092E09983888306C084E997E20E94024944
:104A4000892B11F481E028C081E090E09093B316A7
:104A50008093B2168091941690919516892B09F443
:104A6000A9CF81E092E10E9414211092B316109216
:104A7000B21600919A1510919B15F8011995F8013D
:104A800019950E94E11C00919C1510919D15F8014B
:104A90001995F80119958ECFDF91CF911F910F9144
:104AA00008956F927F928F929F92AF92BF92CF9212
:104AB000DF92EF92FF920F931F93CF93DF933B010F
:104AC0004C015901D42FC52F1F921F928DE38F9354
:104AD00089E08F931F930F935F934F93BF922F9310
:104AE0009F928F927F926F93FF92EF92DF92CF927D
:104AF0008FEB92E19F938F930E949765B301C4015E
:104B00000E94B4602A2D3B2D4D2F5C2F0E946661C0
:104B10002C2D3D2D4E2D5F2D0E9466616B017C0179
:104B200029E03DE3D8010E941D620E94B4609B0110
:104B3000AC01C701B6010E940C602DB73EB72C5ED8
:104B40003F4F0FB6F8943EBF0FBE2DBFDF91CF9100
:104B50001F910F91FF90EF90DF90CF90BF90AF909B
:104B60009F908F907F906F9008952F923F924F92D9
:104B70005F926F927F928F929F92AF92BF92CF92ED
:104B8000DF92EF92FF920F931F93CF93DF93CDB7F6
:104B9000DEB7AE970FB6F894DEBF0FBECDBF8FA3C2
:104BA00098A71B0129A73AA74BA75CA70E94AD476E
:104BB00080E090E00E94774769837A838B839C83AF
:104BC00081E090E00E9477474B015C0186E090E035
:104BD0000E9477472B013C0187E090E00E947747D5
:104BE0006B017C012091EC283091ED284091EE285A
:104BF0005091EF282D833E834F835887A8EEB8E26B
:104C00008D919D910D90BC91A02D89879A87AB873E
:104C1000BC878091CC169091CD16A091CE16B09104
:104C2000CF1629813A814B815C81281B390B4A0BB5
:104C30005B0B2D873E874F87588B8091C8169091CC
:104C4000C916A091CA16B091CB16A5019401281BD4
:104C5000390B4A0B5B0B298B3A8B4B8B5C8B80910E
:104C6000C4169091C516A091C616B091C716A3019F
:104C70009201281B390B4A0B5B0B2D8B3E8B4F8B04
:104C8000588F8091C0169091C116A091C216B09114
:104C9000C316A7019601281B390B4A0B5B0B298F02
:104CA0003A8F4B8F5C8F8091BC169091BD16A0916E
:104CB000BE16B091BF162D813E814F815885281BAD
:104CC000390B4A0B5B0B2D8F3E8F4F8F58A3809172
:104CD000B8169091B916A091BA16B091BB16298555
:104CE0003A854B855C85281B390B4A0B5B0B29A346
:104CF0003AA34BA35CA380E090E00E9477476093C7
:104D0000CC167093CD168093CE169093CF1681E07B
:104D100090E00E9477476093C8167093C9168093FD
:104D2000CA169093CB1686E090E00E947747609376
:104D3000C4167093C5168093C6169093C71687E065
:104D400090E00E9477476093C0167093C1168093DD
:104D5000C2169093C316E8EEF8E280819181A28199
:104D6000B3818093B8169093B916A093BA16B093F6
:104D7000BB168091EC289091ED28A091EE28B0917F
:104D8000EF288093BC169093BD16A093BE16B093E7
:104D9000BF1687E090E00E94774786E090E00E948F
:104DA0007747F091B416FDA32091B5162EA300917C
:104DB000B6163091B7163EA7EDE2F9E211814081B7
:104DC0004DA70E94823D5CA15F93ABA1AF93BAA1B6
:104DD000BF93E9A1EF93F8A1FF932F8D2F933E8D01
:104DE0003F934D8D4F935C8D5F93AB8DAF93BA8D99
:104DF000BF93E98DEF93F88DFF932F892F933E8911
:104E00003F934D894F935C895F93AB89AF93BA8988
:104E1000BF93E989EF93F889FF932F852F933E8500
:104E20003F934D854F935C855F93AB85AF93BA8578
:104E3000BF93E985EF93F885FF932F812F933E81F0
:104E40003F934D814F93FF92EF92DF92CF927F92EB
:104E50006F925F924F92BF92AF929F928F925C81BE
:104E60005F93AB81AF93BA81BF93E981EF93FEA5C6
:104E7000FF930F932EA12F933DA13F931F921F935A
:104E80001F924DA54F939F938F937F936F9358A538
:104E90005F938FA18F938BED92E19F938F930E94ED
:104EA00097650FB6F894DEBF0FBECDBFB9A5BD8F15
:104EB000EAA5E9A3BBA4ACA4CB2EDE2EEB2CFA2CE6
:104EC000810120E030E040E950E46D857E858F85EA
:104ED00098890E94512569837D8389879D873D8DAF
:104EE00029A1C501C32ED22EE92EF82E2AE939E9CF
:104EF00049E050E469897A898B899C890E9451250F
:104F0000962E872E782E692E3D8D29A1C501C32EA0
:104F1000D22EE92EF82E2AE939E941E251E46D89D1
:104F20007E898F89988D0E945125562E472E898B18
:104F30009D8B3D8D29A1C501C32ED22EE92EF82EC1
:104F400026E636E646E651E4698D7A8D8B8D9C8D9A
:104F50000E945125AF92BF92F9A1FF932D8D2F93FF
:104F60009F938F937F936F933D893F9349894F938D
:104F70004F925F926F927F928F929F925D855F9327
:104F800089858F939D819F93A981AF938FE993E149
:104F90009F938F930E9497658091B4169091B51658
:104FA000A091B616B091B7160196A11DB11D8093C0
:104FB000B4169093B516A093B616B093B7160FB665
:104FC000F894DEBF0FBECDBFAE960FB6F894DEBF2D
:104FD0000FBECDBFDF91CF911F910F91FF90EF904A
:104FE000DF90CF90BF90AF909F908F907F906F9009
:104FF0005F904F903F902F900895E6E4F1E090810C
:10500000208180813081492F407C932F9295969505
:1050100096959370940F269526952073920F8295FE
:105020008C70890F0895CF93C82F8DED93E19F93D6
:105030008F930E9497650F900F90C0FF04C08AEE77
:1050400093E10E94D965C1FF04C089EF93E10E94FA
:10505000D965C2FF04C088E094E10E94D965C3FF0E
:1050600004C087E194E10E94D965C4FF05C086E2CF
:1050700094E1CF910C94D965CF9108958F929F922E
:10508000AF92BF92CF92DF92EF92FF920F931F9356
:10509000CF93DF93CDB7DEB72A970FB6F894DEBF74
:1050A0000FBECDBF0E94063F0E94153F0E94152CE7
:1050B00046E069E180E00E94A83E80E00E94FD3E5B
:1050C0000E946E3D60EA76E881E090E00E94C72A87
:1050D000E9E3F9E222E432E4318320833A968DB7A2
:1050E0009EB70A97E817F907B8F38DEA94E09F9303
:1050F0008F930E94AB658EB30E9413280E94974A3B
:105100000E94614780919400909195009093D128DE
:105110008093D02881E08093C4280E94D94960E020
:1051200070E088EC92E00E946A4A0E9404470E9464
:10513000C44B60EA7BE480E00E94EF3EE0918A1578
:10514000F0918B1519950E94FD2790E00E94223F57
:1051500081E394E19F938F930E9497650E94D12BE6
:105160008093EA279093EB270F900F900F900F906A
:1051700080FF19C061E0CE0101960E94C62BCE01CE
:1051800001960E949D4F8A81082E000C990B982F42
:1051900088272885820F911D27FD9A959093E327F4
:1051A0008093E22717C087E394E10E94D9658CEFD2
:1051B000898382EC8A838DE38B831C821D821E820D
:1051C0008091E2279091E3279F838887CE01019603
:1051D0000E949D4F0E949C2A8C010E94982AAE0139
:1051E000475F5F4FB8010E947C420E940A2A0E94DA
:1051F000FE410E94A02A0E94C24380EA94E09F934D
:105200008F930E94AB658A81898788858A871F92E0
:105210008F930CE914E01F930F930E94AB6589856F
:105220001F928F931F930F930E94AB658AE994E0BE
:105230009F938F930E94AB650E94484EE0910216A7
:10524000F09103161995E091EC15F091ED15199573
:10525000E091DE15F091DF1519950E94C443882E68
:1052600000910E1610910F16F80119950FB6F894CB
:10527000DEBF0FBECDBF892B51F0F8011995BC01DF
:1052800080E890E00E94DF61162F072F02C010E82F
:1052900000E00E94FB41982EB090DC15A090DD1537
:1052A000D0900016C0900116F090EA15E090EB1532
:1052B0000E9453401F928F920F931F931F929F92B1
:1052C000AF92BF92CF92DF92EF92FF929F938F9314
:1052D00086E494E09F938F930E94AB6585E394E00E
:1052E0009F938F930E94AB6589EA92E10E94524797
:1052F0008DE294E09F938F930E94AB6588EE93E0DC
:105300009093E1278093E02784E00E940B2C0FB656
:10531000F894DEBF0FBECDBF2A960FB6F894DEBF5D
:105320000FBECDBFDF91CF911F910F91FF90EF90F6
:10533000DF90CF90BF90AF909F908F9008950E9484
:105340003E28C0E1D4E00E94E9490E94203F8091BC
:10535000E0279091E127009751F001979093E12782
:105360008093E027892B19F484E00E94102C80910F
:10537000E4279091E527009751F001979093E52756
:105380008093E427892B19F482E00E94102C84E09A
:105390000E94102C82E00E94102C0E949C3D0091E3
:1053A000E6271091E7272091E8273091E927601739
:1053B00071078207930739F20E949C3D6093E627AC
:1053C0007093E7278093E8279093E927DC01CB01CE
:1053D0009370AA27BB270397A105B10509F0B3CFA6
:1053E000E9E3F9E2808191818234924469F0E953E2
:1053F000F942FF93EF93DF93CF930E94AB650F9039
:105400000F900F900F909FCF3A96E53F81E8F807F5
:1054100048F399CFEF92FF920F931F93CF93DF93AF
:10542000CDB7DEB7A0970FB6F894DEBF0FBECDBFE5
:1054300089EA92E00E94BF66182F282F35EF380FB7
:10544000303108F0982F9095291709F463C089EE40
:1054500094E09F938F930E94AB65EEE2F5E08E019E
:105460000F5F1F4FCE0109960F900F90D801780162
:1054700024912D933196A817B907D1F7F89448E0F5
:1054800050E065EC72E0C8010E94ED66E0E2F5E0F4
:10549000CE010F96D80124912D933196A817B90704
:1054A000D1F74EE050E067EB72E0C8010E94ED6674
:1054B000E6E1F5E0CE010B962491D8012D938D0104
:1054C0003196A817B907C1F74AE050E06DEA72E0DB
:1054D000C7010E94ED666DEC7BEA87EA92E00E94CC
:1054E000056760E070E085EA92E00E94056760E091
:1054F00084EA92E00E94F76660E070E08BEA92E056
:105500000E9405671AE16AE175EE89EA92E00E945D
:1055100005677894812FA0960FB6F894DEBF0FBE72
:10552000CDBFDF91CF911F910F91FF90EF90089524
:1055300087EA92E00C94BF6685EA92E00C94BF661D
:1055400084EA92E00C94B7662FE130E08BE59EE0B0
:1055500041E951E020935101FA013197F1F760914F
:10556000510165FD0DC02031310521F02CF08B5427
:10557000910903C084EC99E0C29721503109EACF28
:10558000089580E090E0089581E090E008959B0107
:10559000AC011092B90060E074E284EF90E00E94E8
:1055A000F361DA01C9014097A109B109B695A79540
:1055B000979587958093B800089594EA9093BC00DE
:1055C00040EA56E861E070E09091BC0097FD07C0AA
:1055D0004150510961097109B9F781E0089590912D
:1055E000B900987F983011F09031B9F78093BB00E3
:1055F00084E88093BC0080EA96E8A1E0B0E02091C6
:10560000BC0027FD05C00197A109B109C1F7E5CF8D
:105610008091B900887F883111F08034F1F680E004
:10562000089524EA34E844E92093BC009091BC003A
:1056300097FFFCCF9091B900987F983011F090318E
:1056400099F78093BB003093BC009091BC0097FF0A
:10565000FCCF9091B900987F903211F0983539F4D1
:105660004093BC009091BC0094FDFCCFDDCF089529
:1056700084E98093BC008091BC0084FDFCCF089538
:105680008093BB0084E88093BC008091BC0087FFBE
:10569000FCCF9091B900987F81E0983209F480E0C6
:1056A0000895CF93C82F8CEE0E94DD2A811103C08C
:1056B0008C2F0E94402BCF910C94382B8093BB00F1
:1056C00084E88093BC008091BC0087FFFCCF0895E4
:1056D000CF93DF93D62FC42F0E94DD2A8D2F0E94F7
:1056E0005E2B8C2F0E945E2BDF91CF910C94382B78
:1056F00084EC8093BC008091BC0087FFFCCF80913C
:10570000BB00089584E88093BC008091BC0087FFB3
:10571000FCCF8091BB000895CF92DF92EF92FF9271
:105720000F931F93CF93DF93C82FD62FF42E152FEF
:10573000022F0E94DD2A8D2F0E945E2B8C2F81600C
:105740000E94DD2ACF2DD12F10E0E12CF12C680131
:1057500081E0C81AD108E016F10671F0CE14DF041A
:1057600019F40E94822B02C00E94782B88838FEF4D
:10577000E81AF80A2196EFCFDF91CF911F910F9190
:10578000FF90EF90DF90CF900C94382BAC01662304
:1057900019F028E068E902C020E160E880EB0C9491
:1057A0008C2BCF93DF930E94203F80EB0E94DD2A59
:1057B000811105C00E94382BC1E0D0E002C0C0E0DA
:1057C000D0E00E94203F80E80E94DD2A811103C0C2
:1057D0000E94382BC2608CEE0E94DD2A811103C02A
:1057E0000E94382BC8600E94203F82ED0E94DD2A73
:1057F000811103C00E94382BC4600E94203F80EDBD
:105800000E94DD2A811103C00E94382BC061CE01A5
:10581000DF91CF91089581FD739882FD749808956A
:1058200081FD739A82FD749A08956C9A6B9A87E051
:105830000C94102C80917B00886080937B0089EC15
:1058400080937C0085E080937A0080917A00806864
:1058500080937A0080917B0087FFFCCF80917B0052
:1058600085FFFCCF80917A00806480937A008091DC
:105870007A0086FDFCCF80917A00806480937A0064
:1058800080917A0086FDFCCF60917800709179005C
:1058900080917A008F7780937A0080E090E00E9478
:1058A000B46027ED33EA40E95FE30E94666126E6D3
:1058B00036E648E853E40E949A5F20E030E040E298
:1058C00051E40E9466610E947E60CB01089580E0F1
:1058D00090E0089581E090E0089580937C008091AD
:1058E0007B00877F80937B0080917C00806C80931D
:1058F0007C0085E080937A0080917A0080688093B4
:105900007A0080917B0087FFFCCF80917B0085FF30
:10591000FCCF80917A00806480937A0080917A0035
:1059200086FDFCCF109279001092780024E030E0E0
:1059300080E090E040917A00406440937A0040918A
:105940007A0046FDFCCF4091780050917900840F99
:10595000951F2150310971F710927C0020917A0037
:105960002F7720937A009695879596958795089539
:1059700080E00E946D2CBC0180E090E00E94B46049
:1059800027ED34E34FEE5CE30E94666121EE3AE7D7
:1059900044E95EE30E949B5F089581E00E946D2CC4
:1059A000BC0180E090E00E94B46022E23FEF4CEC4A
:1059B0005BE30E946661089582E00E946D2CBC0149
:1059C00080E090E00E94B46022E23FEF4CEC5BE3A9
:1059D0000E946661089580E090E00895009719F4B0
:1059E0008091EC2705C08130910521F48091ED274D
:1059F00090E00895029729F48091D0169091D116E5
:105A000008958FEF9FEF089552985A981DBAE9E6CE
:105A1000F0E0808180628083EA9A53985B98EB9AE9
:105A2000808180688083E8E6F0E080818160808307
:105A300080E090E008951F920F920FB60F9211240C
:105A40008F939F938091680080FF0EC08091EC2718
:105A50008F5F8093EC278091D0169091D11601969C
:105A60009093D1168093D0169F918F910F900FBE77
:105A70000F901F9018951F920F920FB60F9211243E
:105A80008F938091680080FF05C08091ED278F5F24
:105A90008093ED278F910F900FBE0F901F90189558
:105AA00081E090E008955F98579A80EE91E00E941F
:105AB000B63D579880E490E00E94B63D4F9909C0EA
:105AC0008CE291E00E94B63D89B1881F8827881F2B
:105AD000089580E008950E94532D80E090E008959D
