:100000000C949D020C94BE020C94BE020C94C32F5F
:100010000C94E32F0C94BE020C94BE020C94BE020E
:100020000C94BE020C94BE020C94BE020C94BE0250
:100030000C94BE020C9480400C94BE020C94BE0240
:100040000C94BE020C94BE020C94BE020C94BE0230
:100050000C94BE020C94BE020C94BE020C94BE0220
:100060000C94BE020C9402410C94BE020C94BE028D
:100070000C94BE020C94BE020C94BE020C94BE0200
:100080000C9486550C94BE020C94BE020C94BE02D5
:100090000C9431410C94BE020C94BE020C94BE022E
:1000A0000C94BE020C94BE020C94BE020C94BE02D0
:1000B0000C94BE020C94BE020C94BE020C94BE02C0
:1000C0000C94BE020C94BE020C94BE020C94BE02B0
:1000D0000C94BE020C94BE020C94BE020C94BE02A0
:1000E0000C94BE020C9440490C9436490C94EC4894
:1000F0000C94B4480C944A490C942C490C94204913
:100100000C9414490C94BE020C94BE020C94BE02D2
:100110000C94BE020C94BE020C94BE020C94BE025F
:100120000C94BE020C94BE020C94BE020C94BE024F
:100130000C94BE02D244DE44E744EC44F1442C4526
:100140002F452C4542480348064809481048424874
:100150002A4842482E480048004800480048314894
:10016000344837483C480C942F4F0C94FB590C945E
:10017000E7440C94942F0C9409480C94553F0C942C
:1001800087450C9406480C94215B0C9413300C9416
:10019000D0450C942F450C94B4560C94F1440C9417
:1001A0007C310C9461500C9434480C949E3D0C941A
:1001B000583F0C945A520C94C0430C946A2D0C94E2
:1001C0006A500C94B2470C9437480C94E6500C9447
:1001D0009B3D0C944A2D0C94AC2F0C9464560C94BB
:1001E00056590C9429310C94A94F0C9400480C9446
:1001F000B2040C94F82F0C94BE030C94672D0C944D
:100200003C480C944A500C9403480C940E280C94CF
:10021000C02E0C94D8500C945E500C94B8500C9492
:100220005B520C9488460C94D2440C949A3F0C94E4
:100230009D3F0C940A040C94102F0C94F44A0C94D7
:100240003E570C9442480C940D420C94584E0C941A
:100250007C590C94C4440C9479440C945A590C94D1
:1002600056490C94EC440C94973F0C9419320C941E
:10027000CF4F0C94C0020C9454500C9467500C94C3
:10028000680B0C94E1410C94912F0C94F2420C9465
:100290003E580C944F500C94BD4D0C94EF470C9469
:1002A00077140C94804F0C9492410C948F560C94BC
:1002B000DA500C94EF040C9410480C94AB280C9476
:1002C000DE410C940D2F0C9431480C94D4420C94C4
:1002D000FB560C942C450C94523F0C94DF420C942A
:1002E00085260C9462500C9498270C9406310C943B
:1002F000733E0C9459500C94C5020C94B7430C9463
:100300002E480C94DE440C94234F0C942A480C94F1
:1003100060526E616E00696E660000407A10F35A9A
:1003200000A0724E18090010A5D4E80000E8764835
:10033000170000E40B54020000CA9A3B000000E1E1
:10034000F505000080969800000040420F00000074
:10035000A08601000000102700000000E803000054
:1003600000006400000000000A000000000001001E
:10037000000000002C76D888DC674F0823DFC1DF3F
:10038000AE59E1B1B796E5E3E453C63AE651997642
:1003900096E8E6C28426EB898C9B62ED407C6FFC7C
:1003A000EFBC9C9F40F2BAA56FA5F490055A2AF7BE
:1003B0005C936B6CF9676DC11BFCE0E40D47FEF5C7
:1003C00020E6B500D0ED902E03009435770500802F
:1003D000841E080000204E0A000000C80C3333338E
:1003E000330F986E12831141EF8D2114893BE6552E
:1003F00016CFFEE6DB18D1844B381BF77C1D901D11
:10040000A4BBE424203284725E228100C9F124EC72
:10041000A1E53D274E657665722D75736564207381
:100420007461636B203E2025642062797465730AD1
:10043000004F6E6C696E650A00526F7574696E6765
:1004400020456E61626C65640A0050414E3D307813
:1004500025582C204D41433D25732C205244433DCB
:1004600025732C204E4554574F524B3D25732C205D
:100470006368616E6E656C3D252D752C2063686523
:10048000636B2D726174652D487A3D252D752C2086
:1004900074782D706F7765723D252D750A000A00FE
:1004A00025783A004D41432061646472657373207E
:1004B000000A2A2A2A2A2A2A2A20426F6F74696E81
:1004C000672057494D45412D494354204150504CD8
:1004D00049434154494F4E2056455253494F4E20AF
:1004E000322E31202A2A2A2A2A2A2A0A0045455051
:1004F000524F4D20697320636F72727570742C2097
:10050000726577726974696E6720776974682064B0
:10051000656661756C74732E0A006C6F63616C683C
:100520006F73740041544D454741323536726672DF
:100530003200020000FFFE00000111241FBECFEFB9
:10054000D1E8DEBFCDBF00E00CBF17E1A0E0B2E014
:10055000EEEEF3ED00E00BBF02C007900D92A8375E
:10056000B107D9F72AE2A8E7B7E101C01D92A73A7F
:10057000B207E1F70E94452C0C94F5690C94000039
:10058000FC011182108283E00895AF92BF92CF9256
:10059000DF92EF92FF920F931F93CF93DF93CDB72C
:1005A000DEB7C159D1090FB6F894DEBF0FBECDBF7B
:1005B0006C01162FB42EA52E633821F481EF97E13C
:1005C0000E94714FF60180819181009741F0883738
:1005D0009340E9F0F6011182108283E0BDC04BEF39
:1005E00054E161E870E081EF97E10E94564FE0919D
:1005F000DA16F091DB166AE170E081E090E019957F
:1006000088E793E0F6019183808381E0A5C01538E7
:10061000E1F7F8944CE050E06CE872E0CE018658C7
:100620009F4F0E946B697894EB2DFA2DDF010D909E
:100630000020E9F711977D01EE1AFF0A8E010A5793
:100640001F4F4CE050E0BE0166587F4FC8010E942A
:10065000B3671F930F9387E293E09F938F931F924B
:100660008EE18F93035811091F930F930E94CD6859
:10067000F82EAF92BF9280911F291F928F93809185
:100680001E291F928F9380911D291F928F93809115
:100690001C291F928F9380911B291F928F93809109
:1006A0001A291F928F93809119291F928F938091FD
:1006B00018291F928F9383E393E09F938F9389E18F
:1006C0008E0D1F928F93C8018F0D911D9F938F9355
:1006D0000E94CD688F0DEE24E394E80EF801E80F38
:1006E000F11D10820FB6F894DEBF0FBECDBFC8015A
:1006F0000E949D6880910A02806189838091F01731
:100700008A83F12CB7016E5F7F4FCE0101960E9464
:10071000E55181EF97E10E94734F8091F0178F5F51
:100720008093F0178BE593E09F938F931F9282E065
:100730008F93E00EF11EFF92EF920E94CD68A80108
:1007400065E88BE592E00E94134D0F900F900F909B
:100750000F900F900F9054CFCF56DF4F0FB6F894F5
:10076000DEBF0FBECDBFDF91CF911F910F91FF90E4
:10077000EF90DF90CF90BF90AF9008950F931F93AD
:10078000CF93DF938B010E948B51EC0184E00E9498
:10079000235290932F2980932E2983E00E94235285
:1007A000809348299093492921E030E030930D1837
:1007B00020930C1829811F922F9328812F701F924C
:1007C0002F939F938F9380912F298F9380912E2920
:1007D0008F93F80181811F928F9380811F928F9355
:1007E0002296DF93CF938EE593E09F938F930E94A1
:1007F0005B6810920D1810920C18EDB7FEB770964A
:100800000FB6F894FEBF0FBEEDBFDF91CF911F91E1
:100810000F910895CF92DF92EF92FF920F931F9363
:10082000CF93DF93EC0188819981009709F47AC016
:100830008C3E994021F01982188283E08AC08EEBA9
:1008400096E20E94BA4B892B09F482C081E090E0C5
:1008500090930D1880930C18E091B915F091BA158A
:1008600080E090E019958C01BC01990F880B990BE1
:100870000E946E6320E030E040E250E40E94236476
:10088000F62EE72ED82EC92EA7019601852F942F7C
:10089000A32FB22F8093001890930118A0930218F1
:1008A000B09303182091FC173091FD174091FE176B
:1008B0005091FF17D701F6016B2F7A2F8F2F9E2FA4
:1008C0000E941E64181674F4A7019601852F942FB8
:1008D000A32FB22F8093FC179093FD17A093FE17C0
:1008E000B093FF178091FF178F938091FE178F931E
:1008F0008091FD178F938091FC178F931F930F9317
:10090000CF92DF92EF92FF928CE893E09F938F93C8
:100910000E945B688DB79EB70C960FB6F8949EBF89
:100920000FBE8DBF81E090E090930D1880930C185E
:1009300040E850E060E070E080E299E20E94A64B5F
:1009400010920D1810920C188CEE99E09983888300
:1009500081E0DF91CF911F910F91FF90EF90DF9099
:10096000CF900895CF93DF93FC0120813181211531
:10097000310551F02237384029F0FC0111821082F4
:1009800083E02AC0653839F5EC010E94D841809196
:100990000C1890910D18892B21F083B7817F866008
:1009A00002C083B7817F83BFF89483B7816083BF20
:1009B0007894889583B78E7F83BF789440E050E029
:1009C00065E880917B1990917C190E94F64C82E732
:1009D00098E09983888381E0DF91CF9108958F9289
:1009E0009F92AF92BF92CF92DF92EF92FF920F93BE
:1009F0001F93CF93DF93CDB7DEB7C456D1090FB69F
:100A0000F894DEBF0FBECDBF7C01FC0180819181D7
:100A1000009749F08E3E910509F46EC0F7011182EE
:100A2000108283E090C181E090E090930D18809354
:100A30000C1888E992E00E9483699093E3178093F1
:100A4000E21740E05EE160E070E086ED97E10E9431
:100A5000A64B1092D5171092D4178091D41790916D
:100A6000D517029734F70091D6161091D716F801D2
:100A700019958091D4179091D517892B19F480E09E
:100A800090E002C08FEF90E00E9453448FE090E02E
:100A90009093D3178093D217C090D416D090D516C8
:100AA0008091D2179091D31797FD14C0F601199534
:100AB0008091D2179091D3170E947A46F801199528
:100AC0008091D2179091D31701979093D317809369
:100AD000D217E6CF8091D4179091D517019709F0DE
:100AE00028C110920D1810920C188EEE90E0F701AC
:100AF0009183808381E027C186ED97E10E94BA4B04
:100B0000892BC1F3CC24C394D12CD0920D18C09260
:100B10000C188091D0179091D11701969093D1170E
:100B20008093D0170E945E2F9B01AC016CE370E0B4
:100B300082EC93E00E944D298C0110920D181092C6
:100B40000C182091CC173091CD174091CE175091B1
:100B5000CF17FC0160817181828193810E94536271
:100B6000B62EA72E982E892EA5019401852F942F9D
:100B7000A32FB22F8093CC179093CD17A093CE17AD
:100B8000B093CF17F8012085318542855385609158
:100B9000C8177091C9178091CA179091CB170E94FE
:100BA00053626093C8177093C9178093CA179093C4
:100BB000CB17F80124853585468557856091C41784
:100BC0007091C5178091C6179091C7170E94536204
:100BD0006093C4177093C5178093C6179093C71777
:100BE0002091D0173091D1178091E2179091E3179F
:100BF0002817390709F099C063EC73E0CE0101961C
:100C00000E94AC6717E18F929F92AF92BF928BEDDB
:100C100093E09F938F931F928DE08F9381E090E0FC
:100C20008C0F9D1F810F911D9F938F930E94CD6804
:100C3000180F8091CB178F938091CA178F93809153
:100C4000C9178F938091C8178F9387EE93E09F9376
:100C50008F931F9202E10F9381E090E08C0F9D1F14
:100C6000810F911D9F938F930E94CD68180F8091E3
:100C7000C7178F938091C6178F938091C5178F9355
:100C80008091C4178F9388EF93E09F938F931F9267
:100C90000F9381E090E08C0F9D1F810F911D9F931A
:100CA0008F930E94CD681092CC171092CD1710929E
:100CB000CE171092CF171092C8171092C917109222
:100CC000CA171092CB171092C4171092C517109222
:100CD000C6171092C717810FE1E0F0E0EC0FFD1F7F
:100CE000E80FF11D108210920D1810920C18E0916F
:100CF000D416F091D5161995AE014F5F5F4F65E898
:100D00008DE892E00E94134D1092D1171092D017E7
:100D1000D0920D18C0920C1886ED97E10E94B04B4E
:100D20000FB6F894DEBF0FBECDBF86ED97E10E94EF
:100D3000B04B8091D4179091D51701969093D51709
:100D40008093D4178ACECC59DF4F0FB6F894DEBF0C
:100D50000FBECDBFDF91CF911F910F91FF90EF900C
:100D6000DF90CF90BF90AF909F908F900895F894B0
:100D70004CE050E060E872E086E897E10E946B6921
:100D8000789486E897E108954F925F926F927F92F0
:100D90008F929F92AF92BF92CF92DF92EF92FF928B
:100DA000CF93DF938091602982FF7CC0C091D215E0
:100DB000D091D3158BE090E0FE0119957C018AE07B
:100DC00090E0FE0119954C0189E090E0FE01199533
:100DD000092C000CAA08BB0825E1880C991CAA1C48
:100DE000BB1C2A95D1F7092E000CAA0BBB0BDC010A
:100DF0009927882724013501482A592A6A2A7B2AFB
:100E000088E090E0FE0119954C01990FAA08BB08F3
:100E10004BE0880C991CAA1CBB1C4A95D1F784286E
:100E20009528A628B72887E090E0FE01199567016C
:100E3000FCEBCF1AF7E0DF0A0D2C000CEE08FF08E0
:100E4000B701A601E9E1440F551F661F771FEA9518
:100E5000D1F76C01990FEE08FF08F5E0CC0CDD1C12
:100E6000EE1CFF1CFA95D1F7C828D928EA28FB28E0
:100E7000C42AD52AE62AF72A86E090E0FE011995D1
:100E8000092E000CAA0BBB0BC2E0B695A79597954F
:100E90008795CA95D1F7BC01CD016C297D298E2992
:100EA0009F2904C060E070E081E29AE4DF91CF9175
:100EB000FF90EF90DF90CF90BF90AF909F908F907A
:100EC0007F906F905F904F90089587E094E00E942C
:100ED0009D6886E494E00E949D6880E894E09F937A
:100EE0008F930E945B6887E994E09F938F930E94A1
:100EF0005B6883EB94E09F938F930E945B688DEC1B
:100F000094E09F938F930E945B6885EF94E09F939A
:100F10008F930E945B688EE095E09F938F930E9471
:100F20005B688DE495E09F938F930E945B688AE7EE
:100F300095E09F938F930E945B688DE995E09F9366
:100F40008F930E945B688AED95E09F938F930E9438
:100F50005B688CE096E09F938F930E945B6881E4CE
:100F600096E09F938F930E945B6881E696E09F9343
:100F70008F930E945B688FE996E09F938F930E9406
:100F80005B68809160292DB73EB7245E3F4F0FB656
:100F9000F8943EBF0FBE2DBF82FF1AC081E090E0E3
:100FA00090930D1880930C1889EC96E09F938F9383
:100FB0000E945B6880E197E09F938F930E945B683B
:100FC00010920D1810920C180F900F900F900F9018
:100FD0008AE090E00E94976887E597E00C949D680E
:100FE000CF92DF92EF92FF920F931F93CF93DF93F5
:100FF000F89480EA92E00E948369D82EC92E8EE987
:1010000092E00E948369F82EE92E8CE992E00E941A
:101010008369182F092F8AE992E00E948369EC0105
:10102000789488E997E00E949D68CF92DF9287EBE1
:1010300097E09F938F930E945B68EF92FF9286ECFC
:1010400097E09F938F930E945B680F931F9385EDAA
:1010500097E09F938F930E945B68DF93CF9384EE1A
:1010600097E09F938F930E945B688DB79EB74096E1
:101070000FB6F8949EBF0FBE8DBFDF91CF911F9129
:101080000F91FF90EF90DF90CF900895F89488E94A
:1010900092E00E94836978949F938F9383EF97E007
:1010A0009F938F930E945B680F900F900F900F900B
:1010B00008950F931F93CF93DF938C010E94766660
:1010C000EC01892B49F4F8018081803329F41F93C6
:1010D0000F9380E298E00BC0F894BE0188E992E09B
:1010E0000E94AB697894DF93CF938AE798E09F934F
:1010F0008F930E945B680F900F900F900F90DF917D
:10110000CF911F910F910895CF92DF92EF92FF92AE
:101110000F931F93CF93DF936C01F89480EA92E0D2
:101120000E948369F82EE92E8EE992E00E9483697D
:10113000182F092F8CE992E00E948369EC018AE95B
:1011400092E00E9483697894F6012081203329F48B
:10115000EF92FF928CEA98E012C0213329F40F93AA
:101160001F938FEC98E00BC0223329F4DF93CF93C9
:1011700082EF98E004C09F938F9385E199E09F935D
:101180008F930E945B680F900F900F900F90DF91EC
:10119000CF911F910F91FF90EF90DF90CF90089526
:1011A000EF92FF920F931F93CF93DF938C017B01FC
:1011B0000E947666EC01892B49F4F8018081803326
:1011C00029F41F930F9388E399E037C0F7018081DA
:1011D000803361F4F894BE0180EA92E00E94AB692A
:1011E0007894DF93CF9381E999E027C0813361F44C
:1011F000F894BE018EE992E00E94AB697894DF9387
:10120000CF9382EB99E019C0823361F4F894BE0168
:101210008CE992E00E94AB697894DF93CF9383EDE1
:1012200099E00BC0F894BE018AE992E00E94AB6994
:101230007894DF93CF9384EF99E09F938F930E94EC
:101240005B680F900F900F900F90DF91CF911F91DF
:101250000F91FF90EF9008958F929F92AF92BF925F
:10126000CF92DF92EF92FF920E9454406B017C017B
:101270008CE3882E912CA12CB12CC701B601A501BD
:1012800094010E94B0649F938F937F936F93CA01E0
:10129000B901A50194010E94B0649F938F937F933D
:1012A0006F93C701B60120E13EE040E050E00E94AC
:1012B000B064CA01B90128E130E040E050E00E948A
:1012C000B0649F938F937F936F93C701B60120E81B
:1012D00031E541E050E00E94B0645F934F933F934B
:1012E0002F9385E19AE09F938F930E945B688DB75F
:1012F0009EB742960FB6F8949EBF0FBE8DBFFF906B
:10130000EF90DF90CF90BF90AF909F908F90089517
:101310000F931F93CF93DF93CDB7DEB72C970FB604
:10132000F894DEBF0FBECDBF4CE050E0BC018E0193
:101330000F5F1F4FC8010E94B367F8944CE050E064
:101340006CE872E0C8010E94896961E070E082E1A6
:1013500090E00E94AB6978941F930F938AE59AE01E
:101360009F938F930E945B680F900F900F900F9048
:101370002C960FB6F894DEBF0FBECDBFDF91CF9194
:101380001F910F9108950F931F93CF93DF93CDB7C4
:10139000DEB72C970FB6F894DEBF0FBECDBFF89422
:1013A00082E190E00E948369019729F083E79AE047
:1013B0000E949D6816C04CE050E06CE872E08E011F
:1013C0000F5F1F4FC8010E946B691F930F9386E840
:1013D0009AE09F938F930E945B680F900F900F90FD
:1013E0000F9078942C960FB6F894DEBF0FBECDBF49
:1013F000DF91CF911F910F910895EF92FF920F937C
:101400001F93CF93DF93C091D215D091D31586E06F
:1014100090E0FE011995F82EE92E87E090E0FE019C
:101420001995182F092F88E090E0FE011995EF9289
:10143000FF920F931F939F938F9386E99AE09F9358
:101440008F931F928FE08F9381EA97E19F938F9301
:101450000E94CD688DB79EB70C960FB6F8949EBFCC
:101460000FBE8DBF81EA97E1DF91CF911F910F9160
:10147000FF90EF900895EF92FF920F931F93CF93F9
:10148000DF93C091D215D091D3158BE090E0FE018F
:101490001995F82EE92E8AE090E0FE011995182F93
:1014A000092F89E090E0FE011995EF92FF920F93CA
:1014B0001F939F938F9385EA9AE09F938F931F9238
:1014C0008FE08F9382E997E19F938F930E94CD687D
:1014D0008DB79EB70C960FB6F8949EBF0FBE8DBF0A
:1014E00082E997E1DF91CF911F910F91FF90EF90EB
:1014F0000895CF92DF92EF92FF920F931F93CF93B5
:10150000DF93CDB7DEB72C970FB6F894DEBF0FBED2
:10151000CDBFD82EC92E162F49E050E0682F792F65
:10152000CE0101960E94B367CE010D967C01111188
:1015300048C064EB7AE00C970E9480678E01065FDA
:101540001F4F009779F0E016F10661F00E94766671
:10155000F80181938F0164EB7AE080E090E00E94D3
:101560008067EFCF6A858FEF860F8F3128F0CF929B
:10157000DF9286EB9AE069C0EB848FEF8E0D8C30A2
:10158000B0F7FC84F3E6FF1594F30091D4151091A5
:10159000D51570E083E090E0F80119956E2D70E0AC
:1015A00084E090E0F80119956F2D70E085E090E0FF
:1015B000F80119950E943B0A9F938F938DEE9AE054
:1015C00044C06BEF7AE0CE0101960E9480678E01E5
:1015D000065F1F4F009779F00E151F0561F00E94FE
:1015E0007666F80181938F016BEF7AE080E090E0FE
:1015F0000E948067EFCF6A85693128F0CF92DF9231
:101600008DEF9AE022C0EB84FCE3FE15B8F3FC8476
:10161000FF15A0F30091D4151091D51570E082E06C
:1016200090E0F80119956E2D70E081E090E0F801EE
:1016300019956F2D70E080E090E0F80119950E94F7
:10164000FD099F938F9384E39BE09F938F930E9468
:101650005B680F900F900F900F902C960FB6F89438
:10166000DEBF0FBECDBFDF91CF911F910F91FF90D5
:10167000EF90DF90CF900895F89444E650E06CEA44
:1016800071E08BE092E00E94896978940895F89463
:1016900044E650E068E471E08BE092E00E948969E2
:1016A00078940895F89444E650E064EE70E08BE09E
:1016B00092E00E94896978940895F89444E650E095
:1016C00060E870E08BE092E00E9489697894089568
:1016D0002F923F924F925F926F927F928F929F9242
:1016E000AF92BF92CF92DF92EF92FF920F931F9330
:1016F000CF93DF93CDB7DEB76C970FB6F894DEBF0C
:101700000FBECDBF9A8F898F85E0E2E4FBE0DE015A
:101710001D9601900D928A95E1F787E0FE01729681
:10172000DF01982F1D929A95E9F795E0E7E4FBE039
:10173000DE01119601900D929A95E1F7FE01369621
:10174000DF011D928A95E9F7109209181092081886
:10175000109207181092061810920518109204188B
:1017600010920D1810920C18E98DFA8D80819181DC
:10177000892B09F02BC161E088E199E20E946C2E6F
:10178000F89481E090E090930D1880930C1860918C
:1017900008187091091886E090E00E94AB6960918A
:1017A00006187091071884E090E00E94AB69609180
:1017B00004187091051882E090E00E94AB698AE1FC
:1017C00090E00E9483694C0188E190E00E94836967
:1017D0005C0186E190E00E9483696C0184E190E005
:1017E0000E9483697C0180E190E00E9483698C0102
:1017F0008EE090E00E9483693C018CE090E00E94C2
:1018000083692C018AE090E00E9483691C0188E0D2
:1018100090E00E9483699C8F8B8F80E090E00E9413
:101820008369019761F06EE170E088E992E00E94BF
:10183000AB6961E070E080E090E00E94AB698A945F
:10184000892861F06CE370E080EA92E00E94AB6965
:1018500061E070E08AE190E00E94AB69AA94AB2855
:1018600061F060E070E08EE992E00E94AB6961E0B7
:1018700070E088E190E00E94AB69CA94CD2861F0E5
:1018800060E070E08CE992E00E94AB6961E070E09A
:1018900086E190E00E94AB69EA94EF2861F060E095
:1018A00070E08AE992E00E94AB6961E070E084E157
:1018B00090E00E94AB6901301105B1F061E070E089
:1018C00080E190E00E94AB694CE050E060E872E09B
:1018D000CE010D960E9489694CE050E064E772E009
:1018E000CE0101960E9489696A946728C1F00E941E
:1018F0003C0B61E070E08EE090E00E94AB694CE050
:1019000050E060E872E0CE010D960E9489694CE0DB
:1019100050E064E772E0CE0101960E9489694A9422
:101920004528C1F00E94470B61E070E08CE090E038
:101930000E94AB694CE050E060E872E0CE010D9689
:101940000E9489694CE050E064E772E0CE010196A4
:101950000E9489692A942328C1F00E94520B61E0F9
:1019600070E08AE090E00E94AB694CE050E060E8F3
:1019700072E0CE010D960E9489694CE050E064E768
:1019800072E0CE0101960E9489698B8D9C8D019732
:10199000C1F00E945D0B61E070E088E090E00E9481
:1019A000AB694CE050E060E872E0CE010D960E9419
:1019B00089694CE050E064E772E0CE0101960E9434
:1019C000896910920D1810920C187894A98DBA8D0F
:1019D0001D921C9283E06C960FB6F894DEBF0FBE8A
:1019E000CDBFDF91CF911F910F91FF90EF90DF90CE
:1019F000CF90BF90AF909F908F907F906F905F90AF
:101A00004F903F902F900895AF92BF92CF92DF9268
:101A1000EF92FF920F931F93CF93DF93CDB7DEB773
:101A2000C059D1400FB6F894DEBF0FBECDBFF894B9
:101A30006E0183EDC81A8EEFD80A44E650E06CEAD6
:101A400071E0C6010E946B697E0199ECE90EF11C00
:101A500044E650E068E471E0C7010E946B698E01C2
:101A60000B591F4F44E650E064EE70E0C8010E943D
:101A70006B6944E650E060E870E0CE0101965C01DD
:101A80000E946B697894DF92CF928CE49BE09F93E5
:101A90008F930E945B68FF92EF928BE59BE09F9390
:101AA0008F930E945B681F930F938AE69BE09F933E
:101AB0008F930E945B68BF92AF9289E79BE09F93F0
:101AC0008F930E945B6888E89BE00E949D680FB638
:101AD000F894DEBF0FBECDBFC057DE4F0FB6F894EF
:101AE000DEBF0FBECDBFDF91CF911F910F91FF9051
:101AF000EF90DF90CF90BF90AF900895EF92FF925C
:101B00000F931F93CF93DF937C018701F701C0816F
:101B1000FFEFEF1AFF0A8C2F90E00E946C67892B71
:101B2000A1F7CC2391F0E80109900020E9F7229772
:101B30000C171D0710F0198208C0888190E00E94E0
:101B40006C67892BC1F32197F3CFC801DF91CF9147
:101B50001F910F91FF90EF9008951F93CF93DF9304
:101B6000CDB7DEB72C970FB6F894DEBF0FBECDBF52
:101B7000182F4CE050E0CE0101960E94B367F89414
:101B80004CE050E0113019F460E872E002C064E704
:101B900072E0CE0101960E94896978942C960FB666
:101BA000F894DEBF0FBECDBFDF91CF911F91089596
:101BB000813011F40C94B706F8944CE050E064E7DF
:101BC00072E08AE797E10E946B6978948AE797E16F
:101BD00008958F929F92AF92BF92CF92DF92EF9231
:101BE000FF920E9454406B017C0188E69CE00E94B9
:101BF0009D6882E00E94D80DB82EA92E0E94B706DB
:101C0000AF92BF929F938F9381EB9CE09F938F93B2
:101C10000E945B688BE092E09F938F938BED9CE03A
:101C20009F938F930E945B680E94F00742E160EFF0
:101C30007CE08091BC269091BD260E94683C2DB727
:101C40003EB7265F3F4F0FB6F8943EBF0FBE2DBF85
:101C5000892B19F48BEF9CE002C085E19DE00E9486
:101C60009D680E94C3098091602982FF1CC00E9468
:101C70003B0A9F938F938EE29DE09F938F930E94E8
:101C80005B680E94FD099F938F9380E49DE09F9382
:101C90008F930E945B688DB79EB708960FB6F89435
:101CA0009EBF0FBE8DBF8CE3882E912CA12CB12C32
:101CB000C701B601A50194010E94B0649F938F9360
:101CC0007F936F93CA01B901A50194010E94B0648A
:101CD0009F938F937F936F93C701B60120E13EE0FE
:101CE00040E050E00E94B064CA01B90128E130E050
:101CF00040E050E00E94B0649F938F937F936F9376
:101D0000C701B60120E831E541E050E00E94B0642F
:101D10005F934F933F932F9382E59DE09F938F9323
:101D20000E945B680E94040D2DB73EB72E5E3F4FA8
:101D30000FB6F8943EBF0FBE2DBF8EE89DE0FF901A
:101D4000EF90DF90CF90BF90AF909F908F900C94CA
:101D50009D68CF92DF92EF92FF920F931F93CF93E4
:101D6000DF93CDB7DEB768970FB6F894DEBF0FBE2E
:101D7000CDBF8C0184E190E00E94FB646C0143E1E3
:101D800050E0B8010E94B36767ED7DE0C6010E9494
:101D900080678E01035F1F4F4BE050E0BC01C8011C
:101DA0000E94B36767ED7DE080E090E00E9480676D
:101DB0004BE050E0BC01CE0101967C010E94B3676C
:101DC00045E050E0B80182E49BE00E94D767892B90
:101DD00061F48981882349F0B70181E00E94AD0D4B
:101DE000FF92EF9289ED9DE019C045E050E0B80107
:101DF00087E49BE00E94D767892B61F4898188235F
:101E000049F0B70182E00E94AD0DFF92EF928FEE94
:101E10009DE004C01F930F9385E09EE09F938F93F6
:101E20000E945B680F900F900F900F90C60168960C
:101E30000FB6F894DEBF0FBECDBFDF91CF911F91DB
:101E40000F91FF90EF90DF90CF900C9493652F92BD
:101E50003F924F925F926F927F928F929F92AF923A
:101E6000BF92CF92DF92EF92FF920F931F93CF9387
:101E7000DF93CDB7DEB7C651D1400FB6F894DEBFC1
:101E80000FBECDBFCB5EDE4F8883C551D140CA5E49
:101E9000DE4F9883C651D140CD5EDE4F7983688393
:101EA000C351D1408A01CF5EDE4F39832883C151AF
:101EB000D14084E690E00E94FB643C0182E2E9EFBD
:101EC000F2E0DE01A551BF4F01900D928A95E1F736
:101ED000F894CF5EDE4FA881B981C151D1408C9179
:101EE000803329F444E650E06CEA71E014C0813399
:101EF00029F444E650E068E471E00DC0823329F42F
:101F000044E650E064EE70E006C0833349F444E6F2
:101F100050E060E870E0CE018B599F4F0E946B69E2
:101F20007894FE01319684E6DF011D928A95E9F7E7
:101F300044E650E0BE016B597F4FC3010E94B36776
:101F40006FE879E0C3010E9480671E01B9EC2B0E97
:101F5000311C7101412C512C009781F00E947E0DA3
:101F6000F701819391937F01FFEF4F1A5F0A6FE8AA
:101F700079E080E090E00E948067EECF01301105AB
:101F800009F088C0CB5EDE4F0881C551D140CA5EE2
:101F9000DE4F1881C651D140E12CF12CCD5EDE4FD1
:101FA000E881F981C351D140EE16FF060CF044C020
:101FB0004101C12CD12CAA24A394B12C4C145D0452
:101FC000C9F0D8016D917C91FB0101900020E9F7E7
:101FD0003197AF01461B570BF401819191914F014D
:101FE0000E94D767892B11F4A12CB12CFFEFCF1AD7
:101FF000DF0AE4CFAA94AB28C9F4D801AD90BC9015
:10200000F50101900020E9F731976F01CA18DB084C
:102010006FE879E0CE018B599F4F0E94A167A6011E
:10202000B501CE018B599F4F0E94C767BFEFEB1AD6
:10203000FB0A0E5F1F4FB2CFA6968FADA6978823DF
:1020400009F439C1F894CF5EDE4FA881B981C1513E
:10205000D1408C91803329F444E650E06CEA71E081
:1020600015C0813329F444E650E068E471E00EC005
:10207000823329F444E650E064EE70E007C0833315
:1020800009F018C144E650E060E870E0CE018B59D9
:102090009F4F0EC1012B09F00EC1812C912CA12C58
:1020A000B12CA414B50409F4DBC0CB5EDE4FE8818B
:1020B000C551D140C35FDE4FE883CD50D140CA5EE9
:1020C000DE4FF881C651D140C25FDE4FF883CE505B
:1020D000D140E12CF12C81E090E0C15FDE4F99838B
:1020E0008883CF50D140CD5EDE4F88819981C35126
:1020F000D140E816F9060CF044C0F10100811181CD
:10210000F80101900020E9F73197AF01401B510B16
:10211000C35FDE4FA881B981CD50D140CD90DD9015
:10212000C35FDE4FB983A883CD50D140B601C8014B
:102130000E94D767892B09F5F80180818435B9F4AD
:1021400045E050E06BE27CE0C6010E94D76731E0D9
:1021500020E0892B09F030E0C15FDE4F3883CF509B
:10216000D140C05FDE4F2883C051D14006C0C15F5F
:10217000DE4F19821882CF50D140FFEFEF1AFF0ACD
:10218000B2CFD1010D911D911D017E01BBEEEB0E71
:10219000F11CF701B496C35FDE4FF983E883CD509D
:1021A000D140C12CD12CF601EE0FFF1F8BEE90E039
:1021B0008C0F9D1FE80FF91FA081B181FD010190D7
:1021C0000020E9F73197AF014A1B5B0BD7016D91F6
:1021D0007D917D01C8010E94D767892B19F4CC2419
:1021E000C394D12CC35FDE4FE881F981CD50D1403B
:1021F000EE16FF06C1F6C15FDE4F88819981CF5090
:10220000D140019749F5CA94CD2831F5F8010190E4
:102210000020E9F78114910461F4AF01401B510BD8
:10222000B801CE0101960E94B36788248394912C53
:1022300010C031977F01E01AF10A6FE879E0CE0112
:1022400001960E94A167A701B801CE0101960E94E4
:10225000C767AFEF8A1A9A0ABFEFAB1ABB0A21CF42
:102260008981882341F1F894CF5EDE4FA881B9813E
:10227000C151D1408C91803329F444E650E06CEA9E
:1022800071E014C0813329F444E650E068E471E061
:102290000DC0823329F444E650E064EE70E006C0DD
:1022A000833341F444E650E060E870E0CE010196EB
:1022B0000E9489697894C301CA5EDE4F0FB6F89414
:1022C000DEBF0FBECDBFDF91CF911F910F91FF9069
:1022D000EF90DF90CF90BF90AF909F908F907F90C6
:1022E0006F905F904F903F902F900C9493652F923A
:1022F0003F924F925F926F927F928F929F92AF9296
:10230000BF92CF92DF92EF92FF920F931F93CF93E2
:10231000DF93CDB7DEB7C451D1400FB6F894DEBF1E
:102320000FBECDBFCF5EDE4F8883C151D140CE5EA0
:10233000DE4F9883C251D140C15FDE4F79836883FD
:10234000CF50D14084E690E00E94FB646C0184E6AB
:1023500090E00E94FB643C0182E2E9EFF2E0DE01E2
:10236000A551BF4F01900D928A95E1F7F894C15F96
:10237000DE4FA881B981CF50D1408C91803329F4B0
:1023800044E650E06CEA71E014C0813329F444E67D
:1023900050E068E471E00DC0823329F444E650E077
:1023A00064EE70E006C0833349F444E650E060E830
:1023B00070E0CE018B599F4F0E946B697894FE01AB
:1023C000319684E6DF011D928A95E9F744E650E0F4
:1023D000CF5EDE4F6881C151D140CE5EDE4F788145
:1023E000C251D140C3010E94B3676FE879E0C301D5
:1023F0000E9480678E0107531F4F212C312C0097BC
:1024000081F00E947E0DF801819391938F01FFEF7F
:102410002F1A3F0A6FE879E080E090E00E94806721
:10242000EECF44E650E0BE016B597F4FC6010E94DB
:10243000B3676FE879E0C6010E948067412C512C98
:102440002BEE30E02C0F3D1F2C5D3F4FCD5EDE4F5D
:1024500039832883C351D140009709F47DC00E947D
:102460007E0D7C01FC0101900020E9F731978F017E
:10247000081B190BCE0187539F4F4C01A12CB12C87
:10248000A1E0B0E0C35FDE4FB983A883CD50D14057
:102490002A143B04A1F0A801B701F40181919191A4
:1024A0004F010E94D767892B31F4C35FDE4F198239
:1024B0001882CD50D140FFEFAF1ABF0AE9CF9E017D
:1024C00025513F4F5901812C912CA801B701D5010D
:1024D0008D919D915D010E94D767892B19F4882405
:1024E0008394912CCD5EDE4FE881F981C351D140B8
:1024F000EA15FB0551F7C35FDE4F28813981CD50C6
:10250000D1402130310509F58A948928F1F441142C
:10251000510461F4A8014F5F5F4FB701CE010196EE
:102520000E94B36744244394512C0FC06FE879E0B4
:10253000CE0101960E94A167A801B701CE010196C4
:102540000E94C7678FEF481A580A6FE879E080E069
:1025500090E00E94806780CFF89489818823E1F120
:10256000C15FDE4FA881B981CF50D1408C918033BB
:1025700029F444E650E06CEA71E014C0813329F498
:1025800044E650E068E471E00DC0823329F444E68B
:1025900050E064EE70E006C0833341F444E650E05E
:1025A00060E870E0CE0101960E948969CE5EDE4F40
:1025B000B881C251D140BF93CF5EDE4FE881C15197
:1025C000D140EF9383E29EE09F938F930E945B68DC
:1025D0000F900F900F900F907894C6010E94936512
:1025E000C301CC5EDE4F0FB6F894DEBF0FBECDBF89
:1025F000DF91CF911F910F91FF90EF90DF90CF90DF
:10260000BF90AF909F908F907F906F905F904F9012
:102610003F902F900C9493652F923F924F925F9230
:102620006F927F928F929F92AF92BF92CF92DF92E2
:10263000EF92FF920F931F93CF93DF93CDB7DEB747
:10264000CE5AD1090FB6F894DEBF0FBECDBFC55527
:10265000DF4F8883CB5AD040C455DF4F9883CC5A84
:10266000D040C755DF4F79836883C95AD04084E68C
:1026700090E00E94FB647C0184E690E00E94FB6491
:102680006C0182E2E9EFF2E0DE01A957BF4F019051
:102690000D928A95E1F7F894C755DF4FE881F981EB
:1026A000C95AD0408081803329F444E650E06CEA76
:1026B00071E014C0813329F444E650E068E471E02D
:1026C0000DC0823329F444E650E064EE70E006C0A9
:1026D000833341F444E650E060E870E0CE010196B7
:1026E0000E946B69789444E650E0BE016F5F7F4FB3
:1026F000C7010E94B3676FE879E0C7010E94806755
:102700008E010B591F4F412C512C009781F00E94D4
:102710007E0DF801819391938F01FFEF4F1A5F0AAD
:102720006FE879E080E090E00E948067EECF44E6B9
:1027300050E0C555DF4F6881CB5AD040C455DF4FBC
:102740007881CC5AD040C6010E94B3676FE879E027
:10275000C6010E94806727E830E02C0F3D1F2C5DEA
:102760003F4FC355DF4F39832883CD5AD040009760
:1027700009F45CC00E947E0D8C01FC0101900020D8
:10278000E9F731973F01681A790ACE018B599F4FBB
:102790004C01A12CB12C22242394312C4A145B042B
:1027A00081F0A301B801F401819191914F010E9440
:1027B000D767892B11F4212C312CFFEFAF1ABF0AF8
:1027C000EDCF9E0129573F4F5901812C912CA30138
:1027D000B801F501819191915F010E94D767892B22
:1027E00019F488248394912CC355DF4F28813981B3
:1027F000CD5AD0402A153B0551F72A94232879F465
:102800008A94892861F46FE879E0CE0101960E94EC
:10281000A167A301B801CE0101960E94C7676FE8C6
:1028200079E080E090E00E948067A1CF89818823D1
:1028300009F43EC0F894C755DF4FE881F981C95AC1
:10284000D0408081803329F444E650E06CEA71E0A6
:1028500014C0813329F444E650E068E471E00DC00F
:10286000823329F444E650E064EE70E006C083331E
:1028700041F444E650E060E870E0CE0101960E9429
:1028800089697894C455DF4FF881CC5AD040FF93C2
:10289000C555DF4F2881CB5AD0402F938DE49EE061
:1028A0009F938F930E945B680F900F900F900F90F3
:1028B000C6010E949365C701C255DF4F0FB6F89459
:1028C000DEBF0FBECDBFDF91CF911F910F91FF9063
:1028D000EF90DF90CF90BF90AF909F908F907F90C0
:1028E0006F905F904F903F902F900C9493658F92D4
:1028F0009F92AF92BF92CF92DF92EF92FF920F938F
:102900001F93CF93DF931F921F92CDB7DEB76C0159
:10291000CA01F601208131812115310549F1223AA0
:10292000324029F0F6011182108283E03BC22091EF
:102930005E2A261326C0BE016F5F7F4F0E9480670C
:102940008C0181E090E090930D1880930C18F801B1
:10295000B080F8E6BF1217C0F80101900020E9F737
:10296000CF0102978017910709F017C20E946507EF
:1029700010920D1810920C1882EA92E0F6019183E1
:10298000808381E00FC242E050E065EA7EE0C8014A
:102990000E94D767892B09F04BC0F80101900020F5
:1029A000E9F7CF0103978017910719F40E94F00708
:1029B000DFCFF80183818332B1F584818053843085
:1029C00028F586E090E00E94FB647C0146E050E040
:1029D000B8016C5F7F4F0E94B367F801858188233F
:1029E00089F086E090E00E94FB645C01B8016B5FB7
:1029F0007F4F46E050E00E94B367B701C5010E94D7
:102A0000D00875C1C7010E948408C3C11F930F93EA
:102A100088EA9EE09F938F930E945B680F900F90CF
:102A20000F900F90A5CF1F930F9383EE9EE0F2CFF0
:102A300042E050E06CEE76E1C8010E94D767892B36
:102A400019F40E94E90D94CF43E050E068E17FE083
:102A5000C8010E94D767892B29F5F8010190002051
:102A6000E9F7CF0104978017910719F40E944608EF
:102A70007FCFF8018481882381F086E090E00E9476
:102A8000FB647C01B8016C5F7F4F46E050E00E9420
:102A9000B367C7010E9459087CC11F930F938CE153
:102AA0009FE0B8CF44E050E065E57FE0C8010E94B8
:102AB000D767892BE1F4F80101900020E9F73197FD
:102AC000E01BF10B359780F08CE090E00E94FB64F6
:102AD0007C01B8016B5F7F4F4CE050E00E94B36710
:102AE000C7010E94880955C10E94C30941CFF5E77B
:102AF000BF1203C00E942C093BCF44E050E06AE5BE
:102B00007FE0C8010E94D767892B39F5F801019051
:102B10000020E9F73197E01BF10BE430F10539F4BF
:102B20000E943B0A9F938F938FE59FE073CF359769
:102B3000399770F489E090E00E94FB647C01B80151
:102B40006B5F7F4F49E050E00E94B36760E02FC0A9
:102B50001F930F9389E69FE05DCF44E050E068EC5F
:102B600074E0C8010E94D767892B51F5F8010190E4
:102B70000020E9F73197E01BF10BE430F10539F45F
:102B80000E94FD099F938F938AE99FE043CF359779
:102B9000399788F489E090E00E94FB647C01B801D9
:102BA0006B5F7F4F49E050E00E94B36761E0C7016F
:102BB0000E94790AEEC01F930F9384EA9FE02ACF08
:102BC00042E050E06DE776E1C8010E94D767892BAB
:102BD00009F091C0F80101900020E9F7CF010397B7
:102BE0008017910719F40E94040DC2CE84E690E08C
:102BF0000E94FB645C0144E650E0B8016D5F7F4FCA
:102C00000E94B367F50180818053863008F06BC065
:102C100084E690E00E94FB647C0144E650E0B80149
:102C20006C5F7F4F0E94B36744E050E065ED7FE04A
:102C3000C7010E94D767892B59F40E943C0B0E9460
:102C4000470B0E94520B0E945D0B0E94040D4FC067
:102C5000F70180818823D1F184E690E00E94FB6433
:102C60004C01B8016B5F7F4F44E650E00E94B367B0
:102C7000F70180818B3259F4B501C4010E940C1315
:102C80008AED9FE00E949D680E94040D1DC08D3258
:102C900099F4B501C4010E947711FF92EF928EEF73
:102CA0009FE09F938F930E945B680E94040D0F909A
:102CB0000F900F900F9008C00E94040DC5010E9454
:102CC0009365C7010E949365C4010AC088E290E140
:102CD0000E949D680E94040DC5010E949365C70172
:102CE0000E94936504C08BE390E10E949D68C5013A
:102CF0000E9493654EC045E050E060E670E1C80177
:102D00000E94D767892B09F048C0F8010190002084
:102D1000E9F7CF01069780179107D9F40E94B7060B
:102D20009F938F9386E690E19F938F930E945B68B9
:102D300082E00E94D80D9F938F938FE690E19F933E
:102D40008F930E945B680FB6F894DEBF0FBECDBFB5
:102D50000FCE84E190E00E94FB647C01B8016A5FC1
:102D60007F4F43E150E00E94B367F70180818823E1
:102D700021F0C7010E94A90E0CC0FF92EF9288E7D4
:102D800090E19F938F930E945B680F900F900F903C
:102D90000F90C7010E949365EBCD1F930F9383E7BC
:102DA0009EE038CE0F900F90DF91CF911F910F9141
:102DB000FF90EF90DF90CF90BF90AF909F908F905B
:102DC0000895CF93DF93CDB7DEB7C85CD1090FB6B6
:102DD000F894DEBF0FBECDBF44E650E0BC01CE018B
:102DE00001960E94B367F89444E650E06CE170E00D
:102DF000CE0101960E948969789481E090E09093D9
:102E00000B1880930A18C853DF4F0FB6F894DEBF33
:102E10000FBECDBFDF91CF9108952F923F924F9279
:102E20005F926F927F928F929F92AF92BF92CF925A
:102E3000DF92EF92FF920F931F93CF93DF93CDB763
:102E4000DEB7C853D1400FB6F894DEBF0FBECDBF7A
:102E5000F89444E650E06CEA71E0CE018B599F4F44
:102E60000E946B6978946FE879E0CE018B599F4F8F
:102E70000E9480677C0110E0C0909C16D0909D1647
:102E8000C35DDE4FD982C882CD52D140C15DDE4FD5
:102E9000D982C882CF52D140CF5CDE4FD982C8825E
:102EA000C153D1408091B9159091BA15CD5CDE4FD8
:102EB00099838883C353D140A090B116B090B216C5
:102EC000450160908216709083162090C615309050
:102ED000C71540909A1550909B15E091AB15F09155
:102EE000AC15CB5CDE4FF983E883C553D140C95C98
:102EF000DE4F59824882C753D140E114F10409F4EE
:102F000016C50E945E2F20E030E040E350E40E94AE
:102F1000BF6287FF54C0C7010E947E0D45E050E0AC
:102F20006BE27CE00E94D767892B39F4E091AB1506
:102F3000F091AC1580E090E055C0C7010E947E0D75
:102F400045E050E061E37CE00E94D767892B49F4BB
:102F500080E090E0C95CDE4FE881F981C753D14041
:102F600067C0C7010E947E0D44E050E066E27CE04D
:102F70000E94D767892B09F08CC40E945E2F9F9313
:102F80008F937F936F9387EC90E19F938F931F9222
:102F90008BE08F9389EC90E08C0F9D1F810F911D2A
:102FA0009F938F930E94CD68180F84ED90E10E944B
:102FB000E1160FB6F894DEBF0FBECDBF6AC4C701DD
:102FC0000E947E0D45E050E06BE27CE00E94D767F6
:102FD000892B01F580E090E0CB5CDE4FE881F98140
:102FE000C553D1401995BC01990F880B990B0E94CC
:102FF0006E6320E030E040E251E40E94C4629F939F
:103000008F937F936F938BEA90E19F938F931F929F
:103010008CE01CC4C7010E947E0D45E050E061E3D6
:103020007CE00E94D767892BD9F480E090E0F20120
:103030001995BC01990F880B990B0E946E6320E0D3
:1030400030E04AE754E40E94C4629F938F937F93D9
:103050006F9389EB90E19F938F931F928BE0F6C360
:10306000C7010E947E0D44E050E066E27CE00E94D1
:10307000D767892B49F40E945E2F9F938F937F938C
:103080006F9387EC90E1E7CFC7010E947E0D45E08A
:1030900050E062E47BE00E94D767892B01F50E9433
:1030A000732F2AE939E949E15EE30E94BF6287FF95
:1030B00003C08AED90E1EBC30E94732F20E030E063
:1030C00040EA50E40E941E6418169CF30E94732F7D
:1030D0009F938F937F936F9386EE90E125C2C701F4
:1030E0000E947E0D45E050E067E47BE00E94D767D8
:1030F000892B21F50E94732F2AE939E949E15EE322
:103100000E94BF6287FF03C081EF90E1C0C30E94AD
:10311000732F20E030E040EA50E40E941E6418164D
:103120009CF30E94822F9F938F937F936F938DEFD9
:1031300090E19F938F931F928DE088C3C7010E94F7
:103140007E0D42E050E063E27CE00E94D767892B6D
:1031500009F04AC080E090E0F1011995BC01990F97
:10316000880B990B0E946E6320E030E048EC52E43B
:103170000E94C46220E030E04CE552EC0E94BF6245
:1031800087FF03C088E091E182C380E090E0F10115
:103190001995BC01990F880B990B0E946E6320E072
:1031A00030E048EC52E40E94C46220E030E04AEF94
:1031B00052E40E941E6418162CF380E090E0F101A6
:1031C0001995BC01990F880B990B0E946E6320E042
:1031D00030E048EC52E40E94C4629F938F937F9347
:1031E0006F9382E191E126C1C7010E947E0DFC012F
:1031F0008081803509F056C08091CA269091CB26F7
:103200008C7E9927892B09F444C380E090E0F30178
:103210001995892B09F443C00E944F3F81113FC08B
:1032200080E090E0F3011995BC01990F880B990B90
:103230000E946E6320E030E040E251E40E94BF62F1
:1032400087FF03C08DE191E122C380E090E0F301AC
:103250001995BC01990F880B990B0E946E6320E0B1
:1032600030E046E954E40E941E6418165CF380E0E6
:1032700090E0F30119959F938F9386E291E19F93DC
:103280008F931F928CE08F9389EC90E08C0F9D1FA1
:10329000810F911D9F938F930E94CD68E2C28CE2B3
:1032A00091E1F5C2C7010E947E0DFC018081843549
:1032B00009F05DC08091CA2681FFEBC280E090E0FA
:1032C000F4011995892B09F4BAC00E94204081119C
:1032D000B6C080E090E0F4011995BC01990F880B0D
:1032E000990B0E946E6320E030E040E251E40E94BE
:1032F000C46220E030E040E252EC0E94BF6287FFEF
:1033000003C08AE391E1C3C280E090E0F401199523
:10331000BC01990F880B990B0E946E6320E030E08E
:1033200040E251E40E94C46220E030E04AEF52E4FF
:103330000E941E6418162CF380E090E0F4011995A9
:10334000BC01990F880B990B0E946E6320E030E05E
:1033500040E251E40E94C4629F938F937F936F93E6
:1033600083E491E19F938F931F9289E06FC2C7011D
:103370000E947E0D42E050E06CE17CE00E94D76745
:10338000892B09F05FC08091CA2681FF82C281E04B
:1033900090E0F5011995892B09F451C00E94204055
:1033A00081114DC081E090E0F5011995BC01990FA4
:1033B000880B990B0E946E6320E030E040E251E4FC
:1033C0000E94C46220E030E0A9010E94BF6287FF32
:1033D00003C088E591E15BC281E090E0F5011995B9
:1033E000BC01990F880B990B0E946E6320E030E0BE
:1033F00040E251E40E94C46220E030E048EC52E434
:103400000E941E6418162CF381E090E0F5011995D6
:10341000BC01990F880B990B0E946E6320E030E08D
:1034200040E251E40E94C4629F938F937F936F9315
:1034300082E691E19F938F931F928AE007C28BE40B
:1034400091E125C2C7010E947E0D44E050E067E390
:103450007CE00E94D767892B09F04DC080E090E0A6
:10346000CD5CDE4FE881F981C353D14019957C01D1
:10347000FF928F938BE691E19F938F931F920FE0C2
:103480000F9389EC90E08C0F9D1F810F911D9F93EE
:103490008F930E94CD68180F8091C2179091C31727
:1034A000E80EF91EF092C317E092C217FF92EF9256
:1034B00089E791E19F938F931F920F9389EC90E09E
:1034C0008C0F9D1F810F911D9F938F930E94CD683C
:1034D000180F0FB6F894DEBF0FBECDBF8091C21794
:1034E0009091C317803A95400CF4D3C11092C31742
:1034F0001092C217CEC1C7010E947E0D45E050E078
:1035000065E47CE00E94D767892B99F480910318C9
:103510008F93809102188F93809101188F938091DF
:1035200000188F9384E891E19F938F931F928FE00F
:103530008DC1C7010E947E0D46E050E06BEF7BE03D
:103540000E94D767892B39F58091FF178F9380915F
:10355000FE178F938091FD178F938091FC178F93A7
:1035600085E991E19F938F931F928FE08F9389EC70
:1035700090E08C0F9D1F810F911D9F938F930E9450
:10358000CD68180F1092FC171092FD171092FE17BD
:103590001092FF170ECDC7010E947E0D45E050E04E
:1035A00064E07CE00E94D767892B09F04AC08091D3
:1035B000CA2684FF6EC180E090E0CF5CDE4FE881D8
:1035C000F981C153D1401995892BB1F10E94943FE3
:1035D000811132C080E090E0CF5CDE4FE881F9815C
:1035E000C153D1401995BC01990F880B990B0E94CA
:1035F0006E6320E034E244E759E40E94C4629F9382
:103600008F937F936F9384EA91E19F938F931F929F
:1036100083E18F9389EC90E08C0F9D1F810F911DAA
:103620009F938F930E94CD68180F81E090E0909354
:10363000C1178093C017BDCC1092C1171092C0174C
:1036400028C1C7010E947E0D45E050E06AE07CE0A1
:103650000E94D767892B09F050C08091CA2684FF49
:1036600018C181E090E0C15DDE4FE881F981CF5261
:10367000D1401995892BE1F10E94943F811138C006
:103680008091C0179091C117892B91F581E090E04E
:10369000C15DDE4FE881F981CF52D1401995BC015F
:1036A000990F880B990B0E946E6320E034E244E787
:1036B00059E40E94C4629F938F937F936F9381EB31
:1036C00091E19F938F931F928EE08F9389EC90E00E
:1036D0008C0F9D1F810F911D9F938F930E94CD682A
:1036E000180F81E090E09093BF178093BE1761CCD4
:1036F0001092BF171092BE17CCC0C7010E947E0D5A
:1037000045E050E060E17CE00E94D767892B09F03A
:1037100057C08091CA2684FFBCC082E090E0C35DA0
:10372000DE4FE881F981CD52D1401995892B09F4FA
:1037300042C00E94943F81113EC08091C017909179
:10374000C117892BC1F58091BE179091BF17892BA6
:1037500091F582E090E0C35DDE4FE881F981CD52C2
:10376000D1401995BC01990F880B990B0E946E638B
:1037700020E034E244E759E40E94C4629F938F93AF
:103780007F936F938DEB91E19F938F931F928EE0C8
:103790008F9389EC90E08C0F9D1F810F911D9F935B
:1037A0008F930E94CD68180F81E090E09093BD1731
:1037B0008093BC17FECB1092BD171092BC1769C046
:1037C000C7010E947E0D45E050E066E17CE00E946A
:1037D000D767892B09F05DC08091CA2684FF59C044
:1037E00083E090E0F6011995892BE9F10E94943F5E
:1037F000811139C08091C0179091C117892B99F51B
:103800008091BE179091BF17892B69F58091BC17E5
:103810009091BD17892B39F583E090E0F601199559
:10382000BC01990F880B990B0E946E6320E034E273
:1038300044E759E40E94C4629F938F937F936F93F0
:1038400089EC91E19F938F931F928EE08F9389EC87
:1038500090E08C0F9D1F810F911D9F938F930E946D
:10386000CD68180FA6CB8091C0179091C117892BF6
:1038700081F48091BE179091BF17892B51F48091EC
:10388000BC179091BD17892B21F485ED91E10E9421
:10389000E11680910A1890910B18019749F5F89458
:1038A00044E650E06CE170E0FE0131967F01CF010B
:1038B0000E946B697894FF92EF9287E593E09F9363
:1038C0008F931F9280E18F9389EC90E08C0F9D1F66
:1038D000810F911D9F938F930E94CD68180F1092B6
:1038E0000B1810920A180FB6F894DEBF0FBECDBFAA
:1038F0001536A8F0E9ECF0E0EC0FFD1FE10FF11D2B
:103900001082AE0147535F4F65E88DE892E00E9458
:10391000134DC753DF4F1882C95CD04010E06FE8E9
:1039200079E080E090E00E9480677C01E6CAE9ECE3
:10393000F0E0EC0FFD1FE10FF11D1082AE014753C7
:103940005F4F65E88DE892E00E94134DC85CDE4F42
:103950000FB6F894DEBF0FBECDBFDF91CF911F91A0
:103960000F91FF90EF90DF90CF90BF90AF909F901E
:103970008F907F906F905F904F903F902F90089521
:103980002F923F925F926F927F928F929F92AF920F
:10399000BF92CF92DF92EF92FF920F931F93CF933C
:1039A000DF93CDB7DEB7C853D1400FB6F894DEBF72
:1039B0000FBECDBFF89444E650E064EE70E0CE0157
:1039C0008B599F4F0E946B6978946FE879E0CE0124
:1039D0008B599F4F0E9480678C01512CE0909C1660
:1039E000F0909D16C35DDE4FF982E882CD52D14042
:1039F000C15DDE4FF982E882CF52D140CF5CDE4F0D
:103A0000F982E882C153D1408091B9159091BA15DD
:103A1000CD5CDE4F99838883C353D140C090B116EB
:103A2000D090B21616016090821670908316A09006
:103A30009A15B0909B158090AB159090AC15CB5C0F
:103A4000DE4FB982A882C553D140C95CDE4F99824E
:103A50008882C753D1400115110509F484C30E941F
:103A60005E2F20E030E040E350E40E94BF6287FF19
:103A700056C0C8010E947E0D45E050E06BE27CE03C
:103A80000E94D767892B49F480E090E0C95CDE4F43
:103A9000E881F981C753D14050C0C8010E947E0D12
:103AA00045E050E061E37CE00E94D767892B49F450
:103AB00080E090E0CB5CDE4FE881F981C553D140D6
:103AC00062C0C8010E947E0D44E050E066E27CE0E6
:103AD0000E94D767892B09F0F7C20E945E2F9F933F
:103AE0008F937F936F9387EC90E19F938F931F92B7
:103AF0008BE08F9389EC90E08C0F9D1F850D911DBD
:103B00009F938F930E94CD68580E84ED90E10E94A0
:103B1000E1160FB6F894DEBF0FBECDBFD5C2C80107
:103B20000E947E0D45E050E06BE27CE00E94D7678A
:103B3000892BD9F480E090E0F4011995BC01990F2C
:103B4000880B990B0E946E6320E030E040E251E464
:103B50000E94C4629F938F937F936F938BEA90E14F
:103B60009F938F931F928CE08CC2C8010E947E0DA0
:103B700045E050E061E37CE00E94D767892BD9F4EF
:103B800080E090E0F5011995BC01990F880B990B25
:103B90000E946E6320E030E04AE754E40E94C46271
:103BA0009F938F937F936F9389EB90E19F938F9374
:103BB0001F928BE066C2C8010E947E0D44E050E077
:103BC00066E27CE00E94D767892B49F40E945E2F51
:103BD0009F938F937F936F9387EC90E1E7CFC8011A
:103BE0000E947E0D45E050E067E47BE00E94D767CD
:103BF000892B69F40E94822F9F938F937F936F93F9
:103C000084EE91E19F938F931F928DE03AC2C80199
:103C10000E947E0D45E050E062E47BE00E94D767A1
:103C2000892B69F40E94732F9F938F937F936F93D7
:103C300081EF91E19F938F931F928FE022C2C80181
:103C40000E947E0DFC018081803571F58091CA262D
:103C50009091CB268C7E9927892B09F435C280E080
:103C600090E0F3011995892BE1F00E944F3F8111FB
:103C700018C080E090E0F30119959F938F9386E23E
:103C800091E19F938F931F928CE08F9389EC90E04A
:103C90008C0F9D1F850D911D9F938F930E94CD6862
:103CA000FBC18CE291E10EC2C8010E947E0DFC01B5
:103CB0008081843551F58091CA2681FF05C280E05C
:103CC00090E0F1011995892B09F453C00E9420401E
:103CD00081114FC080E090E0F1011995BC01990F6E
:103CE000880B990B0E946E6320E030E040E251E4C3
:103CF0000E94C4629F938F937F936F9383E491E1BB
:103D00009F938F931F9289E0BCC1C8010E947E0DD2
:103D100042E050E06CE17CE00E94D767892B61F5BE
:103D20008091CA2681FFD0C181E090E0F60119950B
:103D3000892BF9F00E94234081111BC081E090E0A3
:103D4000F6011995BC01990F880B990B0E946E63BF
:103D500020E030E040E251E40E94C4629F938F93E0
:103D60007F936F9382E691E19F938F931F928AE0F6
:103D700088C18BE491E1A6C1C8010E947E0D44E098
:103D800050E067E37CE00E94D767892BF9F482E07A
:103D900090E0CD5CDE4FE881F981C353D1401995A5
:103DA000182F092F80E090E0CD5CDE4FE881F9818B
:103DB000C353D14019950F931F939F938F938EE216
:103DC00092E19F938F931F9282E15BC1C8010E9491
:103DD0007E0D45E050E064E07CE00E94D767892BCF
:103DE00009F04AC08091CA2684FF6EC180E090E04D
:103DF000CF5CDE4FE881F981C153D1401995892B01
:103E0000B1F10E94943F811132C080E090E0CF5C1C
:103E1000DE4FE881F981C153D1401995BC01990F5A
:103E2000880B990B0E946E6320E030E04AE754E46F
:103E30000E94C4629F938F937F936F938EEF91E163
:103E40009F938F931F928EE08F9389EC90E08C0F5D
:103E50009D1F850D911D9F938F930E94CD68580ED5
:103E600081E090E09093BB178093BA1752CE1092E6
:103E7000BB171092BA1728C1C8010E947E0D45E0F9
:103E800050E06AE07CE00E94D767892B09F050C0BF
:103E90008091CA2684FF18C181E090E0C15DDE4FA9
:103EA000E881F981CF52D1401995892BE1F10E9427
:103EB000943F811138C08091BA179091BB17892B1C
:103EC00091F581E090E0C15DDE4FE881F981CF524C
:103ED000D1401995BC01990F880B990B0E946E6314
:103EE00020E030E04AE754E40E94C4629F938F933D
:103EF0007F936F9381E492E19F938F931F928EE063
:103F00008F9389EC90E08C0F9D1F850D911D9F93E1
:103F10008F930E94CD68580E81E090E09093B9177E
:103F20008093B817F6CD1092B9171092B817CCC07D
:103F3000C8010E947E0D45E050E060E17CE00E94F7
:103F4000D767892B09F057C08091CA2684FFBCC06F
:103F500082E090E0C35DDE4FE881F981CD52D1402F
:103F60001995892B09F442C00E94943F81113EC0EB
:103F70008091BA179091BB17892BC1F58091B81722
:103F80009091B917892B91F582E090E0C35DDE4FE7
:103F9000E881F981CD52D1401995BC01990F880B68
:103FA000990B0E946E6320E030E04AE754E40E94DF
:103FB000C4629F938F937F936F938DE492E19F935D
:103FC0008F931F928EE08F9389EC90E08C0F9D1F52
:103FD000850D911D9F938F930E94CD68580E81E0AF
:103FE00090E09093B7178093B61793CD1092B717C0
:103FF0001092B61769C0C8010E947E0D45E050E0DE
:1040000066E17CE00E94D767892B09F05DC0809152
:10401000CA2684FF59C083E090E0F7011995892BE7
:10402000E9F10E94943F811139C08091BA179091B3
:10403000BB17892B99F58091B8179091B917892BE7
:1040400069F58091B6179091B717892B39F583E000
:1040500090E0F7011995BC01990F880B990B0E940C
:104060006E6320E030E04AE754E40E94C4629F930C
:104070008F937F936F9382E292E19F938F931F922E
:104080008EE08F9389EC90E08C0F9D1F850D911D24
:104090009F938F930E94CD68580E3BCD8091BA17A5
:1040A0009091BB17892B81F48091B8179091B91723
:1040B000892B51F48091B6179091B717892B21F471
:1040C00085ED91E10E94E11680910A1890910B18FC
:1040D000019749F5F89444E650E06CE170E08E01F8
:1040E0000F5F1F4FC8010E946B6978941F930F9355
:1040F00087E593E09F938F931F9280E18F9389ECE4
:1041000090E08C0F9D1F850D911D9F938F930E94B2
:10411000CD68580E10920B1810920A180FB6F8942A
:10412000DEBF0FBECDBFFCE3F515A8F4E9ECF0E06F
:10413000EC0FFD1FE50DF11D1082AE0147535F4FDF
:1041400065E88DE892E00E94134DC753DF4F188257
:10415000C95CD040512C6FE879E080E090E00E948B
:1041600080678C0178CCE9ECF0E0EC0FFD1FE50DE9
:10417000F11D1082AE0147535F4F65E88DE892E074
:104180000E94134DC85CDE4F0FB6F894DEBF0FBE21
:10419000CDBFDF91CF911F910F91FF90EF90DF90F6
:1041A000CF90BF90AF909F908F907F906F905F90D7
:1041B0003F902F9008952F923F925F926F927F923F
:1041C0008F929F92AF92BF92CF92DF92EF92FF9227
:1041D0000F931F93CF93DF93CDB7DEB7C853D14072
:1041E0000FB6F894DEBF0FBECDBFF89444E650E0A2
:1041F00060E870E0CE018B599F4F0E946B69789404
:104200006FE879E0CE018B599F4F0E9480678C0147
:10421000512CE0909C16F0909D16C35DDE4FF98204
:10422000E882CD52D140C15DDE4FF982E882CF52A3
:10423000D140CF5CDE4FF982E882C153D14020905B
:10424000B9153090BA15C090B116D090B21636019B
:10425000A0908216B09083168091C6159091C715D4
:10426000CD5CDE4F99838883C353D14080909A15EB
:1042700090909B15E091AB15F091AC15CB5CDE4FA7
:10428000F983E883C553D140C95CDE4F99828882A7
:10429000C753D1400115110509F498C30E945E2F40
:1042A00020E030E040E350E40E94BF6287FF54C04A
:1042B000C8010E947E0D45E050E06BE27CE00E9468
:1042C000D767892B39F4E091AB15F091AC1580E0FC
:1042D00090E055C0C8010E947E0D45E050E061E3CA
:1042E0007CE00E94D767892B49F480E090E0C95CAC
:1042F000DE4FE881F981C753D14067C0C8010E94F1
:104300007E0D44E050E066E27CE00E94D767892B96
:1043100009F00DC30E945E2F9F938F937F936F933D
:1043200087EC90E19F938F931F928BE08F9389ECA2
:1043300090E08C0F9D1F850D911D9F938F930E9480
:10434000CD68580E84ED90E10E94E1160FB6F89406
:10435000DEBF0FBECDBFEBC2C8010E947E0D45E09F
:1043600050E06BE27CE00E94D767892B01F580E08A
:1043700090E0CB5CDE4FE881F981C553D1401995BF
:10438000BC01990F880B990B0E946E6320E030E00E
:1043900040E251E40E94C4629F938F937F936F9396
:1043A0008BEA90E19F938F931F928CE09DC2C8018E
:1043B0000E947E0D45E050E061E37CE00E94D767FB
:1043C000892BD9F480E090E0F4011995BC01990F94
:1043D000880B990B0E946E6320E030E04AE754E4BA
:1043E0000E94C4629F938F937F936F9389EB90E1B8
:1043F0009F938F931F928BE077C2C8010E947E0D1E
:1044000044E050E066E27CE00E94D767892B49F4E3
:104410000E945E2F9F938F937F936F9387EC90E121
:10442000E7CFC8010E947E0D45E050E067E47BE0E5
:104430000E94D767892B69F40E94822F9F938F93E4
:104440007F936F9384EE91E19F938F931F928DE002
:104450004BC2C8010E947E0D45E050E062E47BE063
:104460000E94D767892B69F40E94732F9F938F93C3
:104470007F936F9381EF91E19F938F931F928FE0D2
:1044800033C2C8010E947E0D42E050E063E27CE04E
:104490000E94D767892B91F480E090E0CD5CDE4FDD
:1044A000E881F981C353D14019959F938F9389E592
:1044B00092E19F938F931F9289E027C0C8010E94C9
:1044C0007E0DFC018081803561F58091CA26909136
:1044D000CB268C7E9927892B09F429C280E090E0B5
:1044E000F5011995892B09F481C00E944F3F811174
:1044F0007DC080E090E0F50119959F938F9386E24F
:1045000091E19F938F931F928CE08F9389EC90E0C1
:104510008C0F9D1F850D911D9F938F930E94CD68D9
:10452000EEC1C8010E947E0DFC018081843551F5E9
:104530008091CA2681FFFBC180E090E0F3011995CC
:10454000892B09F453C00E94204081114FC080E0A4
:1045500090E0F3011995BC01990F880B990B0E940B
:104560006E6320E030E040E251E40E94C4629F9319
:104570008F937F936F9383E491E19F938F931F9227
:1045800089E0B2C1C8010E947E0D42E050E06CE1BA
:104590007CE00E94D767892B61F58091CA2681FF54
:1045A000C6C181E090E0F6011995892BF9F00E94CF
:1045B000234081111BC081E090E0F6011995BC01F8
:1045C000990F880B990B0E946E6320E030E040E267
:1045D00051E40E94C4629F938F937F936F9382E60E
:1045E00091E19F938F931F928AE07EC18BE491E1CA
:1045F0009CC1C8010E947E0D44E050E067E37CE06E
:104600000E94D767892BA9F482E090E0F101199507
:10461000182F092F80E090E0F10119950F931F9357
:104620009F938F938EE292E19F938F931F9282E1EB
:104630005BC1C8010E947E0D45E050E064E07CE073
:104640000E94D767892B09F04AC08091CA2684FF4F
:104650006EC180E090E0CF5CDE4FE881F981C1530C
:10466000D1401995892BB1F10E94943F811132C03C
:1046700080E090E0CF5CDE4FE881F981C153D1400A
:104680001995BC01990F880B990B0E946E6320E06D
:1046900030E04AE754E40E94C4629F938F937F9373
:1046A0006F938EEF91E19F938F931F928EE08F9384
:1046B00089EC90E08C0F9D1F850D911D9F938F932A
:1046C0000E94CD68580E81E090E09093B5178093DA
:1046D000B4173CCE1092B5171092B41728C1C80178
:1046E0000E947E0D45E050E06AE07CE00E94D767C2
:1046F000892B09F050C08091CA2684FF18C181E03F
:1047000090E0C15DDE4FE881F981CF52D14019952B
:10471000892BE1F10E94943F811138C08091B41738
:104720009091B517892B91F581E090E0C15DDE4F46
:10473000E881F981CF52D1401995BC01990F880BBE
:10474000990B0E946E6320E030E04AE754E40E9437
:10475000C4629F938F937F936F9381E492E19F93C1
:104760008F931F928EE08F9389EC90E08C0F9D1FAA
:10477000850D911D9F938F930E94CD68580E81E007
:1047800090E09093B3178093B217E0CD1092B317D7
:104790001092B217CCC0C8010E947E0D45E050E0D7
:1047A00060E17CE00E94D767892B09F057C08091B7
:1047B000CA2684FFBCC082E090E0C35DDE4FE88182
:1047C000F981CD52D1401995892B09F442C00E943C
:1047D000943F81113EC08091B4179091B517892BF9
:1047E000C1F58091B2179091B317892B91F582E0B2
:1047F00090E0C35DDE4FE881F981CD52D14019953B
:10480000BC01990F880B990B0E946E6320E030E089
:104810004AE754E40E94C4629F938F937F936F93FF
:104820008DE492E19F938F931F928EE08F9389EC9A
:1048300090E08C0F9D1F850D911D9F938F930E947B
:10484000CD68580E81E090E09093B1178093B01737
:104850007DCD1092B1171092B01769C0C8010E94A7
:104860007E0D45E050E066E17CE00E94D767892B31
:1048700009F05DC08091CA2684FF59C083E090E0B2
:10488000F7011995892BE9F10E94943F811139C0F4
:104890008091B4179091B517892B99F58091B21733
:1048A0009091B317892B69F58091B0179091B1174A
:1048B000892B39F583E090E0F7011995BC01990F38
:1048C000880B990B0E946E6320E030E04AE754E4C5
:1048D0000E94C4629F938F937F936F9382E292E1D1
:1048E0009F938F931F928EE08F9389EC90E08C0FB3
:1048F0009D1F850D911D9F938F930E94CD68580E2B
:1049000025CD8091B4179091B517892B81F48091B2
:10491000B2179091B317892B51F48091B0179091F1
:10492000B117892B21F485ED91E10E94E116809168
:104930000A1890910B18019749F5F89444E650E055
:104940006CE170E08E010F5F1F4FC8010E946B6920
:1049500078941F930F9387E593E09F938F931F9213
:1049600080E18F9389EC90E08C0F9D1F850D911D48
:104970009F938F930E94CD68580E10920B1810923F
:104980000A180FB6F894DEBF0FBECDBFFCE3F515D5
:10499000A8F4E9ECF0E0EC0FFD1FE50DF11D10822D
:1049A000AE0147535F4F65E88DE892E00E94134DDA
:1049B000C753DF4F1882C95CD040512C6FE879E0B3
:1049C00080E090E00E9480678C0164CCE9ECF0E02C
:1049D000EC0FFD1FE50DF11D1082AE0147535F4F37
:1049E00065E88DE892E00E94134DC85CDE4F0FB67B
:1049F000F894DEBF0FBECDBFDF91CF911F910F9115
:104A0000FF90EF90DF90CF90BF90AF909F908F90EE
:104A10007F906F905F903F902F900895CF92DF929C
:104A2000EF92FF920F931F93CF93DF93CDB7DEB733
:104A300028970FB6F894DEBF0FBECDBF8C010E9441
:104A4000772E8093CA269093CB2610920918109245
:104A50000818109207181092061810920518109254
:104A60000418C0901B03D0901C03E0901D03F0902D
:104A70001E0381FF1DC0E091B316F091B41661E0F2
:104A800070E081E890E01995C982DA82EB82FC82BD
:104A9000980141E050E062E070E0CE0101960E9492
:104AA000270F81E090E0909309188093081811C0B7
:104AB000C982DA82EB82FC82980140E050E062E039
:104AC00070E0CE0101960E94270F109209181092F3
:104AD00008188091CA2684FF22C0E0919E16F091AA
:104AE0009F1661E070E081E890E0199588E0EFE1C1
:104AF000F3E0DE01119601900D928A95E1F798019D
:104B000041E050E064E070E0CE0101960E94270F82
:104B100081E090E0909307188093061816C088E013
:104B2000EFE1F3E0DE01119601900D928A95E1F735
:104B3000980140E050E064E070E0CE0101960E94F0
:104B4000270F10920718109206188091CA2690918C
:104B5000CB268C7E9927892BE9F0E0918416F09181
:104B6000851661E070E081E890E019958FE19CE0A6
:104B70009A838983980141E050E061E070E0CE01C2
:104B800001960E94270F81E090E090930518809392
:104B9000041811C08FE19CE09A838983980140E05A
:104BA00050E061E070E0CE0101960E94270F109264
:104BB0000518109204188091CA2682FF0BC00E942B
:104BC0002C31E091D415F091D51561E070E081E8C9
:104BD00090E01995F89486E090E00E948369209116
:104BE0000818309109188217930719F1211531051A
:104BF00089F480E692E10E949D68609108187091A6
:104C0000091886E090E00E94AB698CE992E10E946D
:104C1000E1160FC02130310561F489EA92E10E946A
:104C20009D68609108187091091886E090E00E94D4
:104C3000AB6982E090E00E94836920910418309172
:104C400005188217930719F12115310589F482EEB1
:104C500092E10E949D68609104187091051882E0AD
:104C600090E00E94AB698FE193E10E94E1160FC0D2
:104C70002130310561F48DE293E10E949D686091DD
:104C800004187091051882E090E00E94AB6984E0FE
:104C900090E00E94836920910618309107188217CE
:104CA000930719F12115310589F487E693E10E94F4
:104CB0009D68609106187091071884E090E00E944A
:104CC000AB6985EA93E10E94E1160FC021303105FE
:104CD00061F484EB93E10E949D68609106187091E5
:104CE000071884E090E00E94AB69789428960FB68C
:104CF000F894DEBF0FBECDBFDF91CF911F910F9112
:104D0000FF90EF90DF90CF900895EF92FF920F9376
:104D10001F93CF93DF93EC0188819981009741F035
:104D2000803D914009F4B8C01982188283E0F9C02F
:104D3000E091C815F091C91561E070E081E890E05C
:104D40001995E091AD15F091AE1561E070E081E844
:104D500090E01995E0919C15F0919D1561E070E04F
:104D600081E890E01995E091BB15F091BC1561E0E8
:104D700070E081E890E0199581E090E090930D1843
:104D800080930C181092EF171092EE178091EE1787
:104D90009091EF17029784F70091D6161091D716CD
:104DA000F80119958091EE179091EF17892B19F45E
:104DB00080E090E002C08FEF90E00E9453448FE0CB
:104DC00090E09093ED178093EC17E090D416F0905C
:104DD000D5168091EC179091ED1797FD14C0F7014F
:104DE00019958091EC179091ED170E947A46F80181
:104DF00019958091EC179091ED1701979093ED170D
:104E00008093EC17E6CF0091EE171091EF17013069
:104E1000110509F053C080EA92E00E9483699093E3
:104E2000EB178093EA1710920D1810920C18892B2B
:104E300089F00E945E2F24EA30E74DE650E40E949C
:104E4000BF6287FF07C010930D1800930C1888E706
:104E500090E004C080EA92E00E9483699093EB178F
:104E60008093EA174091EA175091EB175695542F0B
:104E7000442757954795052E000C660B770B8CE35E
:104E800099E20E94A64B10920D1810920C1880ED1A
:104E900091E0998388831CC08CE399E20E94BA4B0D
:104EA000892BB1F081E090E090930D1880930C185D
:104EB0008091EA179091EB17009761F48091EE17BB
:104EC0009091EF1701969093EF178093EE175ECFB6
:104ED00081E027C08837910559F48091E8179091B7
:104EE000E91701969093E9178093E8170A9731F72D
:104EF00081EB94E10E940E2510920D1810920C186F
:104F0000E091D416F091D51619950E940D17E091F5
:104F1000D616F091D71619951092E9171092E81746
:104F2000CDCFDF91CF911F910F91FF90EF9008951A
:104F3000CF93DF93EC0188819981009741F08F3006
:104F4000924009F45BC01982188283E064C0E0914A
:104F5000C815F091C91561E070E081E890E01995FD
:104F6000E091AD15F091AE1561E070E081E890E060
:104F70001995E0919C15F0919D1561E070E081E834
:104F800090E01995E091BB15F091BC1561E070E0DF
:104F900081E890E019958EE992E00E948369892B5F
:104FA00029F48EE992E00E9483690CC00E945E2F72
:104FB0002DEC3CEC4CE350E40E94BF6287FFF1CF44
:104FC0008CE291E021E030E030930D1820930C1832
:104FD000AC015695542F44275795479560E070E0F3
:104FE0008CE099E20E94A64B10920D1810920C18BA
:104FF0008FE092E09983888381E00DC08CE099E294
:105000000E94BA4B892BC1F381E090E090930D1878
:1050100080930C18C0CFDF91CF910895CF93DF9389
:10502000EC0188819981009741F08434924009F421
:1050300065C01982188283E08BC0E091C815F09199
:10504000C91561E070E081E890E01995E091AD1537
:10505000F091AE1561E070E081E890E01995E09183
:105060009C15F0919D1561E070E081E890E0199544
:10507000E091BB15F091BC1561E070E081E890E033
:1050800019958CE992E00E9483699093E7178093C9
:10509000E617892B69F00E945E2F2DEC3CEC4CE367
:1050A00050E40E94BF6287FF03C088EE93E004C013
:1050B0008CE992E00E9483699093E7178093E6174A
:1050C00081E090E090930D1880930C184091E617C2
:1050D0005091E7175695542F44275795479560E010
:1050E00070E08EEB96E20E94A64B10920D18109283
:1050F0000C1884E492E09983888306C08EEB96E2D4
:105100000E94BA4B892B11F481E022C081E090E02B
:1051100090930D1880930C188091E6179091E717E3
:10512000892B09F4AECF85E794E10E940E251092F9
:105130000D1810920C18E091D416F091D51619950F
:105140000E94C01CE091D616F091D716199599CF00
:10515000DF91CF910895CF93DF93EC0188819981FE
:10516000009741F08737924009F46AC0198218828B
:1051700083E090C0E091C815F091C91561E070E03E
:1051800081E890E01995E091AD15F091AE1561E0E0
:1051900070E081E890E01995E0919C15F0919D15E3
:1051A00061E070E081E890E01995E091BB15F09125
:1051B000BC1561E070E081E890E019958AE992E021
:1051C0000E9483699093E5178093E417892B69F017
:1051D0000E945E2F26E636E646E450E40E94BF6257
:1051E00087FF03C088EE93E004C08AE992E00E9442
:1051F00083699093E5178093E41781E090E09093A2
:105200000D1880930C188AE992E00E9483699093AC
:10521000E5178093E417AC015695542F4427579512
:10522000479560E070E08EEF98E20E94A64B1092E6
:105230000D1810920C1887E792E09983888306C0B6
:105240008EEF98E20E94BA4B892B11F481E022C0C4
:1052500081E090E090930D1880930C188091E417F2
:105260009091E517892B09F4A9CF87E594E10E9475
:105270000E2510920D1810920C18E091D416F09192
:10528000D51619950E94DB20E091D616F091D7161D
:10529000199594CFDF91CF9108954F925F926F92BD
:1052A0007F928F929F92AF92BF92CF92DF92EF92B6
:1052B000FF920F931F93CF93DF93CDB7DEB72E9757
:1052C0000FB6F894DEBF0FBECDBF7E876D87690134
:1052D0007A010E94654A80E090E00E942F4A2B01EB
:1052E0003C0181E090E00E942F4A4B015C0186E086
:1052F00090E00E942F4A69837A838B839C8387E0A6
:1053000090E00E942F4AAB01BC0180913618909129
:105310003718A0913818B0913918481A590A6A0AF2
:105320007B0A8091321890913318A0913418B09173
:10533000351895018401081B190B2A0B3B0B0D83B3
:105340001E832F83388780912E1890912F18A0915B
:105350003018B091311809811A812B813C81081BCA
:10536000190B2A0B3B0B09831A832B833C838091F7
:105370002A1890912B18A0912C18B0912D188A0101
:105380009B01081B190B2A0B3B0B09871A872B87DC
:105390003C8780E090E00E942F4A6093361870931B
:1053A0003718809338189093391881E090E00E9464
:1053B0002F4A609332187093331880933418909367
:1053C000351886E090E00E942F4A60932E18709363
:1053D0002F18809330189093311887E090E00E9446
:1053E0002F4A60932A1870932B1880932C1890934F
:1053F0002D1887E090E00E942F4A86E090E00E94FE
:105400002F4A29E03DE3AD85BE850E94DA640E9403
:105410006C634B015C018091261890912718A09134
:105420002818B09129180196A11DB11D8093261846
:1054300090932718A0932818B0932918C301B2019C
:105440000E946C6320E030E040E950E40E94236455
:10545000A70196010E942364A50194010E94C462E1
:10546000EEE0F8E160837183828393836D817E81B6
:105470008F8198850E946C632AE939E949E050E4FC
:105480000E942364A70196010E942364A501940150
:105490000E94C462609312187093131880931418BA
:1054A0009093151869817A818B819C810E946C632D
:1054B0002AE939E941E251E40E942364A7019601F7
:1054C0000E942364A50194010E94C462609316188F
:1054D00070931718809318189093191869857A8516
:1054E0008B859C850E946C6326E636E646E651E491
:1054F0000E942364A70196010E942364A5019401E0
:105500000E94C46260931A1870931B1880931C1831
:1055100090931D188EE098E12E960FB6F894DEBF9A
:105520000FBECDBFDF91CF911F910F91FF90EF90F4
:10553000DF90CF90BF90AF909F908F907F906F90B3
:105540005F904F900895E6E4F1E0908120818081A2
:105550003081492F407C932F929596959695937024
:10556000940F269526952073920F82958C70890F43
:105570000895CF93C82F87E195E19F938F930E9461
:105580005B680F900F90C0FF04C084E295E10E9419
:105590009D68C1FF04C083E395E10E949D68C2FF3E
:1055A00004C082E495E10E949D68C3FF04C081E5C8
:1055B00095E10E949D68C4FF05C080E695E1CF910A
:1055C0000C949D68CF9108958F929F92AF92BF9255
:1055D000CF92DF92EF92FF920F931F93CF93DF93BF
:1055E000CDB7DEB72A970FB6F894DEBF0FBECDBF9A
:1055F0000E94BE410E94CD410E94BB2E46E069E15F
:1056000080E00E94604180E00E94B5410E942640F7
:1056100060EA76E881E090E00E946D2DE7EAFAE228
:1056200022E432E4318320833A968DB79EB70A97FD
:10563000E817F907B8F381EB94E09F938F930E94EA
:105640006F688EB30E94B92A0E944F4D0E94194A7A
:1056500080919400909195009093472A8093462AD8
:1056600081E080933A2A0E94914C60E070E082EDE4
:1056700092E00E94224D0E94BC490E947C4E68E547
:105680007EE480E00E94A741E091C416F091C51627
:1056900019950E94A32A90E00E94DA418BE695E1D9
:1056A0009F938F930E945B680E94772E809360295E
:1056B000909361290F900F900F900F9080FF19C069
:1056C00061E0CE0101960E946C2ECE0101960E94EF
:1056D00055528A81082E000C990B982F882728850F
:1056E000820F911D27FD9A959093592980935829EF
:1056F00017C081E795E10E949D688CEF898382EC59
:105700008A838DE38B831C821D821E82809158299F
:10571000909159299F838887CE0101960E94555206
:105720000E94422D8C010E943E2DAE01475F5F4FCB
:10573000B8010E9434450E94B02C0E94B6440E94D9
:10574000462D0E947A4684EA94E09F938F930E94AC
:105750006F688A81898788858A871F928F9300EA7C
:1057600014E01F930F930E946F6889851F928F9397
:105770001F930F930E946F688EE994E09F938F931D
:105780000E946F680E940051E0913C17F0913D1714
:105790001995E0912617F09127171995E0911817A0
:1057A000F091191719950E947C46882E0091481790
:1057B00010914917F80119950FB6F894DEBF0FBE86
:1057C000CDBF892B51F0F8011995BC0180E890E01C
:1057D0000E949C64162F072F02C010E800E00E9470
:1057E000B344982EB0901617A0901717D0903A1780
:1057F000C0903B17F0902417E09025170E940B43B0
:105800001F928F920F931F931F929F92AF92BF92FE
:10581000CF92DF92EF92FF929F938F938AE494E06E
:105820009F938F930E946F6889E394E09F938F9377
:105830000E946F688FEF94E10E940A4A81E394E02E
:105840009F938F930E946F6888EE93E090935729FF
:105850008093562984E00E94B12E0FB6F894DEBFE3
:105860000FBECDBF2A960FB6F894DEBF0FBECDBFD8
:10587000DF91CF911F910F91FF90EF90DF90CF902C
:10588000BF90AF909F908F9008950E94E42AC4E14A
:10589000D4E00E94A14C0E94D84180915629909159
:1058A0005729009751F001979093572980935629D3
:1058B000892B19F484E00E94B62E80915A29909188
:1058C0005B29009751F0019790935B2980935A29A7
:1058D000892B19F482E00E94B62E84E00E94B62E35
:1058E00082E00E94B62E0E94544000915C291091E3
:1058F0005D2920915E2930915F2960177107820729
:10590000930739F20E94544060935C2970935D299B
:1059100080935E2990935F29DC01CB019370AA27C5
:10592000BB270397A105B10509F0B3CFE7EAFAE277
:10593000808191818234924469F0E75AFA42FF9360
:10594000EF93DF93CF930E946F680F900F900F90AB
:105950000F909FCF3A96E53F81E8F80748F399CF3B
:10596000EF92FF920F931F93CF93DF93CDB7DEB7E4
:10597000A0970FB6F894DEBF0FBECDBF89EA92E0C4
:105980000E948369182F282F35EF380F303108F027
:10599000982F9095291709F463C08DEE94E09F939A
:1059A0008F930E946F68E2E3F5E08E010F5F1F4F57
:1059B000CE0109960F900F90D801780124912D9374
:1059C0003196A817B907D1F7F89448E050E065EC94
:1059D00072E0C8010E94B169E4E2F5E0CE010F96E1
:1059E000D80124912D933196A817B907D1F74EE02D
:1059F00050E067EB72E0C8010E94B169EAE1F5E0AE
:105A0000CE010B962491D8012D938D013196A817C4
:105A1000B907C1F74AE050E06DEA72E0C7010E94A1
:105A2000B1696DEC7BEA87EA92E00E94C96960E0A7
:105A300070E085EA92E00E94C96960E084EA92E041
:105A40000E94BB6960E070E08BEA92E00E94C96945
:105A50001AE16AE175EE89EA92E00E94C9697894D8
:105A6000812FA0960FB6F894DEBF0FBECDBFDF9199
:105A7000CF911F910F91FF90EF90089587EA92E0E8
:105A80000C94836985EA92E00C94836984EA92E03D
:105A90000C947B692FE130E08BE59EE041E951E019
:105AA00020935101FA013197F1F76091510165FDA1
:105AB0000DC02031310521F02CF08B54910903C029
:105AC00084EC99E0C29721503109EACF089580E033
:105AD00090E0089581E090E008959B01AC01109260
