:100000000C949B020C94BC020C94BC020C94BD2C6E
:100010000C94DD2C0C94BC020C94BC020C94BC021D
:100020000C94BC020C94BC020C94BC020C94BC0258
:100030000C94BC020C946A3D0C94BC020C94BC025F
:100040000C94BC020C94BC020C94BC020C94BC0238
:100050000C94BC020C94BC020C94BC020C94BC0228
:100060000C94BC020C94EC3D0C94BC020C94BC02AD
:100070000C94BC020C94BC020C94BC020C94BC0208
:100080000C9470520C94BC020C94BC020C94BC02F4
:100090000C941B3E0C94BC020C94BC020C94BC024D
:1000A0000C94BC020C94BC020C94BC020C94BC02D8
:1000B0000C94BC020C94BC020C94BC020C94BC02C8
:1000C0000C94BC020C94BC020C94BC020C94BC02B8
:1000D0000C94BC020C94BC020C94BC020C94BC02A8
:1000E0000C94BC020C942A460C9420460C94D645E1
:1000F0000C949E450C9434460C9416460C940A4677
:100100000C94FE450C94BC020C94BC020C94BC02F2
:100110000C94BC020C94BC020C94BC020C94BC0267
:100120000C94BC020C94BC020C94BC020C94BC0257
:100130000C94BC02BC41C841D141D641DB411642BE
:10014000194216422C45ED44F044F344FA442C4540
:1001500014452C451845EA44EA44EA44EA441B4560
:100160001E45214526450C9479530C94BA2B0C94CA
:10017000612A0C946A4C0C94D1410C94072C0C9479
:100180009E530C94DE470C94194C0C94F3440C943D
:100190000B580C94BE3F0C94A74A0C94F22C0C9470
:1001A000454F0C9471420C9426450C944B4D0C9485
:1001B0007C3E0C94544D0C94142F0C9414450C94C8
:1001C000993A0C94F4240C944A4F0C9428540C94AF
:1001D000642A0C94D6410C94424B0C94FA440C942F
:1001E00051040C94012E0C94C8030C94514D0C94A2
:1001F000A1400C9421130C948E3C0C94AE410C94B1
:100200004E530C948B3C0C94BA420C94C24D0C94FB
:100210008E2C0C94C93F0C943E4D0C9421450C94AB
:1002200081230C94394D0C94442A0C94CB3E0C94AD
:10023000D9440C940A2C0C9414040C948B2C0C941C
:10024000E5560C94C44D0C94BC410C94C83E0C94DF
:1002500028550C94B94C0C944C4D0C94BE020C9443
:10026000934C0C94DC3F0C942C450C94434D0C9413
:100270004D3C0C9463410C940D4C0C9472430C94C3
:10028000EA440C947E240C9466560C9444560C94C8
:10029000A24D0C94503C0C94484D0C9440560C9438
:1002A000242E0C940D2D0C94772E0C941B450C943D
:1002B000A62C0C9440460C94533C0C94D04D0C94BA
:1002C000F0440C94E5530C9418450C9419420C948A
:1002D0009B250C94913C0C94444F0C941E450C941B
:1002E000ED440C946E3B0C94963A0C94F6090C94E5
:1002F000DB410C94C8410C94C3020C94344D0C9413
:10030000AA400C9416420C949C440C94F73E6E61E7
:100310006E00696E660000407A10F35A00A0724EBB
:1003200018090010A5D4E80000E87648170000E49A
:100330000B54020000CA9A3B000000E1F5050000E2
:1003400080969800000040420F000000A086010047
:100350000000102700000000E80300000000640017
:10036000000000000A000000000001000000000082
:100370002C76D888DC674F0823DFC1DFAE59E1B1A6
:10038000B796E5E3E453C63AE651997696E8E6C2B5
:100390008426EB898C9B62ED407C6FFCEFBC9C9FBC
:1003A00040F2BAA56FA5F490055A2AF75C936B6CDE
:1003B000F9676DC11BFCE0E40D47FEF520E6B500D2
:1003C000D0ED902E0300943577050080841E080040
:1003D00000204E0A000000C80C333333330F986EF0
:1003E00012831141EF8D2114893BE65516CFFEE6AD
:1003F000DB18D1844B381BF77C1D901DA4BBE42473
:10040000203284725E228100C9F124ECA1E53D27EF
:100410004E657665722D7573656420737461636BC8
:10042000203E2025642062797465730A004F6E6C4B
:10043000696E650A00526F7574696E6720456E615A
:10044000626C65640A0050414E3D307825582C207E
:100450004D41433D25732C205244433D25732C20B0
:100460004E4554574F524B3D25732C206368616EA7
:100470006E656C3D252D752C20636865636B2D7250
:100480006174652D487A3D252D752C2074782D706A
:100490006F7765723D252D750A000A0025783A00B0
:1004A0004D4143206164647265737320000A2A2AF7
:1004B0002A2A2A2A2A20426F6F74696E67205749B8
:1004C0004D45412D494354204150504C49434154DE
:1004D000494F4E2056455253494F4E20322E31201F
:1004E0002A2A2A2A2A2A2A0A00454550524F4D20F4
:1004F000697320636F72727570742C2072657772E5
:100500006974696E672077697468206465666175CF
:100510006C74732E0A006C6F63616C686F73740087
:1005200041544D4547413235367266723200020001
:1005300000FFFE00000111241FBECFEFD1E8DEBF97
:10054000CDBF00E00CBF15E1A0E0B2E0E8EBFDECB0
:1005500000E00BBF02C007900D92A636B107D9F795
:1005600028E2A6E6B5E101C01D92A536B207E1F783
:100570000E943F290C94DA660C940000FC01118261
:10058000108283E00895AF92BF92CF92DF92EF92F4
:10059000FF920F931F93CF93DF93CDB7DEB7C1596F
:1005A000D1090FB6F894DEBF0FBECDBF6C01162F78
:1005B000B42EA52E633821F48BEC95E10E945B4CA0
:1005C000F60180819181009741F082339340E9F0F8
:1005D000F6011182108283E0C9C04BEE52E161E85E
:1005E00070E08BEC95E10E94404CE091C814F091D2
:1005F000C9146AE170E081E090E0199582E393E02C
:10060000F6019183808381E0B1C01538E1F7F89459
:100610004CE050E06CE872E0CE0186589F4F0E949B
:1006200050667894EB2DFA2DDF010D900020E9F74C
:1006300011977D01EE1AFF0A8E010A571F4F4CE0F9
:1006400050E0BE0166587F4FC8010E9498641F9316
:100650000F9389E193E09F938F931F928EE18F9385
:10066000035811091F930F930E94B265F82EAF92A1
:10067000BF928091E9261F928F938091E8261F9266
:100680008F938091E7261F928F938091E6261F9289
:100690008F938091E5261F928F938091E4261F927D
:1006A0008F938091E3261F928F938091E2261F9271
:1006B0008F9385E293E09F938F9389E18E0D1F9234
:1006C0008F93C8018F0D911D9F938F930E94B265E8
:1006D0008F0DEE24E394E80EF801E80FF11D10826F
:1006E0000FB6F894DEBF0FBECDBFC8010E94826571
:1006F00080910A02806189838091CA158A83A090C3
:10070000C414B090C514F5011995F5011995F12C93
:10071000B7016E5F7F4FCE0101960E94CF4E8BECEA
:1007200095E10E945D4CF5011995F50119958091AF
:10073000CA158F5F8093CA158DE493E09F938F93C2
:100740001F9282E08F93E00EF11EFF92EF920E94C3
:10075000B265A80165E881E592E00E94FD490F902D
:100760000F900F900F900F900F9048CFCF56DF4F04
:100770000FB6F894DEBF0FBECDBFDF91CF911F91B2
:100780000F91FF90EF90DF90CF90BF90AF900895C2
:100790000F931F93CF93DF938B010E94754EEC0153
:1007A00084E00E940D4F9093ED268093EC2683E029
:1007B0000E940D4F809306279093072721E030E099
:1007C0003093DF152093DE1529811F922F93288106
:1007D0002F701F922F939F938F938091ED268F936D
:1007E0008091EC268F93F80181811F928F938081F5
:1007F0001F928F932296DF93CF9380E593E09F9390
:100800008F930E9440651092DF151092DE15EDB7B0
:10081000FEB770960FB6F894FEBF0FBEEDBFDF9126
:10082000CF911F910F910895CF93DF93FC01208109
:1008300031812115310551F0253D374029F0FC016A
:100840001182108283E02AC0653839F5EC010E94DC
:10085000C23E8091DE159091DF15892B21F083B780
:10086000817F866002C083B7817F83BFF89483B79E
:10087000816083BF7894889583B78E7F83BF789497
:1008800040E050E065E880914517909146170E943E
:10089000E04985ED97E09983888381E0DF91CF91EE
:1008A00008954F925F926F927F92AF92BF92CF92D4
:1008B000DF92EF92FF920F931F93CF93DF93CDB709
:1008C000DEB7C456D1090FB6F894DEBF0FBECDBF58
:1008D0006C01FC0180819181009749F08C3D91056C
:1008E00009F466C0F6011182108283E008C181E03C
:1008F00090E09093DF158093DE1540E058E060E0D3
:1009000070E084EB95E10E9490481092B31510922C
:10091000B2158091B2159091B3150297B4F700917A
:10092000C4141091C514F80119958091B2159091D5
:10093000B315892B19F480E090E002C08FEF90E0AE
:100940000E943D418FE090E09093B1158093B015E7
:10095000E090C214F090C3148091B0159091B1153D
:1009600097FD12C0F70119958091B0159091B115BE
:100970000E9464438091B0159091B11501979093B6
:10098000B1158093B015E8CFF80119958091B21593
:100990009091B315019709F0A8C01092DF1510923D
:1009A000DE158CED90E0F6019183808381E0A7C095
:1009B00084EB95E10E94A448892BC1F30E94582C36
:1009C0002B013C01AA24A394B12CB092DF15A09274
:1009D000DE1584EB95E10E949A48A301920160E143
:1009E0007EE08BEC9BE00E9447268C016EE773E073
:1009F000CE0101960E94916497E1F92EF80183815E
:100A00008F9382818F9381818F9380818F9386E9E9
:100A100093E09F938F931F928DE08F9381E090E0FE
:100A20008C0F9D1F8F0D911D9F938F930E94B26518
:100A3000F80EF80183858F9382858F9381858F933C
:100A400080858F9384EA93E09F938F931F9222E196
:100A5000E22EEF9281E090E08C0F9D1F8F0D911D93
:100A60009F938F930E94B265F80EF80187858F934C
:100A700086858F9385858F9384858F9385EB93E00F
:100A80009F938F931F92EF9281E090E08C0F9D1FB8
:100A90008F0D911D9F938F930E94B2658F0DE1E0A2
:100AA000F0E0EC0FFD1FE80FF11D10821092DF1532
:100AB0001092DE15E091C214F091C3141995AE01A5
:100AC0004F5F5F4F65E883E892E00E94FD49E09147
:100AD000C414F091C5141995B092DF15A092DE15DB
:100AE0000FB6F894DEBF0FBECDBF8091B2159091C6
:100AF000B31501969093B3158093B2150ACFCC59D4
:100B0000DF4F0FB6F894DEBF0FBECDBFDF91CF91A0
:100B10001F910F91FF90EF90DF90CF90BF90AF901B
:100B20007F906F905F904F900895F8944CE050E064
:100B300060E872E084E795E10E945066789484E76B
:100B400095E108954F925F926F927F928F929F925C
:100B5000AF92BF92CF92DF92EF92FF92CF93DF934B
:100B600080911E2782FF7CC0C091C013D091C11319
:100B70008BE090E0FE0119957C018AE090E0FE0197
:100B800019954C0189E090E0FE011995092C000CA3
:100B9000AA08BB0825E1880C991CAA1CBB1C2A9535
:100BA000D1F7092E000CAA0BBB0BDC019927882773
:100BB00024013501482A592A6A2A7B2A88E090E0D4
:100BC000FE0119954C01990FAA08BB084BE0880C4F
:100BD000991CAA1CBB1C4A95D1F784289528A628E5
:100BE000B72887E090E0FE0119956701FCEBCF1A6A
:100BF000F7E0DF0A0D2C000CEE08FF08B701A60194
:100C0000E9E1440F551F661F771FEA95D1F76C0184
:100C1000990FEE08FF08F5E0CC0CDD1CEE1CFF1C64
:100C2000FA95D1F7C828D928EA28FB28C42AD52A5A
:100C3000E62AF72A86E090E0FE011995092E000CBD
:100C4000AA0BBB0BC2E0B695A79597958795CA9559
:100C5000D1F7BC01CD016C297D298E299F2904C0C3
:100C600060E070E081E29AE4DF91CF91FF90EF9035
:100C7000DF90CF90BF90AF909F908F907F906F90BC
:100C80005F904F90089584EC93E00E94826583E02A
:100C900094E00E9482658DE394E09F938F930E947D
:100CA00040658CE694E09F938F930E9440658FE8A7
:100CB00094E09F938F930E94406580EB94E09F9314
:100CC0008F930E94406580EE94E09F938F930E94E3
:100CD000406588E095E09F938F930E94406585E48E
:100CE00095E09F938F930E94406588E895E09F93DD
:100CF0008F930E94406589EA95E09F938F930E94AD
:100D0000406583EF95E09F938F930E9440658BE34E
:100D100096E09F938F930E94406580911E272DB788
:100D20003EB72A5E3F4F0FB6F8943EBF0FBE2DBFB1
:100D300082FF1AC081E090E09093DF158093DE156A
:100D40008FE896E09F938F930E94406586ED96E032
:100D50009F938F930E9440651092DF151092DE15CD
:100D60000F900F900F900F908AE090E00E947C65AA
:100D70008DE197E00C948265CF92DF92EF92FF9223
:100D80000F931F93CF93DF93F8948EE992E00E9424
:100D90006866D82EC92E8CE992E00E946866F82E0B
:100DA000E92E8AE992E00E946866182F092F88E9E7
:100DB00092E00E946866EC0178948EE597E00E94CC
:100DC0008265CF92DF928DE797E09F938F930E9489
:100DD0004065EF92FF928CE897E09F938F930E947B
:100DE00040650F931F938BE997E09F938F930E9429
:100DF0004065DF93CF938AEA97E09F938F930E9499
:100E000040658DB79EB740960FB6F8949EBF0FBE53
:100E10008DBFDF91CF911F910F91FF90EF90DF90E9
:100E2000CF900895CF92DF92EF92FF920F931F938E
:100E3000CF93DF936C01F8948EE992E00E9468668C
:100E4000F82EE92E8CE992E00E946866182F092F8F
:100E50008AE992E00E946866EC0188E992E00E94CB
:100E600068667894F6012081203329F4EF92FF928E
:100E700089EB97E012C0213329F40F931F938CED77
:100E800097E00BC0223329F4DF93CF938FEF97E0E5
:100E900004C09F938F9382E298E09F938F930E9468
:100EA00040650F900F900F900F90DF91CF911F91A1
:100EB0000F91FF90EF90DF90CF900895EF92FF9207
:100EC0000F931F93CF93DF938C017B010E945B6391
:100ED000EC01892B49F4F8018081803329F41F93B8
:100EE0000F9385E498E037C0F7018081803361F487
:100EF000F894BE018EE992E00E9490667894DF93A8
:100F0000CF938EE998E027C0813361F4F894BE0155
:100F10008CE992E00E9490667894DF93CF938FEBF8
:100F200098E019C0823361F4F894BE018AE992E036
:100F30000E9490667894DF93CF9380EE98E00BC088
:100F4000F894BE0188E992E00E9490667894DF935D
:100F5000CF9381E099E09F938F930E9440650F901B
:100F60000F900F900F90DF91CF911F910F91FF90F5
:100F7000EF9008958F929F92AF92BF92CF92DF929F
:100F8000EF92FF920E943E3D6B017C018CE3882E24
:100F9000912CA12CB12CC701B601A50194010E948E
:100FA00095619F938F937F936F93CA01B901A501B8
:100FB00094010E9495619F938F937F936F93C701D4
:100FC000B60120E13EE040E050E00E949561CA0198
:100FD000B90128E130E040E050E00E9495619F9324
:100FE0008F937F936F93C701B60120E831E541E00D
:100FF00050E00E9495615F934F933F932F9382E25D
:1010000099E09F938F930E9440658DB79EB742965B
:101010000FB6F8949EBF0FBE8DBFFF90EF90DF908C
:10102000CF90BF90AF909F908F9008950F931F9394
:10103000CF93DF93CDB7DEB72C970FB6F894DEBF12
:101040000FBECDBF4CE050E0BC018E010F5F1F4FC3
:10105000C8010E949864F8944CE050E06CE872E09B
:10106000C8010E946E6661E070E080E190E00E943D
:10107000906678941F930F9387E699E09F938F93E0
:101080000E9440650F900F900F900F902C960FB616
:10109000F894DEBF0FBECDBFDF91CF911F910F91AE
:1010A00008950F931F93CF93DF93CDB7DEB72C979F
:1010B0000FB6F894DEBF0FBECDBFF89480E190E08C
:1010C0000E946866019729F080E899E00E94826595
:1010D00016C04CE050E06CE872E08E010F5F1F4FCD
:1010E000C8010E9450661F930F9383E999E09F9374
:1010F0008F930E9440650F900F900F900F907894FF
:101100002C960FB6F894DEBF0FBECDBFDF91CF9106
:101110001F910F910895EF92FF920F931F93CF931A
:10112000DF93C091C013D091C11386E090E0FE011F
:101130001995F82EE92E87E090E0FE011995182FF9
:10114000092F88E090E0FE011995EF92FF920F932E
:101150001F939F938F9383EA99E09F938F931F929E
:101160008FE08F938FE895E19F938F930E94B265F4
:101170008DB79EB70C960FB6F8949EBF0FBE8DBF6D
:101180008FE895E1DF91CF911F910F91FF90EF9044
:101190000895EF92FF920F931F93CF93DF93C09127
:1011A000C013D091C1138BE090E0FE011995F82E89
:1011B000E92E8AE090E0FE011995182F092F89E0A9
:1011C00090E0FE011995EF92FF920F931F939F936A
:1011D0008F9382EB99E09F938F931F928FE08F9371
:1011E00080E895E19F938F930E94B2658DB79EB77B
:1011F0000C960FB6F8949EBF0FBE8DBF80E895E1A8
:10120000DF91CF911F910F91FF90EF900895CF92B2
:10121000DF92EF92FF920F931F93CF93DF93CDB79F
:10122000DEB72C970FB6F894DEBF0FBECDBFD82E19
:10123000C92E162F49E050E0682F792FCE01019674
:101240000E949864CE010D967C01111148C061EC9A
:1012500079E00C970E9465648E01065F1F4F00972E
:1012600079F0E016F10661F00E945B63F80181936A
:101270008F0161EC79E080E090E00E946564EFCF3F
:101280006A858FEF860F8F3128F0CF92DF9283EC43
:1012900099E069C0EB848FEF8E0D8C30B0F7FC8441
:1012A000F3E6FF1594F30091C2131091C31370E09D
:1012B00083E090E0F80119956E2D70E084E090E0F5
:1012C000F80119956F2D70E085E090E0F80119950F
:1012D0000E94C9089F938F938AEF99E044C068E009
:1012E0007AE0CE0101960E9465648E01065F1F4F71
:1012F000009779F00E151F0561F00E945B63F801FD
:1013000081938F0168E07AE080E090E00E9465645C
:10131000EFCF6A85693128F0CF92DF928AE09AE0B8
:1013200022C0EB84FCE3FE15B8F3FC84FF15A0F3A8
:101330000091C2131091C31370E082E090E0F801B5
:1013400019956E2D70E081E090E0F80119956F2DF0
:1013500070E080E090E0F80119950E948B089F935F
:101360008F9381E49AE09F938F930E9440650F9042
:101370000F900F900F902C960FB6F894DEBF0FBE13
:10138000CDBFDF91CF911F910F91FF90EF90DF9034
:10139000CF900895F89444E650E06CEA71E08BE059
:1013A00092E00E946E6678940895F89444E650E0C6
:1013B00068E471E08BE092E00E946E667894089594
:1013C000F89444E650E064EE70E08BE092E00E9416
:1013D0006E6678940895F89444E650E060E870E012
:1013E0008BE092E00E946E66789408952F923F926F
:1013F0004F925F926F927F928F929F92AF92BF9225
:10140000CF92DF92EF92FF920F931F93CF93DF93D0
:10141000CDB7DEB76E970FB6F894DEBF0FBECDBF67
:101420009A8F898F85E0EFE4FAE0DE011D96019046
:101430000D928A95E1F787E0FE017296DF01982F01
:101440001D929A95E9F795E0E4E5FAE0DE01119640
:1014500001900D929A95E1F7FE013696DF011D92FB
:101460008A95E9F71092DB151092DA151092D915CA
:101470001092D8151092D7151092D6151092DF152C
:101480001092DE15E98DFA8D80819181892B09F00A
:1014900047C161E082EE96E20E94662BF89481E0FB
:1014A00090E09093DF158093DE158AE190E00E9432
:1014B00068664C016091DA157091DB1584E090E06C
:1014C0000E9490666091D8157091D91582E090E0E5
:1014D0000E9490666091D6157091D71580E090E0DB
:1014E0000E94906688E190E00E9468665C0186E157
:1014F00090E00E9468666C0184E190E00E9468665A
:101500007C0182E190E00E9468668C018EE090E0B0
:101510000E9468663C018CE090E00E9468662C01A5
:101520008AE090E00E9468661C0188E090E00E94DA
:1015300068669C8F8B8F86E090E00E9468669E8F25
:101540008D8F8A94892891F08CE390E09093D52632
:101550008093D4266CE370E082EA92E00E94906669
:1015600061E070E08AE190E00E949066AA94AB2866
:1015700091F08CE390E09093D5268093D4266CE391
:1015800070E08EE992E00E94906661E070E088E190
:1015900090E00E949066CA94CD2881F01092D526E2
:1015A0001092D42660E070E08CE992E00E94906690
:1015B00061E070E086E190E00E949066EA94EF2896
:1015C00081F01092D5261092D42660E070E08AE96E
:1015D00092E00E94906661E070E084E190E00E94F9
:1015E00090660130110581F01092D5261092D42614
:1015F00060E070E088E992E00E94906661E070E04F
:1016000082E190E00E9490666A946728B1F061E000
:1016100070E08EE090E00E9490664CE050E060E860
:1016200072E0CE010D960E946E664CE050E064E7D9
:1016300072E0CE0101960E946E664A944528C1F080
:101640000E94CA0961E070E08CE090E00E94906620
:101650004CE050E060E872E0CE010D960E946E66AC
:101660004CE050E064E772E0CE0101960E946E66A5
:101670002A942328C1F00E94D50961E070E08AE035
:1016800090E00E9490664CE050E060E872E0CE018D
:101690000D960E946E664CE050E064E772E0CE0169
:1016A00001960E946E668B8D9C8D0197C1F00E9401
:1016B000E00961E070E088E090E00E9490664CE014
:1016C00050E060E872E0CE010D960E946E664CE03C
:1016D00050E064E772E0CE0101960E946E66AD8D27
:1016E000BE8D1197C1F00E94EB0961E070E086E0C9
:1016F00090E00E9490664CE050E060E872E0CE011D
:101700000D960E946E664CE050E064E772E0CE01F8
:1017100001960E946E661092DF151092DE15789485
:10172000E98DFA8D1182108283E06E960FB6F894DF
:10173000DEBF0FBECDBFDF91CF911F910F91FF9004
:10174000EF90DF90CF90BF90AF909F908F907F9061
:101750006F905F904F903F902F900895AF92BF92FF
:10176000CF92DF92EF92FF920F931F93CF93DF936D
:10177000CDB7DEB7C059D1400FB6F894DEBF0FBE6B
:10178000CDBFF8946E0183EDC81A8EEFD80A44E6F7
:1017900050E06CEA71E0C6010E9450667E0199EC4F
:1017A000E90EF11C44E650E068E471E0C7010E94D4
:1017B00050668E010B591F4F44E650E064EE70E016
:1017C000C8010E94506644E650E060E870E0CE0137
:1017D00001965C010E9450667894DF92CF9289E571
:1017E0009AE09F938F930E944065FF92EF9288E664
:1017F0009AE09F938F930E9440651F930F9387E712
:101800009AE09F938F930E944065BF92AF9286E8C3
:101810009AE09F938F930E94406585E99AE00E9429
:1018200082650FB6F894DEBF0FBECDBFC057DE4F46
:101830000FB6F894DEBF0FBECDBFDF91CF911F91E1
:101840000F91FF90EF90DF90CF90BF90AF900895F1
:10185000EF92FF920F931F93CF93DF937C01870149
:10186000F701C081FFEFEF1AFF0A8C2F90E00E9472
:101870005164892BA1F7CC2391F0E8010990002055
:10188000E9F722970C171D0710F0198208C088810C
:1018900090E00E945164892BC1F32197F3CFC801D6
:1018A000DF91CF911F910F91FF90EF9008951F93BB
:1018B000CF93DF93CDB7DEB72C970FB6F894DEBF8A
:1018C0000FBECDBF182F4CE050E0CE0101960E9414
:1018D0009864F8944CE050E0113019F460E872E03C
:1018E00002C064E772E0CE0101960E946E667894B1
:1018F0002C960FB6F894DEBF0FBECDBFDF91CF910F
:101900001F910895813011F40C949505F8944CE0E2
:1019100050E064E772E088E695E10E9450667894B2
:1019200088E695E108958F929F92AF92BF92CF92F1
:10193000DF92EF92FF920E943E3D6B017C0189E5B0
:101940009BE00E94826582E00E94820CB82EA92E44
:101950000E949505AF92BF929F938F9382EA9BE07E
:101960009F938F930E9440658BE092E09F938F93AB
:101970008CEC9BE09F938F930E9440650E94BC0675
:1019800042E161EE7BE080918624909187240E9461
:1019900063392DB73EB7265F3F4F0FB6F8943EBF71
:1019A0000FBE2DBF892B19F48CEE9BE002C086E0A0
:1019B0009CE00E9482650E94510880911E2782FF50
:1019C0001CC00E94C9089F938F938FE19CE09F9356
:1019D0008F930E9440650E948B089F938F9381E3B1
:1019E0009CE09F938F930E9440658DB79EB70896A9
:1019F0000FB6F8949EBF0FBE8DBF8CE3882E912C3E
:101A0000A12CB12CC701B601A50194010E949561DA
:101A10009F938F937F936F93CA01B901A50194019E
:101A20000E9495619F938F937F936F93C701B60137
:101A300020E13EE040E050E00E949561CA01B9011A
:101A400028E130E040E050E00E9495619F938F9341
:101A50007F936F93C701B60120E831E541E050E084
:101A60000E9495615F934F933F932F9383E49CE093
:101A70009F938F930E9440650E94AE0B2DB73EB797
:101A80002E5E3F4F0FB6F8943EBF0FBE2DBF8FE7BF
:101A90009CE0FF90EF90DF90CF90BF90AF909F9031
:101AA0008F900C948265CF92DF92EF92FF920F930A
:101AB0001F93CF93DF93CDB7DEB768970FB6F89437
:101AC000DEBF0FBECDBF8C0184E190E00E94E061DB
:101AD0006C0143E150E0B8010E94986468EC7CE03E
:101AE000C6010E9465648E01035F1F4F4BE050E00A
:101AF000BC01C8010E94986468EC7CE080E090E042
:101B00000E9465644BE050E0BC01CE0101967C016F
:101B10000E94986445E050E0B8018FE49AE00E948A
:101B2000BC64892B61F48981882349F0B70181E085
:101B30000E94570CFF92EF928AEC9CE019C045E09E
:101B400050E0B80184E59AE00E94BC64892B61F4FE
:101B50008981882349F0B70182E00E94570CFF92E7
:101B6000EF9280EE9CE004C01F930F9386EF9CE001
:101B70009F938F930E9440650F900F900F900F904E
:101B8000C60168960FB6F894DEBF0FBECDBFDF91D9
:101B9000CF911F910F91FF90EF90DF90CF900C9419
:101BA00078622F923F924F925F926F927F928F92C4
:101BB0009F92AF92BF92CF92DF92EF92FF920F93DC
:101BC0001F93CF93DF93CDB7DEB7CE50D1400FB682
:101BD000F894DEBF0FBECDBFC35FDE4F8883CD500C
:101BE000D140C25FDE4F9883CE50D140C55FDE4FFB
:101BF00079836883CB50D1408A01C75FDE4F398338
:101C00002883C950D14084E690E00E94E0613C0105
:101C10008EE1EFEEF2E0DE01A951BF4F01900D928F
:101C20008A95E1F7F894C75FDE4FA881B981C95062
:101C3000D1408C91803329F444E650E06CEA71E0A5
:101C400014C0813329F444E650E068E471E00DC02B
:101C5000823329F444E650E064EE70E006C083333A
:101C600049F444E650E060E870E0CE018B599F4FA4
:101C70000E9450667894FE01319684E6DF011D9241
:101C80008A95E9F744E650E0BE016B597F4FC301E6
:101C90000E9498646CE978E0C3010E9465641E01AB
:101CA000B9EC2B0E311C7101412C512C009781F0A5
:101CB0000E94280CF701819391937F01FFEF4F1A47
:101CC0005F0A6CE978E080E090E00E946564EECF06
:101CD0000130110509F088C0C35FDE4F0881CD5087
:101CE000D140C25FDE4F1881CE50D140E12CF12CA3
:101CF000C55FDE4FE881F981CB50D140EE16FF067B
:101D00000CF044C04101C12CD12CAA24A394B12CC5
:101D10004C145D04C9F0D8016D917C91FB010190D8
:101D20000020E9F73197AF01461B570BF401819171
:101D300091914F010E94BC64892B11F4A12CB12C0C
:101D4000FFEFCF1ADF0AE4CFAA94AB28C9F4D80179
:101D5000AD90BC90F50101900020E9F731976F013B
:101D6000CA18DB086CE978E0CE018B599F4F0E94BE
:101D70008664A601B501CE018B599F4F0E94AC64C9
:101D8000BFEFEB1AFB0A0E5F1F4FB2CFA6968FADC7
:101D9000A697882309F439C1F894C75FDE4FA8815C
:101DA000B981C950D1408C91803329F444E650E088
:101DB0006CEA71E015C0813329F444E650E068E430
:101DC00071E00EC0823329F444E650E064EE70E026
:101DD00007C0833309F018C144E650E060E870E0C2
:101DE000CE018B599F4F0EC1012B09F00EC1812CE2
:101DF000912CA12CB12CA414B50409F4DBC0C35F51
:101E0000DE4FE881CD50D140CB5FDE4FE883C55037
:101E1000D140C25FDE4FF881CE50D140CA5FDE4F65
:101E2000F883C650D140E12CF12C81E090E0C95FED
:101E3000DE4F99838883C750D140C55FDE4F8881CC
:101E40009981CB50D140E816F9060CF044C0F1015D
:101E500000811181F80101900020E9F73197AF016D
:101E6000401B510BCB5FDE4FA881B981C550D140DB
:101E7000CD90DD90CB5FDE4FB983A883C550D140B4
:101E8000B601C8010E94BC64892B09F5F801808164
:101E90008435B9F445E050E06BE27BE0C6010E9476
:101EA000BC6431E020E0892B09F030E0C95FDE4FEF
:101EB0003883C750D140C85FDE4F2883C850D14017
:101EC00006C0C95FDE4F19821882C750D140FFEFAC
:101ED000EF1AFF0AB2CFD1010D911D911D017E01B4
:101EE000B7EEEB0EF11CF701B096CB5FDE4FF98336
:101EF000E883C550D140C12CD12CF601EE0FFF1F55
:101F000087EE90E08C0F9D1FE80FF91FA081B18133
:101F1000FD0101900020E9F73197AF014A1B5B0BEF
:101F2000D7016D917D917D01C8010E94BC64892B10
:101F300019F4CC24C394D12CCB5FDE4FE881F98116
:101F4000C550D140EE16FF06C1F6C95FDE4F88814D
:101F50009981C750D140019749F5CA94CD2831F5F0
:101F6000F80101900020E9F78114910461F4AF01B8
:101F7000401B510BB801CE0101960E949864882441
:101F80008394912C10C031977F01E01AF10A6CE91B
:101F900078E0CE0101960E948664A701B801CE01C7
:101FA00001960E94AC64AFEF8A1A9A0ABFEFAB1A8F
:101FB000BB0A21CF8981882341F1F894C75FDE4FA6
:101FC000A881B981C950D1408C91803329F444E66D
:101FD00050E06CEA71E014C0813329F444E650E02B
:101FE00068E471E00DC0823329F444E650E064EE09
:101FF00070E006C0833341F444E650E060E870E0EE
:10200000CE0101960E946E667894C301C25FDE4FD6
:102010000FB6F894DEBF0FBECDBFDF91CF911F91F9
:102020000F91FF90EF90DF90CF90BF90AF909F9077
:102030008F907F906F905F904F903F902F900C9477
:1020400078622F923F924F925F926F927F928F921F
:102050009F92AF92BF92CF92DF92EF92FF920F9337
:102060001F93CF93DF93CDB7DEB7CC50D1400FB6DF
:10207000F894DEBF0FBECDBFC75FDE4F8883C95067
:10208000D140C65FDE4F9883CA50D140C95FDE4F52
:1020900079836883C750D14084E690E00E94E06174
:1020A0006C0184E690E00E94E0613C018EE1EFEE7D
:1020B000F2E0DE01A951BF4F01900D928A95E1F740
:1020C000F894C95FDE4FA881B981C750D1408C9187
:1020D000803329F444E650E06CEA71E014C08133A7
:1020E00029F444E650E068E471E00DC0823329F43D
:1020F00044E650E064EE70E006C0833349F444E601
:1021000050E060E870E0CE018B599F4F0E9450660E
:102110007894FE01319684E6DF011D928A95E9F7F5
:1021200044E650E0C75FDE4F6881C950D140C65FCA
:10213000DE4F7881CA50D140C3010E9498646CE997
:1021400078E0C3010E9465648E0107531F4F212C64
:10215000312C009781F00E94280CF8018193919313
:102160008F01FFEF2F1A3F0A6CE978E080E090E0E2
:102170000E946564EECF44E650E0BE016B597F4F8C
:10218000C6010E9498646CE978E0C6010E9465640B
:10219000412C512C27EE30E02C0F3D1F205E3F4F8D
:1021A000C55FDE4F39832883CB50D140009709F4B7
:1021B0007DC00E94280C7C01FC0101900020E9F701
:1021C00031978F01081B190BCE0187539F4F4C018C
:1021D000A12CB12CA1E0B0E0CB5FDE4FB983A88386
:1021E000C550D1402A143B04A1F0A801B701F40165
:1021F000819191914F010E94BC64892B31F4CB5F96
:10220000DE4F19821882C550D140FFEFAF1ABF0AC6
:10221000E9CF9E0129513F4F5901812C912CA801F2
:10222000B701D5018D919D915D010E94BC64892B00
:1022300019F488248394912CC55FDE4FE881F981DD
:10224000CB50D140EA15FB0551F7CB5FDE4F28811B
:102250003981C550D1402130310509F58A9489284A
:10226000F1F44114510461F4A8014F5F5F4FB701CD
:10227000CE0101960E94986444244394512C0FC0CF
:102280006CE978E0CE0101960E948664A801B7014E
:10229000CE0101960E94AC648FEF481A580A6CE98F
:1022A00078E080E090E00E94656480CFF8948981B6
:1022B0008823E1F1C95FDE4FA881B981C750D140C1
:1022C0008C91803329F444E650E06CEA71E014C04C
:1022D000813329F444E650E068E471E00DC08233B4
:1022E00029F444E650E064EE70E006C0833341F424
:1022F00044E650E060E870E0CE0101960E946E6610
:10230000C65FDE4FB881CA50D140BF93C75FDE4F72
:10231000E881C950D140EF9384E19DE09F938F9372
:102320000E9440650F900F900F900F907894C60117
:102330000E947862C301C45FDE4F0FB6F894DEBF1F
:102340000FBECDBFDF91CF911F910F91FF90EF9006
:10235000DF90CF90BF90AF909F908F907F906F90C5
:102360005F904F903F902F900C9478622F923F9205
:102370004F925F926F927F928F929F92AF92BF9295
:10238000CF92DF92EF92FF920F931F93CF93DF9341
:10239000CDB7DEB7C65AD1090FB6F894DEBF0FBE6F
:1023A000CDBFCD55DF4F8883C35AD040CC55DF4FCA
:1023B0009883C45AD040CF55DF4F79836883C15A80
:1023C000D04084E690E00E94E0617C0184E690E0E9
:1023D0000E94E0616C018EE1EFEEF2E0DE01AD57AC
:1023E000BF4F01900D928A95E1F7F894CF55DF4FDA
:1023F000E881F981C15AD0408081803329F444E6D4
:1024000050E06CEA71E014C0813329F444E650E0F6
:1024100068E471E00DC0823329F444E650E064EED4
:1024200070E006C0833341F444E650E060E870E0B9
:10243000CE0101960E945066789444E650E0BE01B9
:102440006F5F7F4FC7010E9498646CE978E0C70115
:102450000E9465648E010B591F4F412C512C00972F
:1024600081F00E94280CF801819391938F01FFEF76
:102470004F1A5F0A6CE978E080E090E00E946564A2
:10248000EECF44E650E0CD55DF4F6881C35AD040CF
:10249000CC55DF4F7881C45AD040C6010E94986461
:1024A0006CE978E0C6010E94656423E830E02C0FF7
:1024B0003D1F205E3F4FCB55DF4F39832883C55AE0
:1024C000D040009709F45CC00E94280C8C01FC01EC
:1024D00001900020E9F731973F01681A790ACE018F
:1024E0008B599F4F4C01A12CB12C22242394312CC9
:1024F0004A145B0481F0A301B801F4018191919128
:102500004F010E94BC64892B11F4212C312CFFEF68
:10251000AF1ABF0AEDCF9E012D573F4F5901812CB5
:10252000912CA301B801F501819191915F010E9465
:10253000BC64892B19F488248394912CCB55DF4FEC
:1025400028813981C55AD0402A153B0551F72A9474
:10255000232879F48A94892861F46CE978E0CE0123
:1025600001960E948664A301B801CE0101960E94E3
:10257000AC646CE978E080E090E00E946564A1CFF3
:102580008981882309F43EC0F894CF55DF4FE88154
:10259000F981C15AD0408081803329F444E650E06B
:1025A0006CEA71E014C0813329F444E650E068E439
:1025B00071E00DC0823329F444E650E064EE70E02F
:1025C00006C0833341F444E650E060E870E0CE0199
:1025D00001960E946E667894CC55DF4FF881C45AFC
:1025E000D040FF93CD55DF4F2881C35AD0402F9361
:1025F0008EE39DE09F938F930E9440650F900F9014
:102600000F900F90C6010E947862C701CA55DF4F34
:102610000FB6F894DEBF0FBECDBFDF91CF911F91F3
:102620000F91FF90EF90DF90CF90BF90AF909F9071
:102630008F907F906F905F904F903F902F900C9471
:1026400078628F929F92AF92BF92CF92DF92EF9279
:10265000FF920F931F93CF93DF931F921F92CDB7DB
:10266000DEB76C01CA01F6012081318121153105E7
:1026700049F12E36324029F0F6011182108283E0B2
:102680000DC220911C28261326C0BE016F5F7F4F0C
:102690000E9465648C0181E090E09093DF15809347
:1026A000DE15F801B080F8E6BF1217C0F8010190FE
:1026B0000020E9F7CF0102978017910709F0E9C1DF
:1026C0000E9443061092DF151092DE158EE692E00E
:1026D000F6019183808381E0E1C142E050E066E948
:1026E0007DE0C8010E94BC64892B09F04BC0F80151
:1026F00001900020E9F7CF0103978017910719F4A3
:102700000E94BC06DFCFF80183818332B1F584815A
:102710008053843028F586E090E00E94E0617C01DF
:1027200046E050E0B8016C5F7F4F0E949864F8016A
:102730008581882389F086E090E00E94E0615C0159
:10274000B8016B5F7F4F46E050E00E949864B7018C
:10275000C5010E945E0747C1C7010E94120795C1CB
:102760001F930F9389E99DE09F938F930E9440658B
:102770000F900F900F900F90A5CF1F930F9384EDA4
:102780009DE0F2CF42E050E06CE874E0C8010E94A6
:10279000BC64892B19F40E94930C94CF44E050E060
:1027A00069E07EE0C8010E94BC64892BE1F4F80175
:1027B00001900020E9F73197E01BF10B359780F08D
:1027C0008CE090E00E94E0617C01B8016B5F7F4F7C
:1027D0004CE050E00E949864C7010E94160855C161
:1027E0000E9451086FCFF5E7BF1203C00E94BA07DD
:1027F00069CF44E050E06EE07EE0C8010E94BC6416
:10280000892B39F5F80101900020E9F73197E01B99
:10281000F10BE430F10539F40E94C9089F938F93BE
:1028200083E19EE0A1CF3597399770F489E090E07D
:102830000E94E0617C01B8016B5F7F4F49E050E08E
:102840000E94986460E02FC01F930F938DE19EE07B
:102850008BCF44E050E06EE47EE0C8010E94BC648F
:10286000892B51F5F80101900020E9F73197E01B21
:10287000F10BE430F10539F40E948B089F938F939C
:1028800083E59EE071CF3597399788F489E090E031
:102890000E94E0617C01B8016B5F7F4F49E050E02E
:1028A0000E94986461E0C7010E940709EEC01F936F
:1028B0000F938DE59EE058CF42E050E06BE674E167
:1028C000C8010E94BC64892B09F091C0F8010190F5
:1028D0000020E9F7CF0103978017910719F40E94B0
:1028E000AE0BF0CE84E690E00E94E0615C0144E62D
:1028F00050E0B8016D5F7F4F0E949864F5018081C0
:102900008053863008F06BC084E690E00E94E0615E
:102910007C0144E650E0B8016C5F7F4F0E949864F0
:1029200044E050E06EE87EE0C7010E94BC64892B61
:1029300059F40E94CA090E94D5090E94E0090E9428
:10294000EB090E94AE0B4FC0F70180818823D1F1C3
:1029500084E690E00E94E0614C01B8016B5F7F4F1C
:1029600044E650E00E949864F70180818B3259F46C
:10297000B501C4010E94B61183E99EE00E94826500
:102980000E94AE0B1DC08D3299F4B501C4010E94A6
:102990002110FF92EF9287EB9EE09F938F930E940E
:1029A00040650E94AE0B0F900F900F900F9008C0E3
:1029B0000E94AE0BC5010E947862C7010E94786236
:1029C000C4010AC081EE9EE00E9482650E94AE0BA7
:1029D000C5010E947862C7010E94786204C084EF3A
:1029E0009EE00E948265C5010E9478624EC045E06B
:1029F00050E069E17FE0C8010E94BC64892B09F0C6
:102A000048C0F80101900020E9F7CF010697801730
:102A10009107D9F40E9495059F938F938FE19FE0D2
:102A20009F938F930E94406582E00E94820C9F9347
:102A30008F9388E29FE09F938F930E9440650FB62B
:102A4000F894DEBF0FBECDBF3DCE84E190E00E9482
:102A5000E0617C01B8016A5F7F4F43E150E00E9472
:102A60009864F7018081882321F0C7010E94530DEB
:102A70000CC0FF92EF9281E39FE09F938F930E949F
:102A800040650F900F900F900F90C7010E947862E1
:102A900019CE1F930F9384E69DE066CE0F900F90A2
:102AA000DF91CF911F910F91FF90EF90DF90CF902A
:102AB000BF90AF909F908F900895CF93DF93CDB745
:102AC000DEB7C85CD1090FB6F894DEBF0FBECDBF2C
:102AD00044E650E0BC01CE0101960E949864F8944F
:102AE00044E650E06CE170E0CE0101960E946E6613
:102AF000789481E090E09093DD158093DC15C853C5
:102B0000DF4F0FB6F894DEBF0FBECDBFDF91CF9180
:102B100008952F923F925F926F927F928F929F9231
:102B2000AF92BF92CF92DF92EF92FF920F931F93DB
:102B3000CF93DF93CDB7DEB7C853D1400FB6F8942B
:102B4000DEBF0FBECDBFF89444E650E06CEA71E002
:102B5000CE018B599F4F0E94506678946CE978E0C3
:102B6000CE018B599F4F0E9465648C01512CE090DF
:102B70008A14F0908B14C35DDE4FF982E882CD5247
:102B8000D140C15DDE4FF982E882CF52D1401701BA
:102B90008091A7139091A813CF5CDE4F998388830F
:102BA000C153D140C0909F14D090A0143601A09082
:102BB0007014B0907114E091B413F091B513CD5C22
:102BC000DE4FF983E883C353D140809088139090FF
:102BD00089138091991390919A13CB5CDE4F99835E
:102BE0008883C553D140C95CDE4F99828882C75320
:102BF000D1400115110509F497C30E94582C24EA0D
:102C000030E74DE250E40E94A95F87FF54C0C8013D
:102C10000E94280C45E050E06BE27BE00E94BC641F
:102C2000892B39F4E0919913F0919A1380E090E0A8
:102C300055C0C8010E94280C45E050E061E37BE0EC
:102C40000E94BC64892B49F480E090E0C95CDE4FAF
:102C5000E881F981C753D14067C0C8010E94280CA0
:102C600044E050E066E27BE00E94BC64892B09F0FE
:102C70000CC30E94582C9F938F937F936F9380E88F
:102C80009FE09F938F931F928BE08F9389EC90E04E
:102C90008C0F9D1F850D911D9F938F930E94B26590
:102CA000580E8DE89FE00E945D150FB6F894DEBFC8
:102CB0000FBECDBFEAC2C8010E94280C45E050E01B
:102CC0006BE27BE00E94BC64892B01F580E090E020
:102CD000CB5CDE4FE881F981C553D1401995BC0129
:102CE000990F880B990B0E94586020E030E040E279
:102CF00051E40E94AE5F9F938F937F936F9384E61E
:102D00009FE09F938F931F928CE09CC2C8010E940A
:102D1000280C45E050E061E37BE00E94BC64892B15
:102D2000B9F480E090E0F4011995BC01990F880B8B
:102D3000990B0E94586020E030E04AE754E40E947A
:102D4000AE5F9F938F937F936F9382E79FE013C053
:102D5000C8010E94280C44E050E066E27BE00E943B
:102D6000BC64892B69F40E94582C9F938F937F93A6
:102D70006F9380E89FE09F938F931F928BE062C2D6
:102D8000C8010E94280C45E050E06FE47AE00E9400
:102D9000BC64892B69F40E946D2C9F938F937F9361
:102DA0006F9383E99FE09F938F931F928FE04AC2B6
:102DB000C8010E94280C45E050E064E57AE00E94DA
:102DC000BC64892B69F40E947C2C9F938F937F9322
:102DD0006F938EE99FE09F938F931F928DE032C295
:102DE000C8010E94280C42E050E063E27BE00E94B0
:102DF000BC64892BE1F480E090E0CD5CDE4FE8819B
:102E0000F981C353D1401995BC01990F880B990BD7
:102E10000E94586020E030E048EC52E40E94AE5F2F
:102E20009F938F937F936F9389EA9FE08AC0C80135
:102E30000E94280CFC018081803519F58091942432
:102E4000909195248C7E9927892B09F41EC280E0ED
:102E500090E0F5011995892B89F00E944A3C811177
:102E60000DC080E090E0F50119959F938F9380EB62
:102E70009FE09F938F931F928CE087C086EB9FE02B
:102E800002C2C8010E94280CFC018081843551F5E2
:102E90008091942481FFF9C180E090E0F3011995BD
:102EA000892B09F453C00E940A3D81114FC080E074
:102EB00090E0F3011995BC01990F880B990B0E94C2
:102EC000586020E030E040E251E40E94AE5F9F9302
:102ED0008F937F936F9384EC9FE09F938F931F92C8
:102EE00089E0B0C1C8010E94280C42E050E06CE1CA
:102EF0007BE00E94BC64892B61F58091942481FF62
:102F0000C4C181E090E0F6011995892BF9F00E9487
:102F10000D3D81111BC081E090E0F6011995BC01C7
:102F2000990F880B990B0E94586020E030E040E236
:102F300051E40E94AE5F9F938F937F936F9389EDCF
:102F40009FE09F938F931F928AE07CC18CEC9FE05F
:102F50009AC1C8010E94280C44E050E067E37BE07E
:102F60000E94BC64892BE9F480E090E0CF5CDE4FE6
:102F7000E881F981C153D14019959F938F9382EED7
:102F80009FE09F938F931F928FE08F9389EC90E047
:102F90008C0F9D1F850D911D9F938F930E94B2658D
:102FA0005CC1C8010E94280C45E050E064E07BE071
:102FB0000E94BC64892B09F040C08091942484FF56
:102FC00064C180E090E0F1011995892B89F10E949C
:102FD000883C81112DC080E090E0F1011995BC0181
:102FE000990F880B990B0E94586020E030E04AE767
:102FF00054E40E94AE5F9F938F937F936F9380EF13
:103000009FE09F938F931F928EE08F9389EC90E0C7
:103010008C0F9D1F850D911D9F938F930E94B2650C
:10302000580E81E090E09093AF158093AE153DCEA1
:103030001092AF151092AE1528C1C8010E94280C3D
:1030400045E050E06AE07BE00E94BC64892B09F017
:1030500050C08091942484FF18C181E090E0C15D4C
:10306000DE4FE881F981CF52D1401995892BE1F1EA
:103070000E94883C811138C08091AE159091AF15A7
:10308000892B91F581E090E0C15DDE4FE881F98107
:10309000CF52D1401995BC01990F880B990B0E9412
:1030A000586020E030E04AE754E40E94AE5F9F930E
:1030B0008F937F936F938CEF9FE09F938F931F92DB
:1030C0008EE08F9389EC90E08C0F9D1F850D911DF4
:1030D0009F938F930E94B265580E81E090E0909389
:1030E000AD158093AC15E1CD1092AD151092AC15D5
:1030F000CCC0C8010E94280C45E050E060E17BE0B4
:103100000E94BC64892B09F057C08091942484FFED
:10311000BCC082E090E0C35DDE4FE881F981CD5212
:10312000D1401995892B09F442C00E94883C811135
:103130003EC08091AE159091AF15892BC1F580915D
:10314000AC159091AD15892B91F582E090E0C35DAF
:10315000DE4FE881F981CD52D1401995BC01990F1C
:10316000880B990B0E94586020E030E04AE754E455
:103170000E94AE5F9F938F937F936F9388E090E15F
:103180009F938F931F928EE08F9389EC90E08C0F2A
:103190009D1F850D911D9F938F930E94B265580EC0
:1031A00081E090E09093AB158093AA157ECD1092AC
:1031B000AB151092AA1569C0C8010E94280C45E001
:1031C00050E066E17BE00E94BC64892B09F05DC0A1
:1031D0008091942484FF59C083E090E0F701199511
:1031E000892BE9F10E94883C811139C08091AE158C
:1031F0009091AF15892B99F58091AC159091AD15F3
:10320000892B69F58091AA159091AB15892B39F519
:1032100083E090E0F7011995BC01990F880B990B99
:103220000E94586020E030E04AE754E40E94AE5F1C
:103230009F938F937F936F9384E190E19F938F93FC
:103240001F928EE08F9389EC90E08C0F9D1F850D6F
:10325000911D9F938F930E94B265580E26CD809149
:10326000AE159091AF15892B81F48091AC1590919A
:10327000AD15892B51F48091AA159091AB15892B2E
:1032800021F480E290E10E945D158091DC1590911F
:10329000DD15019749F5F89444E650E06CE170E0E3
:1032A0008E010F5F1F4FC8010E94506678941F93D4
:1032B0000F9389E493E09F938F931F9280E18F9304
:1032C00089EC90E08C0F9D1F850D911D9F938F932E
:1032D0000E94B265580E1092DD151092DC150FB6E3
:1032E000F894DEBF0FBECDBFF0E5F515A8F4E9EC0C
:1032F000F0E0EC0FFD1FE50DF11D1082AE0147530C
:103300005F4F65E883E892E00E94FD49C753DF4FB5
:103310001882C95CD040512C6CE978E080E090E0E4
:103320000E9465648C0165CCE9ECF0E0EC0FFD1FB8
:10333000E50DF11D1082AE0147535F4F65E883E84C
:1033400092E00E94FD49C85CDE4F0FB6F894DEBFE4
:103350000FBECDBFDF91CF911F910F91FF90EF90E6
:10336000DF90CF90BF90AF909F908F907F906F90A5
:103370005F903F902F9008952F923F925F926F92AF
:103380007F928F929F92AF92BF92CF92DF92EF92F5
:10339000FF920F931F93CF93DF93CDB7DEB7C85340
:1033A000D1400FB6F894DEBF0FBECDBFF89444E60F
:1033B00050E064EE70E0CE018B599F4F0E94506642
:1033C00078946CE978E0CE018B599F4F0E94656438
:1033D0008C01512CE0908A14F0908B14C35DDE4F69
:1033E000F982E882CD52D140C15DDE4FF982E88298
:1033F000CF52D140CF5CDE4FF982E882C153D14039
:103400008091A7139091A813CD5CDE4F9983888398
:10341000C353D140C0909F14D090A0141601609067
:10342000701470907114A0908813B09089138090DC
:10343000991390909A13CB5CDE4FB982A882C55342
:10344000D140C95CDE4F99828882C753D1400115B3
:10345000110509F484C30E94582C24EA30E74DE298
:1034600050E40E94A95F87FF56C0C8010E94280C43
:1034700045E050E06BE27BE00E94BC64892B49F49C
:1034800080E090E0C95CDE4FE881F981C753D1400C
:1034900050C0C8010E94280C45E050E061E37BE089
:1034A0000E94BC64892B49F480E090E0CB5CDE4F45
:1034B000E881F981C553D14062C0C8010E94280C3F
:1034C00044E050E066E27BE00E94BC64892B09F096
:1034D000F7C20E94582C9F938F937F936F9380E83D
:1034E0009FE09F938F931F928BE08F9389EC90E0E6
:1034F0008C0F9D1F850D911D9F938F930E94B26528
:10350000580E8DE89FE00E945D150FB6F894DEBF5F
:103510000FBECDBFD5C2C8010E94280C45E050E0C7
:103520006BE27BE00E94BC64892BD9F480E090E0E0
:10353000F4011995BC01990F880B990B0E945860F2
:1035400020E030E040E251E40E94AE5F9F938F9311
:103550007F936F9384E69FE09F938F931F928CE0FD
:103560008CC2C8010E94280C45E050E061E37BE07A
:103570000E94BC64892BD9F480E090E0F501199594
:10358000BC01990F880B990B0E94586020E030E035
:103590004AE754E40E94AE5F9F938F937F936F93AB
:1035A00082E79FE09F938F931F928BE066C2C801D2
:1035B0000E94280C44E050E066E27BE00E94BC647C
:1035C000892B49F40E94582C9F938F937F936F937C
:1035D00080E89FE0E7CFC8010E94280C45E050E05A
:1035E00064E57AE00E94BC64892B69F40E947C2C1B
:1035F0009F938F937F936F938FE290E19F938F932D
:103600001F928DE03AC2C8010E94280C45E050E0AC
:103610006FE47AE00E94BC64892B69F40E946D2CEF
:103620009F938F937F936F938CE390E19F938F93FE
:103630001F928FE022C2C8010E94280CFC018081E9
:10364000803571F580919424909195248C7E9927F2
:10365000892B09F435C280E090E0F3011995892B9C
:10366000E1F00E944A3C811118C080E090E0F30133
:1036700019959F938F9380EB9FE09F938F931F9259
:103680008CE08F9389EC90E08C0F9D1F850D911D30
:103690009F938F930E94B265FBC186EB9FE00EC2A1
:1036A000C8010E94280CFC018081843551F580916D
:1036B000942481FF05C280E090E0F1011995892BE7
:1036C00009F453C00E940A3D81114FC080E090E090
:1036D000F1011995BC01990F880B990B0E94586054
:1036E00020E030E040E251E40E94AE5F9F938F9370
:1036F0007F936F9384EC9FE09F938F931F9289E059
:10370000BCC1C8010E94280C42E050E06CE17BE0A3
:103710000E94BC64892B61F58091942481FFD0C103
:1037200081E090E0F6011995892BF9F00E940D3D9A
:1037300081111BC081E090E0F6011995BC01990F41
:10374000880B990B0E94586020E030E040E251E481
:103750000E94AE5F9F938F937F936F9389ED9FE05D
:103760009F938F931F928AE088C18CEC9FE0A6C143
:10377000C8010E94280C44E050E067E37BE00E940F
:10378000BC64892BF9F482E090E0CD5CDE4FE881E7
:10379000F981C353D1401995182F092F80E090E08B
:1037A000CD5CDE4FE881F981C353D14019950F9369
:1037B0001F939F938F9389E490E19F938F931F9220
:1037C00082E15BC1C8010E94280C45E050E064E042
:1037D0007BE00E94BC64892B09F04AC0809194244C
:1037E00084FF6EC180E090E0CF5CDE4FE881F9811C
:1037F000C153D1401995892BB1F10E94883C8111A8
:1038000032C080E090E0CF5CDE4FE881F981C153A7
:10381000D1401995BC01990F880B990B0E945860F3
:1038200020E030E04AE754E40E94AE5F9F938F931C
:103830007F936F9380EF9FE09F938F931F928EE013
:103840008F9389EC90E08C0F9D1F850D911D9F93A8
:103850008F930E94B265580E81E090E09093A91575
:103860008093A81552CE1092A9151092A81528C1C0
:10387000C8010E94280C45E050E06AE07BE00E940D
:10388000BC64892B09F050C08091942484FF18C136
:1038900081E090E0C15DDE4FE881F981CF52D140F7
:1038A0001995892BE1F10E94883C811138C08091E3
:1038B000A8159091A915892B91F581E090E0C15D43
:1038C000DE4FE881F981CF52D1401995BC01990FA3
:1038D000880B990B0E94586020E030E04AE754E4DE
:1038E0000E94AE5F9F938F937F936F938CEF9FE0C7
:1038F0009F938F931F928EE08F9389EC90E08C0FB3
:103900009D1F850D911D9F938F930E94B265580E48
:1039100081E090E09093A7158093A615F6CD1092C4
:10392000A7151092A615CCC0C8010E94280C45E02E
:1039300050E060E17BE00E94BC64892B09F057C035
:103940008091942484FFBCC082E090E0C35DDE4F90
:10395000E881F981CD52D1401995892B09F442C0F3
:103960000E94883C81113EC08091A8159091A915B4
:10397000892BC1F58091A6159091A715892B91F5FA
:1039800082E090E0C35DDE4FE881F981CD52D14005
:103990001995BC01990F880B990B0E94586020E083
:1039A00030E04AE754E40E94AE5F9F938F937F9389
:1039B0006F9388E090E19F938F931F928EE08F9397
:1039C00089EC90E08C0F9D1F850D911D9F938F9327
:1039D0000E94B265580E81E090E09093A515809307
:1039E000A41593CD1092A5151092A41569C0C80115
:1039F0000E94280C45E050E066E17BE00E94BC6438
:103A0000892B09F05DC08091942484FF59C083E024
:103A100090E0F7011995892BE9F10E94883C81110A
:103A200039C08091A8159091A915892B99F580919D
:103A3000A6159091A715892B69F58091A4159091F1
:103A4000A515892B39F583E090E0F7011995BC01A4
:103A5000990F880B990B0E94586020E030E04AE7EC
:103A600054E40E94AE5F9F938F937F936F9384E1A2
:103A700090E19F938F931F928EE08F9389EC90E05B
:103A80008C0F9D1F850D911D9F938F930E94B26592
:103A9000580E3BCD8091A8159091A915892B81F4E2
:103AA0008091A6159091A715892B51F48091A415AA
:103AB0009091A515892B21F480E290E10E945D157B
:103AC0008091DC159091DD15019749F5F89444E655
:103AD00050E06CE170E08E010F5F1F4FC8010E9443
:103AE000506678941F930F9389E493E09F938F938C
:103AF0001F9280E18F9389EC90E08C0F9D1F850DC4
:103B0000911D9F938F930E94B265580E1092DD1500
:103B10001092DC150FB6F894DEBF0FBECDBFFCE3EC
:103B2000F515A8F4E9ECF0E0EC0FFD1FE50DF11D33
:103B30001082AE0147535F4F65E883E892E00E9430
:103B4000FD49C753DF4F1882C95CD040512C6CE946
:103B500078E080E090E00E9465648C0178CCE9EC2C
:103B6000F0E0EC0FFD1FE50DF11D1082AE01475393
:103B70005F4F65E883E892E00E94FD49C85CDE4F34
:103B80000FB6F894DEBF0FBECDBFDF91CF911F916E
:103B90000F91FF90EF90DF90CF90BF90AF909F90EC
:103BA0008F907F906F905F903F902F9008952F920D
:103BB0003F925F926F927F928F929F92AF92BF924D
:103BC000CF92DF92EF92FF920F931F93CF93DF93E9
:103BD000CDB7DEB7C853D1400FB6F894DEBF0FBEE5
:103BE000CDBFF89444E650E060E870E0CE018B5918
:103BF0009F4F0E94506678946CE978E0CE018B5913
:103C00009F4F0E9465648C01512CE0908A14F090C3
:103C10008B14C35DDE4FF982E882CD52D140C15D85
:103C2000DE4FF982E882CF52D140CF5CDE4FF9827D
:103C3000E882C153D1402090A7133090A813C090C0
:103C40009F14D090A0143601A0907014B0907114FD
:103C50008091B4139091B513CD5CDE4F9983888326
:103C6000C353D1408090881390908913E0919913A9
:103C7000F0919A13CB5CDE4FF983E883C553D140B2
:103C8000C95CDE4F99828882C753D1400115110566
:103C900009F498C30E94582C24EA30E74DE250E41E
:103CA0000E94A95F87FF54C0C8010E94280C45E00C
:103CB00050E06BE27BE00E94BC64892B39F4E09118
:103CC0009913F0919A1380E090E055C0C8010E94CA
:103CD000280C45E050E061E37BE00E94BC64892B46
:103CE00049F480E090E0C95CDE4FE881F981C75378
:103CF000D14067C0C8010E94280C44E050E066E251
:103D00007BE00E94BC64892B09F00DC30E94582CF3
:103D10009F938F937F936F9380E89FE09F938F9300
:103D20001F928BE08F9389EC90E08C0F9D1F850D87
:103D3000911D9F938F930E94B265580E8DE89FE06E
:103D40000E945D150FB6F894DEBF0FBECDBFEBC26B
:103D5000C8010E94280C45E050E06BE27BE00E9425
:103D6000BC64892B01F580E090E0CB5CDE4FE881FC
:103D7000F981C553D1401995BC01990F880B990B56
:103D80000E94586020E030E040E251E40E94AE5FC3
:103D90009F938F937F936F9384E69FE09F938F937E
:103DA0001F928CE09DC2C8010E94280C45E050E0A3
:103DB00061E37BE00E94BC64892BD9F480E090E051
:103DC000F4011995BC01990F880B990B0E9458605A
:103DD00020E030E04AE754E40E94AE5F9F938F9367
:103DE0007F936F9382E79FE09F938F931F928BE067
:103DF00077C2C8010E94280C44E050E066E27BE0F4
:103E00000E94BC64892B49F40E94582C9F938F9385
:103E10007F936F9380E89FE0E7CFC8010E94280C52
:103E200045E050E064E57AE00E94BC64892B69F4C7
:103E30000E947C2C9F938F937F936F938FE290E1EE
:103E40009F938F931F928DE04BC2C8010E94280C54
:103E500045E050E06FE47AE00E94BC64892B69F48D
:103E60000E946D2C9F938F937F936F938CE390E1CF
:103E70009F938F931F928FE033C2C8010E94280C3A
:103E800042E050E063E27BE00E94BC64892B91F445
:103E900080E090E0CD5CDE4FE881F981C353D140F2
:103EA00019959F938F938CE590E19F938F931F9229
:103EB00089E027C0C8010E94280CFC018081803560
:103EC00061F580919424909195248C7E9927892B7B
:103ED00009F429C280E090E0F5011995892B09F4D5
:103EE00081C00E944A3C81117DC080E090E0F501D4
:103EF00019959F938F9380EB9FE09F938F931F92D1
:103F00008CE08F9389EC90E08C0F9D1F850D911DA7
:103F10009F938F930E94B265EEC1C8010E94280C46
:103F2000FC018081843551F58091942481FFFBC18F
:103F300080E090E0F3011995892B09F453C00E94A9
:103F40000A3D81114FC080E090E0F3011995BC015A
:103F5000990F880B990B0E94586020E030E040E2F6
:103F600051E40E94AE5F9F938F937F936F9384EC95
:103F70009FE09F938F931F9289E0B2C1C8010E9476
:103F8000280C42E050E06CE17BE00E94BC64892B8D
:103F900061F58091942481FFC6C181E090E0F60133
:103FA0001995892BF9F00E940D3D81111BC081E00C
:103FB00090E0F6011995BC01990F880B990B0E94AE
:103FC000586020E030E040E251E40E94AE5F9F93F1
:103FD0008F937F936F9389ED9FE09F938F931F92B1
:103FE0008AE07EC18CEC9FE09CC1C8010E94280C35
:103FF00044E050E067E37BE00E94BC64892BA9F4B5
:1040000082E090E0F1011995182F092F80E090E0EF
:10401000F10119950F931F939F938F9389E490E17A
:104020009F938F931F9282E15BC1C8010E94280C6D
:1040300045E050E064E07BE00E94BC64892B09F01D
:104040004AC08091942484FF6EC180E090E0CF5CF0
:10405000DE4FE881F981C153D1401995892BB1F127
:104060000E94883C811132C080E090E0CF5CDE4F3E
:10407000E881F981C153D1401995BC01990F880B92
:10408000990B0E94586020E030E04AE754E40E9417
:10409000AE5F9F938F937F936F9380EF9FE09F938B
:1040A0008F931F928EE08F9389EC90E08C0F9D1F71
:1040B000850D911D9F938F930E94B265580E81E0EC
:1040C00090E09093A3158093A2153CCE1092A31577
:1040D0001092A21528C1C8010E94280C45E050E0AA
:1040E0006AE07BE00E94BC64892B09F050C080919B
:1040F000942484FF18C181E090E0C15DDE4FE88127
:10410000F981CF52D1401995892BE1F10E94883C69
:10411000811138C08091A2159091A315892B91F53A
:1041200081E090E0C15DDE4FE881F981CF52D1405E
:104130001995BC01990F880B990B0E94586020E0DB
:1041400030E04AE754E40E94AE5F9F938F937F93E1
:104150006F938CEF9FE09F938F931F928EE08F93CE
:1041600089EC90E08C0F9D1F850D911D9F938F937F
:104170000E94B265580E81E090E09093A115809363
:10418000A015E0CD1092A1151092A015CCC0C801C9
:104190000E94280C45E050E060E17BE00E94BC6496
:1041A000892B09F057C08091942484FFBCC082E021
:1041B00090E0C35DDE4FE881F981CD52D140199581
:1041C000892B09F442C00E94883C81113EC0809135
:1041D000A2159091A315892BC1F58091A0159091FE
:1041E000A115892B91F582E090E0C35DDE4FE88157
:1041F000F981CD52D1401995BC01990F880B990BCB
:104200000E94586020E030E04AE754E40E94AE5F2C
:104210009F938F937F936F9388E090E19F938F9309
:104220001F928EE08F9389EC90E08C0F9D1F850D7F
:10423000911D9F938F930E94B265580E81E090E08C
:1042400090939F1580939E157DCD10929F1510928F
:104250009E1569C0C8010E94280C45E050E066E147
:104260007BE00E94BC64892B09F05DC0809194249E
:1042700084FF59C083E090E0F7011995892BE9F19B
:104280000E94883C811139C08091A2159091A3159C
:10429000892B99F58091A0159091A115892B69F52D
:1042A00080919E1590919F15892B39F583E090E0C0
:1042B000F7011995BC01990F880B990B0E94586062
:1042C00020E030E04AE754E40E94AE5F9F938F9372
:1042D0007F936F9384E190E19F938F931F928EE081
:1042E0008F9389EC90E08C0F9D1F850D911D9F93FE
:1042F0008F930E94B265580E25CD8091A2159091A2
:10430000A315892B81F48091A0159091A115892B7B
:1043100051F480919E1590919F15892B21F480E294
:1043200090E10E945D158091DC159091DD1501975B
:1043300049F5F89444E650E06CE170E08E010F5FBF
:104340001F4FC8010E94506678941F930F9389E411
:1043500093E09F938F931F9280E18F9389EC90E07D
:104360008C0F9D1F850D911D9F938F930E94B265A9
:10437000580E1092DD151092DC150FB6F894DEBFC2
:104380000FBECDBFFCE3F515A8F4E9ECF0E0EC0FAF
:10439000FD1FE50DF11D1082AE0147535F4F65E82B
:1043A00083E892E00E94FD49C753DF4F1882C95C41
:1043B000D040512C6CE978E080E090E00E94656488
:1043C0008C0164CCE9ECF0E0EC0FFD1FE50DF11D74
:1043D0001082AE0147535F4F65E883E892E00E9488
:1043E000FD49C85CDE4F0FB6F894DEBF0FBECDBFEF
:1043F000DF91CF911F910F91FF90EF90DF90CF90C1
:10440000BF90AF909F908F907F906F905F903F9004
:104410002F900895CF92DF92EF92FF920F931F9308
:10442000CF93DF93CDB7DEB728970FB6F894DEBFF2
:104430000FBECDBF8C010E94712B8093942490936A
:1044400095241092DB151092DA151092D91510925E
:10445000D8151092D7151092D615C0900D03D09094
:104460000E03E0900F03F090100381FF1DC0E09158
:10447000A114F091A21461E070E081E890E0199538
:10448000C982DA82EB82FC82980141E050E062E06E
:1044900070E0CE0101960E94D10D81E090E09093F2
:1044A000DB158093DA1511C0C982DA82EB82FC82B7
:1044B000980140E050E062E070E0CE0101960E9479
:1044C000D10D1092DB151092DA158091942484FF9F
:1044D00022C0E0918C14F0918D1461E070E081E8CD
:1044E00090E0199588E0E1E1F3E0DE01119601909A
:1044F0000D928A95E1F7980141E050E064E070E0A8
:10450000CE0101960E94D10D81E090E09093D915E3
:104510008093D81516C088E0E1E1F3E0DE01119642
:1045200001900D928A95E1F7980140E050E064E037
:1045300070E0CE0101960E94D10D1092D915109213
:10454000D81580919424909195248C7E9927892B5D
:10455000E9F0E0917214F091731461E070E081E889
:1045600090E019958FE19BE09A838983980141E05F
:1045700050E061E070E0CE0101960E94D10D81E033
:1045800090E09093D7158093D61511C08FE19BE0F2
:104590009A838983980140E050E061E070E0CE01A9
:1045A00001960E94D10D1092D7151092D6158091C8
:1045B000942482FF0BC00E94272EE091C213F09139
:1045C000C31361E070E081E890E01995F89484E00D
:1045D00090E00E9468662091DA153091DB15821711
:1045E000930719F12115310589F483E690E10E94C2
:1045F00082656091DA157091DB1584E090E00E948D
:1046000090668FE990E10E945D150FC02130310561
:1046100061F48CEA90E10E9482656091DA157091F4
:10462000DB1584E090E00E94906680E090E00E94BC
:1046300068662091D6153091D7158217930719F126
:104640002115310589F485EE90E10E948265609123
:10465000D6157091D71580E090E00E94906682E2B6
:1046600091E10E945D150FC02130310561F480E3B6
:1046700091E10E9482656091D6157091D71580E016
:1046800090E00E94906682E090E00E94686620912F
:10469000D8153091D9158217930719F121153105D5
:1046A00089F48AE691E10E9482656091D815709143
:1046B000D91582E090E00E94906688EA91E10E941C
:1046C0005D150FC02130310561F487EB91E10E9447
:1046D00082656091D8157091D91582E090E00E94B2
:1046E0009066789428960FB6F894DEBF0FBECDBFC3
:1046F000DF91CF911F910F91FF90EF90DF90CF90BE
:104700000895EF92FF920F931F93CF93DF93EC01E5
:1047100088819981009741F08C3A914009F4B6C0A4
:104720001982188283E0E3C0E091B613F091B713C9
:1047300061E070E081E890E01995E0919B13F091C1
:104740009C1361E070E081E890E01995E0918A1394
:10475000F0918B1361E070E081E890E01995E091B1
:10476000A913F091AA1361E070E081E890E0199537
:1047700081E090E09093DF158093DE151092C915CB
:104780001092C8158091C8159091C915029784F7A9
:104790000091C4141091C514F80119958091C815A1
:1047A0009091C915892B19F480E090E002C08FEF39
:1047B00090E00E943D418FE090E09093C715809378
:1047C000C615E090C214F090C3148091C615909164
:1047D000C71597FD12C0F70119958091C6159091E4
:1047E000C7150E9464438091C6159091C715019723
:1047F0009093C7158093C615E8CFF80119950091DD
:10480000C8151091C9150130110509F065C08EE970
:1048100092E00E9468669093C5158093C41510922B
:10482000DF151092DE15892B89F00E94582C23EC9D
:1048300035EF48E350E40E94A95F87FF07C010935B
:10484000DF150093DE1585E090E004C08EE992E06C
:104850000E9468669093C5158093C4154091C41555
:104860005091C5155695542F44275795479560E0AC
:1048700070E08AEF96E20E9490481092DF15109245
:10488000DE158CEA91E09983888330C08AEF96E246
:104890000E94A448892B51F181E090E09093DF15AC
:1048A0008093DE158091C4159091C515892BA1F0D8
:1048B00081EA92E10E940A221092DF151092DE1521
:1048C000E091C214F091C31419950E948915E091EA
:1048D000C414F091C51419958091C8159091C9150B
:1048E00001969093C9158093C8154CCF81E0DF9154
:1048F000CF911F910F91FF90EF900895CF93DF9389
:10490000EC0188819981009741F08B3D914009F439
:104910005BC01982188283E064C0E091B613F09105
:10492000B71361E070E081E890E01995E0919B1386
:10493000F0919C1361E070E081E890E01995E091BE
:104940008A13F0918B1361E070E081E890E0199593
:10495000E091A913F091AA1361E070E081E890E082
:1049600019958CE992E00E946866892B29F48CE9FC
:1049700092E00E9468660CC00E94582C23EC35EF30
:1049800048E350E40E94A95F87FFF1CF88E097E0F9
:1049900021E030E03093DF152093DE15AC01569511
:1049A000542F44275795479560E070E086ED96E2D6
:1049B0000E9490481092DF151092DE158BED91E069
:1049C0009983888381E00DC086ED96E20E94A44819
:1049D000892BC1F381E090E09093DF158093DE1581
:1049E000C0CFDF91CF9108950F931F93CF93DF93A3
:1049F000EC0188819981009741F08031924009F45F
:104A000065C01982188283E091C0E091B613F091DD
:104A1000B71361E070E081E890E01995E0919B1395
:104A2000F0919C1361E070E081E890E01995E091CD
:104A30008A13F0918B1361E070E081E890E01995A2
:104A4000E091A913F091AA1361E070E081E890E091
:104A500019958AE992E00E9468669093C315809345
:104A6000C215892B69F00E94582C23EC35EF48E3DE
:104A700050E40E94A95F87FF03C088E097E004C06C
:104A80008AE992E00E9468669093C3158093C215EC
:104A900081E090E09093DF158093DE154091C21580
:104AA0005091C3155695542F44275795479560E06C
:104AB00070E088E894E20E9490481092DF1510920E
:104AC000DE1580E192E09983888306C088E894E24D
:104AD0000E94A448892B11F481E028C081E090E075
:104AE0009093DF158093DE158091C2159091C315C8
:104AF000892B09F4AECF85E692E10E940A2210923A
:104B0000DF151092DE150091C2141091C314F80144
:104B10001995F80119950E94BC190091C4141091BF
:104B2000C514F8011995F801199593CFDF91CF912C
:104B30001F910F9108950F931F93CF93DF93EC0173
:104B400088819981009741F08334924009F46AC0CA
:104B50001982188283E096C0E091B613F091B713E2
:104B600061E070E081E890E01995E0919B13F0918D
:104B70009C1361E070E081E890E01995E0918A1360
:104B8000F0918B1361E070E081E890E01995E0917D
:104B9000A913F091AA1361E070E081E890E0199503
:104BA00088E992E00E9468669093C1158093C015D1
:104BB000892B69F00E94582C23EC35EF48E350E430
:104BC0000E94A95F87FF03C088E097E004C088E9DE
:104BD00092E00E9468669093C1158093C01581E0B1
:104BE00090E09093DF158093DE1588E992E00E94B3
:104BF00068669093C1158093C015AC015695542FEB
:104C000044275795479560E070E088EC96E20E9453
:104C100090481092DF151092DE1583E492E099839C
:104C2000888306C088EC96E20E94A448892B11F480
:104C300081E028C081E090E09093DF158093DE153D
:104C40008091C0159091C115892B09F4A9CF87E4F3
:104C500092E10E940A221092DF151092DE15009157
:104C6000C2141091C314F8011995F80119950E9406
:104C7000D71D0091C4141091C514F8011995F801BD
:104C800019958ECFDF91CF911F910F9108954F927B
:104C90005F926F927F928F929F92AF92BF92CF92CC
:104CA000DF92EF92FF920F931F93CF93DF93CDB7D5
:104CB000DEB72E970FB6F894DEBF0FBECDBF7E874E
:104CC0006D8769017A010E944F4780E090E00E9461
:104CD00019472B013C0181E090E00E9419474B01EC
:104CE0005C0186E090E00E94194769837A838B8398
:104CF0009C8387E090E00E941947AB01BC01809142
:104D0000001690910116A0910216B0910316481A50
:104D1000590A6A0A7B0A8091FC159091FD15A091B1
:104D2000FE15B091FF1595018401081B190B2A0B84
:104D30003B0B0D831E832F8338878091F81590914C
:104D4000F915A091FA15B091FB1509811A812B81F3
:104D50003C81081B190B2A0B3B0B09831A832B83FD
:104D60003C838091F4159091F515A091F615B091C2
:104D7000F7158A019B01081B190B2A0B3B0B0987AE
:104D80001A872B873C8780E090E00E941947609348
:104D9000001670930116809302169093031681E01B
:104DA00090E00E9419476093FC157093FD15809365
:104DB000FE159093FF1586E090E00E9419476093DE
:104DC000F8157093F9158093FA159093FB1587E009
:104DD00090E00E9419476093F4157093F515809345
:104DE000F6159093F71587E090E00E94194786E04A
:104DF00090E00E94194729E03DE3AD85BE850E9401
:104E0000BF610E9456604B015C018091F01590914A
:104E1000F115A091F215B091F3150196A11DB11DE8
:104E20008093F0159093F115A093F215B093F315BC
:104E3000C301B2010E94566020E030E040E950E436
:104E40000E940861A70196010E940861A5019401D2
:104E50000E94AE5FE0EEF5E160837183828393830D
:104E60006D817E818F8198850E9456602AE939E99B
:104E700049E050E40E940861A70196010E94086180
:104E8000A50194010E94AE5F6093E4157093E5154F
:104E90008093E6159093E71569817A818B819C81D7
:104EA0000E9456602AE939E941E251E40E94086112
:104EB000A70196010E940861A50194010E94AE5FBE
:104EC0006093E8157093E9158093EA159093EB15BC
:104ED00069857A858B859C850E94566026E636E634
:104EE00046E651E40E940861A70196010E9408610C
:104EF000A50194010E94AE5F6093EC157093ED15CF
:104F00008093EE159093EF1580EE95E12E960FB6F7
:104F1000F894DEBF0FBECDBFDF91CF911F910F91EF
:104F2000FF90EF90DF90CF90BF90AF909F908F90C9
:104F30007F906F905F904F900895E6E4F1E090814C
:104F4000208180813081492F407C932F92959695C6
:104F500096959370940F269526952073920F8295BF
:104F60008C70890F0895CF93C82F85E093E19F93AC
:104F70008F930E9440650F900F90C0FF04C082E1A4
:104F800093E10E948265C1FF04C081E293E10E9427
:104F90008265C2FF04C080E393E10E948265C3FF83
:104FA00004C08FE393E10E948265C4FF05C08EE4D4
:104FB00093E1CF910C948265CF9108958F929F9247
:104FC000AF92BF92CF92DF92EF92FF920F931F9317
:104FD000CF93DF93CDB7DEB72A970FB6F894DEBF35
:104FE0000FBECDBF0E94A83E0E94B73E0E94B52BC7
:104FF00046E069E180E00E944A3E80E00E949F3ED8
:105000000E94103D60EA76E881E090E00E94672A05
:10501000E5E6F8E222E432E4318320833A968DB764
:105020009EB70A97E817F907B8F38DEA94E09F93C3
:105030008F930E9454658EB30E94B3270E94394A11
:105040000E940347809194009091950090930528C9
:105050008093042881E08093F8270E947B4960E0D8
:1050600070E088EC92E00E940C4A0E94A6460E94E2
:10507000664B62E47BE480E00E94913EE091B214D2
:10508000F091B31419950E949D2790E00E94C43EB0
:1050900089E593E19F938F930E9440650E94712B55
:1050A00080931E2790931F270F900F900F900F90C3
:1050B00080FF19C061E0CE0101960E94662BCE01EF
:1050C00001960E943F4F8A81082E000C990B982F61
:1050D00088272885820F911D27FD9A959093172781
:1050E0008093162717C08FE593E10E9482658CEFAD
:1050F000898382EC8A838DE38B831C821D821E82CE
:1051000080911627909117279F838887CE0101965B
:105110000E943F4F0E943C2A8C010E94382AAE0117
:10512000475F5F4FB8010E941E420E94AA290E9459
:10513000A0410E94402A0E94644380EA94E09F9329
:105140008F930E9454658A81898788858A871F92F8
:105150008F930CE914E01F930F930E945465898587
:105160001F928F931F930F930E9454658AE994E0D6
:105170009F938F930E9454650E94EA4DE0912A15F7
:10518000F0912B151995E0911415F09115151995BD
:10519000E0910615F091071519950E946643882E37
:1051A0000091361510913715F80119950FB6F8943E
:1051B000DEBF0FBECDBF892B51F0F8011995BC01A0
:1051C00080E890E00E948161162F072F02C010E84E
:1051D00000E00E949D41982EB0900415A090051506
:1051E000D0902815C0902915F0901215E090131555
:1051F0000E94F53F1F928F920F931F931F929F92D1
:10520000AF92BF92CF92DF92EF92FF929F938F93D4
:1052100086E494E09F938F930E94546585E394E025
:105220009F938F930E9454658FEE92E10E94F44603
:105230008DE294E09F938F930E94546588EE93E0F3
:10524000909315278093142784E00E94AB2B0FB610
:10525000F894DEBF0FBECDBF2A960FB6F894DEBF1E
:105260000FBECDBFDF91CF911F910F91FF90EF90B7
:10527000DF90CF90BF90AF909F908F9008950E9445
:10528000DE27C0E1D4E00E948B490E94C23E80919B
:10529000142790911527009751F0019790931527A7
:1052A00080931427892B19F484E00E94B02B8091FD
:1052B000182790911927009751F00197909319277B
:1052C00080931827892B19F482E00E94B02B84E088
:1052D0000E94B02B82E00E94B02B0E943E3D0091C4
:1052E0001A2710911B2720911C2730911D2760172A
:1052F00071078207930739F20E943E3D60931A2797
:1053000070931B2780931C2790931D27DC01CB01F2
:105310009370AA27BB270397A105B10509F0B3CF66
:10532000E5E6F8E2808191818234924469F0E556A5
:10533000F842FF93EF93DF93CF930E9454650F9051
:105340000F900F900F909FCF3A96E53F81E8F807B6
:1053500048F399CFEF92FF920F931F93CF93DF9370
:10536000CDB7DEB7A0970FB6F894DEBF0FBECDBFA6
:1053700089EA92E00E946866182F282F35EF380FCF
:10538000303108F0982F9095291709F463C089EE01
:1053900094E09F938F930E945465EEE2F5E08E01B6
:1053A0000F5F1F4FCE0109960F900F90D801780123
:1053B00024912D933196A817B907D1F7F89448E0B6
:1053C00050E065EC72E0C8010E949666E0E2F5E00C
:1053D000CE010F96D80124912D933196A817B907C5
:1053E000D1F74EE050E067EB72E0C8010E9496668C
:1053F000E6E1F5E0CE010B962491D8012D938D01C5
:105400003196A817B907C1F74AE050E06DEA72E09B
:10541000C7010E9496666DEC7BEA87EA92E00E94E3
:10542000AE6660E070E085EA92E00E94AE6660E001
:1054300084EA92E00E94A06660E070E08BEA92E06D
:105440000E94AE661AE16AE175EE89EA92E00E9476
:10545000AE667894812FA0960FB6F894DEBF0FBE8B
:10546000CDBFDF91CF911F910F91FF90EF900895E5
:1054700087EA92E00C94686685EA92E00C9468668C
:1054800084EA92E00C9460662FE130E08BE59EE0C8
:1054900041E951E020935101FA013197F1F7609110
:1054A000510165FD0DC02031310521F02CF08B54E8
:1054B000910903C084EC99E0C29721503109EACFE9
:1054C000089580E090E0089581E090E008959B01C8
:1054D000AC011092B90060E074E284EF90E00E94A9
:1054E0009561DA01C9014097A109B109B695A7955F
:1054F000979587958093B800089594EA9093BC009F
:1055000040EA56E861E070E09091BC0097FD07C06A
:105510004150510961097109B9F781E008959091ED
:10552000B900987F983011F09031B9F78093BB00A3
:1055300084E88093BC0080EA96E8A1E0B0E0209186
:10554000BC0027FD05C00197A109B109C1F7E5CF4E
:105550008091B900887F883111F08034F1F680E0C5
:10556000089524EA34E844E92093BC009091BC00FB
:1055700097FFFCCF9091B900987F983011F090314F
:1055800099F78093BB003093BC009091BC0097FFCB
:10559000FCCF9091B900987F903211F0983539F492
:1055A0004093BC009091BC0094FDFCCFDDCF0895EA
:1055B00084E98093BC008091BC0084FDFCCF0895F9
:1055C0008093BB0084E88093BC008091BC0087FF7F
:1055D000FCCF9091B900987F81E0983209F480E087
:1055E0000895CF93C82F8CEE0E947D2A811103C0AD
:1055F0008C2F0E94E02ACF910C94D82A8093BB0074
:1056000084E88093BC008091BC0087FFFCCF0895A4
:10561000CF93DF93D62FC42F0E947D2A8D2F0E9417
:10562000FE2A8C2F0E94FE2ADF91CF910C94D82A5B
:1056300084EC8093BC008091BC0087FFFCCF8091FC
:10564000BB00089584E88093BC008091BC0087FF74
:10565000FCCF8091BB000895CF92DF92EF92FF9232
:105660000F931F93CF93DF93C82FD62FF42E152FB0
:10567000022F0E947D2A8D2F0E94FE2A8C2F81608E
:105680000E947D2ACF2DD12F10E0E12CF12C680152
:1056900081E0C81AD108E016F10671F0CE14DF04DB
:1056A00019F40E94222B02C00E94182B88838FEFCE
:1056B000E81AF80A2196EFCFDF91CF911F910F9151
:1056C000FF90EF90DF90CF900C94D82AAC01662326
:1056D00019F028E068E902C020E160E880EB0C9452
:1056E0002C2BCF93DF930E94C23E80EB0E947D2A39
:1056F000811105C00E94D82AC1E0D0E002C0C0E0FC
:10570000D0E00E94C23E80E80E947D2A811103C041
:105710000E94D82AC2608CEE0E947D2A811103C0AB
:105720000E94D82AC8600E94C23E82ED0E947D2A53
:10573000811103C00E94D82AC4600E94C23E80ED3D
:105740000E947D2A811103C00E94D82AC061CE0127
:10575000DF91CF91089581FD739882FD749808952B
:1057600081FD739A82FD749A08956C9A6B9A87E012
:105770000C94B02B80917B00886080937B0089EC37
:1057800080937C0085E080937A0080917A00806825
:1057900080937A0080917B0087FFFCCF80917B0013
:1057A00085FFFCCF80917A00806480937A0080919D
:1057B0007A0086FDFCCF80917A00806480937A0025
:1057C00080917A0086FDFCCF60917800709179001D
:1057D00080917A008F7780937A0080E090E00E9439
:1057E000566027ED33EA40E95FE30E94086126E650
:1057F00036E648E853E40E943C5F20E030E040E2B7
:1058000051E40E9408610E942060CB01089580E06D
:1058100090E0089581E090E0089580937C0080916D
:105820007B00877F80937B0080917C00806C8093DD
:105830007C0085E080937A0080917A008068809374
:105840007A0080917B0087FFFCCF80917B0085FFF1
:10585000FCCF80917A00806480937A0080917A00F6
:1058600086FDFCCF109279001092780024E030E0A1
:1058700080E090E040917A00406440937A0040914B
:105880007A0046FDFCCF4091780050917900840F5A
:10589000951F2150310971F710927C0020917A00F8
:1058A0002F7720937A0096958795969587950895FA
:1058B00080E00E940D2CBC0180E090E00E945660C8
:1058C00027ED34E34FEE5CE30E94086121EE3AE7F6
:1058D00044E95EE30E943D5F089581E00E940D2C43
:1058E000BC0180E090E00E94566022E23FEF4CEC69
:1058F0005BE30E940861089582E00E940D2CBC01C8
:1059000080E090E00E94566022E23FEF4CEC5BE3C7
:105910000E940861089580E090E00895009729F4BE
:10592000809120271092202705C08130910521F415
:105930008091212790E00895029729F48091041620
:105940009091051608958FEF9FEF089552985A98F9
:105950001DBAE9E6F0E0808180628083EA9A53987C
:105960005B98EB9A808180688083E8E6F0E0808134
:105970008160808380E090E008951F920F920FB6BF
:105980000F9211248F939F938091680080FF0EC027
:10599000809120278F5F809320278091041690911B
:1059A0000516019690930516809304169F918F918A
:1059B0000F900FBE0F901F9018951F920F920FB669
:1059C0000F9211248F938091680080FF05C0809111
:1059D00021278F5F809321278F910F900FBE0F900B
:1059E0001F90189581E090E008955F98579A80EE97
:1059F00091E00E94583D579880E490E00E94583D05
:105A00004F9909C08CE291E00E94583D89B1881FEE
:105A10008827881F089580E008950E94F52C80E073
:105A200090E00895CF93C82F579A5F9882E090E056
:105A30000E94583DCC2311F057985F9A8CE390E078
:105A40000E94583D5F9A579882E090E0CF910C9465
:105A5000583DCF93579A5F9882E090E00E94583D5E
:105A600057985F9A8CE090E00E94583DC9B182E35C
:105A700090E00E94583D5F9A579882E090E00E9423
:105A8000583D8C2F881F8827881FCF9108951F931A
:105A9000CF93DF93C0E0D0E010E00E94292D0C2EC0
:105AA00001C0880F0A94EAF7180F2196C830D10573
:105AB000A1F7812FDF91CF911F9108950F931F932D
:105AC000CF93DF93C0E0D0E0082F10E0C8010C2E88
:105AD00002C0959587950A94E2F781700E94122D75
