:100000000C9498020C94B9020C94B9020C94D9285F
:100010000C94F9280C94B9020C94B9020C94B9020E
:100020000C94B9020C94B9020C94B9020C94B90264
:100030000C94B9020C94C33D0C94B9020C94B9020F
:100040000C94B9020C94B9020C94B9020C94B90244
:100050000C94B9020C94B9020C94B9020C94B90234
:100060000C94B9020C94453E0C94B9020C94B9025C
:100070000C94B9020C94B9020C94B9020C94B90214
:100080000C9457510C94B9020C94B9020C94B90217
:100090000C94743E0C94B9020C94B9020C94B902FD
:1000A0000C94B9020C94B9020C94B9020C94B902E4
:1000B0000C94B9020C94B9020C94B9020C94B902D4
:1000C0000C94B9020C94B9020C94B9020C94B902C4
:1000D0000C94B9020C94B9020C94B9020C94B902B4
:1000E0000C94B9020C9403450C94F9440C94AF445D
:1000F0000C9477440C940D450C94EF440C94E34419
:100100000C94D7440C94B9020C94B9020C94B90223
:100110000C94B9020C94B9020C94B9020C94B90273
:100120000C94B9020C94B9020C94B9020C94B90263
:100130000C94B902384144414D41524157419241DA
:10014000954192410544C643C943CC43D34305443A
:10015000ED430544F143C343C343C343C343F443A3
:10016000F743FA43FF430C94AC280C94A53C0C9441
:1001700071400C94E33C0C94C2280C9462260C94BD
:10018000A8560C94DF400C94984B0C945D4A0C9448
:10019000DD540C94EB510C9425280C94EA3C0C94FF
:1001A000C3430C9444410C9492410C94F13A0C9446
:1001B00057410C94E73C0C944E230C94A43F0C94B0
:1001C000AE4A0C94064C0C94FD4A0C94BD130C944E
:1001D000784B0C9482520C9495410C94E64B0C9401
:1001E000D8270C9482260C94F3210C948F4B0C94FA
:1001F00052410C9428280C9486490C94C63B0C94CC
:100200000C040C944D410C94ED430C9405440C9457
:10021000D74A0C94A83C0C94E1540C94CC430C9415
:100220001D2A0C9482550C94C5530C94874B0C9446
:10023000402A0C946B220C9468400C94D53E0C948C
:10024000932A0C9475430C94514A0C94243F0C94BB
:10025000F4430C94144C0C9480040C948E4D0C9428
:10026000894D0C94EE420C94F1430C9429290C9482
:10027000A9280C942A410C94B73F0C94FA430C948F
:1002800038410C94B2430C94084C0C94213F0C94CC
:10029000ED410C9436420C94503F0C94D6220C94B1
:1002A0008C4B0C9403550C947D4B0C94EE3A0C94AF
:1002B0000E290C94302B0C94C5520C94D3430C94FF
:1002C0003B520C94BB020C94FF430C94AB3C0C943B
:1002D000993F0C947F260C94C6430C94904B0C943D
:1002E0003E460C94F7430C94884D0C9419450C949D
:1002F000BE090C94824B0C94C0030C94C9430C941B
:10030000EB480C94954B0C9416526E616E00696E1E
:10031000660000407A10F35A00A0724E18090010CF
:10032000A5D4E80000E87648170000E40B5402006A
:1003300000CA9A3B000000E1F50500008096980095
:10034000000040420F000000A086010000001027BE
:1003500000000000E803000000006400000000004E
:100360000A00000000000100000000002C76D88880
:10037000DC674F0823DFC1DFAE59E1B1B796E5E393
:10038000E453C63AE651997696E8E6C28426EB89AC
:100390008C9B62ED407C6FFCEFBC9C9F40F2BAA549
:1003A0006FA5F490055A2AF75C936B6CF9676DC1E1
:1003B0001BFCE0E40D47FEF520E6B500D0ED902EE5
:1003C0000300943577050080841E080000204E0A43
:1003D000000000C80C333333330F986E1283114181
:1003E000EF8D2114893BE65516CFFEE6DB18D1844C
:1003F0004B381BF77C1D901DA4BBE4242032847273
:100400005E228100C9F124ECA1E53D274E657665A9
:10041000722D7573656420737461636B203E2025B3
:10042000642062797465730A004F6E6C696E650AA8
:1004300000526F7574696E6720456E61626C656409
:100440000A0050414E3D307825582C204D41433D07
:1004500025732C205244433D25732C204E45545780
:100460004F524B3D25732C206368616E6E656C3D69
:10047000252D752C20636865636B2D726174652D65
:10048000487A3D252D752C2074782D706F77657214
:100490003D252D750A000A0025783A004D4143207C
:1004A0006164647265737320000A2A2A2A2A2A2A40
:1004B0002A20426F6F74696E672057494D45412D60
:1004C000494354204150504C49434154494F4E20D8
:1004D00056455253494F4E2032202A2A2A2A2A2A88
:1004E0002A0A00454550524F4D20697320636F72B0
:1004F000727570742C20726577726974696E6720EA
:10050000776974682064656661756C74732E0A007F
:100510006C6F63616C686F73740041544D45474163
:100520003235367266723200020000FFFE000001B2
:1005300011241FBECFEFD1E8DEBFCDBF00E00CBF5E
:1005400014E1A0E0B2E0E2E9FAEC00E00BBF02C087
:1005500007900D92AC3AB107D9F727E2ACEAB4E1C3
:1005600001C01D92A530B207E1F70E945D250C94F1
:1005700047650C940000AF92BF92CF92DF92EF924A
:10058000FF920F931F93CF93DF93CDB7DEB7C1597F
:10059000D1090FB6F894DEBF0FBECDBF6C01162F88
:1005A000B42EA52E633821F481EF94E10E949F4A76
:1005B000F60180819181009741F08F399240E9F0F6
:1005C000F6011182108283E0C9C044E352E161E880
:1005D00070E081EF94E10E94844AE0910F14F09161
:1005E00010146AE170E081E090E019958FE992E0E3
:1005F000F6019183808381E0B1C01538E1F7F8946A
:100600004CE050E06CE872E0CE0186589F4F0E94AB
:10061000BD647894EB2DFA2DDF010D900020E9F7F1
:1006200011977D01EE1AFF0A8E010A571F4F4CE009
:1006300050E0BE0166587F4FC8010E9405631F93BA
:100640000F9389E093E09F938F931F928EE18F9396
:10065000035811091F930F930E941F64F82EAF9245
:10066000BF928091EB251F928F938091EA251F9274
:100670008F938091E9251F928F938091E8251F9297
:100680008F938091E7251F928F938091E6251F928B
:100690008F938091E5251F928F938091E4251F927F
:1006A0008F9385E193E09F938F9389E18E0D1F9245
:1006B0008F93C8018F0D911D9F938F930E941F648C
:1006C0008F0DEE24E394E80EF801E80FF11D10827F
:1006D0000FB6F894DEBF0FBECDBFC8010E94EF6316
:1006E00080910A02806189838091F0148A83A090AE
:1006F0000B14B0900C14F5011995F5011995F12C16
:10070000B7016E5F7F4FCE0101960E94134D81EFBE
:1007100094E10E94A14AF5011995F501199580917E
:10072000F0148F5F8093F0148DE393E09F938F9389
:100730001F9282E08F93E00EF11EFF92EF920E94D3
:100740001F64A80165E887E492E00E9453480F9077
:100750000F900F900F900F900F9048CFCF56DF4F14
:100760000FB6F894DEBF0FBECDBFDF91CF911F91C2
:100770000F91FF90EF90DF90CF90BF90AF900895D2
:100780000F931F93CF93DF938B010E94B94CEC0121
:1007900084E00E94514D9093EF258093EE2583E0F5
:1007A0000E94514D809308269093092621E030E065
:1007B000309305152093041529811F922F932881CA
:1007C0002F701F922F939F938F938091EF258F937C
:1007D0008091EE258F93F80181811F928F93808104
:1007E0001F928F932296DF93CF9380E493E09F93A1
:1007F0008F930E94AD631092051510920415EDB70A
:10080000FEB770960FB6F894FEBF0FBEEDBFDF9136
:10081000CF911F910F910895EF92FF920F931F9325
:10082000CF93DF938C017A01FC0180819181009745
:1008300041F08A319140C1F0F8011182108283E0C9
:1008400058C068E973E280E00E94063680E290E0DA
:100850000E944D6090938923809388238AE191E0E0
:10086000F8019183808302C0653811F081E041C0B6
:10087000E70109900020E9F72197CE19DF0942E14D
:100880006EE673E080918823909189230E941E3642
:10089000892B59F58091882390918923FC01428509
:1008A0005385648575850E943A392296892B51F4C7
:1008B0002CEE35E2AE01B701809188239091892317
:1008C0000E9451378091EC259091ED25C817D907EA
:1008D00011F482E001C084E00E94C927809188233E
:1008E000909189230E942E39B9CF84E00E94C927B4
:1008F000B5CFDF91CF911F910F91FF90EF900895A9
:10090000CF93DF93FC01208131812115310551F016
:10091000213E364029F0FC011182108283E02AC07A
:10092000653839F5EC010E941B3F809104159091C8
:100930000515892B21F083B7817F866002C083B7BC
:10094000817F83BFF89483B7816083BF7894889553
:1009500083B78E7F83BF789440E050E065E8809154
:100960004716909148160E94364881EE96E099838A
:10097000888381E0DF91CF910895F8944CE050E0B6
:1009800060E872E08AEB94E10E94BD6478948AEB9F
:1009900094E108954F925F926F927F928F929F920F
:1009A000AF92BF92CF92DF92EF92FF92CF93DF93FD
:1009B0008091142682FF7CC0C0910713D091081348
:1009C0008BE090E0FE0119957C018AE090E0FE0149
:1009D00019954C0189E090E0FE011995092C000C55
:1009E000AA08BB0825E1880C991CAA1CBB1C2A95E7
:1009F000D1F7092E000CAA0BBB0BDC019927882725
:100A000024013501482A592A6A2A7B2A88E090E085
:100A1000FE0119954C01990FAA08BB084BE0880C00
:100A2000991CAA1CBB1C4A95D1F784289528A62896
:100A3000B72887E090E0FE0119956701FCEBCF1A1B
:100A4000F7E0DF0A0D2C000CEE08FF08B701A60145
:100A5000E9E1440F551F661F771FEA95D1F76C0136
:100A6000990FEE08FF08F5E0CC0CDD1CEE1CFF1C16
:100A7000FA95D1F7C828D928EA28FB28C42AD52A0C
:100A8000E62AF72A86E090E0FE011995092E000C6F
:100A9000AA0BBB0BC2E0B695A79597958795CA950B
:100AA000D1F7BC01CD016C297D298E299F2904C075
:100AB00060E070E081E29AE4DF91CF91FF90EF90E7
:100AC000DF90CF90BF90AF909F908F907F906F906E
:100AD0005F904F900895CF93DF93C1E0D0E0D09323
:100AE0000515C093041589E793E00E94EF6388EB36
:100AF00093E00E94EF6382EF93E09F938F930E94B5
:100B0000AD6381E294E09F938F930E94AD6384E490
:100B100094E09F938F930E94AD6385E694E09F934A
:100B20008F930E94AD6385E994E09F938F930E9419
:100B3000AD638DEB94E09F938F930E94AD638AEF3A
:100B400094E09F938F930E94AD638DE395E09F9314
:100B50008F930E94AD638EE595E09F938F930E94E3
:100B6000AD6388EA95E09F938F930E94AD6380EF19
:100B700095E09F938F930E94AD63809114262DB7CB
:100B80003EB72A5E3F4F0FB6F8943EBF0FBE2DBF53
:100B900082FF14C0D0930515C093041584E496E039
:100BA0009F938F930E94AD638BE896E09F938F9302
:100BB0000E94AD630F900F900F900F9081E090E036
:100BC00090930515809304158AE090E00E94E963F4
:100BD00082ED96E00E94EF631092051510920415C5
:100BE000DF91CF910895CF92DF92EF92FF920F9312
:100BF0001F93CF93DF93F8948EE992E00E94D5641F
:100C0000D82EC92E8CE992E00E94D564F82EE92EE8
:100C10008AE992E00E94D564182F092F88E992E0B2
:100C20000E94D564EC01789481E090E090930515E2
:100C30008093041583E197E00E94EF63CF92DF92E7
:100C400082E397E09F938F930E94AD63EF92FF92B0
:100C500081E497E09F938F930E94AD630F931F935E
:100C600080E597E09F938F930E94AD63DF93CF93CE
:100C70008FE597E09F938F930E94AD6310920515C7
:100C8000109204158DB79EB740960FB6F8949EBF8C
:100C90000FBE8DBFDF91CF911F910F91FF90EF900D
:100CA000DF90CF900895CF92DF92EF92FF920F9353
:100CB0001F93CF93DF936C01F8948EE992E00E942A
:100CC000D564F82EE92E8CE992E00E94D564182FA5
:100CD000092F8AE992E00E94D564EC0188E992E04C
:100CE0000E94D5647894F6012081203359F481E084
:100CF00090E09093051580930415EF92FF928EE695
:100D000097E024C0213359F481E090E090930515D9
:100D1000809304150F931F9381E997E017C0223346
:100D200059F481E090E09093051580930415DF93CA
:100D3000CF9384EB97E00AC021E030E030930515B3
:100D4000209304159F938F9387ED97E09F938F9344
:100D50000E94AD6310920515109204150F900F902C
:100D60000F900F90DF91CF911F910F91FF90EF9017
:100D7000DF90CF900895EF92FF920F931F93CF9340
:100D8000DF938C017B010E94C861EC01892B79F40F
:100D9000F8018081803359F481E090E0909305154B
:100DA000809304151F930F938AEF97E04FC0F701CC
:100DB0008081803391F4F894BE018EE992E00E9424
:100DC000FD64789481E090E090930515809304157C
:100DD000DF93CF9383E598E039C0813391F4F894A1
:100DE000BE018CE992E00E94FD64789481E090E07D
:100DF0009093051580930415DF93CF9384E798E0D3
:100E000025C0823391F4F894BE018AE992E00E94F1
:100E1000FD64789481E090E090930515809304152B
:100E2000DF93CF9385E998E011C0F894BE0188E97B
:100E300092E00E94FD64789481E090E09093051523
:100E400080930415DF93CF9386EB98E09F938F9365
:100E50000E94AD6310920515109204150F900F902B
:100E60000F900F90DF91CF911F910F91FF90EF9016
:100E700008958F929F92AF92BF92CF92DF92EF929E
:100E8000FF920E94973D6B017C0181E090E090937E
:100E90000515809304158CE3882E912CA12CB12C80
:100EA000C701B601A50194010E9409609F938F9329
:100EB0007F936F93CA01B901A50194010E94096053
:100EC0009F938F937F936F93C701B60120E13EE01C
:100ED00040E050E00E940960CA01B90128E130E019
:100EE00040E050E00E9409609F938F937F936F933F
:100EF000C701B60120E831E541E050E00E940960F9
:100F00005F934F933F932F9387ED98E09F938F9339
:100F10000E94AD6310920515109204158DB79EB70F
:100F200042960FB6F8949EBF0FBE8DBFFF90EF9014
:100F3000DF90CF90BF90AF909F908F9008950F93C8
:100F40001F93CF93DF93CDB7DEB72C970FB6F894EE
:100F5000DEBF0FBECDBF4CE050E0BC018E010F5F85
:100F60001F4FC8010E940563F8944CE050E06CE804
:100F700072E0C8010E94DB6461E070E080E190E013
:100F80000E94FD64789481E090E090930515809331
:100F900004151F930F938CE199E09F938F930E9408
:100FA000AD6310920515109204150F900F900F90DD
:100FB0000F902C960FB6F894DEBF0FBECDBFDF9119
:100FC000CF911F910F910895EF92FF920F931F936E
:100FD000CF93DF93CDB7DEB72C970FB6F894DEBF73
:100FE0000FBECDBFF89480E190E00E94D5647C01F3
:100FF00081E0E816F10479F081E090E09093051526
:101000008093041585E399E00E94EF631092051523
:10101000109204151EC04CE050E06CE872E08E01A6
:101020000F5F1F4FC8010E94BD64F0920515E0924A
:1010300004151F930F9388E499E09F938F930E9468
:10104000AD6310920515109204150F900F900F903C
:101050000F9078942C960FB6F894DEBF0FBECDBFDC
:10106000DF91CF911F910F91FF90EF900895EF9234
:10107000FF920F931F93CF93DF93C0910713D091EB
:10108000081386E090E0FE011995F82EE92E87E01E
:1010900090E0FE011995182F092F88E090E0FE01DD
:1010A0001995EF92FF920F931F939F938F9388E56B
:1010B00099E09F938F931F928FE08F9385ED94E13A
:1010C0009F938F930E941F648DB79EB70C960FB6A7
:1010D000F8949EBF0FBE8DBF85ED94E1DF91CF9157
:1010E0001F910F91FF90EF900895EF92FF920F9351
:1010F0001F93CF93DF93C0910713D09108138BE018
:1011000090E0FE011995F82EE92E8AE090E0FE01AC
:101110001995182F092F89E090E0FE011995EF929B
:10112000FF920F931F939F938F9387E699E09F936E
:101130008F931F928FE08F9386EC94E19F938F9310
:101140000E941F648DB79EB70C960FB6F8949EBF91
:101150000FBE8DBF86EC94E1DF91CF911F910F916F
:10116000FF90EF900895CF92DF92EF92FF920F934E
:101170001F93CF93DF93CDB7DEB72C970FB6F894BC
:10118000DEBF0FBECDBFD82EC92E162F49E050E0CE
:10119000682F792FCE0101960E940563CE010D962E
:1011A0007C01111154C066E779E00C970E94D2626D
:1011B0008E01065F1F4F009779F0E016F10661F08F
:1011C0000E94C861F80181938F0166E779E080E0B1
:1011D00090E00E94D262EFCF6A858FEF860F8F3149
:1011E00058F081E090E09093051580930415CF921C
:1011F000DF9288E799E07BC0EB848FEF8E0D8C3017
:1012000080F7FC84F3E6FF1564F300910913109155
:101210000A1370E083E090E0F80119956E2D70E0FC
:1012200084E090E0F80119956F2D70E085E090E082
:10123000F801199581E090E09093051580930415CD
:101240000E9475089F938F938FEA99E050C06DEBD1
:1012500079E0CE0101960E94D2628E01065F1F4F97
:10126000009779F00E151F0561F00E94C861F80122
:1012700081938F016DEB79E080E090E00E94D26273
:10128000EFCF6A85693158F081E090E090930515C1
:1012900080930415CF92DF928FEB99E028C0EB8406
:1012A000FCE3FE1588F3FC84FF1570F3009109132D
:1012B00010910A1370E082E090E0F80119956E2D0C
:1012C00070E081E090E0F80119956F2D70E080E00A
:1012D00090E0F801199581E090E0909305158093D6
:1012E00004150E9437089F938F9386EF99E09F9390
:1012F0008F930E94AD6310920515109204150F9004
:101300000F900F900F902C960FB6F894DEBF0FBE83
:10131000CDBFDF91CF911F910F91FF90EF90DF90A4
:10132000CF900895F89444E650E06CEA71E08BE0C9
:1013300092E00E94DB6478940895F89444E650E0CB
:1013400068E471E08BE092E00E94DB647894089599
:10135000F89444E650E064EE70E08BE092E00E9486
:10136000DB6478940895F89444E650E060E870E017
:101370008BE092E00E94DB64789408952F923F9274
:101380004F925F926F927F928F929F92AF92BF9295
:10139000CF92DF92EF92FF920F931F93CF93DF9341
:1013A000CDB7DEB76E970FB6F894DEBF0FBECDBFD8
:1013B0009A8F898F85E0E5EEF2E0DE011D960190BF
:1013C0000D928A95E1F787E0FE017296DF01982F72
:1013D0001D929A95E9F795E0E1EFF2E0DE011196B2
:1013E00001900D929A95E1F7FE013696DF011D926C
:1013F0008A95E9F710920115109200151092FF14CA
:101400001092FE141092FD141092FC14E98DFA8DC6
:1014100080819181892B09F03DC161E084EE95E2E4
:101420000E948427F8948AE190E00E94D5644C01E0
:10143000609100157091011584E090E00E94FD64B8
:101440006091FE147091FF1482E090E00E94FD64B0
:101450006091FC147091FD1480E090E00E94FD64A6
:1014600088E190E00E94D5645C0186E190E00E94F2
:10147000D5646C0184E190E00E94D5647C0182E136
:1014800090E00E94D5648C018EE090E00E94D564CB
:101490003C018CE090E00E94D5642C018AE090E051
:1014A0000E94D5641C0188E090E00E94D5649C8F66
:1014B0008B8F86E090E00E94D5649E8F8D8F8A94FA
:1014C000892891F08CE390E09093D7258093D625DE
:1014D0006CE370E082EA92E00E94FD6461E070E0FB
:1014E0008AE190E00E94FD64AA94AB2891F08CE31D
:1014F00090E09093D7258093D6256CE370E08EE939
:1015000092E00E94FD6461E070E088E190E00E945A
:10151000FD64CA94CD2881F01092D7251092D6256B
:1015200060E070E08CE992E00E94FD6461E070E0B0
:1015300086E190E00E94FD64EA94EF2881F0109229
:10154000D7251092D62560E070E08AE992E00E94EB
:10155000FD6461E070E084E190E00E94FD64013090
:10156000110581F01092D7251092D62560E070E029
:1015700088E992E00E94FD6461E070E082E190E021
:101580000E94FD646A946728B1F061E070E08EE02B
:1015900090E00E94FD644CE050E060E872E0CE0113
:1015A0000D960E94DB644CE050E064E772E0CE01EF
:1015B00001960E94DB644A944528C1F00E9492097A
:1015C00061E070E08CE090E00E94FD644CE050E04F
:1015D00060E872E0CE010D960E94DB644CE050E0C2
:1015E00064E772E0CE0101960E94DB642A9423280E
:1015F000C1F00E949D0961E070E08AE090E00E94E5
:10160000FD644CE050E060E872E0CE010D960E946F
:10161000DB644CE050E064E772E0CE0101960E948A
:10162000DB648B8D9C8D0197C1F00E94A80961E05D
:1016300070E088E090E00E94FD644CE050E060E8DB
:1016400072E0CE010D960E94DB644CE050E064E74E
:1016500072E0CE0101960E94DB64AD8DBE8D1197C4
:10166000C1F00E94B30961E070E086E090E00E9462
:10167000FD644CE050E060E872E0CE010D960E94FF
:10168000DB644CE050E064E772E0CE0101960E941A
:10169000DB647894E98DFA8D1182108283E06E9676
:1016A0000FB6F894DEBF0FBECDBFDF91CF911F9173
:1016B0000F91FF90EF90DF90CF90BF90AF909F90F1
:1016C0008F907F906F905F904F903F902F900895F4
:1016D000AF92BF92CF92DF92EF92FF920F931F9340
:1016E000CF93DF93CDB7DEB7C059D1400FB6F89492
:1016F000DEBF0FBECDBFF8946E0183EDC81A8EEF2A
:10170000D80A44E650E06CEA71E0C6010E94BD646C
:101710007E0199ECE90EF11C44E650E068E471E0CA
:10172000C7010E94BD648E010B591F4F44E650E073
:1017300064EE70E0C8010E94BD6444E650E060E8D9
:1017400070E0CE0101965C010E94BD64789481E056
:1017500090E09093051580930415DF92CF9284E07A
:101760009AE09F938F930E94AD63FF92EF9283E183
:101770009AE09F938F930E94AD631F930F9382E231
:101780009AE09F938F930E94AD63BF92AF9281E3E3
:101790009AE09F938F930E94AD6380E49AE00E9449
:1017A000EF6310920515109204150FB6F894DEBF82
:1017B0000FBECDBFC057DE4F0FB6F894DEBF0FBED1
:1017C000CDBFDF91CF911F910F91FF90EF90DF90F0
:1017D000CF90BF90AF900895EF92FF920F931F9319
:1017E000CF93DF937C018701F701C081FFEFEF1AF0
:1017F000FF0A8C2F90E00E94BE62892BA1F7CC23B8
:1018000091F0E80109900020E9F722970C171D07D5
:1018100010F0198208C0888190E00E94BE62892B76
:10182000C1F32197F3CFC801DF91CF911F910F91A1
:10183000FF90EF9008951F93CF93DF93CDB7DEB75E
:101840002C970FB6F894DEBF0FBECDBF182F4CE01B
:1018500050E0CE0101960E940563F8944CE050E000
:10186000113019F460E872E002C064E772E0CE0162
:1018700001960E94DB6478942C960FB6F894DEBF34
:101880000FBECDBFDF91CF911F910895813011F42C
:101890000C94BD04F8944CE050E064E772E08EEAEA
:1018A00094E10E94BD6478948EEA94E108958F9249
:1018B0009F92AF92BF92CF92DF92EF92FF92CF931F
:1018C000DF930E94973D6B017C01C1E0D0E0D09393
:1018D0000515C093041580EF9AE00E94EF6382E043
:1018E0000E94460CB82EA92E0E94BD04AF92BF9252
:1018F0009F938F9389E39BE09F938F930E94AD63A7
:101900008BE092E09F938F9383E69BE09F938F936E
:101910000E94AD6310920515109204150E94F30504
:1019200042E16EE673E080918823909189230E94C2
:101930001E362DB73EB7265F3F4F0FB6F8943EBF19
:101940000FBE2DBFD0930515C0930415892B41F40C
:1019500088E79BE00E94EF63109205151092041532
:1019600082E99BE00E94EF63109205151092041526
:101970000E94E4078091142682FF22C081E090E05B
:1019800090930515809304150E9475089F938F937B
:101990008BEA9BE09F938F930E94AD630E94370870
:1019A0009F938F938DEB9BE09F938F930E94AD63EA
:1019B0008DB79EB708960FB6F8949EBF0FBE8DBF29
:1019C000C1E0D0E0D0930515C09304158CE3882EB8
:1019D000912CA12CB12CC701B601A50194010E9444
:1019E00009609F938F937F936F93CA01B901A501FB
:1019F00094010E9409609F938F937F936F93C70117
:101A0000B60120E13EE040E050E00E940960CA01DA
:101A1000B90128E130E040E050E00E9409609F9366
:101A20008F937F936F93C701B60120E831E541E0C2
:101A300050E00E9409605F934F933F932F938FEC88
:101A40009BE09F938F930E94AD63109205151092B7
:101A500004150E94680BD0930515C09304158BE004
:101A60009CE00E94EF6310920515109204152DB7AB
:101A70003EB72E5E3F4F0FB6F8943EBF0FBE2DBF50
:101A8000DF91CF91FF90EF90DF90CF90BF90AF901C
:101A90009F908F900895CF92DF92EF92FF920F93D5
:101AA0001F93CF93DF93CDB7DEB768970FB6F89447
:101AB000DEBF0FBECDBF8C0184E190E00E944D607F
:101AC0006C0143E150E0B8010E94056364E57CE0ED
:101AD000C6010E94D2628E01035F1F4F4BE050E0AF
:101AE000BC01C8010E94056364E57CE080E090E0F1
:101AF0000E94D2624BE050E0BC01CE0101967C0115
:101B00000E94056345E050E0B80185EE92E00E9436
:101B10002963892B91F48981882379F0B70181E0C9
:101B20000E941B0C81E090E09093051580930415B2
:101B3000FF92EF9286E59CE025C045E050E0B801B9
:101B400081EF92E00E942963892B91F48981882397
:101B500079F0B70182E00E941B0C81E090E0909345
:101B6000051580930415FF92EF928CE69CE00AC065
:101B700081E090E090930515809304151F930F93D7
:101B800082E89CE09F938F930E94AD6310920515AD
:101B9000109204150F900F900F900F90C601689649
:101BA0000FB6F894DEBF0FBECDBFDF91CF911F916E
:101BB0000F91FF90EF90DF90CF900C94E5602F9203
:101BC0003F924F925F926F927F928F929F92AF92CD
:101BD000BF92CF92DF92EF92FF920F931F93CF931A
:101BE000DF93CDB7DEB7CE50D1400FB6F894DEBF4D
:101BF0000FBECDBFC35FDE4F8883CD50D140C25FE3
:101C0000DE4F9883CE50D140C55FDE4F7983688325
:101C1000CB50D1408A01C75FDE4F39832883C9503A
:101C2000D14084E690E00E944D603C01FE01E95104
:101C3000FF4F8EE1DF011D928A95E9F781EA9AE074
:101C40009183808387EA9AE0938382838DEA9AE086
:101C50009583848383EB9AE09783868389EB9AE06C
:101C6000918780878CEB9AE0938782878EEB9AE04E
:101C70009587848785EE92E09787868781EF92E04B
:101C8000918B808B80EC9AE0938B828B85EC9AE031
:101C9000958B848B8BEC9AE0978B868B8CE99AE002
:101CA000918F808FF894C75FDE4FE881F981C9502A
:101CB000D1408081803329F444E650E06CEA71E041
:101CC00014C0813329F444E650E068E471E00DC0AB
:101CD000823329F444E650E064EE70E006C08333BA
:101CE00049F444E650E060E870E0CE018B599F4F24
:101CF0000E94BD647894FE01319684E6DF011D9256
:101D00008A95E9F744E650E0BE016B597F4FC30165
:101D10000E94056361E578E0C3010E94D2621E0162
:101D2000B9EC2B0E311C7101412C512C009781F024
:101D30000E94EC0BF701819391937F01FFEF4F1A03
:101D40005F0A61E578E080E090E00E94D262EECF29
:101D50000130110509F088C0C35FDE4F0881CD5006
:101D6000D140C25FDE4F1881CE50D140E12CF12C22
:101D7000C55FDE4FE881F981CB50D140EE16FF06FA
:101D80000CF044C04101C12CD12CAA24A394B12C45
:101D90004C145D04C9F0D8016D917C91FB01019058
:101DA0000020E9F73197AF01461B570BF4018191F1
:101DB00091914F010E942963892B11F4A12CB12C20
:101DC000FFEFCF1ADF0AE4CFAA94AB28C9F4D801F9
:101DD000AD90BC90F50101900020E9F731976F01BB
:101DE000CA18DB0861E578E0CE018B599F4F0E944D
:101DF000F362A601B501CE018B599F4F0E94196372
:101E0000BFEFEB1AFB0A0E5F1F4FB2CFA6968FAD46
:101E1000A697882309F439C1F894C75FDE4FA881DB
:101E2000B981C950D1408C91803329F444E650E007
:101E30006CEA71E015C0813329F444E650E068E4AF
:101E400071E00EC0823329F444E650E064EE70E0A5
:101E500007C0833309F018C144E650E060E870E041
:101E6000CE018B599F4F0EC1012B09F00EC1812C61
:101E7000912CA12CB12CA414B50409F4DBC0C35FD0
:101E8000DE4FE881CD50D140CB5FDE4FE883C550B7
:101E9000D140C25FDE4FF881CE50D140CA5FDE4FE5
:101EA000F883C650D140E12CF12C81E090E0C95F6D
:101EB000DE4F99838883C750D140C55FDE4F88814C
:101EC0009981CB50D140E816F9060CF044C0F101DD
:101ED00000811181F80101900020E9F73197AF01ED
:101EE000401B510BCB5FDE4FA881B981C550D1405B
:101EF000CD90DD90CB5FDE4FB983A883C550D14034
:101F0000B601C8010E942963892B09F5F801808177
:101F10008435B9F445E050E065EC7AE0C6010E94F2
:101F2000296331E020E0892B09F030E0C95FDE4F02
:101F30003883C750D140C85FDE4F2883C850D14096
:101F400006C0C95FDE4F19821882C750D140FFEF2B
:101F5000EF1AFF0AB2CFD1010D911D911D017E0133
:101F6000B7EEEB0EF11CF7017A96CB5FDE4FF983EB
:101F7000E883C550D140C12CD12CF601EE0FFF1FD4
:101F800087EE90E08C0F9D1FE80FF91FA081B181B3
:101F9000FD0101900020E9F73197AF014A1B5B0B6F
:101FA000D7016D917D917D01C8010E942963892B24
:101FB00019F4CC24C394D12CCB5FDE4FE881F98196
:101FC000C550D140EE16FF06C1F6C95FDE4F8881CD
:101FD0009981C750D140019749F5CA94CD2831F570
:101FE000F80101900020E9F78114910461F4AF0138
:101FF000401B510BB801CE0101960E940563882455
:102000008394912C10C031977F01E01AF10A61E5A9
:1020100078E0CE0101960E94F362A701B801CE01DB
:1020200001960E941963AFEF8A1A9A0ABFEFAB1AA2
:10203000BB0A21CF8981882341F1F894C75FDE4F25
:10204000A881B981C950D1408C91803329F444E6EC
:1020500050E06CEA71E014C0813329F444E650E0AA
:1020600068E471E00DC0823329F444E650E064EE88
:1020700070E006C0833341F444E650E060E870E06D
:10208000CE0101960E94DB647894C301C25FDE4FEB
:102090000FB6F894DEBF0FBECDBFDF91CF911F9179
:1020A0000F91FF90EF90DF90CF90BF90AF909F90F7
:1020B0008F907F906F905F904F903F902F900C94F7
:1020C000E5602F923F924F925F926F927F928F9234
:1020D0009F92AF92BF92CF92DF92EF92FF920F93B7
:1020E0001F93CF93DF93CDB7DEB7CC50D1400FB65F
:1020F000F894DEBF0FBECDBF7C01C75FDE4F798392
:102100006883C950D14084E690E00E944D603C0154
:1021100084E690E00E944D60582E492E8E010951B0
:102120001F4F8EE1D8011D928A95E9F781EA9AE066
:10213000F8019183808387EA9AE0938382838DEA12
:102140009AE09583848383EB9AE09783868389EB77
:102150009AE0918780878CEB9AE0938782878EEB59
:102160009AE09587848785EE92E09787868781EF4E
:1021700092E0918B808B80EC9AE0938B828B85EC44
:102180009AE0958B848B8BEC9AE0978B868B8CE90D
:102190009AE0918F808FF894C75FDE4FA881B98154
:1021A000C950D1408C91803329F444E650E06CEA68
:1021B00071E014C0813329F444E650E068E471E032
:1021C0000DC0823329F444E650E064EE70E006C0AE
:1021D000833349F444E650E060E870E0CE018B5967
:1021E0009F4F0E94BD647894FE01319684E6DF0122
:1021F0001D928A95E9F744E650E0B701852D942DAC
:102200000E94056361E578E0852D942D0E94D262DD
:10221000FE01E753FF4F7F01CB5FDE4F198218822B
:10222000C550D1400097D1F00E94EC0BD7018D939F
:102230009D937D01CB5FDE4FE881F981C550D14090
:102240003196CB5FDE4FF983E883C550D14061E51D
:1022500078E080E090E00E94D262E4CF44E650E073
:10226000BE016B597F4FC3010E94056361E578E0B1
:10227000C3010E94D262212C312C9801265E3F4F6F
:10228000C55FDE4F39832883CB50D140009709F4D6
:1022900080C00E94EC0B6C01FC0101900020E9F76A
:1022A00031977F01E81AF90ACE0187539F4F4C01FD
:1022B000A12CB12CA1E0B0E0C95FDE4FB983A883A7
:1022C000C750D140CB5FDE4F28813981C550D14006
:1022D0002A153B05A1F0A701B601F4018191919166
:1022E0004F010E942963892B31F4C95FDE4F1982A7
:1022F0001882C750D140FFEFAF1ABF0AE3CF580191
:10230000812C912CA701B601D5018D919D915D0184
:102310000E942963892B19F488248394912CC55F2A
:10232000DE4FE881F981CB50D140EA15FB0551F72A
:10233000C95FDE4F28813981C750D1402130310536
:1023400009F58A948928F1F42114310461F4A70174
:102350004F5F5F4FB601CE0101960E9405632224B4
:102360002394312C0FC061E578E0CE0101960E94E4
:10237000F362A701B601CE0101960E9419638FEFA7
:10238000281A380A61E578E080E090E00E94D26285
:102390007DCFF8948981882391F1C75FDE4FA881B2
:1023A000B981C950D1408C91803329F444E650E082
:1023B0006CEA71E014C0813329F444E650E068E42B
:1023C00071E00DC0823329F444E650E064EE70E021
:1023D00006C0833341F444E650E060E870E0CE018B
:1023E00001960E94DB644F925F9280EA9CE09F938B
:1023F0008F930E94AD630F900F900F900F90789481
:10240000C3010E94E560852D942DC45FDE4F0FB699
:10241000F894DEBF0FBECDBFDF91CF911F910F911A
:10242000FF90EF90DF90CF90BF90AF909F908F90F4
:102430007F906F905F904F903F902F900C94E5604D
:102440002F923F924F925F926F927F928F929F92C4
:10245000AF92BF92CF92DF92EF92FF920F931F93B2
:10246000CF93DF93CDB7DEB7C85AD1090FB6F89432
:10247000DEBF0FBECDBF5C01CB55DF4F79836883D4
:10248000C55AD04084E690E00E944D602C0184E65D
:1024900090E00E944D603C018E010D571F4F8EE170
:1024A000F80111928A95E9F781EA9AE0F80191839F
:1024B000808387EA9AE0938382838DEA9AE095830A
:1024C000848383EB9AE09783868389EB9AE09187F4
:1024D00080878CEB9AE0938782878EEB9AE09587D2
:1024E000848785EE92E09787868781EF92E0918BD3
:1024F000808B80EC9AE0938B828B85EC9AE0958BB5
:10250000848B8BEC9AE0978B868B8CE99AE0918F89
:10251000808FF894CB55DF4FE881F981C55AD040C0
:1025200080819E012F5F3F4F7901803329F444E67B
:1025300050E06CEA71E014C0813329F444E650E0C5
:1025400068E471E00DC0823329F444E650E064EEA3
:1025500070E006C0833339F444E650E060E870E090
:10256000C7010E94BD64789444E650E0B701C201FF
:102570000E94056361E578E0C2010E94D262FE011B
:10258000EB59FF4F6F01CF55DF4F19821882C15AA7
:10259000D0400097D9F00E94EC0BF6018193919303
:1025A0006F01CF55DF4F28813981C15AD0402F5F4D
:1025B0003F4FCF55DF4F39832883C15AD04061E563
:1025C00078E080E090E00E94D262E3CF44E650E001
:1025D000B501C3010E94056361E578E0C3010E9473
:1025E000D262F8017A96C955DF4FF983E883C75A5A
:1025F000D040009709F46BC00E94EC0B6C01FC0109
:1026000001900020E9F731971F01281A390A9E012D
:102610002B593F4F4901A12CB12C81E090E0CD55C1
:10262000DF4F99838883C35AD040CF55DF4F28812D
:102630003981C15AD0402A153B05A1F0A101B6014C
:10264000F401819191914F010E942963892B31F40A
:10265000CD55DF4F19821882C35AD040FFEFAF1A11
:10266000BF0AE3CF5801812C912CA101B601F501DD
:10267000819191915F010E942963892B19F488242B
:102680008394912CC955DF4F28813981C75AD04096
:102690002A153B0551F7CD55DF4F88819981C35AE3
:1026A000D040019769F48A94892851F461E578E073
:1026B000C7010E94F362A101B601C7010E9419631C
:1026C00061E578E080E090E00E94D26292CF89815B
:1026D0008823A1F1F894CB55DF4FE881F981C55AE1
:1026E000D0408081803329F444E650E06CEA71E008
:1026F00014C0813329F444E650E068E471E00DC071
:10270000823329F444E650E064EE70E006C083337F
:1027100041F444E650E060E870E0CE0101960E948A
:10272000DB647894FF92EF928AEC9CE09F938F9306
:102730000E94AD630F900F900F900F90C3010E9405
:10274000E560C201C855DF4F0FB6F894DEBF0FBE7B
:10275000CDBFDF91CF911F910F91FF90EF90DF9050
:10276000CF90BF90AF909F908F907F906F905F9031
:102770004F903F902F900C94E5608F929F92AF9274
:10278000BF92CF92DF92EF92FF920F931F93CF935E
:10279000DF931F921F92CDB7DEB76C01CA01F6011D
:1027A000208131812115310519F12D3D314029F06C
:1027B000F6011182108283E057C22091BC262613B5
:1027C0001CC0BE016F5F7F4F0E94D2628C01FC0172
:1027D000B080F8E6BF1213C0FC0101900020E9F7B9
:1027E000CF0102978017910709F033C20E946B0551
:1027F0008DED91E0F6019183808381E035C242E066
:1028000050E062E27DE00E942963892B09F04FC00D
:10281000F80101900020E9F7CF0103978017910795
:1028200019F40E94F305E4CFF80183818332A1F506
:1028300084818053843028F586E090E00E944D60CA
:102840007C0146E050E0B8016C5F7F4F0E94056359
:10285000F8018581882389F086E090E00E944D6030
:102860005C01B8016B5F7F4F46E050E00E9405635A
:10287000B701C5010E94BB0682C1C7010E94530671
:1028800081C181E090E090930515809304151F931A
:102890000F9385E29DE0BBC081E090E09093051529
:1028A000809304151F930F9380E69DE0B0C042E033
:1028B00050E061E474E0C8010E942963892B19F497
:1028C0000E94570C95CF44E050E065E97DE0C801D7
:1028D0000E942963892BE1F4F80101900020E9F7B7
:1028E0003197E01BF10B359780F08CE090E00E946F
:1028F0004D607C01B8016B5F7F4F4CE050E00E945F
:102900000563C7010E949F073DC10E94E40770CF85
:10291000F5E7BF1203C00E9439076ACF44E050E0D8
:102920006AE97DE0C8010E942963892B99F5F801C5
:1029300001900020E9F73197E01BF10BE430F1053D
:1029400069F481E090E090930515809304150E944E
:1029500075089F938F938FE99DE059C035973997FC
:1029600070F489E090E00E944D607C01B8016B5FDB
:102970007F4F49E050E00E94056360E03AC081E08B
:1029800090E090930515809304151F930F9389EAA7
:102990009DE03DC044E050E06AED7DE0C8010E944A
:1029A0002963892B09F040C0F80101900020E9F764
:1029B0003197E01BF10BE430F10559F40E94370820
:1029C0009F938F938FED9DE09F938F930E94AD63B4
:1029D00026C03597399788F489E090E00E944D60D1
:1029E0007C01B8016B5F7F4F49E050E00E940563B6
:1029F00061E0C7010E94B308C5C081E090E09093F8
:102A00000515809304151F930F9389EE9DE09F9306
:102A10008F930E94AD6310920515109204150F90CC
:102A20000F900F900F90E4CE42E050E062EB73E124
:102A3000C8010E942963892B09F0A8C0F801019000
:102A40000020E9F7CF0103978017910719F40E943E
:102A5000680BCECE84E690E00E944D605C0144E6B7
:102A600050E0B8016D5F7F4F0E940563F5018081E2
:102A70008053863008F075C084E690E00E944D6077
:102A80007C0144E650E0B8016C5F7F4F0E94056313
:102A900044E050E06AE17EE0C7010E942963892B8F
:102AA00059F40E9492090E949D090E94A8090E945F
:102AB000B3090E94680B63C0F70180818823D1F1BC
:102AC00084E690E00E944D604C01B8016B5F7F4F3F
:102AD00044E650E00E940563F70180818B3259F48F
:102AE000B501C4010E9420128FE19EE00E94EF63B5
:102AF0000E94680B1DC08D3299F4B501C4010E947B
:102B00006110FF92EF9283E49EE09F938F930E9467
:102B1000AD630E94680B0F900F900F900F9008C04C
:102B20000E94680BC5010E94E560C7010E94E56034
:102B3000C40114C081E090E09093051580930415C2
:102B40008DE69EE00E94EF63109205151092041529
:102B50000E94680BC5010E94E560C7010E94E56004
:102B60000EC081E090E0909305158093041580E8F5
:102B70009EE00E94EF631092051510920415C501A6
:102B80000E94E560C7010E94E56032CE45E050E05A
:102B900065EA7EE0C8010E942963892B09F059C0CB
:102BA000F80101900020E9F7CF01069780179107FF
:102BB00029F581E090E090930515809304150E941B
:102BC000BD049F938F938BEA9EE09F938F930E9407
:102BD000AD6382E00E94460C9F938F9384EB9EE04E
:102BE0009F938F930E94AD63109205151092041568
:102BF0000FB6F894DEBF0FBECDBFFACD84E190E0F2
:102C00000E944D607C01B8016A5F7F4F43E150E054
:102C10000E940563F7018081882321F0C7010E948B
:102C20004B0DB0CF81E090E0909305158093041593
:102C3000FF92EF928DEB9EE09F938F930E94AD6386
:102C400010920515109204150F900F900F900F9091
:102C500099CF81E090E090930515809304151F9320
:102C60000F9380EF9CE0D3CE0F900F90DF91CF9128
:102C70001F910F91FF90EF90DF90CF90BF90AF909A
:102C80009F908F900895CF93DF93CDB7DEB7C85C48
:102C9000D1090FB6F894DEBF0FBECDBF44E650E0B9
:102CA000BC01CE0101960E94056344E650E06CE150
:102CB00070E0CE0101960E94DB6481E090E0909389
:102CC000031580930215C853DF4F0FB6F894DEBF8B
:102CD0000FBECDBFDF91CF9108953F924F925F928B
:102CE0006F927F928F929F92AF92BF92CF92DF921C
:102CF000EF92FF920F931F93CF93DF93CDB7DEB781
:102D0000C653D1400FB6F894DEBF0FBECDBFF894C6
:102D100044E650E06CEA71E0CE018B599F4F0E946F
:102D2000BD64789461E578E0CE018B599F4F0E9495
:102D3000D2628C0160EF7EE0CE0187539F4F0E94EC
:102D4000FE6282E0382EE090D113F090D213C35D82
:102D5000DE4FF982E882CD52D140C15DDE4FF9826B
:102D6000E882CF52D140CF5CDE4FF982E882C15376
:102D7000D1404090EE125090EF12C090E613D090E8
:102D8000E7133601A090B713B090B8138091CF121B
:102D90009091D012CD5CDE4F99838883C353D1408C
:102DA000E091E012F091E112CB5CDE4FF983E88311
:102DB000C553D140CE0101964C010115110509F40E
:102DC0009EC2C8010E94EC0B45E050E065EC7AE041
:102DD0000E942963892B01F580E090E0CB5CDE4FF7
:102DE000E881F981C553D1401995BC01990F880B31
:102DF000990B0E94F05E20E030E040E251E40E9436
:102E0000465E9F938F937F936F9383EF9EE09F9394
:102E10008F931F928CE011C2C8010E94EC0B45E019
:102E200050E06BEC7AE00E942963892BE1F480E0AA
:102E300090E0CD5CDE4FE881F981C353D140199514
:102E4000BC01990F880B990B0E94F05E20E030E0E6
:102E50004AE754E40E94465E9F938F937F936F935B
:102E600081E09FE013C0C8010E94EC0B44E050E0F9
:102E700060EC7AE00E942963892B69F40E9476282D
:102E80009F938F937F936F938FE09FE09F938F9398
:102E90001F928BE0D2C1C8010E94EC0B45E050E0CC
:102EA00061EF72E00E942963892B69F40E949A28DD
:102EB0009F938F937F936F938CE19FE09F938F936A
:102EC0001F928DE0BAC1C8010E94EC0B45E050E0B2
:102ED00065EE72E00E942963892B69F40E948B28B9
:102EE0009F938F937F936F9389E29FE09F938F933C
:102EF0001F928FE0A2C1C8010E94EC0BFC018081EF
:102F0000803571F580919623909197238C7E992737
:102F1000892B09F4A8C180E090E0F5011995892B6F
:102F2000E1F00E94A23C811118C080E090E0F50120
:102F300019959F938F9386E39FE09F938F931F92A2
:102F40008CE08F9389EC90E08C0F9D1F830D911D79
:102F50009F938F930E941F647BC18CE39FE081C18C
:102F6000C8010E94EC0BFC018081843551F58091F1
:102F7000962381FF78C180E090E0F3011995892BB9
:102F800009F453C00E94633D81114FC080E090E07E
:102F9000F3011995BC01990F880B990B0E94F05E03
:102FA00020E030E040E251E40E94465E9F938F9320
:102FB0007F936F938AE49FE09F938F931F9289E0A2
:102FC0003CC1C8010E94EC0B42E050E069EB7AE0A2
:102FD0000E942963892B61F58091962381FF43C16B
:102FE00081E090E0F6011995892BF9F00E94663D89
:102FF00081111BC081E090E0F6011995BC01990F89
:10300000880B990B0E94F05E20E030E040E251E432
:103010000E94465E9F938F937F936F938FE59FE00F
:103020009F938F931F928AE008C182E59FE019C1A8
:10303000C8010E94EC0B44E050E06CE97AE00E9489
:103040002963892BA9F482E090E0F2011995182FE9
:10305000092F80E090E0F20119950F931F939F9341
:103060008F9388E69FE09F938F931F9282E1E5C044
:10307000C8010E94EC0B45E050E061EA7AE00E9452
:103080002963892B81F58091962384FFECC080E031
:1030900090E0CF5CDE4FE881F981C153D1401995B2
:1030A000892B09F4DCC00E94E03C8111D8C080E08B
:1030B00090E0CF5CDE4FE881F981C153D140199592
:1030C000BC01990F880B990B0E94F05E20E030E064
:1030D0004AE754E40E94465E9F938F937F936F93D9
:1030E0008AE79FE03AC0C8010E94EC0B45E050E03F
:1030F00067EA7AE00E942963892B89F580919623FB
:1031000084FFB1C081E090E0C15DDE4FE881F981CC
:10311000CF52D1401995892B09F4A1C00E94E03CFF
:1031200081119DC081E090E0C15DDE4FE881F981B1
:10313000CF52D1401995BC01990F880B990B0E9471
:10314000F05E20E030E04AE754E40E94465E9F9340
:103150008F937F936F9385E99FE09F936BC0C80126
:103160000E94EC0B45E050E06DEA7AE00E94296392
:10317000892B81F58091962384FF75C082E090E0D1
:10318000C35DDE4FE881F981CD52D1401995892B7D
:1031900009F465C00E94E03C811161C082E090E0CA
:1031A000C35DDE4FE881F981CD52D1401995BC0154
:1031B000990F880B990B0E94F05E20E030E04AE7FF
:1031C00054E40E94465E9F938F937F936F9381EAAE
:1031D0009FE02FC0C8010E94EC0B45E050E063EB7C
:1031E0007AE00E942963892BF1F58091962384FF70
:1031F00036C083E090E0F7011995892BA1F10E9478
:10320000E03C811130C083E090E0F7011995BC01EA
:10321000990F880B990B0E94F05E20E030E04AE79E
:1032200054E40E94465E9F938F937F936F938DEA41
:103230009FE09F938F931F928EE08F9389EC90E095
:103240008C0F9D1F830D911D9F938F930E941F6470
:10325000380E0FB6F894DEBF0FBECDBF04C086E8AF
:103260009FE00E94431680910215909103150197EB
:1032700031F5F89444E650E06CE170E0C4010E943E
:10328000BD6478949F928F9289E393E09F938F938C
:103290001F9280E18F9389EC90E08C0F9D1F830D2E
:1032A000911D9F938F930E941F64380E10920315F7
:1032B000109202150FB6F894DEBF0FBECDBFF0E43A
:1032C000F315A8F4E9ECF0E0EC0FFD1FE30DF11DA0
:1032D0001082AE0147535F4F65E889E792E00E9494
:1032E0005348C753DF4F1882C95CD040312C61E589
:1032F00078E080E090E00E94D2628C015ECDE9EC43
:10330000F0E0EC0FFD1FE30DF11D1082AE014753FD
:103310005F4F65E889E792E00E945348CA5CDE4F40
:103320000FB6F894DEBF0FBECDBFDF91CF911F91D6
:103330000F91FF90EF90DF90CF90BF90AF909F9054
:103340008F907F906F905F904F903F9008953F9245
:103350004F925F926F927F928F929F92AF92BF92A5
:10336000CF92DF92EF92FF920F931F93CF93DF9351
:10337000CDB7DEB7C653D1400FB6F894DEBF0FBE4F
:10338000CDBFF89444E650E064EE70E0CE018B5976
:103390009F4F0E94BD64789461E578E0CE018B591F
:1033A0009F4F0E94D2628C016CEB7FE0CE0187536D
:1033B0009F4F0E94FE6282E0382EE090D113F09081
:1033C000D213C35DDE4FF982E882CD52D140C15D98
:1033D000DE4FF982E882CF52D140CF5CDE4FF982D6
:1033E000E882C153D1404090EE125090EF12C0904D
:1033F000E613D090E7133601A090B713B090B8133E
:103400008091CF129091D012CD5CDE4F998388834A
:10341000C353D140E091E012F091E112CB5CDE4F5A
:10342000F983E883C553D140CE0101964C010115C3
:10343000110509F49EC2C8010E94EC0B45E050E062
:1034400065EC7AE00E942963892B01F580E090E029
:10345000CB5CDE4FE881F981C553D1401995BC01A1
:10346000990F880B990B0E94F05E20E030E040E25B
:1034700051E40E94465E9F938F937F936F9383EFF7
:103480009EE09F938F931F928CE011C2C8010E940F
:10349000EC0B45E050E06BEC7AE00E942963892B4D
:1034A000E1F480E090E0CD5CDE4FE881F981C35328
:1034B000D1401995BC01990F880B990B0E94F05EC1
:1034C00020E030E04AE754E40E94465E9F938F93E9
:1034D0007F936F9381E09FE013C0C8010E94EC0BC3
:1034E00044E050E060EC7AE00E942963892B69F4A3
:1034F0000E9476289F938F937F936F938FE09FE036
:103500009F938F931F928BE0D2C1C8010E94EC0B56
:1035100045E050E061EF72E00E942963892B69F475
:103520000E949A289F938F937F936F938CE19FE0E3
:103530009F938F931F928DE0BAC1C8010E94EC0B3C
:1035400045E050E065EE72E00E942963892B69F442
:103550000E948B289F938F937F936F9389E29FE0C4
:103560009F938F931F928FE0A2C1C8010E94EC0B22
:10357000FC018081803571F580919623909197238D
:103580008C7E9927892B09F4A8C180E090E0F50191
:103590001995892BE1F00E94A23C811118C080E0AE
:1035A00090E0F50119959F938F9386E39FE09F9399
:1035B0008F931F928CE08F9389EC90E08C0F9D1F6E
:1035C000830D911D9F938F930E941F647BC18CE399
:1035D0009FE081C1C8010E94EC0BFC018081843511
:1035E00051F58091962381FF78C180E090E0F3014E
:1035F0001995892B09F453C00E94633D81114FC076
:1036000080E090E0F3011995BC01990F880B990BAC
:103610000E94F05E20E030E040E251E40E94465E0D
:103620009F938F937F936F938AE49FE09F938F93F1
:103630001F9289E03CC1C8010E94EC0B42E050E0BF
:1036400069EB7AE00E942963892B61F580919623CA
:1036500081FF43C181E090E0F6011995892BF9F0D3
:103660000E94663D81111BC081E090E0F601199532
:10367000BC01990F880B990B0E94F05E20E030E0AE
:1036800040E251E40E94465E9F938F937F936F9335
:103690008FE59FE09F938F931F928AE008C182E598
:1036A0009FE019C1C8010E94EC0B44E050E06CE9B6
:1036B0007AE00E942963892BA9F482E090E0F2016C
:1036C0001995182F092F80E090E0F20119950F93BA
:1036D0001F939F938F9388E69FE09F938F931F92F2
:1036E00082E1E5C0C8010E94EC0B45E050E061EAD0
:1036F0007AE00E942963892B81F58091962384FFCB
:10370000ECC080E090E0CF5CDE4FE881F981C153EE
:10371000D1401995892B09F4DCC00E94E03C81114D
:10372000D8C080E090E0CF5CDE4FE881F981C153E2
:10373000D1401995BC01990F880B990B0E94F05E3E
:1037400020E030E04AE754E40E94465E9F938F9366
:103750007F936F938AE79FE03AC0C8010E94EC0B09
:1037600045E050E067EA7AE00E942963892B89F5F9
:103770008091962384FFB1C081E090E0C15DDE4F6F
:10378000E881F981CF52D1401995892B09F4A1C064
:103790000E94E03C81119DC081E090E0C15DDE4F60
:1037A000E881F981CF52D1401995BC01990F880B5E
:1037B000990B0E94F05E20E030E04AE754E40E945A
:1037C000465E9F938F937F936F9385E99FE09F93CE
:1037D0006BC0C8010E94EC0B45E050E06DEA7AE056
:1037E0000E942963892B81F58091962384FF75C0FF
:1037F00082E090E0C35DDE4FE881F981CD52D14097
:103800001995892B09F465C00E94E03C811161C0C3
:1038100082E090E0C35DDE4FE881F981CD52D14076
:103820001995BC01990F880B990B0E94F05E20E05E
:1038300030E04AE754E40E94465E9F938F937F9363
:103840006F9381EA9FE02FC0C8010E94EC0B45E016
:1038500050E063EB7AE00E942963892BF1F58091B7
:10386000962384FF36C083E090E0F7011995892BF9
:10387000A1F10E94E03C811130C083E090E0F701AB
:103880001995BC01990F880B990B0E94F05E20E0FE
:1038900030E04AE754E40E94465E9F938F937F9303
:1038A0006F938DEA9FE09F938F931F928EE08F938B
:1038B00089EC90E08C0F9D1F830D911D9F938F933A
:1038C0000E941F64380E0FB6F894DEBF0FBECDBF46
:1038D00004C086E89FE00E944316809102159091F3
:1038E0000315019731F5F89444E650E06CE170E07F
:1038F000C4010E94BD6478949F928F9289E393E003
:103900009F938F931F9280E18F9389EC90E08C0FAF
:103910009D1F830D911D9F938F930E941F64380EEE
:1039200010920315109202150FB6F894DEBF0FBE69
:10393000CDBFFCE3F315A8F4E9ECF0E0EC0FFD1FBC
:10394000E30DF11D1082AE0147535F4F65E889E733
:1039500092E00E945348C753DF4F1882C95CD040A1
:10396000312C61E578E080E090E00E94D2628C0129
:103970005ECDE9ECF0E0EC0FFD1FE30DF11D1082D0
:10398000AE0147535F4F65E889E792E00E945348D4
:10399000CA5CDE4F0FB6F894DEBF0FBECDBFDF911D
:1039A000CF911F910F91FF90EF90DF90CF90BF903C
:1039B000AF909F908F907F906F905F904F903F90CF
:1039C00008953F924F925F926F927F928F929F9253
:1039D000AF92BF92CF92DF92EF92FF920F931F931D
:1039E000CF93DF93CDB7DEB7C653D1400FB6F8946F
:1039F000DEBF0FBECDBFF89444E650E060E870E053
:103A0000CE018B599F4F0E94BD64789461E578E0A8
:103A1000CE018B599F4F0E94D2628C016FEB7FE0E9
:103A2000CE0187539F4F0E94FE6282E0382EE090C5
:103A3000D113F090D213C35DDE4FF982E882CD52EC
:103A4000D140C15DDE4FF982E882CF52D140CF5CD8
:103A5000DE4FF982E882C153D1404090EE1250907F
:103A6000EF12C090E613D090E7133601A090B71381
:103A7000B090B8138091CF129091D012CD5CDE4FF0
:103A800099838883C353D140E091E012F091E11211
:103A9000CB5CDE4FF983E883C553D140CE0101965C
:103AA0004C010115110509F4FFC2C8010E94EC0B7D
:103AB00045E050E065EC7AE00E942963892B01F52E
:103AC00080E090E0CB5CDE4FE881F981C553D140C6
:103AD0001995BC01990F880B990B0E94F05E20E0AC
:103AE00030E040E251E40E94465E9F938F937F93C3
:103AF0006F9383EF9EE09F938F931F928CE02AC079
:103B0000C8010E94EC0B45E050E06BEC7AE00E94AB
:103B10002963892B89F580E090E0CD5CDE4FE88158
:103B2000F981C353D1401995BC01990F880B990BAA
:103B30000E94F05E20E030E04AE754E40E94465ED6
:103B40009F938F937F936F9381E09FE09F938F93D9
:103B50001F928BE08F9389EC90E08C0F9D1F830D5B
:103B6000911D9F938F930E941F64380E0FB6F89497
:103B7000DEBF0FBECDBF4CC2C8010E94EC0B44E0BB
:103B800050E060EC7AE00E942963892B49F40E949E
:103B900076289F938F937F936F938FE09FE0D6CF8C
:103BA000C8010E94EC0B45E050E061EF72E00E941A
:103BB0002963892B69F40E949A289F938F937F939E
:103BC0006F938CE19FE09F938F931F928DE0C2CF04
:103BD000C8010E94EC0B45E050E065EE72E00E94E7
:103BE0002963892B69F40E948B289F938F937F937D
:103BF0006F9389E29FE09F938F931F928FE0AACFEC
:103C0000C8010E94EC0BFC018081803561F5809138
:103C10009623909197238C7E9927892B09F4F8C1DC
:103C200080E090E0F5011995892B09F481C00E948C
:103C3000A23C81117DC080E090E0F50119959F9331
:103C40008F9386E39FE09F938F931F928CE08F93D7
:103C500089EC90E08C0F9D1F830D911D9F938F9396
:103C60000E941F6482CFC8010E94EC0BFC0180817E
:103C7000843551F58091962381FFCAC180E090E0A0
:103C8000F3011995892B09F453C00E94633D8111FA
:103C90004FC080E090E0F3011995BC01990F880BAB
:103CA000990B0E94F05E20E030E040E251E40E9477
:103CB000465E9F938F937F936F938AE49FE09F93D9
:103CC0008F931F9289E046CFC8010E94EC0B42E01F
:103CD00050E069EB7AE00E942963892B61F58091BD
:103CE000962381FF95C181E090E0F6011995892B1B
:103CF000F9F00E94663D81111BC081E090E0F60161
:103D00001995BC01990F880B990B0E94F05E20E079
:103D100030E040E251E40E94465E9F938F937F9390
:103D20006F938FE59FE09F938F931F928AE012CF4E
:103D300082E59FE06BC1C8010E94EC0B44E050E0BB
:103D40006CE97AE00E942963892BA9F482E090E073
:103D5000F2011995182F092F80E090E0F2011995D2
:103D60000F931F939F938F9388E69FE09F938F936A
:103D70001F9282E1EFCEC8010E94EC0B45E050E0BB
:103D800061EA7AE00E942963892B09F04AC0809198
:103D9000962384FF3DC180E090E0CF5CDE4FE88158
:103DA000F981C153D1401995892BB1F10E94E03CB2
:103DB000811132C080E090E0CF5CDE4FE881F98174
:103DC000C153D1401995BC01990F880B990B0E94E2
:103DD000F05E20E030E04AE754E40E94465E9F93A4
:103DE0008F937F936F938AE79FE09F938F931F92A8
:103DF0008EE08F9389EC90E08C0F9D1F830D911DB9
:103E00009F938F930E941F64380E81E090E09093FF
:103E1000E9148093E814AACE1092E9141092E814E1
:103E2000F7C0C8010E94EC0B45E050E067EA7AE079
:103E30000E942963892B09F04AC08091962384FF50
:103E4000E7C081E090E0C15DDE4FE881F981CF52AB
:103E5000D1401995892BB1F10E94E03C811132C00B
:103E600081E090E0C15DDE4FE881F981CF52D14021
:103E70001995BC01990F880B990B0E94F05E20E008
:103E800030E04AE754E40E94465E9F938F937F930D
:103E90006F9385E99FE09F938F931F928EE08F939E
:103EA00089EC90E08C0F9D1F830D911D9F938F9344
:103EB0000E941F64380E81E090E09093E714809395
:103EC000E61454CE1092E7141092E614A1C0C80173
:103ED0000E94EC0B45E050E06DEA7AE00E94296315
:103EE000892B09F04AC08091962384FF91C082E01B
:103EF00090E0C35DDE4FE881F981CD52D140199544
:103F0000892BB1F10E94E03C811132C082E090E047
:103F1000C35DDE4FE881F981CD52D1401995BC01D6
:103F2000990F880B990B0E94F05E20E030E04AE781
:103F300054E40E94465E9F938F937F936F9381EA30
:103F40009FE09F938F931F928EE08F9389EC90E078
:103F50008C0F9D1F830D911D9F938F930E941F6453
:103F6000380E81E090E09093E5148093E414FECD48
:103F70001092E5141092E4144BC0C8010E94EC0B9F
:103F800045E050E063EB7AE00E942963892B09F059
:103F90003FC08091962384FF3BC083E090E0F7010F
:103FA0001995892BF9F00E94E03C81111BC083E038
:103FB00090E0F7011995BC01990F880B990B0E94AD
:103FC000F05E20E030E04AE754E40E94465E9F93B2
:103FD0008F937F936F938DEA9FE09F938F931F92B0
:103FE0008EE0B8CD8091E8149091E914892B81F48A
:103FF0008091E6149091E714892B51F48091E41498
:104000009091E514892B21F486E89FE00E944316E5
:104010008091021590910315019731F5F89444E6CB
:1040200050E06CE170E0C4010E94BD6478949F92FE
:104030008F9289E393E09F938F931F9280E18F93F8
:1040400089EC90E08C0F9D1F830D911D9F938F93A2
:104050000E941F64380E10920315109202150FB6BD
:10406000F894DEBF0FBECDBFFCE3F315A8F4E9EC76
:10407000F0E0EC0FFD1FE30DF11D1082AE01475380
:104080005F4F65E889E792E00E945348C753DF4FCE
:104090001882C95CD040312C61E578E080E090E086
:1040A0000E94D2628C01FDCCE9ECF0E0EC0FFD1F28
:1040B000E30DF11D1082AE0147535F4F65E889E7BC
:1040C00092E00E945348CA5CDE4F0FB6F894DEBF00
:1040D0000FBECDBFDF91CF911F910F91FF90EF9059
:1040E000DF90CF90BF90AF909F908F907F906F9018
:1040F0005F904F903F900895CF92DF92EF92FF92A2
:104100000F931F93CF93DF93CDB7DEB728970FB6EA
:10411000F894DEBF0FBECDBF8C010E948F27809325
:1041200096239093972310920115109200151092E8
:10413000FF141092FE141092FD141092FC14C09003
:10414000FD02D090FE02E090FF02F090000381FF9C
:104150001DC0E091E813F091E91361E070E081E89F
:1041600090E01995C982DA82EB82FC82980141E0E5
:1041700050E062E070E0CE0101960E94DF0D81E028
:1041800090E0909301158093001511C0C982DA82E6
:10419000EB82FC82980140E050E062E070E0CE01EA
:1041A00001960E94DF0D109201151092001580916A
:1041B000962384FF22C0E091D313F091D41361E0E1
:1041C00070E081E890E0199588E0E1E0F3E0DE013D
:1041D000119601900D928A95E1F7980141E050E027
:1041E00064E070E0CE0101960E94DF0D81E090E076
:1041F0009093FF148093FE1416C088E0E1E0F3E092
:10420000DE01119601900D928A95E1F7980140E048
:1042100050E064E070E0CE0101960E94DF0D109244
:10422000FF141092FE1480919623909197238C7E18
:104230009927892BE9F0E091B913F091BA1361E065
:1042400070E081E890E019958CEB9AE09A8389837D
:10425000980141E050E061E070E0CE0101960E94DB
:10426000DF0D81E090E09093FD148093FC1411C069
:104270008CEB9AE09A838983980140E050E061E0FA
:1042800070E0CE0101960E94DF0D1092FD14109295
:10429000FC148091962382FF0BC00E94432AE09178
:1042A0000913F0910A1361E070E081E890E019953C
:1042B000F89484E090E00E94D5642091001530913C
:1042C00001158217930719F12115310589F482EC44
:1042D0009FE00E94EF63609100157091011584E0EA
:1042E00090E00E94FD648EEF9FE00E9443160FC095
:1042F0002130310561F48BE090E10E94EF63609121
:1043000000157091011584E090E00E94FD6480E04A
:1043100090E00E94D5642091FC143091FD14821726
:10432000930719F12115310589F484E490E10E9485
:10433000EF636091FC147091FD1480E090E00E94A6
:10434000FD6481E890E10E9443160FC021303105E1
:1043500061F48FE890E10E94EF636091FC1470912A
:10436000FD1480E090E00E94FD6482E090E00E94F5
:10437000D5642091FE143091FF148217930719F130
:104380002115310589F489EC90E10E94EF63609179
:10439000FE147091FF1482E090E00E94FD6487E0BB
:1043A00091E10E9443160FC02130310561F486E18E
:1043B00091E10E94EF636091FE147091FF1482E01E
:1043C00090E00E94FD64789428960FB6F894DEBFC2
:1043D0000FBECDBFDF91CF911F910F91FF90EF9056
:1043E000DF90CF9008950F931F93CF93DF93EC014D
:1043F00088819981009741F08E33914009F445C03E
:104400001982188283E062C0E091FD12F091FE12E1
:1044100061E070E081E890E01995E091E212F0919E
:10442000E31261E070E081E890E01995E091D1122B
:10443000F091D21261E070E081E890E01995E0918E
:10444000F012F091F11261E070E081E890E01995CE
:104450008AEE91E10E947C208EE992E00E94D56470
:104460009093EF148093EE14AC015695542F44278B
:104470005795479560E070E08CEF95E20E94F0461A
:104480008EE391E09983888306C08CEF95E20E94C9
:10449000FA46892B11F481E019C00091091410919A
:1044A0000A14F8011995F80119958091EE1490916C
:1044B000EF14892B11F00E946D1600910B141091CE
:1044C0000C14F8011995F8011995C2CFDF91CF911D
:1044D0001F910F9108950F931F93CF93DF93EC01DA
:1044E00088819981009741F08636914009F442C055
:1044F0001982188283E055C0E091FD12F091FE12FE
:1045000061E070E081E890E01995E091E212F091AD
:10451000E31261E070E081E890E01995E091D1123A
:10452000F091D21261E070E081E890E01995E0919D
:10453000F012F091F11261E070E081E890E01995DD
:104540008CEC91E10E947C208CE992E00E94D56481
:104550009695982F882797958795AC0160E070E035
:1045600088ED95E20E94F04686E691E09983888383
:1045700081E017C088ED95E20E94FA46892BC1F3CD
:104580000091091410910A14F8011995F801199570
:1045900000910B1410910C14F8011995F80119955C
:1045A000CFCFDF91CF911F910F9108950F931F935C
:1045B000CF93DF93EC0188819981009741F0803996
:1045C000914009F445C01982188283E062C0E091ED
:1045D000FD12F091FE1261E070E081E890E0199523
:1045E000E091E212F091E31261E070E081E890E086
:1045F0001995E091D112F091D21261E070E081E85A
:1046000090E01995E091F012F091F11261E070E004
:1046100081E890E019958EEA91E10E947C208AE978
:1046200092E00E94D5649093ED148093EC14AC0159
:104630005695542F44275795479560E070E08AE8D7
:1046400093E20E94F04680E991E09983888306C056
:104650008AE893E20E94FA46892B11F481E019C09E
:104660000091091410910A14F8011995F80119958F
:104670008091EC149091ED14892B11F00E94A719F0
:1046800000910B1410910C14F8011995F80119956B
:10469000C2CFDF91CF911F910F9108950F931F9378
:1046A000CF93DF93EC0188819981009741F0893B9A
:1046B000914009F445C01982188283E062C0E091FC
:1046C000FD12F091FE1261E070E081E890E0199532
:1046D000E091E212F091E31261E070E081E890E095
:1046E0001995E091D112F091D21261E070E081E869
:1046F00090E01995E091F012F091F11261E070E014
:1047000081E890E0199580E991E10E947C2088E998
:1047100092E00E94D5649093EB148093EA14AC016C
:104720005695542F44275795479560E070E08AECE2
:1047300095E20E94F04689EB91E09983888306C058
:104740008AEC95E20E94FA46892B11F481E019C0A7
:104750000091091410910A14F8011995F80119959E
:104760008091EA149091EB14892B11F00E94E11CC6
:1047700000910B1410910C14F8011995F80119957A
:10478000C2CFDF91CF911F910F910895E6E4F1E040
:104790009081208180813081492F407C932F929598
:1047A000969596959370940F269526952073920F63
:1047B00082958C70890F0895CF93C82F8CE492E175
:1047C0009F938F930E94AD630F900F90C0FF04C022
:1047D00089E592E10E94EF63C1FF04C088E692E19F
:1047E0000E94EF63C2FF04C087E792E10E94EF637B
:1047F000C3FF04C086E892E10E94EF63C4FF05C0D6
:1048000085E992E1CF910C94EF63CF9108958F9257
:104810009F92AF92BF92CF92DF92EF92FF920F934F
:104820001F93CF93DF93CDB7DEB72A970FB6F894D7
:10483000DEBF0FBECDBF0E94013F0E94103F0E940D
:10484000D32746E069E180E00E94A33E80E00E9419
:10485000F83E0E94693D60EA76E881E090E00E94BF
:104860008526E5E0F7E222E432E4318320833A96BC
:104870008DB79EB70A97E817F907B8F389EA94E06D
:104880009F938F930E94C1638EB30E94DC230E948A
:104890008F480E94DC450E94D14760E070E08EEBBB
:1048A00092E00E9462480E947F450E94AA4966E801
:1048B00079E480E00E94EA3EE091F913F091FA1366
:1048C00019950E94C62390E00E941D3F80EA92E164
:1048D0009F938F930E94AD630E948F27809314262D
:1048E000909315260F900F900F900F9080FF19C096
:1048F00061E0CE0101960E948427CE0101960E94BC
:10490000834D8A81082E000C990B982F88272885C3
:10491000820F911D27FD9A9590930D2680930C266A
:1049200017C086EA92E10E94EF638CEF898382ECE4
:104930008A838DE38B831C821D821E8280910C26CC
:1049400090910D269F838887CE0101960E94834D0A
:104950000E945A268C010E945626AE01475F5F4F87
:10496000B8010E949A410E94C8250E941C410E94E1
:104970005E260E94E0428CE994E09F938F930E9410
:10498000C1638A81898788858A871F928F9308E906
:1049900014E01F930F930E94C16389851F928F9328
:1049A0001F930F930E94C16386E994E09F938F93B6
:1049B0000E94C1630E942E4CE0917114F091721418
:1049C0001995E0915B14F0915C141995E0914D14E8
:1049D000F0914E1419950E94E242882E00917D14A8
:1049E00010917E14F80119950FB6F894DEBF0FBE32
:1049F000CDBF892B51F0F8011995BC0180E890E0FA
:104A00000E94F55F162F072F02C010E800E00E94F9
:104A10001941982EB0904B14A0904C14D0906F1464
:104A2000C0907014F0905914E0905A140E94D03F36
:104A30001F928F920F931F931F929F92AF92BF92DC
:104A4000CF92DF92EF92FF929F938F9382E494E054
:104A50009F938F930E94C16381E394E09F938F9310
:104A60000E94C16388E392E10E94CD4589E294E00F
:104A70009F938F930E94C16388EE93E090930B26DF
:104A800080930A2684E00E94C9270FB6F894DEBFFF
:104A90000FBECDBF2A960FB6F894DEBF0FBECDBFB6
:104AA000DF91CF911F910F91FF90EF90DF90CF900A
:104AB000BF90AF909F908F9008950E940724CCE004
:104AC000D4E00E94E1470E941B3F80910A2690910A
:104AD0000B26009751F0019790930B2680930A269E
:104AE000892B19F484E00E94CE2780910E269091A4
:104AF0000F26009751F0019790930F2680930E2672
:104B0000892B19F482E00E94CE2784E00E94CE27F0
:104B100082E00E94CE270E94973D009110261091BE
:104B200011262091122630911326601771078207F3
:104B3000930739F20E94973D6093102670931126D7
:104B40008093122690931326DC01CB019370AA2741
:104B5000BB270397A105B10509F0B3CFE5E0F7E264
:104B6000808191818234924469F0E550F742FF934D
:104B7000EF93DF93CF930E94C1630F900F900F903C
:104B80000F909FCF3A96E53F81E8F80748F399CF19
:104B9000EF92FF920F931F93CF93DF93CDB7DEB7C2
:104BA000A0970FB6F894DEBF0FBECDBF89EA92E0A2
:104BB0000E94D564182F282F35EF380F303108F0B8
:104BC000982F9095291709F463C083EE94E09F9382
:104BD0008F930E94C163E8E2F5E08E010F5F1F4FE3
:104BE000CE0109960F900F90D801780124912D9352
:104BF0003196A817B907D1F7F89448E050E065EC72
:104C000072E0C8010E940365EAE1F5E0CE010F966B
:104C1000D80124912D933196A817B907D1F74EE00A
:104C200050E067EB72E0C8010E940365E0E1F5E047
:104C3000CE010B962491D8012D938D013196A817A2
:104C4000B907C1F74AE050E06DEA72E0C7010E947F
:104C500003656DEC7BEA87EA92E00E941B6560E0E9
:104C600070E085EA92E00E941B6560E084EA92E0D1
:104C70000E940D6560E070E08BEA92E00E941B6587
:104C80001AE16AE175EE89EA92E00E941B65789468
:104C9000812FA0960FB6F894DEBF0FBECDBFDF9177
:104CA000CF911F910F91FF90EF90089587EA92E0C6
:104CB0000C94D56485EA92E00C94D56484EA92E081
:104CC0000C94CD642FE130E08BE59EE041E951E0AA
:104CD00020935101FA013197F1F76091510165FD7F
:104CE0000DC02031310521F02CF08B54910903C007
:104CF00084EC99E0C29721503109EACF089580E011
:104D000090E0089581E090E008959B01AC0110923D
:104D1000B90060E074E284EF90E00E940960DA017B
:104D2000C9014097A109B109B695A79597958795AF
:104D30008093B800089594EA9093BC0040EA56E846
:104D400061E070E09091BC0097FD07C041505109AF
:104D500061097109B9F781E008959091B900987FD0
:104D6000983011F09031B9F78093BB0084E88093BC
:104D7000BC0080EA96E8A1E0B0E02091BC0027FDED
:104D800005C00197A109B109C1F7E5CF8091B9002C
:104D9000887F883111F08034F1F680E0089524EAAC
:104DA00034E844E92093BC009091BC0097FFFCCF0D
:104DB0009091B900987F983011F0903199F78093D5
:104DC000BB003093BC009091BC0097FFFCCF90914A
:104DD000B900987F903211F0983539F44093BC00B7
:104DE0009091BC0094FDFCCFDDCF089584E98093C1
:104DF000BC008091BC0084FDFCCF08958093BB0073
:104E000084E88093BC008091BC0087FFFCCF909128
:104E1000B900987F81E0983209F480E00895CF933B
:104E2000C82F8CEE0E949B26811103C08C2F0E94FC
:104E3000FE26CF910C94F6268093BB0084E88093E5
:104E4000BC008091BC0087FFFCCF0895CF93DF9317
:104E5000D62FC42F0E949B268D2F0E941C278C2F9B
:104E60000E941C27DF91CF910C94F62684EC80934E
:104E7000BC008091BC0087FFFCCF8091BB000895EF
:104E800084E88093BC008091BC0087FFFCCF8091B8
:104E9000BB000895CF92DF92EF92FF920F931F9382
:104EA000CF93DF93C82FD62FF42E152F022F0E94F9
:104EB0009B268D2F0E941C278C2F81600E949B2691
:104EC000CF2DD12F10E0E12CF12C680181E0C81A20
:104ED000D108E016F10671F0CE14DF0419F40E9437
:104EE000402702C00E94362788838FEFE81AF80A0D
:104EF0002196EFCFDF91CF911F910F91FF90EF900F
:104F0000DF90CF900C94F626AC01662319F028E0D0
:104F100068E902C020E160E880EB0C944A27CF9357
:104F2000DF930E941B3F80EB0E949B26811105C0EE
:104F30000E94F626C1E0D0E002C0C0E0D0E00E94AE
:104F40001B3F80E80E949B26811103C00E94F62629
:104F5000C2608CEE0E949B26811103C00E94F6263F
:104F6000C8600E941B3F82ED0E949B26811103C0F6
:104F70000E94F626C4600E941B3F80ED0E949B2683
:104F8000811103C00E94F626C061CE01DF91CF914E
:104F9000089581FD739882FD7498089581FD739A38
:104FA00082FD749A08956C9A6B9A87E00C94CE27D0
:104FB00080917B00886080937B0089EC80937C00EB
:104FC00085E080937A0080917A00806880937A00EF
:104FD00080917B0087FFFCCF80917B0085FFFCCF19
:104FE00080917A00806480937A0080917A0086FDB7
:104FF000FCCF80917A00806480937A0080917A005F
:1050000086FDFCCF609178007091790080917A00E4
:105010008F7780937A0080E090E00E94EE5E27ED2B
:1050200033EA40E95FE30E947C5F26E636E648E823
:1050300053E40E94D95D20E030E040E251E40E9458
:105040007C5F0E94B85ECB01089580E090E00895F7
:1050500081E090E0089580937C0080917B00877FC1
:1050600080937B0080917C00806C80937C0085E045
:1050700080937A0080917A00806880937A00809192
:105080007B0087FFFCCF80917B0085FFFCCF809168
:105090007A00806480937A0080917A0086FDFCCF4C
:1050A000109279001092780024E030E080E090E0E7
:1050B00040917A00406440937A0040917A0046FD26
:1050C000FCCF4091780050917900840F951F2150BA
:1050D000310971F710927C0020917A002F7720938C
:1050E0007A009695879596958795089580E00E9419
:1050F0002B28BC0180E090E00E94EE5E27ED34E3B7
:105100004FEE5CE30E947C5F21EE3AE744E95EE308
:105110000E94DA5D089581E00E942B28BC0180E0A6
:1051200090E00E94EE5E22E23FEF4CEC5BE30E94D7
:105130007C5F089582E00E942B28BC0180E090E013
:105140000E94EE5E22E23FEF4CEC5BE30E947C5F4C
:10515000089580E090E00895009719F48091162654
:1051600005C08130910521F48091172690E00895C3
:10517000029729F4809106159091071508958FEFF5
:105180009FEF089552985A981DBAE9E6F0E08081A1
:1051900080628083EA9A53985B98EB9A808180685A
:1051A0008083E8E6F0E080818160808380E090E0A9
:1051B00008951F920F920FB60F9211248F939F9311
:1051C0008091680080FF0EC0809116268F5F8093CB
:1051D0001626809106159091071501969093071554
:1051E000809306159F918F910F900FBE0F901F9087
:1051F00018951F920F920FB60F9211248F938091E2
:10520000680080FF05C0809117268F5F8093172666
:105210008F910F900FBE0F901F90189581E090E036
:1052200008955F98579A80EE91E00E94B13D57989B
:1052300080E490E00E94B13D4F9909C08CE291E07A
:105240000E94B13D89B1881F8827881F089580E09A
:1052500008950E94112980E090E00895CF93C82F0F
:10526000579A5F9882E090E00E94B13DCC2311F004
:1052700057985F9A8CE390E00E94B13D5F9A5798EF
:1052800082E090E0CF910C94B13DCF93579A5F9814
:1052900082E090E00E94B13D57985F9A8CE090E0E8
:1052A0000E94B13DC9B182E390E00E94B13D5F9A96
:1052B000579882E090E00E94B13D8C2F881F88278C
:1052C000881FCF9108951F93CF93DF93C0E0D0E064
:1052D00010E00E9445290C2E01C0880F0A94EAF7BD
:1052E000180F2196C830D105A1F7812FDF91CF91FA
:1052F0001F9108950F931F93CF93DF93C0E0D0E0E9
:10530000082F10E0C8010C2E02C0959587950A94CD
:10531000E2F781700E942E292196C830D10591F7BD
:10532000DF91CF911F910F910895382FFC0180E0FC
:105330004CE89E2F931B961770F49191892798E063
:10534000282F269580FF03C0822F842701C0822F3B
:105350009150B1F7EECF0895AF92BF92CF92DF9206
:10536000EF92FF920F931F93CF93DF93CDB7DEB7EA
:1053700029970FB6F894DEBF0FBECDBF7C010E9407
:105380001129882309F448C08CEC0E947A2984E40E
:105390000E947A29579801E510E04F9908C08AE0E9
:1053A00090E00E94BA3D01501109B9F734C00E9443
:1053B00011298CEC0E947A298EEB0E947A298E01A9
:1053C0000F5F1F4F5E018AE0A80EB11C68010E94AA
:1053D0006329F80181938F01EA15FB05C1F768E0A5
:1053E000C6010E9495299985891315C069817A8122
:1053F000072E000C880B990B0E94F05E20E030E035
:1054000040E85DE30E947C5FF701608371838283E3
:10541000938381E001C080E029960FB6F894DEBF47
:105420000FBECDBFDF91CF911F910F91FF90EF90F5
:10543000DF90CF90BF90AF900895CF93DF9300D0CF
:105440001F92CDB7DEB7CE0101960E94AC2988230A
:1054500071F020E030E048EC52E469817A818B8180
:105460009C810E947C5F0E94B85ECB0102C080E0FC
:1054700090E80F900F900F900F90DF91CF910895CB
:1054800080E090E0089560EA76E881E090E00E9494
:10549000852682ED0E949B2682ED0E941C2787E0D4
:1054A0000E941C2780E00E941C270C94F626982F4F
:1054B00092959F708F702AE0929F800D112408951D
:1054C0006AE00E94E95F20E1829F900D1124892FFC
:1054D00008950E94602A482F60E082ED0C942627F0
:1054E0000E94602A482F61E082ED0C9426270E94DA
:1054F000602A482F62E082ED0C9426270E94602AE1
:10550000482F64E082ED0C9426270E94602A482FE1
:1055100065E082ED0C9426270E94602A482F66E001
:1055200082ED0C9426279C01862F22303105B9F09C
:105530004CF42115310581F021303105C1F40E9470
:10554000702A15C02430310581F064F02530310512
:1055500071F40E948C2A0BC00E94692A08C00E9424
:10556000772A05C00E947E2A02C00E94852A80E018
:1055700090E00895CF93DF931F92CDB7DEB721E07F
:10558000AE014F5F5F4F60E082ED0E944A27898144
:105590000F90DF91CF910C94572ACF93DF931F92F6
:1055A000CDB7DEB721E0AE014F5F5F4F61E082ED26
:1055B0000E944A2789810F90DF91CF910C94572A3E
:1055C000CF93DF931F92CDB7DEB721E0AE014F5FDF
:1055D0005F4F62E082ED0E944A2789810F90DF9140
:1055E000CF910C94572ACF93DF931F92CDB7DEB79C
:1055F00021E0AE014F5F5F4F64E082ED0E944A27D9
:1056000089810F90DF91CF910C94572ACF93DF932C
:105610001F92CDB7DEB721E0AE014F5F5F4F65E06F
:1056200082ED0E944A2789810F90DF91CF910C94DF
:10563000572ACF93DF931F92CDB7DEB721E0AE019B
:105640004F5F5F4F66E082ED0E944A2789810E948A
:10565000572A90E08053984F0F90DF91CF91089593
:1056600088309105A1F044F48630910569F00797E0
:10567000C1F40E94CD2A13C08A30910571F054F014
:105680000B9779F40C94192B0E94BA2A08C00E9437
:10569000E02A05C00E94F32A02C00E94062B90E077
:1056A000089580E090E00895CF93DF93DB01FC0143
:1056B0009A012230310538F0CD91DD91C193D1931B
:1056C00022503109F6CF9A012E7FFC01E20FF31F21
:1056D000DB01A20FB31F4217530711F02C91208357
:1056E000DF91CF9108950097D1F0DC01ED91FC910D
:1056F00011973097A1F02081222389F026813781EC
:1057000012968D919C9113972817390741F4818146
:105710000E94514F80FD06C080E090E0089589E02E
:1057200090E0089583E090E008950F93CF93DF9386
:10573000EC019A01AB01BC016E5C7F4F01E08981F5
:105740000E940750892B11F5FE01E05DFD4F80811D
:10575000918185359A4AE1F4E85CF140808191813C
:10576000A281B381BB2786349144A445B10591F051
:10577000CC57DF4F488159816A817B81772781E04F
:10578000463451446445710531F404C083E003C0DC
:1057900082E001C080E0DF91CF910F9108952F92B8
:1057A0003F924F925F926F927F928F929F92AF92B1
:1057B000BF92CF92DF92EF92FF920F931F93CF93FE
:1057C000DF93CDB7DEB72E970FB6F894DEBF0FBECE
:1057D000CDBFDC01ED91FC9111972081022E000CD0
:1057E000330B205331092A30310538F451815A33B3
:1057F00021F43296ED93FC9302C020E030E0FB01EF
:1058000011821082232B09F029C220910A153091B0
:105810000B153E872D872115310509F422C2142F5F
:1058200031832083D9018C91882371F011968C915A
:105830000E94514F80FD08C0112309F415C282FF58
:1058400013C28AE090E032C2ED85FE85108211829B
:1058500080E00E94584F80FD0AC2112311F082FDA2
:10586000F0CF40E050E0BA018D859E850E94952BD7
:105870008130C9F4ED85FE85EC50FE4F80818111A9
:1058800003C08DE090E012C2ED85FE85E850FE4F2A
:105890004080518062807380B301A2018D859E8516
:1058A0000E94952B03C0412C512C3201833009F406
:1058B000E1C18111E6CFAD85BE85DD968D919C91CC
:1058C000DE9781159240E9F6ED85FE85E85BFF4F96
:1058D00080809180A12CB12C81149104A104B10489
:1058E00041F4ED85FE85EA5AFF4F80809180A280C9
:1058F000B380ED85FE85828E938EA48EB58EEE5B91
:10590000FF4FA081ED85FE85A3838FEF8A0F823044
:1059100008F0B7CF17AD1283112309F4B2CF812F4E
:1059200090E09C012150310982239323892B09F0B7
:10593000A8CFED5BFF4F20803180ED85FE8531865D
:105940002086C1018F709927892B09F09ACFEB5BD4
:10595000FF4FC080D180E12CF12CC114D104E104AF
:10596000F10441F4ED85FE85EE5AFF4FC080D180F1
:10597000E280F380ED85FE85E05CFF4F0190F081D1
:10598000E02D309709F47DCFB0E0A50194010E948D
:1059900033606D837E838F8398879F0140E050E062
:1059A00029873A874B875C87C10164E09695879584
:1059B0006A95E1F7280F391F411D511DDA01C90110
:1059C0002D813E814F815885280F391F4A1F5B1F4B
:1059D00029833A834B835C83C216D306E406F5061B
:1059E00008F44FCFC701B601621B730B840B950BF4
:1059F000212F30E040E050E00E9409602115310580
:105A00004105510509F43DCF69017A0182E0C80ED4
:105A1000D11CE11CF11C89859A85AB85BC85840D60
:105A2000951DA61DB71D89879A87AB87BC8789817D
:105A30009A81AB81BC81840D951DA61DB71D8983FC
:105A40009A83AB83BC83263F9FE03907410551050C
:105A5000C0F1263F3F4F4105510508F40EC1ED85C9
:105A6000FE85C68AD78AE08EF18E468E578E60A25A
:105A700071A229853A854B855C8522A333A344A373
:105A800055A329813A814B815C8122A733A744A782
:105A900055A7232809F0F5CEE25AFF4F8081918166
:105AA000A281B381ED85FE8586A397A3A0A7B1A7A8
:105AB00042E0CC0CDD1CEE1CFF1C4A95D1F713E034
:105AC0003EC011E0AD85BE855696CD92DD92ED9239
:105AD000FC925997FD01468E578E60A271A22985CE
