:100000000C948A020C94AB020C94AB020C94AB02DD
:100010000C94AB020C94AB020C94AB020C94AB02AC
:100020000C94AB020C94AB020C94AB020C94AB029C
:100030000C94AB020C9440290C94AB020C94AB02D0
:100040000C94AB020C94AB020C94AB020C94AB027C
:100050000C94AB020C94AB020C94AB020C94AB026C
:100060000C94AB020C94C2290C94AB020C94AB021E
:100070000C94AB020C94AB020C94AB020C94AB024C
:100080000C94D43C0C94AB020C94AB020C94AB02D9
:100090000C94F1290C94AB020C94AB020C94AB02BF
:1000A0000C94AB020C94AB020C94AB020C94AB021C
:1000B0000C94AB020C94AB020C94AB020C94AB020C
:1000C0000C94AB020C94AB020C94AB020C94AB02FC
:1000D0000C94AB020C94AB020C94AB020C94AB02EC
:1000E0000C94AB020C9480300C9476300C942C3031
:1000F0000C94F42F0C948A300C946C300C94603077
:100100000C9454300C94AB020C94AB020C94AB02E4
:100110000C94AB020C94AB020C94AB020C94AB02AB
:100120000C94AB020C94AB020C94AB020C94AB029B
:100130000C94AB02B52CC12CCA2CCF2CD42C0F2D77
:10014000122D0F2D822F432F462F492F502F822FF4
:100150006A2F822F6E2F402F402F402F402F712F5C
:10016000742F772F7C2F0C94FA360C94A72C0C94B8
:100170001C160C94772F0C949E2A0C94462F0C94EA
:1001800009370C940D370C94FF400C94423E0C94AC
:100190002B280C945A400C942F2F0C946E2F0C94F7
:1001A00006390C94170E0C9468340C940C370C948C
:1001B000FF360C94C9150C942B360C94933D0C947B
:1001C00070120C94502F0C94A12A0C94122D0C94A4
:1001D000B83D0C940B390C94683D0C946D120C9442
:1001E000212B0C94B52C0C9425420C94712F0C945B
:1001F000423F0C9454360C94CF2C0C947A360C94C9
:100200005C2C0C946A280C94162B0C94B32D0C9433
:10021000DA350C946A2D0C94402F0C946B2E0C94B0
:10022000CD2A0C94CA2C0C946D280C9463370C9432
:100230007A260C945E400C94D42C0C946A2F0C9467
:100240007C2F0C94B9160C94C6130C94432F0C9469
:1002500085370C944F270C942E280C9496300C94D0
:1002600012370C9405390C9491370C940F2D0C9483
:1002700050120C9477260C94ED070C94F5360C94E0
:1002800013140C9416140C94492F0C9466280C9497
:1002900097140C94AD020C9483370C94E52B0C94BA
:1002A000C12C0C94342B0C94822F0C9480400C9411
:1002B000A6150C94BB310C9403350C9415370C9493
:1002C000EE2B0C94FD0C0C94F22E0C94522A0C94F0
:1002D000B2140C9404370C94FF3D0C9431280C9408
:1002E000EF020C94742F0C94F8050C94CE356E61CB
:1002F0006E00696E660000407A10F35A00A0724EDC
:1003000018090010A5D4E80000E87648170000E4BA
:100310000B54020000CA9A3B000000E1F505000002
:1003200080969800000040420F000000A086010067
:100330000000102700000000E80300000000640037
:10034000000000000A0000000000010000000000A2
:100350002C76D888DC674F0823DFC1DFAE59E1B1C6
:10036000B796E5E3E453C63AE651997696E8E6C2D5
:100370008426EB898C9B62ED407C6FFCEFBC9C9FDC
:1003800040F2BAA56FA5F490055A2AF75C936B6CFE
:10039000F9676DC11BFCE0E40D47FEF520E6B500F2
:1003A000D0ED902E0300943577050080841E080060
:1003B00000204E0A000000C80C333333330F986E10
:1003C00012831141EF8D2114893BE65516CFFEE6CD
:1003D000DB18D1844B381BF77C1D901DA4BBE42493
:1003E000203284725E228100C9F124ECA1E53D2710
:1003F0004E657665722D7573656420737461636BE9
:10040000203E2025642062797465730A004F6E6C6B
:10041000696E650A00526F7574696E6720456E617A
:10042000626C65640A0050414E3D307825582C209E
:100430004D41433D25732C205244433D25732C20D0
:100440004E4554574F524B3D25732C206368616EC7
:100450006E656C3D252D752C20636865636B2D7270
:100460006174652D487A3D252D752C2074782D708A
:100470006F7765723D252D750A000A0025783A00D0
:100480004D4143206164647265737320000A2A2A17
:100490002A2A2A2A2A20426F6F74696E67205749D8
:1004A0004D45412D494354204150504C49434154FE
:1004B000494F4E2056455253494F4E2032202A2A4A
:1004C0002A2A2A2A2A0A00454550524F4D2069738C
:1004D00020636F72727570742C2072657772697404
:1004E000696E6720776974682064656661756C74ED
:1004F000732E0A006C6F63616C686F7374004154F3
:100500004D4547413235367266723200020000FFB7
:10051000FE00000111241FBECFEFD1E8DEBFCDBF2A
:1005200000E00CBF1EE0A0E0B2E0ECE8F1EA00E081
:100530000BBF02C007900D92A038B107D9F720E297
:10054000A0E8BEE001C01D92A938B207E1F70E9401
:100550004B110C94C4500C9400000F931F93CF9335
:10056000DF938B010E943638EC0184E00E94CE3884
:100570009093811F8093801F83E00E94CE388093E8
:100580008E1F90938F1F29811F922F9328812F7088
:100590001F922F939F938F938091811F8F938091B0
:1005A000801F8F93F80181811F928F9380811F920A
:1005B0008F932296DF93CF9382EE92E09F938F9357
:1005C0000E942A4FEDB7FEB770960FB6F894FEBFA3
:1005D0000FBEEDBFDF91CF911F910F910895EF9264
:1005E000FF920F931F93CF93DF938C017A01FC014D
:1005F00080819181009741F0883A9105C1F0F8011E
:100600001182108283E058C062E47DE180E00E94A4
:100610008F2180E290E00E94CA4B9093411D80930D
:10062000401D88EA90E0F8019183808302C065381C
:1006300011F081E041C0E70109900020E9F721971E
:10064000CE19DF0942E160E173E08091401D909195
:10065000411D0E94A721892B59F58091401D909141
:10066000411DFC0142855385648575850E94C32424
:100670002296892B51F42EE73FE1AE01B70180911C
:10068000401D9091411D0E94DA2280917E1F909121
:100690007F1FC817D90711F482E001C084E00E94CF
:1006A000B7138091401D9091411D0E94B724B9CF8E
:1006B00084E00E94B713B5CFDF91CF911F910F91C6
:1006C000FF90EF900895F8944AE050E062E470E003
:1006D0008CE89EE00E943A5078948CE89EE0089561
:1006E0004F925F926F927F928F929F92AF92BF9242
:1006F000CF92DF92EF92FF92CF93DF9380919A1F78
:1007000082FF7CC0C091DA0CD091DB0C8BE090E0D2
:10071000FE0119957C018AE090E0FE0119954C01DB
:1007200089E090E0FE011995092C000CAA08BB088D
:1007300025E1880C991CAA1CBB1C2A95D1F7092E0F
:10074000000CAA0BBB0BDC0199278827240135017B
:10075000482A592A6A2A7B2A88E090E0FE011995E6
:100760004C01990FAA08BB084BE0880C991CAA1CE5
:10077000BB1C4A95D1F784289528A628B72887E07E
:1007800090E0FE0119956701FCEBCF1AF7E0DF0A54
:100790000D2C000CEE08FF08B701A601E9E1440F9B
:1007A000551F661F771FEA95D1F76C01990FEE0868
:1007B000FF08F5E0CC0CDD1CEE1CFF1CFA95D1F710
:1007C000C828D928EA28FB28C42AD52AE62AF72AE5
:1007D00086E090E0FE011995092E000CAA0BBB0BD8
:1007E000C2E0B695A79597958795CA95D1F7BC01B4
:1007F000CD016C297D298E299F2904C060E070E01D
:1008000081E29AE4DF91CF91FF90EF90DF90CF905B
:10081000BF90AF909F908F907F906F905F904F9020
:1008200008958BE193E00E946C4F8AE593E09F93DB
:100830008F930E942A4F89E893E09F938F930E94A1
:100840002A4F8CEA93E09F938F930E942A4F8DEC5E
:1008500093E09F938F930E942A4F8DEF93E09F9395
:100860008F930E942A4F8CE394E09F938F930E9472
:100870002A4F89E794E09F938F930E942A4F80919B
:100880009A1F2DB73EB7225F3F4F0FB6F8943EBF79
:100890000FBE2DBF82FF10C08DEC94E09F938F930D
:1008A0000E942A4F84E195E09F938F930E942A4FE4
:1008B0000F900F900F900F908AE090E00E94664F8B
:1008C0008BE595E00C946C4FF89486E590E00E94DF
:1008D000525078949F938F938CE995E09F938F93D8
:1008E0000E942A4F0F900F900F900F9008950F9332
:1008F0001F93CF93DF93182F092F0E94454DEC01D2
:10090000009749F40F931F938EEB95E09F938F937D
:100910000E942A4F17C0F894BC0186E590E00E941F
:100920007A507894DF93CF9387E196E09F938F93EB
:100930000E942A4F86E590E00E9452509093751FC6
:100940008093741F0F900F900F900F90DF91CF91B5
:100950001F910F9108958F929F92AF92BF92CF9265
:10096000DF92EF92FF920E9414296B017C018CE3CD
:10097000882E912CA12CB12CC701B601A5019401A0
:100980000E94864B9F938F937F936F93CA01B90107
:10099000A50194010E94864B9F938F937F936F9341
:1009A000C701B60120E13EE040E050E00E94864BE6
:1009B000CA01B90128E130E040E050E00E94864BD6
:1009C0009F938F937F936F93C701B60120E831E522
:1009D00041E050E00E94864B5F934F933F932F93EB
:1009E0008FE296E09F938F930E942A4F8DB79EB718
:1009F00042960FB6F8949EBF0FBE8DBFFF90EF904A
:100A0000DF90CF90BF90AF909F908F9008950F93FD
:100A10001F93CF93DF93CDB7DEB72A970FB6F89425
:100A2000DEBF0FBECDBF4AE050E0BC018E010F5FBC
:100A30001F4FC8010E94824EF8944AE050E06CE4D7
:100A400070E0C8010E94585061E070E082E090E0E0
:100A50000E947A5078941F930F9384E796E09F93B7
:100A60008F930E942A4F0F900F900F900F902A960D
:100A70000FB6F894DEBF0FBECDBFDF91CF911F91AF
:100A80000F9108950F931F93CF93DF93CDB7DEB7E8
:100A90002A970FB6F894DEBF0FBECDBFF89482E060
:100AA00090E00E945250019729F08DE896E00E9454
:100AB0006C4F16C04AE050E06CE470E08E010F5FAE
:100AC0001F4FC8010E943A501F930F9380EA96E08F
:100AD0009F938F930E942A4F0F900F900F900F902B
:100AE00078942A960FB6F894DEBF0FBECDBFDF9183
:100AF000CF911F910F910895EF92FF920F931F9343
:100B0000CF93DF93C091DA0CD091DB0C86E090E0BC
:100B1000FE011995F82EE92E87E090E0FE01199567
:100B2000182F092F88E090E0FE011995EF92FF92AF
:100B30000F931F939F938F9380EB96E09F938F93D8
:100B40001F928FE08F9385EA9EE09F938F930E9480
:100B50009C4F8DB79EB70C960FB6F8949EBF0FBEF4
:100B60008DBF85EA9EE0DF91CF911F910F91FF909D
:100B7000EF900895EF92FF920F931F93CF93DF931F
:100B8000C091DA0CD091DB0C8BE090E0FE0119955E
:100B9000F82EE92E8AE090E0FE011995182F092F12
:100BA00089E090E0FE011995EF92FF920F931F9359
:100BB0009F938F938FEB96E09F938F931F928FE07D
:100BC0008F9386E99EE09F938F930E949C4F8DB7F1
:100BD0009EB70C960FB6F8949EBF0FBE8DBF86E9E8
:100BE0009EE0DF91CF911F910F91FF90EF900895BC
:100BF0007F928F929F92AF92BF92CF92DF92EF92AD
:100C0000FF920F931F93CF93DF93CDB7DEB7CD58ED
:100C1000D1090FB6F894DEBF0FBECDBF7C01162FF1
:100C2000C42E752E633821F485EB9EE00E941C369D
:100C3000F70180819181009741F085369140E1F084
:100C4000F7011182108283E0E5C04DE15CE061E8CC
:100C500070E085EB9EE00E940136E091E20DF0919C
:100C6000E30D6AE170E081E090E0199585E691E09E
:100C7000F7019183808302C0153811F081E0CAC06A
:100C8000F8944AE050E06CE470E0CE0186589F4F43
:100C90000E943A507894EC2DF72DDF010D90002042
:100CA000E9F711974D018E1A9F0A80919A1F8E01C4
:100CB0000D5F1F4F82FF1CC00E947C05D82EB92EED
:100CC0000E94BA05BF92DF929F938F938EEC96E0BD
:100CD0009F938F931F9289E18F931F930F930E948D
:100CE0009C4FD82E0FB6F894DEBF0FBECDBF01C00B
:100CF000D12C5E0194E8A90EB11C4AE050E0BE017F
:100D000066587F4FC5010E94824EBF92AF9285ED1B
:100D100096E09F938F931F928FE08F93C8018D0D64
:100D2000911D9F938F930E949C4FD80E7F92CF92DC
:100D300080917D1F1F928F9380917C1F1F928F93B4
:100D400080917B1F1F928F9380917A1F1F928F93A8
:100D50008091791F1F928F938091781F1F928F939C
:100D60008091771F1F928F938091761F1F928F9390
:100D700081EE96E09F938F9399E1980D1F929F9338
:100D8000C8018D0D911D9F938F930E949C4F8D0DD7
:100D9000CC24C394C80EF801E80FF11D10820FB6E1
:100DA000F894DEBF0FBECDBFC8010E946C4F90917A
:100DB0000A02906199838091B40E8A83D12CB60186
:100DC0006E5F7F4FCE0101960E94903885EB9EE0CA
:100DD0000E941E368091B40E8F5F8093B40E89E01E
:100DE00097E09F938F931F9282E08F93C8018C0DA1
:100DF0009D1D9F938F930E949C4FA80165E888E4F6
:100E000092E00E94D0330F900F900F900F900F90B0
:100E10000F902CCFC357DF4F0FB6F894DEBF0FBE35
:100E2000CDBFDF91CF911F910F91FF90EF90DF9099
:100E3000CF90BF90AF909F908F907F900895CF926A
:100E4000DF92EF92FF920F931F93CF93DF93CDB773
:100E5000DEB72C970FB6F894DEBF0FBECDBFD82EED
:100E6000C92E162F49E050E0682F792FCE01019648
:100E70000E94824ECE010D967C01111148C06CE09B
:100E800077E00C970E944F4E8E01065F1F4F009730
:100E900079F0E016F10661F00E94454DF80181936A
:100EA0008F016CE077E080E090E00E944F4EEFCF42
:100EB0006A858FEF860F8F3128F0CF92DF928EE018
:100EC00097E069C0EB848FEF8E0D8C30B0F7FC8417
:100ED000F3E6FF1594F30091DC0C1091DD0C70E04B
:100EE00083E090E0F80119956E2D70E084E090E0C9
:100EF000F80119956F2D70E085E090E0F8011995E3
:100F00000E94BA059F938F9385E497E044C063E500
:100F100077E0CE0101960E944F4E8E01065F1F4F73
:100F2000009779F00E151F0561F00E94454DF801FC
:100F300081938F0163E577E080E090E00E944F4E5F
:100F4000EFCF6A85693128F0CF92DF9285E597E08F
:100F500022C0EB84FCE3FE15B8F3FC84FF15A0F37C
:100F60000091DC0C1091DD0C70E082E090E0F80163
:100F700019956E2D70E081E090E0F80119956F2DC4
:100F800070E080E090E0F80119950E947C059F9345
:100F90008F938CE897E09F938F930E942A4F0F9036
:100FA0000F900F900F902C960FB6F894DEBF0FBEE7
:100FB000CDBFDF91CF911F910F91FF90EF90DF9008
:100FC000CF900895F89442E350E066E070E08BE043
:100FD00092E00E94585078940895CF92DF92EF9259
:100FE000FF920F931F93CF93DF93CDB7DEB7649734
:100FF0000FB6F894DEBF0FBECDBF8C0186E0EAE9E4
:10100000F7E0DE011B9601900D928A95E1F784E0EE
:10101000FE017196DF01982F1D929A95E9F796E0EF
:10102000E0EAF7E0DE01119601900D929A95E1F762
:10103000FE013796DF011D928A95E9F7F80180815C
:101040009181892B09F041C061E086E79FE10E9410
:101050007213F89484E090E00E9452506C0180E09A
:1010600090E00E9452507C01CA94CD2891F08CE30C
:1010700090E09093751F8093741F6CE370E086E599
:1010800090E00E947A5061E070E084E090E00E947D
:101090007A50EA94EF28C1F00E94E20761E070E024
:1010A00080E090E00E947A504AE050E062E470E014
:1010B000CE010B960E9458504AE050E068E370E081
:1010C000CE0101960E9458507894D8011D921C922E
:1010D00083E064960FB6F894DEBF0FBECDBFDF91FC
:1010E000CF911F910F91FF90EF90DF90CF900895D7
:1010F0000F931F93CF93DF93CDB7DEB7E2970FB671
:10110000F894DEBF0FBECDBFF89442E350E066E036
:1011100070E08E010F5F1F4FC8010E943A50789413
:101120001F930F9386EA97E09F938F930E942A4F15
:101130000F900F900F900F90E2960FB6F894DEBFCD
:101140000FBECDBFDF91CF911F910F910895EF9208
:10115000FF920F931F93CF93DF937C018701F701D9
:10116000C081FFEFEF1AFF0A8C2F90E00E943B4EE8
:10117000892BA1F7CC2391F0E80109900020E9F731
:1011800022970C171D0710F0198208C0888190E083
:101190000E943B4E892BC1F32197F3CFC801DF9109
:1011A000CF911F910F91FF90EF9008956F927F92D2
:1011B0008F929F92AF92BF92CF92DF92EF92FF9267
:1011C0000F931F93CF93DF93CDB7DEB7CC54D109E4
:1011D0000FB6F894DEBF0FBECDBF8C0182E390E066
:1011E0000E94CA4B6C018AE1E8ECF2E0DE01D39682
:1011F00001900D928A95E1F742E350E0B801C601F3
:101200000E94824E64EB77E0C6010E944F4EA12CF3
:10121000B12C009709F442C00E94A7084C017E013E
:1012200083E3E80EF11C3701EAE16E0E711CF70151
:10123000619171917F01FB0101900020E9F73197E5
:101240008F01061B170BA801C4010E94A64E892B13
:10125000D9F4AB2849F4A8014F5F5F4FB401CE0128
:1012600001960E94824E0CC065E176E0CE010196A7
:101270000E94704EA801B401CE0101960E94964EC4
:10128000AA24A394B12C03C0E614F70481F664EBFE
:1012900077E080E090E00E944F4EBBCF89818823A9
:1012A00051F0F89442E350E066E070E0CE01019620
:1012B0000E9458507894C6010E94624C0E9478089F
:1012C000C45BDF4F0FB6F894DEBF0FBECDBFDF911A
:1012D000CF911F910F91FF90EF90DF90CF90BF9033
:1012E000AF909F908F907F906F9008951F93CF93B2
:1012F000DF93CDB7DEB72A970FB6F894DEBF0FBEE7
:10130000CDBF182F4AE050E0CE0101960E94824ED8
:10131000F8944AE050E0113019F462E470E002C041
:1013200068E370E0CE0101960E94585078942A96A6
:101330000FB6F894DEBF0FBECDBFDF91CF911F91E6
:101340000895813011F40C946303F8944AE050E05E
:1013500068E370E082E89EE00E943A50789482E868
:101360009EE008958F929F92AF92BF92CF92DF92AC
:10137000EF92FF920E9414296B017C0184EE97E0AA
:101380000E946C4F82E00E94A109B82EA92E0E94F3
:101390006303AF92BF929F938F938DE298E09F93E8
:1013A0008F930E942A4F8BE092E09F938F9389E561
:1013B00098E09F938F930E942A4F0E94640442E119
:1013C00060E173E08091401D9091411D0E94A72132
:1013D0002DB73EB7265F3F4F0FB6F8943EBF0FBE06
:1013E0002DBF892B19F48EE698E002C088E898E0BA
:1013F0000E946C4F0E94420580919A1F82FF1CC080
:101400000E94BA059F938F9381EA98E09F938F93F0
:101410000E942A4F0E947C059F938F9383EB98E054
:101420009F938F930E942A4F8DB79EB708960FB651
:10143000F8949EBF0FBE8DBF8CE3882E912CA12CFB
:10144000B12CC701B601A50194010E94864B9F9360
:101450008F937F936F93CA01B901A50194010E94F4
:10146000864B9F938F937F936F93C701B60120E1C3
:101470003EE040E050E00E94864BCA01B90128E1FD
:1014800030E040E050E00E94864B9F938F937F9323
:101490006F93C701B60120E831E541E050E00E94BA
:1014A000864B5F934F933F932F9385EC98E09F93E8
:1014B0008F930E942A4F0E9478082DB73EB72E5E68
:1014C0003F4F0FB6F8943EBF0FBE2DBF81E099E0AD
:1014D000FF90EF90DF90CF90BF90AF909F908F9054
:1014E0000C946C4F3F924F925F926F927F928F92CB
:1014F0009F92AF92BF92CF92DF92EF92FF920F93A3
:101500001F93CF93DF93CDB7DEB7C257D1090FB684
:10151000F894DEBF0FBECDBFF89442E350E066E022
:1015200070E0CE0101960E943A50789465E176E031
:10153000CE0101960E944F4E8C01512CE090A40DDB
:10154000F090A50D8DEBA82E89E0B82EA796FFAEE2
:10155000EEAEA79791EB892E99E0992EA996FFAE52
:10156000EEAEA997AB96FFAEEEAEAB97C090B90DBD
:10157000D090BA0DAD96DFAECEAEAD97AF96FFAEC2
:10158000EEAEAF9780918A0D90918B0DE1969FAF53
:101590008EAFE197E091B00CF091B10CE396FFAF04
:1015A000EEAFE3976090C10C7090C20C011511056D
:1015B00009F4FBC1C8010E94A70845E050E06EEDA8
:1015C00077E00E94A64E892BB9F480E090E0F30109
:1015D0001995BC01990F880B990B0E946D4A20E068
:1015E00030E040E251E40E94C3499F938F937F9380
:1015F0006F938AE499E058C1C8010E94A70845E0AA
:1016000050E062E27AE00E94A64E892BD1F480E09D
:1016100090E0E396EEADFFADE3971995BC01990F0D
:10162000880B990B0E946D4A20E030E04AE754E4B1
:101630000E94C3499F938F937F936F9388E599E0AE
:1016400013C0C8010E94A70844E050E065ED77E0B0
:101650000E94A64E892B69F40E9464149F938F9375
:101660007F936F9386E699E09F938F931F928BE011
:101670006FC1C8010E94A70845E050E06AE977E021
:101680000E94A64E892B49F40E947914162F072F29
:10169000482E392E0E94630314C0C8010E94A70877
:1016A00045E050E060EA77E00E94A64E892B09F5FC
:1016B0000E948814162F072F482E392E82E00E9490
:1016C000A1093F924F920F931F939F938F9383E7AC
:1016D00099E09F938F931F928FE08F9383E390E025
:1016E0008C0F9D1F850D911D9F938F930E949C4F82
:1016F0003AC1C8010E94A708FC0180818035A9F485
:1017000080919A1F90919B1F8C7E9927892B09F4B9
:1017100044C180E090E0E196EEADFFADE197199510
:101720009F938F938EE799E05EC0C8010E94A7083F
:1017300048E050E06AED77E00E94A64E892BC9F49C
:1017400080919A1F90919B1F8C7E9927892B09F479
:1017500024C180E090E0AF96EEADFFADAF97199554
:101760009F938F9384E899E09F938F931F9287E0D4
:101770003EC0C8010E94A70847E050E063ED77E053
:101780000E94A64E892BA1F480919A1F81FF05C16A
:1017900080E090E0AD96EEADFFADAD9719959F93CB
:1017A0008F938CE899E09F938F931F928BE01FC0DB
:1017B000C8010E94A70848E050E06EEC77E00E9464
:1017C000A64E892B01F580919A1F81FFE6C080E02B
:1017D00090E0F601199581E090E0F60119959F934C
:1017E0008F9382E999E09F938F931F928CE08F9360
:1017F00083E390E08C0F9D1F850D911D9F938F9328
:101800000E949C4FB0C0C8010E94A70848E050E069
:1018100066EB77E00E94A64E892BF1F480919A1F27
:1018200084FFBBC080E090E0AB96EEADFFADAB9720
:101830001995BC01990F880B990B0E946D4A20E005
:1018400030E04AE754E40E94C3499F938F937F930B
:101850006F9389E999E028C0C8010E94A70848E071
:1018600050E06CEB77E00E94A64E892B01F5809149
:101870009A1F84FF92C081E090E0A996EEADFFAD83
:10188000A9971995BC01990F880B990B0E946D4A75
:1018900020E030E04AE754E40E94C3499F938F93CD
:1018A0007F936F9385EA99E09F938F934FC0C80110
:1018B0000E94A70848E050E062EC77E00E94A64E44
:1018C000892BF1F480919A1F84FF67C082E090E039
:1018D000A796EEADFFADA7971995BC01990F880BA0
:1018E000990B0E946D4A20E030E04AE754E40E94E0
:1018F000C3499F938F937F936F939F928F9226C03C
:10190000C8010E94A70848E050E068EC77E00E9418
:10191000A64E892B09F041C080919A1F84FF3DC0DB
:1019200083E090E0F7011995BC01990F880B990BA2
:101930000E946D4A20E030E04AE754E40E94C34927
:101940009F938F937F936F93BF92AF921F928CE080
:101950008F9383E390E08C0F9D1F850D911D9F93C6
:101960008F930E949C4F580E0FB6F894DEBF0FBEA7
:10197000CDBF9CE2951588F4E3E3F0E0EC0FFD1F8A
:10198000E50DF11D1082AE014D5C5F4F65E88CE501
:1019900092E00E94D0331BAA512C65E176E080E0F2
:1019A00090E00E944F4E8C0101CEE3E3F0E0EC0F9B
:1019B000FD1FE50DF11D1082AE014D5C5F4F65E826
:1019C0008CE592E00E94D033CE58DF4F0FB6F894EA
:1019D000DEBF0FBECDBFDF91CF911F910F91FF9062
:1019E000EF90DF90CF90BF90AF909F908F907F90BF
:1019F0006F905F904F903F900895CF93DF93EC01ED
:101A000088819981009741F08D3D910509F485C049
:101A10001982188283E08AC0E091D00CF091D10C39
:101A200061E070E081E890E01995E091C30CF091DD
:101A3000C40C61E070E081E890E01995E091B20C8F
:101A4000F091B30C61E070E081E890E0199580912D
:101A50009A1F81FF0FC0E091BB0DF091BC0D61E0BA
:101A600070E081E890E0199569EC79E08BE092E014
:101A70000E947B4E80919A1F84FF0FC0E091A60DBB
:101A8000F091A70D61E070E081E890E019956FEEAC
:101A900079E08BE092E00E947B4E80919A1F9091BA
:101AA0009B1F8C7E9927892B79F0E0918C0DF0910A
:101AB0008D0D61E070E081E890E0199568E27AE0D0
:101AC0008BE092E00E947B4E80919A1F82FF0BC0B8
:101AD0000E94CC15E091DC0CF091DD0C61E070E02F
:101AE00081E890E0199586E590E00E94525090932D
:101AF000751F8093741FAC015695542F442757953A
:101B0000479560E070E082E89FE10E946D328DEDC4
:101B100090E09983888381E009C082E89FE10E9478
:101B20007732892BC1F30E94720ADDCFDF91CF910A
:101B30000895CF92DF92EF92FF920F931F93CF936E
:101B4000DF93CDB7DEB764970FB6F894DEBF0FBE54
:101B5000CDBF8C0184E190E00E94CA4B6C0143E14F
:101B600050E0B8010E94824E6EE47AE0C6010E9405
:101B70004F4E8E01055F1F4F49E050E0BC01C80188
:101B80000E94824E6EE47AE080E090E00E944F4E28
:101B900049E050E0BC01CE0101967C010E94824EDA
:101BA00045E050E0B8018AE997E00E94A64E892BF3
:101BB00061F48981882349F0B70181E00E947609A8
:101BC000FF92EF9280E59AE019C045E050E0B8013D
:101BD00080EA97E00E94A64E892B61F489818823D0
:101BE00049F0B70182E00E947609FF92EF9287E602
:101BF0009AE004C01F930F938EE79AE09F938F9310
:101C00000E942A4F0F900F900F900F90C60164967C
:101C10000FB6F894DEBF0FBECDBFDF91CF911F91FD
:101C20000F91FF90EF90DF90CF900C94624CCF9289
:101C3000DF92EF92FF920F931F93CF93DF931F9248
:101C40001F92CDB7DEB77C01CA01F7012081318137
:101C50002115310519F1243F310529F0F7011182D1
:101C6000108283E076C12091402026131CC0BE0163
:101C70006F5F7F4F0E944F4E8C01FC01D080F8E6D1
:101C8000DF1213C0FC0101900020E9F7CF01029799
:101C90008017910709F050C10E94110484EF90E071
:101CA000F7019183808381E054C142E050E06EEC03
:101CB0007AE00E94A64E892BE1F4F8010190002001
:101CC000E9F73197E01BF10B339780F086E090E065
:101CD0000E94CA4B6C01B8016D5F7F4F46E050E037
:101CE0000E94824EC6010E94770497C00E9464043D
:101CF000D5CF42E050E069EA73E0C8010E94A64EE9
:101D0000892B19F40E94B209C9CF44E050E061ED7B
:101D10007AE0C8010E94A64E892BE1F4F8010190F7
:101D20000020E9F73197E01BF10B359780F08CE04C
:101D300090E00E94CA4B6C01B8016B5F7F4F4CE092
:101D400050E00E94824EC6010E94070566C00E94B4
:101D50004205A4CF85E7D81203C00E94AB049ECFF2
:101D600044E050E066ED7AE0C8010E94A64E892B5F
:101D700039F5F80101900020E9F73197E01BF10BEC
:101D8000E430F10539F40E94BA059F938F938BEDEF
:101D90009AE0D6C03597399770F489E090E00E94B8
:101DA000CA4B6C01B8016B5F7F4F49E050E00E9465
:101DB000824E60E02FC01F930F9385EE9AE0C0C063
:101DC00044E050E066E17BE0C8010E94A64E892B0A
:101DD00069F5F80101900020E9F73197E01BF10B5C
:101DE000E430F10539F40E947C059F938F938BE1D9
:101DF0009BE0A6C035973997A0F489E090E00E9457
:101E0000CA4B6C01B8016B5F7F4F49E050E00E9404
:101E1000824E61E0C6010E941F07C6010E94624C0B
:101E20003DCF1F930F9385E29BE08AC047E050E0CF
:101E300066E57BE0C8010E94A64E892B71F5F8018A
:101E400001900020E9F7CF0108978017910719F456
:101E50000E94780823CF82E390E00E94CA4B6C0175
:101E6000B801685F7F4F42E350E00E94824E44E039
:101E700050E06EE57BE0C6010E94A64E892B29F456
:101E80000E94E2070E947808C8CFF601808188236B
:101E900021F2C6010E94D608C0CF45E050E063E6BB
:101EA0007BE0C8010E94A64E892B09F045C0F801CD
:101EB00001900020E9F7CF01069780179107D9F428
:101EC0000E9463039F938F9389E69BE09F938F9378
:101ED0000E942A4F82E00E94A1099F938F9383E77B
:101EE0009BE09F938F930E942A4F0FB6F894DEBF1A
:101EF0000FBECDBFD3CE84E190E00E94CA4B6C01EF
:101F0000B8016A5F7F4F43E150E00E94824EF601C4
:101F10008081882321F0C6010E94990D7ECFDF9237
:101F2000CF928DE79BE09F938F930E942A4F0F9053
:101F30000F900F900F9071CF1F930F938CE99AE041
:101F40009F938F930E942A4F0F900F900F900F90A6
:101F5000A5CE0F900F90DF91CF911F910F91FF9021
:101F6000EF90DF90CF900895E6E4F1E0908120813A
:101F700080813081492F407C932F9295969596953C
:101F80009370940F269526952073920F82958C70EE
:101F9000890F0895CF93C82F8DE29CE09F938F9374
:101FA0000E942A4F0F900F90C0FF04C08AE39CE06C
:101FB0000E946C4FC1FF04C089E49CE00E946C4FFA
:101FC000C2FF04C088E59CE00E946C4FC3FF04C0C0
:101FD00087E69CE00E946C4FC4FF05C086E79CE04A
:101FE000CF910C946C4FCF9108958F929F92AF92A6
:101FF000BF92CF92DF92EF92FF920F931F93CF93F6
:10200000DF93CDB7DEB72A970FB6F894DEBF0FBEC9
:10201000CDBF0E947E2A0E948D2A0E94C11346E0F5
:1020200069E180E00E94202A80E00E94752A0E94D7
:10203000E62860EA76E881E090E00E947312E9E821
:10204000F0E222E432E4318320833A968DB79EB7E2
:102050000A97E817F907B8F38DE894E09F938F93F8
:102060000E943E4F8EB30E94CA0F0E940C340E9401
:1020700059310E944E3360E070E081EA92E00E94A4
:10208000DF330E94FC300E94273563E075E380E077
:102090000E94672AE091CC0DF091CD0D19950E9418
:1020A000B40F90E00E949A2A81E89CE09F938F935E
:1020B0000E942A4F0E947D1380939A1F90939B1F2A
:1020C0000F900F900F900F9080FF19C061E0CE012C
:1020D00001960E947213CE0101960E9400398A81F6
:1020E000082E000C990B982F88272885820F911DA8
:1020F00027FD9A959093931F8093921F17C087E8AE
:102100009CE00E946C4F8CEF898382EC8A838DE384
:102110008B831C821D821E828091921F9091931F3F
:102120009F838887CE0101960E9400390E94481241
:102130008C010E944412AE01475F5F4FB8010E94BC
:10214000172D0E94B6110E94992C0E944C120E94D9
:102150005D2E80E894E09F938F930E943E4F8A818A
:10216000898788858A871F928F930CE714E01F93D5
:102170000F930E943E4F89851F928F931F930F9359
:102180000E943E4F8AE794E09F938F930E943E4FB8
:102190000E94AB37E091440EF091450E1995E09105
:1021A0002E0EF0912F0E1995E091200EF091210E38
:1021B00019950E945F2E882E0091500E1091510E9D
:1021C000F80119950FB6F894DEBF0FBECDBF892B6D
:1021D00051F0F8011995BC0180E890E00E94724B23
:1021E000162F072F02C010E800E00E94962C982EB0
:1021F000B0901E0EA0901F0ED090420EC090430EC5
:10220000F0902C0EE0902D0E0E944D2B1F928F927D
:102210000F931F931F929F92AF92BF92CF92DF9224
:10222000EF92FF929F938F9386E294E09F938F9318
:102230000E943E4F85E194E09F938F930E943E4F12
:1022400081E29CE00E944A318DE094E09F938F935D
:102250000E943E4F88EE93E09093911F8093901FD1
:1022600084E00E94B7130FB6F894DEBF0FBECDBF57
:102270002A960FB6F894DEBF0FBECDBFDF91CF9187
:102280001F910F91FF90EF90DF90CF90BF90AF9094
:102290009F908F9008950E94F50FC0EFD3E00E94A9
:1022A0005E330E94982A8091901F9091911F009711
:1022B00051F001979093911F8093901F892B19F4EF
:1022C00084E00E94BC138091941F9091951F009709
:1022D00051F001979093951F8093941F892B19F4C7
:1022E00082E00E94BC1384E00E94BC1382E00E9442
:1022F000BC130E9414290091961F1091971F2091E2
:10230000981F3091991F601771078207930739F260
:102310000E9414296093961F7093971F8093981FB3
:102320009093991FDC01CB019370AA27BB270397D9
:10233000A105B10509F0B3CFE9E8F0E28081918110
:102340008234924469F0E958F042FF93EF93DF93AF
:10235000CF930E943E4F0F900F900F900F909FCF02
:102360003A96E53F81E8F80748F399CFEF92FF925C
:102370000F931F93CF93DF93CDB7DEB7A0970FB620
:10238000F894DEBF0FBECDBF8DE590E00E945250A5
:10239000182F282F35EF380F303108F0982F9095EF
:1023A000291709F463C087EC94E09F938F930E94F0
:1023B0003E4FECE0F5E08E010F5F1F4FCE01099616
:1023C0000F900F90D801780124912D933196A81782
:1023D000B907D1F7F89448E050E069E770E0C80128
:1023E0000E948050EEEFF4E0CE010F96D8012491C8
:1023F0002D933196A817B907D1F74EE050E06BE660
:1024000070E0C8010E948050E4EFF4E0CE010B962A
:102410002491D8012D938D013196A817B907C1F7E2
:102420004AE050E061E670E0C7010E9480506DEC28
:102430007BEA8BE590E00E94985060E070E089E5CF
:1024400090E00E94985060E088E590E00E948A50F9
:1024500060E070E08FE590E00E9498501AE16AE138
:1024600075EE8DE590E00E9498507894812FA096AB
:102470000FB6F894DEBF0FBECDBFDF91CF911F9195
:102480000F91FF90EF9008958BE590E00C945250DF
:1024900089E590E00C94525088E590E00C944A5005
:1024A0002FE130E08BE59EE041E951E020935101BE
:1024B000FA013197F1F76091510165FD0DC02031AE
:1024C000310521F02CF08B54910903C084EC99E084
:1024D000C29721503109EACF089580E090E0089535
:1024E00081E090E008959B01AC011092B90060E09A
:1024F00074E284EF90E00E94864BDA01C9014097B4
:10250000A109B109B695A795979587958093B800CD
:10251000089594EA9093BC0040EA56E861E070E0C8
:102520009091BC0097FD07C04150510961097109A4
:10253000B9F781E008959091B900987F983011F033
:102540009031B9F78093BB0084E88093BC0080EAA7
:1025500096E8A1E0B0E02091BC0027FD05C00197FE
:10256000A109B109C1F7E5CF8091B900887F883111
:1025700011F08034F1F680E0089524EA34E844E96B
:102580002093BC009091BC0097FFFCCF9091B900C4
:10259000987F983011F0903199F78093BB00309379
:1025A000BC009091BC0097FFFCCF9091B900987F40
:1025B000903211F0983539F44093BC009091BC00F2
:1025C00094FDFCCFDDCF089584E98093BC00809119
:1025D000BC0084FDFCCF08958093BB0084E8809309
:1025E000BC008091BC0087FFFCCF9091B900987F20
:1025F00081E0983209F480E00895CF93C82F8CEEE3
:102600000E948912811103C08C2F0E94EC12CF917D
:102610000C94E4128093BB0084E88093BC0080910A
:10262000BC0087FFFCCF0895CF93DF93D62FC42F34
:102630000E9489128D2F0E940A138C2F0E940A1368
:10264000DF91CF910C94E41284EC8093BC008091D4
:10265000BC0087FFFCCF8091BB00089584E8809385
:10266000BC008091BC0087FFFCCF8091BB00089527
:10267000CF92DF92EF92FF920F931F93CF93DF934E
:10268000C82FD62FF42E152F022F0E9489128D2FBE
:102690000E940A138C2F81600E948912CF2DD12FA6
:1026A00010E0E12CF12C680181E0C81AD108E01695
:1026B000F10671F0CE14DF0419F40E942E1302C04B
:1026C0000E94241388838FEFE81AF80A2196EFCF2F
:1026D000DF91CF911F910F91FF90EF90DF90CF90FE
:1026E0000C94E412AC01662319F028E068E902C0FA
:1026F00020E160E880EB0C943813CF93DF930E94C5
:10270000982A80EB0E948912811105C00E94E41270
:10271000C1E0D0E002C0C0E0D0E00E94982A80E88A
:102720000E948912811103C00E94E412C2608CEEE3
:102730000E948912811103C00E94E412C8600E94A5
:10274000982A82ED0E948912811103C00E94E4122E
:10275000C4600E94982A80ED0E948912811103C0F2
:102760000E94E412C061CE01DF91CF91089581FDF6
:10277000739882FD7498089581FD739A82FD749A0E
:1027800008956C9A6B9A87E00C94BC1380917B003F
:10279000886080937B0089EC80937C0085E0809347
:1027A0007A0080917A00806880937A0080917B0023
:1027B00087FFFCCF80917B0085FFFCCF80917A0062
:1027C000806480937A0080917A0086FDFCCF8091AE
:1027D0007A00806480937A0080917A0086FDFCCF35
:1027E000609178007091790080917A008F77809362
:1027F0007A0080E090E00E946B4A27ED33EA40E9DE
:102800005FE30E94F94A26E636E648E853E40E9470
:10281000564920E030E040E251E40E94F94A0E942B
:10282000354ACB01089580E090E0089581E090E082
:10283000089580937C0080917B00877F80937B004C
:1028400080917C00806C80937C0085E080937A008E
:1028500080917A00806880937A0080917B0087FF66
:10286000FCCF80917B0085FFFCCF80917A00806453
:1028700080937A0080917A0086FDFCCF10927900D7
:102880001092780024E030E080E090E040917A00FF
:10289000406440937A0040917A0046FDFCCF40911D
:1028A000780050917900840F951F2150310971F7FC
:1028B00010927C0020917A002F7720937A009695D1
:1028C000879596958795089580E00E941914BC011C
:1028D00080E090E00E946B4A27ED34E34FEE5CE32A
:1028E0000E94F94A21EE3AE744E95EE30E94574923
:1028F000089581E00E941914BC0180E090E00E94DC
:102900006B4A22E23FEF4CEC5BE30E94F94A0895E8
:1029100082E00E941914BC0180E090E00E946B4AA2
:1029200022E23FEF4CEC5BE30E94F94A089581E01C
:1029300090E008955F98579A80EE91E00E942E29CA
:10294000579880E490E00E942E294F9909C08CE2AC
:1029500091E00E942E2989B1881F8827881F089539
:1029600080E008950E949A1480E090E00895CF934B
:10297000C82F579A5F9882E090E00E942E29CC23BE
:1029800011F057985F9A8CE390E00E942E295F9A8D
:10299000579882E090E0CF910C942E29CF93579ACC
:1029A0005F9882E090E00E942E2957985F9A8CE011
:1029B00090E00E942E29C9B182E390E00E942E2966
:1029C0005F9A579882E090E00E942E298C2F881FF2
:1029D0008827881FCF9108951F93CF93DF93C0E07E
:1029E000D0E010E00E94CE140C2E01C0880F0A9493
:1029F000EAF7180F2196C830D105A1F7812FDF9192
:102A0000CF911F9108950F931F93CF93DF93C0E051
:102A1000D0E0082F10E0C8010C2E02C095958795D4
:102A20000A94E2F781700E94B7142196C830D1054C
:102A300091F7DF91CF911F910F910895382FFC01ED
:102A400080E04CE89E2F931B961770F49191892794
:102A500098E0282F269580FF03C0822F842701C08D
:102A6000822F9150B1F7EECF0895AF92BF92CF92DF
:102A7000DF92EF92FF920F931F93CF93DF93CDB727
:102A8000DEB729970FB6F894DEBF0FBECDBF7C012D
:102A90000E949A14882309F448C08CEC0E94031504
:102AA00084E40E940315579801E510E04F9908C08F
:102AB0008AE090E00E94372901501109B9F734C02B
:102AC0000E949A148CEC0E9403158EEB0E94031551
:102AD0008E010F5F1F4F5E018AE0A80EB11C6801D6
:102AE0000E94EC14F80181938F01EA15FB05C1F7F0
:102AF00068E0C6010E941E159985891315C0698179
:102B00007A81072E000C880B990B0E946D4A20E0F9
:102B100030E040E85DE30E94F94AF7016083718389
:102B20008283938381E001C080E029960FB6F894F8
:102B3000DEBF0FBECDBFDF91CF911F910F91FF90F0
:102B4000EF90DF90CF90BF90AF900895CF93DF9339
:102B500000D01F92CDB7DEB7CE0101960E94351589
:102B6000882371F020E030E048EC52E469817A81FA
:102B70008B819C810E94F94A0E94354ACB0102C098
:102B800080E090E80F900F900F900F90DF91CF9121
:102B9000089580E090E0089560EA76E881E090E0B2
:102BA0000E94731282ED0E94891282ED0E940A1324
:102BB00087E00E940A1380E00E940A130C94E4123A
:102BC000982F92959F708F702AE0929F800D11240C
:102BD00008956AE00E94664B20E1829F900D1124C7
:102BE000892F08950E94E915482F60E082ED0C942A
:102BF00014130E94E915482F61E082ED0C94141320
:102C00000E94E915482F62E082ED0C9414130E9493
:102C1000E915482F64E082ED0C9414130E94E91525
:102C2000482F65E082ED0C9414130E94E915482F9B
:102C300066E082ED0C9414139C01862F223031053E
:102C4000B9F04CF42115310581F021303105C1F482
:102C50000E94F91515C02430310581F064F025304B
:102C6000310571F40E9415160BC00E94F21508C0C0
:102C70000E94001605C00E94071602C00E940E1690
:102C800080E090E00895CF93DF931F92CDB7DEB739
:102C900021E0AE014F5F5F4F60E082ED0E9438138C
:102CA00089810F90DF91CF910C94E015CF93DF9342
:102CB0001F92CDB7DEB721E0AE014F5F5F4F61E0FD
:102CC00082ED0E94381389810F90DF91CF910C948F
:102CD000E015CF93DF931F92CDB7DEB721E0AE01B1
:102CE0004F5F5F4F62E082ED0E94381389810F9041
:102CF000DF91CF910C94E015CF93DF931F92CDB766
:102D0000DEB721E0AE014F5F5F4F64E082ED0E94CD
:102D1000381389810F90DF91CF910C94E015CF93F8
:102D2000DF931F92CDB7DEB721E0AE014F5F5F4F5B
:102D300065E082ED0E94381389810F90DF91CF9179
:102D40000C94E015CF93DF931F92CDB7DEB721E04F
:102D5000AE014F5F5F4F66E082ED0E9438138981BC
:102D60000E94E01590E08053984F0F90DF91CF9133
:102D7000089588309105A1F044F48630910569F0FA
:102D80000797C1F40E94561613C08A30910571F05E
:102D900054F00B9779F40C94A2160E94431608C0C5
:102DA0000E94691605C00E947C1602C00E948F1600
:102DB00090E0089580E090E00895CF93DF93DB01E9
:102DC000FC019A012230310538F0CD91DD91C1939B
:102DD000D19322503109F6CF9A012E7FFC01E20FE8
:102DE000F31FDB01A20FB31F4217530711F02C9101
:102DF0002083DF91CF9108950097D1F0DC01ED9110
:102E0000FC9111973097A1F02081222389F026812F
:102E1000378112968D919C9113972817390741F4A9
:102E200081810E94CE3A80FD06C080E090E0089546
:102E300089E090E0089583E090E008950F93CF93A8
:102E4000DF93EC019A01AB01BC016E5C7F4F01E0A6
:102E500089810E94843B892B11F5FE01E05DFD4FC5
:102E60008081918185359A4AE1F4E85CF140808166
:102E70009181A281B381BB2786349144A445B105D9
:102E800091F0CC57DF4F488159816A817B81772748
:102E900081E0463451446445710531F404C083E057
:102EA00003C082E001C080E0DF91CF910F910895CF
:102EB0002F923F924F925F926F927F928F929F924A
:102EC000AF92BF92CF92DF92EF92FF920F931F9338
:102ED000CF93DF93CDB7DEB72E970FB6F894DEBF52
:102EE0000FBECDBFDC01ED91FC9111972081022E28
:102EF000000C330B205331092A30310538F451814D
:102F00005A3321F43296ED93FC9302C020E030E076
:102F1000FB0111821082232B09F029C22091C20EDD
:102F20003091C30E3E872D872115310509F422C249
:102F3000142F31832083D9018C91882371F011964D
:102F40008C910E94CE3A80FD08C0112309F415C26D
:102F500082FF13C28AE090E032C2ED85FE851082C6
:102F6000118280E00E94D53A80FD0AC2112311F03F
:102F700082FDF0CF40E050E0BA018D859E850E9431
:102F80001E178130C9F4ED85FE85EC50FE4F80811F
:102F9000811103C08DE090E012C2ED85FE85E850FE
:102FA000FE4F4080518062807380B301A2018D8505
:102FB0009E850E941E1703C0412C512C3201833084
:102FC00009F4E1C18111E6CFAD85BE85DD968D9115
:102FD0009C91DE9781159240E9F6ED85FE85E85BD0
:102FE000FF4F80809180A12CB12C81149104A10409
:102FF000B10441F4ED85FE85EA5AFF4F808091804F
:10300000A280B380ED85FE85828E938EA48EB58ED0
:10301000EE5BFF4FA081ED85FE85A3838FEF8A0FC6
:10302000823008F0B7CF17AD1283112309F4B2CF65
:10303000812F90E09C012150310982239323892B19
:1030400009F0A8CFED5BFF4F20803180ED85FE8534
:1030500031862086C1018F709927892B09F09ACF7C
:10306000EB5BFF4FC080D180E12CF12CC114D10467
:10307000E104F10441F4ED85FE85EE5AFF4FC08076
:10308000D180E280F380ED85FE85E05CFF4F01900A
:10309000F081E02D309709F47DCFB0E0A5019401D7
:1030A0000E94B04B6D837E838F8398879F0140E0A1
:1030B00050E029873A874B875C87C10164E0969589
:1030C00087956A95E1F7280F391F411D511DDA01D7
:1030D000C9012D813E814F815885280F391F4A1F14
:1030E0005B1F29833A834B835C83C216D306E406B5
:1030F000F50608F44FCFC701B601621B730B840BB2
:10310000950B212F30E040E050E00E94864B2115C6
:1031100031054105510509F43DCF69017A0182E08D
:10312000C80ED11CE11CF11C89859A85AB85BC8534
:10313000840D951DA61DB71D89879A87AB87BC870F
:1031400089819A81AB81BC81840D951DA61DB71D17
:1031500089839A83AB83BC83263F9FE0390741056F
:103160005105C0F1263F3F4F4105510508F40EC1FE
:10317000ED85FE85C68AD78AE08EF18E468E578E03
:1031800060A271A229853A854B855C8522A333A371
:1031900044A355A329813A814B815C8122A733A79F
:1031A00044A755A7232809F0F5CEE25AFF4F8081A6
:1031B0009181A281B381ED85FE8586A397A3A0A707
:1031C000B1A742E0CC0CDD1CEE1CFF1C4A95D1F7E8
:1031D00013E03EC011E0AD85BE855696CD92DD92DE
:1031E000ED92FC925997FD01468E578E60A271A216
:1031F00029853A854B855C8592962D933D934D9319
:103200005C93959729813A814B815C819A962D93A5
:103210003D934D935C939D97232809F4BBCE8985FC
:103220009A85AB85BC852D813E814F815885820F63
:10323000931FA41FB51FED85FE8586A397A3A0A7A6
:10324000B1A7123009F0A4C0CC0CDD1CEE1CFF1C91
:103250002FEFC20E21E0D21EE11CF11C89E0F69492
:10326000E794D794C7948A95D1F78C149D04AE0443
:10327000BF0408F48FCE8FEF9FEFDC01ED85FE8554
:1032800086879787A08BB18BDF0112861386148601
:103290001586133009F054C01582EE59FF4F808116
:1032A0009181A3019201280F391F411D511DFD017C
:1032B000228B338B448B558B01E0BD016E5C7F4FBD
:1032C00081810E94843B892BD9F5ED85FE85E05DE7
:1032D000FD4F8081918185359A4A91F5ED85FE8576
:1032E00082A993A9A4A9B5A982359245A146B14462
:1032F00039F5ED85FE85EA5EFD4F80819181A281E1
:10330000B38182379247A144B146D1F4ED85FE8561
:10331000E25EFD4F80819181A281B381ED85FE85C2
:1033200082879387A487B587E65EFD4F8081918170
:10333000A281B381ED85FE8586879787A08BB18BAF
:10334000AD85BE851C938091C00E9091C10E0196F3
:103350009093C10E8093C00E17969C938E931697F0
:10336000FD0116A617A610AA11AA148206C08BE0AA
:1033700090E025C08CE090E022C080E090E01FC08B
:1033800083E090E01CC081E090E019C012E023CF00
:10339000A3E0B0E0A70196010E94B04BDC01CB0195
:1033A000B695A79597958795F1E0CF22DD24EE2479
:1033B000FF24C80ED91EEA1EFB1E11E049CF2E962F
:1033C0000FB6F894DEBF0FBECDBFDF91CF911F9136
:1033D0000F91FF90EF90DF90CF90BF90AF909F90B4
:1033E0008F907F906F905F904F903F902F900895B7
:1033F0008F929F92AF92BF92CF92DF92EF92FF9205
:103400000F93CF93DF93EC01CEA4DFA4E8A8F9A833
:103410004C0182E3880E911C01E0A7019601B401E2
:1034200089810E94D03B892B99F51C824AA15BA11E
:103430006CA17DA1C416D506E606F70618F480E057
:1034400090E028C08A8D9B8DAC8DBD8D840F951F1B
:10345000A61FB71FC816D906EA06FB0680F7AB8081
:10346000B12C82E0A816B10450F38A8D9B8DAC8DEF
:10347000BD8DC80ED91EEA1EFB1E01E0A7019601F4
:10348000B40189810E94D03B81E0A81AB108E9CF3C
:1034900081E090E0DF91CF910F91FF90EF90DF906E
:1034A000CF90BF90AF909F908F900895FC012481A2
:1034B00021110C94F81980E090E00895AF92BF922A
:1034C000CF92DF92EF92FF920F93CF93DF93FC01A5
:1034D000C6A4D7A4E0A8F1A8C416D506E606F70648
:1034E000E1F06A017B01EC010E94561A5C01892B14
:1034F00021F0AA24A394B12C12C001E0A7019601E7
:10350000BE016E5C7F4F89810E94843B892B89F7C5
:10351000CEA6DFA6E8AAF9AA02C0A12CB12CC5014B
:10352000DF91CF910F91FF90EF90DF90CF90BF9000
:10353000AF9008950F93CF93DF93EC010E94561A3A
:10354000009709F058C08881833009F047C08D8109
:10355000882309F443C01EA61FA618AA19AABE01F3
:103560006E5C7F4FFB01CE018E5C9D4FE817F90723
:1035700011F01192FBCF85E59AEAFE01E05DFD4F67
:103580009183808382E592E5A1E6B1E48AAB9BABAF
:10359000ACABBDAB82E792E7A1E4B1E67A9780835A
:1035A0009183A283B3838E859F85A889B989349638
:1035B00080839183A283B3838A859B85AC85BD85F7
:1035C000349680839183A283B3832A893B894C8973
:1035D0005D8901E089810E94D03B1D8240E050E07E
:1035E00060E089810E94313C31E020E0892B09F4C0
:1035F00030E0832F922FDF91CF910F9108950F9399
:103600001F93FC019A01AB01225031094109510974
:1036100086899789A08DB18D0297A109B1092817D4
:1036200039074A075B0768F4A281B0E00E94B04BFB
:1036300002A513A524A535A5600F711F821F931F36
:1036400003C060E070E0CB011F910F910895AF922D
:10365000BF92CF92DF92EF92FF920F931F93CF937F
:10366000DF93423051056105710508F4ACC0FC01DF
:1036700006891789208D318D40175107620773071E
:1036800008F0A1C06A017B01EC018081823009F45D
:103690004AC0833009F46BC0813009F099C05A01E7
:1036A000B694A794AC0CBD1CC501892F99278695AB
:1036B0004AA15BA16CA17DA1480F591F611D711D1D
:1036C000CE010E945E1A892B09F082C0F501F170CB
:1036D000EC0FFD1F12A9FFEFAF1ABF0AC501892F1A
:1036E000992786954AA15BA16CA17DA1480F591F1E
:1036F000611D711DCE010E945E1A892B09F068C000
:10370000C5019170FE01E80FF91F82A9612F70E0D9
:10371000782BC0FE06C054E0769567955A95E1F780
:1037200023C07F7021C077276F2D5E2D4D2D82A184
:1037300093A1A4A1B5A1480F591F6A1F7B1FCF01F8
:103740000E945E1A892B09F043C0CC0CDD1CEE1CD4
:10375000FF1CE894C0F881E0D822EE24FF24FE018B
:10376000EC0DFD1D62A973A980E090E034C082A138
:1037700093A1A4A1B5A127E07695679557954795A4
:103780002A95D1F7480F591F6A1F7B1FCF010E944E
:103790005E1A892BE9F482E0CC0CDD1CEE1CFF1CC8
:1037A0008A95D1F7ECEFCE22E1E0DE22EE24FF2471
:1037B000FE01EC0DFD1D82A993A9A4A9B5A9BC0128
:1037C000CD019F7008C061E070E080E090E003C030
:1037D0006FEF7FEFCB01DF91CF911F910F91FF90A2
:1037E000EF90DF90CF90BF90AF900895EF92FF924F
:1037F0000F931F93CF93DF938C01EB01DC011596A0
:103800007C936E93149716964D915D916D917C917A
:103810001997413051056105710519F482E090E076
:1038200089C0DC01ED91FC9186899789A08DB18DCD
:10383000481759076A077B0788F741155105610545
:10384000710519F58081833049F446A157A160A51F
:1038500071A54115510561057105B9F4D8011A9694
:103860001D921D921D921C921D9780859185C817EF
:10387000D907A0F686A197A1A0A5B1A59E0154E005
:10388000369527955A95E1F739C0E280F0E1EF9E31
:1038900070011124F80180819181CE15DF0500F1BE
:1038A0000E94271BAB01BC014F3F8FEF58076807F1
:1038B0007807F1F1423051056105710508F4AECF8A
:1038C000D801ED91FC9186899789A08DB18D48171B
:1038D00059076A077B0708F0A1CFCE19DF09DACFB5
:1038E00042875387648775870E94FF1A9E0144E0D0
:1038F000369527954A95E1F7DC01CB01820F931F9E
:10390000A11DB11DF80186879787A08BB18B80819F
:103910009181C296CF70DD2725E0CC0FDD1F2A955F
:10392000E1F7C80FD91FD38BC28B80E090E002C0B3
:1039300081E090E0DF91CF911F910F91FF90EF9088
:1039400008954F925F926F927F92AF92BF92CF9203
:10395000DF92EF92FF920F931F93CF93DF9300D0EC
:1039600000D0CDB7DEB7423051056105710508F4CE
:10397000F4C0DC015696CD90DD90ED90FC90599707
:103980004C155D056E057F0508F0E7C0280139017B
:103990006A017B019E838D83FC018081823009F462
:1039A00071C0833009F496C0813009F0CEC05A014D
:1039B000B694A794A40EB51EC501892F99278695A4
:1039C00042A153A164A175A1480F591F611D711D2A
:1039D000CF010E945E1A009709F0B9C0F501F1709D
:1039E0002D813E81E20FF31FD701C6018170992717
:1039F000AA27BB2789839A83AB83BC83C0FE09C0F7
:103A000082A9282F2F70A0E14A9EC0011124822B89
:103A100001C0842D82ABBFEFAB1ABB0A81E0ED8100
:103A2000FE818483C501892F9927869542A153A1E0
:103A300064A175A1480F591F611D711DCF010E941E
:103A40005E1A009709F083C0F1E0BF22ED81FE818C
:103A5000EA0DFB1D29813A814B815C81232B242BAC
:103A6000252B41F064E076946794579447946A95C7
:103A7000D1F706C002A9007F252D2F70402E422AC3
:103A800042AA65C077276F2D5E2D4D2DED81FE81F9
:103A900082A193A1A4A1B5A1480F591F6A1F7B1F42
:103AA000CF010E945E1A009709F051C0CC0CDD1CBA
:103AB000EE1CFF1CE894C0F8F1E0DF22EE24FF24A6
:103AC00022E3C20ED11CED81FE81EC0DFD1D518261
:103AD00040823DC0ED81FE8182A193A1A4A1B5A148
:103AE00037E076956795579547953A95D1F7480F02
:103AF000591F6A1F7B1FCF010E945E1A009739F57C
:103B000022E0CC0CDD1CEE1CFF1C2A95D1F7FCEF4B
:103B1000CF22F1E0DF22EE24FF2422E3C20ED11CEB
:103B2000ED81FE81EC0DFD1D00811181228133812B
:103B3000002711272227307F402A512A622A732A20
:103B4000408251826282738202C082E090E021E072
:103B5000AD81BE8114962C9302C082E090E026963F
:103B60000FB6F894DEBF0FBECDBFDF91CF911F918E
:103B70000F91FF90EF90DF90CF90BF90AF907F902C
:103B80006F905F904F9008954F925F926F927F92E7
:103B90008F929F92AF92BF92CF92DF92EF92FF925D
:103BA0000F931F93CF93DF93EC012A013B01411543
:103BB00051056105710599F48A849B84AC84BD84A8
:103BC00081149104A104B10409F18E899F89A88D03
:103BD000B98D88169906AA06BB06E0F017C00E94A8
:103BE000271B6B017C01623071058105910508F48A
:103BF00082C08E899F89A88DB98DC816D906EA061C
:103C0000FB0608F47DC05301420104C0812C912CB5
:103C100054018394750164018FEFC81AD80AE80A29
:103C2000F80A8E899F89A88DB98DC816D906EA062B
:103C3000FB0668F022E082169104A104B10410F49E
:103C400060E05AC082E0C82ED12CE12CF12CB701E3
:103C5000A601CE010E94271B611571058105910502
:103C6000B1F06F3F2FEF72078207920729F46FEFD1
:103C70007FEF8FEF9FEF46C06130710581059105A1
:103C8000D1F1C814D904EA04FB0431F6D9CF0FEFFF
:103C90001FEF2FEF3FE0B701A601CE010E94A11C4C
:103CA000009731F54114510461047104C1F4CA86CE
:103CB000DB86EC86FD868E859F85A889B9898F3F36
:103CC0002FEF9207A207B207D9F00197A109B10916
:103CD0008E879F87A88BB98B81E08D8311C0970158
:103CE0008601B301A201CE010E94A11C0097F9F246
:103CF000019709F4BCCF61E070E080E090E002C081
:103D0000B601C701DF91CF911F910F91FF90EF9006
:103D1000DF90CF90BF90AF909F908F907F906F90EB
:103D20005F904F9008958F929F92AF92BF92CF92E3
:103D3000DF92EF92FF920F931F93CF93DF93EC01EB
:103D40006B010C811D810F5F1F4F19F484E090E01F
:103D5000E1C04E855F856889798941155105610506
:103D60007105A1F378018FE0E822FF24E114F1044A
:103D700009F0BDC04F5F5F4F6F4F7F4F4E875F872A
:103D8000688B798B4A855B856C857D858881998177
:103D9000FC01411551056105710531F4808591855E
:103DA0000817190798F6A3C0228130E02150310985
:103DB000F801A4E0F695E795AA95E1F72E233F23B5
:103DC000232B09F094C00E94271B4B015C01623039
:103DD00071058105910518F482E090E09BC08FEF9A
:103DE00088169806A806B80619F481E090E092C0FB
:103DF00088819981FC0146895789608D718D84166F
:103E00009506A606B70608F464C0CD2809F49ECF2F
:103E10004A855B856C857D850E94C41D4B015C01D4
:103E2000611571058105910509F472C06130710554
:103E30008105910589F28FEF88169806A806B806C5
:103E4000A1F2888199810E94561A892B71F6888186
:103E50009981FC01F2968E5C9D4F8E179F0711F0A1
:103E60001192FBCFC880D980B501A401C6010E9480
:103E7000FF1AF60166A777A780AB91ABD12CCC24B3
:103E8000C394E881F9818281D816B8F4C48288810C
:103E900099810E94561A892B09F0A7CFE881F981F0
:103EA00086A597A5A0A9B1A90196A11DB11D86A7B8
:103EB00097A7A0ABB1ABD394E4CF86A597A5A0A953
:103EC000B1A98D199109A109B10986A797A7A0AB3E
:103ED000B1AB8A869B86AC86BD86B501A40188817C
:103EE00099810E94FF1A6E877F87888B998B1D832B
:103EF0000C8388819981C29625E0EE0CFF1C2A95DF
:103F0000E1F7E80EF91EFB8AEA8A80E090E002C041
:103F100087E090E0DF91CF911F910F91FF90EF909C
:103F2000DF90CF90BF90AF909F908F9008956F9249
:103F30007F928F929F92AF92BF92CF92DF92EF9239
:103F4000FF920F931F93CF93DF93EC017B01FB0153
:103F500080818F3211F08C3519F4FFEFEF1AFF0AD0
:103F60001E821F8218861986F7018081803228F010
:103F700050E2A52E65E0B62E66C060E070E0CE018E
:103F80000E94F61B1B8A1A8AF0C080E090E060E075
:103F900070E028E030E010E06F5F7F4FF301419167
:103FA0003F01042F413208F066C0E60EF71E413291
:103FB00008F488C040E0892B09F4B7C08C91853E95
:103FC00009F4BC922830310511F4110F110F812F23
:103FD0008370813009F44061812F8C70843009F442
:103FE00048601B964C9360E070E0CE010E94F61B87
:103FF000009709F469C0EC89FD892385009709F0D1
:104000008CC022FDB2C04A895B89FA01838584FF96
:1040100089C0828D938DA0E0B0E028813981F901BB
:104020002081233061F4FA014489558960E070E011
:10403000BA0155274427842B952BA62BB72B8E83AB
:104040009F83A887B98737017301D3018D918F3280
:1040500011F43D01F9CF8C35E1F3AC89BD89CD0177
:104060009D01255F3F4F8217930709F48ECFFC0116
:10407000A192CF01F8CF4F3209F497CF4C3509F414
:1040800094CF4E3209F467C08217930708F04DC0F1
:1040900047FF06C0136050E04158534FFA010081BA
:1040A000C02ED12C40EE842E4CE0942EF401419190
:1040B0004F014423E9F1042E000C550BC416D5061C
:1040C000A9F733C044E077CF4E855F856889798949
:1040D000888199810E945E1A009709F08CCFEA8945
:1040E000FB8920812223B1F0238523FD0DC0AC89FB
:1040F000BD89AF01455F5F4F4E175F0709F47BCF66
:1041000031912D913217C1F360E070E0CE010E9431
:10411000931E6ECF84E090E06ECF8430910529F538
:1041200022FD23C085E090E020C086E090E01DC025
:104130004FEB400F4A3110F4126006C04FE9400FB8
:104140004A3110F411600052AD01480F591FFA01B5
:104150000083019621CF2830310539F7110F110F57
:1041600088E090E02BE030E017CFDF91CF911F91F6
:104170000F91FF90EF90DF90CF90BF90AF909F9006
:104180008F907F906F900895CF93DF93EC014E85D1
:104190005F8568897989888199810E945E1A009774
:1041A00071F4EA89FB892081253E49F0222339F008
:1041B00061E070E0CE010E94931E009741F3DF9111
:1041C000CF9108950F931F93CF93DF93EC0160E09D
:1041D00070E00E94F61B8C01892B31F5CE010E9404
:1041E000C4208C01892B01F54E855F85688979890A
:1041F000888199810E945E1A8C01892BA9F4EA8931
:10420000FB89CF0180968E179F0711F01192FBCF8B
:104210006C897D894BE050E08A899B890E94DD167C
:10422000E881F98181E08483C801DF91CF911F91FA
:104230000F9108957F928F929F92AF92BF92CF92EB
:10424000DF92EF92FF920F931F93CF93DF93EC01D6
:104250006A017B01423051056105710518F482E065
:1042600090E04FC08E899F89A88DB98D4817590756
:104270006A077B07A0F7772473948E899F89A88D9E
:10428000B98DC816D906EA06FB0658F4B701A6018F
:10429000CE010E94271B4B015C01672B682B692B09
:1042A00019F480E090E02DC081E088169104A1040B
:1042B000B104A9F22FEF82169206A206B206F9F017
:1042C00000E010E09801B701A601CE010E94A11CF8
:1042D0000097B9F48E859F85A889B9898F3F2FEF04
:1042E0009207A207B20741F00196A11DB11D8E876A
:1042F0009F87A88BB98B7D8275016401BECF81E059
:1043000090E0DF91CF911F910F91FF90EF90DF90A0
:10431000CF90BF90AF909F908F907F900895811124
:1043200013C0E091C20EF091C30E309709F01082D5
:104330006115710511F0FB0110827093C30E60933B
:10434000C20E80E090E008958BE090E008954F92D7
:104350005F926F927F928F929F92AF92BF92DF9205
:10436000EF92FF920F931F93CF93DF93CDB7DEB7FA
:10437000A4970FB6F894DEBF0FBECDBF7CA36BA38E
:10438000009709F4F6C0B42E7C01DC011D921C924A
:104390004E71BE016F5F7F4FCE0183960E9458170A
:1043A000009709F0F1C0CE0147969E8B8D8B6BA1D3
:1043B0007CA146970E94971F0B891C89009729F4BE
:1043C0000115110511F486E090E0BB2DBF71DB2EC5
:1043D0002B2D2C7109F471C0009789F08430910560
:1043E00009F0D2C0CE0101960E94E220009709F0A8
:1043F000CBC0ED2DE860DE2E0B891C8908C0D801EA
:104400001B968C91817109F0BDC0B2FCB5C0D3FE82
:1044100065C00E947003F80166877787808B918B57
:104420001386D801148E158E168E178EE981FA81A7
:104430005A968D909C905B97A12CB12C80818330F3
:1044400069F454964D915C91559760E070E0BA0123
:1044500055274427842A952AA62AB72AD8015B968D
:104460001C921E925A9755961C921E92549781E068
:10447000848381149104A104B10469F146A457A472
:1044800060A871A8B501A401CF010E941A2100976C
:1044900009F07AC089819A81B1E08B1A9108A1084C
:1044A000B108FC0182869386A486B586B301A20179
:1044B0000E945E1A009769F067C0009709F064C017
:1044C000D8011B968C9184FD5AC0B1FE02C080FDBC
:1044D00059C0D3FE03C0BD2DB062DB2EA980BA80C7
:1044E000F50146A557A560A971A9D7015A964D9324
:1044F0005D936D937C935D975F961C930E935E978F
:104500001496DC92F801828D938DA0E0B0E0F50165
:104510002081233061F4F8014489558960E070E01E
:10452000BA0155274427842B952BA62BB72BF701CF
:1045300086879787A08BB18BF801848D958DA68D8A
:10454000B78DF70182879387A487B5871682178274
:1045500010861186168A178A108E118EB182A0825B
:10456000D50116968D919C9117979383828380E055
:1045700001C089E090E008C088E090E005C084E0D8
:1045800090E002C087E090E0A4960FB6F894DEBFFA
:104590000FBECDBFDF91CF911F910F91FF90EF9094
:1045A000DF90BF90AF909F908F907F906F905F90C3
:1045B0004F9008952F923F924F925F926F927F9209
:1045C0008F929F92AF92BF92CF92DF92EF92FF9223
:1045D0000F931F93CF93DF93EC015B016A011901E5
:1045E000F901118210820E94FC16009709F063C144
:1045F0008C8187FD5CC181FF5CC18A859B85AC8510
:10460000BD85AC01BD014C0D5D1D611D711D4817BF
:1046100059076A077B0708F0B4C08E819F81A8857F
:10462000B9854A855B856C857D85481759076A077A
:104630007B0708F037C18A879B87AC87BD8732C16B
:104640004E815F8168857985DB01CA019170AA2757
:10465000BB27892B8A2B8B2B09F0F4C0E881F981C9
:10466000228121502A013B01A9E076946794579456
:104670004794AA95D1F7122F142109F487C0888195
:104680009981FC0146A457A460A871A84E895F894E
:10469000688D798D441655066606770609F4ACC018
:1046A000888099804A895B896C897D89C4010E94D0
:1046B000FF1A611571058105910509F4A3C02B014D
:1046C0003C01410E511C611C711C7601EF2CFF2432
:1046D000E694E114F10409F499C0F4018281212FD8
:1046E00030E0A9014E0D5F1D90E08417950718F486
:1046F0007C01E21AF30A0E2DA3019201B501F40127
:1047000081810E94D03B892B09F0B2C088819981B8
:10471000FC0146A557A560A971A944195509660968
:1047200077092701612C712C44155505660577051D
:1047300070F4542F4427550FB501640F751F40E0E6
:1047400052E0C2960E94DD16E881F9811482FE2CA7
:10475000EE24FF0CAE0CBF1C8E819F81A885B9850D
:104760008E0D9F1DA11DB11D8E839F83A887B987C4
:10477000F101808191818E0D9F1D91838083CE18E0
:10478000DF08C114D10409F05BCF47CF452B462B7E
:10479000472BA1F46E857F858889998961157105FC
:1047A00081059105C1F440E050E0BA01CF010E94BB
:1047B000C41D6E877F87888B998B07C04A895B8968
:1047C0006C897D89CF010E94C41D61157105810529
:1047D000910509F422CF613071058105910591F0B1
:1047E0006F3FFFEF7F078F079F0709F441C06A8B78
:1047F0007B8B8C8B9D8B43CF0E94561A892B09F49F
:104800004FCF36C08C8180688C8351C04E815F81D0
:10481000688579858A859B85AC85BD85481759074C
:104820006A077B0758F0C4010E94561A892B01F5CC
:10483000E881F98146A657A660AA71AA4E8A5F8AC6
:10484000688E798E8E819F81917020E032E0281BE6
:10485000390B76012C153D0508F479014E895F89E5
:10486000688D798D888199810E945E1A892B29F043
:104870008C8180688C8381E01DC08E819F81A8859A
:10488000B9859170AA27BB27C29628813981A701D3
:10489000B501820F931F0E94DD16E881F98131E096
:1048A000348358CF8C8180628C8380E003C082E0A7
:1048B00001C087E090E0DF91CF911F910F91FF90B1
:1048C000EF90DF90CF90BF90AF909F908F907F90B0
:1048D0006F905F904F903F902F9008950F931F938C
:1048E000CF93DF93EC010E94FC160097D9F52C8141
:1048F00025FF38C04A8D5B8D6C8D7D8D88819981B7
:104900000E945E1A009771F50E8D1F8DF801838548
:10491000806283878A859B85AC85BD85848F958FD2
:10492000A68FB78F8E859F85A889B989938F828F2F
:10493000B58BA48B0E947003F801668B778B808FF8
:10494000918F138A128A8C818F7D8C83E881F98103
:1049500081E0848388819981DF91CF911F910F91AC
:104960000C949A1ADF91CF911F910F910895CF93D4
:10497000DF93EC010E946E24009711F419821882D3
:10498000DF91CF9108954F925F926F927F928F92B5
:104990009F92AF92BF92CF92DF92EF92FF920F93CE
:1049A0001F93CF93DF9300D000D0CDB7DEB79E83A7
:1049B0008D836A017B010E94FC16009709F080C17B
:1049C000AD81BE8114962C91149727FD70C11A9663
:1049D0008D919D910D90BC91A02D8C159D05AE05DE
:1049E000BF0520F421FD02C06C017D01ED81FE8137
:1049F00046805780608471841682178210861186E3
:104A0000C114D104E104F10409F456C1ED81FE8121
:104A100000811181D80112968C90912CA12CB12C7F
:104A200039E0880C991CAA1CBB1C3A95D1F741149B
:104A300051046104710409F440C0B1E04B1A5108FB
:104A400061087108C701B6016150710981099109B6
:104A5000A50194010E94864B29833A834B835C8392
:104A6000C301B201A50194010E94864B89819A81FC
:104A7000AB81BC8182179307A407B507F0F08827A4
:104A80009927DC0188199909AA09BB0948225922EA
:104A90006A227B22AD81BE8116964D925D926D9207
:104AA0007C921997C418D508E608F70852964D91DC
:104AB0005D916D917C9155972EC0ED81FE8146856B
:104AC0005785608971894115510561057105E9F4C2
:104AD00040E050E0BA01C8010E94C41DAB01BC0116
:104AE000413051056105710509F49EC04F3FBFEF8C
:104AF0005B076B077B0709F462C0AD81BE811E9620
:104B00004D935D936D937C935197ED81FE81428B24
:104B1000538B648B758B411551056105710589F5C2
:104B2000C12CD12C760194C042305105610571052C
:104B300008F451C0AD81BE81ED91FC9186899789C1
:104B4000A08DB18D481759076A077B0708F043C04D
:104B5000AD81BE8152964D935D936D937C93559735
:104B6000FD0186819781A085B185880D991DAA1DBB
:104B7000BB1D86839783A087B187C818D908EA0828
:104B8000FB088C149D04AE04BF0468F5AD81BE81A2
:104B900014962C9114978D919C9121FF17C00E941F
:104BA000C41DAB01BC014115510561057105C9F07A
:104BB0004F3FBFEF5B076B077B0709F0B5CFED8178
:104BC000FE8184818068848381E074C00E94271BF9
:104BD000AB01BC01EDCFED81FE81848180688483CF
:104BE00066C075016401ED81FE8186819781A08593
:104BF000B1858C0D9D1DAE1DBF1D86839783A0873B
:104C0000B187D701C6019170AA27BB27892B8A2BB0
:104C10008B2B09F485CF808191810E94FF1A611549
:104C200071058105910549F4AD81BE8114968C9181
:104C30001497806814968C933AC029E0F694E79410
:104C4000D794C7942A95D1F7C60ED71EE81EF91E31
:104C5000ED81FE8186819781A085B185AC01BD0182
:104C6000517066277727452B462B472B69F04689DD
:104C70005789608D718DC416D506E606F70621F0BA
:104C8000C68AD78AE08EF18EED81FE8142855385FA
:104C900064857585481759076A077B0750F4828732
:104CA0009387A487B58784818062848302C082E071
:104CB00001C080E090E004C080E090E0DC01E4CF3F
:104CC00026960FB6F894DEBF0FBECDBFDF91CF9111
:104CD0001F910F91FF90EF90DF90CF90BF90AF901A
:104CE0009F908F907F906F905F904F90089580E09D
:104CF00090E0089580E090E008958EE10E94FD121A
:104D00008FED9EE20197F1F700C000000895CF9269
:104D1000DF92EF92FF92CF93C82F80E48C0F0E9416
:104D2000FD128C2F8F708430C1F04CF4882381F0F9
:104D30008230F1F48FED9EE20197F1F717C08630D3
:104D400089F08830A9F48FE39CE90197F1F70EC050
:104D50008FE09EE00197F1F709C08FE79EE301978E
:104D6000F1F704C08FEB9DE50197F1F700C000005B
:104D700080E00E94FD128DEE0E948912882351F07E
:104D80000E94E41281E080937A0260E070E080E0AB
:104D900090E022C00E9424138093C50EC82ED12C0F
:104DA000E12CF12C7601DD24CC240E94241390E028
:104DB000982F8827C80ED91EE11CF11C0E942E13C3
:104DC0008093C40EC80ED11CE11CF11C0E94E41299
:104DD00010927A02B601C701CF91FF90EF90DF9059
:104DE000CF900895CF93DF93880F80560E94FD12D5
:104DF0008DEE0E948912882329F00E94E412C0E0FF
:104E0000D0E00CC00E942413C82F0E942E13D0E0C3
:104E1000DC2FCC27C80FD11D0E94E412CE01DF91F8
:104E2000CF910895CF93DF93DC011C96CD91DC9157
:104E30001D97CE0188271D969C938E931C9740E06A
:104E400050E080E090E09C0135952795220F331FBC
:104E5000FD01E20FF31F80FF03C02081422704C041
:104E6000618170E04627572728E0FA01EE0FFF1F07
:104E700057FF04C0AF0130E3532701C0AF012150F9
:104E8000A1F7019680319105F1F61D96DC93CE9342
:104E90001C97852F82958F70DF91CF9108954F9247
:104EA0005F926F927F928F929F92AF92BF92CF92BA
:104EB000DF92EF92FF921F93CF93DF93CDB7DEB7D0
:104EC00060970FB6F894DEBF0FBECDBF0E947D265F
:104ED000CE0101967C0110E06C01812F0E94F22628
:104EE000F701819391937F011F5F1830B1F7C601DD
:104EF0000E94122788E10E9487264B015C0188E00E
:104F00000E9487266B017C01C501B4010E946B4A97
:104F10004B015C016B857C8580E090E00E946B4AD0
:104F200020E030E040E853E40E94F94A9B01AC01E4
:104F3000C501B4010E9456494B015C016F8178851F
:104F400080E090E00E946B4AA50194010E94F94A1A
:104F500020E030E040E05CE30E94F94A2B013C0194
:104F60006B817C8180E090E00E946B4A20E030E021
:104F700040E857E40E94F94A9B01AC01C301B20129
:104F80000E9457492B013C01C701B6010E946B4AA0
:104F90009B01AC01C301B2010E94F94A20E030E05C
:104FA00040E055E30E94F94A6B017C0169857A85EE
:104FB00080E090E00E946B4AA50194010E94F94AAA
:104FC00020E030E040E85CE30E94F94A4B015C01DC
:104FD0006D817E8180E090E00E946B4A20E030E0AD
:104FE00040E058E40E94F94A9B01AC01C501B401BC
:104FF0000E9457499B01AC01C701B6010E94564966
:1050000020E030E040E058E30E94F94A20E030E040
:1050100048EC52E40E94C34920E030E04AE754E4FF
:105020000E9456490E94354ACB0160960FB6F8940B
:10503000DEBF0FBECDBFDF91CF911F91FF90EF90EC
:10504000DF90CF90BF90AF909F908F907F906F90A8
:105050005F904F90089580E090E0089580E090E0A8
:105060000895CF93DF9301978330910528F4FC01D5
:10507000E057F24FC08102C0C0E1D0E080ED0E9455
:105080008912882341F00E94E41281E080937B0220
:1050900080E090E018C080ED0E94BD128C2F0E942D
:1050A0000A1381ED0E94BD120E942413C82F0E9492
:1050B0002E132C2F30E0322F222710927B02A901D1
:1050C000480F511DCA01DF91CF91089560E070E053
:1050D000CB01089580E090E008950F931F93CF9344
:1050E000DF938C01892B11F0C5EE01C0C3EE80E87F
:1050F0000E948912882341F081E080937D02809391
:105100007C020E94E41256C080E80E94BD128C2FDF
:105110000E940A1381E80E94BD120E942413C82F26
:10512000D0E00E942E1301151105D9F410927D02D2
:105130007C2F6627680F711D80E090E00E946B4A0B
:1051400020E030E040E857E30E94F94A22E538EBDE
:105150004FE253E40E94F94A26E636E64BE352E476
:105160001DC00130110531F510927C027C2F66279D
:10517000680F711D80E090E00E946B4A20E030E0F3
:1051800040E857E30E94F94A20E030E04AEF52E459
:105190000E94F94A20E030E040EC50E40E94564979
:1051A00020E030E040E251E40E94F94A0E943C4A8B
:1051B000CB0107C081E080937D0280937C0280E078
:1051C00090E0DF91CF911F910F910895F89480E2C4
:1051D0008093B6001092B2008FE18093B30082E01A
:1051E0008093B0008093B10097B397BB8093700019
:1051F000789408950F931F936091C70E7091C80E15
:105200008091C90E9091CA0E0091C70E1091C80EE0
:105210002091C90E3091CA0E60177107820793075B
:1052200059F71F910F9108950F931F936091A41F39
:105230007091A51F8091A61F9091A71F0091A41F98
:105240001091A51F2091A61F3091A71F601771070D
:105250008207930759F71F910F910895009731F036
:10526000880F991F880F991F0197F1F7089520EA79
:105270003FE0019720F0F9013197F1F7FACF089557
:105280001F920F920FB60F9211240BB60F922F930D
:105290003F934F935F936F937F938F939F93AF93BE
:1052A000BF93EF93FF938091C70E9091C80EA0918A
:1052B000C90EB091CA0E0196A11DB11D8093C70EF3
:1052C0009093C80EA093C90EB093CA0E8091C70EDA
:1052D0009091C80EA091C90EB091CA0E8F779927F0
:1052E000AA27BB27892B8A2B8B2B99F48091A41F8B
:1052F0009091A51FA091A61FB091A71F0196A11D77
:10530000B11D8093A41F9093A51FA093A61FB093D7
:10531000A71F80913F208823E1F08091C60E8F5F08
:105320008093C60E87FF15C01092C60E80919C1FF9
:1053300090919D1FA0919E1FB0919F1F0196A11D4E
:10534000B11D80939C1F90939D1FA0939E1FB093AF
:105350009F1F0E948232892B11F00E94B731FF916A
:10536000EF91BF91AF919F918F917F916F915F91DD
:105370004F913F912F910F900BBE0F900FBE0F904A
:105380001F9018951F920F920FB60F9211240BB613
:105390000F922F933F934F935F936F937F938F93CE
:1053A0009F93AF93BF93EF93FF938091C600E091DB
:1053B000AA1FF091AB1F309709F01995FF91EF915B
:1053C000BF91AF919F918F917F916F915F914F911D
:1053D0003F912F910F900BBE0F900FBE0F901F901B
:1053E00018951F920F920FB60F9211240BB60F92C1
:1053F0002F933F934F935F936F937F938F939F93DD
:10540000AF93BF93EF93FF938091CE00E091A81FDD
:10541000F091A91F309709F01995FF91EF91BF9175
:10542000AF919F918F917F916F915F914F913F913C
:105430002F910F900BBE0F900FBE0F901F901895DD
:1054400081110EC01092C5006093C40088E980935A
:10545000C1004093C2001092AB1F1092AA1F089582
:10546000813069F41092CD006093CC0088E980937C
:10547000C9004093CA001092A91F1092A81F089556
:10548000811107C08091C00085FFFCCF6093C600EA
:105490000895813031F48091C80085FFFCCF60937E
:1054A000CE000895CF93C82F8A3031F46DE08091FB
:1054B000CB0E0E94402A02C08D3029F06C2F8091C3
:1054C000CB0E0E94402A80E090E0CF910895811198
:1054D00005C07093AB1F6093AA1F0895813021F41B
:1054E0007093A91F6093A81F08958093CB0E8EE739
:1054F00092E09093862080938520089584B7877FDB
:1055000084BF0FB6F894A89580916000886180935D
:105510006000109260000FBE08959FE088E10FB612
:10552000F894A895809360000FBE90936000089552
:10553000A89508950C943A4D0C94364D81E090E076
:1055400008958091B11F90E008958091390181FF05
:1055500009C0809139018D7F8093390189E190E004
:105560000197F1F723E040E06FE182E491E00E94CF
:10557000A02F85E090E00197F1F70895909139010F
:1055800091FD0AC0282F803108F02FE040E06FE045
:1055900085E491E00C94A02F08950C9781F442309B
:1055A000510581F46115710569F080914E0F90915C
:1055B0004F0FFB019183808380E090E0089581E0AC
:1055C00090E0089582E090E008958091390181FF94
:1055D00002C081E0089540E06FE181E491E00E9423
:1055E000952F8F3121F08F7E8150823090F780E0AF
:1055F00008958091390181FD04C00E94E52A882325
:10560000C1F3089510923F208091390181FD0DC0B2
:105610000E94F92A8091390181FD07C00E94A52AC4
:1056200080913901826080933901089580913F20F3
:10563000882321F00E94E52A0E94022B80E090E05E
:1056400008958091390181FD09C040E06FE181E456
:1056500091E00E94952F8F7E813019F080E090E0DC
:10566000089581E090E0089522E0260F27FF0CC006
:1056700080913D2090913E20019690933E20809312
:105680003D208FEF9FEF0895AB01BC018CEC9EE0B5
:105690000E94604E80E090E0089580916301209127
:1056A000620190E0982F8827820F911D089540E0B5
:1056B0006FE181E491E00C94952FCF93DF9398EF05
:1056C000980F923038F0982F9F7E963019F08931DC
:1056D00009F050C09091390191FD4FC0C82F0E9430
:1056E000F92A0E94572BD82FC81709F440C0C83098
:1056F00029F4809139010E94A52A2CC0C93119F4DE
:10570000863181F404C0C63169F4893159F429E045
:1057100040E06FE182E491E00E94A02F85E090E0FC
:105720000197F1F72C2F40E06FE182E491E00E94B5
:10573000A02FD83059F420918C0240E06FEF86E51D
:1057400091E00E94A02F81ED92E002C085E090E000
:105750000197F1F70E94572BC81749F0C63019F48A
:10576000813071F404C0C63159F4813149F480E4C8
:1057700090E008C082E490E005C084E490E002C0BC
:1057800083E490E0DF91CF91089581E080933F2002
:105790009091390191FF14C080933A202FB77894EB
:1057A00080913901809139018D7F8093390180E1A9
:1057B00097E230913A20332311F00197D1F72FBFB0
:1057C00086E10E945D2B0C94F92A80913F20811183
:1057D00002C00E94C52B81E090E008950F931F93B3
:1057E000CF93DF931F92CDB7DEB780913F20882300
:1057F00061F08091390181FF02C080E033C00E94D6
:10580000E52A8823D1F300E003C00E94E52B01E0E4
:1058100080E88093550186E00E945D2B81E08093B3
:10582000B21F8FB789837894109247018091B21F7D
:105830008111FCCF89818FBF9091470181E09E301B
:1058400008F080E0182F119586E10E945D2B1092E0
:10585000550101110E94162B812F82958695869500
:105860008370817090E00F90DF91CF911F910F9125
:1058700008952FEF40E06FEF8EE491E00E94A02F9B
:1058800020E044E060EF8CE691E00E94A02F20E051
:1058900041E06EE08CE691E00E94A02F80E88093CA
:1058A0006F018091460180936D0121E045E060E247
:1058B00084E491E00C94A02FCF93DF93C9EFD7E05D
:1058C000CE010197F1F70E94942F1092B81F109209
:1058D000B71F1092B61FE9E3F1E080818E7F8083CD
:1058E00080818D7F808381E89BE10197F1F7808142
:1058F0008160808323E040E06FE182E491E00E94D8
:10590000A02F2197F1F780915D0180915E010E94A7
:10591000392C60E070E08DE892E00E94DF330E9455
:10592000C52B81E090E0DF91CF91089580914D0FDC
:105930000895CF93C82F0E94F92AC0934D0F2C2FA2
:1059400040E06FE188E491E0CF910C94A02FCF93D9
:10595000DF938830910508F05FC0EB01FC018827D8
:10596000E656FF4F8F4F0C94A84B6130710519F428
:105970000E94E52B54C0CD2B09F054C00E94162B79
:105980004EC0CB010B97409708F04CC0862F0E9469
:10599000992C45C0D09363016093620140C060932D
:1059A0006001D09361013BC0CB01887F892BD1F589
:1059B00060FF02C020E001C021E041E062E087E535
:1059C00091E00E94A02FC1FF02C020E001C021E0B1
:1059D00044E060E18EE691E00E94A02F81E09E010C
:1059E00024703327C2FF80E08093500F232B69F08F
:1059F00010928C0286E00E945D2B2FEF40E06FEF4B
:105A00008EE491E00E94A02F0AC08FEF80938C0259
:105A100086E10E945D2B03C081E090E005C080E03C
:105A200090E002C082E090E0DF91CF910895FA010A
:105A300090936301809362016093600170936101B0
:105A40003097C1F0808180936B01818180936A01DE
:105A5000828180936901838180936801848180932E
:105A600067018581809366018681809365018781C6
:105A70008093640108958091940090919500909393
:105A80004F0F80934E0F08958DE892E00E940034EE
:105A900081E08093B11F8091B31F9091B41F019654
:105AA0009093B41F8093B31F81E090E00895E0913C
:105AB000B71F82E8E89FF0011124E854F04E1082ED
:105AC0001092B71F8091B81F81110C94442D109231
:105AD000B11F08950F931F93CF932091B71FC2E872
