:100000000C949B020C94BC020C94BC020C949D2D8D
:100010000C94BD2D0C94BC020C94BC020C94BC023C
:100020000C94BC020C94BC020C94BC020C94BC0258
:100030000C94BC020C945A3E0C94BC020C94BC026E
:100040000C94BC020C94BC020C94BC020C94BC0238
:100050000C94BC020C94BC020C94BC020C94BC0228
:100060000C94BC020C94DC3E0C94BC020C94BC02BC
:100070000C94BC020C94BC020C94BC020C94BC0208
:100080000C9460530C94BC020C94BC020C94BC0203
:100090000C940B3F0C94BC020C94BC020C94BC025C
:1000A0000C94BC020C94BC020C94BC020C94BC02D8
:1000B0000C94BC020C94BC020C94BC020C94BC02C8
:1000C0000C94BC020C94BC020C94BC020C94BC02B8
:1000D0000C94BC020C94BC020C94BC020C94BC02A8
:1000E0000C94BC020C941A470C9410470C94C6460E
:1000F0000C948E460C9424470C9406470C94FA46B4
:100100000C94EE460C94BC020C94BC020C94BC0201
:100110000C94BC020C94BC020C94BC020C94BC0267
:100120000C94BC020C94BC020C94BC020C94BC0257
:100130000C94BC02AC42B842C142C642CB42064318
:10014000094306431C46DD45E045E345EA451C46B8
:1001500004461C460846DA45DA45DA45DA450B46D8
:100160000E46114616460C94753B0C94862D0C9445
:1001700035500C9406430C949A410C9462440C94B0
:1001800011460C94E3450C9416460C94773D0C9460
:100190008C450C94B9130C940B460C942F3D0C9485
:1001A0004D3C0C94DD450C94E0450C9453420C946A
:1001B00004460C94B44E0C94323D0C9408460C94B6
:1001C000324C0C949A240C9461430C94ED2D0C94B5
:1001D000D5540C945A4D0C94974B0C941C460C948B
:1001E0009E420C94C1420C9430470C9445040C94EC
:1001F000D22D0C94BC030C94713D0C94C04E0C9405
:10020000412B0C94384E0C94CB420C948F260C94BA
:10021000294E0C94B83F0C94CE480C9409430C948E
:10022000FD4C0C94743D0C942C3D0C94B8420C94F1
:1002300069540C94783B0C9408040C940E460C946E
:10024000EA2C0C94C9450C942E4E0C948E540C94AC
:10025000AE400C94F32F0C94FB580C94EA450C948C
:100260006B2D0C94414E0C94AC420C9418560C948B
:10027000D5570C94AA430C94BE020C94BB3F0C942B
:10028000B24E0C94E02E0C943B4E0C94C6420C944F
:1002900030570C94032F0C94242B0C94562F0C9451
:1002A000E72C0C943C4E0C94442B0C9456570C9415
:1002B000334E0C949A2C0C94834D0C9491410C94D5
:1002C00034570C94094D0C94E73F0C94B9400C94AE
:1002D0006C3F0C943A500C94CC400C94244E0C94EB
:1002E00086250C94924E0C94AA0A0C94FC250C942E
:1002F0003E540C9418550C94DA450C94444E0C94CE
:1003000034500C94A94D0C94C3020C946E2D6E6164
:100310006E00696E660000407A10F35A00A0724EBB
:1003200018090010A5D4E80000E87648170000E49A
:100330000B54020000CA9A3B000000E1F5050000E2
:1003400080969800000040420F000000A086010047
:100350000000102700000000E80300000000640017
:10036000000000000A000000000001000000000082
:100370002C76D888DC674F0823DFC1DFAE59E1B1A6
:10038000B796E5E3E453C63AE651997696E8E6C2B5
:100390008426EB898C9B62ED407C6FFCEFBC9C9FBC
:1003A00040F2BAA56FA5F490055A2AF75C936B6CDE
:1003B000F9676DC11BFCE0E40D47FEF520E6B500D2
:1003C000D0ED902E0300943577050080841E080040
:1003D00000204E0A000000C80C333333330F986EF0
:1003E00012831141EF8D2114893BE65516CFFEE6AD
:1003F000DB18D1844B381BF77C1D901DA4BBE42473
:10040000203284725E228100C9F124ECA1E53D27EF
:100410004E657665722D7573656420737461636BC8
:10042000203E2025642062797465730A004F6E6C4B
:10043000696E650A00526F7574696E6720456E615A
:10044000626C65640A0050414E3D307825582C207E
:100450004D41433D25732C205244433D25732C20B0
:100460004E4554574F524B3D25732C206368616EA7
:100470006E656C3D252D752C20636865636B2D7250
:100480006174652D487A3D252D752C2074782D706A
:100490006F7765723D252D750A000A0025783A00B0
:1004A0004D4143206164647265737320000A2A2AF7
:1004B0002A2A2A2A2A20426F6F74696E67205749B8
:1004C0004D45412D494354204150504C49434154DE
:1004D000494F4E2056455253494F4E20322E31201F
:1004E0002A2A2A2A2A2A2A0A00454550524F4D20F4
:1004F000697320636F72727570742C2072657772E5
:100500006974696E672077697468206465666175CF
:100510006C74732E0A006C6F63616C686F73740087
:1005200041544D4547413235367266723200020001
:1005300000FFFE00000111241FBECFEFD1E8DEBF97
:10054000CDBF00E00CBF16E1A0E0B2E0E8E9FFECAF
:1005500000E00BBF02C007900D92A43AB107D9F793
:1005600029E2A4EAB6E101C01D92AF3BB207E1F770
:100570000E941F2A0C94CA670C940000FC0111828F
:10058000108283E00895AF92BF92CF92DF92EF92F4
:10059000FF920F931F93CF93DF93CDB7DEB7C1596F
:1005A000D1090FB6F894DEBF0FBECDBF6C01162F78
:1005B000B42EA52E633821F48DE197E10E944B4DB6
:1005C000F60180819181009741F084379340E9F0F2
:1005D000F6011182108283E0BDC049E254E161E876
:1005E00070E08DE197E10E94304DE0910616F091A8
:1005F00007166AE170E081E090E0199584E793E0E6
:10060000F6019183808381E0A5C01538E1F7F89465
:100610004CE050E06CE872E0CE0186589F4F0E949B
:1006200040677894EB2DFA2DDF010D900020E9F75B
:1006300011977D01EE1AFF0A8E010A571F4F4CE0F9
:1006400050E0BE0166587F4FC8010E9488651F9325
:100650000F9389E193E09F938F931F928EE18F9385
:10066000035811091F930F930E94A266F82EAF92B0
:10067000BF92809143281F928F93809142281F92AE
:100680008F93809141281F928F93809140281F92D1
:100690008F9380913F281F928F9380913E281F92C5
:1006A0008F9380913D281F928F9380913C281F92B9
:1006B0008F9385E293E09F938F9389E18E0D1F9234
:1006C0008F93C8018F0D911D9F938F930E94A266F7
:1006D0008F0DEE24E394E80EF801E80FF11D10826F
:1006E0000FB6F894DEBF0FBECDBFC8010E94726680
:1006F00080910A028061898380911C178A83F12C82
:10070000B7016E5F7F4FCE0101960E94BF4F8DE112
:1007100097E10E944D4D80911C178F5F80931C17AD
:100720008DE493E09F938F931F9282E08F93E00E6E
:10073000F11EFF92EF920E94A266A80165E881E592
:1007400092E00E94ED4A0F900F900F900F900F9043
:100750000F9054CFCF56DF4F0FB6F894DEBF0FBEC9
:10076000CDBFDF91CF911F910F91FF90EF90DF9060
:10077000CF90BF90AF9008950F931F93CF93DF93C7
:100780008B010E94654FEC0184E00E94FD4F909325
:1007900047288093462883E00E94FD4F809360287D
:1007A0009093612821E030E0309331172093301787
:1007B00029811F922F9328812F701F922F939F932F
:1007C0008F93809147288F93809146288F93F801CB
:1007D00081811F928F9380811F928F932296DF9346
:1007E000CF9380E593E09F938F930E9430661092A1
:1007F000311710923017EDB7FEB770960FB6F89418
:10080000FEBF0FBEEDBFDF91CF911F910F910895F5
:10081000CF93DF93FC01208131812115310551F007
:100820002C34384029F0FC011182108283E02AC068
:10083000653839F5EC010E94B23F809130179091F4
:100840003117892B21F083B7817F866002C083B77F
:10085000817F83BFF89483B7816083BF7894889544
:1008600083B78E7F83BF789440E050E065E8809145
:100870009F189091A0180E94D04A8CE498E0998328
:10088000888381E0DF91CF9108958F929F92AF92FC
:10089000BF92CF92DF92EF92FF920F931F93CF936D
:1008A000DF93CDB7DEB7C456D1090FB6F894DEBFDB
:1008B0000FBECDBF7C01FC0180819181009749F082
:1008C0008A3E910509F455C0F7011182108283E038
:1008D0007CC181E090E0909331178093301788E9D4
:1008E00092E00E94586790930F1780930E1740E094
:1008F0005EE160E070E082E097E10E948049109242
:100900000117109200178091001790910117823003
:1009100091052CF7892B19F480E090E002C08FEF4D
:1009200090E00E942D428FE090E09093FF1680931C
:10093000FE168091FE169091FF1697FD08C00E944A
:1009400054448091FE169091FF160197EECF80914E
:10095000001790910117019709F02DC110923117DE
:10096000109230178AEE90E0F7019183808381E046
:100970002CC182E097E10E949449892BC1F3CC24D9
:10098000C394D12CD0923117C09230178091FC16AD
:100990009091FD1601969093FD168093FC160E948F
:1009A000382D9B01AC016CE370E089E79CE00E946C
:1009B00027278C0110923117109230172091F816CA
:1009C0003091F9164091FA165091FB16FC016081A6
:1009D0007181828193810E942D60B62EA72E982E60
:1009E000892EA5019401852F942FA32FB22F8093D8
:1009F000F8169093F916A093FA16B093FB16F80127
:100A000020853185428553856091F4167091F516E5
:100A10008091F6169091F7160E942D606093F4165F
:100A20007093F5168093F6169093F716F8012485C7
:100A30003585468557856091F0167091F116809145
:100A4000F2169091F3160E942D606093F016709349
:100A5000F1168093F2169093F3162091FC163091C4
:100A6000FD1680910E1790910F172817390709F07E
:100A70009EC06EE773E0CE0101960E94816517E18A
:100A80008F929F92AF92BF9286E993E09F938F934C
:100A90001F928DE08F9381E090E08C0F9D1F810F5E
:100AA000911D9F938F930E94A266180F8091F71655
:100AB0008F938091F6168F938091F5168F93809186
:100AC000F4168F9382EA93E09F938F931F9202E133
:100AD0000F9381E090E08C0F9D1F810F911D9F93DC
:100AE0008F930E94A266180F8091F3168F938091C6
:100AF000F2168F938091F1168F938091F0168F9359
:100B000083EB93E09F938F931F920F9381E090E08C
:100B10008C0F9D1F810F911D9F938F930E94A26642
:100B20001092F8161092F9161092FA161092FB16FF
:100B30001092F4161092F5161092F6161092F716FF
:100B40001092F0161092F1161092F2161092F316FF
:100B5000810FE1E0F0E0EC0FFD1FE80FF11D1082C6
:100B60001092311710923017E0910016F091011693
:100B70001995AE014F5F5F4F65E883E892E00E94F0
:100B8000ED4AE0910216F091031619951092FD16A8
:100B90001092FC16D0923117C092301782E097E184
:100BA0000E948A490FB6F894DEBF0FBECDBF82E027
:100BB00097E10E948A498091001790910117019650
:100BC00090930117809300179ECECC59DF4F0FB63C
:100BD000F894DEBF0FBECDBFDF91CF911F910F9173
:100BE000FF90EF90DF90CF90BF90AF909F908F904D
:100BF0000895F8944CE050E060E872E082EB96E1F2
:100C00000E944067789482EB96E108954F925F923C
:100C10006F927F928F929F92AF92BF92CF92DF920C
:100C2000EF92FF92CF93DF938091782882FF7CC070
:100C3000C091FE14D091FF148BE090E0FE01199555
:100C40007C018AE090E0FE0119954C0189E090E07A
:100C5000FE011995092C000CAA08BB0825E1880C97
:100C6000991CAA1CBB1C2A95D1F7092E000CAA0BB3
:100C7000BB0BDC019927882724013501482A592A12
:100C80006A2A7B2A88E090E0FE0119954C01990FB1
:100C9000AA08BB084BE0880C991CAA1CBB1C4A95EF
:100CA000D1F784289528A628B72887E090E0FE0190
:100CB00019956701FCEBCF1AF7E0DF0A0D2C000C49
:100CC000EE08FF08B701A601E9E1440F551F661FB2
:100CD000771FEA95D1F76C01990FEE08FF08F5E050
:100CE000CC0CDD1CEE1CFF1CFA95D1F7C828D928C6
:100CF000EA28FB28C42AD52AE62AF72A86E090E0CB
:100D0000FE011995092E000CAA0BBB0BC2E0B6958B
:100D1000A79597958795CA95D1F7BC01CD016C2908
:100D20007D298E299F2904C060E070E081E29AE469
:100D3000DF91CF91FF90EF90DF90CF90BF90AF9079
:100D40009F908F907F906F905F904F90089582EC6E
:100D500093E00E94726681E094E00E9472668BE3E9
:100D600094E09F938F930E94306682E594E09F9376
:100D70008F930E9430668EE694E09F938F930E943B
:100D8000306688E894E09F938F930E94306680EBF2
:100D900094E09F938F930E94306689EC94E09F9338
:100DA0008F930E94306688E095E09F938F930E9416
:100DB000306685E395E09F938F930E94306688E5C7
:100DC00095E09F938F930E94306685E995E09F930D
:100DD0008F930E94306687EC95E09F938F930E94DB
:100DE00030668CEF95E09F938F930E9430668CE184
:100DF00096E09F938F930E9430668AE596E09F93DA
:100E00008F930E943066809178282DB73EB7245E7C
:100E10003F4F0FB6F8943EBF0FBE2DBF82FF1AC0E2
:100E200081E090E0909331178093301784E896E04A
:100E30009F938F930E9430668BEC96E09F938F93E5
:100E40000E94306610923117109230170F900F9059
:100E50000F900F908AE090E00E946C6682E197E02C
:100E60000C947266CF92DF92EF92FF920F931F93D2
:100E7000CF93DF93F89480EA92E00E945867D82ECF
:100E8000C92E8EE992E00E945867F82EE92E8CE96F
:100E900092E00E945867182F092F8AE992E00E9479
:100EA0005867EC01789483E597E00E947266CF92D0
:100EB000DF9282E797E09F938F930E943066EF92D4
:100EC000FF9281E897E09F938F930E9430660F9383
:100ED0001F9380E997E09F938F930E943066DF9382
:100EE000CF938FE997E09F938F930E9430668DB7E1
:100EF0009EB740960FB6F8949EBF0FBE8DBFDF9190
:100F0000CF911F910F91FF90EF90DF90CF900895B8
:100F1000F89488E992E00E94586778949F938F93A1
:100F20008EEA97E09F938F930E9430660F900F9008
:100F30000F900F9008950F931F93CF93DF938C0121
:100F40000E944B64EC01892B49F4F80180818033C5
:100F500029F41F930F938BED97E00BC0F894BE011B
:100F600088E992E00E9480677894DF93CF9385E3CD
:100F700098E09F938F930E9430660F900F900F9090
:100F80000F90DF91CF911F910F910895CF92DF9233
:100F9000EF92FF920F931F93CF93DF936C01F8941E
:100FA00080EA92E00E945867F82EE92E8EE992E0DE
:100FB0000E945867182F092F8CE992E00E94586709
:100FC000EC018AE992E00E9458677894F60120814A
:100FD000203329F4EF92FF9287E698E012C0213384
:100FE00029F40F931F938AE898E00BC0223329F469
:100FF000DF93CF938DEA98E004C09F938F9380EDA9
:1010000098E09F938F930E9430660F900F900F90FF
:101010000F90DF91CF911F910F91FF90EF90DF9094
:10102000CF900895EF92FF920F931F93CF93DF938A
:101030008C017B010E944B64EC01892B49F4F8017F
:101040008081803329F41F930F9383EF98E037C09A
:10105000F7018081803361F4F894BE0180EA92E068
:101060000E9480677894DF93CF938CE499E027C047
:10107000813361F4F894BE018EE992E00E948067AA
:101080007894DF93CF938DE699E019C0823361F4B1
:10109000F894BE018CE992E00E9480677894DF9317
:1010A000CF938EE899E00BC0F894BE018AE992E0F4
:1010B0000E9480677894DF93CF938FEA99E09F93A3
:1010C0008F930E9430660F900F900F900F90DF91DA
:1010D000CF911F910F91FF90EF9008958F929F9263
:1010E000AF92BF92CF92DF92EF92FF920E942E3E7C
:1010F0006B017C018CE3882E912CA12CB12CC701B3
:10110000B601A50194010E9485629F938F937F93FE
:101110006F93CA01B901A50194010E9485629F9352
:101120008F937F936F93C701B60120E13EE040E0CB
:1011300050E00E948562CA01B90128E130E040E038
:1011400050E00E9485629F938F937F936F93C701B6
:10115000B60120E831E541E050E00E9485625F93EE
:101160004F933F932F9380ED99E09F938F930E942D
:1011700030668DB79EB742960FB6F8949EBF0FBEED
:101180008DBFFF90EF90DF90CF90BF90AF909F907A
:101190008F9008950F931F93CF93DF93CDB7DEB752
:1011A0002C970FB6F894DEBF0FBECDBF4CE050E0D9
:1011B000BC018E010F5F1F4FC8010E948865F89423
:1011C0004CE050E06CE872E0C8010E945E6761E0AC
:1011D00070E082E190E00E94806778941F930F9303
:1011E00085E19AE09F938F930E9430660F900F9055
:1011F0000F900F902C960FB6F894DEBF0FBECDBFA8
:10120000DF91CF911F910F9108950F931F93CF936B
:10121000DF93CDB7DEB72C970FB6F894DEBF0FBEC5
:10122000CDBFF89482E190E00E945867019729F0C1
:101230008EE29AE00E94726616C04CE050E06CE8C4
:1012400072E08E010F5F1F4FC8010E9440671F931D
:101250000F9381E49AE09F938F930E9430660F90E2
:101260000F900F900F9078942C960FB6F894DEBFE5
:101270000FBECDBFDF91CF911F910F910895EF92D7
:10128000FF920F931F93CF93DF93C091FE14D091E1
:10129000FF1486E090E0FE011995F82EE92E87E014
:1012A00090E0FE011995182F092F88E090E0FE01CB
:1012B0001995EF92FF920F931F939F938F9381E560
:1012C0009AE09F938F931F928FE08F938DEC96E11E
:1012D0009F938F930E94A2668DB79EB70C960FB610
:1012E000F8949EBF0FBE8DBF8DEC96E1DF91CF913C
:1012F0001F910F91FF90EF900895EF92FF920F933F
:101300001F93CF93DF93C091FE14D091FF148BE015
:1013100090E0FE011995F82EE92E8AE090E0FE019A
:101320001995182F092F89E090E0FE011995EF9289
:10133000FF920F931F939F938F9380E69AE09F9362
:101340008F931F928FE08F938EEB96E19F938F93F5
:101350000E94A2668DB79EB70C960FB6F8949EBFFA
:101360000FBE8DBF8EEB96E1DF91CF911F910F9154
:10137000FF90EF900895CF92DF92EF92FF920F933C
:101380001F93CF93DF93CDB7DEB72C970FB6F894AA
:10139000DEBF0FBECDBFD82EC92E162F49E050E0BC
:1013A000682F792FCE0101960E948865CE010D9697
:1013B0007C01111148C06FE67AE00C970E945565D8
:1013C0008E01065F1F4F009779F0E016F10661F07D
:1013D0000E944B64F80181938F016FE67AE080E010
:1013E00090E00E945565EFCF6A858FEF860F8F31B1
:1013F00028F0CF92DF9281E79AE069C0EB848FEF0B
:101400008E0D8C30B0F7FC84F3E6FF1594F3009159
:1014100000151091011570E083E090E0F801199536
:101420006E2D70E084E090E0F80119956F2D70E06A
:1014300085E090E0F80119950E947D099F938F93B4
:1014400088EA9AE044C066EB7AE0CE0101960E94F9
:1014500055658E01065F1F4F009779F00E151F0529
:1014600061F00E944B64F80181938F0166EB7AE092
:1014700080E090E00E945565EFCF6A85693128F0E1
:10148000CF92DF9288EB9AE022C0EB84FCE3FE155A
:10149000B8F3FC84FF15A0F300910015109101151D
:1014A00070E082E090E0F80119956E2D70E081E027
:1014B00090E0F80119956F2D70E080E090E0F80160
:1014C00019950E943F099F938F938FEE9AE09F9307
:1014D0008F930E9430660F900F900F900F902C9674
:1014E0000FB6F894DEBF0FBECDBFDF91CF911F9135
:1014F0000F91FF90EF90DF90CF900895F89444E61D
:1015000050E06CEA71E08BE092E00E945E677894B4
:101510000895F89444E650E068E471E08BE092E0CE
:101520000E945E6778940895F89444E650E064EE73
:1015300070E08BE092E00E945E6778940895F894E2
:1015400044E650E060E870E08BE092E00E945E6765
:10155000789408952F923F924F925F926F927F926C
:101560008F929F92AF92BF92CF92DF92EF92FF92B3
:101570000F931F93CF93DF93CDB7DEB76C970FB662
:10158000F894DEBF0FBECDBF9A8F898F85E0EDEF57
:10159000FAE0DE011D9601900D928A95E1F787E051
:1015A000FE017296DF01982F1D929A95E9F795E05A
:1015B000E2E0FBE0DE01119601900D929A95E1F7D1
:1015C000FE013696DF011D928A95E9F710922D17DC
:1015D00010922C1710922B1710922A17109229177D
:1015E000109228171092311710923017E98DFA8D4A
:1015F00080819181892B09F02BC161E08CE398E215
:101600000E94462CF89481E090E0909331178093EB
:10161000301760912C1770912D1786E090E00E9492
:10162000806760912A1770912B1784E090E00E94E8
:101630008067609128177091291782E090E00E94DE
:1016400080678AE190E00E9458674C0188E190E051
:101650000E9458675C0186E190E00E9458676C0127
:1016600084E190E00E9458677C0180E190E00E9454
:1016700058678C018EE090E00E9458673C018CE036
:1016800090E00E9458672C018AE090E00E94586721
:101690001C0188E090E00E9458679C8F8B8F80E04F
:1016A00090E00E945867019761F06EE170E088E970
:1016B00092E00E94806761E070E080E090E00E942C
:1016C00080678A94892861F06CE370E080EA92E098
:1016D0000E94806761E070E08AE190E00E9480678C
:1016E000AA94AB2861F060E070E08EE992E00E947D
:1016F000806761E070E088E190E00E948067CA94B2
:10170000CD2861F060E070E08CE992E00E94806793
:1017100061E070E086E190E00E948067EA94EF2843
:1017200061F060E070E08AE992E00E94806761E029
:1017300070E084E190E00E94806701301105B1F013
:1017400061E070E080E190E00E9480674CE050E052
:1017500060E872E0CE010D960E945E674CE050E0BA
:1017600064E772E0CE0101960E945E676A94672882
:10177000C1F00E947E0A61E070E08EE090E00E947D
:1017800080674CE050E060E872E0CE010D960E9468
:101790005E674CE050E064E772E0CE0101960E9483
:1017A0005E674A944528C1F00E94890A61E070E0B2
:1017B0008CE090E00E9480674CE050E060E872E0CE
:1017C000CE010D960E945E674CE050E064E772E047
:1017D000CE0101960E945E672A942328C1F00E94E0
:1017E000940A61E070E08AE090E00E9480674CE03B
:1017F00050E060E872E0CE010D960E945E674CE01A
:1018000050E064E772E0CE0101960E945E678B8D26
:101810009C8D0197C1F00E949F0A61E070E088E012
:1018200090E00E9480674CE050E060E872E0CE01FA
:101830000D960E945E674CE050E064E772E0CE01D6
:1018400001960E945E6710923117109230177894BB
:10185000A98DBA8D1D921C9283E06C960FB6F894F8
:10186000DEBF0FBECDBFDF91CF911F910F91FF90D3
:10187000EF90DF90CF90BF90AF909F908F907F9030
:101880006F905F904F903F902F900895AF92BF92CE
:10189000CF92DF92EF92FF920F931F93CF93DF933C
:1018A000CDB7DEB7C059D1400FB6F894DEBF0FBE3A
:1018B000CDBFF8946E0183EDC81A8EEFD80A44E6C6
:1018C00050E06CEA71E0C6010E9440677E0199EC2D
:1018D000E90EF11C44E650E068E471E0C7010E94A3
:1018E00040678E010B591F4F44E650E064EE70E0F4
:1018F000C8010E94406744E650E060E870E0CE0115
:1019000001965C010E9440677894DF92CF9287E055
:101910009BE09F938F930E943066FF92EF9286E147
:101920009BE09F938F930E9430661F930F9385E2F5
:101930009BE09F938F930E943066BF92AF9284E3A7
:101940009BE09F938F930E94306683E49BE00E940C
:1019500072660FB6F894DEBF0FBECDBFC057DE4F24
:101960000FB6F894DEBF0FBECDBFDF91CF911F91B0
:101970000F91FF90EF90DF90CF90BF90AF900895C0
:10198000EF92FF920F931F93CF93DF937C01870118
:10199000F701C081FFEFEF1AFF0A8C2F90E00E9441
:1019A0004165892BA1F7CC2391F0E8010990002033
:1019B000E9F722970C171D0710F0198208C08881DB
:1019C00090E00E944165892BC1F32197F3CFC801B4
:1019D000DF91CF911F910F91FF90EF9008951F938A
:1019E000CF93DF93CDB7DEB72C970FB6F894DEBF59
:1019F0000FBECDBF182F4CE050E0CE0101960E94E3
:101A00008865F8944CE050E0113019F460E872E019
:101A100002C064E772E0CE0101960E945E6778948E
:101A20002C960FB6F894DEBF0FBECDBFDF91CF91DD
:101A30001F910895813011F40C94F905F8944CE04D
:101A400050E064E772E086EA96E10E94406778948D
:101A500086EA96E108958F929F92AF92BF92CF92BD
:101A6000DF92EF92FF920E942E3E6B017C0187E095
:101A70009CE00E94726682E00E941A0DB82EA92E88
:101A80000E94F905AF92BF929F938F9380E59CE0EF
:101A90009F938F930E9430668BE092E09F938F9389
:101AA0008AE79CE09F938F930E9430660E943207E2
:101AB00042E16FE87CE08091E0259091E1250E9471
:101AC000423A2DB73EB7265F3F4F0FB6F8943EBF60
:101AD0000FBE2DBF892B19F48AE99CE002C084EB6C
:101AE0009CE00E9472660E9405098091782882FF1E
:101AF0001CC00E947D099F938F938DEC9CE09F9367
:101B00008F930E9430660E943F099F938F938FEDC1
:101B10009CE09F938F930E9430668DB79EB7089686
:101B20000FB6F8949EBF0FBE8DBF8CE3882E912C0C
:101B3000A12CB12CC701B601A50194010E948562B8
:101B40009F938F937F936F93CA01B901A50194016D
:101B50000E9485629F938F937F936F93C701B60115
:101B600020E13EE040E050E00E948562CA01B901F8
:101B700028E130E040E050E00E9485629F938F931F
:101B80007F936F93C701B60120E831E541E050E053
:101B90000E9485625F934F933F932F9381EF9CE068
:101BA0009F938F930E9430660E94460C2DB73EB7DC
:101BB0002E5E3F4F0FB6F8943EBF0FBE2DBF8DE295
:101BC0009DE0FF90EF90DF90CF90BF90AF909F90FF
:101BD0008F900C947266CF92DF92EF92FF920F93E8
:101BE0001F93CF93DF93CDB7DEB768970FB6F89406
:101BF000DEBF0FBECDBF8C0184E190E00E94D062B9
:101C00006C0143E150E0B8010E94886566E77DE021
:101C1000C6010E9455658E01035F1F4F4BE050E0E7
:101C2000BC01C8010E94886566E77DE080E090E025
:101C30000E9455654BE050E0BC01CE0101967C014D
:101C40000E94886545E050E0B8018DEF9AE00E945F
:101C5000AC65892B61F48981882349F0B70181E063
:101C60000E94EF0CFF92EF9288E79DE019C045E0DB
:101C700050E0B80182E09BE00E94AC65892B61F4E2
:101C80008981882349F0B70182E00E94EF0CFF921E
:101C9000EF928EE89DE004C01F930F9384EA9DE0CD
:101CA0009F938F930E9430660F900F900F900F902C
:101CB000C60168960FB6F894DEBF0FBECDBFDF91A8
:101CC000CF911F910F91FF90EF90DF90CF900C94E8
:101CD00068632F923F924F925F926F927F928F92A2
:101CE0009F92AF92BF92CF92DF92EF92FF920F93AB
:101CF0001F93CF93DF93CDB7DEB7CE50D1400FB651
:101D0000F894DEBF0FBECDBFC35FDE4F8883CD50DA
:101D1000D140C25FDE4F9883CE50D140C55FDE4FC9
:101D200079836883CB50D1408A01C75FDE4F398306
:101D30002883C950D14084E690E00E94D0623C01E3
:101D40008EE1EFEEF2E0DE01A951BF4F01900D925E
:101D50008A95E1F7F894C75FDE4FA881B981C95031
:101D6000D1408C91803329F444E650E06CEA71E074
:101D700014C0813329F444E650E068E471E00DC0FA
:101D8000823329F444E650E064EE70E006C0833309
:101D900049F444E650E060E870E0CE018B599F4F73
:101DA0000E9440677894FE01319684E6DF011D921F
:101DB0008A95E9F744E650E0BE016B597F4FC301B5
:101DC0000E9488656AE479E0C3010E9455651E019E
:101DD000B9EC2B0E311C7101412C512C009781F074
:101DE0000E94C00CF701819391937F01FFEF4F1A7E
:101DF0005F0A6AE479E080E090E00E945565EECFEA
:101E00000130110509F088C0C35FDE4F0881CD5055
:101E1000D140C25FDE4F1881CE50D140E12CF12C71
:101E2000C55FDE4FE881F981CB50D140EE16FF0649
:101E30000CF044C04101C12CD12CAA24A394B12C94
:101E40004C145D04C9F0D8016D917C91FB010190A7
:101E50000020E9F73197AF01461B570BF401819140
:101E600091914F010E94AC65892B11F4A12CB12CEA
:101E7000FFEFCF1ADF0AE4CFAA94AB28C9F4D80148
:101E8000AD90BC90F50101900020E9F731976F010A
:101E9000CA18DB086AE479E0CE018B599F4F0E9493
:101EA0007665A601B501CE018B599F4F0E949C65B6
:101EB000BFEFEB1AFB0A0E5F1F4FB2CFA6968FAD96
:101EC000A697882309F439C1F894C75FDE4FA8812B
:101ED000B981C950D1408C91803329F444E650E057
:101EE0006CEA71E015C0813329F444E650E068E4FF
:101EF00071E00EC0823329F444E650E064EE70E0F5
:101F000007C0833309F018C144E650E060E870E090
:101F1000CE018B599F4F0EC1012B09F00EC1812CB0
:101F2000912CA12CB12CA414B50409F4DBC0C35F1F
:101F3000DE4FE881CD50D140CB5FDE4FE883C55006
:101F4000D140C25FDE4FF881CE50D140CA5FDE4F34
:101F5000F883C650D140E12CF12C81E090E0C95FBC
:101F6000DE4F99838883C750D140C55FDE4F88819B
:101F70009981CB50D140E816F9060CF044C0F1012C
:101F800000811181F80101900020E9F73197AF013C
:101F9000401B510BCB5FDE4FA881B981C550D140AA
:101FA000CD90DD90CB5FDE4FB983A883C550D14083
:101FB000B601C8010E94AC65892B09F5F801808142
:101FC0008435B9F445E050E069ED7BE0C6010E943C
:101FD000AC6531E020E0892B09F030E0C95FDE4FCD
:101FE0003883C750D140C85FDE4F2883C850D140E6
:101FF00006C0C95FDE4F19821882C750D140FFEF7B
:10200000EF1AFF0AB2CFD1010D911D911D017E0182
:10201000B7EEEB0EF11CF701B096CB5FDE4FF98304
:10202000E883C550D140C12CD12CF601EE0FFF1F23
:1020300087EE90E08C0F9D1FE80FF91FA081B18102
:10204000FD0101900020E9F73197AF014A1B5B0BBE
:10205000D7016D917D917D01C8010E94AC65892BEE
:1020600019F4CC24C394D12CCB5FDE4FE881F981E5
:10207000C550D140EE16FF06C1F6C95FDE4F88811C
:102080009981C750D140019749F5CA94CD2831F5BF
:10209000F80101900020E9F78114910461F4AF0187
:1020A000401B510BB801CE0101960E94886588241F
:1020B0008394912C10C031977F01E01AF10A6AE4F1
:1020C00079E0CE0101960E947665A701B801CE01A4
:1020D00001960E949C65AFEF8A1A9A0ABFEFAB1A6D
:1020E000BB0A21CF8981882341F1F894C75FDE4F75
:1020F000A881B981C950D1408C91803329F444E63C
:1021000050E06CEA71E014C0813329F444E650E0F9
:1021100068E471E00DC0823329F444E650E064EED7
:1021200070E006C0833341F444E650E060E870E0BC
:10213000CE0101960E945E677894C301C25FDE4FB4
:102140000FB6F894DEBF0FBECDBFDF91CF911F91C8
:102150000F91FF90EF90DF90CF90BF90AF909F9046
:102160008F907F906F905F904F903F902F900C9446
:1021700068632F923F924F925F926F927F928F92FD
:102180009F92AF92BF92CF92DF92EF92FF920F9306
:102190001F93CF93DF93CDB7DEB7CC50D1400FB6AE
:1021A000F894DEBF0FBECDBFC75FDE4F8883C95036
:1021B000D140C65FDE4F9883CA50D140C95FDE4F21
:1021C00079836883C750D14084E690E00E94D06252
:1021D0006C0184E690E00E94D0623C018EE1EFEE5B
:1021E000F2E0DE01A951BF4F01900D928A95E1F70F
:1021F000F894C95FDE4FA881B981C750D1408C9156
:10220000803329F444E650E06CEA71E014C0813375
:1022100029F444E650E068E471E00DC0823329F40B
:1022200044E650E064EE70E006C0833349F444E6CF
:1022300050E060E870E0CE018B599F4F0E944067EC
:102240007894FE01319684E6DF011D928A95E9F7C4
:1022500044E650E0C75FDE4F6881C950D140C65F99
:10226000DE4F7881CA50D140C3010E9488656AE47C
:1022700079E0C3010E9455658E0107531F4F212C41
:10228000312C009781F00E94C00CF801819391934A
:102290008F01FFEF2F1A3F0A6AE479E080E090E0B7
:1022A0000E945565EECF44E650E0BE016B597F4F6A
:1022B000C6010E9488656AE479E0C6010E945565FE
:1022C000412C512C27EE30E02C0F3D1F205E3F4F5C
:1022D000C55FDE4F39832883CB50D140009709F486
:1022E0007DC00E94C00C7C01FC0101900020E9F738
:1022F00031978F01081B190BCE0187539F4F4C015B
:10230000A12CB12CA1E0B0E0CB5FDE4FB983A88354
:10231000C550D1402A143B04A1F0A801B701F40133
:10232000819191914F010E94AC65892B31F4CB5F73
:10233000DE4F19821882C550D140FFEFAF1ABF0A95
:10234000E9CF9E0129513F4F5901812C912CA801C1
:10235000B701D5018D919D915D010E94AC65892BDE
:1023600019F488248394912CC55FDE4FE881F981AC
:10237000CB50D140EA15FB0551F7CB5FDE4F2881EA
:102380003981C550D1402130310509F58A94892819
:10239000F1F44114510461F4A8014F5F5F4FB7019C
:1023A000CE0101960E94886544244394512C0FC0AD
:1023B0006AE479E0CE0101960E947665A801B70132
:1023C000CE0101960E949C658FEF481A580A6AE474
:1023D00079E080E090E00E94556580CFF894898193
:1023E0008823E1F1C95FDE4FA881B981C750D14090
:1023F0008C91803329F444E650E06CEA71E014C01B
:10240000813329F444E650E068E471E00DC0823382
:1024100029F444E650E064EE70E006C0833341F4F2
:1024200044E650E060E870E0CE0101960E945E67ED
:10243000C65FDE4FB881CA50D140BF93C75FDE4F41
:10244000E881C950D140EF9382EC9DE09F938F9338
:102450000E9430660F900F900F900F907894C601F5
:102460000E946863C301C45FDE4F0FB6F894DEBFFD
:102470000FBECDBFDF91CF911F910F91FF90EF90D5
:10248000DF90CF90BF90AF909F908F907F906F9094
:102490005F904F903F902F900C9468632F923F92E3
:1024A0004F925F926F927F928F929F92AF92BF9264
:1024B000CF92DF92EF92FF920F931F93CF93DF9310
:1024C000CDB7DEB7C65AD1090FB6F894DEBF0FBE3E
:1024D000CDBFCD55DF4F8883C35AD040CC55DF4F99
:1024E0009883C45AD040CF55DF4F79836883C15A4F
:1024F000D04084E690E00E94D0627C0184E690E0C7
:102500000E94D0626C018EE1EFEEF2E0DE01AD5789
:10251000BF4F01900D928A95E1F7F894CF55DF4FA8
:10252000E881F981C15AD0408081803329F444E6A2
:1025300050E06CEA71E014C0813329F444E650E0C5
:1025400068E471E00DC0823329F444E650E064EEA3
:1025500070E006C0833341F444E650E060E870E088
:10256000CE0101960E944067789444E650E0BE0197
:102570006F5F7F4FC7010E9488656AE479E0C701F9
:102580000E9455658E010B591F4F412C512C00970D
:1025900081F00E94C00CF801819391938F01FFEFAD
:1025A0004F1A5F0A6AE479E080E090E00E94556586
:1025B000EECF44E650E0CD55DF4F6881C35AD0409E
:1025C000CC55DF4F7881C45AD040C6010E9488653F
:1025D0006AE479E0C6010E94556523E830E02C0FDB
:1025E0003D1F205E3F4FCB55DF4F39832883C55AAF
:1025F000D040009709F45CC00E94C00C8C01FC0123
:1026000001900020E9F731973F01681A790ACE015D
:102610008B599F4F4C01A12CB12C22242394312C97
:102620004A145B0481F0A301B801F40181919191F6
:102630004F010E94AC65892B11F4212C312CFFEF46
:10264000AF1ABF0AEDCF9E012D573F4F5901812C84
:10265000912CA301B801F501819191915F010E9434
:10266000AC65892B19F488248394912CCB55DF4FCA
:1026700028813981C55AD0402A153B0551F72A9443
:10268000232879F48A94892861F46AE479E0CE01F8
:1026900001960E947665A301B801CE0101960E94C1
:1026A0009C656AE479E080E090E00E945565A1CFE6
:1026B0008981882309F43EC0F894CF55DF4FE88123
:1026C000F981C15AD0408081803329F444E650E03A
:1026D0006CEA71E014C0813329F444E650E068E408
:1026E00071E00DC0823329F444E650E064EE70E0FE
:1026F00006C0833341F444E650E060E870E0CE0168
:1027000001960E945E677894CC55DF4FF881C45AD9
:10271000D040FF93CD55DF4F2881C35AD0402F932F
:102720008CEE9DE09F938F930E9430660F900F90E8
:102730000F900F90C6010E946863C701CA55DF4F12
:102740000FB6F894DEBF0FBECDBFDF91CF911F91C2
:102750000F91FF90EF90DF90CF90BF90AF909F9040
:102760008F907F906F905F904F903F902F900C9440
:1027700068638F929F92AF92BF92CF92DF92EF9257
:10278000FF920F931F93CF93DF931F921F92CDB7AA
:10279000DEB76C01CA01F6012081318121153105B6
:1027A00049F12E39324029F0F6011182108283E07E
:1027B0003BC220917629261326C0BE016F5F7F4F52
:1027C0000E9455658C0181E090E0909331178093D1
:1027D0003017F801B080F8E6BF1217C0F801019079
:1027E0000020E9F7CF0102978017910709F017C27F
:1027F0000E94A70610923117109230178EE992E0CE
:10280000F6019183808381E00FC242E050E064E4EE
:102810007EE0C8010E94AC65892B09F04BC0F8012D
:1028200001900020E9F7CF0103978017910719F471
:102830000E943207DFCFF80183818332B1F58481B2
:102840008053843028F586E090E00E94D0627C01BD
:1028500046E050E0B8016C5F7F4F0E948865F80148
:102860008581882389F086E090E00E94D0625C0137
:10287000B8016B5F7F4F46E050E00E948865B7016A
:10288000C5010E94120875C1C7010E94C607C3C1D5
:102890001F930F9387E49EE09F938F930E9430666F
:1028A0000F900F900F900F90A5CF1F930F9382E87A
:1028B0009EE0F2CF42E050E068E176E1C8010E947C
:1028C000AC65892B19F40E942B0D94CF43E050E0A6
:1028D00067EB7EE0C8010E94AC65892B29F5F80101
:1028E00001900020E9F7CF0104978017910719F4B0
:1028F0000E9488077FCFF8018481882381F086E0D9
:1029000090E00E94D0627C01B8016C5F7F4F46E08E
:1029100050E00E948865C7010E949B077CC11F93FD
:102920000F938BEB9EE0B8CF44E050E064EF7EE085
:10293000C8010E94AC65892BE1F4F80101900020E8
:10294000E9F73197E01BF10B359780F08CE090E0D0
:102950000E94D0627C01B8016B5F7F4F4CE050E079
:102960000E948865C7010E94CA0855C10E940509D6
:1029700041CFF5E7BF1203C00E946E083BCF44E091
:1029800050E069EF7EE0C8010E94AC65892B39F503
:10299000F80101900020E9F73197E01BF10BE430DA
:1029A000F10539F40E947D099F938F938EEF9EE08D
:1029B00073CF3597399770F489E090E00E94D06228
:1029C0007C01B8016B5F7F4F49E050E00E94886551
:1029D00060E02FC01F930F9388E09FE05DCF44E03D
:1029E00050E063E874E0C8010E94AC65892B51F5A2
:1029F000F80101900020E9F73197E01BF10BE4307A
:102A0000F10539F40E943F099F938F9389E39FE07A
:102A100043CF3597399788F489E090E00E94D062DF
:102A20007C01B8016B5F7F4F49E050E00E948865F0
:102A300061E0C7010E94BB09EEC01F930F9383E4BE
:102A40009FE02ACF42E050E069EA75E1C8010E94A8
:102A5000AC65892B09F091C0F80101900020E9F7DD
:102A6000CF0103978017910719F40E94460CC2CE3C
:102A700084E690E00E94D0625C0144E650E0B80138
:102A80006D5F7F4F0E948865F5018081805386309D
:102A900008F06BC084E690E00E94D0627C0144E6BE
:102AA00050E0B8016C5F7F4F0E94886544E050E0C1
:102AB00064E77FE0C7010E94AC65892B59F40E944E
:102AC0007E0A0E94890A0E94940A0E949F0A0E941C
:102AD000460C4FC0F70180818823D1F184E690E055
:102AE0000E94D0624C01B8016B5F7F4F44E650E01A
:102AF0000E948865F70180818B3259F4B501C401C9
:102B00000E944E1289E79FE00E9472660E94460C66
:102B10001DC08D3299F4B501C4010E94B910FF9215
:102B2000EF928DE99FE09F938F930E9430660E9401
:102B3000460C0F900F900F900F9008C00E94460C0B
:102B4000C5010E946863C7010E946863C4010AC08E
:102B500087EC9FE00E9472660E94460CC5010E94AD
:102B60006863C7010E94686304C08AED9FE00E9409
:102B70007266C5010E9468634EC045E050E06FEF89
:102B80007FE0C8010E94AC65892B09F048C0F801BC
:102B900001900020E9F7CF01069780179107D9F43B
:102BA0000E94F9059F938F9385E090E19F938F9307
:102BB0000E94306682E00E941A0D9F938F938EE0F0
:102BC00090E19F938F930E9430660FB6F894DEBF1A
:102BD0000FBECDBF0FCE84E190E00E94D0627C0199
:102BE000B8016A5F7F4F43E150E00E948865F701BA
:102BF0008081882321F0C7010E94EB0D0CC0FF9259
:102C0000EF9287E190E19F938F930E9430660F903F
:102C10000F900F900F90C7010E946863EBCD1F9338
:102C20000F9382E19EE038CE0F900F90DF91CF910D
:102C30001F910F91FF90EF90DF90CF90BF90AF90DA
:102C40009F908F900895CF93DF93CDB7DEB7C85C88
:102C5000D1090FB6F894DEBF0FBECDBF44E650E0F9
:102C6000BC01CE0101960E948865F89444E650E0CC
:102C70006CE170E0CE0101960E945E67789481E07D
:102C800090E090932F1780932E17C853DF4F0FB605
:102C9000F894DEBF0FBECDBFDF91CF9108952F9284
:102CA0003F925F926F927F928F929F92AF92BF926C
:102CB000CF92DF92EF92FF920F931F93CF93DF9308
:102CC000CDB7DEB7C853D1400FB6F894DEBF0FBE04
:102CD000CDBFF89444E650E06CEA71E0CE018B5928
:102CE0009F4F0E94406778946AE479E0CE018B5947
:102CF0009F4F0E9455658C01512CE090C815F090B3
:102D0000C915C35DDE4FF982E882CD52D140C15D65
:102D1000DE4FF982E882CF52D14017018091E5144D
:102D20009091E614CF5CDE4F99838883C153D140E4
:102D3000C090DD15D090DE153601A090AE15B09094
:102D4000AF15E091F214F091F314CD5CDE4FF983EE
:102D5000E883C353D1408090C6149090C7148091EB
:102D6000D7149091D814CB5CDE4F99838883C553D8
:102D7000D140C95CDE4F99828882C753D14001158A
:102D8000110509F4E0C30E94382D20E030E040E353
:102D900050E40E94996087FF54C0C8010E94C00C93
:102DA00045E050E069ED7BE00E94AC65892B39F489
:102DB000E091D714F091D81480E090E055C0C8019C
:102DC0000E94C00C45E050E06FED7BE00E94AC65D6
:102DD000892B49F480E090E0C95CDE4FE881F981FD
:102DE000C753D14067C0C8010E94C00C44E050E006
:102DF00064ED7BE00E94AC65892B09F04BC30E9417
:102E0000382D9F938F937F936F9386E690E19F93E6
:102E10008F931F928BE08F9389EC90E08C0F9D1F16
:102E2000850D911D9F938F930E94A266580E83E794
:102E300090E10E9423160FB6F894DEBF0FBECDBFFF
:102E400029C3C8010E94C00C45E050E069ED7BE059
:102E50000E94AC65892B01F580E090E0CB5CDE4FF1
:102E6000E881F981C553D1401995BC01990F880BB0
:102E7000990B0E94486120E030E040E251E40E945A
:102E80009E609F938F937F936F938AE490E19F93CB
:102E90008F931F928CE0DBC2C8010E94C00C45E0FA
:102EA00050E06FED7BE00E94AC65892BD9F480E0A7
:102EB00090E0F4011995BC01990F880B990B0E94C1
:102EC000486120E030E04AE754E40E949E609F930E
:102ED0008F937F936F9388E590E19F938F931F92D9
:102EE0008BE0B5C2C8010E94C00C44E050E064ED24
:102EF0007BE00E94AC65892B09F047C00E94382D09
:102F00009F938F937F936F9386E690E19F938F9328
:102F10001F928BE08F9389EC90E08C0F9D1F850DA5
:102F2000911D9F938F930E94A266580E8091EE167A
:102F30009091EF1601969093EF168093EE169F9363
:102F40008F9389E790E19F938F931F928FE08F93E8
:102F500089EC90E08C0F9D1F850D911D9F938F93A1
:102F60000E94A266580E0FB6F894DEBF0FBECDBF0A
:102F70008091EE169091EF16803A95400CF48AC23B
:102F80001092EF161092EE1685C2C8010E94C00C76
:102F900045E050E06DEF7AE00E94AC65892B69F462
:102FA0000E944D2D9F938F937F936F9384E890E1C0
:102FB0009F938F931F928FE04AC2C8010E94C00C5A
:102FC00045E050E062E07BE00E94AC65892B69F44B
:102FD0000E945C2D9F938F937F936F938FE890E176
:102FE0009F938F931F928DE032C2C8010E94C00C44
:102FF00042E050E061ED7BE00E94AC65892BE1F49A
:1030000080E090E0CD5CDE4FE881F981C353D14090
:103010001995BC01990F880B990B0E94486120E01B
:1030200030E048EC52E40E949E609F938F937F9320
:103030006F938AE990E18AC0C8010E94C00CFC012C
:103040008081803519F58091EE259091EF258C7E59
:103050009927892B09F41EC280E090E0F5011995AB
:10306000892B89F00E94293D81110DC080E090E0FC
:10307000F50119959F938F9385EA90E19F938F9324
:103080001F928CE087C08BEA90E102C2C8010E94C7
:10309000C00CFC018081843551F58091EE2581FFC3
:1030A000F9C180E090E0F3011995892B09F453C030
:1030B0000E94FA3D81114FC080E090E0F301199524
:1030C000BC01990F880B990B0E94486120E030E009
:1030D00040E251E40E949E609F938F937F936F9391
:1030E00089EB90E19F938F931F9289E0B0C1C80153
:1030F0000E94C00C42E050E06AEC7BE00E94AC65AC
:10310000892B61F58091EE2581FFC4C181E090E0BB
:10311000F6011995892BF9F00E94FA3D81111BC027
:1031200081E090E0F6011995BC01990F880B990B8D
:103130000E94486120E030E040E251E40E949E603D
:103140009F938F937F936F938EEC90E19F938F93D8
:103150001F928AE07CC181EC90E19AC1C8010E9473
:10316000C00C44E050E065EE7BE00E94AC65892B2A
:10317000E9F480E090E0CF5CDE4FE881F981C15353
:10318000D14019959F938F9387ED90E19F938F93F3
:103190001F928FE08F9389EC90E08C0F9D1F850D1F
:1031A000911D9F938F930E94A2665CC1C8010E94EB
:1031B000C00C45E050E062EB7BE00E94AC65892BDF
:1031C00009F040C08091EE2584FF64C180E090E06A
:1031D000F1011995892B89F10E946E3D81112DC055
:1031E00080E090E0F1011995BC01990F880B990BD3
:1031F0000E94486120E034E244E759E40E949E6066
:103200009F938F937F936F9385EE90E19F938F931E
:103210001F9283E18F9389EC90E08C0F9D1F850DA9
:10322000911D9F938F930E94A266580E81E090E0BB
:103230009093ED168093EC16FECD1092ED16109241
:10324000EC1628C1C8010E94C00C45E050E068EBB4
:103250007BE00E94AC65892B09F050C08091EE257F
:1032600084FF18C181E090E0C15DDE4FE881F98103
:10327000CF52D1401995892BE1F10E946E3D811109
:1032800038C08091EC169091ED16892B91F581E074
:1032900090E0C15DDE4FE881F981CF52D1401995B0
:1032A000BC01990F880B990B0E94486120E034E221
:1032B00044E759E40E949E609F938F937F936F939E
:1032C00082EF90E19F938F931F928EE08F9389EC12
:1032D00090E08C0F9D1F850D911D9F938F930E94F1
:1032E000A266580E81E090E09093EB168093EA1668
:1032F000A2CD1092EB161092EA16CCC0C8010E9423
:10330000C00C45E050E06EEB7BE00E94AC65892B81
:1033100009F057C08091EE2584FFBCC082E090E0A8
:10332000C35DDE4FE881F981CD52D1401995892BDB
:1033300009F442C00E946E3D81113EC08091EC169E
:103340009091ED16892BC1F58091EA169091EB16BC
:10335000892B91F582E090E0C35DDE4FE881F98131
:10336000CD52D1401995BC01990F880B990B0E9441
:10337000486120E034E244E759E40E949E609F9354
:103380008F937F936F938EEF90E19F938F931F9214
:103390008EE08F9389EC90E08C0F9D1F850D911D21
:1033A0009F938F930E94A266580E81E090E09093C5
:1033B000E9168093E8163FCD1092E9161092E816B0
:1033C00069C0C8010E94C00C45E050E064EC7BE09D
:1033D0000E94AC65892B09F05DC08091EE2584FFC9
:1033E00059C083E090E0F7011995892BE9F10E941B
:1033F0006E3D811139C08091EC169091ED16892BAC
:1034000099F58091EA169091EB16892B69F58091D8
:10341000E8169091E916892B39F583E090E0F701E1
:103420001995BC01990F880B990B0E94486120E007
:1034300034E244E759E40E949E609F938F937F9308
:103440006F938AE091E19F938F931F928EE08F9309
:1034500089EC90E08C0F9D1F850D911D9F938F939C
:103460000E94A266580EE7CC8091EC169091ED1662
:10347000892B81F48091EA169091EB16892B51F4F7
:103480008091E8169091E916892B21F486E191E16B
:103490000E94231680912E1790912F17019749F5BE
:1034A000F89444E650E06CE170E08E010F5F1F4F2E
:1034B000C8010E94406778941F930F9389E493E0BA
:1034C0009F938F931F9280E18F9389EC90E08C0FF4
:1034D0009D1F850D911D9F938F930E94A266580E8C
:1034E00010922F1710922E170FB6F894DEBF0FBE52
:1034F000CDBFF0E5F515F8F4E9ECF0E0EC0FFD1FB9
:10350000E50DF11D1082E0910016F091011619955C
:10351000AE0147535F4F65E883E892E00E94ED4AB1
:10352000E0910216F09103161995C753DF4F1882E8
:10353000C95CD040512C6AE479E080E090E00E94C0
:1035400055658C011CCCE9ECF0E0EC0FFD1FE50D9E
:10355000F11D1082E0910016F09101161995AE014F
:1035600047535F4F65E883E892E00E94ED4AE0919F
:103570000216F09103161995C85CDE4F0FB6F89449
:10358000DEBF0FBECDBFDF91CF911F910F91FF9096
:10359000EF90DF90CF90BF90AF909F908F907F90F3
:1035A0006F905F903F902F9008952F923F925F927F
:1035B0006F927F928F929F92AF92BF92CF92DF9243
:1035C000EF92FF920F931F93CF93DF93CDB7DEB7A8
:1035D000C853D1400FB6F894DEBF0FBECDBFF894EC
:1035E00044E650E064EE70E0CE018B599F4F0E949C
:1035F000406778946AE479E0CE018B599F4F0E942E
:1036000055658C01512CE090C815F090C915C35D2B
:10361000DE4FF982E882CD52D140C15DDE4FF982A2
:10362000E882CF52D140CF5CDE4FF982E882C153AD
:10363000D1408091E5149091E614CD5CDE4F9983E2
:103640008883C353D140C090DD15D090DE1516019C
:103650006090AE157090AF15A090C614B090C714CE
:103660008090D7149090D814CB5CDE4FB982A8829A
:10367000C553D140C95CDE4F99828882C753D1407F
:103680000115110509F484C30E94382D20E030E0B3
:1036900040E350E40E94996087FF56C0C8010E9431
:1036A000C00C45E050E069ED7BE00E94AC65892BE1
:1036B00049F480E090E0C95CDE4FE881F981C753AE
:1036C000D14050C0C8010E94C00C45E050E06FEDF1
:1036D0007BE00E94AC65892B49F480E090E0CB5CF4
:1036E000DE4FE881F981C553D14062C0C8010E9414
:1036F000C00C44E050E064ED7BE00E94AC65892B97
:1037000009F0F7C20E94382D9F938F937F936F9398
:1037100086E690E19F938F931F928BE08F9389ECC5
:1037200090E08C0F9D1F850D911D9F938F930E949C
:10373000A266580E83E790E10E9423160FB6F89414
:10374000DEBF0FBECDBFD5C2C8010E94C00C45E090
:1037500050E069ED7BE00E94AC65892BD9F480E0F4
:1037600090E0F4011995BC01990F880B990B0E9408
:10377000486120E030E040E251E40E949E609F9367
:103780008F937F936F938AE490E19F938F931F921F
:103790008CE08CC2C8010E94C00C45E050E06FED87
:1037A0007BE00E94AC65892BD9F480E090E0F501C4
:1037B0001995BC01990F880B990B0E94486120E074
:1037C00030E04AE754E40E949E609F938F937F937A
:1037D0006F9388E590E19F938F931F928BE066C271
:1037E000C8010E94C00C44E050E064ED7BE00E9400
:1037F000AC65892B49F40E94382D9F938F937F935A
:103800006F9386E690E1E7CFC8010E94C00C45E0C7
:1038100050E062E07BE00E94AC65892B69F40E9475
:103820005C2D9F938F937F936F9385E291E19F939C
:103830008F931F928DE03AC2C8010E94C00C45E0F0
:1038400050E06DEF7AE00E94AC65892B69F40E942C
:103850004D2D9F938F937F936F9382E391E19F937D
:103860008F931F928FE022C2C8010E94C00CFC01FE
:103870008081803571F58091EE259091EF258C7EC9
:103880009927892B09F435C280E090E0F30119955E
:10389000892BE1F00E94293D811118C080E090E061
:1038A000F30119959F938F9385EA90E19F938F93EE
:1038B0001F928CE08F9389EC90E08C0F9D1F850DFB
:1038C000911D9F938F930E94A266FBC18BEA90E1AA
:1038D0000EC2C8010E94C00CFC018081843551F5E4
:1038E0008091EE2581FF05C280E090E0F1011995FD
:1038F000892B09F453C00E94FA3D81114FC080E02A
:1039000090E0F1011995BC01990F880B990B0E9469
:10391000486120E030E040E251E40E949E609F93C5
:103920008F937F936F9389EB90E19F938F931F9277
:1039300089E0BCC1C8010E94C00C42E050E06AECC2
:103940007BE00E94AC65892B61F58091EE2581FFBB
:10395000D0C181E090E0F6011995892BF9F00E9421
:10396000FD3D81111BC081E090E0F6011995BC017D
:10397000990F880B990B0E94486120E030E040E2EB
:1039800051E40E949E609F938F937F936F938EEC80
:1039900090E19F938F931F928AE088C181EC90E120
:1039A000A6C1C8010E94C00C44E050E065EE7BE077
:1039B0000E94AC65892BF9F482E090E0CD5CDE4F8B
:1039C000E881F981C353D1401995182F092F80E060
:1039D00090E0CD5CDE4FE881F981C353D140199569
:1039E0000F931F939F938F938FE691E19F938F93F4
:1039F0001F9282E15BC1C8010E94C00C45E050E00B
:103A000062EB7BE00E94AC65892B09F04AC0809193
:103A1000EE2584FF6EC180E090E0CF5CDE4FE88150
:103A2000F981C153D1401995892BB1F10E946E3DA6
:103A3000811132C080E090E0CF5CDE4FE881F981F7
:103A4000C153D1401995BC01990F880B990B0E9465
:103A5000486120E030E04AE754E40E949E609F9372
:103A60008F937F936F938FE391E19F938F931F9237
:103A70008EE08F9389EC90E08C0F9D1F850D911D3A
:103A80009F938F930E94A266580E81E090E09093DE
:103A9000E7168093E61652CE1092E7161092E616BD
:103AA00028C1C8010E94C00C45E050E068EB7BE0F3
:103AB0000E94AC65892B09F050C08091EE2584FFEF
:103AC00018C181E090E0C15DDE4FE881F981CF52FD
:103AD000D1401995892BE1F10E946E3D811138C0CA
:103AE0008091E6169091E716892B91F581E090E0A0
:103AF000C15DDE4FE881F981CF52D1401995BC01FB
:103B0000990F880B990B0E94486120E030E04AE74A
:103B100054E40E949E609F938F937F936F9382E8FB
:103B200091E19F938F931F928EE08F9389EC90E0A9
:103B30008C0F9D1F850D911D9F938F930E94A266F0
:103B4000580E81E090E09093E5168093E416F6CD50
:103B50001092E5161092E416CCC0C8010E94C00C69
:103B600045E050E06EEB7BE00E94AC65892B09F0EC
:103B700057C08091EE2584FFBCC082E090E0C35D19
:103B8000DE4FE881F981CD52D1401995892B09F496
:103B900042C00E946E3D81113EC08091E616909118
:103BA000E716892BC1F58091E4169091E516892BD3
:103BB00091F582E090E0C35DDE4FE881F981CD525E
:103BC000D1401995BC01990F880B990B0E9448614F
:103BD00020E030E04AE754E40E949E609F938F9378
:103BE0007F936F938EE891E19F938F931F928EE066
:103BF0008F9389EC90E08C0F9D1F850D911D9F93F5
:103C00008F930E94A266580E81E090E09093E31695
:103C10008093E21693CD1092E3161092E21669C0DB
:103C2000C8010E94C00C45E050E064EC7BE00E94BB
:103C3000AC65892B09F05DC08091EE2584FF59C0E9
:103C400083E090E0F7011995892BE9F10E946E3D20
:103C5000811139C08091E6169091E716892B99F56C
:103C60008091E4169091E516892B69F58091E21612
:103C70009091E316892B39F583E090E0F7011995CF
:103C8000BC01990F880B990B0E94486120E030E03D
:103C90004AE754E40E949E609F938F937F936F93B3
:103CA00083E691E19F938F931F928EE08F9389EC2F
:103CB00090E08C0F9D1F850D911D9F938F930E9407
:103CC000A266580E3BCD8091E6169091E716892B9F
:103CD00081F48091E4169091E516892B51F480913E
:103CE000E2169091E316892B21F486E191E10E947E
:103CF000231680912E1790912F17019749F5F8946C
:103D000044E650E06CE170E08E010F5F1F4FC80188
:103D10000E94406778941F930F9389E493E09F93E8
:103D20008F931F9280E18F9389EC90E08C0F9D1F01
:103D3000850D911D9F938F930E94A266580E10923D
:103D40002F1710922E170FB6F894DEBF0FBECDBFFF
:103D5000FCE3F515A8F4E9ECF0E0EC0FFD1FE50D30
:103D6000F11D1082AE0147535F4F65E883E892E092
:103D70000E94ED4AC753DF4F1882C95CD040512CD6
:103D80006AE479E080E090E00E9455658C0178CC8F
:103D9000E9ECF0E0EC0FFD1FE50DF11D1082AE0126
:103DA00047535F4F65E883E892E00E94ED4AC85CA4
:103DB000DE4F0FB6F894DEBF0FBECDBFDF91CF91BF
:103DC0001F910F91FF90EF90DF90CF90BF90AF9039
:103DD0009F908F907F906F905F903F902F9008956D
:103DE0002F923F925F926F927F928F929F92AF92AB
:103DF000BF92CF92DF92EF92FF920F931F93CF93D8
:103E0000DF93CDB7DEB7C853D1400FB6F894DEBF0D
:103E10000FBECDBFF89444E650E060E870E0CE01FC
:103E20008B599F4F0E94406778946AE479E0CE01F5
:103E30008B599F4F0E9455658C01512CE090C815FD
:103E4000F090C915C35DDE4FF982E882CD52D140B2
:103E5000C15DDE4FF982E882CF52D140CF5CDE4FA8
:103E6000F982E882C153D1402090E5143090E614E5
:103E7000C090DD15D090DE153601A090AE15B09043
:103E8000AF158091F2149091F314CD5CDE4F9983BD
:103E90008883C353D1408090C6149090C714E0919A
:103EA000D714F091D814CB5CDE4FF983E883C55367
:103EB000D140C95CDE4F99828882C753D140011539
:103EC000110509F498C30E94382D20E030E040E34A
:103ED00050E40E94996087FF54C0C8010E94C00C42
:103EE00045E050E069ED7BE00E94AC65892B39F438
:103EF000E091D714F091D81480E090E055C0C8014B
:103F00000E94C00C45E050E06FED7BE00E94AC6584
:103F1000892B49F480E090E0C95CDE4FE881F981AB
:103F2000C753D14067C0C8010E94C00C44E050E0B4
:103F300064ED7BE00E94AC65892B09F00DC30E9403
:103F4000382D9F938F937F936F9386E690E19F9395
:103F50008F931F928BE08F9389EC90E08C0F9D1FC5
:103F6000850D911D9F938F930E94A266580E83E743
:103F700090E10E9423160FB6F894DEBF0FBECDBFAE
:103F8000EBC2C8010E94C00C45E050E069ED7BE047
:103F90000E94AC65892B01F580E090E0CB5CDE4FA0
:103FA000E881F981C553D1401995BC01990F880B5F
:103FB000990B0E94486120E030E040E251E40E9409
:103FC0009E609F938F937F936F938AE490E19F937A
:103FD0008F931F928CE09DC2C8010E94C00C45E0E7
:103FE00050E06FED7BE00E94AC65892BD9F480E056
:103FF00090E0F4011995BC01990F880B990B0E9470
:10400000486120E030E04AE754E40E949E609F93BC
:104010008F937F936F9388E590E19F938F931F9287
:104020008BE077C2C8010E94C00C44E050E064ED10
:104030007BE00E94AC65892B49F40E94382D9F9348
:104040008F937F936F9386E690E1E7CFC8010E943C
:10405000C00C45E050E062E07BE00E94AC65892B3B
:1040600069F40E945C2D9F938F937F936F9385E2F9
:1040700091E19F938F931F928DE04BC2C8010E94E4
:10408000C00C45E050E06DEF7AE00E94AC65892BF2
:1040900069F40E944D2D9F938F937F936F9382E3DA
:1040A00091E19F938F931F928FE033C2C8010E94CA
:1040B000C00C42E050E061ED7BE00E94AC65892BD2
:1040C00091F480E090E0CD5CDE4FE881F981C3534C
:1040D000D14019959F938F938AE991E19F938F9394
:1040E0001F9289E027C0C8010E94C00CFC0180819A
:1040F000803561F58091EE259091EF258C7E992792
:10410000892B09F429C280E090E0F5011995892BEB
:1041100009F481C00E94293D81117DC080E090E0BA
:10412000F50119959F938F9385EA90E19F938F9363
:104130001F928CE08F9389EC90E08C0F9D1F850D72
:10414000911D9F938F930E94A266EEC1C8010E94A9
:10415000C00CFC018081843551F58091EE2581FFF2
:10416000FBC180E090E0F3011995892B09F453C05D
:104170000E94FA3D81114FC080E090E0F301199553
:10418000BC01990F880B990B0E94486120E030E038
:1041900040E251E40E949E609F938F937F936F93C0
:1041A00089EB90E19F938F931F9289E0B2C1C80180
:1041B0000E94C00C42E050E06AEC7BE00E94AC65DB
:1041C000892B61F58091EE2581FFC6C181E090E0E9
:1041D000F6011995892BF9F00E94FD3D81111BC054
:1041E00081E090E0F6011995BC01990F880B990BBD
:1041F0000E94486120E030E040E251E40E949E606D
:104200009F938F937F936F938EEC90E19F938F9307
:104210001F928AE07EC181EC90E19CC1C8010E949E
:10422000C00C44E050E065EE7BE00E94AC65892B59
:10423000A9F482E090E0F1011995182F092F80E090
:1042400090E0F10119950F931F939F938F938FE641
:1042500091E19F938F931F9282E15BC1C8010E94FD
:10426000C00C45E050E062EB7BE00E94AC65892B1E
:1042700009F04AC08091EE2584FF6EC180E090E095
:10428000CF5CDE4FE881F981C153D1401995892B6C
:10429000B1F10E946E3D811132C080E090E0CF5CB0
:1042A000DE4FE881F981C153D1401995BC01990FC6
:1042B000880B990B0E94486120E030E04AE754E403
:1042C0000E949E609F938F937F936F938FE391E102
:1042D0009F938F931F928EE08F9389EC90E08C0FC9
:1042E0009D1F850D911D9F938F930E94A266580E6E
:1042F00081E090E09093E1168093E0163CCE10921E
:10430000E1161092E01628C1C8010E94C00C45E0D9
:1043100050E068EB7BE00E94AC65892B09F050C04F
:104320008091EE2584FF18C181E090E0C15DDE4FF1
:10433000E881F981CF52D1401995892BE1F10E9492
:104340006E3D811138C08091E0169091E116892B65
:1043500091F581E090E0C15DDE4FE881F981CF52B7
:10436000D1401995BC01990F880B990B0E944861A7
:1043700020E030E04AE754E40E949E609F938F93D0
:104380007F936F9382E891E19F938F931F928EE0CA
:104390008F9389EC90E08C0F9D1F850D911D9F934D
:1043A0008F930E94A266580E81E090E09093DF16F2
:1043B0008093DE16E0CD1092DF161092DE16CCC090
:1043C000C8010E94C00C45E050E06EEB7BE00E940B
:1043D000AC65892B09F057C08091EE2584FFBCC0E5
:1043E00082E090E0C35DDE4FE881F981CD52D1409B
:1043F0001995892B09F442C00E946E3D81113EC07F
:104400008091E0169091E116892BC1F58091DE161E
:104410009091DF16892B91F582E090E0C35DDE4F2D
:10442000E881F981CD52D1401995BC01990F880BD3
:10443000990B0E94486120E030E04AE754E40E9472
:104440009E609F938F937F936F938EE891E19F93EC
:104450008F931F928EE08F9389EC90E08C0F9D1FBD
:10446000850D911D9F938F930E94A266580E81E047
:1044700090E09093DD168093DC167DCD1092DD16D2
:104480001092DC1669C0C8010E94C00C45E050E0E3
:1044900064EC7BE00E94AC65892B09F05DC08091E3
:1044A000EE2584FF59C083E090E0F7011995892B30
:1044B000E9F10E946E3D811139C08091E016909122
:1044C000E116892B99F58091DE169091DF16892BE4
:1044D00069F58091DC169091DD16892B39F583E022
:1044E00090E0F7011995BC01990F880B990B0E9478
:1044F000486120E030E04AE754E40E949E609F93C8
:104500008F937F936F9383E691E19F938F931F9295
:104510008EE08F9389EC90E08C0F9D1F850D911D8F
:104520009F938F930E94A266580E25CD8091E0162E
:104530009091E116892B81F48091DE169091DF161F
:10454000892B51F48091DC169091DD16892B21F492
:1045500086E191E10E94231680912E1790912F17EA
:10456000019749F5F89444E650E06CE170E08E0163
:104570000F5F1F4FC8010E94406778941F930F93ED
:1045800089E493E09F938F931F9280E18F9389EC4E
:1045900090E08C0F9D1F850D911D9F938F930E941E
:1045A000A266580E10922F1710922E170FB6F8947D
:1045B000DEBF0FBECDBFFCE3F515A8F4E9ECF0E0DB
:1045C000EC0FFD1FE50DF11D1082AE0147535F4F4B
:1045D00065E883E892E00E94ED4AC753DF4F1882F6
:1045E000C95CD040512C6AE479E080E090E00E9400
:1045F00055658C0164CCE9ECF0E0EC0FFD1FE50D96
:10460000F11D1082AE0147535F4F65E883E892E0E9
:104610000E94ED4AC85CDE4F0FB6F894DEBF0FBEB5
:10462000CDBFDF91CF911F910F91FF90EF90DF9061
:10463000CF90BF90AF909F908F907F906F905F9042
:104640003F902F900895CF92DF92EF92FF920F93B9
:104650001F93CF93DF93CDB7DEB728970FB6F894AB
:10466000DEBF0FBECDBF8C010E94512C8093EE2582
:104670009093EF2510922D1710922C1710922B1754
:1046800010922A171092291710922817C0900D0324
:10469000D0900E03E0900F03F090100381FF1DC037
:1046A000E091DF15F091E01561E070E081E890E0C5
:1046B0001995C982DA82EB82FC82980141E050E0D0
:1046C00062E070E0CE0101960E94690E81E090E008
:1046D00090932D1780932C1711C0C982DA82EB8238
:1046E000FC82980140E050E062E070E0CE0101966B
:1046F0000E94690E10922D1710922C178091EE25B2
:1047000084FF22C0E091CA15F091CB1561E070E002
:1047100081E890E0199588E0E1E1F3E0DE0111968F
:1047200001900D928A95E1F7980141E050E064E034
:1047300070E0CE0101960E94690E81E090E09093B6
:104740002B1780932A1716C088E0E1E1F3E0DE0121
:10475000119601900D928A95E1F7980140E050E0A2
:1047600064E070E0CE0101960E94690E10922B1752
:1047700010922A178091EE259091EF258C7E992733
:10478000892BE9F0E091B015F091B11561E070E08E
:1047900081E890E019958DEC9BE09A8389839801DC
:1047A00041E050E061E070E0CE0101960E94690EA8
:1047B00081E090E0909329178093281711C08DEC29
:1047C0009BE09A838983980140E050E061E070E0CB
:1047D000CE0101960E94690E109229171092281797
:1047E0008091EE2582FF0BC00E94062FE0910015FC
:1047F000F091011561E070E081E890E01995F8947E
:1048000086E090E00E94586720912C1730912D1778
:104810008217930719F12115310589F481EA91E195
:104820000E94726660912C1770912D1786E090E0BF
:104830000E9480678DED91E10E9423160FC0213008
:10484000310561F48AEE91E10E94726660912C1745
:1048500070912D1786E090E00E94806782E090E0E2
:104860000E945867209128173091291782179307C3
:1048700019F12115310589F483E292E10E947266F3
:10488000609128177091291782E090E00E9480675C
:1048900080E692E10E9423160FC02130310561F4B9
:1048A0008EE692E10E947266609128177091291736
:1048B00082E090E00E94806784E090E00E94586768
:1048C00020912A1730912B178217930719F1211580
:1048D000310589F488EA92E10E94726660912A1794
:1048E00070912B1784E090E00E94806786EE92E141
:1048F0000E9423160FC02130310561F485EF92E14B
:104900000E94726660912A1770912B1784E090E0E4
:104910000E948067789428960FB6F894DEBF0FBE89
:10492000CDBFDF91CF911F910F91FF90EF90DF905E
:10493000CF9008950F931F93CF93DF93EC0188815D
:104940009981009741F08C3C914009F49FC01982F5
:10495000188283E0D6C0E091F414F091F51461E080
:1049600070E081E890E01995E091D914F091DA14A3
:1049700061E070E081E890E01995E091C814F09151
:10498000C91461E070E081E890E01995E091E714C6
:10499000F091E81461E070E081E890E0199581E021
:1049A00090E0909331178093301710921B1710925C
:1049B0001A1780911A1790911B17823091057CF776
:1049C000892B19F480E090E002C08FEF90E00E9404
:1049D0002D428FE090E090931917809318178091E3
:1049E00018179091191797FD08C00E9454448091A0
:1049F0001817909119170197EECF00911A1710917F
:104A00001B170130110509F053C080EA92E00E94A3
:104A100058679093171780931617109231171092BA
:104A20003017892B89F00E94382D2DEC3CEC4CE39B
:104A300050E40E94996087FF07C0109331170093DC
:104A400030178CE291E004C080EA92E00E9458673F
:104A500090931717809316174091161750911717B8
:104A60005695542F442757954795052E000C660BF5
:104A7000770B84E598E20E948049109231171092DA
:104A800030178CEC91E0998388831CC084E598E210
:104A90000E949449892BB1F081E090E09093311706
:104AA000809330178091161790911717009761F433
:104AB00080911A1790911B17019690931B17809362
:104AC0001A1777CF81E01DC08C32914059F4809144
:104AD000141790911517019690931517809314173A
:104AE000069731F78FED93E10E942323109231173F
:104AF000109230170E944F1610921517109214172B
:104B0000D7CFDF91CF911F910F910895CF93DF936E
:104B1000EC0188819981009741F08B30924009F433
:104B20005BC01982188283E064C0E091F414F091B4
:104B3000F51461E070E081E890E01995E091D914F6
:104B4000F091DA1461E070E081E890E01995E0916D
:104B5000C814F091C91461E070E081E890E0199503
:104B6000E091E714F091E81461E070E081E890E0F2
:104B700019958EE992E00E945867892B29F48EE9F5
:104B800092E00E9458670CC00E94382D2DEC3CEC3E
:104B90004CE350E40E94996087FFF1CF8CE291E0F2
:104BA00021E030E03093311720933017AC01569557
:104BB000542F44275795479560E070E080E398E2D2
:104BC0000E94804910923117109230178BE092E0CA
:104BD0009983888381E00DC080E398E20E94944924
:104BE000892BC1F381E090E09093311780933017C7
:104BF000C0CFDF91CF910895CF93DF93EC018881EF
:104C00009981009741F08034924009F465C019827F
:104C1000188283E081C0E091F414F091F51461E012
:104C200070E081E890E01995E091D914F091DA14E0
:104C300061E070E081E890E01995E091C814F0918E
:104C4000C91461E070E081E890E01995E091E71403
:104C5000F091E81461E070E081E890E019958CE94A
:104C600092E00E9458679093131780931217892B34
:104C700069F00E94382D2DEC3CEC4CE350E40E948E
:104C8000996087FF03C088EE93E004C08CE992E04E
:104C90000E945867909313178093121781E090E059
:104CA000909331178093301740911217509113173A
:104CB0005695542F44275795479560E070E082EE53
:104CC00095E20E948049109231171092301780E4CB
:104CD00092E09983888306C082EE95E20E9494490F
:104CE000892B11F481E018C081E090E09093311796
:104CF000809330178091121790911317892B09F424
:104D0000AECF83EA93E10E942323109231171092D1
:104D100030170E94D51AA3CFDF91CF910895CF937A
:104D2000DF93EC0188819981009741F083379240AD
:104D300009F46AC01982188283E086C0E091F414F5
:104D4000F091F51461E070E081E890E01995E09150
:104D5000D914F091DA1461E070E081E890E01995DF
:104D6000E091C814F091C91461E070E081E890E02E
:104D70001995E091E714F091E81461E070E081E8A2
:104D800090E019958AE992E00E9458679093111774
:104D900080931017892B69F00E94382D26E636E69D
:104DA00046E450E40E94996087FF03C088EE93E0D8
:104DB00004C08AE992E00E9458679093111780938B
:104DC000101781E090E090933117809330178AE9B3
:104DD00092E00E9458679093111780931017AC01CE
:104DE0005695542F44275795479560E070E082E22E
:104DF00098E20E948049109231171092301783E791
:104E000092E09983888306C082E298E20E949449E6
:104E1000892B11F481E018C081E090E09093311764
:104E2000809330178091101790911117892B09F4F6
:104E3000A9CF85E893E10E942323109231171092A5
:104E400030170E94F01E9ECFDF91CF9108954F92B0
:104E50005F926F927F928F929F92AF92BF92CF920A
:104E6000DF92EF92FF920F931F93CF93DF93CDB713
:104E7000DEB72E970FB6F894DEBF0FBECDBF7E878C
:104E80006D8769017A010E943F4880E090E00E94AE
:104E900009482B013C0181E090E00E9409484B0148
:104EA0005C0186E090E00E94094869837A838B83E5
:104EB0009C8387E090E00E940948AB01BC0180918F
:104EC0005A1790915B17A0915C17B0915D17481A23
:104ED000590A6A0A7B0A8091561790915717A09138
:104EE0005817B091591795018401081B190B2A0B0B
:104EF0003B0B0D831E832F8338878091521790912F
:104F00005317A0915417B091551709811A812B811D
:104F10003C81081B190B2A0B3B0B09831A832B833B
:104F20003C8380914E1790914F17A0915017B091EC
:104F300051178A019B01081B190B2A0B3B0B098790
:104F40001A872B873C8780E090E00E940948609395
:104F50005A1770935B1780935C1790935D1781E0ED
:104F600090E00E94094860935617709357178093FA
:104F700058179093591786E090E00E940948609373
:104F8000521770935317809354179093551787E0D7
:104F900090E00E94094860934E1770934F178093DA
:104FA00050179093511787E090E00E94094886E0DF
:104FB00090E00E94094829E03DE3AD85BE850E944E
:104FC000AF620E9446614B015C0180914A1790914B
:104FD0004B17A0914C17B0914D170196A11DB11D13
:104FE00080934A1790934B17A0934C17B0934D178B
:104FF000C301B2010E94466120E030E040E950E484
:105000000E94F861A70196010E94F861A501940130
:105010000E949E60E2E3F7E1608371838283938361
:105020006D817E818F8198850E9446612AE939E9E8
:1050300049E050E40E94F861A70196010E94F861DE
:10504000A50194010E949E606093361770933717F4
:10505000809338179093391769817A818B819C816D
:105060000E9446612AE939E941E251E40E94F8616F
:10507000A70196010E94F861A50194010E949E601B
:1050800060933A1770933B1780933C1790933D17AA
:1050900069857A858B859C850E94466126E636E681
:1050A00046E651E40E94F861A70196010E94F8616A
:1050B000A50194010E949E6060933E1770933F1774
:1050C000809340179093411782E397E12E960FB695
:1050D000F894DEBF0FBECDBFDF91CF911F910F912E
:1050E000FF90EF90DF90CF90BF90AF909F908F9008
:1050F0007F906F905F904F900895E6E4F1E090818B
:10510000208180813081492F407C932F9295969504
:1051100096959370940F269526952073920F8295FD
:105120008C70890F0895CF93C82F83E494E19F93E7
:105130008F930E9430660F900F90C0FF04C080E5EF
:1051400094E10E947266C1FF04C08FE594E10E9461
:105150007266C2FF04C08EE694E10E947266C3FFCD
:1051600004C08DE794E10E947266C4FF05C08CE81C
:1051700094E1CF910C947266CF9108958F929F9293
:10518000AF92BF92CF92DF92EF92FF920F931F9355
:10519000CF93DF93CDB7DEB72A970FB6F894DEBF73
:1051A0000FBECDBF0E94983F0E94A73F0E94952C42
:1051B00046E069E180E00E943A3F80E00E948F3F34
:1051C0000E94003E60EA76E881E090E00E94472B72
:1051D000EFEBF9E222E432E4318320833A968DB793
:1051E0009EB70A97E817F907B8F38DEA94E09F9302
:1051F0008F930E9444668EB30E9493280E94294B8D
:105200000E94F347809194009091950090935F29BC
:1052100080935E2981E0809352290E946B4A60E06E
:1052200070E088EC92E00E94FC4A0E9496470E943F
:10523000564C62E37CE480E00E94813FE091F015EF
:10524000F091F11519950E947D2890E00E94B43FDD
:1052500087E994E19F938F930E9430660E94512CBE
:1052600080937828909379280F900F900F900F904B
:1052700080FF19C061E0CE0101960E94462CCE014C
:1052800001960E942F508A81082E000C990B982FAE
:1052900088272885820F911D27FD9A959093712864
:1052A0008093702817C08DE994E10E9472668CEF9C
:1052B000898382EC8A838DE38B831C821D821E820C
:1052C00080917028909171289F838887CE010196E4
:1052D0000E942F500E941C2B8C010E94182BAE01A3
:1052E000475F5F4FB8010E940E430E948A2A0E94C6
:1052F00090420E94202B0E94544480EA94E09F93A5
:105300008F930E9444668A81898788858A871F9245
:105310008F930CE914E01F930F930E9444668985D4
:105320001F928F931F930F930E9444668AE994E023
:105330009F938F930E9444660E94DA4EE091681614
:10534000F09169161995E0915216F091531619953E
:10535000E0914416F091451619950E945644882E06
:105360000091741610917516F80119950FB6F894FE
:10537000DEBF0FBECDBF892B51F0F8011995BC01DE
:1053800080E890E00E947162162F072F02C010E89B
:1053900000E00E948D42982EB0904216A0904316D5
:1053A000D0906616C0906716F0905016E090511697
:1053B0000E94E5401F928F920F931F931F929F921E
:1053C000AF92BF92CF92DF92EF92FF929F938F9313
:1053D00086E494E09F938F930E94446685E394E073
:1053E0009F938F930E9444668DE294E10E94E4476C
:1053F0008DE294E09F938F930E94446688EE93E041
:1054000090936F2880936E2884E00E948B2C0FB6B7
:10541000F894DEBF0FBECDBF2A960FB6F894DEBF5C
:105420000FBECDBFDF91CF911F910F91FF90EF90F5
:10543000DF90CF90BF90AF909F908F9008950E9483
:10544000BE28C0E1D4E00E947B4A0E94B23F809116
:105450006E2890916F28009751F0019790936F28D4
:1054600080936E28892B19F484E00E94902C8091FF
:10547000722890917328009751F0019790937328A8
:1054800080937228892B19F482E00E94902C84E08A
:105490000E94902C82E00E94902C0E942E3E00914F
:1054A00074281091752820917628309177286017FC
:1054B00071078207930739F20E942E3E6093742889
:1054C000709375288093762890937728DC01CB0120
:1054D0009370AA27BB270397A105B10509F0B3CFA5
:1054E000EFEBF9E2808191818234924469F0EF5BC5
:1054F000F942FF93EF93DF93CF930E9444660F909E
:105500000F900F900F909FCF3A96E53F81E8F807F4
:1055100048F399CFEF92FF920F931F93CF93DF93AE
:10552000CDB7DEB7A0970FB6F894DEBF0FBECDBFE4
:1055300089EA92E00E945867182F282F35EF380F1C
:10554000303108F0982F9095291709F463C089EE3F
:1055500094E09F938F930E944466EEE2F5E08E0103
:105560000F5F1F4FCE0109960F900F90D801780161
:1055700024912D933196A817B907D1F7F89448E0F4
:1055800050E065EC72E0C8010E948667E0E2F5E059
:10559000CE010F96D80124912D933196A817B90703
:1055A000D1F74EE050E067EB72E0C8010E948667D9
:1055B000E6E1F5E0CE010B962491D8012D938D0103
:1055C0003196A817B907C1F74AE050E06DEA72E0DA
:1055D000C7010E9486676DEC7BEA87EA92E00E9431
:1055E0009E6760E070E085EA92E00E949E6760E05E
:1055F00084EA92E00E94906760E070E08BEA92E0BB
:105600000E949E671AE16AE175EE89EA92E00E94C3
:105610009E677894812FA0960FB6F894DEBF0FBED8
:10562000CDBFDF91CF911F910F91FF90EF90089523
:1056300087EA92E00C94586785EA92E00C945867E8
:1056400084EA92E00C9450672FE130E08BE59EE015
:1056500041E951E020935101FA013197F1F760914E
:10566000510165FD0DC02031310521F02CF08B5426
:10567000910903C084EC99E0C29721503109EACF27
:10568000089580E090E0089581E090E008959B0106
:10569000AC011092B90060E074E284EF90E00E94E7
:1056A0008562DA01C9014097A109B109B695A795AC
:1056B000979587958093B800089594EA9093BC00DD
:1056C00040EA56E861E070E09091BC0097FD07C0A9
:1056D0004150510961097109B9F781E0089590912C
:1056E000B900987F983011F09031B9F78093BB00E2
:1056F00084E88093BC0080EA96E8A1E0B0E02091C5
:10570000BC0027FD05C00197A109B109C1F7E5CF8C
:105710008091B900887F883111F08034F1F680E003
:10572000089524EA34E844E92093BC009091BC0039
:1057300097FFFCCF9091B900987F983011F090318D
:1057400099F78093BB003093BC009091BC0097FF09
:10575000FCCF9091B900987F903211F0983539F4D0
:105760004093BC009091BC0094FDFCCFDDCF089528
:1057700084E98093BC008091BC0084FDFCCF089537
:105780008093BB0084E88093BC008091BC0087FFBD
:10579000FCCF9091B900987F81E0983209F480E0C5
:1057A0000895CF93C82F8CEE0E945D2B811103C00A
:1057B0008C2F0E94C02BCF910C94B82B8093BB00F0
:1057C00084E88093BC008091BC0087FFFCCF0895E3
:1057D000CF93DF93D62FC42F0E945D2B8D2F0E9475
:1057E000DE2B8C2F0E94DE2BDF91CF910C94B82BF7
:1057F00084EC8093BC008091BC0087FFFCCF80913B
:10580000BB00089584E88093BC008091BC0087FFB2
:10581000FCCF8091BB000895CF92DF92EF92FF9270
:105820000F931F93CF93DF93C82FD62FF42E152FEE
:10583000022F0E945D2B8D2F0E94DE2B8C2F81600A
:105840000E945D2BCF2DD12F10E0E12CF12C6801AF
:1058500081E0C81AD108E016F10671F0CE14DF0419
:1058600019F40E94022C02C00E94F82B88838FEF4B
:10587000E81AF80A2196EFCFDF91CF911F910F918F
:10588000FF90EF90DF90CF900C94B82BAC01662383
:1058900019F028E068E902C020E160E880EB0C9490
:1058A0000C2CCF93DF930E94B23F80EB0E945D2BC4
:1058B000811105C00E94B82BC1E0D0E002C0C0E059
:1058C000D0E00E94B23F80E80E945D2B811103C0AE
:1058D0000E94B82BC2608CEE0E945D2B811103C028
:1058E0000E94B82BC8600E94B23F82ED0E945D2BDF
:1058F000811103C00E94B82BC4600E94B23F80EDAA
:105900000E945D2B811103C00E94B82BC061CE01A3
:10591000DF91CF91089581FD739882FD7498089569
:1059200081FD739A82FD749A08956C9A6B9A87E050
:105930000C94902C80917B00886080937B0089EC94
:1059400080937C0085E080937A0080917A00806863
:1059500080937A0080917B0087FFFCCF80917B0051
:1059600085FFFCCF80917A00806480937A008091DB
:105970007A0086FDFCCF80917A00806480937A0063
:1059800080917A0086FDFCCF60917800709179005B
:1059900080917A008F7780937A0080E090E00E9477
:1059A000466127ED33EA40E95FE30E94F86126E6AD
:1059B00036E648E853E40E942C6020E030E040E204
:1059C00051E40E94F8610E941061CB01089580E0CB
:1059D00090E0089581E090E0089580937C008091AC
:1059E0007B00877F80937B0080917C00806C80931C
:1059F0007C0085E080937A0080917A0080688093B3
:105A00007A0080917B0087FFFCCF80917B0085FF2F
:105A1000FCCF80917A00806480937A0080917A0034
:105A200086FDFCCF109279001092780024E030E0DF
:105A300080E090E040917A00406440937A00409189
:105A40007A0046FDFCCF4091780050917900840F98
:105A5000951F2150310971F710927C0020917A0036
:105A60002F7720937A009695879596958795089538
:105A700080E00E94ED2CBC0180E090E00E94466135
:105A800027ED34E34FEE5CE30E94F86121EE3AE744
:105A900044E95EE30E942D60089581E00E94ED2CB0
:105AA000BC0180E090E00E94466122E23FEF4CECB6
:105AB0005BE30E94F861089582E00E94ED2CBC0136
:105AC00080E090E00E94466122E23FEF4CEC5BE315
:105AD0000E94F861089580E090E00895009729F40D
