:020000040020DA
:10200000A84200208D222000A30A2100A10A21005D
:10201000A10A2100A10A2100A10A2100000000005C
:10202000000000000000000000000000A10A2100E4
:10203000A10A210000000000A10A21000D0D2100CD
:102040002F0D2100350D21003B0D2100410D2100F8
:1020500000000000130D2100190D2100A10A21002C
:10206000A10A2100000000000000000000000000A4
:102070000000000000000000A10A21000000000094
:102080000000000000000000A10A2100A10A2100B8
:10209000A10A2100A10A2100A10A2100A10A210010
:1020A000A10A2100A10A2100A10A2100A10A210000
:1020B000A10A2100A10A2100A10A2100A10A2100F0
:1020C000A10A2100A10A2100A10A2100A10A2100E0
:1020D000A10A210000000000000000000000000034
:1020E00000000000000000000000000000000000F0
:1020F0000000000000000000055A2000155A2000D2
:1021000000000000000000000000000000000000CF
:1021100000000000000000000000000000000000BF
:1021200000000000000000000000000000000000AF
:10213000000000000000000000000000000000009F
:10214000000000000000000000000000000000008F
:10215000000000000000000000000000000000007F
:10216000000000000000000000000000000000006F
:10217000000000000000000000000000000000005F
:10218000000000000000000000000000000000004F
:10219000000000000000000000000000000000003F
:1021A000000000000000000000000000000000002F
:1021B000000000000000000000000000000000001F
:1021C000000000000000000000000000000000000F
:1021D00000000000000000000000000000000000FF
:1021E00000000000000000000000000000000000EF
:1021F00000000000000000000000000000000000DF
:1022000000000000000000000000000000000000CE
:1022100000000000000000000000000000000000BE
:1022200000000000000000000000000000000000AE
:10223000000000000000000000000000000000009E
:10224000000000000000000000000000000000008E
:10225000000000000000000000000000000000007E
:10226000000000000000000000000000000000006E
:10227000A10A2100ED58200011592000294B20000F
:10228000855B2000D1452000A10A210008B5094B3B
:10229000FF221A600848094A4824E369121A0849CB
:1022A00098470848084AA369121A0021984701F084
:1022B00075FEFEE7B4200D40400000200D07002011
:1022C0002842210010070020A73A002010B504463C
:1022D000436E9847034BE06E00221978BDE810402A
:1022E00005F01CB9923A00202DE9F04F0C4685B05C
:1022F00017461E46002B00F0698191F8B0341BB1DF
:1023000001F595600EF0E3FB94F8B1346BB93B78BE
:10231000012E84F8B134D4F8AC3403F10103C4F8CD
:10232000AC3400F05381012500E0002594F8B73467
:102330005BBB7819AE4240F24981D4F8AC3494F8D2
:10234000B82401330132052B10F8011B05F10105FA
:10235000C4F8AC3484F8B82405D900228021204682
:10236000FFF7B4FF32E194F8B634B4F8B2E401F008
:102370007F0202FB03E2DB0184F8B6340B06A4F80B
:10238000B224D7D4012384F8B734B4F8B224B2F518
:10239000007F05D994F8B13403F0F003302B04D159
:1023A0004FF001084FF000092FE0D4F8AC340132AF
:1023B0001E449642C4F8AC64C0F0088103E102F008
:1023C000F002302A2BD094F8B904731BC0F5007AC0
:1023D0009A4528BF9A4620445246791900F2BA40DD
:1023E0000DF0C4FCD4F8AC3494F8B92453445244EE
:1023F00084F8B924C4F8AC3455440022D1B28A45DB
:1024000002F10102FAD8AE4261D9B4F8B224D4F88C
:10241000AC340132934294F8B124D0D35DE094F807
:10242000BF26002ACFD194F8BE269AB97A5D691CDE
:102430001202581CB142A4F8BA26C4F8AC0444D223
:10244000795C02330A430235A4F8BA26C4F8AC34E6
:1024500084F8BE86B4F8BEA6BAF1010FB3D1B4F8C1
:10246000BC06B4F8BA26C5EB060B121A934528BF72
:10247000934620441FFA8BF31A46791900F2C46080
:1024800001930DF073FCD4F8AC24019BB4F8BA1698
:102490001D441344B4F8BC26C4F8AC345A4492B278
:1024A0009142A4F8BC260DD1631884F8BFA683F826
:1024B000C496B4F8B234023B5B1A9BB2A4F810374E
:1024C000A4F8123784F80E877DE70D467BE7B4F851
:1024D000B2240132934298D278E002F0F003502BFC
:1024E0006CD006D8302B38D0402B45D0202B6AD169
:1024F00019E0702B62D002D8602B5FD063E0902B84
:102500004FF0010247D0B02B5DD184F8992294F8A6
:10251000BB3494F8BA24032143EA0223A4F8B43468
:1025200004F2B4424CE094F8BB342BB104F2BB4249
:1025300082212046FFF7CAFEE18A012384F89932FE
:10254000244A2346C90104F1180004F0E7FD0823DA
:10255000002284F86030114632E004F2BA43C4F835
:10256000083794F8B9342046A4F80C370023A4F8AF
:1025700012370EF0B6FA26E0012394F8BA2484F854
:10258000993294F8BB34052143EA0223A4F8B43409
:1025900004F2B44214E084F8992294F8BB3494F81D
:1025A000BA24022143EA022394F8BC24ADF80C308B
:1025B0008DF80E20A4F8B43403AA01E0002284218F
:1025C0002046FFF783FE012384F8B034002005B0D5
:1025D000BDE8F08FD925200010B590F838308BB1C8
:1025E00000F22C74022380F8603020460FF091F83E
:1025F000204608F039FD2046BDE810403422002175
:102600000DF08EBC034B0246BDE81040197802481D
:1026100004F084BF942300206804002030B50446F1
:102620000523002580F86030012385B0A0F86830CC
:10263000A0F89C5280F8385000F595600EF047FAEB
:102640000E4B84F8745203930D4B04F22C750293D5
:1026500004F174024FF400730092214604F2A622A2
:102660000193284608F086FC2846B4F8282704F58C
:10267000E36105B0BDE8304008F0B2BC852620001B
:10268000E922200013B50C468DF80720042A3BD818
:10269000DFE802F0200303032D001C4B0A461C4810
:1026A000197804F03BFF032384F8603004F118002C
:1026B00004F076FD0DF1070201212046FFF706FE2A
:1026C00020460EF026FA637D012B1DD12046FFF730
:1026D000A5FF19E0062381F86030012381F87432E8
:1026E0000C4B0A460A48197804F018FF0CE0B1F8C0
:1026F0004E372BB9012381F8743201F174030B6753
:1027000004F1180004F030FD02B010BD9C2300203D
:10271000680400209723002038B51D4C2578002D33
:1027200034D104F089FE1B4B18701B4B187004F059
:1027300083FE1A4B187004F07FFE194B187004F0DA
:102740007BFE184B187004F077FE174B187004F0DE
:1027500073FE164B187004F06FFE154B187004F0E2
:102760006BFE144B187004F067FE134B1870134B7C
:10277000187004F061FE124B187012480EF020FE23
:102780002946114804F0F2FE0123237038BD00BF32
:102790009A2300209F2300209523002097230020C8
:1027A0009B2300209D2300209E23002098230020AF
:1027B00094230020923A00209C230020962300209E
:1027C000992300202407002068040020F8B51F4644
:1027D000137804460E46154633B34FF4EC620021DD
:1027E0000DF09EFB294604F10C000EF0F9F9BDF83E
:1027F0001820012300256375A4F8A422A4F86830EA
:1028000004F595606766E666A4F89C5284F8385033
:102810000EF05DF984F87452FFF77EFF21460348FD
:102820000EF0EEFD2846F8BD8220F8BD24070020FA
:102830007FB50446084694F8601003291DD8E3824A
:1028400004F174032367002384F89932237DA4F8EC
:10285000282743F0020323756946C4F8140704F5DA
:10286000E3660EF062FF9DE80F0086E80F00044B60
:1028700022461978034804F051FE002004B070BDD0
:102880009F2300206804002090F860300246082B47
:1028900007D1092380F86030024B0348197804F00F
:1028A0003DBE70479B230020680400202DE9F341C2
:1028B0008DF8071040F2A741038806468B42154663
:1028C00000F02A83B3F5956F0CD240F282418B421F
:1028D0001ED040F299418B4200F00983002B40F05A
:1028E000AF8069E040F2C6418B4200F00D8405D80C
:1028F00040F2B9418B4200F09283A1E040F2D34113
:102900008B4200F06A85B3F59C6F00F0898697E0F2
:10291000BF4B9DF807201B789A4207D1BD4B284634
:102920001D600A2385F860300EF0F3F8BA4B9DF86D
:1029300007201B789A4204D1B64B28461D60FFF74A
:102940006DFEB64B9DF807201B789A4237D0B44AEB
:102950009DF807301178994206D1AE4B1D6095F86D
:102960006030092B00F0E982AE4B9DF807201B7800
:102970009A4200F04483AC4B9DF807201B789A42A2
:1029800000F0B283A94B9DF807201B789A4206D12C
:10299000A04B1D6095F87432012B00F01585A44BF7
:1029A0009DF807201B789A4206D19A4B1D6095F836
:1029B0007432012B00F01F8640F282433CE0954BBD
:1029C0001D60B5F8A432A5F8543795F87432012B80
:1029D000BDD10023A5F89C328E4F3C68B4F89C32E0
:1029E000B3F5D17F00F08B8157D8B3F5CD7F00F0E0
:1029F0000A8132D840F29712934200F0D980B3F5A1
:102A0000CC7F22D2002B00F08E80B3F5CA7F40F03D
:102A10006A8294F87432002B40F0B3803B6893F8DC
:102A200060300A2B93D0834B00221978824B1868B0
:102A300004F074FD40F299433380012000F031BF6F
:102A400000233380032000F02CBF00F0BF8040F251
:102A50009912934200F0C88045E240F29D129342E1
:102A600000F01481B3F5CF7F09D240F29B1293425C
:102A700000F0EF80B3F5CE7F00F0F98033E240F252
:102A80009F12934200F01E81B3F5CF7F40F20C817C
:102A9000B3F5D07F00F0248125E240F2B3129342D7
:102AA00000F0A281B3F5DA7F20D240F2A712934260
:102AB00000F05A81B3F5D47F09D2B3F5D27F00F08C
:102AC000348140F2A512934200F03E810BE240F2C5
:102AD000A912934200F06581B3F5D47F40F2528190
:102AE00040F2AB12934200F06D81FCE1B3F5DD7F63
:102AF00000F0BC8109D8B3F5DA7F00F0848140F2A0
:102B0000B712934200F09081EDE1B3F5DF7F00F062
:102B1000CD81B3F5E57F00F0CE8140F2BB12934248
:102B200040F0E181B1E1228A102384F8783202B1C9
:102B3000023202F10C03B4F8542002B10232134401
:102B4000B4F85C2002B102321344B4F8402002B160
:102B500002321344B4F8482002B102321A44C4F8D5
:102B60007C2204F5217104F520700DF09DFF94F88E
:102B70008432042B05D9002281212046FFF7A6FBD1
:102B8000B1E194F8781220460DF0F3FF20B14FF434
:102B9000CA73A4F89C323CE794F8842204F52071AF
:102BA00020460DF0F6FF40B140F29713A4F89C3296
:102BB00094F87432002BEFD130E7002120460DF05D
:102BC000D8FF40B14FF4CC73A4F89C3294F874321F
:102BD000002BF2D122E7062120460DF0CAFF40B1BA
:102BE00040F29913A4F89C3294F87432002BF2D17D
:102BF00014E70622114920460DF0CBFF00B34FF435
:102C0000CD73A4F89C3294F87432002BF1D105E70F
:102C10009C230020200700209F23002097230020D2
:102C20009B230020942300209D2300209E2300202E
:102C30009823002099230020980800200E2F2100BF
:102C4000032120460DF095FF40B140F29B13A4F8FC
:102C50009C3294F87432002BF2D1DFE6217D2046BD
:102C60000DF087FF40B14FF4CE73A4F89C3294F876
:102C70007432002BF2D1D1E6E18A2046090A0DF028
:102C800078FF40B140F29D13A4F89C3294F874325E
:102C9000002BF1D1C2E6A17D20460DF06AFF40B1C4
:102CA0004FF4CF73A4F89C3294F87432002BF2D115
:102CB000B4E6002120460DF05CFF40B140F29F13C6
:102CC000A4F89C3294F87432002BF2D1A6E6217C51
:102CD00020460DF04EFF40B14FF4D073A4F89C3263
:102CE00094F87432002BF2D198E6228AE1682046EB
:102CF0000DF04FFF40B14FF4D173A4F89C3294F81B
:102D00007432002BF1D189E6237D5A0704D494F95B
:102D10001430002B5BDA5EE0002120460DF029FF25
:102D200040B14FF4D273A4F89C3294F87432002B63
:102D3000F2D173E694F8401020460DF01AFF40B12E
:102D400040F2A513A4F89C3294F87432002BF1D110
:102D500064E6B4F84020E16B20460DF01AFF40B164
:102D600040F2A713A4F89C3294F87432002BF0D1EF
:102D700054E6002120460DF0FCFE40B14FF4D47320
:102D8000A4F89C3294F87432002BF2D146E694F801
:102D9000481020460DF0EDFE40B140F2A913A4F812
:102DA0009C3294F87432002BF1D137E6B4F8482005
:102DB000616C20460DF0EDFE0028A8D040F2AB1368
:102DC000A4F89C3294F87432002BEFD126E6237DD0
:102DD0005B0642D42DE0002120460DF0CAFE40B132
:102DE00040F2B313A4F89C3294F87432002BF2D161
:102DF00014E694F8541020460DF0BBFE40B14FF499
:102E0000DA73A4F89C3294F87432002BF1D105E601
:102E1000B4F85420216D20460DF0BBFE0028D6D01A
:102E200040F2B713A4F89C3294F87432002BEFD11F
:102E3000F4E520460DF08CFE072384F860304FF453
:102E4000A061201D0EF07FFA04F595600DF03FFEA5
:102E50004FF4E573A4F89C322DE0002120460DF0DC
:102E600088FE40B14FF4DD73A4F89C3294F87432BC
:102E7000002BF2D1D2E594F85C1020460DF079FEDB
:102E800040B140F2BB13A4F89C3294F87432002B8A
:102E9000F1D1C3E5B4F85C20A16D20460DF079FEB8
:102EA0000028C6D04FF4DF73A4F89C3294F8743233
:102EB000002BEFD1B2E594F8993204F10408012B0C
:102EC00007D140460EF051FA48B12046FFF7DCFC2E
:102ED00005E040460EF049FA0028F2D19EE504F5DF
:102EE00095600DF0F4FD0023A4F89C322FE5BB4B58
:102EF0009DF807101B788B4214D0B94B1B788B427E
:102F00003FF66AADB74B1B788B42FFF465ADB64B0D
:102F1000186804F003FB5FE5B04B9DF807101B78C1
:102F20008B4212D1B14B0A221B68022083F8602029
:102F30000022A3F89C2200F0B4BC95F87432012B57
:102F400058D10023A5F89C3204E0A54B1B788B4296
:102F500040F2E88140F2E512A44F3C68B4F89C329C
:102F6000934212D0B3F5F37F01D22BB135E01AD0E2
:102F7000B3F5F87F28D030E0E02120460DF0F9FDD0
:102F800040B140F2E513A4F89C3294F87432002B5F
:102F9000F2D1D1E1002120460DF0EBFD40B14FF41C
:102FA000F373A4F89C3294F87432002BF2D1C3E18D
:102FB00020460DF0CDFD4FF48071201D0EF0C3F9B9
:102FC0004FF4F873A4F89C3294F874322BB9201D96
:102FD0000EF0CBF9002800F0AF810023A4F89C325A
:102FE00038680DF096FD0DF1070201213868FFF7F2
:102FF0006DF9B9E42A467E4804F090FAB4E47B4BBC
:103000001D6095F87432012B7FF4B5AC95F86030F3
:10301000082B7FF4B0AC0023A5F89C320BE06F4B7B
:103020009DF807101B788B423FF47CAF6C4B1B78EC
:103030008B4240F2928140F2D2216C4A14681746CA
:10304000B4F89C328B4214D001D84BB148E040F226
:10305000D32293421BD040F2DE2293422FD03FE096
:10306000C02120460DF085FD40B140F2D223A4F8E6
:103070009C3294F87432002BF2D178E10021204682
:103080000DF077FD40B140F2D323A4F89C3294F8C0
:103090007432002BF2D16AE120460DF059FD012374
:1030A00084F8383004F595600DF011FD4FF4A061FF
:1030B000201D0EF048F940F2DE23A4F89C3294F86B
:1030C000B0343BB104F595600DF001FD002384F8A8
:1030D000383005E0201D0EF048F90028F2D146E115
:1030E0000023A4F89C3246E4404B1D6095F87432EE
:1030F000012B7FF447AC95F86030082B7FF442AC8D
:103100000023A5F89C320BE0344B9DF807101B7888
:103110008B423FF407AF324B1B788B4240F2388131
:1031200040F21622314B1C689846B4F89C729742C4
:1031300000F089800ED8B7F5047F49D001D817B3C5
:10314000EBE040F213239F4260D040F215239F42F0
:103150006AD0E2E040F21B239F4200F0A480B7F562
:10316000077F08D2B7F5067F7DD040F219239F4232
:1031700000F08880D1E000F0A58040F225239F4236
:1031800000F0B580C9E0B4F88C228223053284F8BF
:103190007832C4F87C2204F5217104F520700DF01A
:1031A00083FC94F88432042B08D93A4681212046C6
:1031B000FFF78CF8A4F89C72FFF7E4BB94F8781240
:1031C00020460DF0D6FCA8B14FF40473A4F89C324D
:1031D00094F87432002BF1D1E4E000BF9C2300206E
:1031E0009523002096230020980800202007002027
:1031F0006804002094F8842204F5207120460DF024
:10320000C8FC40B140F21323A4F89C3294F8743205
:10321000002BEFD1C6E0002120460DF0AAFC40B102
:1032200040F21523A4F89C3294F87432002BF2D1AA
:10323000B8E094F8861220460DF09BFC40B140F2B5
:103240001623A4F89C3294F87432002BF1D1A9E033
:10325000B4F88C122046090A0DF08BFC40B14FF4F3
:103260000673A4F89C3294F87432002BF0D199E0E4
:1032700094F88C1220460DF07CFC40B140F21923EA
:10328000A4F89C3294F87432002BF1D18AE0B4F89F
:103290008C22D4F8881220460DF07BFC40B140F21D
:1032A0001B23A4F89C3294F87432002BEFD179E000
:1032B00094F8981220460DF05CFC40B14FF407736F
:1032C000A4F89C3294F87432002BF1D16AE02046C5
:1032D0000DF03EFC4FF4A061201D0EF034F804F513
:1032E00095600DF0F4FB40F22523A4F89C3294F88D
:1032F0009932271D012B0AD138460EF036F804F515
:1033000095600DF0E4FB002384F86A3005E0384650
:103310000EF02BF80028EFD144E00023A4F89C32F3
:10332000FFF730BBB84B1B788B42FFF413AEB74BA3
:10333000186804F0F3F80DE63B6893F860300A2B48
:103340003FF44EAEB24B00221978B04B186804F02F
:10335000E5F840F2A743FFF76FBBAB4B1B788B42FE
:10336000FFF469AEA94B186804F0D8F863E63B682F
:1033700093F86030082B7FF4FEAAA54B0022197841
:10338000A24B186804F0CAF840F2B943FFF754BBE7
:103390009D4B1B788B42FFF4C3AE9C4B186804F026
:1033A000BDF8BDE6D8F8003093F86030082B7FF404
:1033B000E9AA974B00221978944B186804F0AEF8EC
:1033C00040F2C643FFF738BB95F86030082B7FF416
:1033D000E6AA0023A5F89C320BE08E4B9DF807105F
:1033E0001B788B423FF49EAD8B4B1B788B4240F297
:1033F000E6808A4B1C689846B4F89C72B7F5157F36
:103400007DD011D840F24F239F424AD0B7F5147FA8
:1034100001D20FB3CEE040F251239F4252D040F28E
:1034200053239F425CD0C5E040F257239F4200F0F7
:103430008580B7F5167F04D240F256239F426ED0A6
:10344000B8E040F259239F4200F0898040F26223A5
:103450009F4200F09980ADE0B4F88C22A2230432A0
:1034600084F87832C4F87C2204F5217104F52070C8
:103470000DF01AFB94F88432042B08D93A468121C6
:103480002046FEF723FFA4F89C72FFF788BA94F851
:10349000781220460DF06DFB40B140F24F23A4F8A6
:1034A0009C3294F87432002BF1D192E094F884228B
:1034B00004F5207120460DF06CFB40B140F2512321
:1034C000A4F89C3294F87432002BEFD181E00021F3
:1034D00020460DF04EFB40B140F25323A4F89C323D
:1034E00094F87432002BF2D173E094F886122046DF
:1034F0000DF03FFB40B14FF41573A4F89C3294F8E3
:103500007432002BF1D164E0B4F88C122046090A21
:103510000DF02FFB40B140F25623A4F89C3294F8F2
:103520007432002BF0D154E094F88C1220460DF048
:1035300020FB40B140F25723A4F89C3294F8743237
:10354000002BF1D145E0B4F88C22D4F88812204643
:103550000DF01FFB40B140F25923A4F89C3294F8BF
:103560007432002BEFD134E020460DF0F1FA4FF425
:10357000A061201D0DF0E7FE04F595600DF0A7FA9F
:1035800040F26223A4F89C3294F89932271D012B53
:103590000AD138460DF0E9FE04F595600DF097FA72
:1035A000002384F86A3005E038460DF0DEFE00287E
:1035B000EFD10EE00023A4F89C32FFF7F0B9124BD4
:1035C0001B788B42FFF415AF104B186803F0A6FF71
:1035D0000FE7D8F8003093F86030082B7FF4DFA9AC
:1035E0000B4B00221978094B186803F097FF40F243
:1035F000D343FFF721BA95F86030082B7FF4DCA99C
:103600000023A5F89C3217E096230020980800209C
:10361000992300209C2300209523002020070020D0
:10362000A14B9DF807101B788B423FF47BAC9F4B5E
:103630001B788B4240F21A819D4D2C68B4F89C3265
:10364000B3F5267F00F0958011D840F29322934283
:103650005FD0B3F5257F01D223B302E140F295227A
:10366000934267D040F29722934273D0F9E040F240
:103670009D22934200F0AE8009D840F29A229342F4
:1036800000F08880B3F5277F00F09580E9E040F2F4
:10369000A222934200F0AF8040F2B322934200F0A6
:1036A000CA80DEE094F8982294F89A12530043F00E
:1036B0003003DBB2012984F8783204BF43F0010300
:1036C00084F87832B4F88C12D4F894320B440AB9E6
:1036D000023300E00433C4F87C32D4F87C2204F5D1
:1036E000217104F520700DF0DFF994F88432042B79
:1036F00005D9002281212046FEF7E8FDB1E094F8CB
:10370000781220460DF035FA40B140F29323A4F828
:103710009C3294F87432002BF1D1B1E094F88422F9
:1037200004F5207120460DF034FA40B140F29523A3
:10373000A4F89C3294F87432002BEFD1A0E0B4F8D6
:103740008C122046090A0DF014FA40B140F297237A
:10375000A4F89C3294F87432002BF0D190E094F8E5
:103760008C1220460DF005FA40B14FF42673A4F8F0
:103770009C3294F87432002BF1D181E0B4F88C22A1
:10378000D4F8881220460DF004FA40B140F29A2392
:10379000A4F89C3294F87432002BEFD170E094F8C6
:1037A0009832E3B1002120460DF0E3F940B14FF427
:1037B0002773A4F89C3294F87432002BF2D15FE0A6
:1037C00094F8861220460DF0D4F940B140F29D23C2
:1037D000A4F89C3294F87432002BF1D150E0B4F884
:1037E0009422D4F8901220460DF0D3F940B140F263
:1037F000A223A4F89C3294F87432002BEFD13FE05E
:1038000020460DF0A5F94FF4A061201D0DF09BFDA1
:1038100094F898222AB9274BE06E197803F07EFEBF
:1038200018E0012A16D104F595600DF050F940F228
:10383000B323A4F89C3294F89932271D012B03D1AD
:1038400038460DF092FD05E038460DF08EFD00285B
:10385000F6D115E004F595600DF039F9002384F8F0
:103860006A300023A4F89C32FFF7A6B8124B1B78ED
:103870008B42FFF4E1AE114B186803F04FFEDBE61C
:103880002B6893F86030082B7FF496A80C4B00222D
:1038900019780A4B186803F041FE4FF49C63FFF758
:1038A000CBB802B0BDE8F0819C2300209523002016
:1038B00020070020923A002096230020980800203C
:1038C0009923002070B51E4690F860300446082BFE
:1038D00020D190F86A500121F5B980F86A10B0F84B
:1038E0006810C0F88822023189B2A0F86810A0F8E8
:1038F000861210460CF040FC084BA4F88C0284F8A9
:10390000986284F8995222461978054803F006FE19
:10391000284670BD812070BD084670BD9D230020E3
:103920006804002070B51E4690F860300446082BED
:103930002BD190F86A5001214DBB80F86A10B0F885
:1039400068109DF81830023189B2A0F86810A0F80C
:10395000861280F89A32C0F8882210460CF00CFCCF
:10396000049BA4F88C02C4F894329DF81430C4F877
:10397000906284F89832074B84F89952224619785D
:10398000054803F0CBFD284670BD812070BD084678
:1039900070BD00BF9823002068040020812810B566
:1039A0000C461DD1104A00201368052123F0200386
:1039B000136052F8203C23F0200342F8203C0822F8
:1039C00001F05CF8094BFF221A60094B00201870C7
:1039D000084B14B101221A7010BD1C70204610BD96
:1039E0004FF0FF3010BD00BF20940D4080900D407F
:1039F000A1230020A0230020431E022B2DE9F74F16
:103A0000814600F2AC80584F3B78002B40F09B8001
:103A100001233B70554B564E1B78564D002B00F042
:103A200096803368544C43F020033360FF232B60AF
:103A300000F08CFD241A00F089FDC44202D500F08C
:103A400005FFF8E74D4C0023236023712B6000F045
:103A50007DFDDFF82C81C0EB080800F077FD18EB46
:103A6000000F02D500F0F2FEF7E74FF00008C24663
:103A7000FF232B60142000F045FD33683F4A23F0FC
:103A8000200333602B685FFA83FB00232968D8B2D8
:103A900059450AD101200192009300F033FD009BAB
:103AA000019A0133FF2BF1D118462B68FF285FFAEA
:103AB00083FB1BD0BAF1030F11D91AF0010F0ED1FD
:103AC0004FEAD801635C08284FEA4303DBB288BFA2
:103AD00043F0010308F1010853545FFA88F80AF132
:103AE000010A5FFA8AFABAF1550FCED1B8F1270F61
:103AF0002DD92278637821491344A2781344E278BF
:103B000013442279DBB29A4221D13368B9F1020F12
:103B100023F0200333604FF0FF032B600BD0B9F18B
:103B2000030F12D08878CB7800F07F0000223A7023
:103B300003EB002015E04B78087803EB002000230E
:103B40003B7080B20DE0FF200BE0002009E03368FD
:103B500023F020033360FF232B6000233B704FF0E2
:103B6000FF3003B0BDE8F08FA1230020A023002088
:103B700000940D4080900D4000E0FFFFA223002044
:103B800071FDFFFF38B50C46054610B94FF0FF3008
:103B900038BD0029FAD00320FFF72EFF0130F5D001
:103BA000084A0949937803F07F00D37803EB002398
:103BB0002B60002053780870117803EB01239BB22F
:103BC000236038BDA2230020A123002081380128D2
:103BD0009ABF024B18780020704700BFA72300202F
:103BE00010B5038804466BB1FA2B03D00023038081
:103BF000032010BD822907D10DF02FF8034B0020C0
:103C00001B689847FA232380012010BD982D0020BF
:103C1000014803F0C3BC00BF7804002030B5812800
:103C200087B0039105D0431E032B3DD94FF0FF34DD
:103C300018E159B38D4B022211461046009303231D
:103C400002F002F88A4B00221A600324A02302210A
:103C500005A88DF814308DF815400CF0EAFF002807
:103C6000E4D105A9292002F085F80028DED19DF8CD
:103C7000143003F00F03A342D8D1012205A9AA20D2
:103C80000CF0FAFF002800F0AE80CFE7A0238DF8FB
:103C9000151005A802218DF814300CF0CAFF044657
:103CA0000028C3D1734B42E0724B1B78002BBDD070
:103CB000032813D1704A0221136805A823F00103D9
:103CC0001360A6238DF8143000238DF815300CF006
:103CD000B0FF003018BF01204442C3E0042828D1BF
:103CE00012290D4601D00229A0D8A123022105A83E
:103CF0008DF814308DF815500CF09BFF0446002809
:103D000094D1122D03D15D4B01221A7008E0012DD0
:103D10000AD0022D04D0002D40F0A480584B06E0BC
:103D2000574B02221A709DE0554B1D709AE01C7093
:103D300098E09DF80C3001288DF815309DF80D3075
:103D40008DF8163001D1A42302E0022802D1A2236B
:103D50008DF81430032105A80CF06BFF00287FF4C8
:103D600065AFA6238DF814300221122305A88DF823
:103D700015300CF05EFF044600287FF457AF414A2F
:103D80000321136823F00103136052F8203C23F051
:103D9000010342F8203C52F81C3C23F0010342F896
:103DA0001C3C52F8183C23F0010342F8183C52F82E
:103DB000143C23F0010342F8143C0246324800F060
:103DC000FFFD2146314803F0D1FB2B4A2146136801
:103DD000032043F001031360042200F04FFE032090
:103DE00000F05AFD3EE09DF8143003F0F003502B34
:103DF0007FF41CAF012205A9A1200CF03DFF002893
:103E00007FF414AF9DF814301C4A03F010011170B8
:103E10001B4A03F003031370A4238DF814302146CA
:103E2000FF2305A88DF815308DF816300CF001FF32
:103E300000287FF4FBAEA2238DF815008DF8160044
:103E4000214605A88DF814300CF0F3FE00287FF40D
:103E5000EDAE0CF002FF044600287FF4E7AE01222D
:103E6000044B5FE7204607B030BD00BFA0860100CD
:103E7000982D0020A723002010C40D40A823002067
:103E8000A923002020C40D40113C2000780400200C
:103E900007B53E4B1B7813B94FF0FF3073E0012894
:103EA000FAD1022201A9AC200CF0E6FE0028F3D1E1
:103EB00002220DF10601AE200CF0DEFE0028EBD14F
:103EC0009DF805309DF804209DF8071042EA032272
:103ED0009DF8063043EA01232D49097802299CBF49
:103EE0002C4830F811002C49097801B900014243EF
:103EF0005843920A4FEA90231ABF9902B1FBF2F19C
:103F0000114601314908402905D84FF4F970504352
:103F10004FF4D9722FE0802905D84FF40570504333
:103F200040F2D12227E0C02905D840F23F2050437B
:103F300040F27B321FE0B1F5807F05D84FF41C7052
:103F4000504340F2FE3216E0B1F59C7F05D840F2B6
:103F50006F1050434FF4FE720DE0B1F5CD7F03D8E2
:103F6000D2205043FB2206E040F29A20814205D83D
:103F700018205043122202FB130000E0002000F53D
:103F80000050C0F38F3003B05DF804FBA72300207E
:103F9000A9230020082F2100A8230020F7B500F056
:103FA0005DFC00F05DFD00F0B3FC00F06FFA01F085
:103FB000D7FD0DF0BFF900F04BFD00F0C9F801206E
:103FC0000CF076FE03F046FA00F034FC002000F01E
:103FD00055FB012000F052FB4949002000F014FC81
:103FE00003F07CFB0CF09BFE04200CF061FE4548C6
:103FF0000CF098FF44480CF095FF00F0E9F9002020
:1040000003F08EFB01F098FC0021404803F0AEFA6B
:1040100003F04EF80CF078FE00F0A8FD00F0C4FDAF
:1040200008F026FE0821684601F0BEFD9DF8073025
:104030009DF80670364C43EA07276B4603CB206099
:104040006160344802F052FC0025615D3248013560
:1040500002F04CFC072D2E4EF7D1304DF17930484F
:1040600002F044FCEC6A4AF6CD310220A047394602
:104070000320A0471A210120A047694608226B6B44
:104080000B209847274802F031FC274B18680CF0AA
:1040900049FF264802F02AFC254B18680CF042FF25
:1040A000244802F023FC244B18680CF03BFF234A01
:1040B000336813607368536008F010FF00212048D4
:1040C00003F054FA00211F4803F050FA1E4B01215F
:1040D0009B68812098470DF003F91C480DF0F6F815
:1040E00000F0AEFB02200CF0E3FD00F0AFFB03F0AC
:1040F000C9F910F0FF0FF8D101F0C6FCF5E700BFD9
:1041000099762000592F2100732F2100C004002030
:104110009C3A0020982F2100B62F2100302D21003D
:10412000BC2F2100C22F2100882D2100C92F210082
:10413000942D2100D02F2100BC2D2100A82D00207E
:1041400054050020E0040020382C2100F82D210027
:1041500008B500F0DDF8024B00221A7008BD00BF60
:10416000AA230020024A13781843107000F0F4B814
:10417000AA230020034A137823EA0000107000F0FD
:10418000EBB800BFAA23002020B1012805D1044BC1
:1041900018787047034B186870470020704700BFBD
:1041A000AB23002020900D4010B5094A0020137861
:1041B00001331370074B197803F0B0F9BDE81040D4
:1041C00005490023054A0968054802F0A7BF00BF5A
:1041D000AB230020933A002050070020A941200083
:1041E00028070020812810B50C462AD0B0F5807F22
:1041F00039D0802839D103F01FF91D4B1D4A1870A2
:104200001368032123F00803136052F8203C0020B8
:1042100023F0080342F8203C52F81C3C23F008032A
:1042200042F81C3C52F8183C43F0080342F8183C92
:10423000042200F023FC032200210F4800F0C0FB01
:1042400013E00E4B1A6831B142F008021A600020E8
:1042500000F022FB05E022F008021A60084600F098
:1042600029FB204610BD064B1960012010BD00BF80
:10427000933A002020940D408542200010940D4078
:104280005007002008B50F480DF06FF8C8B108219D
:104290000C480DF058F80C4B196869B10B4B002213
:1042A0001A700B4B1B6823B90A4A0B4802F036FF01
:1042B00002E0094802F074FFBDE80840074803F037
:1042C000DBBA08BD4807002050070020AB230020C0
:1042D00020900D40A941200028070020382C210003
:1042E000084A136823F00403136052F8203C43F09B
:1042F000040342F8203C044B00221A60034B0122C5
:104300001A70704720C40D4010C00D40AC2300202F
:104310000D4A0E49136823F0C003136052F8203C85
:1043200043F0C00342F8203C094B00221A600B689E
:1043300023F010030B6051F8203C43F0100341F8C8
:10434000203C044B1A60704720A40D4020C40D404F
:1043500000A30D4040C00D4000F0020202F0FF013A
:104360000B4B12B1FF221A6000E0196000F004024A
:1043700002F0FF01074B12B1FF221A6000E0196042
:1043800010F00100044B1ABFFF221A60186070473A
:1043900000A20D4000A10D4040C00D40044B186824
:1043A000C0F30720030904BF1030C0B2704700BF3C
:1043B0001C300D40054B1868C0F3C21001289ABF8D
:1043C000C0F1020040034FF40040704714300D402C
:1043D0002DE9F04788B0FFF7E1FF174B48251C682F
:1043E000AB68074698476B68804698470546FFF7D5
:1043F000E1FF064600F0CCFA814600F0D5FA82468D
:1044000000F07CFAB60A04F00103AD0AC4F34004DC
:1044100006900393CDF814A0CDF810900294019665
:10442000009507F00F03C7F307124146034802F057
:104430005DFA08B0BDE8F0871C300D40DE2F21008A
:10444000F8B500F083F80F4B0024D3E900673A4633
:10445000B04238BF7A1C15460443C3E90045DFF873
:1044600028E0DEE90001821B61EB070312196B41B2
:10447000CEE9002302F048FF18B1BDE8F84002F091
:10448000C7BEF8BD10070020180700200F4B104AC8
:104490001A6053F8042C42F0050243F8042C53F838
:1044A000042C42F0020243F8042C0A4A136843F039
:1044B00001031360084B00221A60042243F80C2CFD
:1044C000012243F8082C0F22DA62704714E000E062
:1044D00047E8010008200D400C000340034BD3E9DE
:1044E0000023100A40EA0360704700BF1007002055
:1044F000034BD3E90023D00B40EA4340704700BF91
:1045000018070020054B18601C3B1A6842F0010296
:104510001A601A68D207FCD4704700BF2800034015
:1045200010B5064C236823F001032360FFF788FFD2
:10453000236843F00103236010BD00BF10E000E0DA
:10454000014B1868704700BF54070020074B084A0A
:10455000196804331B681268120442EA0323054AEF
:104560000B43106843EA0060704700BF40500D40A5
:1045700048500D404C500D4010B50446114A136888
:10458000DB07FCD50CF0CFFBFFF7E0FF231A062B6F
:10459000D8BFC41D0C4B220E1A60C4F3074243F867
:1045A000042CC4F3072243F8082CE2B243F80C2C85
:1045B0000CF0B5FB054B91201C60BDE8104000F0ED
:1045C0006BB900BF50500D404C500D4054070020B7
:1045D00008B501F03DFA064B002291201A6000F068
:1045E00077F9912000F066F9BDE8084002F0E2BFDB
:1045F00054070020064B1B681B075FBF054B18685C
:1046000080F00800C0F3C00048BF0020704700BF22
:1046100018C0004018D00040164A2C2303FB00238A
:104620004FF6BF7270B5DC680546236C62649BB2BE
:1046300013F050020DD0104EA369DB0608D456F8D3
:1046400025301BB12068C0B29847F5E72368F3E72F
:1046500070BD13F4D06F0BD04FF440732363FF236E
:104660006360E36AE262E362236B43F00103236366
:1046700070BD00BF482C21005807002001282DE9FB
:10468000F74F064600F2B2802C254543594F7C195E
:1046900094F92080B8F1000FC0F2A88094F922901C
:1046A000B9F1000FC0F2A280534801F047FA534A13
:1046B0007B591168E5680B4313605168636894F98E
:1046C00021A00B4353609168A3685FFA89FB0B43F9
:1046D00093600023C5F8C83F23690AEBC8021A603B
:1046E00094F92330227D00939DF8003058461946F6
:1046F000019300F0CDF9019B08221946584600F0BD
:10470000BDF93F4A4FEA0939009959F802000123DF
:1047100003FA01F1014349F802104FEA083858F84A
:10472000020003FA0AF1014348F802105021A9637C
:10473000A96B94F9240041F4D061A9630221696353
:104740004FF440712963A16900286962E169A96297
:104750004FF07001E962154616DB94F92510A2F5B9
:10476000A64241EAC0041C3A1460040362598B401B
:10477000134363510022C9B2C0B200F07FF9214A4D
:10478000136843F4004313602C2303FB067393F96F
:104790002640002C1BDB93F927A05FFA84F85FFA10
:1047A0008AF9012249464046240300F071F9625912
:1047B000012303FA0AF31343635108224946404692
:1047C00000F05CF90F4A136843F4804313602C2314
:1047D00003FB0676F26896F82800136B43F001039A
:1047E000136303B0BDE8F04F00F056B803B0BDE866
:1047F000F08F00BF482C2100F545200028200D40F7
:1048000020940D4030D0004001289CBF014B43F85C
:104810002010704758070020012808D8044B2C228C
:1048200002FB0030C3689A699206FCD41960704795
:10483000482C2100014B00221A60704700500D40A7
:10484000014B08221A60704700500D40024BA02215
:104850001A6050221A60704700500D40074A084BFA
:104860001A60084B80321A60074B80321A60074B7F
:1048700080321A60064B074A1A60704700E100E078
:104880006C070020600700206407002068070020F4
:1048900008ED00E000202000054B41091A6800F0F7
:1048A0001F00012303FA00F042F82100704700BF07
:1048B0006C070020054B41091A6800F01F00012316
:1048C00003FA00F042F82100704700BF60070020A3
:1048D000054B41091A6800F01F00012303FA00F09C
:1048E00042F82100704700BF68070020024B18689B
:1048F000C0F38150704700BF04200D4008B5FFF79A
:10490000F5FF024B53F8200008BD00BFA02C21008A
:1049100038B5164D164C2B68012223F040032B604E
:104920002368062123F040032360032000F0A6F84B
:104930002B68012223F080032B602368072123F0DA
:1049400080032360032000F099F80A4A0A4B0B49C0
:104950001A600A680A4B1340084A002BF9D1136801
:104960005901FCD413685B01FCD538BD20C40D404F
:1049700000C40D400101020000200D4004200D4044
:1049800000000101014B08221A60704774200D409D
:10499000034B04481B6803F007031841704700BF2E
:1049A00004200D400048E801034B04481B68C3F392
:1049B00002231841704700BF04200D400048E80161
:1049C000024B02EBC10243F822007047700700203F
:1049D000F8B507460E46094D002405EB411547FA88
:1049E00004F3DB07E1B204D555F824300BB13046AF
:1049F00098470134082CF2D1F8BD00BF70070020A1
:104A00002DE9F04780464FEA0837DFF8409007F17C
:104A1000804505F5592501F01BF8D5F8186457F8BD
:104A200009304FEAC80A23FA0AF446EA0400E4B25D
:104A30004146C0B2F6B204FA0AF4FFF7C9FFC5F85E
:104A40001C6447F80940BDE8F08700BF18970D4087
:104A50008022002101480BF063BA00BF70070020DC
:104A6000034A044B1A60044B803A1A60704700BF37
:104A700080400D40F4070020F0070020034B01EBBD
:104A8000C0011B6843F82120704700BFF4070020D5
:104A9000034B01EBC0011B6843F82120704700BFA6
:104AA000F00700200E2870B50BD1154B154E1C6871
:104AB00044F002051D60356825F03F0343F0010313
:104AC0003360114E336823F0FF031A43114301434F
:104AD0000E4A316013681B06FCD50D4B0D4A1B684E
:104AE00012680E2803F0FC0343EA022308BF054ABC
:104AF0001BB204BF1560024A184608BF146070BD9F
:104B000034000144F486084008700D4000700D40E8
:104B10000C700D4010700D40024B1868B0FA80F018
:104B20004009704700B7084010B58F20064CFFF7CA
:104B3000CFFE8F20FFF7BEFE206818B102F02EFDD9
:104B40000023236010BD00BFF8070020064A136849
:104B500043F002031360536843F002035360936809
:104B600043F002039360704748200D4007B50C489E
:104B700000F0E4FFFFF7EAFF0A4B1A6842F0020276
:104B80001A6000220192019A0F2A02DC019A013276
:104B9000F8E71A6822F002021A6003B05DF804FB1D
:104BA000194B200054200D40064A136823F00203DD
:104BB0001360536823F002035360936823F00203E9
:104BC0009360704748200D40014B1860704700BF4C
:104BD000F80700202DE9F04F414EA3B0019334684F
:104BE00081460F461546002C76D102291BD14FF085
:104BF000180A4FF0480BAC4217DA02AB03EB441033
:104C00004FEA840818220AFB0491DBF81C3098470D
:104C100008F1030822AB03EBC8080022002348E98F
:104C200020230134E7E7012903D06D00022FEDB204
:104C300005D04823DB692A01494602A89847294B39
:104C4000012229491A6003230B602848043132608D
:104C50000B60036803F00304BC421EBF23F0030390
:104C60001F430760019802FA05F3013B8340204C83
:104C70002048A4F580640360C4F8003422601E4A12
:104C800002AC14601D4C2268120C120442EA051595
:104C900025601B4D2C681A4AE407FBD51468002CCC
:104CA00006DA4FF000430B6000233360042014E069
:104CB000126812F0804206D04FF080430B60002350
:104CC0003360062009E003240C60326002689343DD
:104CD00014BF0620002000E0032023B0BDE8F08FC1
:104CE00000B7084080B7084084B7084008B40840BF
:104CF00000B4084004B4084004B008400CB00840B8
:104D000090B708402DE9F047434C894621689C46FE
:104D1000DDF82880BDF82030BDF82C50DDF830E0FB
:104D2000002975D13D4901260E603D4E0327B2464C
:104D30000221376021603B490F603B4FC7F800906C
:104D4000D7F80090B9F1000FFADB384FD7F8009090
:104D500019F0005FB94607D04FF000530B600023F5
:104D600023600520BDE8F0874AB11668304F3E60E9
:104D700056687E609668BE60D7682E4A17602E4AD5
:104D8000002710F4E02F10605560976002F10802D0
:104D90001BD053600432C3B1A2F25C5201201060F8
:104DA000C2F804C0D360D9F800309B07FBD51F4B75
:104DB0001B68002B07DA4FF000430B6000232360D1
:104DC0000420BDE8F08702230B600123CAF80030FD
:104DD000BEF1000F08D07046FFF7F6FE8F20FFF7F8
:104DE00077FD8F20FFF758FD7DB1144A0123136032
:104DF00009990C3242F8081C1560B8F1000F04D074
:104E000053610F4BC3F800809D600020BDE8F08720
:104E10000320BDE8F08700BF00B7084080B7084016
:104E200084B7084088B708400CB4084090B70840E1
:104E300040B508404CB5084050B5084000B00840A7
:104E400024B00840034B1A68034B1A4214BF0120D8
:104E50000020704790B70840010000E0F8B5204BF3
:104E6000204F1E684FF060433B6005468F200C4684
:104E7000FFF720FD0020FFF7A7FE00221A4B964205
:104E80001A6027DB710027D4B20027D405B9ECB132
:104E9000164A13685B00FCD55DB1154B1B682B608F
:104EA000144B1B686B60144B1B68AB60134B1B6887
:104EB000EB605CB1124B1B682360124B1B68636094
:104EC000114B1B68A360114B1B68E36003233B601D
:104ED0000020F8BD0420F8BD0620F8BD0520F8BD6F
:104EE00090B7084088B7084000B7084050B5084060
:104EF00040B5084044B5084048B508404CB50840A6
:104F000070B5084074B5084078B508407CB50840D5
:104F100037B5114B05461A6812F0020401D1FFF7AC
:104F200015FE10230021009301912B462A460120F3
:104F30000BF009FF08B1FFF725FD0BF019FF431C2B
:104F4000FBD008B1FFF71EFD24B903B0BDE8304027
:104F5000FFF72ABE03B030BD48200D4038B50B4BDB
:104F600005461B6813F0020401D1FFF7EFFD012293
:104F7000002311462846FFF72DFE08B1FFF702FD7A
:104F80001CB9BDE83840FFF70FBE38BD48200D40C2
:104F9000014B1B68184700BFB02C21002DE9F04FD2
:104FA0001646274A89B01468834614F002040D4659
:104FB0009DF84880DDF84CA09DF85070DDF85490C5
:104FC00003D10793FFF7C2FD079B1FFA88F0B9F1E1
:104FD000000F19D000218DE8610005910497039519
:104FE0005A4602200BF041FF28B134BB09B0BDE89E
:104FF000F04FFFF7D9BDFFF725FF0028FBD039465A
:1050000050460BF04CFFF0E73E448DE86100CDF8D0
:105010001490049703955A46494602200BF045FF29
:105020000028E2D1FFF70EFF0028FBD03B46524696
:10503000314628460BF0F6FED7E709B0BDE8F08F01
:1050400048200D40084B93F90020002A09DB074A4D
:10505000ED2111601160E32111601A7862F07F0286
:105060001A700120704700BFB02300203888084024
:105070000C4A13689907FCD40A4B1B685B065FBF98
:10508000094BED221A601A60084B1B6813B1064BDE
:10509000EF221A60064A0120137803F07F03137091
:1050A000704700BF4C860840388808402C8608406E
:1050B000B023002038B5A0F10B04E3B20F2B054656
:1050C00013D80B4B1B6813F03F0302D0FFF7D0FF40
:1050D000012304EB8404074A0B3414600BB1FFF77F
:1050E000B1FF054B68B21D7038BD4FF0FF3038BDC1
:1050F000488608403C860840FB06002010B50B4B54
:105100001B68990603D1FFF79DFF012300E00023F0
:1051100007490A68D207FCD5064A1468C4F300148C
:105120000BB1FFF7A5FF204610BD00BF4886084021
:10513000648608404C860840044B186800F0220042
:10514000A0F1200358425841704700BF4C860840E8
:10515000024B186800F04000704700BF4C860840C2
:1051600038B50C46002900F08880102800F28780AE
:10517000DFE800F0090F1A1C23394254596F738578
:1051800085787A7C7F003F4B1B68003318BF012372
:1051900070E03D4B05221B6803F07F030B3B93FB44
:1051A000F2F30B33DBB265E0384B00E0384B1A68A2
:1051B000043B1B6843EA02235CE000230B60354B91
:1051C000354A1B6803F001030B601268900644BF68
:1051D00043F002030B60314B1B78002B4BD00B6864
:1051E00043F0040346E02E4B00201B780860002BA0
:1051F00041D001230B6038BD2A4B2B491A6800238C
:10520000D2B201EBC3000079904203D8264A52F88B
:1052100033302FE001330E2BF3D127E0234B1B68F3
:105220005BB2493B26E0224B1B68990603D1FFF78E
:1052300009FF012300E000231E490A68D207FCD5BC
:105240001D4A1568493D6DB20BB1FFF711FF25608E
:1052500011E01A4B93F900300CE0194B1B7803F066
:105260007F0307E00B2305E01A2303E06FF0170329
:1052700000E007232360002038BD022038BD012054
:1052800038BD00BF2C8608403C860840CC850840CD
:10529000D48508400086084024860840AF230020BB
:1052A000FA06002040860840C02C2100588608409D
:1052B000488608406486084060860840AE23002087
:1052C000AD23002038B505460C46134A13689B07EA
:1052D000FCD4124B93F90030002B01DBFFF7B2FE38
:1052E0000F4BEE221A60691E1A60A21C43F8102CA4
:1052F0002144022000F038FB013C0A4924012143EB
:10530000022000F043FB022000F04AFB022000F0E4
:105310005FFB002038BD00BF4C860840B023002052
:105320003888084002C001C0F8B5214B93F900301D
:10533000002B0DDBFFF70AF90546FFF783FE6FF040
:105340000904641BFFF702F9C442FBD4012600E004
:105350000026184B1B7823B9174D2B68990604D4E7
:1053600005E0FFF7CBFE0028F6D10220F8BD134C74
:10537000E923236004272B689A0707D4013F17F01D
:10538000FF0703D00620FFF7BDF8F4E72B689B0763
:1053900004D4EE2323602360012403E02C6814F07E
:1053A0000204FBD10EB1FFF763FE2046F8BD00BF3B
:1053B000B0230020FA0600204C86084038880840B8
:1053C0000B280DD1082A0DD161B1074B074A0831CE
:1053D00011F8010D43F8040F9342F9D100207047F2
:1053E0000120704702207047A4850840C48508400A
:1053F00070B52F4D2B6813F0400308D02D4E336845
:10540000DCB21B0605D52C4BED221A601A60002079
:1054100070BD042CF7D9023C8C42F4DCE4B2032CBE
:1054200021D001190139032000F0A6FA631E234997
:105430001B011943032000F0A9FA032000F0B0FA81
:10544000032000F0C5FA032000F0CEFA0028FAD1BC
:1054500031681B4B493949B219703368194E180627
:105460003370D0D506E03368037033684370336817
:105470008370EDE789B2042007F006FD3178032040
:1054800001F07F0107F000FD0F4B1B7873B92B680B
:105490005A060BD5064B1B681B0603D50B4802F0BA
:1054A0007DF803E0044BED221A601A60204670BDBF
:1054B0004C860840288808403888084002C0010C03
:1054C000AE230020AD230020AF230020980400204D
:1054D0001E4B1870002831D01D4A13681B03FCD5E1
:1054E0001C4B1A6842F002021A601A6842F001026C
:1054F0001A601A6817495007FBD50A6822F00102A2
:105500000A601968134A4907FBD4116841F0020187
:105510001160116841F0010111601A685207FCD551
:105520000D4A8D20136823F00403136002F5D47232
:10553000136823F004031360FFF7BCB9064A8D20FB
:10554000136843F004031360FFF7A6B9AF230020EC
:1055500004200D40048808408C86084010B50C4695
:10556000072861D8DFE800F0040E181C233F455BD4
:10557000012902D1FFF766FD4BE0002958D1FFF762
:1055800077FD46E0A1F10B030F2B51D8C8B2FFF70E
:1055900091FD01303DD149E08CB2E2B2254B02E0F1
:1055A0008CB2254BE2B2240A1A605C6031E031F023
:1055B00007033DD1214B11F0010F1A68C1F38000A0
:1055C00014BF42F0010222F001021A601C4B11F0DC
:1055D000020F1A6814BF42F0200222F020021A6063
:1055E000FFF776FF15E031F0010021D1154B19705E
:1055F00010BD01F118031F2B1AD813490D2351F8C0
:105600003300DA00844206DC0F4B13441A790F4B47
:105610001A60002010BD13F1FF33F0D2F9E7CCB2CD
:105620000B4B49341C60F4E7012010BD032010BD72
:10563000022010BDC8850840D0850840008608407B
:1056400024860840FA060020C02C2100408608402D
:1056500058860840F8B5294F3D7815F001054AD124
:10566000274B01241C605C609C60A3F59323A3F589
:105670001473F8221A600922C3F89021152270339E
:105680001A6003F59B230B2203F59E731A60A3F5A2
:105690009B23A3F5F07340221A601A687F2642F01C
:1056A00020021A60D52243F81C5CDE62DA61154BD9
:1056B0001878FFF7FFFC144B8E201E60FFF7ECF804
:1056C000022000F079F91149022000F055F9032079
:1056D00000F072F90D49032000F046F90C4B1878E0
:1056E000FFF7F6FE29460B4801F040FF3B782046C5
:1056F00023433B70F8BD0020F8BD00BFB02300205D
:10570000A8200D40FB060020948608402888084009
:10571000AF2300209804002038B503880446CBB19D
:1057200040F20342934203D000230380032038BD9C
:10573000194B18781A4628B11B7873B1174B1B7890
:1057400058060AD5822908D1137843B1134B1A7829
:10575000520614D440F203432380012038BD07F0E1
:105760003DFB07F0D1FA8021FFF742FE0028EDDD76
:1057700080B207F0ADFA0A4B1B699847E6E70022B2
:105780001A70084B1D68FFF773FCFFF763FFAB0649
:10579000E0D0FFF757FCDDE7AF230020B023002067
:1057A000BC2D2100488608400B282DE9F84F0E46F5
:1057B00010D1082A40F0828000297FD0414B424A14
:1057C0004E1E53F8041D934206F8011FF9D1002024
:1057D000BDE8F88F0C286ED1042A6FD100296DD056
:1057E0003A4B3B481A68DFF8F8C022F007021A600B
:1057F0000268DFF8F0A042F008020260DAF8004028
:10580000DCF800101A68DFF8E0E022F07002314F97
:105810001A60DEF800203D68E4B2090244EA05643B
:1058200001F47F411204214302F47F020A432A4912
:105830000024D1F800805FFA88F544EA02081A686B
:10584000A94622F0070242F001021A60026842F003
:1058500008020260DAF80000DCF800201D68C0B21F
:1058600025F0700545F010051D60DEF800303D683C
:10587000120240EA056002F47F421B04024303F473
:105880007F0313430A6844EA030A5FFA82FBFEF7C8
:105890005DFEB8EB0A0869EB0B094FEAC931054612
:1058A0000E4A00234FEAC83041EA58410AF098F8FE
:1058B000281A30608BE70120BDE8F88F0220BDE890
:1058C000F88F00BFC8850840A885084010880840A8
:1058D00004880840208808401C8808400048E801E7
:1058E00018880840148808402488084008B5054BEB
:1058F0001B7813B9044801F051FE044B00221A60D2
:1059000008BD00BFAF230020980400203488084061
:10591000064B07481A68042A1FBF06490A7842F056
:1059200040020A7000221A6001F038BE2C8808403C
:1059300098040020B023002010B5094C402200211B
:1059400020460AF0EDFA074B01221A602E205C6017
:10595000FEF7A2FFBDE810402F20FEF79DBF00BF5D
:105960000000002004F00F4003289EBF014B0001FF
:10597000195070470000002003289EBF024B03EB24
:1059800000104160704700BF0000002003289EBF48
:10599000024B03EB00108160704700BF0000002045
:1059A000032806D8034901220B6802FA00F01843C5
:1059B0000860704728F00F40032806D803490122E9
:1059C0000B6802FA00F018430860704720F00F409F
:1059D000032806D8034901220B6802FA00F0184395
:1059E0000860704714F00F4003289FBF044B03EB7F
:1059F0000010806800F0070088BF0020704700BFDB
:105A000000000020024B4FF0FF321A60704700BFC9
:105A100004F50F40014B01221A6070474CF00F4013
:105A2000094A1368084913F4801FFAD1074B1A6812
:105A300022F480321A600A68D203FCD41A6842F455
:105A400000321A60704700BF04200D4000200D4056
:105A500010B50B4B1A681C4612F0030F0ED0094903
:105A60000B68084A13F0806FFAD113685B01FCD50C
:105A7000FEF756FDFFF7D4FF0023236010BD00BFE3
:105A800058200D4004200D4038B5264B1C6814F0FA
:105A90003F0413D1244D55F8243023B1984768B101
:105AA0000134052CF7D1214D2B783BB1FEF748FD91
:105AB0000446FEF74BFD201A092801D830BF38BD37
:105AC000002CFBD01A4B1B481A6822F400321A60D3
:105AD0000268184912F4801FFAD11A6842F4803221
:105AE0001A600B68DB03FCD5FEF730FD201A09288D
:105AF00003D8BDE83840FFF793BF63280E4C02D9A6
:105B00002B78022B00D00123236001F0FDFC20B193
:105B1000FFF786FF0023236038BDFEF711FD002844
:105B2000CCD1F5E748860840FC070020B1230020CF
:105B300000200D4004200D4058200D40074900234F
:105B400051F82320824207D01AB9044A42F82300B0
:105B500070470133052BF3D1704700BFFC070020CD
:105B6000054B00221A60054A136843F004031360D2
:105B7000034B01221A70704758200D4010ED00E0D1
:105B8000B123002010B59020064CFEF7A1FE902016
:105B9000FEF790FE206818B101F000FD002323609D
:105BA00010BD00BF1008002030B5184B1A78431EF6
:105BB00022B101F520112731154A1FE0154A12784C
:105BC000122AF6D1144A12784B2AF2D14A0802F16D
:105BD0002814B4F1281F04D014F8015D03F8015F04
:105BE000F7E701F52011273100231044934204DA2E
:105BF00011F80149C4540133F8E730BD914204D093
:105C000011F8010903F8010FF8E730BD2B00280057
:105C1000270028002A00280029002800024A1368CB
:105C200043F01003136070472000024014235843D0
:105C3000034B044A0344B3FBF0F3013B136070478A
:105C4000FF23F4000C0002402DE9F84306460F46FE
:105C500014461D462A4ADFF8B4901368DDF8208008
:105C600043F001031360D9F80030322043F0010300
:105C7000C9F80030FEF746FCD9F80030214A23F07D
:105C80000103C9F8003030038158012303FA07F9F2
:105C900021EA09018150210351F802C0AB402CEAEE
:105CA000030C41F802C0203250F802E049EA0E0E1F
:105CB00040F802E0885803438B50304639460022B2
:105CC000FEF7DCFE294620460022FEF7D7FE0E4BEB
:105CD00047EAC6021A6045EAC4025A6039463046AD
:105CE0000B22FEF7D5FE204629460C22FEF7D0FEF9
:105CF000FFF794FF4046BDE8F843FFF797BF00BFAA
:105D000038200D4000940D402C410D4044200D40A2
:105D1000024B18600120FEF7F5BB00BF04000240F3
:105D2000024B186800F00100704700BF04000240F9
:105D3000054B1868C0B2C30704D410F0120F08BF97
:105D400000207047002070470400024008B5074B50
:105D50004000186099600720FFF7DAFF044A1368D3
:105D6000DB07FCD4BDE80840FFF7E2BF00000240BB
:105D7000040002400A4B400040F0010010B51860DA
:105D800007200C46FFF7C4FF064A1368DB07FCD464
:105D9000FFF7CEFF10B9044B1B68237010BD00BF86
:105DA0000000024004000240080002402DE9F843D0
:105DB0000F461446002A3CD000293AD0012A04D1CB
:105DC000BDE8F8430978FFF7C1BF1B4A43001360E1
:105DD0000B781A4E03203360FFF79AFF184A1368B6
:105DE000DFF85C8013F0010FF9D1FFF7A1FF70B964
:105DF000012504F1FF3914E03C4414F8013C05206E
:105E00003360FFF785FFD8F80030DB07FBD4BDE82F
:105E1000F843FFF78DBFD8F80030DA07FBD401351F
:105E2000EDB2A945E8DD7B5D01203360FFF770FF2F
:105E3000F1E78020BDE8F88300000240080002403E
:105E4000040002402DE9F8430F461446002A3CD0D6
:105E500000293AD0012A03D1BDE8F843FFF78ABFF1
:105E60001B4A430043F0010313600B20FFF750FF70
:105E7000184A1368DFF85C8013F0010FF9D1FFF7BF
:105E800057FFF0B9144E0125336804F1FF393B7018
:105E9000A9450BDD0920FFF73BFFD8F80030DA07F2
:105EA000FBD433687B550135EDB2F1E70520FFF7F0
:105EB0002FFFD8F80030DB07FBD433683C4404F8EC
:105EC000013CBDE8F843FFF733BF8020BDE8F8830D
:105ED00000000240040002400800024070B5134C6C
:105EE0004FF0FF3325460022B4F9066046B1A67A8A
:105EF0000C34002E08BF13460132052AF4D111E0FC
:105F000013460C225A43AB1898804FF0FF30A8502C
:105F1000B1F90620DA804A7A1881C2F3C002DA7237
:105F2000184670BD5A1CECD1002070BD50080020EE
:105F3000F0B5224D06462F468FB00024B5F9063045
:105F4000A3B1B5F9041001A80BF033F89DF80D309A
:105F500003F03603022B09D10DF10E0130460AF091
:105F60002DF818B90C2000FB047024E00134052C36
:105F700005F10C05E2D10024214601A80BF019F827
:105F80009DF80D5005F03603022B0AD10DF10E01DC
:105F900030460AF013F820B901A92046FFF79EFF0A
:105FA00009E020462A46BDF90A100BF037F81F28F1
:105FB0000446E1DD00200FB0F0BD00BF5008002016
:105FC0001B4BF0B507461E46B3F900508FB04FF09B
:105FD000FF341F2D0CDC294601A80AF0EAFF9DF8CA
:105FE0000D20910718D4631C06D1EB191F2B02DD7D
:105FF0004FF0FF301AE02C462846BDF90A100BF08E
:106000000DF8E31983420546E3DCB6F9002094421B
:106010000BD1074A138008E02846BDF90A100AF0A0
:10602000FDFF4FF0FF340546D3E720460FB0F0BD2B
:10603000EC1C002070B58EB004460E46014601A847
:1060400015460AF0B6FF9DF80D3003F00602022A4D
:1060500002D04FF0FF3040E003F0200101F0FF02DA
:106060000029F6D176B99DF80D30214643F004039E
:1060700001A88DF80D300AF0C9FF194A00231370EA
:1060800055B916E01B07EED51146BDF90400FFF720
:10609000D1FF0028E7DADCE71D461248C218516834
:1060A00021B1B1F90410A14208BF15720C333C2B89
:1060B000F4D14FF6FF700C4B002203F13C01B3F911
:1060C00004500C33A54202BF23F8080C03F8022C3D
:1060D00023F8062C8B42F2D100200EB070BD00BF19
:1060E000B223002014080020500800202DE9F04FB2
:1060F00097B001908A4602933AB15046FFF760FF8D
:106100000446013040F0D28004E0FFF711FF002880
:10611000F3D0C9E0754B1E780393002E40F0C48085
:10612000734FDFF8D4914FF0080800230793ADF8C0
:10613000203016B93E8089F80060B3B299F800208B
:106140000093DB001FFA83FB4AB1B7F90020072A4E
:1061500014DD0821083AADF81C103A800CE0B7F9BC
:106160000040072C0BDD083CA4B2082225B2072C06
:10617000ADF81E203D805BD9002559E000243D8804
:106180000FFA88F35D442DB20493049BAB422DDDDE
:10619000294609A805920AF00CFF002189F8001091
:1061A0009DF82D10059A01F00600022801F020004C
:1061B0000AD148B9012189F80010BDF82A100D4410
:1061C0000A442DB212B2E0E718B101352DB2013404
:1061D00006E0490706D5BDF82A100D442DB20C443F
:1061E00024B2D2E7C5EB080529B200E0002190B245
:1061F0001FFA84FE00EB0E05083D0D442DB2002D64
:106200003D8009DD99F800301BB1CEF1080212B2D1
:1062100002E0C0F1080424B2ADF81C2099F8002077
:10622000ADF81E40ADF82010002AA5D1072DA3DC43
:10623000BDF91C20002A26DCBDF91E20002A22DD23
:106240002C4A0FFA8BF1B2F900008842C8BF1180C6
:10625000002D15DD3222002109A809F061FE22225D
:106260008DF82D2000240BF10803191909B209A893
:10627000013404930AF0CAFE22B29542049BF4DC76
:1062800000980AF066FF013608F10808042E1FFA8C
:1062900088F87FF44AAF5046FFF792FE431C04464D
:1062A00004D1039A0123137000201CE03222002144
:1062B00009A809F035FE272201990DF12E000AF0F8
:1062C00001F8029B214643F0020309A8ADF82AA079
:1062D0008DF82D300AF09AFE09A92046FFF7FEFD41
:1062E00008B10023036017B0BDE8F08FB22300208F
:1062F000EE1C0020EC1C0020B32300202DE9F84305
:106300008146244A0E4600240C2101FB04273B7AD7
:10631000DFF8808033B10134052CF6D14FF0FF3027
:10632000BDE8F8833B727B724846FFF701FE0546E5
:10633000786070B906F00303012BEFD02B460122E1
:1063400008214846FFF7D2FE78600028E6D00560B5
:1063500007E02B68013304D1B5F904000AF02DFEE3
:1063600028600C2303FB0482117A6343314316F047
:106370000406117218BF5268204618BF166808EB51
:106380000302526848F80360937A01339372BDE8C0
:10639000F88300BF1408002004280CD8064B0C22F8
:1063A00002FB0030037A33B14168002202728B7A1B
:1063B000013B8B7242607047140800202DE9F043C6
:1063C000042891B081460E46144661D80C224243FF
:1063D000324DAB18197A00295AD0C80758D5597AC6
:1063E0005F6849070BD530194FF0000E1A68841BFF
:1063F000396822448A4208D900F801EDF6E7AB5823
:106400003A681919914288BFD41AFB7AB7F9041077
:1064100013F0010F0FD10C2303FB09F7EB593046A2
:1064200003F1320202EB012221460AF014FFEB597C
:106430002344EB512AE0A04603A80AF0BAFD0C233E
:1064400003FB0955B8F1000F20D02B68ADF8088088
:106450006A46B7F9081003A88DE848000AF0EAFD7B
:1064600000280CDA2A68B7F904303232304602EBE1
:106470000322BDF808100AF0EEFEBDF808002B68F4
:10648000064403442B60C0EB0808DBE7204601E02C
:106490004FF0FF3011B0BDE8F08300BF14080020BA
:1064A0002DE9F0479AB000AF80460C4601463846C9
:1064B0000AF07FFD012107F10A00FFF71FFF051E0B
:1064C00074DBB7F906100023A140012209B207F1DD
:1064D0000A00FFF70BFE044600284AD00026BA88BF
:1064E000E946002A08BF4FF48072D31D23F007034A
:1064F000ADEB030D69462846FFF760FFB0F1000AD7
:106500000ADA00221146B4F90400FFF793FD284689
:10651000FFF742FFCD4649E009D0B4F904205146C7
:1065200006EB0222323268460AF025FE5644CD467A
:10653000BAF1000FD3D1204B03F13C011A7A42B1DA
:106540005A68B2F90420424501BF5C60A27A013268
:10655000A2720C338B42F1D1002201214046FFF799
:1065600069FD0028B4F9040007DA00221146FFF79C
:1065700061FD2846FFF710FF18E0014607F13400DF
:106580000AF017FDBB8807F134003B877B88B4F91C
:106590000410FB860AF03AFDE37A284623F0010353
:1065A000E3722660FFF7F8FE002001E04FF0FF30B5
:1065B0006837BD46BDE8F087140800202DE9F04F8C
:1065C0009FB0FF2300AF042881463962FA6287F842
:1065D000343002D94FF0FF3082E1B24E0C2303FB7E
:1065E00000631A7A002AF5D09507F3D55A7A5D68C8
:1065F000940712D41C462368FA6A32331344B5F95F
:106600000620B3EB022F08D90121B5F90400FFF7EA
:1066100047FF0028DEDB6568EDE70C2303FB09F389
:10662000F218527AD00700F13F81EA7AD10705D4F7
:106630009C4AD2582B689A4280F23681FB6ABB6230
:1066400000237B610C2303FB09F3FB61BB6A002B76
:1066500040F3FA80934BFA69B5F9041007F144004E
:106660009C580AF0A6FCB7F84830B7F84610002B43
:1066700014BF98464FF4807821B94FF4807292FB92
:10668000F8FB00E08B4694FBF8F296B208FB12424E
:10669000388DBA61C2EB08028242BCBF92B27A6204
:1066A00097F84D20A8BF78621207FE8647D5B5F946
:1066B0000840B7F94460002C38DA5B46102BA8BFBD
:1066C00010233B615B00083323F00703C7F808D0B1
:1066D000ADEB030D6B465C4632023232FA604FF08E
:1066E000000AD34520DD3A69CAEB0B049442A8BFE7
:1066F0001446FA68A4B202EB4A02184661003B60F5
:106700007C600AF0A8FD3B680022944207D033F871
:10671000121011B90AEB020401E00132F5E77A68C0
:1067200052441FFA82FADCE7D7F808D024B2A34516
:1067300037DC0021B5F90400FFF7B2FE7DE0002B45
:1067400008BF4FF4807319B94FF4807191FBF3F1D6
:106750000233594301F231111023012241F30F2179
:1067600007F14E00FFF7C2FC0446002867D097F8F7
:106770004D3043F0080387F84D308388B5F9041095
:1067800007F14400A7F844300AF040FCEB7A43F0EC
:106790000103EB72B4F90460731C50D0A7F8446095
:1067A000002408F1070323F00703C7F810D0ADEB6E
:1067B000030DFB8EBA6908FB03F3002AEA46BB63AC
:1067C000C7F83CD0A7F8408002DC7A6A904513D025
:1067D00007F13802214607F14400FB600AF02AFC69
:1067E0000028FB6808DAB5F90420414603EB0222D1
:1067F000323250460AF02FFDBB697A6A5344396A37
:10680000184609F0B3FAFB8E3602013307F178001F
:10681000323620F8423D06EB440202210AF0ABFC7E
:1068200006EB4B0208FB04225046414601340AF0B5
:10683000A2FC2C81D7F810D0786A002817DAFB6AFE
:10684000BA6A93423FF4C6AE7B69002B3DD00C235D
:1068500003FB09F3134A0121D358B5F9042031335E
:1068600003EB022207F134000AF085FC2DE004D18D
:106870000C4BFA6913445D68E8E6BB6AFA691B1AB7
:10688000BB62084BF9699B58064A034453503A6A65
:1068900002443A622A689342C2BF2B6001237B61A3
:1068A000D4E600BF140800200C2404FB09F433597B
:1068B000B5F90420323303EB0222F96A386A0AF090
:1068C0005AFC3359FA6A134433510C2303FB09F978
:1068D000054B2A6853F80930F86A9342C8BF2B6009
:1068E0007C37BD46BDE8F08F140800200FB407B513
:1068F00004AA52F8041B0448019200F035F803B0D2
:106900005DF804EB04B07047A80400201FB51446DE
:10691000074A8DE80300029221461A4602A8CDF8E4
:106920000CD000F021F8009B00221A7004B010BDBA
:106930008B12210070B505460C46102C07D92B6828
:10694000102208496868984750B9103CF5E734B1FF
:106950002B68224668680349BDE870401847204606
:1069600070BD00BFFE3021002DE9F04F06461546F0
:106970008FB006914FF0000B069B1B78CBB1069CA5
:10698000274617F8013B1BB1252B14D03C46F7E7EF
:10699000069BA3420DD0069B0699C3EB0408424612
:1069A000336870689847002840F01F832378C344F9
:1069B00023B9584634E3069BA342ECD16378002BFD
:1069C000F7D039460024084610F8013B0A462B2B25
:1069D00011D006D8202B11D0232B12D144F008045B
:1069E00016E02D2B04D0302B0BD144F010040FE017
:1069F00044F001040CE044F0060409E044F0020411
:106A000006E0A3F13107082F11D84FF0000801E08C
:106A10000146D8E70A4611F8013BA3F130000928E6
:106A200013D80A2202FB0838A8F13008F2E72A2B13
:106A300009D12B680246002B05F10405B8BF44F0CC
:106A40000104984601E04FF0000813782E2B1AD16C
:106A50005178531CA1F1300009280ED8194600279F
:106A60000A780B46A2F13000092801F101010DD886
:106A70000A2303FB0727303FF2E72A2904D12F68B6
:106A8000931C043502E013464FF0FF371A786C2A46
:106A900009D15A786C2A02D144F080040AE001330B
:106AA00044F060040BE0682A09D15A78682A03D1BF
:106AB00044F02004023302E0013344F040041A7829
:106AC000642A3CD01FD8462A48D00DD8252A5AD04F
:106AD00003D8002A3FF46DAF57E0412A4AD0452A37
:106AE00053D144F4424450E0582A31D004D8472AC4
:106AF0004BD144F4A13448E0612A38D0632A44D110
:106B000044F4A06441E06E2A3AD007D8662A22D025
:106B100027D3672A28D0692A11D036E0732A2CD0CF
:106B200006D86F2A11D0702A2FD144F440742CE07B
:106B3000752A07D0782A28D144F4C85425E044F4B3
:106B4000245422E044F410641FE044F488541CE010
:106B500044F4B24419E044F4007416E044F484446C
:106B600013E044F4024410E044F481340DE044F4B2
:106B7000C1340AE044F4E13407E044F4806404E002
:106B800044F4E06401E044F4C0640133069304F487
:106B9000E063B3F5806F00F08F8113D8B3F5807F89
:106BA00027D0B3F5407F7FF4E7AEAE4B14F4804FAF
:106BB000AD4A18BF1A460DF1330328680021043589
:106BC0001F46B5E1B3F5C06F08D0B3F5E06F00F034
:106BD0002282B3F5A06F7FF4CFAEF2E133680122D9
:106BE000A24970689847002840F0FF810BF1010B23
:106BF000C2E6002FACBF24F01004012714F40053A8
:106C0000079304F0E0032ED0402B12D005D8ABB18F
:106C1000202B21D195F900200DE0602B0ED0802B88
:106C20001AD1073525F0070303F10805D3E900233E
:106C300007E0B5F90020D317043502E02A680435CF
:106C4000D317002A73F1000108DA524263EB4303C1
:106C5000CDE90023012304E000220023CDE9002335
:106C60000023059329E0402B13D004D8BBB1202B7F
:106C70001DD12A780EE0602B11D0802B17D107355B
:106C800025F0070303F10805D3E90023CDE900232C
:106C90000BE02A880023CDE90023043505E02B68AA
:106CA00000221946CDE900120435079BD9E70023DD
:106CB000059300220023CDE9002304F4C053B3F56B
:106CC000805F0CD0B3F5C05F33D0B3F5006F4FD108
:106CD000DDE900230DF13609CDE9022304E0DDE909
:106CE00000230DF1360915E0DDE9022313433AD004
:106CF000DDE902010A22002308F072FEDDE902014B
:106D0000303209F8012D00230A2208F069FECDE98E
:106D10000201E9E752EA030125D002F00701303110
:106D200009F8011DD10841EA4371D8080A46034613
:106D3000F0E74C4B14F4804F0DF136094A4918BF67
:106D40001946DDE9002352EA03000CD002F00F00DF
:106D5000085C4FEA131E09F8010D100940EA0370A0
:106D600002467346EFE70DF13603C9EB030302E079
:106D70000DF1360900230293029B41F60802BB4243
:106D800038BFFF1A41F2080302EA040228BF0027B5
:106D90009A4202D1002F08BF012741F60801029B49
:106DA0008A4203EB07000DD1DDE90023134309D02C
:106DB0002F4A304914F4804F4FF0020A0CBF0B46A3
:106DC000134602E04FF0000A5346079A9AB1059A1B
:106DD00052B904F00602022A0AD0062A264A04BF43
:106DE0004FF0010A134606E04FF0010A234B02E080
:106DF000234B4FF0010A0AEB000290458CBFC2EB17
:106E000008084FF0000814F0010200920DD1E106CD
:106E100002D54744904608E0414630460593FFF7C7
:106E200089FD059B002840F0E080BAF1000F07D0F3
:106E30003468524619467068A047002840F0D58053
:106E4000029B03EB0B04BB46BBF1100F33681BD94D
:106E500010220C4970689847002840F0C680ABF1BA
:106E6000100BF1E7C9302100DA302100FC3021009D
:106E7000EE302100EB302100F3302100F130210011
:106E8000383C21000E312100BBF1000F06D05A46DC
:106E9000654970689847002840F0A7803368029AD7
:106EA0004946706854449847002840F09E80009BF3
:106EB0003C44002B39D032E0D5F800900435B9F1CC
:106EC000000F0AD0CA469AF800300AF101020BB14D
:106ED0009246F8E7C9EB0A0A03E0DFF850914FF059
:106EE000060A002F02DBBA4528BFBA46D0458CBF40
:106EF000CAEB08084FF0000814F0010705D141461D
:106F00003046FFF717FD00286FD1336852464946D7
:106F100070689847002868D10AEB0B042FB14146EE
:106F20003046FFF707FD00285FD108EB040B23E58F
:106F300050EA010E0ED000F00F0E12F80EE04FEAEC
:106F4000111C03F801ED4FEA101E4EEA017E704657
:106F50006146EDE7FF1A02BF3022012703F8012C3A
:106F600007F1030708BF03F1FF337822B84503F8A0
:106F7000012C4FF0300203F8022C88BFC7EB080841
:106F80004FF0230298BF4FF0000814F00104A3F162
:106F9000030903F8032C04D141463046FFF7CAFC2D
:106FA00018BB33683A46494670689847E8B95F4469
:106FB00024B141463046FFF7BDFCB0B908EB070BE2
:106FC000DAE4B8F1010F2B688CBF08F1FF384FF0FD
:106FD000000814F0010405F104058DF8203008D1F3
:106FE00041463046FFF7A6FC10B14FF0FF3017E0E6
:106FF000C3443368012208A9706898470028F4D177
:1070000008F101072CB141463046FFF793FC0028F8
:10701000EBD1BB44B0E42B680435C3F800B0ABE45B
:107020000FB0BDE8F08F00BF0E312100F530210018
:10703000F8B50388064615462BB14A2B15D0002318
:1070400003800320F8BD17480AF0BDF904462CB1AF
:10705000A168201D0AF045F92468F8E7124B0122C7
:107060001A704A2333800120F8BD8829FBD10D48CE
:107070000AF0A9F90446002CF3D0231D9D420ED13D
:10708000214608480AF0A9F9084B62691F681A608E
:10709000A2691D460AB1E06990472F60E1E72468C4
:1070A000E9E700BF8C080020B423002098080020E6
:1070B00010B5064B002406481C700AF081F92146E1
:1070C000BDE81040034800F051BA00BFB4230020CF
:1070D0008C080020B004002070B50446E3610B4B1F
:1070E000049D1B786561A26143B1094D094B2E686F
:1070F000201D2B600AF0F5F82E6000E0A16021460B
:10710000BDE8704004480AF07BB900BFB4230020FA
:1071100098080020B00400208C08002013B5034C10
:1071200024680094FFF7D8FF02B010BD9808002033
:1071300070B5094B05461B783BB1084C084B2668D7
:10714000043023600AF0D6F826602946BDE8704076
:1071500004480AF055B900BFB42300209808002065
:10716000B00400208C08002070B5094B05461B7840
:107170003BB1084C084B2668043023600AF0C3F882
:1071800026602946BDE8704004480AF039B900BFBE
:10719000B423002098080020B00400208C080020B0
:1071A00010B5084B04461B781BB1043000F0B4F84E
:1071B00001E0C36003612146BDE8104002480AF0C7
:1071C0000CB900BFB42300208C08002010B50E4C71
:1071D000236813B90D4A136010BDFDF77FF92168CC
:1071E00091E80C001A44131A8A6842B192E812001E
:1071F0002144091A8B4228BF0B469268F5E71844D0
:10720000024B186010BD00BF9008002094080020B9
:10721000014800F0C3B900BFC00400202DE9F843C5
:107220000388054633B1592B0BD00023038003207C
:10723000BDE8F883234A136059232B800120BDE861
:10724000F883872924D08229F6D11E4F4FF00008F9
:10725000B9463C680026002CEED020460AF085F89E
:1072600098B122468821E06800F058F958B9E060EA
:10727000A3680EB1B36001E0C9F80030C4F808801B
:10728000FFF7A4FFE5E7FFF7C3FF2646A468E2E7A0
:107290000C4900200B681BB90028CDD00B60CBE750
:1072A000DC68A24202D19B680120F4E700B10B60C8
:1072B00099680029C0D0C86882420ABF89680B4615
:1072C0009960F5E79008002010B50446FFF7A0FF8D
:1072D000E3680B4A4BB113683BB1A34203D1094A9F
:1072E0001268DA6007E09B68F6E7064B1B68E3600C
:1072F00013681460A360BDE81040FFF767BF00BFCC
:107300009008002098080020024B1868003018BF31
:10731000012070479008002010B50B4A04461368FE
:10732000834206D18368136008E09A68944203D0D0
:107330001346002BF9D103E0A2689A60FFF746FFDD
:107340000023A360E36010BD9008002038B5836877
:1073500004460D469BB10A4804600220A07304F164
:107360000C0098470238012801D9832D05D1214608
:107370002046BDE8384000F005B80123A37338BDAE
:10738000980800202DE9F8431C4A044615688946F0
:107390002B4690461A4E3768A34204D00BB11B68A7
:1073A000FAE7BDE8F88334B3A37BABB10023A37342
:1073B00045B1A54204D022468721284609F0B4FFF2
:1073C0002D68F5E7A3683BB14C4505D034602A46EB
:1073D000832104F10C009847D8F800309C4203D177
:1073E0002268064B05E0134623B11A689442FAD18D
:1073F00022681A603760BDE8F88300BF9C0800204F
:1074000098080020002370B51D46094A0126137014
:10741000084A146854B1E37B33B1A673E5730022C4
:1074200082212046FFF792FF2468F3E770BD00BF7A
:10743000B72300209C080020024B1878421C1A70C9
:10744000704700BFB8230020014B1968FFF79ABFAF
:1074500098080020064B8A221A70064A00231370EF
:10746000054A1370054A1360054A1360704700BF50
:10747000B8230020B5230020B62300209C0800205C
:10748000980800202DE9F0411A4D2B780BB1FFF739
:10749000B9FF194C22783AB3184E0C213378184FA3
:1074A0005943781817F8018001334768806803F062
:1074B0001F03013A3370227068B9124B1E689EB1E7
:1074C0002B780BB1FFF79EFF30463A46414609F054
:1074D0002BFF3668F3E7B8F1810F04BF01238373F4
:1074E0003A46414609F020FF2B7820781844BDE841
:1074F000F08100BFB7230020B6230020B523002071
:10750000A00800209C080020024A034B10781B783A
:1075100018447047B6230020B7230020F0B50B4E67
:107520003378202B0FD00A4C0C252478094F1C44AB
:1075300004F01F046C4301333D19A86039556A609B
:1075400033700020F0BD0120F0BD00BFB623002045
:10755000B5230020A008002038B5034C256809F0A9
:10756000E3FE256038BD00BF9808002030B40A4C07
:107570000A4625682B4683420CD00BB11B68FAE7FC
:1075800040B101210560817320608381812130BC7D
:10759000FFF7E2BF30BC70479C08002038B1837B06
:1075A000013B012B9FBF024A0123C3731370704735
:1075B000B723002010B5084C206858B10023236081
:1075C000816843689847236823B1BDE81040186874
:1075D000FCF7D2BF10BD00BF200A002010B5044642
:1075E000FCF786FF94E80C001344C01A024B984243
:1075F0008CBF0020012010BDFEFFFF7F70B5058805
:107600000446672D09D0792D30D0002D34D1FFF7F5
:1076100013FF1C4B18701C4B1D601B4D2E461B4846
:1076200009F07DFF431C01D167231DE00A28164A9B
:1076300007D02B687E2BF2DC5A1C3260144AD054DF
:10764000EDE713680025591C1160114A2846D554EE
:107650000C4B1978FFF762FF0E4B2A4685211868FC
:10766000FFF75CFF20B97923238009E0852907D142
:10767000054B00221A60D0E700230380032070BD71
:10768000012070BD983A00202C0A0020240A002016
:107690003A240020980800200D2810B5014615D086
:1076A0000B4C23782BB90B4809F026FF48B901236E
:1076B00006E00A2805D1074809F01EFF08B100239B
:1076C00023700548FFF76AFF012010BD002010BDA0
:1076D00039240020240A0020D004002008B50549E0
:1076E0000548802209F001FFBDE808400021034859
:1076F000FFF73CBFB9230020240A0020D00400205B
:10770000054A136843F004031360044B1B68906937
:1077100043EA002080B2704700700D4014700D40A5
:1077200010B5184A136823F00C031360164B01229E
:107730001A601A68012AFCD1144B08221A60E3224D
:10774000C3F8142203F505731946114A1368DB07C1
:10775000FCD5104C102000232268013802F00102F1
:1077600043EA02034FEA43039BB2F5D1002BF1D069
:10777000094A180A03F0FE0310601360EF230B6040
:1077800010BD00BF00700D40A8200D4024860840A9
:10779000648608409C86084014700D402DE9F04135
:1077A00006880546772E31D07E2E40D0002E4ED151
:1077B0002B4CFFF741FE266026462A4B2A4FDFF866
:1077C000B0801870236857F823204AB1002108F8C8
:1077D0000310936880209847336801333360F1E7E2
:1077E000224A1370772320E0214AD256002A12DB66
:1077F0001B4A136801331360194B1C4A1B6812782B
:107800009A42F1DC1B4B1B68002BEBD0194A00237A
:107810001360134AEFE7144A002052F82320114B5B
:107820001978FFF77BFE30B97E232B8014E00D4BD7
:107830001B788B4210D10A4B0D491A688B5C03F000
:107840007F038B540B4A136801331360D0E7002386
:1078500003800320BDE8F0810120BDE8F08100BF76
:10786000340A0020993A002088040020BA2400201D
:10787000943A0020300A002010B40A4B0A491A78C2
:107880000023934203DA51F82340A04208D107496C
:107890000748CA5C62F07F02CA5410BCFFF77EBE84
:1078A0000133EEE7BA24002088040020943A002037
:1078B000E00400200C4AB82303FB00220023F0B5AB
:1078C00053821E461A4640F24C550849CC18A778F8
:1078D00027B15F5C874204BFA67001327133AB42AF
:1078E000F4D11046F0BD00BF540A0020C624002089
:1078F00008B5064803F036F8054B01221A7000223D
:107900005A70AA229A70DA7008BD00BF457B200029
:10791000BC24002030B513780546087A83F00203B2
:1079200098421DD1487A5378984219D1887A937831
:10793000984215D1C87AD378984211D1087B13792F
:1079400098420DD1487B5379984209D1887B93792D
:10795000984205D1C87BD379984201D103201BE01E
:107960000B890F4C6BB94B89B3F57F4F09D18B89CC
:10797000FE2B06D12368CA89022023F8022B23603C
:107980000AE0226801F1080303CB083242F8080C30
:1079900042F8041C01202260A840C0B230BD00BFE4
:1079A000400A002010B50E4C0220A17905F06CFAB7
:1079B000A379112B01D0062B05D1218D638D99421E
:1079C000A8BF194606E03A2B03D1218D49BA89B2E6
:1079D00000E000210120BDE8104005F055BA00BFCD
:1079E000B02D002010B5084C01462378012B08D19A
:1079F0000822A01C08F088F900280CBF20460020AF
:107A000010BD002010BD00BFBC24002008B50146F9
:107A1000132005F047FA044B00219B680348984760
:107A2000BDE80840FCF712BFDC2D2100317A2000B0
:107A300010B50C461146204602F04EFA044B1B6866
:107A400013B19B6820469847024B1C6010BD00BFD5
:107A5000500A00204C0A0020124AF8B505460023BF
:107A6000712000FB0324A678B6B9617005F03AF9DD
:107A700026460D4F0D4A3B7806F8035BC01A156881
:107A8000A0701D4405F02EF93A782946821A304636
:107A900008F06CF9A078F8BD01330C2BE1D14FF060
:107AA000FF30F8BDC6240020122A0020440A00201E
:107AB0002DE9F84315090F2D0646984602F00F04EC
:107AC00003D00F2C35D045B103E00F2C2FD110245B
:107AD00025462A46304608F049F92A190F2A274632
