:1000000000050010751500006D1500006D1500004D
:100010006D1500006D1500006D150000000000005A
:100020000000000000000000000000006D1500004E
:100030006D15000000000000D5000000A9030000BD
:100040000D0900006D1500006D1500006D15000014
:1000500055150000110400006D1500006D1500001D
:100060000D470000915D00000D4D00009133000030
:100070006D1500006D1500006D1500006D15000078
:040080006D150000FA
:10008400EFF31180704780F311887047EFF311800C
:100094000C4981F311887047EFF311806028B4BFD5
:1000A40009480A487047084981F31188704772B6B5
:1000B400704762B67047BFF35F8FBFF34F8FBFF3D4
:1000C4006F8F704760000000000000000100000016
:1000D4000F48007850B1EFF30880A0F1200080F3BE
:1000E400088880E8F00F0B49086030BF09480068B1
:1000F40090E8F00F00F1200080F30888704705486D
:10010400006880F3088862B6704730BF704700000B
:10011400AE020010AF020010032A70B41646054662
:100124000C460FD941EA000313F0030F0BD1026808
:100134000B689A4204D1043E04300431032EF6D8ED
:1001440005460C46A6B12B78207883420ED1711E49
:100154004FF0000C61B105EB0C0304EB0C02013908
:100164000CF1010C5B7850788342F3D0181A00E04C
:10017400002070BC7047C04670B414460F2C06466D
:100184000D4604D945EA060313F0030F0DD04AB116
:100194004FF0000C11F80C3000F80C300CF1010C8D
:1001A4009445F7D1304670BC7047A4460B68ACF157
:1001B400100C03604A6842608B688360CA6810311F
:1001C400C2601030BCF10F0FF0D8A4F1100303F09B
:1001D4000F0223F00F031033EC18F118032A13D97C
:1001E4004FF0000C54F80C3041F80C300CF1040CB6
:1001F400CCEB0203032BF5D8131F03F0030223F007
:1002040003030433E418C91808462146BFE7C0466F
:10021400032A844630B40446CDB231D910F0030F1A
:100224002FD145EA05230F2A88BF944643EA0341A8
:1002340088BF234612D9ACF1100C1960596099603B
:10024400D9601033BCF10F0FF5D8103A22F00F0328
:1002540002F00F021033E018032A10D94FF0000CFB
:1002640040F80C100CF1040CCCEB0203032BF7D870
:10027400131F03F0030223F003030433C01884465E
:1002840032B1E9B200230CF8031001339A42FAD1D7
:10029400204630BC7047C046002202E0024B1A6080
:1002A40001328242FAD37047B00E0010038810B5B1
:1002B400EBB9114AD2F8C43043F40043C2F8C43055
:1002C4000E4A136843F0005313600C4C4FF08070D7
:1002D400636943F000536361FFF7DEFF63694FF026
:1002E400807023F000536361FFF7D6FFEDE74FF012
:1002F40000030380032010BD00C00F4020C009206C
:1003040010B5042000F030F800F05EFB10BDC046CC
:1003140010B501F0CDFE0548002101F077FF044837
:1003240001F0E8FF01F0A0FFFCE7C0466C000010FC
:100334002C64000010B5044B1A78587882EA000047
:1003440002F0D8FF10BDC0460001001010B5054AE8
:100354000146507820EA0103537001EA0000FFF7D8
:10036400E9FF10BD0001001010B5054A01465078A0
:1003740041EA0003537021EA0000FFF7DBFF10BDE0
:1003840000010010014B18687047C04604010010BA
:10039400034B1A68024B1B689B1A8342FAD37047BB
:1003A400040100100F4B10B51A680F4C01321A608B
:1003B4008220E368984710B163680020984702F0F0
:1003C4009BF808B102F0DCF808490B68013B0B60AC
:1003D40033B9044B5A6801325A604FF47A730B6094
:1003E40010BDC04604010010FC6400002800001089
:1003F400044B10B51868044B1B680BB1C0B2984786
:1004040010BDC0463CC800400C01001010B5054C9E
:10041400236813F0010F03D0FFF7EAFF01232360E1
:1004240010BDC04608A8004010B5044602F092FF73
:10043400044A136813F0020FFAD0034B1C60022322
:10044400136010BD08A800403CC80040044B1A7853
:10045400044B1878904214BF002001207047C04616
:100464002C00001014010010024A53780BB1013B18
:100474005370704714010010014B98787047C046C0
:1004840014010010024B1878FF3818BF0120704780
:100494002C000010024B01229A7000207047C046C5
:1004A40014010010024B01229A7000207047C046CC
:1004B400140100107047C0467047C0467047C046DC
:1004C40070B50E4D6B780BB1002015E00C4E7378AF
:1004D4008BB9AB797BB9AC786CB90420FFF736FFE4
:1004E40004F03CF901224FF0FF337270AC713370A9
:1004F40010462C7000E0012070BDC04614010010AD
:100504002C00001010B5064C6378012B06D1042092
:10051400FFF72AFF04F024F900236370012010BDC3
:100524002C00001010B504F001F910BD7F2910B59E
:1005340003460A4601D9012007E0044800248471D7
:1005440019460730FFF718FE204610BD14010010AD
:1005540070B5234A1378FF2B01D100203FE01378B4
:10056400204C5BB204EBC31393F886308B4201D961
:10057400002513E0137811785BB204EBC31393F8EE
:10058400865049B204EBC11187312A46FFF7F4FDC6
:1005940094F90410042089B202F084F9FFF776FD7F
:1005A4000F4B114A1B785BB2013303EA0202002AA3
:1005B40005DA013A6FEAC2726FEAD272013208496F
:1005C400D3B2084C0B700A782378934204D14FF0CD
:1005D400FF330B7001332370FFF755FD284670BDC0
:1005E4002C000010140100100100008070B5134DA0
:1005F40004460120FFF7AAFE85F886410CB18F2C32
:1006040003D10E4B00229A7117E00D4C94F900307F
:10061400002B10DD0120FFF7A7FEA81D04F09AF8B7
:1006240018B92378013B237007E000230120AB7144
:10063400FFF78CFE01E00023AB7170BD14010010C4
:10064400B80E0010394B13B502309871092002F02E
:1006540031F9374B1870374B5B78012B01D104F01B
:100664007FF8324C01206378013363704FF0FF331D
:1006740084F88631FFF778FEA01D04F06BF800289B
:100684003CD16846642101F0D1FE07E0684601F0E0
:10069400BFFE014638B9013000F0DAFC234B9B79E8
:1006A400002BF3D13CE0234B5B78012B20D104F0E9
:1006B40055F81DE004F052F81C4A92F886313BB11B
:1006C40092F886318F2B03D092F88631402B0FD1CC
:1006D400FFF7CAFE154A92F886318F2B01D100200C
:1006E4001DE092F88631402B18D092F88631ABB1D8
:1006F4000120FFF72BFEFFF7B7FE0DE0FFF7B4FE76
:100704000C4B5B78012B01D104F028F8074B002235
:100714009A710120FFF71AFE012000E003201CBD9E
:10072400044B5B78012BC7D1C4E7C0461401001009
:10073400B80E00102C00001010B50C46FFF7F6FEA2
:10074400012802D02046FFF77DFF10BD2DE9F041BE
:10075400102004F001F8114C012004F003F84FF0CC
:1007640001080F4E41F23420002584F8018003F083
:10077400E9FF4FF0FF33404604F8043BB571357090
:1007840003F0E2FF404603F0E1FF2046294675707E
:1007940001F03CFD2846BDE8F081C0462C00001065
:1007A40014010010028810B5044622B140F26223FD
:1007B4009A421FD103E040F26223238001E08229A0
:1007C40001D001201AE002F0B5F802F015F88021FA
:1007D400FFF7BEFE002805DD80B202F007F8084BE3
:1007E4001B69984707480378FF2BE4D0043001F0D5
:1007F40089FCE0E74FF000030380032010BDC046EE
:10080400C86400002C00001070B5254C0023A370B0
:1008140005469DF91060FFF719FE10BB234613F837
:10082400860B2A7840B2013203EBC0102946FFF749
:10083400A3FC23781B4A5BB2013303EA0202002AB9
:1008440005DA013A6FEAC2726FEAD2720132D3B2A8
:10085400134A1370144A1378FF2B1AD10023137010
:1008640017E00F4B5A7801325A700122DA7000F007
:100874001FF804460A4BDB7843B100F019F86FF017
:1008840006031B1B1B1813F4004FF3D1FFF7ECFDF9
:1008940070BD064801F036FC014B1E71E1E7C0460D
:1008A40014010010010000802C0000103000001022
:1008B400034B1A68034B586842EA00407047C0462D
:1008C40024E000409C0200100B4B10B598600446D5
:1008D400FFF7EEFF231AB3F5803F0CD882B29BB228
:1008E4009B18064A1360064B02221A60054A1368D5
:1008F40043F00203136010BD9C02001034E000407A
:1009040000A8004040A8004010B5174C236813F01D
:10091400010F1BD01549164B4A681B68013243EA84
:1009240002434A608A68D21A531EB3F5803F09D243
:10093400104B92B21A6002230F4A2360136843F0EB
:1009440002031360084B01221A600CE0236813F0C1
:10095400020F08D0084B1A6822F002021A6001F054
:1009640007FF0223236010BD00A800409C02001072
:1009740024E0004034E0004040A8004002460088E3
:1009840010F4004F18BF4840430013807047C0461E
:1009940070B5074C62212046FFF7F0FF41F20B01CE
:1009A4000546A01CFFF7EAFF684080B270BDC04650
:1009B4004000001010B5FFF7AFFB40B210BDC046B9
:1009C40010B5FFF7D9FB10BD10B5FFF75FFB044B63
:1009D40000221A6004331A60024A034B1A6010BDE5
:1009E4001C4000400400FA050CED00E02DE9F04F36
:1009F400624B97B01B6862490393624B04461868C4
:100A040008330A681B681B0443EA022343EA00070D
:100A14000B6813F0040F04D05B4A136843F002031D
:100A24001360584B1B6813F0040F04D0564A136824
:100A340043F004031360554B1A68012393401F428B
:100A440004D0514A136843F008031360504B00224A
:100A54001A60631E032B00F2CD82DFE813F0B902A3
:100A6400080026000400454B00221A601DE0494B93
:100A74001B6813F0010F04D0434A136843F040038A
:100A84001360444B1B6813F0040F04D03E4A1368F0
:100A940043F0200313603F4B1B6813F0020F04D094
:100AA400394A136843F010031360FFF7EFFA00F0BC
:100AB40023FB384B02221B6804900593364B1B68BA
:100AC4000693364B1B680793354B1B680893354BCD
:100AD4001B680993344B1B680A93344B1B680B93B4
:100AE400334B1B680C93334B1B680D93324B1B68C1
:100AF4000E93324B1B680F93314B1B681093314B91
:100B04001B681193304B1B681293304B1B68139373
:100B14002F4B1B6814932F4BD3F800B00433D3F836
:100B240000A00C33D3F800902B4B1E682B4BD3F84A
:100B340000802B4B1A602B4B4FF0FF321B68159330
:100B4400294B1B680193294B1B680293284B1A609D
:100B5400284B1B6813F4805F4ED0094B1B6813F0BD
:100B6400010F49D0084B1B6813F0010F44D0084A09
:100B74000125136843F4807313603EE008000040CD
:100B84000CBC004008BC00402000004018BC0040E1
:100B9400A802001054A0004058A0004060A80040E3
:100BA40064A8004068A800406CA8004004400040CD
:100BB40008400040184000402840004000500040D9
:100BC40004500040085000400C50004010500040B9
:100BD400145000401850004000E100E008ED00E02F
:100BE4000400004008B0004008B4004008B80040C9
:100BF4002800004000E200E00025604B1B6813F46D
:100C0400005F0FD05E4B1B6813F0400F0AD05D4BA2
:100C14001B6813F0010F05D05B4A0125136843F4E8
:100C240080431360554B1B6813F4804F13D0574A0D
:100C34000120136810FA03F31F420CD0514B1B68B8
:100C440013F0010F07D013684F4910FA03F30A6831
:100C5400054613430B60494B1B6813F4004F18D02F
:100C64004B4B1A68012393401F4212D0454A136824
:100C740013F0010F03D1136813F0080F09D0444B8C
:100C840001201B68404910FA03F30A680546134320
:100C94000B603A4B1B6813F4803F0AD0394B1B6836
:100CA40013F0800F05D0384A0125136843F0006320
:100CB4001360334B1A681B6812F001020CBF144610
:100CC4004FF4805413F0400F304B18BF44F40054D9
:100CD4001A68012393401F422D4B18BF44F48044EB
:100CE4001A6801239340274A1F42136818BF44F42B
:100CF400004413F0100F07D1136813F0200F03D131
:100D0400136813F0400F01D044F010041D4B1B680E
:100D140013F0800F18BF44F48034A52000F0E0F9EC
:100D24001C4A01231360174B1A681B4B1B681BB129
:100D34001A4B1B681342F8D0184B1B68134203D09C
:100D4400144B00221A6033E0002D31D1144A136889
:100D540023F001031360134A136843F00403136080
:100D6400114B01221A70114A136843F08053136027
:100D74000D4B1B78002BFBD121E0C04600E200E0C4
:100D84000CBC004020000040A802001014BC00402D
:100D940018BC0040400000403C00004028000040D7
:100DA4001C40004010ED00E0AE02001004ED00E035
:100DB400924A136843F080431360FFF778F9904B2D
:100DC40007221A60083203F500631A60039A8D4BF8
:100DD400DFF828E21A60059A8B4B1A60069A0433EE
:100DE4001A60079A894B1A60089A04331A60099AA0
:100DF40004331A600A9A04331A600B9A844B1A60FB
:100E04000C9A04331A600D9A10331A600E9A103338
:100E14001A600F9A7F4B1A60109A04331A60119A61
:100E240004331A60129A04331A60139A04331A6052
:100E3400149A04331A600433C3F800B00433C3F8BB
:100E440000A00C33C3F80090734B04EA06021A6046
:100E5400724B4FF0FF32C3F80080714B1A60714B34
:100E6400D3F800C003F580631C6803F58063186839
:100E74006D4B1A68083B1968029B114011F002057A
:100E840018BF4FF48065000440EA04201C04019B51
:100E9400DEF8002044EA0324644B40EA0C001E6898
:100EA40001F00403134301F47C72C1F3C001B140A7
:100EB40043EA0253159A14436040384003430B43FA
:100EC4002B43CEF80030FFF7E1F8FFF7F2F8584B68
:100ED40000221A60049B0BB100F0F0F84E4B1B6823
:100EE40013F4803F07D0454B1B6813F0006F02D00A
:100EF400504B20221A60444B1B6813F0020F07D09A
:100F04003E4B1B6813F0807F02D04B4B02221A60C9
:100F14003D4B1B6813F0040F07D0384B1B6813F0CC
:100F2400007F02D0444B04221A60374B1B6813F035
:100F3400010F07D0314B1B6813F0806F02D03E4B7A
:100F440001221A60314B1B6813F0E00F08D02B4BC1
:100F54001B6813F4807F03D0384B4FF480521A601F
:100F6400374B1B6813F0E00F08D0244B1B6813F4B5
:100F7400804F03D0314B4FF400521A60314B1B6841
:100F840013F0E00F0BD0304B1A68012393401B4A37
:100F94001268134203D0294B4FF480421A602B4B42
:100FA4001B6813F0E00F0BD0204B1A680123934009
:100FB400124A1268134203D0204B4FF400421A60C5
:100FC4000E4A136843F000431360FFF76CF812E015
:100FD40000F092F80446A52000F082F8FFF767F8C5
:100FE400FFF761F8FFF791F8FFF763F81CB100F021
:100FF40065F800E0FEE717B0BDE8F08FA802001026
:1010040014A000400800004054A0004060A8004024
:10101400044000400050004000E100E008ED00E022
:1010240080E200E008B000402800004018BC004006
:10103400040000402400004020A0004000E200E042
:1010440064A8004068A8004014BC00406CA800409C
:1010540070B58646154801F0FF03154D0360C1F3D2
:1010640007232B60134C144BC1F30741002221606A
:101074001A6003681BB92B680BB9236823B10E4AA5
:10108400136843F0010313600B4A7046136843F47A
:1010940080731360136843F400731360136843F0A0
:1010A40080031360FFF7A2FC70BDC04608BC00407B
:1010B4000CBC004010BC004020000040044B012147
:1010C40019604EF6BE22043B1A60043B1960704757
:1010D40008600040014B01221A607047086000401C
:1010E400A52806D1034B4DF6AD621A600222043BDB
:1010F4001A60704704600040024B186800F0010059
:101104007047C04600600040084B820800F00300AE
:10111400800010B553F822400F2383408140226899
:1011240022EA03020A43226010BDC0466464000040
:1011340017280CD8C30800F0070011B19B02044A19
:1011440001E0044A9B029A1801238340136070470C
:1011540010B0004014B00040024A136823F00103A9
:101164001360704704700040054A136813F0080FB9
:10117400FAD008231360034B00201B680B807047D0
:1011840018A00040007000400C4B19680C4B1B6801
:1011940013F0010F08BF400802280DD9094A13684B
:1011A40043F001031360054B1B685B1A23F07F4374
:1011B40023F470038342F6D37047C04638200040BE
:1011C4001C4000408C20004013B5104B7F2219882E
:1011D400044602230DF1060000F01CF99DF80620D8
:1011E4009DF80730FF2A03D1FF2B01D100220423ED
:1011F4000CB10233DBB2072B28BF0723072A28BF11
:10120400072242EAC312024B1A601CBD926400001A
:10121400180000401FB5164B0DF1060019887F22F7
:101224000A2300F0F7F8BDF80C004FF6FF7398425C
:1012340000D1FEE70F4B19680029FBD1C02204330B
:101244001A600D4A0123136011600A4B19680029C2
:10125400FBD10C331B68094B074A18600223136047
:101264001160044B1B68002BFBD105B000BDC046C8
:1012740090640000EC100040E8100040F4100040BE
:1012840070B514460C4A1D461368E40123F00803A4
:101294009DF8106044F001041360FEF7F7FE44EA81
:1012A4000534064B44EA86041C60054B08221A6088
:1012B400FEF7E9FE002070BD58A000400470004015
:1012C40018A00040064B10B51A88064B40F2DC50BB
:1012D4001A60FFF759FF044B186800F0010010BDB5
:1012E40044000010044000400C400040154A022312
:1012F4001360154B4FF0000270B51A8010240026BD
:10130400114D64082B88E3182B80FFF7DBFF10B125
:101314002B881B1B2B800136052EF1D10B4B1B6830
:1013240013F0010F03D1084A138801331380064ACE
:1013340013880C2B01D8023301E04FF00F03138004
:1013440070BDC0461C400040440000100C400040EA
:1013540070B52A4C4FF6FF7325889D420BD1284B5C
:101364007F2219882046022300F054F82388AB42D8
:1013740001D1FFF7BBFF234B02221A600025FFF7C0
:10138400A1FF214B0446196818B91C4A138801337C
:10139400138011F0020F07D0184A1388022B04D9C6
:1013A400013B1380012500E034B9144B1B880E2B3C
:1013B40001D8022BE3D81CB1104B1B88012B09D890
:1013C4000E4A13880C2B01D8023301E04FF00F03AF
:1013D400138000E00DB1FFF775FF0A4A136843F06C
:1013E40001031360094B01221A60FEF74FFE084BFC
:1013F40011221A60FEF747FE70BDC046440000107B
:10140400B86400001C4000400C40004020400040F4
:101414000080004037B57F2A08BF0022B1F5004F95
:1014240005461AD17F220823684640F61201FFF7C9
:10143400F1FF082268460E49FFF7BCFA10F0FF0FCF
:101444006C4606D1684640F2A2717F220823FFF75A
:10145400E1FF28466946082206E041F0006141F4B4
:10146400802103FB02111A46FFF7AAFA3EBDC046CB
:101474007C640000084940F6A7730A8A9A4208D19E
:10148400488A10F47F4F04D1012894BF0020012022
:1014940000E000207047C046000004082DE9F04732
:1014A400074688461446FEF7F1FD0646FFF7E2FFBD
:1014B40000B9FEE70C4B6500D3F8249041462A4658
:1014C40000233846C84704463046FEF7DCFD074E85
:1014D4000CB1305D05E03846414622462B46C847EC
:1014E400305CBDE8F087C04600000408BC6400001E
:1014F4002DE9F04706460F46FEF7C8FDDFF84C908D
:10150400012389F800300546FFF7B4FF00B9FEE770
:101514000C4B3946D3F8288046F48070C047044603
:101524002846FEF7B0FD002389F80030064D0CB1C3
:10153400285D04E046F400703946C047285CBDE8E5
:10154400F087C04600000408BC640000AC02001030
:10155400034B07221A60034B01221A707047C046DE
:1015640014A00040AD020010FEE7C0468546704757
:10157400684620F007018D4631B502F0F5F8414B7D
:1015840040F207321A6072B63F4A136823F001032F
:1015940013603E4B11221A603D4A3E4B1A600C33D5
:1015A4004FF078421A603C4A04331A603B4A0433D1
:1015B4001A60A2F5F042A3F512631A6002F58002E4
:1015C40004331A6004331A6004331A60E0220433CB
:1015D4001A60334B10221A6010334FF4E0221A6061
:1015E400304B1B6813F0200F0BD02F4BA2F5E022D9
:1015F4001A702E4A136843F080531360FEF77FFD80
:10160400FEE74FF080531A68294B9A421ED1294BAA
:101614001978D9B9284B1B781A46284B5B8A032BB7
:1016240001D00D4603E0264B023A33F81250002253
:101634004FF080531A600DB1FFF78AFE214B1C68EE
:10164400043B1868641BFFF791FFA047FEF71EFDDB
:1016540062B6002103E01C4B5B58435004311B4825
:101664001B4B42189A42F6D31A4A02E0002342F86E
:10167400043B194B9A42F9D3FEF74AFEBDE83140C8
:101684008546704718000040FCED00E000800040F3
:101694000004FA050CED00E0F8F8F84080F840800A
:1016A40014ED00E02C000040AE02001004ED00E058
:1016B4004D2001B00400001098070408000004083D
:1016C400C464000004000408A466000000000010C4
:1016D4000001001000010010980F001010B5054A19
:1016E400137833B1537823B901335370024B1B6A17
:1016F400984710BDB40200103C64000010B50649C0
:101704000B783BB14B782BB18B781BB94B70034BE7
:101714005B6A984710BDC046B40200103C640000E8
:1017240010B5FFF7EBFF024B00225A6010BDC04614
:10173400B4020010074A002310B51370C3B29370AB
:10174400054918B1012353700B6A01E04B6A5070CC
:10175400984710BDB40200103C6400007C20704720
:1017640073B50A4D2B781E466BB901242C70AB70EF
:10177400FFF79EF8224600F5B761054B05F1080016
:10178400009601F007F801207CBDC046B4020010A9
:101794000D18000037B50E4B05461B780C46ABB14F
:1017A400FFF786F8C043001910F4004F02D0FFF78A
:1017B4007FF8441C00230093284621460122054B50
:1017C40000F0E8FF10B1044804F0F6FB3EBDC0464B
:1017D400B40200100D180000AC65000070B5084C90
:1017E40063781D46237D4BB963683BB9FFF786FFD9
:1017F40025B1637813B9034800F0A2FD70BDC0465B
:10180400B4020010BC0E001037B5824C40F29F1396
:10181400E28A05469A424ED001D852B1F4E040F231
:10182400D1139A4200F0B580B2F5F67F40F0EC8017
:1018340002E0FFF73DF8A0617648027F531CDBB25B
:10184400082A037708D100230377836903F5365305
:1018540047338361836906E08369017F42F6C75297
:101864004A4303EBD2036B4A0362002382F8243019
:1018740082F8253024E0FFF71BF8237DA06283B9AA
:10188400636873B9237D0BB9FFF728FF624B5B696B
:10189400984720B95F4B012283F8242015E0FFF715
:1018A4009DFFFFF705F8411D2846FFF773FF594BCD
:1018B40040F29F126AE094F82530013384F8253011
:1018C400544C94F82530012BD5D9524C94F824303B
:1018D400002B00F08480FEF7EBFF0023E06284F825
:1018E400303084F8313054E04B4B5B699847034601
:1018F40010B194F83030013384F83030454C94F80A
:101904003130013384F83130434B9B69984710B12F
:10191400002384F830303F4A92F83030052B0AD83F
:1019240092F831300A2B09D93B4CA369984728B95E
:10193400E369984710B9FFF751FF39E0364BDB698B
:101944009847002834D1334B1B78E3B12C88FEF739
:10195400AFFF0434241A14F4004F01D1062205E029
:10196400FEF7A6FF2B68C3F102031A1829680023A7
:101974000093511828460122284B00F00BFF10B1A8
:10198400274804F019FB234B40F2D112DA820120DC
:101994003FE0204C237D5BB963784BB1FEF788FFB1
:1019A400E26A6FF091039B1A1B1813F4004F9BD14A
:1019B400184B5B789BB1184CA369984710B9E3693D
:1019C400984750B1FEF774FF124BDA6A6FF0910337
:1019D4009B1A1B1813F4004F01D1FFF7FFFEFEF70B
:1019E40067FF0C4C0F4B226A9B1A1B1813F4004F11
:1019F4003FF422AF216A284601F5B761FFF7CAFE1A
:101A04004FF4F673E382C2E7024B4FF00002DA822E
:101A140003203EBDB40200103C6400000D18000019
:101A2400AC65000078FAFFFF434B70B55B680BB9F7
:101A3400FFF764FE00F018FF00287BD03F4B5B6883
:101A44009847002876DB00F0D7FE03780446002B85
:101A540070D1022000F0B8FE607800F0C7FE00F0FC
:101A6400F5FE002866D000F0FFFE002862D01920A1
:101A740000F026FF324901F0EDFE38B9193000F0CC
:101A84001FFF304901F0E6FE002853D0122000F079
:101A940011FF294C606048B1FFF720FE04F13400C7
:101AA4001F21294A002300F03DFE05E0FFF726FE32
:101AB40004F1340000F024FE244E002435460D20A9
:101AC40000F0F8FE2B7A834209D1182000F0F8FECA
:101AD4001E49092303FB041101F0BCFE50BB013471
:101AE4000935102CEBD11A48A0F10904092221462A
:101AF400FEF742FBB4422046F6D10D2000F0DAFE98
:101B04000D4C84F85C00182000F0DAFE014604F164
:101B1400540001F097FE04F1E40000F011FC04F11C
:101B2400E40000F0F7FB04F1E40000F0EFFB094BE4
:101B3400DB68984770BDC046B402001024650000FD
:101B4400150F00101C650000251700000803001085
:101B54008F0300102C6500002DE9F04F93469F4A37
:101B640087B0137881468A461BB99378002B00F01E
:101B7400308100F079FE002800F02B81984918206C
:101B840000F0A6FE192000F09BFE964901F062FECB
:101B940080460C2000F08EFE10B9173000F08AFE4B
:101BA40001210B2000F07EFE00F05EFE04460220C0
:101BB40000F064FE002800F00C8100F029FE8A4B3E
:101BC4000027077044701B689847061E03DA02203A
:101BD40000F0F2FDFDE000F047FE2A2804460EDC8A
:101BE40000F00AFE044600F031FE054600F03CFE1B
:101BF4003946C0F12B026019FEF70AFB2B2400F0D2
:101C040005FF00F005FE794BA4B2059421465B68FC
:101C1400B8F1000818BF4FF001089847B01C00F055
:101C2400CBFDB8F1000F1AD16C4BD3F8EC30B3B93B
:101C3400192000F045FE9C2301464FF4B7626C481E
:101C4400CDF80090CDF804A0CDF808B000F084F9E8
:101C5400022801D10324BDE008B1012700E00027D8
:101C64005E4C624D01262675AB69984710B9EB6945
:101C7400984718B1594B00221A7594E0FFF73EFDBE
:101C8400237826709946D4F8EC305BBB1C46FEF7EB
:101C94000FFE0546FFF722FDFEF70AFEEB43C018D0
:101CA40010F4004FF8D1514B5B699847054640B991
:101CB4004A4CFFF723FD2575FFF720FD84F80090BB
:101CC40071E0FFF71BFDFEF7F3FD0546FEF7F0FD9F
:101CD4006FF004035B1B1B1813F4004FF6D101349F
:101CE400062CD4D101F036FBFEF7E2FD06460A20AD
:101CF40000F0E0FD37E001F02DFB384BD3F8EC3079
:101D040003B947B1FEF7D4FD6FF0C2031B1B1B18C8
:101D140013F4004F30D0FEF7CBFD344B04469B68E0
:101D24000598984730B9B8F1000F0AD12646012723
:101D3400444624E0032804D0022814BF00250125CA
:101D440000E00025FEF7B4FD0446FEF7B1FD6FF098
:101D540001031B1B1B1813F4004FF6D11DB1002601
:101D6400374601240BE0FEF7A3FD224BB4B21B1B44
:101D74001B1813F4004FBED1002637463446174DC6
:101D8400FFF7BCFC05F1E40000F0DAFA05F1E40029
:101D940000F0C0FA05F1E40000F0B8FA002385F879
:101DA40000902B750CB1012414E0B8F1000F11D18F
:101DB400D5F8EC30002F0CBF0224002453B91920AD
:101DC40000F07EFD324601462346094800F020F922
:101DD40000E00524204607B0BDE8F08FB4020010EF
:101DE400150F00101C650000246500003C64000011
:101DF4004800001030FAFFFF2DE9F04106460F4677
:101E04001046002A35D01C4A53684BB1406800F094
:101E14003BFE012230463946134601F02DFD28E0F1
:101E2400C2F8EC300446204600F062FB05466068C8
:101E340000F02AFE1DB11220012100F033FD2246DC
:101E440030463946FFF788FE032804460DD0304655
:101E540039462246012301F00FFD34B92DB1064B5A
:101E64000122C3F8EC202C46DDE7034B0022C3F823
:101E7400EC20BDE8F081C046B402001070B5002229
:101E840004460D46FFF768FE0328024604D02046A8
:101E94002946012301F0F0FC70BDC04637B50A4D58
:101EA40000246C70EC82FEF703FD012200F5B7619B
:101EB400064B05F10800009400F06CFC0123044873
:101EC4002B7000F007F83EBDB40200100D1800009E
:101ED40048000010036810B50446186800F0AEFA14
:101EE400606800F085FA024800F082FA10BDC0462E
:101EF40060000010C26A70B504460B4D52B9806A86
:101F040000F0C2FDA06A00F0EFFDAB68206A616AD0
:101F1400984703E0EB68006A616A984721460348E2
:101F240000F03EFA70BDC046C864000060000010B6
:101F3400036870B518680D4600F084FA07E0284677
:101F4400211D01F087FC28B9204600F0D1FA04468F
:101F54000028F4D1204670BD2DE9F047DDF8289023
:101F640014461F46FFF7E4FF054600B949E0FEF7B3
:101F74009FFC0646601E2042EB6803D19B1B03EACC
:101F8400000505E0F21AB2FBF4F304FB1323E51A8F
:101F9400BD4238BF2D19EB1B4FF47A725A4342F6F7
:101FA400C753B2FBF3F8B8F1010F1CD9164800F07F
:101FB400E1F9044698B1B9F1000F02D100F0BAFD7D
:101FC400A062089B20462362099BC4F82C9063629C
:101FD40041460E4A234600F0A5FB022011E00A48C0
:101FE400214600F0DDF9F31B5B199CB2A31B13F42B
:101FF400004F05D1FEF75CFC001B10F4004FF9D133
:102004000120BDE8F087C04660000010F91E000002
:102014002DE9F0410646884617461C46FFF788FF1F
:10202400054618B314B9C760047436E0022C34D1E1
:10203400037C0133DBB2012B037405D100F11400DE
:1020440047F2305100F0F2F92B7C0F2B04D805F144
:10205400140000F0DDF900B333682946186800F075
:1020640011FA7068294600F09BF916E0ACB9706863
:1020740000F080F9044620B93368186800F0ECF9E0
:102084000446201D414601F0DDFB00232374336820
:10209400E7601868214600F009FABDE8F081C046FF
:1020A400024B1878421C1A707047C04698080010FA
:1020B400044A6FF075031370763353709370536052
:1020C400936070479808001030B5054608460C49DF
:1020D400144691F802C0BCF1100F01D101200EE0AA
:1020E4004B780C22634403F00F034B7302FB03137E
:1020F40018745C619D610CF101038B70002030BD8C
:102104009808001040B1837B013BDBB2012B03D85C
:10211400024B0122C2731A737047C046980800101C
:10212400807B003818BF01207047C046214B2DE941
:10213400F0415D68D3F8088004460F462B4600E062
:102144001B68A34202D0002BFAD130E0002C2ED021
:102154002046FFF7E5FFB8B10023A37307E0AC42C4
:1021640004D028468721224600F026F82D68002D49
:10217400F5D1A66846B1BC4206D00E4B04F10C0062
:102184009C6083212A46B0470A4A51688C4209D18F
:102194002368536008E00B68A34202D123680B60F4
:1021A40002E019460029F6D1024BC3F80880BDE8C5
:1021B400F081C0469808001070B5837B044613F084
:1021C400010F0E4614D0856895B10A4B986002231E
:1021D400837300F10C00A8470238012801D9832E2B
:1021E40004D120462146FFF7A1FF01E00123A37398
:1021F40070BDC0469808001070B5034CA568FFF781
:10220400DBFFA56070BDC046980800100A4B0A4663
:102214005B6810B5194600E0096881420AD00029BC
:10222400FAD10360044B81815860012383738131A7
:10223400FFF7E2FF10BDC04698080010094A0023CA
:1022440010B5137354680AE0E37B3BB10123002209
:10225400A373E27320468221FFF7AEFF2468002CAB
:10226400F2D110BD9808001070B5214B1B7B0BB147
:10227400FFF7E4FF1E4CA578002D34D063780C22C0
:1022840002FB0342117C013384F8D0105669906933
:1022940003F00F0363706B1EC4F8D460C4F8D80055
:1022A400A370C8B963680FE0137B0BB1FFF7C6FFD7
:1022B4000F4CD4F8DC0094F8D010D4F8D420FFF7F5
:1022C4007BFFD4F8DC301B68094AC4F8DC30D2F850
:1022D400DC30002BE8D106E0812901D1012383738E
:1022E4003246FFF769FF024B1A7B9878101870BDCD
:1022F4009808001070B50546002402E00021FFF79D
:1023040085FF285904340028F8D170BD00234360A8
:102314000360704710B50446072000F0CBFA236829
:10232400C11889B2072000F0BDFA082000F0C2FAF3
:102334006368C11889B2082000F0B4FA10BDC04621
:1023440070B5054600F012FA072000F00DFA084CAB
:102354002B6822689B1A1B182B602060062000F053
:1023640003FA6B6862689B1A1B186B60606070BD2F
:10237400780900100146B0F802C000200BE04B6859
:102384001A181B5C33B9013313700A888B6802FB7B
:10239400003003E001306045F1DB00207047C046A7
:1023A40010B582680446B0F802C000200CE08A42EE
:1023B40007D16268135C0BB1013B13546368185C6A
:1023C40005E023880130D2186045F0DBFF2010BD02
:1023D4008C4681688C4501D2002007E0038842883E
:1023E40002FB03139C452CBF002001207047C0460C
:1023F40010B50446002162884068FDF709FF638830
:102404002288A06800215A43FDF702FF10BDC04690
:1024140010B50446FDF7B6FF2368C3F101031B188A
:10242400606898422CBF0020012010BD10B54160A7
:102434000446FDF7A7FF206010BDC04600230360DB
:102444007047C04600687047006820B103460068C2
:102454000028FBD1184670470146006850B1026855
:10246400034612B90A6005E0034618680268002AA8
:10247400FAD11A607047C0460246006808B1036882
:1024840013607047036883B11A4600230BE08A4245
:1024940007D111680BB9016000E0196000231360D3
:1024A40003E013461268002AF1D1704770B505465F
:1024B4000C46FFF7E7FF2B682C60236070BDC04615
:1024C40070B505460C46FFF7DDFF00232360284660
:1024D400FFF7BAFF08B92C6000E0046070BDC04685
:1024E4000368002001E01B680130002BFBD170471A
:1024F40000B900E000687047024B1868003818BF44
:10250400012070478009001010B50F4C23680BB9E7
:10251400636017E0FDF736FF236819685A6852189C
:10252400C0EB020E996807E04B680A6889689B183B
:102534001B1A9E4528BF9E460029F5D1024B0EEB7F
:1025440000025A6010BDC046800900100B4910B546
:102554000A680446904203D183680B600BE01A4674
:102564001AB19368A342FAD103E00023A360E360A5
:1025740010BDA3689360FFF7C7FFF6E7800900105A
:1025840010B50248FFF7BEFD10BDC0466C00001038
:1025940070B50646008810B1592842D106E0234B95
:1025A40018604FF05903338001203EE0872915D18C
:1025B4001E4B186800E080680028F0D0C36893427E
:1025C400F9D01A4B186005E0CB6893420ABF8B68B8
:1025D4000846836081680029F6D1E2E78229E0D1C8
:1025E400124B00251C6819E02046FFF711FF98B133
:1025F400E06888212246FFF767FD58B9E060A268C9
:102604000DB1AA6001E0094B1A600023A360FFF733
:102614007BFFE5E7FFF7B4FF2546A468002CE3D170
:10262400BFE74FF000033380032070BD8009001022
:1026340010B50446FFF7A4FFE3683BB1084B1B68E1
:1026440002E0A34209D09B68002BFAD1054B044A4F
:102654001B68E3601368A3601460FFF755FF10BDA7
:1026640080090010A008001010B50446FFF7DEFE34
:102674002046FFF7DDFF10BD038870B506461546FA
:1026840013B14A2B32D112E01B48FFF7DBFE04469C
:1026940004E0201DA168FFF7E7FF2468002CF8D1AF
:1026A400154B01221A714FF04A03338001E0882947
:1026B40001D001201EE01048FFF7C4FE044612E0DA
:1026C400231D9D420ED10C482146FFF7DBFE0B4A29
:1026D400636915681360A3690BB1E0699847074BF8
:1026E4001D60E0E72468002CEAD1DCE74FF000032A
:1026F4000380032070BDC04688090010A0080010A4
:1027040010B5074B04461B791BB10430FFF71EFFBD
:1027140001E0C360036102482146FFF7B3FE10BD28
:102724008809001070B50D4D04462E68E3610C4B0A
:102734006661A2611B7933B10A4B201D2B60FFF740
:1027440093FF2E6000E0A16021460548FFF79AFE42
:1027540003482146FFF7B4FE70BDC046A008001030
:10276400880900107C000010002070477047C046A4
:1027740010B5074C206848B1002323608168436882
:102784009847206810B10068FEF79EF810BDC04657
:1027940090090010074A10B543600C46029B11686B
:1027A40083600460106011B92046FEF78DF80020A4
:1027B40010BDC04690090010024B1A78801818709A
:1027C4007047C046940900100749B1F802C0844517
:1027D40001DA002007E08B8882B2D318C2EB0C0226
:1027E4008B804A800120704794090010014B588067
:1027F4007047C04694090010034B9888034B30304F
:102804001B6818187047C04694090010E86400005B
:10281400024B1A78024B186880187047940900100C
:10282400E8640000044B1868044B30309B68181AA5
:1028340018BF01207047C046E864000094090010E6
:10284400014B98687047C04694090010014B5888A2
:102854007047C04694090010024B1878C0F130004C
:10286400C0B270479409001010B5FFF7F5FF024B92
:102874005B88C01880B210BD9409001070B5084E72
:1028840004463578854208DBFFF7EEFF20188028E0
:1028940003DC2B1B3370012000E0002070BDC04618
:1028A40094090010024B23F8101001207047C04611
:1028B400E40E0010014B33F810007047E40E0010D2
:1028C400A0F11803014800EBC3007047C40E0010C8
:1028D400A0F11803034810B500EBC30000F0B2FFE9
:1028E400012010BDC40E001010B500220B4B4FF098
:1028F400000199520232302AF8D10948094900F0FE
:10290400A1FF0948074900F09DFF0848054900F068
:1029140099FF0748034900F095FF10BDE40E00102D
:10292400C40E00101C650000CC0E0010D40E001064
:10293400DC0E0010064A002393805380303310B518
:102944001370044B1B6830339360FFF7CDFF10BD49
:1029540094090010E8640000034610B530220C46C8
:1029640004481946FDF708FC214620220248FDF7D9
:1029740003FC10BDE40E0010C40E001010B530228C
:102984000C460449FDF7F8FB204603492022FDF7D5
:10299400F3FB10BDE40E0010C40E001070B5104C13
:1029A400054694F800C06388CCF13002D318802B1C
:1029B40001DD002012E00B4B19686144FDF7DCFBDC
:1029C4002078A388A168C0F13000C918628828184B
:1029D400FDF7D2FB638822783033981A70BDC04665
:1029E40094090010E864000010B5064B064C196801
:1029F40022788918C2F13002FDF7BEFB2078C0F1BD
:102A0400300010BDE86400009409001010B5FFF711
:102A140009FF114A38B1114B916818685288303057
:102A2400FDF7AAFB16E09188A1B15388302203F187
:102A340030000A4B1C6801F13003E11803E011F87F
:102A4400013CA354013201318242F8DB024B4FF0C6
:102A540000029A8010BDC04694090010E86400008A
:102A640070B50D46074E0446802D28BF8025FFF71C
:102A740061FFB06821462A46FDF77EFB7580284633
:102A840070BDC0469409001070B505462946144827
:102A9400FFF79EFC60B12D682C4634F8821BA81CFD
:102AA400FFF7DEFF204605F1B201FFF755FF16E000
:102AB4000C482946FFF78CFC88B1FFF73BFF2988B7
:102AC4006868FFF7CDFF95F83800FFF7D7FEFFF7EA
:102AD4009FFE05F1080195F83820FDF74DFB70BD08
:102AE4008C0000109800001010B5044621460A48D6
:102AF400FFF76EFC28B109482168FFF751FC06482E
:102B040005E007482146FFF763FC18B10448214655
:102B1400FFF746FC10BDC0468C000010A400001056
:102B240098000010016810B501F18200B231FFF77E
:102B340025FF10BD70B5FFF775FE88B11548FFF786
:102B440019FC0446B8B1FFF781FE2080FFF778FE38
:102B5400606004F10800FFF747FF84F838000AE0DA
:102B64000D48FFF707FC054690B10C48FFF702FC3F
:102B74000446286008B925460AE00230FFF70EFF34
:102B8400234623F8820B184604F1B201FFF7F6FE40
:102B9400284670BD980000108C000010A40000109E
:102BA40010B5064C04F11800FFF722FC2046FFF78D
:102BB4001FFC04F10C00FFF71BFC10BD8C0000107F
:102BC400064B01461A78002005E0054B53F82030E7
:102BD4008B4202D001309042F7DB7047080C0010A2
:102BE4001800001070B504880546772C1FD07E2C81
:102BF40033D0002C4ED1FFF753FA294B1870294BD0
:102C04005C6008E0284B0021995483688020984731
:102C1400636801336360234C244B626853F82200D9
:102C24000028EFD122704FF077032B8019E01D4A62
:102C34000023936024E01C4B1B57002B1DDA184B18
:102C440000201978194B53F82420FFF73DFA50B9A6
:102C54004FF07E032B80013020E0114B1B788B4218
:102C640001D001201AE00F4A0F4950680B5C03F0B1
:102C74007F030B549368013393600A4A536801330A
:102C84005360084A546813789C42D4DB9368002B41
:102C9400CDD1C8E74FF000030380032070BDC046C8
:102CA400140F0010080C0010B40E001018000010CF
:102CB40010B5FFF785FF054A135C6FEA43636FEABB
:102CC400536313540248FFF71DFA10BDB40E0010ED
:102CD400B0000010822807B501D000200CE0382095
:102CE40020210DF10702012300F014F900B903E0DB
:102CF4009DF80730C3F380100EBDC046022810B5FE
:102D04001BD002DC012826D113E0802802D08128C0
:102D140021D102E000F060FA1EE039B100F054FA6B
:102D2400C8B10820FDF734FB012015E000F044FA97
:102D340012E0C8B200F01CFA0EE0032905DC41F0F1
:102D4400100238202121D2B202E0382021210022B1
:102D540000F0A2F900E0002010BDC046022807B52B
:102D640005D0032807D0012803D0002016E02B212A
:102D740002E0292100E02D2102AA002302F8013DEE
:102D84003820013300F0C6F800F0BEF801289DF9A0
:102D9400070001D1482300E0122358430EBDC0466A
:102DA400024B187800F001007047C046140C001064
:102DB400822810B501D0002001E0FFF7F1FF10BD1B
:102DC400802810B503D0812808D0002011E00948DC
:102DD4000021FFF72BFB00F06BFA09E0064A19B15A
:102DE400137843F0010302E0137823F00103137016
:102DF400012010BD180C0010140C001010B5FFF7C2
:102E0400CFFF48B31548FFF703FB28B3144B1A68E8
:102E1400137A0BB9FF2005E0D3685B685A791B79F4
:102E240042EA030000F02EFA0E4C88B9201D6421FA
:102E3400FFF7FCFA237813F0020F02D10A48FFF7D8
:102E440037FF084A0120137843F00203137004E0AB
:102E5400237823F002032370002010BD180C001007
:102E6400280C0010140C0010FC640000822814BF0D
:102E7400002001207047C046802810B504D0812866
:102E840014BF002001200FE0084B00211B689B6940
:102E94005A79187942EA0000FEF736F900F02CFC62
:102EA400012000F05BFA012010BDC046280C001080
:102EB400134B10B51B68134C9B695A79187942EA75
:102EC400000000F0A7FA020109320723D2B2C021A0
:102ED400012000F053FB2146012000F005FB20886F
:102EE40000F0C4FB80B2608000B2C0F59040E730CF
:102EF4006423434340F2914093FBF0F010BDC0467D
:102F0400280C0010200C0010014B18787047C046A4
:102F1400240C0010F7B517465B4A012B1E461368B4
:102F24000C4643F00403054688BF81F08004136017
:102F340068460A21FFF77AFA05E06846FFF768FA5F
:102F4400002840F09E80514B68461B6813F0080F20
:102F5400F3D04F4B4C4A1D6013680A2143F002031F
:102F64001360FFF763FA05E06846FFF751FA00289B
:102F740040F08780454B68461B6813F0020FF3D07E
:102F8400434B414A1C6013680A2143F00203136057
:102F9400FFF74CFA04E06846FFF73AFA002870D1CC
:102FA4003A4B68461B6813F0020FF4D0364A0A21E4
:102FB400136843F004031360FFF738FA04E068462B
:102FC400FFF726FA00285CD1304B68461B6813F0E3
:102FD400080FF4D02E4B45F001021A602A4A0A2148
:102FE400136843F002031360FFF720FA04E0684615
:102FF400FFF70EFA002844D1244B1B6813F0020F8C
:10300400F5D0002525E0FEF765F8731E9C4204DA2E
:10301400204A136843F0010303E01E4A136823F0B7
:1030240001031360184A684613680A2143F0010338
:103034001360FFF7FBF903E06846FFF7E9F900BB0B
:10304400124B1B6813F0040FF6D0114B1B687B5511
:103054000135ECB2B442D6D30B4A684613680A2150
:1030640043F008031360FFF7E1F903E06846FFF754
:10307400CFF930B9054B1B6813F0080FF6D00120C7
:1030840000E00020FEBDC0464CC0004044C00040EB
:103094003CC0004050C000401FB58DF80F20314A9D
:1030A4008DF80E101368044643F00403136001A85E
:1030B4000A21FFF7BBF903E0FFF7AAF900284DD175
:1030C400294B01A81B6813F0080FF5D0274B254A9C
:1030D4001C6013680A2143F002031360FFF7A6F98A
:1030E40004E001A8FFF794F9002837D11E4B1B68B0
:1030F40013F0020FF5D00024FDF7ECFF0DF10E03E1
:103104001A5D1A4B01A81A60164A0A21136843F083
:1031140002031360FFF78AF903E001A8FFF778F9C7
:10312400E0B9114B1B6813F0020FF6D00134022CE6
:10313400E2D10C4A01A813680A2143F00803136082
:10314400FFF774F903E001A8FFF762F930B9064B01
:103154001B6813F0080FF6D0012000E0002004B033
:1031640010BDC0464CC0004044C000403CC00040BC
:1031740013B501230446202138200DF10702FFF77F
:10318400C9FEA0B19DF80730012C0CBF43F0200309
:1031940023F020038DF80730382020219DF80720E4
:1031A400FFF77AFF18B1034B01201C7000E00020E8
:1031B4001CBDC046240C001010B5382020218722E5
:1031C400FFF76AFF10BDC04610B538202021C72282
:1031D400FFF762FF10BDC046254A2DE9704313680E
:1031E400002523F4885323F011031360214B032299
:1031F4001A60214A27211368382023F47F6313605F
:10320400136843F45D6313601C4B0E221A600122A1
:1032140004331A60183B1D6004331D602A46FFF70F
:103224003BFF302181462A463820FFF735FF04460C
:1032340038202A460146FFF72FFF212180462A46DF
:103244003820FFF729FF2021064687223820FFF780
:1032540023FF4C444444A4192418094B04F0FF04EC
:103264001D70052C14BF00200120BDE87083C046EA
:1032740020F0004054C0004000B0004060C0004056
:10328400240C0010FF2801D103200DE0C0F3C30279
:10329400064B9202D318196800F0070201239340E9
:1032A40019420CBF002001207047C04608B00040FE
:1032B4000F4B70B51B680025DB685E6811E006EBF8
:1032C400C50463792079082143EA0000FDF71CFF57
:1032D40063792079012143EA0000FDF729FF6B1C83
:1032E400DDB2034B1B681B7AAB42E8D870BDC04605
:1032F400280C001070B5164D04462B6884F00101AB
:10330400DB6801F001011B685A79187942EA000070
:10331400FDF70EFF2B6884F00201DB68C1F3400166
:103324001B6884F0040408335A79187942EA0000CF
:10333400FDF7FEFE2B68C4F38001DB681B680833CD
:103344005A79187942EA0000FDF7F2FE70BDC046D2
:10335400280C001010B5FDF7BDFE10BD054A18B1CC
:10336400138843F4C05302E0138823F4C05313803A
:103374007047C0462C0C0010034B1B8813F4C05F2D
:103384000CBF0020012070472C0C00101E498B78C4
:103394001A461E4B1B6813F0040F2ED0022A2CD899
:1033A400488901EB42034FF0010C98800CFA02F3B8
:1033B4000A7B487B13430B73D8B110F0010F01D083
:1033C400002308E010F0020F01D0634603E010F080
:1033D400040F12D002230C4A1946937001238B4028
:1033E40080EA0303537302EB4102D289084B1A604B
:1033F40003E0074B186003238B70044B4FF6FF72F6
:103404001A60BFF35F8F70472C0C001010A80040A7
:1034140004D0004004380D2816D8DFE800F00F115E
:103424001515131515151509070B150D01200CE0BD
:1034340000200AE0022008E0032006E0042004E063
:10344400052002E00A2000E00F2070472DE9F0413A
:1034540005460E46FCF720FE58B9204B1B6813F4B2
:10346400006F06D01E4B1B6883F00403C3F3800473
:1034740000E00124FCF70AFE07465CB1174B1B6809
:1034840013F4006F06D0164B1B6813F0040F01D021
:10349400FFF77CFF134A107B30FA05F313F0010F9A
:1034A4000AD002EB45039B88802433800123AB4080
:1034B40080EA030313730BE0537BEB4013F0010F1B
:1034C40001D0822404E09378AB420CBF812484248D
:1034D4003846FCF7D8FD2046BDE8F08100E100E065
:1034E40050A800402C0C001070B505460C46284628
:1034F4002146FFF7ABFF842801D08028F7D170BDA7
:1035040010B5FCF7C3FD194B8646587B38B3184BEE
:103514001B6813F0010322D110F0010F08D110F041
:10352400020F01D0012303E010F0040F17D002238F
:103534000E4A194693701C4601238B4080EA03030C
:10354400537302EB4102D289094B1A60094B4FF6BF
:10355400FF721A60084B4FF400621A6000E0032403
:103564007046FCF790FD204610BDC0462C0C0010A0
:1035740004D0004010A8004000E100E0C02970B56C
:103584000546184601D0012023E0124CD3002288BE
:1035940043EA4033134304EB4501CB81637BEB40A7
:1035A40013F0010F14D1FCF771FD0123AB40627BD2
:1035B400DBB243EA02026273227B22EA0302227331
:1035C400FCF761FDFFF79CFFA84201D1812000E0D8
:1035D400822070BD2C0C001070B50446FFF7CCFEA1
:1035E400D8B1214DC021A92207232046FFF7C6FFE9
:1035F400204605F11401FFF777FF80282FD1C02161
:10360400992207232046FFF7B9FF204605F116014A
:10361400FFF76AFF80281FD021E0134DC0218922C3
:1036240007232046FFF7AAFF204605F11A01FFF7FA
:103634005BFF802813D1C021B92207232046FFF75E
:103644009DFF204605F11C01FFF74EFF802806D19F
:10365400AB8B6A8B9B1AAB8301232B7603E0024B63
:1036640000221A76012070BD2C0C001070B5214B7D
:103674000546187E08B9FFF7AFFF1E4C237E13B929
:103684004FF4004033E0FFF777FEC0B1B4F91430D3
:10369400B4F916106FF0010202FB01325B1A5219E1
:1036A4005B00120492FBF3F242F6E063534345F2EB
:1036B40008221B149342A8BF134698B217E0A18BAB
:1036C40001B9FEE7B4F91A2009B20223AA1A91FB40
:1036D400F3F303EB024393FBF1F342F228325A4330
:1036E40042F6E06312149A42A8BF1A4690B200B29E
:1036F40070BDC0462C0C0010154A4FF00503138012
:10370400144B0021032010B551739070117611737E
:10371400196004331960043301F5004119600E493E
:1037240010230B600D4B0A321A60012204331A6015
:103734000B4B121808601A60403B4FF6FF721A6078
:10374400084B4FF400621A60FDF764FD10BDC046DB
:103754002C0C001004D0004010D0004018D00040C1
:1037640050A8004000E100E0334B2022C3F8A02120
:103774003148D0F8A03113F0400FF9D00323C0F83A
:1037840004312E4B0121C0F80C11AA22C0F8843058
:103794005523C0F88C20C0F88C30C0F88010C0F8D5
:1037A4008C20C0F88C30244AD2F8883013F0806F13
:1037B400F9D00323C2F88030A733C2F88C305523E4
:1037C400C2F88C301C48D0F8883013F0407FF9D010
:1037D4002323C0F8A430AA2155220123C0F8AC1039
:1037E400C0F8AC20C0F8A030C0F8AC10C0F8AC20D1
:1037F400114AD2F8A83013F4806FF9D00323C2F829
:10380400A030A733C2F8AC305523C2F8AC300A4913
:10381400D1F8A83013F4407FF9D0094A0023C1F845
:10382400A831C1F8AC31C1F8C420C1F8C83143F2A1
:103834003A030B607047C04600C00F4063000500A8
:10384400DE87280400228B5C83540132082AFAD1D3
:103854007047C0464FF0000C10F80C2011F80C30E3
:103864009A4201D0002005E00CF1010CBCF1080FD4
:10387400F2D101207047C04610B5844618B10846FD
:1038840011461A46E04710BD10B590B0FEF7DEFFB2
:103894000446FEF7B1FFE1B201AA00F0AFFD002833
:1038A40036D09DF83C00201AFEF78EFF80B39DF8B9
:1038B4000910D1B1BDF80E2041F234239A4203D04D
:1038C4004FF6FF739A4223D102290CBF0222082229
:1038D400013A01A953181B7BFF2B02D1002AF7DC04
:1038E40003E019200C31FEF7F3FF0DF11A01182043
:1038F400FEF7EEFF9DF806101220FEF7D3FF0D2011
:103904009DF80C10FEF7CEFF9DF83C30E01A01E064
:103914004FF0FF3010B010BD30B5434C91B001A84A
:1039240000213C22FCF774FC237823B90133237073
:1039340000F016FA60700123002412208DF8043080
:103944008DF80540FEF7B6FF8DF806001920FEF746
:10395400B7FF3649FFF77EFF10B18DF8074004E04A
:103964000B20FEF7A7FF8DF8070000230A208DF82F
:1039740008308DF80A30FEF79DFF28B10A20FEF7C3
:1039840099FF8DF80C0008E0274A0A2051784B1C57
:1039940053708DF80C10FEF785FF41F23423032495
:1039A40019208DF80B40ADF80E30FEF789FF1F4942
:1039B400FFF750FF48B102238DF809304FF0FF3371
:1039C4008DF810308DF8113008E01920FEF778FFDB
:1039D400014604A8FFF736FF8DF8094001AD41F216
:1039E4003423134905F11600ADF81830FFF72AFF08
:1039F400FEF702FF0E90FEF729FF8DF83C002846E3
:103A040000F048FE0446FEF739FF10B94FF0FF34CA
:103A140006E0FEF7FDFE22460146284600F0BAFD08
:103A2400204611B030BDC0464A0C00101C65000091
:103A3400150F0010034B10B5DB699847002808BF29
:103A44007D2010BDC8640000024B10B59B689847E8
:103A540010BDC04648650000024B10B55B6998472D
:103A640010BDC046C8640000024B10B59B6998475E
:103A740010BDC046C8640000024B10B5D86900B13F
:103A8400804710BDC864000010B5044648B1406BBF
:103A9400FEF7D8FC024620B1024B03482146DB68FE
:103AA400984710BDC8640000953C00002DE9F04122
:103AB4004E4C8846218807464B1C23800A20FEF77B
:103AC400F1FE1920FEF7FCFE4949FFF7C3FE00286A
:103AD4007DD11930FEF7F4FE0546201DFEF7B2FC39
:103AE40007E0201D2946FFF7B5FED8B92046FEF7AA
:103AF400FFFC04460028F4D16FE02946201DFFF79F
:103B0400A1FE002304F13000606384F82C3084F8B3
:103B14002D3084F82E302363FEF790FC354821467F
:103B2400FEF7CEFC3448FEF725FC064600283BD0C1
:103B34003248FEF71FFCB060002831D0FEF7FAFFD0
:103B4400706048B30920B568FEF7B4FE10B90323CA
:103B54002B7203E00920FEF7ADFE28720E202F60C1
:103B6400C5F80480FEF7A6FE012804D1606B314637
:103B7400FEF79CFC03E0606B3146FEF7A1FC606B32
:103B8400FEF760FC86422FD104F10C0000211C4A90
:103B94002346FEF7C7FD27E01848B168FEF700FC8E
:103BA40015483146FEF7FCFB606BFEF799FC38B90B
:103BB40010482146FEF766FC12482146FEF7F0FB4A
:103BC4003846414604220123FFF756FE0CE00E4B13
:103BD400384641469B68984706E00A48FEF7CAFB08
:103BE4000446002889D1EBE7BDE8F0814C0C0010B5
:103BF4001C650000500C0010C0000010CC00001028
:103C04008D3A0000D8000010C864000070B5044666
:103C1400406BFEF717FC054670B34068FEF764FF7F
:103C2400606BFEF729FCA9681448FEF7B9FB294626
:103C34001348FEF7B5FB606BFEF704FC04F10C05BA
:103C440078B1002384F82C3084F82D3084F82E3099
:103C5400FFF7F0FE0B4A014623462846FEF762FDB5
:103C64000AE02846FEF74CFD07482146FEF70AFC09
:103C740006482146FEF794FB70BDC046CC000010F8
:103C8400C00000108D3A0000500C0010D800001045
:103C94002DE9F74F0446406B0E46FEF7D3FB019027
:103CA4008568032E14D8DFE806F00208020E94F8A3
:103CB4002C30013384F82C300AE094F82D30013391
:103CC40084F82D3004E094F82E30013384F82E303B
:103CD400731E012BD5F80090D5F804A094F82CB0ED
:103CE40021D8FFF7A7FE94F82C70804600F038F82E
:103CF40094F82C202B7A9A4215D27B1C032BA8BF54
:103D0400032303FB08F3B0FBF3F103FB11010B4A9C
:103D140004F10C0023464144FEF704FD019B58685E
:103D2400FEF700FF08E02046FFF770FF48465146C3
:103D340032465B46FFF7A0FDBDE8FE8F8D3A0000DA
:103D440010B5064C2046FEF753FB04F10C00FEF7B9
:103D54004FFB04F11800FEF74BFB10BDC000001030
:103D640010B500F003F880B210BDC04607B50121BC
:103D74000DF1060000F0E2FCBDF806000EBDC046E1
:103D84000C4A70B553680133536000F0AFF905462F
:103D94000948FEF757FB05E0636803B198472046DE
:103DA400FEF7A6FB04460028F6D115B1284600F01C
:103DB40067F970BD200F0010000D001010B5FEF75C
:103DC400EFFEFEF7B7FD00F06DF800F09DF902205C
:103DD4004FF47A614EF66022014B00F06DF810BD8D
:103DE40080EE3600094A10B51368044601331360A7
:103DF40000F06CF900B907E0FEF708FE044B054833
:103E040021469B689847012010BDC046200F001032
:103E14002C6500001D3E00002DE9F04106460B48CC
:103E24000D461746FEF70EFB06E0A3680BB12846C5
:103E340098472046FEF75CFB04460028F5D130463F
:103E440029463A4600F022F9BDE8F081000D001041
:103E5400014B18607047C046040D001010B50248AD
:103E6400FEF7F0FA10BDC0460C0D00102DE9F0412C
:103E740006460B480D461746FEF7E4FA0BE0838826
:103E8400AB4206D1846844B131462A463B46A0473A
:103E940003E0FEF72DFB0028F1D1BDE8F081C04618
:103EA4000C0D001010B50248FEF7C8FA10BDC0464C
:103EB4000C0D00107047C0462DE97043094C0546AF
:103EC4000E46904620462946074A994600F0B4F823
:103ED4000648A665C4F85C80C4F86090FFF7B8FF94
:103EE400BDE87083100D001054650000853F00008C
:103EF40073B50E46FEF780FC0546022229460DF1F5
:103F04000600FCF739F9BDF80640FEF79FFCA40053
:103F14000234844215D8023500240EE029460422D6
:103F24000DF10200FCF728F93046BDF80210BDF887
:103F34000420FFF79BFF04350134BDF806309C4292
:103F4400ECDB7CBD10B50B4C0023616E04F1380032
:103F5400094AFEF7E7FBFFF703FF616E074AB0FB70
:103F6400F1F303FB110104F118000023FEF7DAFB5F
:103F740010BDC046100D0010A13F0000BD3F000061
:103F840010B59DF80830012B04D1034A936D536694
:103F9400FFF7D8FF10BDC046100D0010054B10B53B
:103FA4005A6E196E52008A4294BF5A665966FFF7D8
:103FB400C9FF10BD100D001010B5FEF7BBFCFEF7D5
:103FC4001BFC4FF0000202800446FFF747FF0EE09F
:103FD4002388828804EB83035A802388C28804EBF5
:103FE40083039A80238801332380FEF781FA10B17A
:103FF400037B002BECD120888000023080B2FEF7D6
:10400400F5FB238813B1024800F00AF810BDC0463E
:10401400100D0010436910B55B6803B1984710BDDB
:1040240010B5044904461820FEF752FC204600F05F
:1040340033F810BD150F00102DE9F041074C06466A
:1040440088461546224600F02BF87561404604F177
:10405400080100F077F8BDE8F081C0465C65000017
:1040640037B505461820FEF72BFC01466846FFF7D6
:10407400E9FB6B6928461B6869466C4698473EBD58
:10408400036910B51B68984710BDC046036910B595
:104094005B6803B1984710BD10B5FFF7A3FE10BDD0
:1040A40070B504460E46154600F042F825613046C8
:1040B400014900F047F870BD68650000024B10B577
:1040C4009B68984710BDC04678650000064B70B5E4
:1040D4005B6805469847A98804460120FEF7E2FB81
:1040E400201E18BF012070BD78650000054B10B577
:1040F4001B689847044618B10120A188FEF7D2FB3B
:10410400204610BD7865000010B500F027F810BDFA
:1041140010B504460548FEF795F904E08388A342E8
:1041240003D0FEF7E5F90028F8D110BD7C0D00108E
:104134000346818010B502481946FEF7C1F910BD47
:104144007C0D001070B50D46FFF7E2FF044620B168
:1041540085602846FFF7B2FF207370BD10B5024892
:10416400FEF76CF910BDC0467C0D001010B5047844
:10417400437843EA04238B400449885CC2F1080273
:1041840000EA23201041C0B210BDC0466C65000097
:10419400072B2DE9F04780460F4616461D4607DCDF
:1041A400084611461A46FFF7E1FF88F8000026E0AA
:1041B4004FEAE3090AB100240EE014463B5D08F817
:1041C400043001344C45F9DB15F0070217D03819D7
:1041D4000021FFF7CBFF10E0381908223146FFF722
:1041E400C5FF08F8040001344C45F5DB15F007025F
:1041F40005D038193146FFF7B9FF08F80400BDE8C7
:10420400F087C04601460020024603E08B185B7825
:104214000232C0188B5C002BF8D17047C1F1100139
:10422400C91A8A40037892B243EA1223037043788E
:104234001A4342707047C046072B2DE9F047804669
:104244000E4617461D4601DC12782EE04FEAE309BC
:1042540009B1002412E07B5C08F8013001314945C2
:10426400F9DB15F0070422D07A5CC4F108031A4183
:1042740008EB0100D2B20021234616E008EB04004B
:104284003A5D082331460134FFF7C8FF4C45F5DB9E
:1042940015F007050BD03A5D06F108035B1B1A41C4
:1042A40008EB04000021D2B22B46FFF7B7FFBDE8AC
:1042B400F087C0462DE9F347027B044612F007035A
:1042C40018BF012303EBD205A81CFEF7D7FA00B9E7
:1042D40031E0FEF79DFAA38803701B0A4370FEF7D2
:1042E40097FA00F1020A504600212A46FBF790FF94
:1042F400D4F808900024264618E009EB0603172892
:104304005D780AEBE40704F0070803D9FEF7D8FA4E
:10431400024604E0FEF7CEFA02AA22F8020D38465D
:1043240041462B46FFF788FF6419023619F8060048
:104334000028E2D10130BDE8FC87C0462DE9FF47E3
:10434400FEF75AFA04460220FEF73EFA002846D049
:104354006378207800EB032080B2FFF7D9FE814612
:1043640000283ED0FEF748FA99F80C30824613F044
:10437400070018BF012000EBD300FEF725FA70B345
:104384000026D9F80880354624E008EB0503172AEF
:104394005F780AEBE60106F007020BD90DF106047B
:1043A40020463B46FFF7F4FE18F805002146FEF7C9
:1043B4008FFA0DE004A84FF0000320F8023D3B46BD
:1043C400FFF7E6FE18F80500BDF80E10FEF76AFACE
:1043D400F619023518F80520002AD6D101E04FF06D
:1043E4000009484604B0BDE8F087C046022803D05F
:1043F40003280CBF082000207047C04602292DE97D
:10440400F34107468846154640F28B800378FC1C2E
:1044140003F007028DF80020C3F3C0028DF80120D9
:10442400C3F300128DF80220C3F34012C3F38013C8
:104434008DF803208DF804304378C3F381028DF89E
:104444000520C3F301129B098DF807308DF806206F
:104454006B4693E8030085E803009DF80560BB788C
:104464002B7206B36278FB787C1D03EB0223022EC9
:104474006B810AD105F10C002B49FFF7E3F963784E
:10448400FC1D2B737B796B7313E0032E11D13A4619
:104494002946137B013A0B73A7F1080301319A42B1
:1044A400F7D1083405E005F10C001F49FFF7CAF9FC
:1044B4006E819DF807602EB39DF804302BB96278A5
:1044C40014F8023B03EB022300E06B89022EAB825B
:1044D4000AD105F116001449FFF7B4F96378AB75F6
:1044E40014F8023BEB7513E0032E11D12946002288
:1044F400A318DB79013A8B75013112F1080FF7D15A
:10450400083405E005F116000749FFF79BF9AE8270
:10451400E31BD8B2C0EB0803404585F838306C6320
:1045240000D90020BDE8FC811C65000070B505229F
:1045340004460D4608460021FBF76AFE637913F032
:10454400030F01D002232B70E37913F0030F01D082
:104554000223AB70637913F0030F0CD0E37913F0EB
:10456400030F08D0A28A63899A4204D101232371DC
:10457400013BAB7001E000232371607900F003007C
:10458400FFF734FF6870E07900F00300FFF72EFFB7
:10459400E87070BD73B50E460DF10301144605466F
:1045A400FFF7C4FF9DF803109DF804309DF8052023
:1045B400CB1803339B189DF806209B189DF8072001
:1045C4009B18A34201DD002063E0AA786B7802F017
:1045D400010203F00103120142EAC3022B7803F043
:1045E40007031A43EB7803F0010342EA43122B79E1
:1045F40003F0010342EA83123270AB796A7903F063
:10460400030302F003021B0143EA8203EA7902294D
:1046140043EA821373702B7AB37002D04FF0030E07
:1046240006E06B894FF0050EF3706B891B0A33713A
:104634009DF8044000222B1903F10B0003E043789A
:104644007354531CDAB202EB0E030138A242D9B2FE
:10465400F5D19DF805300A46022B08D1AB8A4A1CD5
:104664007354AB8AD2B21B0AB3540132D2B29DF84E
:1046740006E0002105EB0E0303F1150003E0437887
:1046840033554B1CD9B28B1801387145DCB2F6D1C5
:1046940020467CBD07B50DF10301FFF747FF9DF8E8
:1046A40004309DF80300C0189DF805300330C0188D
:1046B4009DF80630C0189DF80730C018C0B20EBD72
:1046C400F7B5083904461646471801F083F920B1B6
:1046D4002378022B01D9023B2370BD79FB79F8784A
:1046E40043EA05237D7905F00F0543EA054501F00A
:1046F400E7F8BA780346663252B200922046314651
:104704002A46FCF781F8FEBD074B10B51C68403300
:104714001B68A4B21C4014F0040F01D0FBF7CEFEBA
:10472400014B1C6010BD00BF08A0004008B501F09B
:10473400A5F9012814BF0020012008BD00F072B9BA
:10474400FBF7B0BE01F036B901F0DEB801F0C8B82D
:10475400FBF74CBF01F0C4BB00F03EBC01F0ECB968
:1047640001F0AEB908B5054B1B7813F0010F01D168
:10477400B02008BD01F02AFA002008BD9B070408F8
:1047840010B504462146002000F0B1F80B4B211D62
:104794001860002000F0ABF8094B04F10801186020
:1047A400002000F0A4F8074B04F10C01186000206D
:1047B40000F09DF8044B186010BD00BF4430004069
:1047C400403000403C3000403830004038B5154B94
:1047D40080221A60144A06211160072205461A60D5
:1047E400114B1B6813F0020FFAD00024002005EBD4
:1047F400840100F07CF801340C4B042C1860F5D1D2
:10480400094B1B6813F0040FFAD00024084B002056
:1048140005EB84011A68013400F058F8042CF5D132
:1048240038BD00BF0030004010A0004028300040D8
:10483400303000400E4B10B504461A680020214663
:1048440000F044F80B4B00201A68211D00F03EF8DC
:10485400094B00201A6804F1080100F037F8074BEF
:1048640000201A6804F10C01BDE8104000F02EB8D5
:1048740044300040403000403C300040383000407C
:10488400F0B585B00F460446FBF700FC06466846C3
:10489400FFF7D0FF3846FFF773FF2046FFF796FF78
:1048A4006846FFF76DFF30466D46FBF7ECFB05B03D
:1048B400F0BD0000034B044819887F220823FCF74D
:1048C400A9BD00BFBA640000680F0010002308B13E
:1048D4009C4603E0C3F1030C5FFA8CFC0133DBB2AA
:1048E400042B01F80C2001D0120AF0E7704710B530
:1048F400CB788A7891F801C0097820B11C4610461B
:104904000B46624601E00C46604640EA042043EA56
:10491400022343EA004010BD0B4B10221A600B4ADD
:10492400116841F001011160094A0A490A60012134
:10493400196009498A320A6002221A60074B4FF64D
:10494400FF721A60704700BF30200040842000408E
:10495400840D0010002000400820004000A000400A
:10496400014B1868704700BF382000401FB5002471
:1049740002220423214620460094FCF781FC0DF119
:104984000E012046FCF7F0FBFCF7E6FBBDF80E0039
:1049940004B010BD08B51C4B45F264021A601E2217
:1049A40018331A603232043B1A60184AC823136061
:1049B4003C321360164BF0221A6045F6900208331D
:1049C4001A60882204331A60823A04331A6044F26B
:1049D40006626C3B1A6004334FF6FF721A600D4B8B
:1049E4001B783BB10C4B48F260721A604FF4C15211
:1049F40004331A60094B1A6842F004021A60FFF784
:104A0400B5FF074B188008BD5810004068100040DF
:104A1400A8100040E9000010D010004080200040A1
:104A24009C0E00102DE9F04700248AB006460D467E
:104A340020462146032223460094FCF721FC25E06E
:104A440039460020FCF790FB023700204146FCF772
:104A54008BFB4F4508F10208F2D106A802A9FFF723
:104A64000FFF4FF0000333530AF1110A0DF119033C
:104A7400197813F8012C023302EB0122315B4A400E
:104A840053453253F4D1013DEDB202343DB10DF141
:104A9400180A0DF108080DF128095746D0E7FCF76C
:104AA4005BFB01200AB0BDE8F08700008A22424384
:104AB40010B52F490132044688188B5C90F801C068
:104AC4002C4A03EB0C2311789BB22B4A13F0200FD2
:104AD40011704BD0294A126812F0800F46D003F4AB
:104AE4004043B3F5404F03D10730FFF729FE09E0F7
:104AF400B3F5004F23D1027AC37903EB022080B2CD
:104B0400FBF7C8FCD8B11E4B1B6813F0100F0ED175
:104B14001C4B002C14BF4FF400624FF480621B68DE
:104B24001A4204D0184B1A6842F001021A60174B5B
:104B340001221A55164B1A68164B1A6010BD104BF9
:104B44001B6813F0100F0ED00E4B002C14BF4FF443
:104B540000624FF480621B681A4204D00A4B1A6840
:104B640022F001021A60094B00221A5510BD00BF41
:104B7400840D0010E8000010800D00108420004017
:104B84007C2000406820004064200040980E001003
:104B940038200040740F00102DE9F845044608B988
:104BA400464B00E0464B1F68FFB2042F00D8FEE7D7
:104BB4004FF08A0808FB04F87F00DFF848A1FFB231
:104BC400A7F108030AEB0805EA185178EE5C01EB3B
:104BD40006263C49B6B20E8011793B4A11803B4A05
:104BE4001278EA543A4B1A6822F480521A60394B0C
:104BF4001B6813F0800F0CD06B7813F0200F08D0D3
:104C040006F4A043B3F5A04F03D1334B1A68013225
:104C14001A6016F4E45F43D100F0DCFE10B116F420
:104C2400804F3DD01AF90830002B39DB24B92B4BC7
:104C34001B6813F4806F05E0012C1BD1274B1B6804
:104C440013F4006F16D0264B1A7852B100221A7052
:104C54006A78244B12098F20196802F00102FFF7C9
:104C640077FD1E4B002C0CBF4FF480624FF40062A2
:104C74001A601BE01C4B28461A68002362F30F03DA
:104C84001A4A3946126862F31F43194A1360194BD2
:104C94001A8801321A80184B1A5DFFF711FD05E0DE
:104CA40001F038F8154B1A8801321A800CB9012228
:104CB40000E00222124B1A60BDE8F8852020004073
:104CC40024200040800F0010780F0010800D001089
:104CD40040A00040842000408C0F001004A000403D
:104CE400890F0010940F0010542000405020004001
:104CF4007C0F0010860F0010980E0010700F00102B
:104D040030200040840D001038B5384A384B1B68F9
:104D140014681C4065E014F0080F07D00020FFF76A
:104D2400C5FE334B082224F008041A6014F0100F57
:104D340007D00120FFF7BAFE2D4B102224F01004F7
:104D44001A6004F06003602B0CD12A4B186810F42D
:104D5400807014D1264B202224F020041A60FFF71F
:104D64001BFF33E014F0200F06D0214B202224F047
:104D740020041A600020F2E714F0400F06D01C4B08
:104D8400402224F040041A600120E8E714F4805F14
:104D94001CD0194B164A4FF480511D68116008222B
:104DA4001A6004331B6813F4006F0AD0134B1A689B
:104DB40022F001021A601A6842F001021A6000F03F
:104DC400A9FF0D4BAAB224F480541A6014F4005FB6
:104DD40007D0FBF76FFB064B4FF4005224F400544A
:104DE4001A60002C97D1024B1C6038BD40A00040D3
:104DF40000A0004068200040B8200040802000400F
:104E040010B50A4B1C68002CFBD104331860083B16
:104E1400012018601C60054B1B68002BFBD1044B60
:104E24001B681A4052FA01F188B210BDEC10004020
:104E3400F810004010B5114B1C68002CFBD1043352
:104E44001860083B012018601C600C4B186800288F
:104E5400FBD10C331B6802EA010123EA02039BB273
:104E640043EA0102064B1A600C3B02221A601860E6
:104E7400024B1B68002BFBD110BD00BFEC1000409F
:104E8400F41000400D4B1B7813B10D4B1A7806E05B
:104E94000C4B93F9003013F1090F03DA30220A4B5B
:104EA4001A607047094B1A683AB11B6840F24A32DB
:104EB400B2FBF3F2044B033A1A6070479E0E0010E3
:104EC400F4000010E400001064100040C010004022
:104ED400014B1888704700BFE6000010F0B510F1D0
:104EE4002B0F87B0044668DB354B7F22198801A855
:104EF4001423FCF78FFABDF814304FF6FF72934277
:104F040004D013F00E0F01D0012506E0F02000219B
:104F14003F22FFF775FF00250646032C10DC002313
:104F240001E00133DBB2274AD25C51B2A142F8DB83
:104F3400254900240B60254B21461A70032713E0F2
:104F4400082C3ADC224B01A8E31813F8042C1E4B5E
:104F540028271A601D4B7F221C701E4B01241988C0
:104F64001423FCF757FA03212DB1A020BDF8141027
:104F74004FF6BF721BE0A020C9024FF46052FFF746
:104F840059FFA02021024FF4E062FFF753FFA02055
:104F9400E1018022FFF74EFF86F02001C91989B292
:104FA4003F2928BF3F21A02081F020013F22FFF7A5
:104FB40041FFFFF767FF002000E08B2007B0F0BD42
:104FC4008C64000028660000C0100040E40000105B
:104FD400EC0000108E6400002DE9F04F85B0064609
:104FE40000F078FCA6F10B03DBB20F2B009001D983
:104FF4008A20AEE0584B1B6813F0080F40F0A680DF
:10500400564B1B6813F0010F40F0A080544B1E70E8
:10501400544B1B680C2B00F09B80534B1B7843B9FB
:10502400524B1A6842F400521A601A6822F48052F1
:105034001A604F4B1B78012B01D100F041FD4D4B01
:105044004FF4C0621B684C4C01934C4BA6F10B050A
:105054001A602368ADB26F1C23F00203BF00236003
:10506400042203A8394601F007F8454B9DF80FB018
:1050740033F82520434B9DF80E909DF80D809DF844
:105084000CA01A60384B1B78D3B1384E48F26073C9
:1050940033602368012023F001032360FCF774F8D4
:1050A4002368642043F001032360FCF76DF8336840
:1050B40023F480533360336843F40053336002E0D5
:1050C400304600F0A7FB0DF10D00294600F0FAFA76
:1050D4000DF10E00294600F017F90DF10F0003A998
:1050E4002A4600F031F99DF80C3053450BD19DF858
:1050F4000D30434507D19DF80E304B4503D19DF843
:105104000F305B4504D003A83946042201F02EF881
:10511400019B03F4C062174B1A60FFF7FDFB164BAB
:105124001A6842F002021A600F4B1B7833B10F4B1E
:1051340048F260721A606420FCF726F8FCF70CF859
:10514400009B012B04D100F0F7FC01E08C2000E06F
:10515400002005B0BDE8F08F6820004060200040CA
:10516400E8000010AC100040E9000010D01000402E
:10517400FF00001000E100E08020004080E100E03A
:1051840050660000C81000402A4BB0F5004FF7B538
:10519400188004461DD1284B7F220DF10600198882
:1051A4000223FCF737F9BDF80600244B020A1A70F3
:1051B400013AD2B2FD2A01D918221A70C0B2C0082D
:1051C400102802D00430FFF789FEBDF80640E443FE
:1051D400A4B21B4B04F0010505EB4507FF18B97891
:1051E400E02009024FF4F852FFF724FE154B7978BA
:1051F4001A68090342F400421A6001F470414FF442
:1052040040522020FFF716FEC4F34006284600F063
:105214001DF8A020B1014022FFF70CFE0EB10124BD
:1052240001E0C4F38004084B1C70FFF72BFE002040
:10523400FEBD00BFE6000010AC640000F4000010E6
:10524400486600001C1000409E0E001030B5044655
:1052540089B00020FBF7B8FF264B7F22198805A8E8
:105264000A23FCF7D7F8BDF816204FF6FF739A42CD
:1052740000D1FEE70025EBB213B94FF47C4206E0FF
:105284004EF23F024FF6FF71022B18BF0A461A4B2B
:10529400585D05AB33F815100135FFF7CBFD052D2F
:1052A400E9D1012C0CBF154B154B6846198818BF62
:1052B40068467F221423FCF7ADF80025EBB2012BDE
:1052C40002D14FF6C07204E04FF6FF72082B08BFFC
:1052D40000220C4B585D6B4633F815100135FFF76F
:1052E400A9FD0A2DEAD1012C02D12046FBF76CFF5F
:1052F40009B030BD90640000906600008E64000028
:105304008C640000986600001FB5094B7F22198841
:1053140001A80A23FCF77EF8BDF804104FF6FF72CB
:10532400914200D1FEE71020FFF784FD05B000BDD7
:105334009064000043004FF6FE71202003EA01014F
:105344003F22FFF777BD00002DE9F04F944B9FB04B
:105354001B780490059106920BB1924B00E0924B9E
:105364001B6805991FFA83FB0A7804980BF1010165
:105374008A42037801DD012205E00BF1FF318A4204
:10538400ACBF0022012213F0800F0CD1874906988C
:105394000988C14011F0010F05D122B94FF67F747D
:1053A40003EA04043DE1824C824E834D2168326855
:1053B4002B680B910A9200214FF6FF72112009937A
:1053C400FFF71EFD002108904FF6FF72A020FFF7A3
:1053D40017FD4FF400433360784B00261E600433FE
:1053E4001E6048F20202143B1A60079040F24C40DF
:1053F400FBF7CAFE4CF68C3323604FF4805148F21D
:10540400F0032B600A461120FFF714FDA02031465B
:105414004FF6FF72FFF70EFD06221346C0213046F9
:105424000096FBF72DFF1DA93046FBF79DFE0722D2
:105434000623C02130460096FBF722FF0DF17201CE
:105444003046FBF791FE4CF69C3323603046FFF761
:1054540071FF06223046C02113460096FBF710FF69
:105464000CAD2F463046FFF765FF00240622C0210D
:105474001346013620460094B6B2FBF701FF3946C5
:105484002046FBF771FE0237202EEBD10DF1760694
:1054940031462046FBF768FE1020FFF74BFF07223A
:1054A4000623C02120460094FBF7EAFE314620463D
:1054B400FBF75AFEBDF87670BDF87230BDF8742063
:1054C400FB1A5B43BDF85070A946BF1A07FB0737A8
:1054D4004FF010081126AA46BDF87430B9F822C05E
:1054E400B4B2C3EB0C0C00252046CDF80CC0FFF77A
:1054F40021FF07220623C02128460095FBF7C0FEA2
:1055040028460DF17601FBF72FFEDDF80CC0BDF83F
:1055140076200CFB0CFCBDF87230D31A03FB03C3DA
:10552400BB4205DAB8F1100F554649D10F2609E000
:105534000136B6B2202E09F102091F4641D0A04619
:10554400CAE7A046BDF87430B5F81E90B4B24FF067
:10555400000A2046C3EB0909FFF7ECFE07220623E5
:10556400C0215046CDF800A009FB09F9FBF788FEDD
:1055740050460DF17601FBF7F7FDBDF87620BDF836
:105584007230D31A03FB0393BB4219DB013EB6B25C
:105594001F4633B2023DB3F1FF3FD2D111E000BF49
:1055A400E9000010E4100040D0100040A00E0010EC
:1055B4000C110040C010004044100040281000406E
:1055C40044460B980A991B4B82B21A608AB24C3B30
:1055D4001A60099B11209AB2174B08991A604FF66A
:1055E400FF72FFF727FC0799A0204FF6FF72FFF721
:1055F40021FC124B01251D600022103B1A6040F271
:105604004C40FBF7C1FD64000498A4B204700599F2
:105614000B4B81F800B0069A95401A8822EA0505DA
:105624001D80202021463F22FFF704FC1FB0BDE867
:10563400F08F00BF0C1100404410004028100040BF
:10564400A00E00102DE9FF41174F184E00243C60B6
:105654003460FBF781FD0DF10E0509220623C021FC
:1056640020460094FBF70CFE29462046FBF77CFD00
:105674004FF6FF733B603360BDF80E80FBF76CFDA3
:105684000623C021092220460094FBF7F9FD204699
:105694002946FBF769FDBDF80E30C3EB08080FFA85
:1056A40088F004B0BDE8F0813C10004038100040A0
:1056B40083014FF6C071B02003EA01014FF4FE529A
:1056C400FFF7B8BB2DE9F04F037887B013F0800FD4
:1056D40004460F4605D13D4A1288CA4012F0010F14
:1056E4006BD03B4B1B6803933A4B1B6804933A4BB8
:1056F4001B680593394B1B781BB1394B48F2607218
:105704001A60344EDFF8C88001254FF0020AC8F849
:1057140000A040F24C403560FBF736FDDFF8C8903E
:10572400304BDFF8B4B04CF24C02C9F80050002002
:10573400CBF800501A600193FFF7BAFFFFF782FF1E
:1057440082B27F200292FFF7B3FFFFF77BFF029A3A
:105754004FF0FE0C12B282EAE271A1EBE27100B2E8
:10576400121A0CFB01F1002AB8BF524292B2019BFB
:105774000598B1FBF2F18AB20021196083B2CBF82B
:105784000030C9F80010049903988BB2C6F800A041
:10579400336083B25219C8F8003040F24C40029290
:1057A400FBF7F2FC029A094B32FA05F0BD40207077
:1057B4001A8822EA05051D8003E04FF67F7003EA8C
:1057C400000007B0BDE8F04FFFF772BFA20E001053
:1057D400882000406020004028100040E9000010AC
:1057E400D01000400C11004034100040084B1A68DF
:1057F40022F03F021A601A6840EA02021A60B83BBB
:105804004FF400421A60642000221A60FBF7BCBC0B
:10581400D01000401F4B70B51E681A68054642F44C
:1058240000421A60B4331A6822F480521A601A4B88
:105834001A787AB1194B03EB800212F82A4C184AF1
:105844001278A418174A127803EB820313F82A3C3F
:10585400E41A0AE001221A70202407E01B6813F0FE
:10586400040F01D1013C00E00134A4B22046FFF74B
:10587400BDFF0D4B1A68042AF0D1043B1B6803B921
:10588400FEE7084BB6B21D70054B1C70014B1E6041
:1058940070BD00BF1C100040A40E00105066000034
:1058A400A50E0010A60E001000110040034B18684E
:1058B40004331B6843EA0040704700BF5020004097
:1058C40010F0800F04D04FF67F7300EA0303D80072
:1058D40070470000014B1878704700BFFF000010AC
:1058E400034620B1064A116841F0120103E0044A5C
:1058F400116821F012011160024A1370704700BF51
:1059040084200040FA000010034620B1064A1168C2
:1059140041F0800103E0044A116821F08001116024
:10592400024A1370704700BF84200040F800001042
:105934000C4B1A78597802EB01210B4A11609A78C2
:10594400D97802EB0121094A11601A79597902EBDD
:105954000121074A1160DA799B7903EB0222054B96
:105964001A607047680F0010982000409C20004087
:10597400A0200040A4200040034620B1064A11683C
:1059840041F0200103E0044A116821F02001116074
:10599400024A1370704700BF84200040AD0E00100F
:1059A400024B1880024B1860704700BFFC000010C7
:1059B40094200040024B1880024B1860704700BFCF
:1059C400F600001090200040014B1870704700BF93
:1059D400F9000010014B1878704700BFF90000105F
:1059E400034620B1064A116841F4005103E0044A19
:1059F400116821F400511160024A1370704700BF0E
:105A040040A00040A80E0010034638B1074A082100
:105A140011604032116841F0080103E0044A116842
:105A240021F008011160034A1370704704A000407C
:105A340044A00040A70E0010034620B1064A116896
:105A440041F0020103E0044A116821F002011160EF
:105A5400024A1370704700BF80200040FE0000100F
:105A640000F19A02034B92B292011A60024B187031
:105A7400704700BF54100040F5000010F7B50D4CFE
:105A84000D4D48F201032F682668236031332B60E3
:105A9400236880209BB2ADF80630FBF775FB074BFB
:105AA400BFB21868B6B2800B2F6000F00100266008
:105AB400FEBD00BF181000401C1000402010004024
:105AC40038B5174C23784BB3FAF7E0FA154B01229B
:105AD4001A60154B05461A6842F001021A60002349
