:100000000C944F020C9470020C9470020C947002C9
:100010000C9470020C9470020C9470020C94700298
:100020000C9470020C9470020C9470020C94700288
:100030000C9470020C94300B0C9470020C947002AF
:100040000C9470020C9470020C9470020C94700268
:100050000C9470020C9470020C9470020C94700258
:100060000C9470020C94B20B0C9470020C947002FD
:100070000C9470020C9470020C9470020C94700238
:100080000C94871C0C9470020C9470020C947002F7
:100090000C94E10B0C9470020C9470020C9470029E
:1000A0000C9470020C9470020C9470020C94700208
:1000B0000C9470020C9470020C9470020C947002F8
:1000C0000C9470020C9470020C9470020C947002E8
:1000D0000C9470020C9470020C9470020C947002D8
:1000E0000C9470020C9452120C945C120C942A1210
:1000F0000C94F2110C9488120C947E120C947212CF
:100100000C9466120C9470020C9470020C947002A1
:100110000C9470020C9470020C9470020C94700297
:100120000C9470020C9470020C9470020C94700287
:100130000C947002B20EBE0EC70ECC0ED10E0B0F79
:100140000E0F0B0F80114111441147114E118011F8
:10015000681180116C113E113E113E113E116F115C
:10016000721175117A110C94420C0C94BD150C94FB
:10017000DE1D0C94E51A0C94910C0C94EA1A0C9464
:100180006F0A0C94E1140C9475190C94C5190C9415
:10019000AF180C9481160C9475110C943E110C94AC
:1001A000F41A0C94DD1A0C946C1C0C94B91D0C946C
:1001B000F0100C940E0F0C947A110C9478090C9496
:1001C00095190C946B1C0C9472110C94711C0C946A
:1001D000EF1A0C9424190C944E110C9497190C944A
:1001E0002D110C94C3170C94681E0C94E2180C94F7
:1001F000FC1A0C9441110C94D81E0C9482200C947F
:1002000027190C94110D0C94BD0C0C94660F0C94D2
:10021000D10E0C94D80D0C9469100C948E0C0C9487
:100220001F190C94E11A0C948E1D0C94B20E0C94B0
:10023000260D0C945A1F0C9468110C940B0F0C94FF
:10024000B7170C946C110C94060D0C94E10D0C94E2
:10025000E7160C94A40E0C9486180C94C70E0C94FC
:100260006F110C9472020C9447110C94520E0C9462
:10027000BE0E0C94B10F0C94F91A0C94251E0C941C
:10028000CC0E0C945D090C9480110C9416040C9403
:10029000A3190C9444116E616E00696E66000040F3
:1002A0007A10F35A00A0724E18090010A5D4E80085
:1002B00000E87648170000E40B54020000CA9A3B9D
:1002C000000000E1F5050000809698000000404223
:1002D0000F000000A08601000000102700000000B1
:1002E000E803000000006400000000000A000000B5
:1002F00000000100000000002C76D888DC674F0861
:1003000023DFC1DFAE59E1B1B796E5E3E453C63A66
:10031000E651997696E8E6C28426EB898C9B62EDDD
:10032000407C6FFCEFBC9C9F40F2BAA56FA5F49097
:10033000055A2AF75C936B6CF9676DC11BFCE0E40E
:100340000D47FEF520E6B500D0ED902E0300943564
:1003500077050080841E080000204E0A000000C8B7
:100360000C333333330F986E12831141EF8D211408
:10037000893BE65516CFFEE6DB18D1844B381BF7D8
:100380007C1D901DA4BBE424203284725E22810077
:10039000C9F124ECA1E53D274E657665722D757394
:1003A000656420737461636B203E2025642062794C
:1003B0007465730A004F6E6C696E650A00526F7542
:1003C00074696E6720456E61626C65640A00504115
:1003D0004E3D307825582C204D41433D25732C202F
:1003E0005244433D25732C204E4554574F524B3DAC
:1003F00025732C206368616E6E656C3D252D752C10
:1004000020636865636B2D726174652D487A3D25A4
:100410002D752C2074782D706F7765723D252D75A4
:100420000A000A0025783A004D4143206164647255
:1004300065737320000A2A2A2A2A2A2A2A426F6F01
:1004400074696E672025732A2A2A2A2A2A2A0A0012
:10045000454550524F4D20697320636F727275701D
:10046000742C20726577726974696E67207769747D
:10047000682064656661756C74732E0A006C6F6326
:10048000616C686F73740041544D45474132353695
:100490007266723200020000FFFE000001001124AB
:1004A0001FBECFEFD1E8DEBFCDBF00E00CBF14E030
:1004B000A0E0B2E0EEEFFAE500E00BBF02C007906B
:1004C0000D92AC3DB107D9F725E1ACEDB4E001C028
:1004D0001D92A23EB207E1F70E9466060C947D2DA4
:1004E0000C9400000F931F93CF93DF93EC016338BC
:1004F00021F488EE94E00E94051888819981009784
:1005000039F08E369105A9F11982188283E089C1EC
:100510004EE353E061E870E088EE94E00E94EA1751
:10052000E0913F04F09140046AE170E081E090E0E6
:100530001995E0913B04F0913C0419958FEF0E94CE
:100540002C0EE0913904F0913A0419950E94920A18
:100550000E94D4086F9A779A40E05EE160E070E014
:100560008CED94E00E9493158EE690E09983888349
:1005700006C08CED94E00E94A715892B11F481E050
:1005800050C18CED94E00E949D1521E63BE046E3CE
:100590005AE36091010570910205809103059091E5
:1005A00004050E94CD276093010570930205809396
:1005B0000305909304051092FF0486E893E10E94DE
:1005C000A10A80918613809300051F928F938091DA
:1005D00087131F928F93809188131F928F9380911E
:1005E0008A131F928F9380918B131F928F93809108
:1005F0008C131F928F9387E592E09F938F93809146
:10060000FF0490E083579C4E9F938F930E94732C1E
:100610009091FF04890F8093FF040E9424099B019D
:10062000AC01CB01DA018093090590930A05A093F0
:100630000B05B0930C055F934F933F932F9388E87E
:1006400092E09F938F938091FF0490E083579C4E9C
:100650009F938F930E94732C9091FF04890F809336
:10066000FF04009118041091190461E070E081E822
:1006700090E0F8011995E0911604F091170480E0DC
:1006800090E01995BC01990F880B990B0E94E828FE
:1006900020E030E048EC52E40E943E289F938F9384
:1006A0007F936F9385E992E09F938F932091FF044E
:1006B00030E023573C4E3F932F930E94732C909130
:1006C000FF04890F8093FF048DB79EB780960FB605
:1006D000F8949EBF0FBE8DBF60E070E081E890E0AF
:1006E000F801199523E333E343E550E460910905EC
:1006F00070910A0580910B0590910C050E94392894
:1007000087FF12C01091FF04812F90E06FE972E023
:1007100083579C4E0E949D2B185F1093FF04E0911D
:100720003B04F0913C0404C0E0913904F0913A0498
:1007300019950E9439099B01AC01CB01DA01809324
:10074000050590930605A0930705B09308058091D1
:1007500004058F93809103058F93809102058F93F9
:10076000809101058F938091FE048F938091FD0409
:100770008F938091FC048F938091FB048F935F9300
:100780004F933F932F9388EA92E09F938F9320910A
:10079000FF0430E023573C4E3F932F930E94732C6D
:1007A000E091FF04E80F81E08E0F8093FF04F0E0FA
:1007B000E357FC4E1082779841E050E060E070E033
:1007C00083EF94E00E9494128DB79EB740960FB6C7
:1007D000F8949EBF0FBE8DBF83EF94E00E94B612C7
:1007E000892BD1F3779A82E00E94CA088DE893E1C1
:1007F0000E94432C82E00E94CF088091FB049091DC
:10080000FC04A091FD04B091FE040196A11DB11D50
:100810008093FB049093FC04A093FD04B093FE042A
:10082000A3CEDF91CF911F910F9108950F931F9346
:10083000CF93DF938B011092FF040E94781BEC0191
:1008400084E00E94221C8093231483E00E94221CD7
:100850008093EC1486E893E10E94A10A909186139C
:10086000909300058091EC141F928F938091231434
:100870001F928F9388818F701F928F9389811F920F
:100880008F93F80181811F928F9380811F928F93A4
:100890002296DF93CF931F929F93809187131F928D
:1008A0008F93809188131F928F9380918A131F9248
:1008B0008F9380918B131F928F9380918C131F9233
:1008C0008F938CEC92E09F938F9384E294E19F93BB
:1008D0008F930E94732CE091FF048E0F91E0980F8C
:1008E0009093FF04E82FF0E0EC5DFB4E10827798C8
:1008F00041E050E060E070E083EF94E00E949412E9
:10090000EDB7FEB77E960FB6F894FEBF0FBEEDBFF3
:1009100083EF94E00E94B612892BD1F3779A84E09A
:100920000E94CA0864E273E084E294E10E94AF2B63
:10093000892B71F484E294E19F938F9389E293E091
:100940009F938F930E94012C0F900F900F900F9008
:1009500084E00E94CF088091FB049091FC04A09158
:10096000FD04B091FE040196A11DB11D8093FB040E
:100970009093FC04A093FD04B093FE04DF91CF910B
:100980001F910F910895E6E4F1E03081208180818C
:100990009081492F4295469546954370932F907CC0
:1009A000940F269526952073920F82958C70890F4F
:1009B0000895CF93C82F86E493E09F938F930E946E
:1009C000012C0F900F90C0FF04C083E593E00E94BC
:1009D000432CC1FF04C082E693E00E94432CC2FF77
:1009E00004C081E793E00E94432CC3FF04C080E869
:1009F00093E00E94432CC4FF05C08FE893E0CF91A1
:100A00000C94432CCF9108958F929F92AF92BF92F6
:100A1000CF92DF92EF92FF920F931F93CF93DF93CA
:100A2000CDB7DEB72A970FB6F894DEBF0FBECDBFA5
:100A30000E946E0C0E947D0C0E94D40846E069E181
:100A400080E00E94100C80E00E94650C0E94D60A93
:100A500060EA76E881E090E00E948E07E2EEF5E140
:100A600022E432E4318320833A968DB79EB70A9709
:100A7000E817F907B8F38AE993E09F938F9385E32A
:100A800094E09F938F930E94152C8EB30E94D904FB
:100A90000E94E1120E9471160E94C31360E070E090
:100AA00087E292E00E9453140E9423160E940C17C2
:100AB00067EE76E180E00E94570CE0912904F09106
:100AC0002A0419950E94C30490E00E948A0C86EAC9
:100AD00093E09F938F930E94012C0E945308909360
:100AE000F8148093F7148AE090E00E943D2C8091E6
:100AF000F7140F900F900F900F900F900F9080FFB2
:100B000019C061E0CE0101960E944808CE0101960D
:100B10000E94101B8A81082E000C990B982F8827A1
:100B20002885820F911D27FD9A959093F01480934C
:100B3000EF1417C08CEA93E00E94432C8CEF89835A
:100B400082EC8A838DE38B831C821D821E828091BE
:100B5000EF149091F0149F838887CE0101960E9434
:100B6000101B0E9465078C010E946107AE01475F60
:100B70005F4FB8010E94130F0E94D1060E948F0E92
:100B80000E9469070E945B1088E294E09F938F9314
:100B90000E94152C8A81898788858A871F928F9366
:100BA00004E214E01F930F930E94152C89851F9275
:100BB0008F931F930F930E94152C82E294E09F93D2
:100BC0008F930E94152C0E94411CE0918D04F0919E
:100BD0008E041995E091AB04F091AC041995E09165
:100BE0007F04F091800419950E945D10882E009179
:100BF000990410919A04F80119950FB6F894DEBF84
:100C00000FBECDBF892B51F0F8011995BC0180E8CA
:100C100090E00E94052A162F072F02C010E800E07E
:100C20000E948C0E982EB0907D04A0907E04D090EF
:100C30008B04C0908C04F090A904E090AA040E9458
:100C40003F0D1F928F920F931F931F929F92AF920F
:100C5000BF92CF92DF92EF92FF929F938F938EEC91
:100C600093E09F938F930E94152C8DEB93E09F93BD
:100C70008F930E94152C82E493E00E94721685EBFC
:100C800093E09F938F930E94152C88EE93E09093AE
:100C9000EE148093ED1484E00E94CA080FB6F89415
:100CA000DEBF0FBECDBF2A960FB6F894DEBF0FBED3
:100CB000CDBFDF91CF911F910F91FF90EF90DF900B
:100CC000CF90BF90AF909F908F9008950E940405A1
:100CD000C8E9D3E00E94D3130E94880C8091ED14E0
:100CE0009091EE14009751F001979093EE14809339
:100CF000ED14892B19F484E00E94CF088091F1143F
:100D00009091F214009751F001979093F214809310
:100D1000F114892B19F482E00E94CF0884E00E942C
:100D2000CF0882E00E94CF08C090F314D090F41452
:100D3000E090F514F090F6140E94040BC616D70646
:100D4000E806F90639F20E94040B6093F3147093DD
:100D5000F4148093F5149093F614DC01CB01937096
:100D6000AA27BB270397A105B10509F0B3CFE2EE8F
:100D7000F5E1808191818234924469F0E25EF5412F
:100D8000FF93EF93DF93CF930E94152C0F900F905A
:100D90000F900F909FCF3A96E53F81E8F80748F310
:100DA00099CFDF92EF92FF920F931F93CF93DF9330
:100DB000CDB7DEB7A0970FB6F894DEBF0FBECDBF9C
:100DC00085E090E00E94192D182F282F35EF380F5D
:100DD000303108F0982F9095291709F463C080E509
:100DE00094E09F938F930E94152CE5E9F4E08E0127
:100DF0000F5F1F4F0F900F90D801D02EE12EF02ED5
:100E000088E0800F94919D9331968A13FBCFF894DC
:100E100048E050E061E270E0C8010E941F2DE7E861
:100E2000F4E0D8018EE08F0D94919D9331968A1352
:100E3000FBCF4EE050E063E170E0C8010E941F2D3F
:100E4000EDE7F4E02AE02F0D8491D8018D938D0118
:100E500031962A13F9CF4AE050E069E070E08D2D19
:100E60009E2D0E941F2D6DEC7BEA83E090E00E9496
:100E7000372D60E070E081E090E00E94372D60E067
:100E800080E090E00E94292D60E070E087E090E033
:100E90000E94372D1AE16AE175EE85E090E00E942C
:100EA000372D7894812FA0960FB6F894DEBF0FBE31
:100EB000CDBFDF91CF911F910F91FF90EF90DF9009
:100EC000089583E090E00C94192D81E090E00C945B
:100ED000192D80E090E00C94112DCF93DF931F9299
:100EE0001F92CDB7DEB7892B41F08CE290E0698389
:100EF0007A830E943D2C7A8169817F936F9389E286
:100F000093E09F938F930E94012C0F900F900F906E
:100F10000F900F900F90DF91CF9108959B01AC013E
:100F20001092B90060E074E284EF90E00E94192A08
:100F3000DA01C9014097A109B109B695A79597951E
:100F400087958093B800089594EA9093BC0040EA96
:100F500056E861E070E09091BC0097FD07C04150F9
:100F6000510961097109B9F781E008959091B900BB
:100F7000987F983011F09031B9F78093BB0084E8E6
:100F80008093BC0080EA96E8A1E0B0E02091BC002C
:100F900027FD05C00197A109B109C1F7E5CF8091EF
:100FA000B900887F883111F08034F1F680E008952F
:100FB00084E98093BC008091BC0084FDFCCF08953F
:100FC0008093BB0084E88093BC008091BC0087FFC5
:100FD000FCCF089584EC8093BC008091BC0087FF17
:100FE000FCCF8091BB00089584E88093BC00809181
:100FF000BC0087FFFCCF8091BB000895AF92BF92E9
:10100000CF92DF92EF92FF920F931F93CF93DF93D4
:1010100000D0CDB7DEB7182F022F4A835B836983D8
:101020000E94A4076981862F0E94E007812F8160BA
:101030000E94A4074A81A42E5B81B52E10E0E12C0A
:10104000F12C680181E0C81AD108E016F10689F098
:10105000EC14FD0419F40E94F40702C00E94EA0790
:10106000F5018083FFEFEF1AFF0A8FEFA81AB80A85
:10107000ECCF0F900F900F90DF91CF911F910F91B8
:10108000FF90EF90DF90CF90BF90AF900C94D80777
:10109000AC01662319F028E068E902C020E160E8AD
:1010A00080EB0C94FE07EF92FF920F931F93CF9368
:1010B000DF930E94880C80EB0E94A407811115C069
:1010C0000E94D8078BEC93E09F938F9389E293E083
:1010D0009F938F930E94012C0F900F900F900F9071
:1010E00001E010E0C1E0D0E004C000E010E0C0E0AA
:1010F000D0E00E94880C80E80E94A40781110DC0F6
:101100000E94D80702607E018FEFE81AF80A63EDAB
:1011100073E0CE010E946D07E7018CEE0E94A407E8
:1011200081110DC00E94D80708607E018FEFE81A78
:10113000F80A62EE73E0CE010E946D07E7010E949B
:10114000880C82ED0E94A40781110DC00E94D8076F
:1011500004607E018FEFE81AF80A64EF73E0CE01B5
:101160000E946D07E7010E94880C80ED0E94A40791
:10117000811108C00E94D807006161E074E0CE01CF
:101180000E946D07C801DF91CF911F910F91FF90D1
:10119000EF90089581FD739882FD7498089581FD04
:1011A000739A82FD749A08956C9A6B9A87E00C94F6
:1011B000CF0880937C0080917B00877F80937B00A9
:1011C00080917C00806C80937C0085E080937A0025
:1011D00080917A00806880937A0080917B0087FFFD
:1011E000FCCF80917B0085FFFCCF80917A008064EA
:1011F00080937A0080917A0086FDFCCF109279006E
:101200001092780024E030E080E090E040917A0095
:10121000406440937A0040917A0046FDFCCF4091B3
:10122000780050917900840F951F2150310971F792
:1012300010927C0020917A002F7720937A00969567
:10124000879596958795089580E00E94D908BC01FE
:1012500080E090E00E94E62827ED34E34FEE5CE367
:101260000E94982921EE3AE744E95EE30E94CD27E7
:10127000089580E18093510180E190E080935101D5
:101280002091510125FF04C001968F319105B1F7DE
:101290002BE4289FB001299F700D112465507B4FCE
:1012A000072E000C880B990B0E94E82820E030E004
:1012B0004AE754E40E943E28089581E090E00895B2
:1012C0005F98579A80EE91E00E941E0B579880E439
:1012D00090E00E941E0B4F9909C08CE291E00E94A1
:1012E0001E0B89B1881F8827881F089580E0089504
:1012F0000E94600980E090E00895CF93C82F579A2C
:101300005F9882E090E00E941E0BCC2311F057986A
:101310005F9A8CE390E00E941E0B5F9A579882E0E0
:1013200090E0CF910C941E0BCF93579A5F9882E078
:1013300090E00E941E0B57985F9A8CE090E00E940C
:101340001E0BC9B182E390E00E941E0B5F9A579872
:1013500082E090E00E941E0B8C2F881F8827881F38
:10136000CF9108951F93CF93DF93C0E0D0E010E0BA
:101370000E949409282F0C2E01C0220F0A94EAF72C
:10138000120F2196C830D10599F7812FDF91CF91A7
:101390001F9108950F931F93CF93DF93C0E0D0E088
:1013A000082F10E0C8010C2E02C0959587950A946D
:1013B000E2F781700E947D092196C830D10591F72E
:1013C000DF91CF911F910F910895382FFC0180E09C
:1013D0004CE89E2F931B961770F49191892798E003
:1013E000282F269580FF03C0822F842701C0822FDB
:1013F0009150B1F7EECF0895BF92CF92DF92EF9266
:10140000FF920F931F93CF93DF93CDB7DEB729974A
:101410000FB6F894DEBF0FBECDBF8C010E946009ED
:10142000882309F44CC08CEC0E94CA0984E40E9411
:10143000CA09579821E5E22EF12C4F9909C08AE09C
:1014400090E00E94270B81E0E81AF108B1F736C05E
:101450000E9460098CEC0E94CA098EEB0E94CA09A6
:10146000FE0131967F016F0199E0B92EBE0E0E94F8
:10147000B209F60181936F01BE12F9CF68E0C7018E
:101480000E94E5099985891319C06A8170E0762F59
:1014900066278981682B072E000C880B990B0E9408
:1014A000E82820E030E040E85DE30E949829F80158
:1014B000608371838283938381E001C080E02996F9
:1014C0000FB6F894DEBF0FBECDBFDF91CF911F9155
:1014D0000F91FF90EF90DF90CF90BF900895CF9342
:1014E000DF9300D01F92CDB7DEB7CE0101960E94E8
:1014F000FC09882371F020E030E048EC52E4698177
:101500007A818B819C810E9498290E94B028CB010E
:1015100002C080E090E80F900F900F900F90DF9145
:10152000CF91089560EA76E881E090E00C948E0710
:10153000982F92959F708F702AE0929F800D1124B2
:101540000895CF93DF93EC0180ED0E94A40780E023
:101550000E94E0070E94D80781ED0E94A4070E9424
:10156000EA070E94980A88830E94EA070E94980A64
:1015700089830E94EA070E94980A8A830E94EA07E8
:101580000E94980A8B830E94EA070E94980A8C8323
:101590000E94EA070E94980A8D830E94F4070E9425
:1015A000980A8E83DF91CF910C94D807F89480E24B
:1015B0008093B6001092B2008FE18093B30082E076
:1015C0008093B0008093B10097B397BB8093700075
:1015D000789408950F931F9360910E0570910F05F5
:1015E000809110059091110500910E0510910F0545
:1015F000209110053091110560177107820793073C
:1016000059F71F910F9108950F931F936091011542
:1016100070910215809103159091041500910115A8
:101620001091021520910315309104156017710770
:101630008207930759F71F910F910895009731F092
:10164000880F991F880F991F0197F1F7089520EAD5
:101650003FE0019720F0F9013197F1F7FACF0895B3
:101660001F920F920FB60F9211240BB60F922F9369
:101670003F934F935F936F937F938F939F93AF931A
:10168000BF93EF93FF9380910E0590910F05A0916A
:101690001005B09111050196A11DB11D80930E0595
:1016A00090930F05A0931005B093110580910E053E
:1016B00090910F05A0911005B09111058F77992792
:1016C000AA27BB27892B8A2B8B2B99F48091011594
:1016D00090910215A0910315B09104150196A11DDA
:1016E000B11D8093011590930215A0930315B0933B
:1016F000041580919C158823E1F080910D058F5F82
:1017000080930D0587FF15C010920D058091F91487
:101710009091FA14A091FB14B091FC140196A11DB4
:10172000B11D8093F9149093FA14A093FB14B09315
:10173000FC140E94B215892B11F00E94DD14FF9158
:10174000EF91BF91AF919F918F917F916F915F9139
:101750004F913F912F910F900BBE0F900FBE0F90A6
:101760001F9018951F920F920FB60F9211240BB66F
:101770000F922F933F934F935F936F937F938F932A
:101780009F93AF93BF93EF93FF938091C600E09137
:101790000715F0910815309709F01995FF91EF9111
:1017A000BF91AF919F918F917F916F915F914F9179
:1017B0003F912F910F900BBE0F900FBE0F901F9077
:1017C00018951F920F920FB60F9211240BB60F921D
:1017D0002F933F934F935F936F937F938F939F9339
:1017E000AF93BF93EF93FF938091CE00E0910515E7
:1017F000F0910615309709F01995FF91EF91BF917F
:10180000AF919F918F917F916F915F914F913F9198
:101810002F910F900BBE0F900FBE0F901F90189539
:1018200081110EC01092C5006093C40088E98093B6
:10183000C1004093C2001092081510920715089538
:10184000813069F41092CD006093CC0088E98093D8
:10185000C9004093CA00109206151092051508950C
:10186000811107C08091C00085FFFCCF6093C60046
:101870000895813031F48091C80085FFFCCF6093DA
:10188000CE000895CF93C82F8A3031F46DE0809157
:1018900012050E94300C02C08D3029F06C2F80910F
:1018A00012050E94300C80E090E0CF9108958111E4
:1018B00005C070930815609307150895813021F4D1
:1018C00070930615609305150895809312058EE0B8
:1018D00092E09093DF158093DE15089584B7877F9B
:1018E00084BF0FB6F894A8958091600088618093BA
:1018F0006000109260000FBE08959FE088E10FB66F
:10190000F894A895809360000FBE909360000895AE
:10191000A89508950C94922A0C948E2A81E090E068
:10192000089580910E1590E008958091390181FF0E
:1019300009C0809139018D7F8093390189E190E060
:101940000197F1F723E040E06FE182E491E00E942B
:101950009E1185E090E00197F1F70895909139018B
:1019600091FD0AC0282F803108F02FE040E06FE0A1
:1019700085E491E00C949E1108950C9781F4423017
:10198000510581F46115710569F08091950590917B
:101990009605FB019183808380E090E0089581E0CB
:1019A00090E0089582E090E008958091390181FFF0
:1019B00002C081E0089540E06FE181E491E00E947F
:1019C00093118F3121F08F7E8150823090F780E02B
:1019D00008958091390181FD04C00E94D50C8823AF
:1019E000C1F3089510929C158091390181FD0DC0BD
:1019F0000E94E90C8091390181FD07C00E94950C7D
:101A000080913901826080933901089580919C15FD
:101A1000882321F00E94D50C0E94F20C80E090E017
:101A200008958091390181FD0EC040E06FE181E4AD
:101A300091E00E949311282F2F7E81E090E02130C9
:101A400021F080E0089580E090E0089522E0260FE4
:101A500027FF0CC080919A1590919B150196909349
:101A60009B1580939A158FEF9FEF0895AB01BC01F2
:101A700083E195E00E948D2B80E090E008958091B5
:101A800063012091620190E0982F8827820F911DB9
:101A9000089540E06FE181E491E00C949311CF93BD
:101AA000DF9398EF980F923038F0982F9F7E963002
:101AB00019F0893109F04EC09091390191FD4DC066
:101AC000C82F0E94E90C0E94490DD82FC81709F4AD
:101AD00047C0C83029F4809139010E94950C2CC070
:101AE000C93119F4863181F404C0C63169F48931F1
:101AF00059F429E040E06FE182E491E00E949E11F8
:101B000085E090E00197F1F72C2F40E06FE182E44F
:101B100091E00E949E11D83059F420911C0240E0BF
:101B20006FEF86E591E00E949E1181ED92E002C088
:101B300085E090E00197F1F70E94490D8C1781F044
:101B4000C63019F4813079F40BC0C63161F48131AB
:101B500051F406C082E490E008C084E490E005C03F
:101B600080E490E002C083E490E0DF91CF9108959B
:101B700081E080939C159091390191FF14C080936E
:101B800097152FB7789480913901809139018D7F15
:101B90008093390180E197E230919715332311F05A
:101BA0000197D1F72FBF86E10E944F0D0C94E90CED
:101BB00080919C15811102C00E94B80D81E090E0D7
:101BC00008950F931F93CF93DF931F92CDB7DEB786
:101BD00080919C15882361F08091390181FF02C0BA
:101BE00080E033C00E94D50C8823D1F300E003C00D
:101BF0000E94D80D01E080E88093550186E00E94A4
:101C00004F0D81E080930F158FB7898378941092E0
:101C1000470180910F158111FCCF89818FBF909171
:101C2000470181E09E3008F080E0182F119586E191
:101C30000E944F0D1092550101110E94060D812F37
:101C40008295869586958370817090E00F90DF91E4
:101C5000CF911F910F91089580931C0208952FEF4B
:101C600040E06FEF8EE491E00E949E1120E044E09E
:101C700060EF8CE691E00E949E1120E041E06EE072
:101C80008CE691E00E949E1180E880936F01809124
:101C9000460180936D0121E045E060E284E491E03B
:101CA0000C949E11CF93DF93C9EFD7E0CE0101973B
:101CB000F1F70E94921110921515109214151092BE
:101CC0001315E9E3F1E080818E7F808380818D7F31
:101CD000808381E89BE10197F1F7808181608083B7
:101CE00023E040E06FE182E491E00E949E112197A1
:101CF000F1F780915D0180915E010E942F0E60E0FE
:101D000070E08DE192E00E9453140E94B80D81E0D2
:101D100090E0DF91CF910895809194050895CF933D
:101D2000DF931F92CDB7DEB789830E94E90C8981CA
:101D300080939405282F40E06FE188E491E00F90B4
:101D4000DF91CF910C949E11CF93DF93EB018830FC
:101D5000910508F05DC0FC018827E656FF4F8F4FC4
:101D60000C943B2A6130710519F40E94D80D53C0C0
:101D7000CD2B09F053C00E94060D4DC0CB010B972F
:101D8000409708F04BC0862F0E948F0E44C0D0931E
:101D90006301609362013FC060936001D093610171
:101DA0003AC0CB01887F892BC9F560FF02C020E0D3
:101DB00001C021E041E062E087E591E00E949E11D0
:101DC000C1FF02C020E001C021E044E060E18EE6F6
:101DD00091E00E949E11D695C795D695C795C17082
:101DE000C0939705CC2369F010921C0286E00E94F4
:101DF0004F0D2FEF40E06FEF8EE491E00E949E11B7
:101E00000AC08FEF80931C0286E10E944F0D03C031
:101E100081E090E005C080E090E002C082E090E0C8
:101E2000DF91CF910895FA0190936301809362014D
:101E300060936001709361013097C1F0808180935D
:101E40006B01818180936A01828180936901838122
:101E50008093680184818093670185818093660106
:101E600086818093650187818093640108958091C4
:101E70009400909195009093960580939505089510
:101E80008DE192E00E94741481E080930E158091A0
:101E900010159091111501969093111580931015BE
:101EA00081E090E00895E091141582E8E89FF00148
:101EB0001124EB5EFA4E10821092141580911515C4
:101EC00081110C94400F10920E1508950F931F93DB
:101ED000CF9320911415C2E8C29F90011124F901FB
:101EE000EB5EFA4E40815DEF540F5D3728F00E94A3
:101EF000530F00E010E030C050E08A010250110999
:101F000060177107A0F3B9016A5E7A4E0E948D2BAB
:101F1000E0911415CE9FF0011124EB56FA4E80810A
:101F2000809309150E94530F8091470180930A15F1
:101F300090910D15992311F0891710F480930D15C8
:101F400060910A1570E084E00E94171C60910915E9
:101F500070E083E00E94171CC801CF911F910F9180
:101F60000895AF92BF92DF92EF92FF920F931F936B
:101F7000CF93DF931F92CDB7DEB77C01FC01808148
:101F800091810097C1F08E349640D9F0F70111820B
:101F9000108283E085C08AE090E00E943D2C1016FC
:101FA00011060CF073C0C8010E94321BE09193042B
:101FB000F091940419958EE496E0F7019183808363
:101FC00002C0623811F081E06BC00E94CC1B8FB759
:101FD0008983F8940E94781B60E870E00E94660F85
:101FE0008C0189818FBF809198058823C1F20E945E
:101FF000781B5C016091DE157091DF1581EC90E03B
:102000000E94C92B6091DE157091DF158FE190E081
:102010000E94C92B6091DE157091DF158EEF90E064
:102020000E94C92B6091DE157091DF1582E790E068
:102030000E94C92B6091DE157091DF1581E090E060
:102040000E94C92B6091DE157091DF1580E090E051
:102050000E94C92B6091DE157091DF15C8010396AF
:102060000E94C92BD12C2D2D30E0201731070CF008
:1020700092CF6091DE157091DF15F501E20FF31F2D
:10208000808190E00E94C92BD394EDCF80910B15F5
:1020900090910C15019690930C1580930B158BCF96
:1020A0000F90DF91CF911F910F91FF90EF90DF90F4
:1020B000BF90AF9008950C94AE0C8091390181FDD2
:1020C00006C040E06FE085E491E00C94931180E15C
:1020D0000895EF92FF921F93CF93DF931F92CDB796
:1020E000DEB7182F8091390181FD0DC00E94E90CE7
:1020F00089E10E944F0D86E00E94221C892BA1F4E9
:10210000E12CF12C1AC081E0809397158091390160
:102110008D7F8093390180E197E2209197152223EA
:1021200029F30197D1F7E2CF0E945D10E82E86E0F7
:102130000E94221C81500E94AE0C8FB78983F894B4
:1021400080913901826080933901809139018D7FBE
:102150008093390162E0610F83E195E00E94E5110F
:1021600089818FBF809198159091991501969093D0
:102170009915809398150E94E90C45E060EE82E481
:1021800091E00E949311182F86E00E94221C892B57
:1021900019F08E2D0E94AE0C80919C15882319F0A9
:1021A0000E94B80D02C00E94F20C123028F48FE099
:1021B0000E94221C10E00BC0133031F0153031F0BA
:1021C000173029F411E003C012E001C013E0812FA1
:1021D00090E00F90DF91CF911F91FF90EF900895C5
:1021E000CF93DF93EB010E94260D009729F4CE01D7
:1021F0000E946910009751F020919A1530919B151B
:102200002F5F3F4F30939B1520939A15DF91CF910D
:102210000895CF93DF9380919C15811104C00E9493
:10222000D80DD1E001C0D0E00E94490D863111F0F7
:10223000813119F4C091470109C040E06FE186E4A3
:1022400091E00E949311C82FCC0FC80FD1110E94AA
:10225000060D8C2FDF91CF910895CF93DF936115F9
:10226000710509F44AC08131910540F4EB01FC018C
:102270008827EE55FF4F8F4F0C943B2A81E090E06A
:102280004EC08091940526C00E943F0D30C08091C1
:1022900060012091610190E0922B29C0198218827F
:1022A00041E062E087E591E00E949311882359F1B3
:1022B00044E060E18EE691E00E949311882349F1A9
:1022C000809197058823E1F08881998184600FC00F
:1022D0000E945D1090E00BC00E940911FBCF8BE0C3
:1022E00090E005C08AE190E002C08FE090E0998321
:1022F000888306C01982188203C082E090E00FC074
:1023000080E090E00CC08881998181609983888306
:10231000CFCF88819981826099838883D1CFDF91E3
:10232000CF9108950895FC0180816823862F90E065
:1023300002C0959587954A95E2F70895CF93DF936C
:102340001F92CDB7DEB7FC01922F8FB78983F89427
:102350002081362F3095522F5323292F01C0220F71
:102360004A95EAF72623252B208389818FBF0F907A
:10237000DF91CF910895CF93DF93E0917B012DEF13
:102380002E0F2D3740F0FC011082E058FF4F1082D5
:102390003196108217C0EC01E993A0E8B1E020E883
:1023A0002E0F3C91399311962A13FBCFE150F0E0A8
:1023B000E058FE4F2181FC01E058FF4F2083319609
:1023C00081E08083DF91CF91089560938001E1E8FF
:1023D000F1E06158DC012D91CD01208331966E131F
:1023E000F9CF08951F920F920FB60F9211240BB6DA
:1023F0000F922F933F934F935F936F937F938F939E
:102400009F93AF93BF93EF93FF9380914701809386
:102410000A158091131522E8829FC00111248B5E5A
:102420009A4E0E94BB11109213150E94400FFF910B
:10243000EF91BF91AF919F918F917F916F915F913C
:102440004F913F912F910F900BBE0F900FBE0F90A9
:102450001F9018951F920F920FB60F9211240BB672
:102460000F922F933F934F935F936F937F938F932D
:102470009F93AF93BF93EF93FF930E94370FFF910A
:10248000EF91BF91AF919F918F917F916F915F91EC
:102490004F913F912F910F900BBE0F900FBE0F9059
:1024A0001F9018951F920F920FB60F9211240F9044
:1024B0000FBE0F901F9018951F920F920FB60F929C
:1024C00011240F900FBE0F901F9018951F920F921E
:1024D0000FB60F921124109297150F900FBE0F9008
:1024E0001F9018951F920F920FB60F921124109201
:1024F00012150F900FBE0F901F9018951F920F92FC
:102500000FB60F9211240F900FBE0F901F901895C9
:102510001F920F920FB60F92112410920F150F9069
:102520000FBE0F901F901895CF93DF93EC014C8353
:102530005D836E837F830E94EA0A688379838A833E
:102540009B83DF91CF910895FC014081518162818D
:10255000738184819581A681B781840F951FA61F01
:10256000B71F80839183A283B3830895CF92DF92B4
:10257000EF92FF92CF93DF93EC010E94EA0AC880AA
:10258000D980EA80FB80DC01CB018C199D09AE0962
:10259000BF090196A11DB11D21E030E0CC80DD8096
:1025A000EE80FF80C816D906EA06FB0610F020E090
:1025B00030E0C901DF91CF91FF90EF90DF90CF9095
:1025C00008950C94B51C8091990590919A050097F7
:1025D000C1F010929A0510929905DC0114966D9144
:1025E0007C9115971296ED91FC9113971995E091B6
:1025F0009905F0919A05309721F0808191810C9492
:10260000CF1C08951F93CF93DF93DC011496ED91B7
:10261000FC9115973097E1F0162FEC01909340064E
:1026200080933F0682E08887CD0106961995082E93
:10263000000C990B0297029710F0133839F4BE0181
:10264000CE01DF91CF911F910C94321381E08887E6
:10265000DF91CF911F910895FC01208520FD0C94FE
:1026600002130895CF92DF92EF92FF920F931F9380
:10267000CF93DF93E0903F06F0904006C090410674
:10268000D0904206F601E817F90739F0309709F4BF
:102690004BC00190F081E02DF6CF009709F444C0C3
:1026A0008B01EC018885882309F11886C114D104B7
:1026B00061F0CC15DD0529F0AE0167E8C6010E9486
:1026C0002C13F601C080D180F1CFEC81FD813097D1
:1026D00069F0C017D10751F0D0934006C0933F0670
:1026E00040E050E063E8CE0106961995E09141067E
:1026F000F0914206CE17DF0741F4888199819093CB
:102700004206809341060CC0FC01309749F080815D
:1027100091818C179D07C1F788819981918380836E
:10272000F0924006E0923F06DF91CF911F910F910A
:10273000FF90EF90DF90CF9008951F93CF93DF939A
:1027400010929B05C0914106D091420611E020975E
:1027500079F08985882341F01887198640E050E098
:1027600062E8CE010E9402130990D881C02DEFCFFC
:10277000DF91CF911F91089580913E0691E0980FCF
:1027800090933E0608958AE880933E0610923C0698
:1027900010923D0610924206109241061092400699
:1027A00010923F060895FF920F931F93CF93DF93EC
:1027B00080919B0581110E949D1390913D06992364
:1027C000C9F1E0913C062E2F30E085E0E89FF00152
:1027D0001124E456FA4FF080018112810380F481C4
:1027E000E02D2F5F3F4F2F71332720933C069150F0
:1027F00090933D063097A1F4C0914106D0914206D6
:102800002097C1F080919B0581110E949D13A80122
:102810006F2DCE010E942C130990D881C02DF0CFCE
:1028200081E8F81202C081E08087A8016F2DCF01F6
:102830000E942C1380919B0520913D0690E0820F11
:10284000911DDF91CF911F910F91FF9008959C01F1
:1028500090913D069032A9F0E0913C06E90FEF71AE
:1028600085E0E89FF0011124E456FA4F608352831B
:102870004183348323839F5F90933D0680E090E003
:10288000089581E090E00895CF93DF93C0913F06D3
:10289000D09140060E942C13D0934006C0933F066F
:1028A000DF91CF910895AB0130914106209142060E
:1028B000E32FF22FE817F907B1F0309721F00190DC
:1028C000F081E02DF7CF009771F0FC013083218378
:1028D000909342068093410621E02087178216825A
:1028E00061E80C9444140895009749F0FC01208598
:1028F0002150223020F421E0218720939B05089568
:10290000CF92DF92EF92FF920F931F938091470631
:1029100090914806892B49F4109243061092440680
:10292000109245061092460641C00E94EA0A8B01A9
:102930009C01E0914706F0914806448155816681EB
:10294000778180819181A281B381840F951FA61F19
:10295000B71F801B910BA20BB30B0084F185E02DF8
:102960003097C1F0C480D580E680F78040815181E6
:10297000628173814C0D5D1D6E1D7F1D401B510BCF
:10298000620B730B481759076A077B0730F7DB01A7
:10299000CA01E3CF800F911FA21FB31F809343068C
:1029A00090934406A0934506B09346061F910F915D
:1029B000FF90EF90DF90CF90089587E292E00C9423
:1029C0007414EF92FF920F931F93CF93DF938C01B8
:1029D000FC0180819181009799F089359105D9F0AA
:1029E000F8011182108283E068C082859385841784
:1029F000950709F049C00084F185E02D3097A9F7CB
:102A0000109248061092470689E590E0F8019183FC
:102A1000808381E052C0673891F16238A9F7C09194
:102A20004706D0914806E12CF12C209769F3CE019E
:102A30000E94B612892BF1F0AE0168E88A859B8569
:102A40000E942714892BA1F41B861A8688859985F4
:102A5000E114F10421F0F7019187808704C090937D
:102A6000480680934706198618860E948014D7CF9F
:102A70000E94DD147E010884D985C02DD6CFE09157
:102A80004706F0914806BACFF0934806E093470610
:102A9000A085B185109709F4B7CF1A968D919C91B6
:102AA0001B978417950739F418968D919C91199767
:102AB00091878087EDCFFD01EBCFDF91CF911F9103
:102AC0000F91FF90EF900895CF93DF93EC010E9458
:102AD000DD142A853B859091470680914806232B7B
:102AE00091F0E92FF82F309771F0EC17FD0739F4CA
:102AF00080913F06909140069387828710C00084A2
:102B0000F185E02DF0CF20913F06309140063B87C4
:102B10002A8798878987D0934806C0934706DF9114
:102B2000CF910C948014CF93DF93EC010E94941208
:102B3000CE01DF91CF910C946415CF93DF93EC011C
:102B40000E94A412CE01DF91CF910C94641521E074
:102B500030E0FC0182859385892B11F020E030E084
:102B6000C901089581E090E0209147063091480620
:102B7000232B11F480E090E00895EF92FF920F93E1
:102B80001F93CF93DF938C017A01FC0180819181A7
:102B9000009741F08A34910511F1F80111821082F9
:102BA00083E04AC08AE496E00E946217EC01209715
:102BB00061F04E815F8168857985CE0102960E9421
:102BC00093150990D881C02DF2CF81E080934906FA
:102BD0008AE490E0F8019183808381E02DC0683819
:102BE000E1F78AE496E00E946217EC01209781F3F6
:102BF000CE010296E816F906D9F4BE018AE496E001
:102C00000E947617E0903F06F09040068E859F85E3
:102C10009093400680933F06E889F989309719F030
:102C20008A899B891995F0924006E0923F06D0CFA1
:102C30000990D881C02DDACFDF91CF911F910F91EC
:102C4000FF90EF900895109249068AE496E00E9462
:102C50005E1760E070E081E392E00C945314EF9211
:102C6000FF920F931F93CF93DF93EC01FF86EE86C5
:102C7000398B288B1B8B0A8B80914906882399F00E
:102C800000913F061091400681E392E09093400648
:102C900080933F06CE0102960E9493151093400642
:102CA00000933F0604C04E835F8368877987BE0127
:102CB0008AE496E0DF91CF911F910F91FF90EF9002
:102CC0000C949517EF92FF920F931F93E0903F069D
:102CD000F09040060E942F161F910F91FF90EF90E9
:102CE00008950895CF93DF93EC018991999100970E
:102CF00029F060E070E00E945314F7CFDF91CF918C
:102D00000895CF93DF93EC01888199818C379105E9
:102D100079F08139910509F453C0892B09F04CC031
:102D20000E94BC1380939D151092CE061092CD0682
:102D30008FE497E00E9441178F3F2FEF920719F41D
:102D40008CE790E036C02091CD063091CE068A30D7
:102D5000910579F02F3731055CF7A9014F5F5F4F7F
:102D60005093CE064093CD06F901E35BF94F808383
:102D7000DFCFC90101969093CE068093CD06F9016D
:102D8000E35BF94F10824DE456E060919D1580E0C1
:102D900090E00E94271440E050E065E880913F06F3
:102DA000909140060E942714892B09F0BDCF81E93C
:102DB00090E09983888307C01982188283E004C059
:102DC000653809F4B1CF81E0DF91CF9108958D305E
:102DD00001F1682F80914C0681110AC08FE497E0C1
:102DE0000E942117892B71F481E080934C060AC060
:102DF0006A3041F48FE497E00E942117892B11F08B
:102E000010924C068BE392E00E94741481E090E0F3
:102E1000089580E090E0089540E86FEC76E08FE45C
:102E200097E00E94191760E070E08BE392E00C9449
:102E30005314FC01718360834150428313821482D6
:102E40000895FC018381228130E090E04481DC011F
:102E5000A41BB109AD01422353234217530771F05C
:102E600020813181D901A80FB91F6C9383818F5FB5
:102E700092818923838381E090E0089580E090E04F
:102E80000895FC0134812281838190E0432F50E03A
:102E9000841B950B622F70E086239723892B59F0B2
:102EA00080819181DC01A40FB51F8C913F5F2323AA
:102EB000248390E008958FEF9FEF0895FC01118225
:102EC00010820895FC01808191810895DC01ED91CB
:102ED000FC91309741F080819181009711F0FC01C5
:102EE000FACFCF01089580E090E00895DC01ED91E4
:102EF000FC913097C9F0A0E0B0E0E617F70761F465
:102F0000FB0120813181109709F4DC012D933C9362
:102F1000FB0111821082089520813181DF0121158A
:102F2000310511F0F901E9CF08950F931F93CF9365
:102F3000DF938C01EB010E94761719821882C80179
:102F40000E946617009711F4F80101C0FC01D183BB
:102F5000C083DF91CF911F910F910895009721F0C9
:102F6000FC0180819181089580E090E00895DC016A
:102F70001996ED91FC911A970280F381E02D30971C
:102F800009F0199408950F931F93CF93DF931F9225
:102F90001F92CDB7DEB78C018AE10E94351CBC01BF
:102FA000CE0101960E94FD1AD8011996ED91FC916F
:102FB0001A970190F081E02D309729F0BE016F5FE4
:102FC0007F4FC80119950F900F90DF91CF911F91FE
:102FD0000F910895EF92FF920F931F93CF93DF937A
:102FE0008C01EB017A014EE654E00E945118F80181
:102FF000F286E18662E774E0CE01DF91CF911F9106
:103000000F91FF90EF900C943C180C946A18CF939A
:10301000DF93EC016EE975E18AE10E942B1CCE0181
:10302000DF91CF910C946C1884E597E00C945E17B7
:10303000FC0173836283BC0184E597E00C949517CF
:10304000BC0184E597E00C947617CF93DF93EC01F5
:1030500084E597E00E946217009749F0FC01228105
:1030600033812C173D0729F00E94AE17F5CF80E081
:1030700090E0DF91CF9108950F931F93CF93DF934B
:103080008B010E942518EC01892B31F01D830C83E4
:10309000C8010E94891D8E83DF91CF911F910F91EE
:1030A0000895EF92FF920F931F93CF93DF938C01BC
:1030B000EB017A010E941818F801F086E78266E7B2
:1030C00074E0CE01DF91CF911F910F91FF90EF90AF
:1030D0000C943C180C9420180C940919DC011796D8
:1030E000ED91FC9118970190F081E02D309709F057
:1030F00019940895DC011796ED91FC9118970280C0
:10310000F381E02D309709F019940895CF92DF9262
:10311000EF92FF920F931F93CF93DF937C018B016C
:103120006A0186E597E00E946217EC01892B51F055
:10313000EC81FD81309711F0C8011995CE010E94F4
:10314000AE17F3CFA601B801C701DF91CF911F9150
:103150000F91FF90EF90DF90CF900C947A180F931F
:103160001F93CF93DF931F921F92CDB7DEB70E94BC
:103170005B1D8C0186E597E00E946217009779F04D
:10318000DC011296ED91FC911397309729F0898319
:103190009A8319959A8189810E94AE17EFCF011504
:1031A000110549F0C8010F900F90DF91CF911F9149
:1031B0000F910C946E180F900F90DF91CF911F918B
:1031C0000F910895CF92DF92EF92FF920F931F938A
:1031D0000E94411C0E94CC1B0E941B1D0E94591D75
:1031E000C12C88E0D82E87E0E82EF12C00E01EE10B
:1031F00020E030E040E052E060E070E082E090E00B
:103200000E94801E1F910F91FF90EF90DF90CF9052
:103210000895CF93DF93EC010E946E1D009761F03B
:103220000E94451BE091C504F091C604BE0186E8EA
:1032300098E1199581E090E0DF91CF910895E091B8
:103240003904F0913A04199480E090E008950C94C8
:103250001F19CF92DF92EF92FF920F931F93CF939C
:10326000DF938C017B016EE975E18AE10E942B1CE2
:10327000E0919D04F0919E04199597FD1FC0C091A7
:103280002F04D09130040E947E1B6C010E94371BDA
:10329000B601FE0119958230910599F083309105B0
:1032A00029F0892B31F044E050E00DC042E050E0BD
:1032B0000AC040E050E0C1E0D0E007C045E050E087
:1032C00002C041E050E0C0E0D0E021E030E0B701D2
:1032D000C8010E94BD19CE01DF91CF911F910F91BE
:1032E000FF90EF90DF90CF900895EF92FF920F93B1
:1032F0001F93CF93DF93EC018B01FA01309771F0AC
:10330000E080F180828193810E94491CB801CE0146
:103310000E942919892B11F0F701F0CFDF91CF918D
:103320001F910F91FF90EF9008950C942919892B0C
:1033300029F0E0913904F0913A0404C0E0913B0493
:10334000F0913C041994E0919F04F091A004199528
:1033500097FD12C08BE10E94351C6EE975E10E9459
:10336000041B892B29F0E091AF04F091B00419946B
:103370000E943B1C892BB9F70895FC01CB01BA01CF
:10338000309711F0A90119940895EF92FF920F93CD
:103390001F93CF93DF93CDB7DEB7E5970FB6F894C1
:1033A000DEBF0FBECDBF0E943A1B8C010E94781B6E
:1033B000AE014F5F5F4FB8010E9432238C0100972E
:1033C00019F48FEF9FEF41C00E94151B892BC9F3A1
:1033D000698970E084E10E94171C888D8823C9F0F8
:1033E000EC8CFD8C0E940521E816F90621F08C8DED
:1033F0009D8D019631F7BE016F5F7F4F888D0E94D2
:10340000F421892B31F4BE016F5F7F4F8BE10E9465
:103410002B1CBE01675F7F4F8AE10E942B1C6B89CA
:1034200070E083E10E94171C8E89811103C06B8DAF
:1034300070E002C06FEF7FEF8AE00E94171C6B8D77
:1034400070E08EE00E94171CC801E5960FB6F89454
:10345000DEBF0FBECDBFDF91CF911F910F91FF90C7
:10346000EF900895CF92DF92EF92FF920F931F9308
:10347000CF93DF93CDB7DEB7E5970FB6F894DEBFF5
:103480000FBECDBF6C010E940521019619F48FEF8C
:103490009FEF84C0CE0101967C0185E3F701119274
:1034A0008A95E9F780915807811107C081E08093E0
:1034B00058070E948C0C8093590784E10E94221CBB
:1034C000898B83E10E94221C8B8B0E943B1C892BE1
:1034D00011F01C8A04C08BE00E94221C8C8B1E8A77
:1034E0001D8A11E0198FC114D104D9F08AE00E941D
:1034F000221C892B29F08AE00E94221C8B8F11C08C
:1035000080915907811102C01093590760915907A2
:1035100081E0860F809359076B8F70E08AE00E94EC
:10352000171C12E01A8F0E9405219D8F8C8F0E941C
:103530003B1C892B29F0188F8FEF89838A8308C061
:103540008BE10E94351CBC01C7010E94FD1A188F37
:103550000E9405219F8F8E8F8AE10E94351CBC013D
:10356000CE0109960E94FD1A0E94781B9BAB8AAB84
:103570000E943A1B9DAB8CABC7010E9409228C01B3
:10358000CD2861F00E94891B892B09F480CF0E940D
:10359000371BBC01C7010E948422C801E5960FB603
:1035A000F894DEBF0FBECDBFDF91CF911F910F9179
:1035B000FF90EF90DF90CF90089581E090E00C9421
:1035C000321A80E090E00C94321AE0918F04F0916E
:1035D00090041994E091C704F091C8041994E09103
:1035E0009504F09196041994E0919704F091980451
:1035F000199480E090E008950895FB0120813181C5
:10360000FC0131832083089542E050E00E94802B2A
:1036100021E030E0892B11F020E030E0C90108956D
:10362000BC018EE995E10C94FD1A2091DD073091E3
:10363000DE072817390798F04091DB075091DC0727
:10364000480F591F5093DC074093DB07281B390BA9
:103650003093DE072093DD0781E090E0089580E05D
:1036600090E008959093DE078093DD0708958AE542
:1036700097E008958091DD079091DE07089590917D
:10368000DB078091DA07890F0895EF92FF920F937D
:103690001F93CF93DF938091DB079091DC07892BF9
:1036A00001F10091DA07E090DD07F090DE07C0E05D
:1036B000D0E010E0CE15DF0581F00E943F1BFE0137
:1036C000E80FF11DE65AF84F8081FE01E00FF11F6F
:1036D000E65AF84F80832196EDCF1092DC071092C6
:1036E000DB07DF91CF911F910F91FF90EF9008952D
:1036F0000E943F1B90E0865A984F08950E943F1BFE
:103700002091DD073091DE07A901480F511DCA0144
:1037100008950F931F93CF93C82F082F192F0E943E
:103720007E1B9C01800F911F81389105B8F42150B8
:10373000310937FD0BC0F901E65AF84F8081F901D4
:10374000E00FF11FE65AF84F8083F1CF8091DA073E
:10375000C80FC093DA0781E090E002C080E090E0FB
:10376000CF911F910F910895CF93DF9384E3E8EAFF
:10377000F5E1DF011D928A95E9F7C0EAD5E167EB33
:1037800074E0CE010E94FD1A2296B5E1C83ADB072B
:10379000B1F7DF91CF9108951092DC071092DB070B
:1037A0001092DE071092DD071092DA070C94B41B1A
:1037B000EF92FF920F931F93CF93DF931F921F926D
:1037C000CDB7DEB78C0169837A830E94CC1B6981F7
:1037D000E62E7A81F72E81E8E816F10418F080E8E9
:1037E000E82EF12CA701B8018AE597E00E948D2B05
:1037F000F092DE07E092DD07C7010F900F90DF9196
:10380000CF911F910F91FF90EF900895FC0194E3E9
:10381000A8EAB5E101900D929A95E1F788E0FB01E5
:10382000A0EAB5E101900D928A95E1F70895E82F9D
:10383000F0E0EE0FFF1FE855FA4E7183608381E0E0
:1038400090E00895E82FF0E0EE0FFF1FE855FA4EE4
:1038500080819181089590E0880F991F84599A4E34
:103860000E94FD1A81E090E0089590E0880F991F72
:1038700084599A4E089567EB74E082EA95E10C94BE
:10388000041B85E492E00E94E01C8DE492E00C941D
:10389000E01CCF93DF93EC01BC018DE492E00E9429
:1038A000FE1C892BA9F00990D881C02DFE01E0589B
:1038B000FF4F60817181CE010E94D81BBE016A5406
:1038C0007F4FCE018E579F4FDF91CF910C94061CF6
:1038D000DF91CF9108950895E0918104F0918204E1
:1038E00019940F931F93CF93DF93EC018B0161E049
:1038F00070E084E10E94171CE091AD04F091AE04E9
:10390000B801CE01DF91CF911F910F9119941F92B1
:103910000F920FB60F9211240BB60F922F933F9375
:103920004F935F936F937F938F939F93AF93BF93C7
:10393000EF93FF93E1E7F0E08081807D80837894CE
:103940000E94E312FF91EF91BF91AF919F918F91F0
:103950007F916F915F914F913F912F910F900BBE8F
:103960000F900FBE0F901F9018959FB7F894E1E746
:10397000F0E08081807D808388B38F6288BB109265
:103980009000E1E9F0E01082109292001092950010
:10399000109294008081856080839FBF08959C0170
:1039A0009FB7F894309399002093980088B38F6262
:1039B00088BBE1E7F0E08081826080839FBF08954B
:1039C000CF93DF93EC014A815B8160E070E08C81F2
:1039D0009D810E94962B2A813B8188819981289F15
:1039E000A001299F500D389F500D112460E070E018
:1039F0008E819F81DF91CF910C94962BFC012681C3
:103A0000378162177307A0F0A081B1814281538191
:103A1000A49FC001A59F900DB49F900D1124280F65
:103A2000391F81E090E06217730720F080E008956D
:103A300080E090E008958FE393E10C945E179093FB
:103A40003E1380933D1308958FE393E10C94621726
:103A5000EF92FF920F931F93CF93DF938C01EB01B3
:103A60007A018FE393E10E9462170097D9F0DC019D
:103A700012962D913C9113972C173D0781F41696C1
:103A8000ED91FC911797309769F09701AE01B8015D
:103A9000DF91CF911F910F91FF90EF9019940E94A9
:103AA000AE17E3CFDF91CF911F910F91FF90EF9071
:103AB00008950C941418CF93DF93E091CD04F09106
:103AC000CE041995EC01892B29F06A817B8181E074
:103AD0000E94171CCE01DF91CF9108950F931F9381
:103AE000CF93DF93EC01E091CF04F091D0041995CE
:103AF0008C016A817B8181E00E94171C81E090E04B
:103B0000012B11F480E090E0DF91CF911F910F9194
:103B10000895E091D104F091D204199408950F937F
:103B20001F93CF93DF93C0E8D3E1488159816A8125
:103B30007B8100E010E029EB3DE180E693E10E940B
:103B400062160E948C0CBC0180E090E028813981D3
:103B50004A815B810E94192AAB01BC012EED3DE137
:103B60008CE493E10E946216DF91CF911F910F9137
:103B700008958091801390918113A0918213B09148
:103B8000831340917C1350917D1360917E1370914B
:103B90007F13880F991FAA1FBB1F481759076A0771
:103BA0007B0710F4DB01CA0180938013909381138B
:103BB000A0938213B09383130C948F1DCF93DF9344
:103BC0000E94CC1B0E94781BEC01198218820E9473
:103BD000241D28813981009719F1FC014085442377
:103BE000F9F0FC0142815381F901EE0FFF1FEE0F46
:103BF000FF1FEC0FFD1F53834283FC01448155815D
:103C00002F5F3F4FF901EE0FFF1FEE0FFF1FEC0F6D
:103C1000FD1F51834083398328830E94AE17D9CF7B
:103C2000C901880F991F880F991F02960E94321BA5
:103C300088819981892B31F081E493E1DF91CF91E3
:103C40000C940718DF91CF910895AF92BF92CF9255
:103C5000DF92EF92FF920F931F93CF93DF931F9208
:103C60001F92CDB7DEB75B010E94781B8C01FC016F
:103C7000E080F180FA82E9820E943A1B9701220FCC
:103C8000331F220F331F2E5F3F4F8217930798F089
:103C9000C12CD12CCE14DF0471F0F8014481558180
:103CA00062817381C5010E94281DFFEFCF1ADF0AD0
:103CB0000C5F1F4FEFCF0F900F90DF91CF911F91AF
:103CC0000F91FF90EF90DF90CF90BF90AF9008954D
:103CD0000F93013099F48091741390917513A09112
:103CE0007613B09177138093801390938113A093F0
:103CF0008213B09383130F910C948F1D0F9108952D
:103D00004F925F926F927F928F929F92AF92BF92EB
:103D1000CF92DF92EF92FF920F931F932A013B0104
:103D20004801590149EC54E0BC0181E493E10E944F
:103D3000EA17E1E4F3E143AA54AA65AA76AA87AA9E
:103D400090AEA1AEB2AEC3AED4AEE5AEF6AE88E6EE
:103D50009EE11F910F91FF90EF90DF90CF90BF9069
:103D6000AF909F908F907F906F905F904F900C944A
:103D70001F1DFC01208130E0322F22278181282B5A
:103D800002C0220F331F6A95E2F7232F3327FA016F
:103D9000ED52FB4F808190E08223932328E030E0B6
:103DA000241B350B02C0969587952A95E2F7089556
:103DB00020E030E00296FC0132974081442331F04C
:103DC000FC0131974081240F311DF4CFC9010895C2
:103DD0006F927F928F929F92AF92BF92CF92DF921B
:103DE000EF92FF920F931F93CF93DF937C018B0190
:103DF0005A01E9012830310544F4A901B501C8018F
:103E00000E94B91EF701808346C0690183E0D59402
:103E1000C7948A95E1F7452B21F04701612C712C5D
:103E200006C0FB01D701CB018C0D9D1D1FC048E0D2
:103E300050E0B501C801860D971D0E94B91EF4011E
:103E400081934F01FFEF6F1A7F0A6C147D0479F79D
:103E5000AE014770552741155105E9F0E701C60D40
:103E6000D71DB501C801860D971D12C0E817F907C7
:103E700019F021912D93FACFAE01477055274115C6
:103E8000510549F0E701CC0DDD1D60E070E0CF0188
:103E90000E94B91E8883DF91CF911F910F91FF90EF
:103EA000EF90DF90CF90BF90AF909F908F907F90DA
:103EB0006F9008958F929F92AF92BF92CF92DF92B0
:103EC000EF92FF920F931F93CF93DF931F921F9256
:103ED000CDB7DEB70E94781B8C0182E090E00E9493
:103EE000151B892B19F480E090E063C0F801218153
:103EF00030E0322F22278081A901480F511DCA01CD
:103F00000E9425187C01892B71F30E94781B4C01BB
:103F1000F7019681292F26952695269530E09770F2
:103F200041E050E011F440E050E0C901840F951FDA
:103F30000E94151B892BB9F2F70104811581A12C70
:103F4000B12CF8018081882399F1F801C180D12C2E
:103F5000A50147705527B50193E0759567959A952A
:103F6000E1F7680D791D8A3168F09601CE0101965E
:103F70000E94E81EBE016F5F7F4FF80180810E94A2
:103F80002B1C11C01A8219829601CE0101960E9443
:103F9000E81E6A8170E0762F66278981682BF80118
:103FA00080810E94171CAC0CBD1C0E5F1F4FC9CF37
:103FB000C7010F900F90DF91CF911F910F91FF904C
:103FC000EF90DF90CF90BF90AF909F908F9008952B
:103FD000DF92EF92FF920F931F93CF93DF93FC0139
:103FE0002830310564F4DA018C9190E040E150E032
:103FF000461B570BEA01C21BD30B9E0147C0C901E8
:10400000A3E095958795AA95E1F76115710549F0AB
:104010008A017F01E80EF91EA8E0B0E0A61BB70BED
:1040200005C0DA01EF01480F591F3CC0EE15FF052E
:1040300091F0E801D9908E01CD2DD0E00A2E02C07A
:10404000CC0FDD1F0A94E2F7D080DD29D193D08117
:10405000CD2BC083EBCF277033272115310509F411
:1040600049C0DA01A80FB91F8C9190E0621B730B55
:10407000685F7F4F02C0959587956A95E2F799270B
:1040800040E150E0BA01621B730B9B0102C0880F34
:10409000991F2A95E2F72081922B90839181892B99
:1040A000818328C0A417B50719F06D916993FACFE1
:1040B000A9014770552741155105E1F0E80FF91F97
:1040C0002C9130E088E090E0841B950B02C0359580
:1040D00027958A95E2F780E190E0841B950B02C05A
:1040E000220F331F8A95E2F78081832B80838181A1
:1040F000282B2183DF91CF911F910F91FF90EF909B
:10410000DF9008956F927F928F929F92AF92BF92AD
:10411000CF92DF92EF92FF920F931F93CF93DF9393
:104120001F921F92CDB7DEB77C01FC018681082F5C
:10413000069506950695202F30E0877001E010E087
:1041400011F400E010E0020F131FC80102960E9454
:10415000891B009709F448C00E94371BF701228190
:10416000FC012083F7012381FC0121830E94371B7E
:1041700002965C01A80160E070E00E94962BF701B6
:10418000048115810F5F1F4F812C912CF80131970D
:104190008081882339F1F801C080D12C3401F7E007
:1041A0006F227724740193E0F594E7949A95E1F7F0
:1041B000EA0CFB1C8A3128F00E94351C9601AC01E8
:1041C00008C00E94221C89839A839601AE014F5F2A
:1041D0005F4FB301C7010E94E81F8C0C9D1C0E5F4E
:1041E0001F4FD4CF81E090E00F900F90DF91CF91DF
:1041F0001F910F91FF90EF90DF90CF90BF90AF9005
:104200009F908F907F906F9008958091550290912C
:1042100056020895DC01892B09F47CC018968C9114
:104220001897823009F045C017962C911797199668
:10423000EC91199714963C91211107C0E11120C00F
:1042400091E080E03130D1F41DC0E11105C03111A1
:104250000CC091E080E018C0233049F4E33051F401
:1042600031110EC091E080E01EC0233049F02230B1
:1042700009F44BC091E080E0E23021F090E002C010
:1042800090E080E0311132C0211103C0E25031E0F2
:1042900005C0223031F4E25031E020E0E23040F15C
:1042A00006C0233019F531E020E0E23009F130E0BA
:1042B0001FC08C918230C1F014968C91149781119B
:1042C00009C019968C911997837031E020E021F490
:1042D00030E002C030E020E01796EC91E37091E00E
:1042E00080E031F490E004C090E080E030E020E035
:1042F0006115710519F0FB013083218341155105CA
:1043000049F0FA01908381830895EE2309F4B8CF30
:1043100091E0B7CF0895EF92FF920F931F93CF9341
:10432000DF9300D01F92CDB7DEB78C017B0186E012
:10433000FB0111928A95E9F7F801858980FD03C098
:1043400081E0FB018083F801808D823090F48789C1
:10435000837069F0818D837051F0258D368D838D4A
:10436000948D2817390719F481E0848B02C0F80175
:10437000148AAE014F5F5F4FBE016D5F7F4FC80172
:1043800040960E940A218B819C81892B19F082E042
:10439000F701838389819A81892B19F082E0F701E3
:1043A0008183F80187898370823029F0833011F48A
:1043B00088E001C080E0F7018283F801818D83707D
:1043C000823029F0833011F488E001C080E0F701E9
:1043D00084830F900F900F900F90DF91CF911F91DA
:1043E0000F91FF90EF900895823019F0E8E0F0E02F
:1043F00002C0E2E0F0E0E60FF71FE617F70731F042
:1044000082918F3FD1F380E090E0089581E090E0C9
:104410000895CF93DF9300D000D0CDB7DEB7BE01B3
:104420006F5F7F4F0E948B21898190E002962A81E5
:10443000820F911D2B81820F911D2C81820F911D66
:104440002D81820F911D2E81820F911D26960FB610
:10445000F894DEBF0FBECDBFDF91CF9108950F93CB
:104460001F93CF93DF93FC018181082F017010E02F
:1044700083E0000F111F8A95E1F782818170C82FB8
:1044800030E0D32F94E0CC0FDD1F9A95E1F7C02BDD
:1044900080818770C82B8381A82FA170B0E025E0B0
:1044A000AA0FBB1F2A95E1F7AC2B8481282F21701E
:1044B00046E0220F331F4A95E1F72A2BDB012C93AC
:1044C000A18530E4A39FD0011124258121702A2BDE
:1044D0008681482F417050E0440F551F422B978131
:1044E000937084E0989F90011124242B9085937001
:1044F000A0E19A9FC0011124822BFB018183DF91EF
:10450000CF911F910F910895EF92FF920F931F93F8
:10451000CF93DF9300D000D0CDB7DEB78C017B0105
:10452000BE016F5F7F4F0E948B21B701C80140968B
:104530000E942F228981813039F4D8015A968C91BA
:10454000F701828383E001C082E09A81923089F48E
:10455000F701E80FF11DD8015B969C915B97908362
:1045600091E0980FF701E90FF11D8E5F5C969C9129
:1045700090839B81292F30E0980F892F492F421B70
:104580002115310559F021503109F801E20FF31FCF
:104590008081F701E40FF11D8083EFCF9C81923081
:1045A00089F4F701E80FF11DD8015D969C915D97A4
:1045B000908391E0980FF701E90FF11D8E5F5E96F1
:1045C0009C9190839D81292F30E0890F982F921B19
:1045D0002115310559F021503109F801E20FF31F7F
:1045E0004085F701E90FF11D4083F0CF90E026965A
:1045F0000FB6F894DEBF0FBECDBFDF91CF911F91F4
:104600000F91FF90EF900895DC01FB019C911196B2
:104610008C91292F2770208393FB222720F9218357
:1046200094FB222720F9228395FB222720F923835C
:1046300096FB992790F99483982F9170958381FB2D
:10464000992790F99683982F9695969593709783CE
:10465000982F929593709087829586958695837012
:1046600081870895AF92BF92CF92DF92EF92FF922F
:104670000F931F93CF93DF93CDB7DEB72E970FB66F
:10468000F894DEBF0FBECDBF623071050CF4CCC014
:104690008A015B016C01BE016F5F7F4F0E940423A2
:1046A0008AE0FE013196D801509601900D928A95CC
:1046B000E1F78E81882329F0760182E0E80EF11C73
:1046C00008C0F6018281F801828F7601F3E0EF0ED7
:1046D000F11CAE01455F5F4FBE01635F7F4FCE01AE
:1046E00001960E940A2128852223B1F18B859C85A1
:1046F000892B79F0F7013081818190E0982F88270C
:10470000830F911DF801948F838FF2E0EF0EF11C5F
:1047100003C0F801148E138E223089F467EB74E025
:10472000C8010E94FD1AF7018181F8018083F70119
:104730008081F8018183F2E0EF0EF11C15C0233077
:1047400099F4C7010896FC01D80122912D93EE152A
:10475000FF05D9F77C0108C067EB74E0C8010E942F
:10476000FD1AF801148E138E8A85882309F443C03C
:104770002D853E85232BB1F0F7019081218130E01A
:10478000322F2227290F311DF801368F258FF2E0B5
:10479000EF0EF11C4B855C85452B49F4F801348FF5
:1047A000238F05C0F801238D348D368F258F8230FD
:1047B00091F467EB74E0C80108960E94FD1AF701B6
:1047C0008181F8018087F7018081F8018187F2E01B
:1047D000EF0EF11C19C08330B9F488E0E80EF11C2B
:1047E000D701F8013896C80140962E912193E81719
:1047F000F907D9F709C067EB74E0C80108960E9471
:10480000FD1AF801168E158E97012C193D09C50168
:10481000821B930BF80194AB83ABF2AAE1AAA21618
:10482000B30614F0C90102C080E090E02E960FB6E6
:10483000F894DEBF0FBECDBFDF91CF911F910F91D6
:10484000FF90EF90DF90CF90BF90AF9008952F92A0
:104850003F924F925F926F927F928F929F92AF9210
:10486000BF92CF92DF92EF92FF920F931F93CF935D
:10487000DF93CDB7DEB763970FB6F894DEBF0FBEF8
:10488000CDBF6C014B012A01FC0117821682838186
:1048900081FF43C3AE014F5F5F4F3A01F601938141
:1048A000F40193FD859193FF81914F01882309F4D1
:1048B00030C3853239F493FD859193FF81914F0187
:1048C000853239F4B60190E00E94C92B52012501CE
:1048D000E5CF10E0F12C20E02032A0F48B3269F01B
:1048E00030F4803259F0833269F420612CC08D326B
:1048F00039F0803339F4216026C02260246023C05F
:10490000286021C027FD27C030ED380F3A3078F4F9
:1049100026FF06C0FAE01F9F300D1124132F13C08D
:104920004AE0F49E300D1124F32E20620CC08E322A
:1049300021F426FDEEC2206406C08C3611F42068F6
:1049400002C0883641F4F40193FD859193FF819173
:104950004F018111C1CF9BEB980F933018F4206168
:10496000805E06C09BE9980F933008F071C12F7EDE
:1049700026FF16E02F73322E853619F42064322E6E
:1049800008C0863621F4F22FF0683F2E02C01111C4
:10499000115037FE07C01C3350F4EE24E394E10EAF
:1049A00027E00BC0183038F027E017E005C027E0FB
:1049B0004CE3E42E02C0212FE12C520144E0A40E6E
:1049C000B11CF20160817181828193810E2DA3015E
:1049D0000E949D2A2C01098100FF02C003FF07C02D
:1049E00031FC08C032FE09C030E2232E07C02DE2A0
:1049F000222E04C09BE2292E01C0212C802F8C7016
:104A000019F0211068C2A8C237FE0FC0E40C04FFE1
:104A100004C08A81813309F4EA941E1474F5F8E025
:104A2000FE1578F588E0E82E2CC036FC2AC0812FD0
:104A300090E0841595059CF02CEF42162FEF52065E
:104A400074F0432D4068342E0AC0E2E0F0E0EC0F31
:104A5000FD1FE10FF11D8081803319F411501111F8
:104A6000F4CF37FE0EC0EE24E394E10E812F90E0E8
:104A7000481659062CF4141904C0EE24E39401C01E
:104A800010E037FE06C01414150434F4C201019678
:104A900005C085E090E002C081E090E02110019621
:104AA000112331F0212F30E02F5F3F4F820F931FF2
:104AB0002F2D30E08217930714F4F81A01C0F12C5F
:104AC000832D897049F4FF2039F0B60180E290E02F
:104AD0000E94C92BFA94F7CF222029F0B601822D2B
:104AE00090E00E94C92B33FC09C0FF2039F0B601C9
:104AF00080E390E00E94C92BFA94F7CF37FE5AC0AA
:104B0000942D852D57FE02C090E080E0292E382E8E
:104B100020E030E0A2014E1951095D874C87A201C7
:104B2000421953095F874E87612F70E0442755274C
:104B3000461B570B598B488B5FEF2516350649F4FA
:104B4000B6018EE290E02A8B3B8B0E94C92B3B89F9
:104B50002A89421453046CF04C855D854215530537
:104B600044F4EE85FF85E20FF31FE60DF71D81810A
:104B700001C080E351E0251A31082F5F3F4F48897B
:104B80005989241635064CF0B60190E02A8B3B8BF0
:104B90000E94C92B2A893B89CFCF2414350439F4CC
:104BA0009A81963318F4953311F404FF81E3B6012A
:104BB00090E04BC08A81813309F00F7EB60190E00E
:104BC0000E94C92B111105C034FC18C085E690E085
:104BD00017C0B6018EE290E00E94C92B82E0EE245D
:104BE000E394E80EF301E80FF11D8081B60190E037
:104BF0000E94C92B11508E2D91F7E6CF85E490E0ED
:104C0000B6010E94C92B57FC05C04114510439F468
:104C100004FF05C05194419451088DE201C08BE21C
:104C2000B60190E00E94C92B80E39AE04916510436
:104C30002CF08F5F5AE0451A5108F7CFB60190E08B
:104C40000E94C92BB601C201C0960E94C92B57C150
:104C5000833631F0833779F0833509F058C021C0AD
:104C60005201E2E0AE0EB11CF2018081898301E0C5
:104C700010E0230114C05201F2E0AF0EB11CF201AA
:104C80004080518026FF03C0612F70E002C06FEFAB
:104C90007FEFC2012A8B0E94A42B8C012A892F77D7
:104CA00015C05201F2E0AF0EB11CF20140805180FC
:104CB00026FF03C0612F70E002C06FEF7FEFC201DB
:104CC0002A8B0E94752B8C012A892068322E23FDA5
:104CD0001AC08F2D90E008171907A8F4B60180E2DA
:104CE00090E00E94C92BFA94F4CFF20137FC859131
:104CF00037FE81912F01B60190E00E94C92BF1107F
:104D0000FA94015011090115110579F7F8C084369C
:104D100011F0893659F5520127FF09C0F4E0AF0EB2
:104D2000B11CF20160817181828193810AC0F2E03D
:104D3000AF0EB11CF20160817181072E000C880B4F
:104D4000990B2F76322E97FF09C09095809570951C
:104D500061957F4F8F4F9F4F2068322E2AE030E0C1
:104D6000A3010E94A32CE82EE6183FC0022F85372E
:104D700021F40F7E2AE030E01DC0097F8F3691F0CC
:104D800018F4883559F0C5C0803719F0883711F00C
:104D9000C0C0006104FF09C0046007C024FF08C050
:104DA000066006C028E030E005C020E130E002C027
:104DB00020E132E0520107FF09C0F4E0AF0EB11C60
:104DC000F201608171818281938108C0F2E0AF0EAF
:104DD000B11CF2016081718180E090E0A3010E942A
:104DE000A32CE82EE6180F77302E36FE0BC0332D9D
:104DF0003E7FE11650F434FE0AC032FC08C0332D69
:104E00003E7E05C00E2D332D03C00E2D01C0012F97
:104E100034FF0CC0FE01EE0DF11D8081803311F4D2
:104E2000397E08C032FF05C00E5F04C0832F86782C
:104E300009F00F5F33FD13C030FF06C01E2D0F15A4
:104E400018F41F0D101B0F2D0F1568F4B60180E22A
:104E500090E03B8B0E94C92B0F5F3B89F5CF0F156C
:104E600010F4F01A01C0F12C34FF12C0B60180E337
:104E700090E03B8B0E94C92B3B8932FF17C031FD6C
:104E800003C088E790E002C088E590E0B6010CC05E
:104E9000832F867859F031FF02C08BE201C080E297
:104EA00037FD8DE2B60190E00E94C92BE11638F47F
:104EB000B60180E390E00E94C92B1150F7CFEA942D
:104EC000F301EE0DF11D8081B60190E00E94C92B27
:104ED000E110F5CF14C0F4E0FF1558F584E0F81A9E
:104EE00033FE1EC0211026C003FF2AC006E912E0CF
:104EF000F32DF0713F2EF8018491811124C0FF2021
:104F000009F4E5CCB60180E290E00E94C92BFA9446
:104F1000F6CFF6018681978126C08FEF9FEF23C0E1
:104F2000B60180E290E00E94C92BFA94F110F8CF0C
:104F3000D9CFF12CB601822D90E00E94C92BD4CF9D
:104F40000AE912E0D5CF31108052B60190E00E94FC
:104F5000C92B0F5F1F4FCFCF23E02F1510F483E035
:104F6000BECFF12CC1CF63960FB6F894DEBF0FBE53
:104F7000CDBFDF91CF911F910F91FF90EF90DF9008
:104F8000CF90BF90AF909F908F907F906F905F90E9
:104F90004F903F902F9008955058BB27AA270E940A
:104FA000E4270C945E290E94502938F00E9457296A
:104FB00020F039F49F3F19F426F40C944D290EF497
:104FC000E095E7FB0C944729E92F0E946F2958F3DD
:104FD000BA17620773078407950720F079F4A6F5DE
:104FE0000C9491290EF4E0950B2EBA2FA02D0B01F5
:104FF000B90190010C01CA01A0011124FF27591B1E
:1050000099F0593F50F4503E68F11A16F040A22F23
:10501000232F342F4427585FF3CF46953795279594
:10502000A795F0405395C9F77EF41F16BA0B620B93
:10503000730B840BBAF09150A1F0FF0FBB1F661FDA
:10504000771F881FC2F70EC0BA0F621F731F841F1D
:1050500048F4879577956795B795F7959E3F08F043
:10506000B0CF9395880F08F09927EE0F9795879505
:1050700008950E94232908F481E008950E9452288F
:105080000C945E290E94572958F00E94502940F044
:1050900029F45F3F29F00C94472951110C9492296F
:1050A0000C944D290E946F2968F39923B1F355237D
:1050B00091F3951B550BBB27AA276217730784072B
:1050C00038F09F5F5F4F220F331F441FAA1FA9F3C1
:1050D00035D00E2E3AF0E0E832D091505040E695AF
:1050E000001CCAF72BD0FE2F29D0660F771F881F10
:1050F000BB1F261737074807AB07B0E809F0BB0B03
:10510000802DBF01FF2793585F4F3AF09E3F510516
:1051100078F00C9447290C9492295F3FE4F3983E71
:10512000D4F3869577956795B795F7959F5FC9F7FF
:10513000880F911D9695879597F90895E1E0660F80
:10514000771F881FBB1F621773078407BA0720F0F9
:10515000621B730B840BBA0BEE1F88F7E095089562
:105160000E94B7286894B1110C94922908950E9466
:10517000772988F09F5798F0B92F9927B751B0F049
:10518000E1F0660F771F881F991F1AF0BA95C9F7CB
:1051900014C0B13091F00E949129B1E008950C94AF
:1051A0009129672F782F8827B85F39F0B93FCCF362
:1051B000869577956795B395D9F73EF49095809548
:1051C000709561957F4F8F4F9F4F0895E89409C068
:1051D00097FB3EF490958095709561957F4F8F4F2A
:1051E0009F4F9923A9F0F92F96E9BB279395F69540
:1051F000879577956795B795F111F8CFFAF4BB0FBE
:1052000011F460FF1BC06F5F7F4F8F4F9F4F16C021
:10521000882311F096E911C0772321F09EE8872FAB
:10522000762F05C0662371F096E8862F70E060E067
:105230002AF09A95660F771F881FDAF7880F9695E0
:10524000879597F90895990F0008550FAA0BE0E884
:10525000FEEF16161706E807F907C0F01216130638
:10526000E407F50798F0621B730B840B950B39F478
:105270000A2661F0232B242B252B21F408950A26DE
:1052800009F4A140A6958FEF811D811D089597F91E
:105290009F6780E870E060E008959FEF80EC0895DC
:1052A00000240A9416161706180609060895002405
:1052B0000A9412161306140605060895092E03947F
:1052C000000C11F4882352F0BB0F40F4BF2B11F4F3
:1052D00060FF04C06F5F7F4F8F4F9F4F089557FD52
:1052E0009058440F551F59F05F3F71F04795880F54
:1052F00097FB991F61F09F3F79F0879508951216EB
:1053000013061406551FF2CF4695F1DF08C0161696
:1053100017061806991FF1CF869571056105089447
:105320000895E894BB2766277727CB0197F908955E
:105330000E94AB290C945E290E94502938F00E94EB
:10534000572920F0952311F00C9447290C944D29EE
:1053500011240C9492290E946F2970F3959FC1F338
:10536000950F50E0551F629FF001729FBB27F00D13
:10537000B11D639FAA27F00DB11DAA1F649F662768
:10538000B00DA11D661F829F2227B00DA11D621FB7
:10539000739FB00DA11D621F839FA00D611D221F71
:1053A000749F3327A00D611D231F849F600D211D55
:1053B000822F762F6A2F11249F5750409AF0F1F0D8
:1053C00088234AF0EE0FFF1FBB1F661F771F881F41
:1053D00091505040A9F79E3F510580F00C94472909
:1053E0000C9492295F3FE4F3983ED4F38695779529
:1053F0006795B795F795E7959F5FC1F7FE2B880FE7
:10540000911D9695879597F90895AA1BBB1B51E1AD
:1054100007C0AA1FBB1FA617B70710F0A61BB70B24
:10542000881F991F5A95A9F780959095BC01CD01C9
:105430000895A1E21A2EAA1BBB1BFD010DC0AA1FD5
:10544000BB1FEE1FFF1FA217B307E407F50720F0ED
:10545000A21BB30BE40BF50B661F771F881F991F68
:105460001A9469F760957095809590959B01AC01B1
:10547000BD01CF010895EE0FFF1F881F8BBF07905E
:10548000F691E02D19948F929F92AF92BF92CF9296
:10549000DF92EF92FF92CF93DF93EC0168817981E5
:1054A0008A819B81611571058105910521F464E272
:1054B00079ED8BE597E02DE133EF41E050E00E947C
:1054C0003C2D49015A019B01AC01A7EAB1E40E94BD
:1054D0005B2D6B017C01ACEEB4EFA50194010E9441
:1054E000692DDC01CB018C0D9D1DAE1DBF1DB7FFCD
:1054F00003C00197A109B04888839983AA83BB831D
:105500009F77DF91CF91FF90EF90DF90CF90BF908A
:10551000AF909F908F9008950C94432A80E092E082
:105520000C94432AA0E0B0E0809300029093010223
:10553000A0930202B09303020895283008F027E0F8
:105540003327DA01990F311D87FD916000966105BF
:10555000710539F432602E5F3D9330E32A95E1F70F
:1055600008959F3F30F080387105610509F03C5F78
:105570003C5F3D93913008F08068911DDF93CF939D
:105580001F930F93FF92EF92192F987F9695E92F13
:1055900096959695E90FFF27E850FD4F99273327F9
:1055A000EE24FF24A701E70105900894079428F44E
:1055B000360FE71EF81E491F511D660F771F881F03
:1055C000991F0694A1F70590079428F4E70EF81E9A
:1055D000491F561FC11D770F881F991F661F06940C
:1055E000A1F70590079428F4F80E491F561FC71F0E
:1055F000D11D880F991F661F771F0694A1F705908C
:10560000079420F4490F561FC71FD81F990F661F14
:10561000771F881F0694A9F784911095177041F0A1
:10562000D695C79557954795F794E7941A95C1F77E
:10563000EEE9F2E068941590159135916591959198
:1056400005907FE27395E118F10A430B560BC90BE5
:10565000D009C0F7E10CF11E431F561FC91FD01D12
:105660007EF4703311F48A95E6CFE894015030F05F
:10567000080F0AF40027021708F4202F2395022FA1
:105680007A3328F079E37D932A95E9F710C07D936A
:105690002A9589F6069497956795379517951794E7
:1056A000E118F10A430B560BC90BD00998F023956A
:1056B0007E9173957A3308F070E37C932013B8F7EA
:1056C0007E9170617D9330F0839571E37D9370E3FB
:1056D0002A95E1F71124EF90FF900F911F91CF9140
:1056E000DF91992787FD90950895FC010590615001
:1056F00070400110D8F7809590958E0F9F1F0895E8
:10570000FB01DC0104C08D910190801921F441500E
:105710005040C8F7881B990B0895FB01DC0102C0BB
:1057200001900D9241505040D8F70895DC0101C01E
:105730006D9341505040E0F70895FB01DC0101906A
:105740000D920020E1F70895FC0161507040019036
:105750000110D8F7809590958E0F9F1F0895FB013B
:1057600051915523A9F0BF01DC014D91451741111D
:10577000E1F759F4CD010190002049F04D91401519
:105780004111C9F3FB014111EFCF81E090E0019796
:1057900008950F931F93CF93DF93FB01238121FD86
:1057A00003C08FEF9FEF28C022FF16C046815781AC
:1057B000248135814217530744F4A081B1819D01B2
:1057C0002F5F3F4F318320838C93268137812F5F5A
:1057D0003F4F3783268310C0EB01092F182F008419
:1057E000F185E02D1995892BE1F68E819F81019637
:1057F0009F838E83812F902FDF91CF911F910F91E7
:105800000895CF93DF93CDB7DEB7AE014A5F5F4F08
:10581000FA0161917191AF018091DE159091DF15D0
:105820000E942724DF91CF9108950F931F93CF9368
:10583000DF93CDB7DEB7AE01485F5F4FDA016D9100
:105840007D91AD010CED15E1F80182819381DC01C0
:1058500013962C911397286013962C930E9427245B
:10586000D8011296ED91FC9113972381277F238312
:10587000DF91CF911F910F9108956091DE15709186
:10588000DF150C94C92B0F931F93CF93DF93E091F7
:10589000DE15F091DF15238121FF1BC08C01D0E0C4
:1058A000C0E0F80181918F016091DE157091DF15E4
:1058B000DB011896ED91FC911997882331F0199529
:1058C000892B79F3DFEFCFEFECCF8AE01995892BA5
:1058D00019F08FEF9FEF02C08D2F9C2FDF91CF919A
:1058E0001F910F9108950F931F93CF93DF93CDB71F
:1058F000DEB72E970FB6F894DEBF0FBECDBF0E8970
:105900001F8986E08C831A8309838FEF9FE79E832C
:105910008D83AE01465E5F4F688D798DCE01019615
:105920000E9427242F813885F801E20FF31F10828F
:105930002E960FB6F894DEBF0FBECDBFDF91CF918C
:105940001F910F910895FA01AA27283051F12031B3
:1059500081F1E8946F936E7F6E5F7F4F8F4F9F4F03
:10596000AF4FB1E03ED0B4E03CD0670F781F891F45
:105970009A1FA11D680F791F8A1F911DA11D6A0F13
:10598000711D811D911DA11D20D009F468943F91C6
:105990002AE0269F11243019305D3193DEF6CF01C5
:1059A0000895462F4770405D4193B3E00FD0C9F78B
:1059B000F6CF462F4F70405D4A3318F0495D31FDF8
:1059C0004052419302D0A9F7EACFB4E0A69597954B
:1059D000879577956795BA95C9F700976105710521
:1059E00008959B01AC010A2E06945795479537956B
:1059F0002795BA95C9F7620F731F841F951FA01DC5
:105A00000895DC01CB01FC01F999FECF06C0F2BD7F
:105A1000E1BDF89A319600B40D9241505040B8F76C
:105A20000895F999FECF92BD81BDF89A992780B566
:105A30000895A8E1B0E042E050E00C94032DDC01B1
:105A4000CB0103C02D910E942A2D41505040D0F728
:105A50000895262FF999FECF1FBA92BD81BD20BDB2
:105A60000FB6F894FA9AF99A0FBE019608950E941B
:105A7000292D272F0C942A2D052E97FB1EF4009418
:105A80000E94532D57FD07D00E94192A07FC03D00E
:105A90004EF40C94532D50954095309521953F4FE1
:105AA0004F4F5F4F089590958095709561957F4F0A
:105AB0008F4F9F4F08950E946E2DA59F900DB49F0C
:105AC000900DA49F800D911D11240895B7FF0C9493
:105AD0005B2D0E945B2D821B930B0895A29FB0014A
