:020000040020DA
:10200000804200208D222000AF052100AD05210077
:10201000AD052100AD052100AD0521000000000047
:10202000000000000000000000000000AD052100DD
:10203000AD05210000000000AD0521006107210071
:1020400083072100890721008F07210095072100C0
:1020500000000000670721006D072100AD05210089
:10206000AD0521000000000000000000000000009D
:102070000000000000000000AD052100000000008D
:102080000000000000000000AD052100AD052100AA
:10209000AD052100AD052100AD052100AD052100F4
:1020A000AD052100AD052100AD052100AD052100E4
:1020B000AD052100AD052100AD052100AD052100D4
:1020C000AD052100AD052100AD052100AD052100C4
:1020D000AD0521000000000000000000000000002D
:1020E00000000000000000000000000000000000F0
:1020F00000000000000000008D5520009D552000CC
:1021000000000000000000000000000000000000CF
:1021100000000000000000000000000000000000BF
:1021200000000000000000000000000000000000AF
:10213000000000000000000000000000000000009F
:10214000000000000000000000000000000000008F
:10215000000000000000000000000000000000007F
:10216000000000000000000000000000000000006F
:10217000000000000000000000000000000000005F
:10218000000000000000000000000000000000004F
:10219000000000000000000000000000000000003F
:1021A000000000000000000000000000000000002F
:1021B000000000000000000000000000000000001F
:1021C000000000000000000000000000000000000F
:1021D00000000000000000000000000000000000FF
:1021E00000000000000000000000000000000000EF
:1021F00000000000000000000000000000000000DF
:1022000000000000000000000000000000000000CE
:1022100000000000000000000000000000000000BE
:1022200000000000000000000000000000000000AE
:10223000000000000000000000000000000000009E
:10224000000000000000000000000000000000008E
:10225000000000000000000000000000000000007E
:10226000000000000000000000000000000000006E
:10227000AD0521007554200099542000B14620007E
:102280000D57200059412000AD05210008B5094B2C
:10229000FF221A600848094A4824E369121A0849CB
:1022A00098470848084AA369121A0021984701F084
:1022B00039FCFEE7B4200D4040000020FD06002060
:1022C000D43B2100000700207F3A002010B50446CF
:1022D000436E9847034BE06E00221978BDE810402A
:1022E00004F0D8BE6A3A00202DE9F04F0C4685B0C4
:1022F00017461E46002B00F0698191F8B0341BB1DF
:1023000001F595600EF069F994F8B1346BB93B783A
:10231000012E84F8B134D4F8AC3403F10103C4F8CD
:10232000AC3400F05381012500E0002594F8B73467
:102330005BBB7819AE4240F24981D4F8AC3494F8D2
:10234000B82401330132052B10F8011B05F10105FA
:10235000C4F8AC3484F8B82405D900228021204682
:10236000FFF7B4FF32E194F8B634B4F8B2E401F008
:102370007F0202FB03E2DB0184F8B6340B06A4F80B
:10238000B224D7D4012384F8B734B4F8B224B2F518
:10239000007F05D994F8B13403F0F003302B04D159
:1023A0004FF001084FF000092FE0D4F8AC340132AF
:1023B0001E449642C4F8AC64C0F0088103E102F008
:1023C000F002302A2BD094F8B904731BC0F5007AC0
:1023D0009A4528BF9A4620445246791900F2BA40DD
:1023E0000DF04AFAD4F8AC3494F8B924534452446A
:1023F00084F8B924C4F8AC3455440022D1B28A45DB
:1024000002F10102FAD8AE4261D9B4F8B224D4F88C
:10241000AC340132934294F8B124D0D35DE094F807
:10242000BF26002ACFD194F8BE269AB97A5D691CDE
:102430001202581CB142A4F8BA26C4F8AC0444D223
:10244000795C02330A430235A4F8BA26C4F8AC34E6
:1024500084F8BE86B4F8BEA6BAF1010FB3D1B4F8C1
:10246000BC06B4F8BA26C5EB060B121A934528BF72
:10247000934620441FFA8BF31A46791900F2C46080
:1024800001930DF0F9F9D4F8AC24019BB4F8BA1615
:102490001D441344B4F8BC26C4F8AC345A4492B278
:1024A0009142A4F8BC260DD1631884F8BFA683F826
:1024B000C496B4F8B234023B5B1A9BB2A4F810374E
:1024C000A4F8123784F80E877DE70D467BE7B4F851
:1024D000B2240132934298D278E002F0F003502BFC
:1024E0006CD006D8302B38D0402B45D0202B6AD169
:1024F00019E0702B62D002D8602B5FD063E0902B84
:102500004FF0010247D0B02B5DD184F8992294F8A6
:10251000BB3494F8BA24032143EA0223A4F8B43468
:1025200004F2B4424CE094F8BB342BB104F2BB4249
:1025300082212046FFF7CAFEE18A012384F89932FE
:10254000244A2346C90104F1180004F0A3FB082320
:10255000002284F86030114632E004F2BA43C4F835
:10256000083794F8B9342046A4F80C370023A4F8AF
:1025700012370EF03CF826E0012394F8BA2484F8D0
:10258000993294F8BB34052143EA0223A4F8B43409
:1025900004F2B44214E084F8992294F8BB3494F81D
:1025A000BA24022143EA022394F8BC24ADF80C308B
:1025B0008DF80E20A4F8B43403AA01E0002284218F
:1025C0002046FFF783FE012384F8B034002005B0D5
:1025D000BDE8F08FD925200010B590F838308BB1C8
:1025E00000F22C74022380F8603020460EF0BBFD10
:1025F000204608F0F5FA2046BDE8104034220021BC
:102600000DF014BA034B0246BDE810401978024899
:1026100004F040BD842300206804002030B5044647
:102620000523002580F86030012385B0A0F86830CC
:10263000A0F89C5280F8385000F595600DF0CDFF61
:102640000E4B84F8745203930D4B04F22C750293D5
:1026500004F174024FF400730092214604F2A622A2
:102660000193284608F042FA2846B4F8282704F5D2
:10267000E36105B0BDE8304008F06EBA8526200061
:10268000E922200013B50C468DF80720042A3BD818
:10269000DFE802F0200303032D001C4B0A461C4810
:1026A000197804F0F7FC032384F8603004F1180073
:1026B00004F032FB0DF1070201212046FFF706FE70
:1026C00020460DF0ACFF637D012B1DD12046FFF7A6
:1026D000A5FF19E0062381F86030012381F87432E8
:1026E0000C4B0A460A48197804F0D4FC0CE0B1F807
:1026F0004E372BB9012381F8743201F174030B6753
:1027000004F1180004F0ECFA02B010BD8C23002094
:10271000680400208723002038B51D4C2578002D43
:1027200034D104F045FC1B4B18701B4B187004F09F
:102730003FFC1A4B187004F03BFC194B187004F066
:1027400037FC184B187004F033FC174B187004F06A
:102750002FFC164B187004F02BFC154B187004F06E
:1027600027FC144B187004F023FC134B1870134B08
:10277000187004F01DFC124B187012480EF04AFB42
:102780002946114804F0AEFC0123237038BD00BF78
:102790008A2300208F230020852300208723002008
:1027A0008B2300208D2300208E23002088230020EF
:1027B000842300206A3A00208C23002086230020F6
:1027C000892300201407002068040020F8B51F4664
:1027D000137804460E46154633B34FF4EC620021DD
:1027E0000DF024F9294604F10C000DF07FFFBDF82F
:1027F0001820012300256375A4F8A422A4F86830EA
:1028000004F595606766E666A4F89C5284F8385033
:102810000DF0E3FE84F87452FFF77EFF2146034873
:102820000EF018FB2846F8BD8220F8BD14070020E2
:102830007FB50446084694F8601003291DD8E3824A
:1028400004F174032367002384F89932237DA4F8EC
:10285000282743F0020323756946C4F8140704F5DA
:10286000E3660EF08CFC9DE80F0086E80F00044B39
:1028700022461978034804F00DFC002004B070BD16
:102880008F2300206804002090F860300246082B57
:1028900007D1092380F86030024B0348197804F00F
:1028A000F9BB70478B230020680400202DE9F34119
:1028B0008DF8071040F2A741038806468B42154663
:1028C00000F02A83B3F5956F0CD240F282418B421F
:1028D0001ED040F299418B4200F00983002B40F05A
:1028E000AF8069E040F2C6418B4200F00D8405D80C
:1028F00040F2B9418B4200F09283A1E040F2D34113
:102900008B4200F06A85B3F59C6F00F0898697E0F2
:10291000BF4B9DF807201B789A4207D1BD4B284634
:102920001D600A2385F860300DF079FEBA4B9DF8E2
:1029300007201B789A4204D1B64B28461D60FFF74A
:102940006DFEB64B9DF807201B789A4237D0B44AEB
:102950009DF807301178994206D1AE4B1D6095F86D
:102960006030092B00F0E982AE4B9DF807201B7800
:102970009A4200F04483AC4B9DF807201B789A42A2
:1029800000F0B283A94B9DF807201B789A4206D12C
:10299000A04B1D6095F87432012B00F01585A44BF7
:1029A0009DF807201B789A4206D19A4B1D6095F836
:1029B0007432012B00F01F8640F282433CE0954BBD
:1029C0001D60B5F8A432A5F8543795F87432012B80
:1029D000BDD10023A5F89C328E4F3C68B4F89C32E0
:1029E000B3F5D17F00F08B8157D8B3F5CD7F00F0E0
:1029F0000A8132D840F29712934200F0D980B3F5A1
:102A0000CC7F22D2002B00F08E80B3F5CA7F40F03D
:102A10006A8294F87432002B40F0B3803B6893F8DC
:102A200060300A2B93D0834B00221978824B1868B0
:102A300004F030FB40F299433380012000F031BFB5
:102A400000233380032000F02CBF00F0BF8040F251
:102A50009912934200F0C88045E240F29D129342E1
:102A600000F01481B3F5CF7F09D240F29B1293425C
:102A700000F0EF80B3F5CE7F00F0F98033E240F252
:102A80009F12934200F01E81B3F5CF7F40F20C817C
:102A9000B3F5D07F00F0248125E240F2B3129342D7
:102AA00000F0A281B3F5DA7F20D240F2A712934260
:102AB00000F05A81B3F5D47F09D2B3F5D27F00F08C
:102AC000348140F2A512934200F03E810BE240F2C5
:102AD000A912934200F06581B3F5D47F40F2528190
:102AE00040F2AB12934200F06D81FCE1B3F5DD7F63
:102AF00000F0BC8109D8B3F5DA7F00F0848140F2A0
:102B0000B712934200F09081EDE1B3F5DF7F00F062
:102B1000CD81B3F5E57F00F0CE8140F2BB12934248
:102B200040F0E181B1E1228A102384F8783202B1C9
:102B3000023202F10C03B4F8542002B10232134401
:102B4000B4F85C2002B102321344B4F8402002B160
:102B500002321344B4F8482002B102321A44C4F8D5
:102B60007C2204F5217104F520700DF023FD94F80A
:102B70008432042B05D9002281212046FFF7A6FBD1
:102B8000B1E194F8781220460DF079FD20B14FF4B0
:102B9000CA73A4F89C323CE794F8842204F52071AF
:102BA00020460DF07CFD40B140F29713A4F89C3212
:102BB00094F87432002BEFD130E7002120460DF05D
:102BC0005EFD40B14FF4CC73A4F89C3294F874329B
:102BD000002BF2D122E7062120460DF050FD40B136
:102BE00040F29913A4F89C3294F87432002BF2D17D
:102BF00014E70622114920460DF051FD00B34FF4B1
:102C0000CD73A4F89C3294F87432002BF1D105E70F
:102C10008C230020100700208F2300208723002012
:102C20008B230020842300208D2300208E2300206E
:102C30008823002089230020880800204C292100B7
:102C4000032120460DF01BFD40B140F29B13A4F878
:102C50009C3294F87432002BF2D1DFE6217D2046BD
:102C60000DF00DFD40B14FF4CE73A4F89C3294F8F2
:102C70007432002BF2D1D1E6E18A2046090A0DF028
:102C8000FEFC40B140F29D13A4F89C3294F87432DB
:102C9000002BF1D1C2E6A17D20460DF0F0FC40B141
:102CA0004FF4CF73A4F89C3294F87432002BF2D115
:102CB000B4E6002120460DF0E2FC40B140F29F1343
:102CC000A4F89C3294F87432002BF2D1A6E6217C51
:102CD00020460DF0D4FC40B14FF4D073A4F89C32E0
:102CE00094F87432002BF2D198E6228AE1682046EB
:102CF0000DF0D5FC40B14FF4D173A4F89C3294F898
:102D00007432002BF1D189E6237D5A0704D494F95B
:102D10001430002B5BDA5EE0002120460DF0AFFCA2
:102D200040B14FF4D273A4F89C3294F87432002B63
:102D3000F2D173E694F8401020460DF0A0FC40B1AB
:102D400040F2A513A4F89C3294F87432002BF1D110
:102D500064E6B4F84020E16B20460DF0A0FC40B1E1
:102D600040F2A713A4F89C3294F87432002BF0D1EF
:102D700054E6002120460DF082FC40B14FF4D4739C
:102D8000A4F89C3294F87432002BF2D146E694F801
:102D9000481020460DF073FC40B140F2A913A4F88E
:102DA0009C3294F87432002BF1D137E6B4F8482005
:102DB000616C20460DF073FC0028A8D040F2AB13E4
:102DC000A4F89C3294F87432002BEFD126E6237DD0
:102DD0005B0642D42DE0002120460DF050FC40B1AE
:102DE00040F2B313A4F89C3294F87432002BF2D161
:102DF00014E694F8541020460DF041FC40B14FF415
:102E0000DA73A4F89C3294F87432002BF1D105E601
:102E1000B4F85420216D20460DF041FC0028D6D096
:102E200040F2B713A4F89C3294F87432002BEFD11F
:102E3000F4E520460DF012FC072384F860304FF4CF
:102E4000A061201D0DF0A9FF04F595600DF0C5FBF4
:102E50004FF4E573A4F89C322DE0002120460DF0DC
:102E60000EFC40B14FF4DD73A4F89C3294F8743238
:102E7000002BF2D1D2E594F85C1020460DF0FFFB58
:102E800040B140F2BB13A4F89C3294F87432002B8A
:102E9000F1D1C3E5B4F85C20A16D20460DF0FFFB35
:102EA0000028C6D04FF4DF73A4F89C3294F8743233
:102EB000002BEFD1B2E594F8993204F10408012B0C
:102EC00007D140460DF07BFF48B12046FFF7DCFC00
:102ED00005E040460DF073FF0028F2D19EE504F5B1
:102EE00095600DF07AFB0023A4F89C322FE5BB4BD4
:102EF0009DF807101B788B4214D0B94B1B788B427E
:102F00003FF66AADB74B1B788B42FFF465ADB64B0D
:102F1000186804F0BFF85FE5B04B9DF807101B7808
:102F20008B4212D1B14B0A221B68022083F8602029
:102F30000022A3F89C2200F0B4BC95F87432012B57
:102F400058D10023A5F89C3204E0A54B1B788B4296
:102F500040F2E88140F2E512A44F3C68B4F89C329C
:102F6000934212D0B3F5F37F01D22BB135E01AD0E2
:102F7000B3F5F87F28D030E0E02120460DF07FFB4C
:102F800040B140F2E513A4F89C3294F87432002B5F
:102F9000F2D1D1E1002120460DF071FB40B14FF498
:102FA000F373A4F89C3294F87432002BF2D1C3E18D
:102FB00020460DF053FB4FF48071201D0DF0EDFE07
:102FC0004FF4F873A4F89C3294F874322BB9201D96
:102FD0000DF0F5FE002800F0AF810023A4F89C322C
:102FE00038680DF01CFB0DF1070201213868FFF76E
:102FF0006DF9B9E42A467E4804F04CF8B4E47B4B02
:103000001D6095F87432012B7FF4B5AC95F86030F3
:10301000082B7FF4B0AC0023A5F89C320BE06F4B7B
:103020009DF807101B788B423FF47CAF6C4B1B78EC
:103030008B4240F2928140F2D2216C4A14681746CA
:10304000B4F89C328B4214D001D84BB148E040F226
:10305000D32293421BD040F2DE2293422FD03FE096
:10306000C02120460DF00BFB40B140F2D223A4F862
:103070009C3294F87432002BF2D178E10021204682
:103080000DF0FDFA40B140F2D323A4F89C3294F83D
:103090007432002BF2D16AE120460DF0DFFA0123F1
:1030A00084F8383004F595600DF097FA4FF4A0617C
:1030B000201D0DF072FE40F2DE23A4F89C3294F83D
:1030C000B0343BB104F595600DF087FA002384F825
:1030D000383005E0201D0DF072FE0028F2D146E1E7
:1030E0000023A4F89C3246E4404B1D6095F87432EE
:1030F000012B7FF447AC95F86030082B7FF442AC8D
:103100000023A5F89C320BE0344B9DF807101B7888
:103110008B423FF407AF324B1B788B4240F2388131
:1031200040F21622314B1C689846B4F89C729742C4
:1031300000F089800ED8B7F5047F49D001D817B3C5
:10314000EBE040F213239F4260D040F215239F42F0
:103150006AD0E2E040F21B239F4200F0A480B7F562
:10316000077F08D2B7F5067F7DD040F219239F4232
:1031700000F08880D1E000F0A58040F225239F4236
:1031800000F0B580C9E0B4F88C228223053284F8BF
:103190007832C4F87C2204F5217104F520700DF01A
:1031A00009FA94F88432042B08D93A468121204642
:1031B000FFF78CF8A4F89C72FFF7E4BB94F8781240
:1031C00020460DF05CFAA8B14FF40473A4F89C32C9
:1031D00094F87432002BF1D1E4E000BF8C2300207E
:1031E0008523002086230020880800201007002067
:1031F0006804002094F8842204F5207120460DF024
:103200004EFA40B140F21323A4F89C3294F8743281
:10321000002BEFD1C6E0002120460DF030FA40B17E
:1032200040F21523A4F89C3294F87432002BF2D1AA
:10323000B8E094F8861220460DF021FA40B140F231
:103240001623A4F89C3294F87432002BF1D1A9E033
:10325000B4F88C122046090A0DF011FA40B14FF46F
:103260000673A4F89C3294F87432002BF0D199E0E4
:1032700094F88C1220460DF002FA40B140F2192366
:10328000A4F89C3294F87432002BF1D18AE0B4F89F
:103290008C22D4F8881220460DF001FA40B140F299
:1032A0001B23A4F89C3294F87432002BEFD179E000
:1032B00094F8981220460DF0E2F940B14FF40773EC
:1032C000A4F89C3294F87432002BF1D16AE02046C5
:1032D0000DF0C4F94FF4A061201D0DF05EFD04F562
:1032E00095600DF07AF940F22523A4F89C3294F809
:1032F0009932271D012B0AD138460DF060FD04F5E7
:1033000095600DF06AF9002384F86A3005E03846CC
:103310000DF055FD0028EFD144E00023A4F89C32C5
:10332000FFF730BBB84B1B788B42FFF413AEB74BA3
:10333000186803F0AFFE0DE63B6893F860300A2B87
:103340003FF44EAEB24B00221978B04B186803F030
:10335000A1FE40F2A743FFF76FBBAB4B1B788B423C
:10336000FFF469AEA94B186803F094FE63E63B686E
:1033700093F86030082B7FF4FEAAA54B0022197841
:10338000A24B186803F086FE40F2B943FFF754BB26
:103390009D4B1B788B42FFF4C3AE9C4B186803F027
:1033A00079FEBDE6D8F8003093F86030082B7FF442
:1033B000E9AA974B00221978944B186803F06AFE2B
:1033C00040F2C643FFF738BB95F86030082B7FF416
:1033D000E6AA0023A5F89C320BE08E4B9DF807105F
:1033E0001B788B423FF49EAD8B4B1B788B4240F297
:1033F000E6808A4B1C689846B4F89C72B7F5157F36
:103400007DD011D840F24F239F424AD0B7F5147FA8
:1034100001D20FB3CEE040F251239F4252D040F28E
:1034200053239F425CD0C5E040F257239F4200F0F7
:103430008580B7F5167F04D240F256239F426ED0A6
:10344000B8E040F259239F4200F0898040F26223A5
:103450009F4200F09980ADE0B4F88C22A2230432A0
:1034600084F87832C4F87C2204F5217104F52070C8
:103470000DF0A0F894F88432042B08D93A46812143
:103480002046FEF723FFA4F89C72FFF788BA94F851
:10349000781220460DF0F3F840B140F24F23A4F823
:1034A0009C3294F87432002BF1D192E094F884228B
:1034B00004F5207120460DF0F2F840B140F251239E
:1034C000A4F89C3294F87432002BEFD181E00021F3
:1034D00020460DF0D4F840B140F25323A4F89C32BA
:1034E00094F87432002BF2D173E094F886122046DF
:1034F0000DF0C5F840B14FF41573A4F89C3294F860
:103500007432002BF1D164E0B4F88C122046090A21
:103510000DF0B5F840B140F25623A4F89C3294F86F
:103520007432002BF0D154E094F88C1220460DF048
:10353000A6F840B140F25723A4F89C3294F87432B4
:10354000002BF1D145E0B4F88C22D4F88812204643
:103550000DF0A5F840B140F25923A4F89C3294F83C
:103560007432002BEFD134E020460DF077F84FF4A1
:10357000A061201D0DF011FC04F595600DF02DF8F3
:1035800040F26223A4F89C3294F89932271D012B53
:103590000AD138460DF013FC04F595600DF01DF8C6
:1035A000002384F86A3005E038460DF008FC002856
:1035B000EFD10EE00023A4F89C32FFF7F0B9124BD4
:1035C0001B788B42FFF415AF104B186803F062FDB7
:1035D0000FE7D8F8003093F86030082B7FF4DFA9AC
:1035E0000B4B00221978094B186803F053FD40F289
:1035F000D343FFF721BA95F86030082B7FF4DCA99C
:103600000023A5F89C3217E08623002088080020BC
:10361000892300208C230020852300201007002010
:10362000A14B9DF807101B788B423FF47BAC9F4B5E
:103630001B788B4240F21A819D4D2C68B4F89C3265
:10364000B3F5267F00F0958011D840F29322934283
:103650005FD0B3F5257F01D223B302E140F295227A
:10366000934267D040F29722934273D0F9E040F240
:103670009D22934200F0AE8009D840F29A229342F4
:1036800000F08880B3F5277F00F09580E9E040F2F4
:10369000A222934200F0AF8040F2B322934200F0A6
:1036A000CA80DEE094F8982294F89A12530043F00E
:1036B0003003DBB2012984F8783204BF43F0010300
:1036C00084F87832B4F88C12D4F894320B440AB9E6
:1036D000023300E00433C4F87C32D4F87C2204F5D1
:1036E000217104F520700CF065FF94F88432042BEE
:1036F00005D9002281212046FEF7E8FDB1E094F8CB
:10370000781220460CF0BBFF40B140F29323A4F89E
:103710009C3294F87432002BF1D1B1E094F88422F9
:1037200004F5207120460CF0BAFF40B140F2952319
:10373000A4F89C3294F87432002BEFD1A0E0B4F8D6
:103740008C122046090A0CF09AFF40B140F29723F0
:10375000A4F89C3294F87432002BF0D190E094F8E5
:103760008C1220460CF08BFF40B14FF42673A4F866
:103770009C3294F87432002BF1D181E0B4F88C22A1
:10378000D4F8881220460CF08AFF40B140F29A2308
:10379000A4F89C3294F87432002BEFD170E094F8C6
:1037A0009832E3B1002120460CF069FF40B14FF49C
:1037B0002773A4F89C3294F87432002BF2D15FE0A6
:1037C00094F8861220460CF05AFF40B140F29D2337
:1037D000A4F89C3294F87432002BF1D150E0B4F884
:1037E0009422D4F8901220460CF059FF40B140F2D8
:1037F000A223A4F89C3294F87432002BEFD13FE05E
:1038000020460CF02BFF4FF4A061201D0DF0C5FAEF
:1038100094F898222AB9274BE06E197803F03AFC05
:1038200018E0012A16D104F595600CF0D6FE40F29E
:10383000B323A4F89C3294F89932271D012B03D1AD
:1038400038460DF0BCFA05E038460DF0B8FA00280D
:10385000F6D115E004F595600CF0BFFE002384F866
:103860006A300023A4F89C32FFF7A6B8124B1B78ED
:103870008B42FFF4E1AE114B186803F00BFCDBE662
:103880002B6893F86030082B7FF496A80C4B00222D
:1038900019780A4B186803F0FDFB4FF49C63FFF79F
:1038A000CBB802B0BDE8F0818C2300208523002036
:1038B000100700206A3A0020862300208808002094
:1038C0008923002070B51E4690F860300446082B0E
:1038D00020D190F86A500121F5B980F86A10B0F84B
:1038E0006810C0F88822023189B2A0F86810A0F8E8
:1038F000861210460CF0C6F9084BA4F88C0284F826
:10390000986284F8995222461978054803F0C2FB60
:10391000284670BD812070BD084670BD8D230020F3
:103920006804002070B51E4690F860300446082BED
:103930002BD190F86A5001214DBB80F86A10B0F885
:1039400068109DF81830023189B2A0F86810A0F80C
:10395000861280F89A32C0F8882210460CF092F94C
:10396000049BA4F88C02C4F894329DF81430C4F877
:10397000906284F89832074B84F89952224619785D
:10398000054803F087FB284670BD812070BD0846BE
:1039900070BD00BF88230020680400208138012802
:1039A0009ABF024B18780020704700BF9023002078
:1039B00008B501F0F7FEE721402001F083FF28B9A8
:1039C00001220449402001F0F9FF08B14FF0FF3017
:1039D00008BD00BF9123002013B5264B1B7813B9F7
:1039E0004FF0FF3043E0E3280CD0E5280AD001284F
:1039F000F6D1FFF7DDFF0028F2D11F4B1878C0F396
:103A0000801034E0C4B2E32C01D0E52CE8D101F001
:103A1000C9FE2146402001F055FF0028E0D10222D6
:103A200001A9402001F0CAFF0028D9D19DF8040067
:103A30009DF80530E32C03EB002080B220F003005A
:103A400008D144F2A4435843000CA0F592500D381D
:103A500000B20BE043F2D403584342F21073000C5F
:103A6000A0F5167000B29842A8BF184680B202B006
:103A700010BD00BF902300209123002030B5812885
:103A800085B005460C4606D0012813D0022825D063
:103A90004FF0FF303DE069B11F4B02220093114609
:103AA0000323104601F094FEFFF782FF10B91B4B71
:103AB0001C702EE004ACFE2304F8043D01F072FEFD
:103AC00021460122402001F02DFF04460028DFD1CD
:103AD00043F6982000F0DAFA20461AE021F080033D
:103AE000012BD5D80E4A137803F07E031C43E4B2B1
:103AF000E62314708DF80C308DF80D4001F052FE65
:103B00002A4603A9402001F00DFF003018BF012014
:103B1000404205B030BD00BFA086010090230020C8
:103B200091230020F7B500F05DFC00F05DFD00F092
:103B3000B3FC00F06FFA01F0D7FD0DF025F900F0AD
:103B40004BFD00F0C9F801200CF0DCFD03F03EFA5B
:103B500000F034FC002000F055FB012000F052FB87
:103B60004949002000F014FC03F074FB0CF001FE46
:103B700004200CF0C7FD45480CF0FEFE44480CF054
:103B8000FBFE00F0E9F9002003F086FB01F098FC51
:103B90000021404803F0A6FA03F046F80CF0DEFDE1
:103BA00000F0A8FD00F0C4FD08F01EFE08216846E4
:103BB00001F0BEFD9DF807309DF80670364C43EAD3
:103BC00007276B4603CB20606160344802F04AFC53
:103BD0000025615D3248013502F044FC072D2E4E70
:103BE000F7D1304DF179304802F03CFCEC6A4AF6EE
:103BF000CD310220A04739460320A0471A210120D9
:103C0000A047694608226B6B0B209847274802F0B3
:103C100029FC274B18680CF0AFFE264802F022FC66
:103C2000254B18680CF0A8FE244802F01BFC244B1E
:103C300018680CF0A1FE234A336813607368536060
:103C400008F008FF0021204803F04CFA00211F482B
:103C500003F048FA1E4B01219B68812098470DF024
:103C600069F81C480DF05CF800F0AEFB02200CF087
:103C700049FD00F0AFFB03F0C1F910F0FF0FF8D1E0
:103C800001F0C6FCF5E700BF117220006029210099
:103C90007A292100B0040020743A00209F292100D5
:103CA000BD29210074272100C3292100C929210031
:103CB000CC272100D0292100D8272100D729210095
:103CC00000282100A02D002044050020D004002061
:103CD0007C2621003C28210008B500F0DDF8024BCD
:103CE00000221A7008BD00BF92230020024A1378F8
:103CF0001843107000F0F4B892230020034A1378A0
:103D000023EA0000107000F0EBB800BF92230020FF
:103D100020B1012805D1044B18787047034B18686F
:103D200070470020704700BF9323002020900D4073
:103D300010B5094A0020137801331370074B197826
:103D400003F0A8F9BDE8104005490023054A0968B9
:103D5000054802F09FBF00BF932300206B3A00206C
:103D600040070020313D200018070020812810B5B1
:103D70000C462AD0B0F5807F39D0802839D103F0A5
:103D800017F91D4B1D4A18701368032123F008030F
:103D9000136052F8203C002023F0080342F8203C36
:103DA00052F81C3C23F0080342F81C3C52F8183C23
:103DB00043F0080342F8183C042200F023FC0322DD
:103DC00000210F4800F0C0FB13E00E4B1A6831B120
:103DD00042F008021A60002000F022FB05E022F009
:103DE00008021A60084600F029FB204610BD064B69
:103DF0001960012010BD00BF6B3A002020940D40D7
:103E00000D3E200010940D404007002008B50F48DB
:103E10000CF0D5FFC8B108210C480CF0BEFF0C4BCC
:103E2000196869B10B4B00221A700B4B1B6823B940
:103E30000A4A0B4802F02EFF02E0094802F06CFF2C
:103E4000BDE80840074803F0D3BA08BD3807002092
:103E5000400700209323002020900D40313D20009A
:103E6000180700207C262100084A136823F0040369
:103E7000136052F8203C43F0040342F8203C044B0A
:103E800000221A60034B01221A70704720C40D40B3
:103E900010C00D40942300200D4A0E49136823F0F2
:103EA000C003136052F8203C43F0C00342F8203CAA
:103EB000094B00221A600B6823F010030B6051F8C5
:103EC000203C43F0100341F8203C044B1A6070473B
:103ED00020A40D4020C40D4000A30D4040C00D4063
:103EE00000F0020202F0FF010B4B12B1FF221A6038
:103EF00000E0196000F0040202F0FF01074B12B16C
:103F0000FF221A6000E0196010F00100044B1ABF94
:103F1000FF221A601860704700A20D4000A10D40FA
:103F200040C00D40044B1868C0F30720030904BFCC
:103F30001030C0B2704700BF1C300D40054B1868F0
:103F4000C0F3C21001289ABFC0F1020040034FF431
:103F50000040704714300D402DE9F04788B0FFF75E
:103F6000E1FF174B48251C68AB68074698476B680C
:103F7000804698470546FFF7E1FF064600F0CCFA79
:103F8000814600F0D5FA824600F07CFAB60A04F0C9
:103F90000103AD0AC4F3400406900393CDF814A0C6
:103FA000CDF8109002940196009507F00F03C7F327
:103FB00007124146034802F055FA08B0BDE8F08701
:103FC0001C300D40E5292100F8B500F083F80F4BB7
:103FD0000024D3E900673A46B04238BF7A1C154640
:103FE0000443C3E90045DFF828E0DEE90001821B55
:103FF00061EB070312196B41CEE9002302F040FF89
:1040000018B1BDE8F84002F0BFBEF8BD00070020BF
:10401000080700200F4B104A1A6053F8042C42F096
:10402000050243F8042C53F8042C42F0020243F832
:10403000042C0A4A136843F001031360084B002262
:104040001A60042243F80C2C012243F8082C0F229A
:10405000DA62704714E000E047E8010008200D40F4
:104060000C000340034BD3E90023100A40EA03602D
:10407000704700BF00070020034BD3E90023D00B9B
:1040800040EA4340704700BF08070020054B186016
:104090001C3B1A6842F001021A601A68D207FCD46D
:1040A000704700BF2800034010B5064C236823F07A
:1040B00001032360FFF788FF236843F001032360B7
:1040C00010BD00BF10E000E0014B1868704700BF52
:1040D00044070020074B084A196804331B6812681C
:1040E000120442EA0323054A0B43106843EA0060C6
:1040F000704700BF40500D4048500D404C500D409F
:1041000010B50446114A1368DB07FCD50CF035FBEB
:10411000FFF7E0FF231A062BD8BFC41D0C4B220E5D
:104120001A60C4F3074243F8042CC4F3072243F88F
:10413000082CE2B243F80C2C0CF01BFB054B912031
:104140001C60BDE8104000F06BB900BF50500D403E
:104150004C500D404407002008B501F03DFA064BD5
:10416000002291201A6000F077F9912000F066F9A2
:10417000BDE8084002F0DABF44070020064B1B6888
:104180001B075FBF054B186880F00800C0F3C00034
:1041900048BF0020704700BF18C0004018D0004042
:1041A000164A2C2303FB00234FF6BF7270B5DC6860
:1041B0000546236C62649BB213F050020DD0104E82
:1041C000A369DB0608D456F825301BB12068C0B2BD
:1041D0009847F5E72368F3E770BD13F4D06F0BD071
:1041E0004FF440732363FF236360E36AE262E36298
:1041F000236B43F00103236370BD00BF8C262100B5
:104200004807002001282DE9F74F064600F2B2804A
:104210002C254543594F7C1994F92080B8F1000FA3
:10422000C0F2A88094F92290B9F1000FC0F2A280E8
:10423000534801F047FA534A7B591168E5680B432C
:1042400013605168636894F921A00B43536091682F
:10425000A3685FFA89FB0B4393600023C5F8C83F4E
:1042600023690AEBC8021A6094F92330227D009377
:104270009DF8003058461946019300F0CDF9019B96
:1042800008221946584600F0BDF93F4A4FEA09395D
:10429000009959F80200012303FA01F1014349F89A
:1042A00002104FEA083858F8020003FA0AF10143F5
:1042B00048F802105021A963A96B94F9240041F435
:1042C000D061A963022169634FF440712963A16938
:1042D00000286962E169A9624FF07001E962154640
:1042E00016DB94F92510A2F5A64241EAC0041C3A57
:1042F0001460040362598B40134363510022C9B216
:10430000C0B200F07FF9214A136843F40043136000
:104310002C2303FB067393F92640002C1BDB93F937
:1043200027A05FFA84F85FFA8AF9012249464046DD
:10433000240300F071F96259012303FA0AF31343CD
:10434000635108224946404600F05CF90F4A136861
:1043500043F4804313602C2303FB0676F26896F83F
:104360002800136B43F00103136303B0BDE8F04F63
:1043700000F056B803B0BDE8F08F00BF8C262100D6
:104380007D41200028200D4020940D4030D0004079
:1043900001289CBF014B43F82010704748070020BC
:1043A000012808D8044B2C2202FB0030C3689A690C
:1043B0009206FCD4196070478C262100014B002224
:1043C0001A60704700500D40014B08221A60704778
:1043D00000500D40024BA0221A6050221A60704714
:1043E00000500D40074A084B1A60084B80321A6093
:1043F000074B80321A60074B80321A60064B074A1F
:104400001A60704700E100E05C07002050070020C0
:10441000540700205807002008ED00E0002020008D
:10442000054B41091A6800F01F00012303FA00F050
:1044300042F82100704700BF5C070020054B41098E
:104440001A6800F01F00012303FA00F042F821006F
:10445000704700BF50070020054B41091A6800F063
:104460001F00012303FA00F042F82100704700BF4B
:1044700058070020024B1868C0F38150704700BFF6
:1044800004200D4008B5FFF7F5FF024B53F820005C
:1044900008BD00BFE426210038B5164D164C2B6828
:1044A000012223F040032B602368062123F0400300
:1044B0002360032000F0A6F82B68012223F080037C
:1044C0002B602368072123F080032360032000F082
:1044D00099F80A4A0A4B0B491A600A680A4B1340BA
:1044E000084A002BF9D113685901FCD413685B0109
:1044F000FCD538BD20C40D4000C40D4001010200B0
:1045000000200D4004200D4000000101014B082255
:104510001A60704774200D40034B04481B6803F079
:1045200007031841704700BF04200D400048E80110
:10453000034B04481B68C3F302231841704700BFB4
:1045400004200D400048E801024B02EBC10243F891
:104550002200704760070020F8B507460E46094D57
:10456000002405EB411547FA04F3DB07E1B204D55B
:1045700055F824300BB1304698470134082CF2D15D
:10458000F8BD00BF600700202DE9F04780464FEAE4
:104590000837DFF8409007F1804505F5592501F00F
:1045A0001BF8D5F8186457F809304FEAC80A23FAFF
:1045B0000AF446EA0400E4B24146C0B2F6B204FA94
:1045C0000AF4FFF7C9FFC5F81C6447F80940BDE8C5
:1045D000F08700BF18970D408022002101480BF0A2
:1045E00025BA00BF60070020034A044B1A60044B41
:1045F000803A1A60704700BF80400D40E4070020F9
:10460000E0070020034B01EBC0011B6843F82120A9
:10461000704700BFE4070020034B01EBC0011B689B
:1046200043F82120704700BFE00700200E2870B536
:104630000BD1154B154E1C6844F002051D60356802
:1046400025F03F0343F001033360114E336823F03C
:10465000FF031A43114301430E4A316013681B06DE
:10466000FCD50D4B0D4A1B6812680E2803F0FC03A5
:1046700043EA022308BF054A1BB204BF1560024A81
:10468000184608BF146070BD34000144F486084029
:1046900008700D4000700D400C700D4010700D4002
:1046A000024B1868B0FA80F04009704700B7084024
:1046B00010B58F20064CFFF7CFFE8F20FFF7BEFE10
:1046C000206818B102F026FD0023236010BD00BF52
:1046D000E8070020064A136843F00203136053689A
:1046E00043F002035360936843F002039360704702
:1046F00048200D4007B50C4800F0E4FFFFF7EAFF43
:104700000A4B1A6842F002021A6000220192019AD2
:104710000F2A02DC019A0132F8E71A6822F002023D
:104720001A6003B05DF804FBA146200054200D4040
:10473000064A136823F002031360536823F0020350
:104740005360936823F002039360704748200D4044
:10475000014B1860704700BFE80700202DE9F04FBB
:10476000414EA3B00193346881460F461546002C94
:1047700076D102291BD14FF0180A4FF0480BAC42FA
:1047800017DA02AB03EB44104FEA840818220AFB45
:104790000491DBF81C30984708F1030822AB03EBC7
:1047A000C8080022002348E920230134E7E7012953
:1047B00003D06D00022FEDB205D04823DB692A013A
:1047C000494602A89847294B012229491A60032328
:1047D0000B602848043132600B60036803F0030467
:1047E000BC421EBF23F003031F430760019802FA77
:1047F00005F3013B8340204C2048A4F5806403600E
:10480000C4F8003422601E4A02AC14601D4C2268B9
:10481000120C120442EA051525601B4D2C681A4A39
:10482000E407FBD51468002C06DA4FF000430B6058
:1048300000233360042014E0126812F0804206D096
:104840004FF080430B6000233360062009E003240F
:104850000C6032600268934314BF0620002000E021
:10486000032023B0BDE8F08F00B7084080B70840B0
:1048700084B7084008B4084000B4084004B40840B5
:1048800004B008400CB0084090B708402DE9F0474C
:10489000434C894621689C46DDF82880BDF82030CD
:1048A000BDF82C50DDF830E0002975D13D490126D6
:1048B0000E603D4E0327B2460221376021603B491E
:1048C0000F603B4FC7F80090D7F80090B9F1000F88
:1048D000FADB384FD7F8009019F0005FB94607D0DF
:1048E0004FF000530B60002323600520BDE8F087E4
:1048F0004AB11668304F3E6056687E609668BE606A
:10490000D7682E4A17602E4A002710F4E02F106057
:104910005560976002F108021BD053600432C3B1A6
:10492000A2F25C5201201060C2F804C0D360D9F832
:1049300000309B07FBD51F4B1B68002B07DA4FF09D
:1049400000430B60002323600420BDE8F0870223AE
:104950000B600123CAF80030BEF1000F08D070468A
:10496000FFF7F6FE8F20FFF777FD8F20FFF758FD4A
:104970007DB1144A0123136009990C3242F8081CD6
:104980001560B8F1000F04D053610F4BC3F80080DD
:104990009D600020BDE8F0870320BDE8F08700BFE0
:1049A00000B7084080B7084084B7084088B708407F
:1049B0000CB4084090B7084040B508404CB50840DA
:1049C00050B5084000B0084024B00840034B1A68B6
:1049D000034B1A4214BF01200020704790B70840D3
:1049E000010000E0F8B5204B204F1E684FF06043F7
:1049F0003B6005468F200C46FFF720FD0020FFF7A7
:104A0000A7FE00221A4B96421A6027DB710027D4BA
:104A1000B20027D405B9ECB1164A13685B00FCD587
:104A20005DB1154B1B682B60144B1B686B60144BFE
:104A30001B68AB60134B1B68EB605CB1124B1B68CF
:104A40002360124B1B686360114B1B68A360114B02
:104A50001B68E36003233B600020F8BD0420F8BD21
:104A60000620F8BD0520F8BD90B7084088B708407B
:104A700000B7084050B5084040B5084044B508406C
:104A800048B508404CB5084070B5084074B50840BA
:104A900078B508407CB5084037B5114B05461A6813
:104AA00012F0020401D1FFF715FE1023002100933C
:104AB00001912B462A4601200BF06FFE08B1FFF74B
:104AC00025FD0BF07FFE431CFBD008B1FFF71EFD58
:104AD00024B903B0BDE83040FFF72ABE03B030BDB3
:104AE00048200D4038B50B4B05461B6813F00204F7
:104AF00001D1FFF7EFFD0122002311462846FFF701
:104B00002DFE08B1FFF702FD1CB9BDE83840FFF7E4
:104B10000FBE38BD48200D40014B1B68184700BF31
:104B2000F42621002DE9F04F1646274A89B0146873
:104B3000834614F002040D469DF84880DDF84CA031
:104B40009DF85070DDF8549003D10793FFF7C2FD34
:104B5000079B1FFA88F0B9F1000F19D000218DE8EA
:104B600061000591049703955A4602200BF0A7FEB9
:104B700028B134BB09B0BDE8F04FFFF7D9BDFFF74E
:104B800025FF0028FBD0394650460BF0B2FEF0E777
:104B90003E448DE86100CDF81490049703955A4681
:104BA000494602200BF0ABFE0028E2D1FFF70EFFD2
:104BB0000028FBD03B465246314628460BF05CFEAF
:104BC000D7E709B0BDE8F08F48200D40084B93F9B6
:104BD0000020002A09DB074AED2111601160E32162
:104BE00011601A7862F07F021A700120704700BFCE
:104BF00098230020388808400C4A13689907FCD491
:104C00000A4B1B685B065FBF094BED221A601A60F6
:104C1000084B1B6813B1064BEF221A60064A0120AD
:104C2000137803F07F031370704700BF4C86084071
:104C3000388808402C8608409823002038B5A0F119
:104C40000B04E3B20F2B054613D80B4B1B6813F074
:104C50003F0302D0FFF7D0FF012304EB8404074A8F
:104C60000B3414600BB1FFF7B1FF054B68B21D7038
:104C700038BD4FF0FF3038BD488608403C860840BC
:104C8000EB06002010B50B4B1B68990603D1FFF70C
:104C90009DFF012300E0002307490A68D207FCD5E5
:104CA000064A1468C4F300140BB1FFF7A5FF2046B1
:104CB00010BD00BF48860840648608404C86084006
:104CC000044B186800F02200A0F12003584258411C
:104CD000704700BF4C860840024B186800F0400047
:104CE000704700BF4C86084038B50C46002900F0DC
:104CF0008880102800F28780DFE800F0090F1A1C76
:104D000023394254596F738585787A7C7F003F4BF5
:104D10001B68003318BF012370E03D4B05221B6860
:104D200003F07F030B3B93FBF2F30B33DBB265E045
:104D3000384B00E0384B1A68043B1B6843EA0223F7
:104D40005CE000230B60354B354A1B6803F0010320
:104D50000B601268900644BF43F002030B60314BB6
:104D60001B78002B4BD00B6843F0040346E02E4B1E
:104D700000201B780860002B41D001230B6038BD58
:104D80002A4B2B491A680023D2B201EBC3000079E9
:104D9000904203D8264A52F833302FE001330E2BCD
:104DA000F3D127E0234B1B685BB2493B26E0224B43
:104DB0001B68990603D1FFF709FF012300E00023D8
:104DC0001E490A68D207FCD51D4A1568493D6DB2D7
:104DD0000BB1FFF711FF256011E01A4B93F900307A
:104DE0000CE0194B1B7803F07F0307E00B2305E071
:104DF0001A2303E06FF0170300E00723236000206D
:104E000038BD022038BD012038BD00BF2C860840C7
:104E10003C860840CC850840D48508400086084080
:104E20002486084097230020EA0600204086084098
:104E300004272100588608404886084064860840B8
:104E400060860840962300209523002038B505464B
:104E50000C46134A13689B07FCD4124B93F900309D
:104E6000002B01DBFFF7B2FE0F4BEE221A60691E2A
:104E70001A60A21C43F8102C2144022000F038FBD9
:104E8000013C0A4924012143022000F043FB022097
:104E900000F04AFB022000F05FFB002038BD00BF9D
:104EA0004C860840982300203888084002C001C082
:104EB000F8B5214B93F90030002B0DDBFFF70AF911
:104EC0000546FFF783FE6FF00904641BFFF702F944
:104ED000C442FBD4012600E00026184B1B7823B9FE
:104EE000174D2B68990604D405E0FFF7CBFE002888
:104EF000F6D10220F8BD134CE923236004272B6868
:104F00009A0707D4013F17F0FF0703D00620FFF7E9
:104F1000BDF8F4E72B689B0704D4EE2323602360DD
:104F2000012403E02C6814F00204FBD10EB1FFF75A
:104F300063FE2046F8BD00BF98230020EA0600204B
:104F40004C860840388808400B280DD1082A0DD11E
:104F500061B1074B074A083111F8010D43F8040FFE
:104F60009342F9D10020704701207047022070471A
:104F7000A4850840C485084070B52F4D2B6813F0F8
:104F8000400308D02D4E3368DCB21B0605D52C4BF0
:104F9000ED221A601A60002070BD042CF7D9023C83
:104FA0008C42F4DCE4B2032C21D001190139032036
:104FB00000F0A6FA631E23491B011943032000F0E9
:104FC000A9FA032000F0B0FA032000F0C5FA03208C
:104FD00000F0CEFA0028FAD131681B4B493949B2AA
:104FE00019703368194E18063370D0D506E033684F
:104FF00003703368437033688370EDE789B204202F
:1050000007F0FEFC3178032001F07F0107F0F8FC87
:105010000F4B1B7873B92B685A060BD5064B1B68D0
:105020001B0603D50B4802F075F803E0044BED2294
:105030001A601A60204670BD4C86084028880840D7
:105040003888084002C0010C9623002095230020D8
:1050500097230020880400201E4B1870002831D0B0
:105060001D4A13681B03FCD51C4B1A6842F0020250
:105070001A601A6842F001021A601A68174950074C
:10508000FBD50A6822F001020A601968134A490731
:10509000FBD4116841F002011160116841F0010177
:1050A00011601A685207FCD50D4A8D20136823F051
:1050B0000403136002F5D472136823F00403136031
:1050C000FFF7BCB9064A8D20136843F00403136050
:1050D000FFF7A6B99723002004200D40048808405C
:1050E0008C86084010B50C46072861D8DFE800F030
:1050F000040E181C233F455B012902D1FFF766FD12
:105100004BE0002958D1FFF777FD46E0A1F10B03F2
:105110000F2B51D8C8B2FFF791FD01303DD149E0C6
:105120008CB2E2B2254B02E08CB2254BE2B2240AEB
:105130001A605C6031E031F007033DD1214B11F082
:10514000010F1A68C1F3800014BF42F0010222F07F
:1051500001021A601C4B11F0020F1A6814BF42F0D2
:10516000200222F020021A60FFF776FF15E031F0EE
:10517000010021D1154B197010BD01F118031F2B2F
:105180001AD813490D2351F83300DA00844206DCA3
:105190000F4B13441A790F4B1A60002010BD13F106
:1051A000FF33F0D2F9E7CCB20B4B49341C60F4E783
:1051B000012010BD032010BD022010BDC88508408D
:1051C000D08508400086084024860840EA06002072
:1051D000042721004086084058860840F8B5294F2A
:1051E0003D7815F001054AD1274B01241C605C6015
:1051F0009C60A3F59323A3F51473F8221A60092287
:10520000C3F89021152270331A6003F59B230B22FB
:1052100003F59E731A60A3F59B23A3F5F073402258
:105220001A601A687F2642F020021A60D52243F8DD
:105230001C5CDE62DA61154B1878FFF7FFFC144B3B
:105240008E201E60FFF7ECF8022000F079F911497A
:10525000022000F055F9032000F072F90D490320F7
:1052600000F046F90C4B1878FFF7F6FE29460B487C
:1052700001F038FF3B78204623433B70F8BD002007
:10528000F8BD00BF98230020A8200D40EB060020A9
:10529000948608402888084097230020880400202E
:1052A00038B503880446CBB140F20342934203D0A1
:1052B00000230380032038BD194B18781A4628B103
:1052C0001B7873B1174B1B7858060AD5822908D171
:1052D000137843B1134B1A78520614D440F20343A7
:1052E0002380012038BD07F035FB07F0C9FA802183
:1052F000FFF742FE0028EDDD80B207F0A5FA0A4B69
:105300001B699847E6E700221A70084B1D68FFF7F3
:1053100073FCFFF763FFAB06E0D0FFF757FCDDE758
:105320009723002098230020002821004886084069
:105330000B282DE9F84F0E4610D1082A40F0828044
:1053400000297FD0414B424A4E1E53F8041D934220
:1053500006F8011FF9D10020BDE8F88F0C286ED1A6
:10536000042A6FD100296DD03A4B3B481A68DFF808
:10537000F8C022F007021A600268DFF8F0A042F0DD
:1053800008020260DAF80040DCF800101A68DFF862
:10539000E0E022F07002314F1A60DEF800203D6834
:1053A000E4B2090244EA056401F47F411204214396
:1053B00002F47F020A432A490024D1F800805FFAF0
:1053C00088F544EA02081A68A94622F0070242F06A
:1053D00001021A60026842F008020260DAF8000076
:1053E000DCF800201D68C0B225F0700545F01005FE
:1053F0001D60DEF800303D68120240EA056002F4EC
:105400007F421B04024303F47F0313430A6844EA08
:10541000030A5FFA82FBFEF75DFEB8EB0A0869EB50
:105420000B094FEAC93105460E4A00234FEAC8303E
:1054300041EA58410AF05AF8281A30608BE70120F7
:10544000BDE8F88F0220BDE8F88F00BFC88508408E
:10545000A885084010880840048808402088084033
:105460001C8808400048E801188808401488084053
:105470002488084008B5054B1B7813B9044801F08F
:1054800049FE044B00221A6008BD00BF972300208C
:105490008804002034880840064B07481A68042A0C
:1054A0001FBF06490A7842F040020A7000221A60C3
:1054B00001F030BE2C88084088040020982300208A
:1054C00010B5094C4022002120460AF0AFFA074BE4
:1054D00001221A602E205C60FEF7A2FFBDE810409A
:1054E0002F20FEF79DBF00BF0000002004F00F40FA
:1054F00003289EBF014B0001195070470000002097
:1055000003289EBF024B03EB00104160704700BFB1
:105510000000002003289EBF024B03EB00108160B7
:10552000704700BF00000020032806D8034901226D
:105530000B6802FA00F018430860704728F00F402B
:10554000032806D8034901220B6802FA00F0184329
:105550000860704720F00F40032806D80349012255
:105560000B6802FA00F018430860704714F00F400F
:1055700003289FBF044B03EB0010806800F0070076
:1055800088BF0020704700BF00000020024B4FF092
:10559000FF321A60704700BF04F50F40014B012233
:1055A0001A6070474CF00F40094A1368084913F419
:1055B000801FFAD1074B1A6822F480321A600A68F9
:1055C000D203FCD41A6842F400321A60704700BF5C
:1055D00004200D4000200D4010B50B4B1A681C46EE
:1055E00012F0030F0ED009490B68084A13F0806FC0
:1055F000FAD113685B01FCD5FEF756FDFFF7D4FF27
:105600000023236010BD00BF58200D4004200D4032
:1056100038B5264B1C6814F03F0413D1244D55F8BF
:10562000243023B1984768B10134052CF7D1214DBE
:105630002B783BB1FEF748FD0446FEF74BFD201AE0
:10564000092801D830BF38BD002CFBD01A4B1B48AD
:105650001A6822F400321A600268184912F4801F96
:10566000FAD11A6842F480321A600B68DB03FCD569
:10567000FEF730FD201A092803D8BDE83840FFF7AF
:1056800093BF63280E4C02D92B78022B00D0012344
:10569000236001F0F5FC20B1FFF786FF00232360B3
:1056A00038BDFEF711FD0028CCD1F5E7488608404B
:1056B000EC0700209923002000200D4004200D401D
:1056C00058200D400749002351F82320824207D07B
:1056D0001AB9044A42F8230070470133052BF3D16D
:1056E000704700BFEC070020054B00221A60054AF6
:1056F000136843F004031360034B01221A707047D0
:1057000058200D4010ED00E09923002010B59020A6
:10571000064CFEF7A1FE9020FEF790FE206818B11F
:1057200001F0F8FC0023236010BD00BF000800203A
:1057300030B5184B1A78431E22B101F520112731DC
:10574000154A1FE0154A1278122AF6D1144A127827
:105750004B2AF2D14A0802F12814B4F1281F04D0D0
:1057600014F8015D03F8015FF7E701F52011273117
:1057700000231044934204DA11F80149C454013360
:10578000F8E730BD914204D011F8010903F8010F88
:10579000F8E730BD2B002800270028002A00280049
:1057A00029002800024A136843F010031360704771
:1057B0002000024014235843034B044A0344B3FB24
:1057C000F0F3013B13607047FF23F4000C0002402C
:1057D0002DE9F84306460F4614461D462A4ADFF8CF
:1057E000B4901368DDF8208043F001031360D9F80A
:1057F0000030322043F00103C9F80030FEF746FCC8
:10580000D9F80030214A23F00103C9F800303003F1
:105810008158012303FA07F921EA09018150210384
:1058200051F802C0AB402CEA030C41F802C0203210
:1058300050F802E049EA0E0E40F802E088580343AF
:105840008B50304639460022FEF7DCFE29462046C2
:105850000022FEF7D7FE0E4B47EAC6021A6045EA61
:10586000C4025A60394630460B22FEF7D5FE204668
:1058700029460C22FEF7D0FEFFF794FF4046BDE814
:10588000F843FFF797BF00BF38200D4000940D404C
:105890002C410D4044200D40024B18600120FEF7C2
:1058A000F5BB00BF04000240054B1868C0B2C30737
:1058B00004D410F0120F08BF00207047002070477A
:1058C0000400024008B5074B4000186099600720AB
:1058D000FFF7E2FF044A1368DB07FCD4BDE8084089
:1058E000FFF7E2BF00000240040002400A4B400004
:1058F00040F0010010B5186007200C46FFF7CCFF00
:10590000064A1368DB07FCD4FFF7CEFF10B9044B3F
:105910001B68237010BD00BF00000240040002405D
:10592000080002402DE9F8430F461446002A3CD0F7
:1059300000293AD0012A04D1BDE8F8430978FFF7DD
:10594000C1BF1B4A430013600B781A4E032033601B
:10595000FFF7A2FF184A1368DFF85C8013F0010F0D
:10596000F9D1FFF7A1FF70B9012504F1FF3914E067
:105970003C4414F8013C05203360FFF78DFFD8F854
:105980000030DB07FBD4BDE8F843FFF78DBFD8F844
:105990000030DA07FBD40135EDB2A945E8DD7B5DC7
:1059A00001203360FFF778FFF1E78020BDE8F8833E
:1059B0000000024008000240040002402DE9F843C4
:1059C0000F461446002A3CD000293AD0012A03D1C0
:1059D000BDE8F843FFF78ABF1B4A430043F00103C9
:1059E00013600B20FFF758FF184A1368DFF85C803C
:1059F00013F0010FF9D1FFF757FFF0B9144E01254D
:105A0000336804F1FF393B70A9450BDD0920FFF72E
:105A100043FFD8F80030DA07FBD433687B550135F3
:105A2000EDB2F1E70520FFF737FFD8F80030DB07CC
:105A3000FBD433683C4404F8013CBDE8F843FFF76D
:105A400033BF8020BDE8F88300000240040002401C
:105A50000800024070B5134C4FF0FF33254600227A
:105A6000B4F9066046B1A67A0C34002E08BF13467E
:105A70000132052AF4D111E013460C225A43AB1827
:105A800098804FF0FF30A850B1F90620DA804A7AAA
:105A90001881C2F3C002DA72184670BD5A1CECD1EC
:105AA000002070BD40080020F0B5224D06462F466C
:105AB0008FB00024B5F90630A3B1B5F9041001A8E0
:105AC0000AF0A1FF9DF80D3003F03603022B09D137
:105AD0000DF10E01304609F0F7FF18B90C2000FB5C
:105AE000047024E00134052C05F10C05E2D10024FA
:105AF000214601A80AF087FF9DF80D5005F03603F6
:105B0000022B0AD10DF10E01304609F0DDFF20B95C
:105B100001A92046FFF79EFF09E020462A46BDF96D
:105B20000A100AF0A5FF1F280446E1DD00200FB08F
:105B3000F0BD00BF400800201B4BF0B507461E46D5
:105B4000B3F900508FB04FF0FF341F2D0CDC294605
:105B500001A80AF058FF9DF80D20910718D4631C86
:105B600006D1EB191F2B02DD4FF0FF301AE02C4657
:105B70002846BDF90A100AF07BFFE3198342054667
:105B8000E3DCB6F9002094420BD1074A138008E009
:105B90002846BDF90A100AF06BFF4FF0FF340546A6
:105BA000D3E720460FB0F0BDDC1C002070B58EB0EE
:105BB00004460E46014601A815460AF024FF9DF84A
:105BC0000D3003F00602022A02D04FF0FF3040E011
:105BD00003F0200101F0FF020029F6D176B99DF80B
:105BE0000D30214643F0040301A88DF80D300AF072
:105BF00037FF194A0023137055B916E01B07EED57D
:105C00001146BDF90400FFF7D1FF0028E7DADCE711
:105C10001D461248C218516821B1B1F90410A142C1
:105C200008BF15720C333C2BF4D14FF6FF700C4BB0
:105C3000002203F13C01B3F904500C33A54202BF2A
:105C400023F8080C03F8022C23F8062C8B42F2D11F
:105C500000200EB070BD00BF9A2300200408002071
:105C6000400800202DE9F04F97B001908A4602933A
:105C70003AB15046FFF760FF0446013040F0D28051
:105C800004E0FFF711FF0028F3D0C9E0754B1E7840
:105C90000393002E40F0C480734FDFF8D4914FF08F
:105CA000080800230793ADF8203016B93E8089F824
:105CB0000060B3B299F800200093DB001FFA83FB69
:105CC0004AB1B7F90020072A14DD0821083AADF8D7
:105CD0001C103A800CE0B7F90040072C0BDD083CA3
:105CE000A4B2082225B2072CADF81E203D805BD956
:105CF000002559E000243D880FFA88F35D442DB259
:105D00000493049BAB422DDD294609A805920AF0B5
:105D10007AFE002189F800109DF82D10059A01F0F7
:105D20000600022801F020000AD148B9012189F8B3
:105D30000010BDF82A100D440A442DB212B2E0E75B
:105D400018B101352DB2013406E0490706D5BDF87A
:105D50002A100D442DB20C4424B2D2E7C5EB08053D
:105D600029B200E0002190B21FFA84FE00EB0E057C
:105D7000083D0D442DB2002D3D8009DD99F800301D
:105D80001BB1CEF1080212B202E0C0F1080424B245
:105D9000ADF81C2099F80020ADF81E40ADF8201099
:105DA000002AA5D1072DA3DCBDF91C20002A26DC82
:105DB000BDF91E20002A22DD2C4A0FFA8BF1B2F920
:105DC00000008842C8BF1180002D15DD322200215D
:105DD00009A809F02BFE22228DF82D2000240BF1BA
:105DE0000803191909B209A8013404930AF038FE0E
:105DF00022B29542049BF4DC00980AF0D4FE0136EE
:105E000008F10808042E1FFA88F87FF44AAF5046BC
:105E1000FFF792FE431C044604D1039A012313703A
:105E200000201CE03222002109A809F0FFFD2722F2
:105E300001990DF12E0009F0CBFF029B214643F0A2
:105E4000020309A8ADF82AA08DF82D300AF008FE4B
:105E500009A92046FFF7FEFD08B10023036017B033
:105E6000BDE8F08F9A230020DE1C0020DC1C0020FF
:105E70009B2300202DE9F8438146244A0E46002446
:105E80000C2101FB04273B7ADFF8808033B1013419
:105E9000052CF6D14FF0FF30BDE8F8833B727B72E2
:105EA0004846FFF701FE0546786070B906F0030327
:105EB000012BEFD02B46012208214846FFF7D2FEE6
:105EC00078600028E6D0056007E02B68013304D134
:105ED000B5F904000AF09BFD28600C2303FB048243
:105EE000117A6343314316F00406117218BF5268E9
:105EF000204618BF166808EB0302526848F8036092
:105F0000937A01339372BDE8F88300BF0408002040
:105F100004280CD8064B0C2202FB0030037A33B164
:105F20004168002202728B7A013B8B72426070479B
:105F3000040800202DE9F043042891B081460E4664
:105F4000144661D80C224243324DAB18197A00290D
:105F50005AD0C80758D5597A5F6849070BD5301908
:105F60004FF0000E1A68841B396822448A4208D90F
:105F700000F801EDF6E7AB583A681919914288BF6D
:105F8000D41AFB7AB7F9041013F0010F0FD10C23C8
:105F900003FB09F7EB59304603F1320202EB012211
:105FA00021460AF082FEEB592344EB512AE0A04639
:105FB00003A80AF028FD0C2303FB0955B8F1000FD4
:105FC00020D02B68ADF808806A46B7F9081003A8FE
:105FD0008DE848000AF058FD00280CDA2A68B7F965
:105FE00004303232304602EB0322BDF808100AF0CA
:105FF0005CFEBDF808002B68064403442B60C0EB30
:106000000808DBE7204601E04FF0FF3011B0BDE8A3
:10601000F08300BF040800202DE9F0479AB000AFDC
:1060200080460C46014638460AF0EDFC012107F196
:106030000A00FFF71FFF051E74DBB7F906100023E7
:10604000A140012209B207F10A00FFF70BFE044646
:1060500000284AD00026BA88E946002A08BF4FF433
:106060008072D31D23F00703ADEB030D694628466C
:10607000FFF760FFB0F1000A0ADA00221146B4F916
:106080000400FFF793FD2846FFF742FFCD4649E0A5
:1060900009D0B4F90420514606EB02223232684698
:1060A0000AF093FD5644CD46BAF1000FD3D1204BF0
:1060B00003F13C011A7A42B15A68B2F90420424510
:1060C00001BF5C60A27A0132A2720C338B42F1D123
:1060D000002201214046FFF769FD0028B4F90400C1
:1060E00007DA00221146FFF761FD2846FFF710FF8F
:1060F00018E0014607F134000AF085FCBB8807F17F
:1061000034003B877B88B4F90410FB860AF0A8FCB6
:10611000E37A284623F00103E3722660FFF7F8FED6
:10612000002001E04FF0FF306837BD46BDE8F08742
:10613000040800202DE9F04F9FB0FF2300AF042892
:1061400081463962FA6287F8343002D94FF0FF3065
:1061500082E1B24E0C2303FB00631A7A002AF5D0C9
:106160009507F3D55A7A5D68940712D41C462368C4
:10617000FA6A32331344B5F90620B3EB022F08D97B
:106180000121B5F90400FFF747FF0028DEDB656851
:10619000EDE70C2303FB09F3F218527AD00700F164
:1061A0003F81EA7AD10705D49C4AD2582B689A429B
:1061B00080F23681FB6ABB6200237B610C2303FB08
:1061C00009F3FB61BB6A002B40F3FA80934BFA6939
:1061D000B5F9041007F144009C580AF014FCB7F814
:1061E0004830B7F84610002B14BF98464FF480781B
:1061F00021B94FF4807292FBF8FB00E08B4694FBD0
:10620000F8F296B208FB1242388DBA61C2EB08026E
:106210008242BCBF92B27A6297F84D20A8BF7862E2
:106220001207FE8647D5B5F90840B7F94460002C3F
:1062300038DA5B46102BA8BF10233B615B000833A4
:1062400023F00703C7F808D0ADEB030D6B465C469F
:1062500032023232FA604FF0000AD34520DD3A694B
:10626000CAEB0B049442A8BF1446FA68A4B202EB2E
:106270004A02184661003B607C600AF016FD3B68EC
:106280000022944207D033F8121011B90AEB02042D
:1062900001E00132F5E77A6852441FFA82FADCE73E
:1062A000D7F808D024B2A34537DC0021B5F90400A3
:1062B000FFF7B2FE7DE0002B08BF4FF4807319B9E1
:1062C0004FF4807191FBF3F10233594301F2311124
:1062D0001023012241F30F2107F14E00FFF7C2FC0A
:1062E0000446002867D097F84D3043F0080387F83C
:1062F0004D308388B5F9041007F14400A7F8443005
:106300000AF0AEFBEB7A43F00103EB72B4F90460E0
:10631000731C50D0A7F84460002408F1070323F051
:106320000703C7F810D0ADEB030DFB8EBA6908FB6D
:1063300003F3002AEA46BB63C7F83CD0A7F84080C5
:1063400002DC7A6A904513D007F13802214607F142
:106350004400FB600AF098FB0028FB6808DAB5F9F6
:106360000420414603EB0222323250460AF09DFCE3
:10637000BB697A6A5344396A184609F07DFAFB8E84
:106380003602013307F17800323620F8423D06EB41
:10639000440202210AF019FC06EB4B0208FB04221E
:1063A0005046414601340AF010FC2C81D7F810D039
:1063B000786A002817DAFB6ABA6A93423FF4C6AEDD
:1063C0007B69002B3DD00C2303FB09F3134A012109
:1063D000D358B5F90420313303EB022207F134001E
:1063E0000AF0F3FB2DE004D10C4BFA6913445D680D
:1063F000E8E6BB6AFA691B1ABB62084BF9699B584D
:10640000064A034453503A6A02443A622A68934265
:10641000C2BF2B6001237B61D4E600BF04080020CB
:106420000C2404FB09F43359B5F90420323303EB8F
:106430000222F96A386A0AF0C8FB3359FA6A13442F
:1064400033510C2303FB09F9054B2A6853F8093033
:10645000F86A9342C8BF2B607C37BD46BDE8F08F19
:10646000040800200FB407B504AA52F8041B04481E
:10647000019200F035F803B05DF804EB04B070470A
:10648000980400201FB51446074A8DE803000292C5
:1064900021461A4602A8CDF80CD000F021F8009B46
:1064A00000221A7004B010BDDF0C210070B5054643
:1064B0000C46102C07D92B681022084968689847A9
:1064C00050B9103CF5E734B12B682246686803499F
:1064D000BDE870401847204670BD00BF052B210065
:1064E0002DE9F04F064615468FB006914FF0000B90
:1064F000069B1B78CBB1069C274617F8013B1BB1C6
:10650000252B14D03C46F7E7069BA3420DD0069BF3
:106510000699C3EB04084246336870689847002820
:1065200040F01F832378C34423B9584634E3069BC5
:10653000A342ECD16378002BF7D0394600240846FB
:1065400010F8013B0A462B2B11D006D8202B11D076
:10655000232B12D144F0080416E02D2B04D0302B4D
:106560000BD144F010040FE044F001040CE044F0BF
:10657000060409E044F0020406E0A3F13107082F05
:1065800011D84FF0000801E00146D8E70A4611F89B
:10659000013BA3F13000092813D80A2202FB083876
:1065A000A8F13008F2E72A2B09D12B680246002B0C
:1065B00005F10405B8BF44F00104984601E04FF02E
:1065C000000813782E2B1AD15178531CA1F13000FA
:1065D00009280ED8194600270A780B46A2F1300088
:1065E000092801F101010DD80A2303FB0727303FD9
:1065F000F2E72A2904D12F68931C043502E01346E0
:106600004FF0FF371A786C2A09D15A786C2A02D1D8
:1066100044F080040AE0013344F060040BE0682A8F
:1066200009D15A78682A03D144F02004023302E0E9
:10663000013344F040041A78642A3CD01FD8462A1B
:1066400048D00DD8252A5AD003D8002A3FF46DAF80
:1066500057E0412A4AD0452A53D144F4424450E0FD
:10666000582A31D004D8472A4BD144F4A13448E009
:10667000612A38D0632A44D144F4A06441E06E2AF0
:106680003AD007D8662A22D027D3672A28D0692A89
:1066900011D036E0732A2CD006D86F2A11D0702A78
:1066A0002FD144F440742CE0752A07D0782A28D1E1
:1066B00044F4C85425E044F4245422E044F4106423
:1066C0001FE044F488541CE044F4B24419E044F45C
:1066D000007416E044F4844413E044F4024410E0EF
:1066E00044F481340DE044F4C1340AE044F4E1346C
:1066F00007E044F4806404E044F4E06401E044F41E
:10670000C0640133069304F4E063B3F5806F00F0D6
:106710008F8113D8B3F5807F27D0B3F5407F7FF406
:10672000E7AEAE4B14F4804FAD4A18BF1A460DF1D8
:1067300033032868002104351F46B5E1B3F5C06F67
:1067400008D0B3F5E06F00F02282B3F5A06F7FF4BC
:10675000CFAEF2E133680122A24970689847002861
:1067600040F0FF810BF1010BC2E6002FACBF24F01B
:106770001004012714F40053079304F0E0032ED013
:10678000402B12D005D8ABB1202B21D195F9002098
:106790000DE0602B0ED0802B1AD1073525F00703B2
:1067A00003F10805D3E9002307E0B5F90020D3176A
:1067B000043502E02A680435D317002A73F100017A
:1067C00008DA524263EB4303CDE90023012304E0DE
:1067D00000220023CDE900230023059329E0402B6C
:1067E00013D004D8BBB1202B1DD12A780EE0602B2A
:1067F00011D0802B17D1073525F0070303F10805C9
:10680000D3E90023CDE900230BE02A880023CDE95A
:106810000023043505E02B6800221946CDE900125B
:106820000435079BD9E70023059300220023CDE917
:10683000002304F4C053B3F5805F0CD0B3F5C05F00
:1068400033D0B3F5006F4FD1DDE900230DF13609E8
:10685000CDE9022304E0DDE900230DF1360915E05E
:10686000DDE9022313433AD0DDE902010A220023C5
:1068700008F03CFEDDE90201303209F8012D002369
:106880000A2208F033FECDE90201E9E752EA0301EA
:1068900025D002F00701303109F8011DD10841EA85
:1068A0004371D8080A460346F0E74C4B14F4804F76
:1068B0000DF136094A4918BF1946DDE9002352EAAD
:1068C00003000CD002F00F00085C4FEA131E09F819
:1068D000010D100940EA037002467346EFE70DF11F
:1068E0003603C9EB030302E00DF1360900230293DE
:1068F000029B41F60802BB4238BFFF1A41F208036F
:1069000002EA040228BF00279A4202D1002F08BFE2
:10691000012741F60801029B8A4203EB07000DD1D3
:10692000DDE90023134309D02F4A304914F4804F86
:106930004FF0020A0CBF0B46134602E04FF0000A6C
:106940005346079A9AB1059A52B904F00602022AF0
:106950000AD0062A264A04BF4FF0010A134606E071
:106960004FF0010A234B02E0234B4FF0010A0AEBE0
:10697000000290458CBFC2EB08084FF0000814F0ED
:10698000010200920DD1E10602D54744904608E08D
:10699000414630460593FFF789FD059B002840F0EE
:1069A000E080BAF1000F07D034685246194670688B
:1069B000A047002840F0D580029B03EB0B04BB46A8
:1069C000BBF1100F33681BD910220C49706898472F
:1069D000002840F0C680ABF1100BF1E7D02A21006F
:1069E000E12A2100032B2100F52A2100F22A2100AF
:1069F000FA2A2100F82A21000F362100152B210048
:106A0000BBF1000F06D05A466549706898470028C8
:106A100040F0A7803368029A49467068544498470A
:106A2000002840F09E80009B3C44002B39D032E08F
:106A3000D5F800900435B9F1000F0AD0CA469AF88B
:106A400000300AF101020BB19246F8E7C9EB0A0ADD
:106A500003E0DFF850914FF0060A002F02DBBA4541
:106A600028BFBA46D0458CBFCAEB08084FF00008D3
:106A700014F0010705D141463046FFF717FD002805
:106A80006FD133685246494670689847002868D1EC
:106A90000AEB0B042FB141463046FFF707FD0028F3
:106AA0005FD108EB040B23E550EA010E0ED000F095
:106AB0000F0E12F80EE04FEA111C03F801ED4FEA39
:106AC000101E4EEA017E70466146EDE7FF1A02BFD6
:106AD0003022012703F8012C07F1030708BF03F157
:106AE000FF337822B84503F8012C4FF0300203F849
:106AF000022C88BFC7EB08084FF0230298BF4FF065
:106B0000000814F00104A3F1030903F8032C04D1D5
:106B100041463046FFF7CAFC18BB33683A4649463F
:106B200070689847E8B95F4424B141463046FFF7A2
:106B3000BDFCB0B908EB070BDAE4B8F1010F2B6824
:106B40008CBF08F1FF384FF0000814F0010405F184
:106B500004058DF8203008D141463046FFF7A6FCE9
:106B600010B14FF0FF3017E0C3443368012208A989
:106B7000706898470028F4D108F101072CB141460C
:106B80003046FFF793FC0028EBD1BB44B0E42B6800
:106B90000435C3F800B0ABE40FB0BDE8F08F00BF20
:106BA000152B2100FC2A2100F8B50388064615465E
:106BB0002BB14A2B15D0002303800320F8BD1748C2
:106BC0000AF02BF904462CB1A168201D0AF0B3F895
:106BD0002468F8E7124B01221A704A2333800120FF
:106BE000F8BD8829FBD10D480AF017F90446002C9E
:106BF000F3D0231D9D420ED1214608480AF017F913
:106C0000084B62691F681A60A2691D460AB1E069F3
:106C100090472F60E1E72468E9E700BF7C08002087
:106C20009C2300208808002010B5064B002406484D
:106C30001C700AF0EFF82146BDE81040034800F050
:106C400051BA00BF9C2300207C080020A004002033
:106C500070B50446E3610B4B049D1B786561A2612E
:106C600043B1094D094B2E68201D2B600AF063F8D3
:106C70002E6000E0A1602146BDE8704004480AF0A3
:106C8000E9B800BF9C23002088080020A004002051
:106C90007C08002013B5034C24680094FFF7D8FF4C
:106CA00002B010BD8808002070B5094B05461B785E
:106CB0003BB1084C084B2668043023600AF044F8C6
:106CC00026602946BDE8704004480AF0C3B800BFFA
:106CD0009C23002088080020A00400207C080020BD
:106CE00070B5094B05461B783BB1084C084B26682C
:106CF000043023600AF031F826602946BDE8704070
:106D000004480AF0A7B800BF9C2300208808002090
:106D1000A00400207C08002010B5084B04461B7816
:106D20001BB1043000F0B4F801E0C36003612146F8
:106D3000BDE8104002480AF07AB800BF9C2300204A
:106D40007C08002010B50E4C236813B90D4A13605F
:106D500010BDFDF787F9216891E80C001A44131A59
:106D60008A6842B192E812002144091A8B4228BF76
:106D70000B469268F5E71844024B186010BD00BF3F
:106D80008008002084080020014800F0C3B900BF3B
:106D9000B00400202DE9F8430388054633B1592B90
:106DA0000BD0002303800320BDE8F883234A13603F
:106DB00059232B800120BDE8F883872924D082291C
:106DC000F6D11E4F4FF00008B9463C680026002C53
:106DD000EED0204609F0F3FF98B122468821E06802
:106DE00000F058F958B9E060A3680EB1B36001E053
:106DF000C9F80030C4F80880FFF7A4FFE5E7FFF703
:106E0000C3FF2646A468E2E70C4900200B681BB9C3
:106E10000028CDD00B60CBE7DC68A24202D19B6892
:106E20000120F4E700B10B6099680029C0D0C86860
:106E300082420ABF89680B469960F5E78008002006
:106E400010B50446FFF7A0FFE3680B4A4BB1136887
:106E50003BB1A34203D1094A1268DA6007E09B689C
:106E6000F6E7064B1B68E36013681460A360BDE897
:106E70001040FFF767BF00BF80080020880800208F
:106E8000024B1868003018BF0120704780080020AE
:106E900010B50B4A04461368834206D18368136019
:106EA00008E09A68944203D01346002BF9D103E01E
:106EB000A2689A60FFF746FF0023A360E36010BD5D
:106EC0008008002038B5836804460D469BB10A4807
:106ED00004600220A07304F10C00984702380128D6
:106EE00001D9832D05D121462046BDE8384000F068
:106EF00005B80123A37338BD880800202DE9F843A5
:106F00001C4A0446156889462B4690461A4E376837
:106F1000A34204D00BB11B68FAE7BDE8F88334B391
:106F2000A37BABB10023A37345B1A54204D0224695
:106F30008721284609F022FF2D68F5E7A3683BB1B9
:106F40004C4505D034602A46832104F10C00984753
:106F5000D8F800309C4203D12268064B05E0134666
:106F600023B11A689442FAD122681A603760BDE8EA
:106F7000F88300BF8C08002088080020002370B52B
:106F80001D46094A01261370084A146854B1E37B70
:106F900033B1A673E573002282212046FFF792FFEA
:106FA0002468F3E770BD00BF9F2300208C080020F9
:106FB000024B1878421C1A70704700BFA0230020B3
:106FC000014B1968FFF79ABF88080020064B8A22F8
:106FD0001A70064A00231370054A1370054A13609D
:106FE000054A1360704700BFA02300209D230020A6
:106FF0009E2300208C080020880800202DE9F04105
:107000001A4D2B780BB1FFF7B9FF194C22783AB320
:10701000184E0C213378184F5943781817F801800F
:1070200001334768806803F01F03013A3370227010
:1070300068B9124B1E689EB12B780BB1FFF79EFF0B
:1070400030463A46414609F099FE3668F3E7B8F112
:10705000810F04BF012383733A46414609F08EFE37
:107060002B7820781844BDE8F08100BF9F230020D2
:107070009E2300209D230020900800208C080020E3
:10708000024A034B10781B78184470479E23002057
:107090009F230020F0B50B4E3378202B0FD00A4CE5
:1070A0000C252478094F1C4404F01F046C43013361
:1070B0003D19A86039556A6033700020F0BD012089
:1070C000F0BD00BF9E2300209D23002090080020DB
:1070D00038B5034C256809F051FE256038BD00BF66
:1070E0008808002030B40A4C0A4625682B468342A3
:1070F0000CD00BB11B68FAE740B101210560817328
:1071000020608381812130BCFFF7E2BF30BC704733
:107110008C08002038B1837B013B012B9FBF024AC2
:107120000123C373137070479F23002010B5084CD0
:10713000206858B10023236081684368984723681A
:1071400023B1BDE810401868FCF7DABF10BD00BFDE
:10715000100A002010B50446FCF78EFF94E80C00DE
:107160001344C01A024B98428CBF0020012010BD6E
:10717000FEFFFF7F70B505880446672D09D0792D85
:1071800030D0002D34D1FFF713FF1C4B18701C4B6F
:107190001D601B4D2E461B4809F0EBFE431C01D120
:1071A00067231DE00A28164A07D02B687E2BF2DCE5
:1071B0005A1C3260144AD054EDE713680025591C5C
:1071C0001160114A2846D5540C4B1978FFF762FF1D
:1071D0000E4B2A4685211868FFF75CFF20B97923FA
:1071E000238009E0852907D1054B00221A60D0E7EA
:1071F00000230380032070BD012070BD703A002081
:107200001C0A0020140A00202224002088080020E4
:107210000D2810B5014615D00B4C23782BB90B481F
:1072200009F094FE48B9012306E00A2805D1074871
:1072300009F08CFE08B1002323700548FFF76AFFB0
:10724000012010BD002010BD21240020140A0020C0
:10725000C004002008B505490548802209F06FFEEA
:10726000BDE8084000210348FFF73CBFA1230020F0
:10727000140A0020C0040020054A136843F00403E8
:107280001360044B1B68906943EA002080B270478A
:1072900000700D4014700D4010B5184A136823F0AB
:1072A0000C031360164B01221A601A68012AFCD1E4
:1072B000144B08221A60E322C3F8142203F5057365
:1072C0001946114A1368DB07FCD5104C1020002327
:1072D0002268013802F0010243EA02034FEA430345
:1072E0009BB2F5D1002BF1D0094A180A03F0FE0336
:1072F00010601360EF230B6010BD00BF00700D40E5
:10730000A8200D4024860840648608409C860840DA
:1073100014700D402DE9F04106880546772E31D0D6
:107320007E2E40D0002E4ED12B4CFFF741FE266022
:1073300026462A4B2A4FDFF8B0801870236857F88A
:1073400023204AB1002108F8031093688020984751
:10735000336801333360F1E7224A1370772320E06A
:10736000214AD256002A12DB1B4A136801331360EC
:10737000194B1C4A1B6812789A42F1DC1B4B1B68A4
:10738000002BEBD0194A00231360134AEFE7144A8D
:10739000002052F82320114B1978FFF77BFE30B9FB
:1073A0007E232B8014E00D4B1B788B4210D10A4BAF
:1073B0000D491A688B5C03F07F038B540B4A1368EA
:1073C00001331360D0E7002303800320BDE8F08180
:1073D0000120BDE8F08100BF240A0020713A00209E
:1073E00078040020A22400206C3A0020200A00200B
:1073F00010B40A4B0A491A780023934203DA51F871
:107400002340A04208D107490748CA5C62F07F02C6
:10741000CA5410BCFFF77EBE0133EEE7A224002061
:10742000780400206C3A0020D00400200C4AB823D5
:1074300003FB00220023F0B553821E461A4640F299
:107440004C550849CC18A77827B15F5C874204BF28
:10745000A67001327133AB42F4D11046F0BD00BFCB
:10746000440A0020AE24002008B5064803F036F890
:10747000054B01221A7000225A70AA229A70DA7003
:1074800008BD00BFBD762000A424002030B51378CD
:107490000546087A83F0020398421DD1487A537852
:1074A000984219D1887A9378984215D1C87AD378BE
:1074B000984211D1087B137998420DD1487B5379BA
:1074C000984209D1887B9379984205D1C87BD379BA
:1074D000984201D103201BE00B890F4C6BB94B89FB
:1074E000B3F57F4F09D18B89FE2B06D12368CA895A
:1074F000022023F8022B23600AE0226801F108032E
:1075000003CB083242F8080C42F8041C0120226028
:10751000A840C0B230BD00BF300A002010B50E4CEC
:107520000220A17905F06CFAA379112B01D0062B6A
:1075300005D1218D638D9942A8BF194606E03A2BEB
:1075400003D1218D49BA89B200E000210120BDE8B4
:10755000104005F055BA00BFA82D002010B5084C0A
:1075600001462378012B08D10822A01C08F052F90B
:1075700000280CBF2046002010BD002010BD00BF19
:10758000A424002008B50146132005F047FA044B57
:1075900000219B6803489847BDE80840FCF71ABFE4
:1075A00020282100A975200010B50C461146204660
:1075B00002F04EFA044B1B6813B19B6820469847B3
:1075C000024B1C6010BD00BF400A00203C0A002096
:1075D000124AF8B505460023712000FB0324A67863
:1075E000B6B9617005F03AF926460D4F0D4A3B7861
:1075F00006F8035BC01A1568A0701D4405F02EF94B
:107600003A782946821A304608F036F9A078F8BD53
:1076100001330C2BE1D14FF0FF30F8BDAE24002038
:10762000FA290020340A00202DE9F84315090F2D0E
:107630000646984602F00F0403D00F2C35D045B112
:1076400003E00F2C2FD1102425462A46304608F09F
:1076500013F92A190F2A274605DCC2F1100200216E
:10766000701908F0E3F9BCB1DFF84C80C7F11000E5
:10767000D8F8009022464946304408F0FDF8022C24
:1076800005D10A2D9FBFFF23F372FE2333734C44B1
:10769000C8F80040BDE8F88365B141463046BDE812
:1076A000F84309F0CFBC1025CFE71024002DCCD132
:1076B0002746D9E7BDE8F883300A00202DE9F04FCE
:1076C000934E944D87B0002333702B70044605F021
:1076D00041F905F0D5F8904A904B1268186002966F
:1076E000009501930AB1FFF719FF0CB98C4900E02E
:1076F000214604A80AF0DCFB8A4BDFF830A21A8886
:1077000003933E2A019B40F21382D3F80080864EF9
:1077100008F102033360009B0AF118001F78002370
:10772000023708F80730FFF719FF20B90AF10800FF
:10773000FFF714FF20B108F103033360802400E059
:1077400004469AF801209AF80010130943EA01133D
:10775000DBB2980840EA83135BB212F00F0FDDB280
:1077600001F00F000DD17149498851B910B912F0DB
:10777000F00F21D06C4A136803F8015B1360702589
:107780001BE0694978B912F0F00F0CD1086823F0BA
:107790003F031A43664B02701B88033020F8023CFB
:1077A0006825086009E0614A0B681068186003F8F2
:1077B000045B0B60602500E078255C4B9946997965
:1077C000594B112908BF45F0040515F0040F02BFFD
:1077D0001A6802F8011B1A6099F80720402A06D09F
:1077E000FF2A07D0012A08D145F0010509E045F03C
:1077F000020506E045F0030503E0196801F8012BD6
:107800001960B9F80820494B82B95A8972B99A8926
:1078100062B9DA8952B91A8A42B95A8A32B99A8A4D
:1078200022B9DB8A13B944F0400013E04148FFF766
:1078300095FE414B186078B1427818F807303D4901
:1078400043EA021308F807303C4A0420FFF71EFE03
:1078500060F03F00C4B229E048F2FE03B9F8082006
:1078600032499A420CD14B8B53B98B8B43B9CB8B9A
:1078700033B9324A08310420FFF708FE2043E9E714
:10788000294BDFF8B0C01A68994696460CF1100BE8
:10789000634603CB5B45CEF80000CEF804109C464F
:1078A0000EF1080EF4D11032C9F80020DFF87CB0D8
:1078B000DFF874909BF81830FF2B40F08D809BF818
:1078C000192044F0080E022A5FFA8EFE38D1BBF868
:1078D0001A30ABBBBBF81C3093BBBBF81E307BBB74
:1078E000BBF8203063BBBBF822304BBBBBF8243065
:1078F00033BB9BF826301BBBD9F800309BF8272000
:1079000044F00B0003F8012BC4B2C9F80030A2E028
:10791000A3240020FA290020400A0020340A002075
:10792000432C2100942D0020300A0020A82D002097
:10793000AA2D0020B02D0020280A0020A02D002014
:107940009C4B598BA1BB998B91BBD98BB1B9198C2D
:10795000A1B9598C91B993F8241079B9D9F80010CC
:1079600044F00A00C4B2084600F8012B33F8252F72
:10797000043121F8032C9B78837016E08D4BD98B52
:10798000B1B9198CA1B993F8221089B9D9F80010AE
:1079900044F00900C4B2084600F8012B53F8232F25
:1079A000063141F8052C1B790371C9F8001052E02B
:1079B000D9F80020804F144607F1100C3B4603CB4A
:1079C0006345206061601F4604F10804F6D110325F
:1079D000C9F8002074463EE00BF11800FFF7BEFD29
:1079E000764B186068B118F80710437844F0040427
:1079F0000B43E4B208F8073004AA0BF11801002089
:107A000011E048F2FE03BBF818209A4210D1BBF8EF
:107A10001A306BB9BBF81C3053B9BBF81E303BB9F8
:107A200004AA0BF11801FFF731FD2043C4B212E0A4
:107A3000D9F80020DFF880E117460EF1100C7346EC
:107A400003CB6345386079609E4607F10807F6D19D
:107A50005B4B10321A60029A5648282313708379C0
:107A60005749112B59D1028D130A43EA02234FF2D1
:107A7000B0029BB223F00F07BFB297421AD1B0F801
:107A80002AE04FEA1E2242EA0E2222F00F0292B2B0
:107A9000BA420FD13268F3231370038D02321F0AEA
:107AA000438D1B0A03EB071303F5AA6302F8013C9D
:107AB000326029E0BAF82A003E4A000280B2B0F5EE
:107AC000704F09D13368F1201870108DA3F80100B0
:107AD000528D120ADA700CE003F47F43B3F5704F55
